{
	"data": {
		"bytecode": {
			"linkReferences": {},
			"object": "60c060405234801561000f575f5ffd5b5060405161493738038061493783398101604081905261002e9161028f565b6040518060400160405280601081526020016f526577617264735374616b656441564960801b81525060405180604001604052806005815260200164737441564960d81b81525081600390816100849190610367565b5060046100918282610367565b50506001600655506001600160a01b0382811660805281811660a052626ebe006009556611c37937e08000600a55600b80546001600160a01b0319169185169190911790556100e05f8461013f565b5061010b7fa49807205ce4d355092ef5a8a18f56e8913cf4a201fbe287825b095693c217758461013f565b506101367f65d7a28e3265b37a6474929f336521b332c1681b933f6cb9f3376673440d862a8461013f565b50505050610421565b5f8061014b8484610175565b9050801561016c575f84815260086020526040902061016a9084610220565b505b90505b92915050565b5f8281526007602090815260408083206001600160a01b038516845290915281205460ff16610219575f8381526007602090815260408083206001600160a01b03861684529091529020805460ff191660011790556101d13390565b6001600160a01b0316826001600160a01b0316847f2f8788117e7eff1d82e926ec794901d17c78024a50270940304540a733656f0d60405160405180910390a450600161016f565b505f61016f565b5f61016c836001600160a01b0384165f81815260018301602052604081205461021957508154600181810184555f84815260208082209093018490558454848252828601909352604090209190915561016f565b80516001600160a01b038116811461028a575f5ffd5b919050565b5f5f5f606084860312156102a1575f5ffd5b6102aa84610274565b92506102b860208501610274565b91506102c660408501610274565b90509250925092565b634e487b7160e01b5f52604160045260245ffd5b600181811c908216806102f757607f821691505b60208210810361031557634e487b7160e01b5f52602260045260245ffd5b50919050565b601f82111561036257805f5260205f20601f840160051c810160208510156103405750805b601f840160051c820191505b8181101561035f575f815560010161034c565b50505b505050565b81516001600160401b03811115610380576103806102cf565b6103948161038e84546102e3565b8461031b565b6020601f8211600181146103c6575f83156103af5750848201515b5f19600385901b1c1916600184901b17845561035f565b5f84815260208120601f198516915b828110156103f557878501518255602094850194600190920191016103d5565b508482101561041257868401515f19600387901b60f8161c191681555b50505050600190811b01905550565b60805160a0516144c46104735f395f8181610e6401528181611c24015281816127a60152612c0601525f8181610941015281816116e6015281816120420152818161235201526132d401526144c45ff3fe608060405260043610610436575f3560e01c806375b238fc1161022b578063b8c6a92911610129578063dc21fb76116100b3578063efdcd97411610078578063efdcd97414610de7578063f122977714610e06578063f9f92be414610e25578063fbfa77cf14610e53578063fe575a8714610e86575f5ffd5b8063dc21fb7614610d11578063dd62ed3e14610d3d578063e63ab1e914610d81578063e9fad8ee14610db4578063ec35fde514610dc8575f5ffd5b8063ca15c873116100f9578063ca15c87314610c8d578063cc7045d714610cac578063d547741f14610cbf578063d79e856714610cde578063d8f6749514610cfd575f5ffd5b8063b8c6a92914610c08578063c408689314610c44578063c423be2514610c63578063c6ddd3a014610c78575f5ffd5b8063a217fddf116101b5578063acc3a9391161017a578063acc3a93914610b28578063b02e64a914610b53578063b3f0067414610b7e578063b72b85a114610b9d578063b80e679314610bbc575f5ffd5b8063a217fddf14610a8c578063a3246ad314610a9f578063a694fc3a14610acb578063a6eec45314610aea578063a9059cbb14610b09575f5ffd5b80639010d07c116101fb5780639010d07c146109f857806391d1485414610a1757806395d89b4114610a365780639d86b85014610a4a5780639e88ec1014610a5f575f5ffd5b806375b238fc1461096357806378a2574b146109835780637bb1ca19146109b95780638456cb59146109e4575f5ffd5b80632f2ff15d1161033857806354fd83c1116102c25780635c975abb116102875780635c975abb1461088f5780635da9e169146108a657806362441bf6146108dd57806370a08231146108fc57806372f702f314610930575f5ffd5b806354fd83c1146107e757806355b8fb81146108065780635b34bc41146108255780635bdeab61146108445780635bfc82ad14610863575f5ffd5b80633d509c97116103085780633d509c97146107655780633dd6aa42146107845780633f4ba83a1461079d57806345b35f56146107b15780635225f987146107b9575f5ffd5b80632f2ff15d146106f8578063313ce5671461071757806336568abe146107325780633d18b91214610751575f5ffd5b80631935ffec116103c457806323b872dd1161038957806323b872dd14610635578063248a9ca31461065457806328bcf07a146106825780632e1a7d4d146106ad5780632e569eff146106cc575f5ffd5b80631935ffec146105905780631b7447f1146105c45780631c03e6cc146105e35780631c1f78eb14610602578063211dc32d14610616575f5ffd5b8063095ea7b31161040a578063095ea7b3146104dd57806311b567b9146104fc578063129de5bf14610532578063142288061461055157806318160ddd1461057c575f5ffd5b80628cc2621461043a57806301ffc9a71461046c57806304f6c0ef1461049b57806306fdde03146104bc575b5f5ffd5b348015610445575f5ffd5b50610459610454366004613fa3565b610ebd565b6040519081526020015b60405180910390f35b348015610477575f5ffd5b5061048b610486366004613fbe565b610f04565b6040519015158152602001610463565b3480156104a6575f5ffd5b506104ba6104b5366004613fe5565b610f0e565b005b3480156104c7575f5ffd5b506104d0610fc2565b6040516104639190613ffc565b3480156104e8575f5ffd5b5061048b6104f7366004614031565b611052565b348015610507575f5ffd5b5061045961051636600461405b565b601160209081525f928352604080842090915290825290205481565b34801561053d575f5ffd5b5061045961054c366004613fa3565b611069565b34801561055c575f5ffd5b5061045961056b366004613fa3565b60106020525f908152604090205481565b348015610587575f5ffd5b50600254610459565b34801561059b575f5ffd5b506104596105aa366004613fa3565b6001600160a01b03165f9081526016602052604090205490565b3480156105cf575f5ffd5b506104ba6105de366004614092565b611128565b3480156105ee575f5ffd5b506104ba6105fd366004613fa3565b6111e8565b34801561060d575f5ffd5b50610459611328565b348015610621575f5ffd5b5061045961063036600461405b565b611378565b348015610640575f5ffd5b5061048b61064f3660046140b2565b61140e565b34801561065f575f5ffd5b5061045961066e366004613fe5565b5f9081526007602052604090206001015490565b34801561068d575f5ffd5b5061045961069c366004613fa3565b600f6020525f908152604090205481565b3480156106b8575f5ffd5b506104ba6106c7366004613fe5565b611431565b3480156106d7575f5ffd5b506106eb6106e6366004614031565b611753565b60405161046391906140f0565b348015610703575f5ffd5b506104ba610712366004614113565b61181f565b348015610722575f5ffd5b5060405160128152602001610463565b34801561073d575f5ffd5b506104ba61074c366004614113565b611849565b34801561075c575f5ffd5b506104ba611881565b348015610770575f5ffd5b506104ba61077f366004613fa3565b611907565b34801561078f575f5ffd5b5060195461048b9060ff1681565b3480156107a8575f5ffd5b506104ba611aad565b6104ba611adf565b3480156107c4575f5ffd5b5061048b6107d3366004613fa3565b600c6020525f908152604090205460ff1681565b3480156107f2575f5ffd5b506104ba610801366004613fe5565b611d30565b348015610811575f5ffd5b506104ba6108203660046140b2565b611d7c565b348015610830575f5ffd5b506104ba61083f366004613fa3565b611e04565b34801561084f575f5ffd5b506104ba61085e366004613fe5565b611e64565b34801561086e575f5ffd5b5061088261087d366004613fa3565b6120ab565b6040516104639190614136565b34801561089a575f5ffd5b5060055460ff1661048b565b3480156108b1575f5ffd5b506108c56108c0366004613fe5565b612158565b6040516001600160a01b039091168152602001610463565b3480156108e8575f5ffd5b506104ba6108f7366004613fa3565b612180565b348015610907575f5ffd5b50610459610916366004613fa3565b6001600160a01b03165f9081526020819052604090205490565b34801561093b575f5ffd5b506108c57f000000000000000000000000000000000000000000000000000000000000000081565b34801561096e575f5ffd5b506104595f51602061446f5f395f51905f5281565b34801561098e575f5ffd5b5061045961099d36600461405b565b601260209081525f928352604080842090915290825290205481565b3480156109c4575f5ffd5b506104596109d3366004613fa3565b60156020525f908152604090205481565b3480156109ef575f5ffd5b506104ba6123f7565b348015610a03575f5ffd5b506108c5610a12366004614092565b612429565b348015610a22575f5ffd5b5061048b610a31366004614113565b612440565b348015610a41575f5ffd5b506104d061246a565b348015610a55575f5ffd5b5061045960095481565b348015610a6a575f5ffd5b50610a7e610a79366004613fa3565b612479565b6040516104639291906141f5565b348015610a97575f5ffd5b506104595f81565b348015610aaa575f5ffd5b50610abe610ab9366004613fe5565b6125bb565b604051610463919061424d565b348015610ad6575f5ffd5b506104ba610ae5366004613fe5565b6125d4565b348015610af5575f5ffd5b506104ba610b0436600461425f565b612692565b348015610b14575f5ffd5b5061048b610b23366004614031565b6128d2565b348015610b33575f5ffd5b50610459610b42366004613fa3565b60146020525f908152604090205481565b348015610b5e575f5ffd5b50610459610b6d366004613fa3565b60176020525f908152604090205481565b348015610b89575f5ffd5b50600b546108c5906001600160a01b031681565b348015610ba8575f5ffd5b506104ba610bb73660046140b2565b6128df565b348015610bc7575f5ffd5b50610bdb610bd6366004614031565b6129b3565b604080519687526020870195909552938501929092526060840152608083015260a082015260c001610463565b348015610c13575f5ffd5b50610c27610c22366004614031565b612a03565b604080519384526020840192909252151590820152606001610463565b348015610c4f575f5ffd5b50610459610c5e366004613fa3565b612a44565b348015610c6e575f5ffd5b50610459600a5481565b348015610c83575f5ffd5b5061045960185481565b348015610c98575f5ffd5b50610459610ca7366004613fe5565b612af9565b6104ba610cba366004613fa3565b612b0f565b348015610cca575f5ffd5b506104ba610cd9366004614113565b612cf9565b348015610ce9575f5ffd5b506104ba610cf8366004614031565b612d1d565b348015610d08575f5ffd5b50610abe612dae565b348015610d1c575f5ffd5b50610d30610d2b366004613fa3565b612e0d565b6040516104639190614291565b348015610d48575f5ffd5b50610459610d5736600461405b565b6001600160a01b039182165f90815260016020908152604080832093909416825291909152205490565b348015610d8c575f5ffd5b506104597f65d7a28e3265b37a6474929f336521b332c1681b933f6cb9f3376673440d862a81565b348015610dbf575f5ffd5b506104ba612e94565b348015610dd3575f5ffd5b50610459610de2366004613fa3565b612ee9565b348015610df2575f5ffd5b506104ba610e01366004613fa3565b612f9a565b348015610e11575f5ffd5b50610459610e20366004613fa3565b613043565b348015610e30575f5ffd5b5061048b610e3f366004613fa3565b60136020525f908152604090205460ff1681565b348015610e5e575f5ffd5b506108c57f000000000000000000000000000000000000000000000000000000000000000081565b348015610e91575f5ffd5b5061048b610ea0366004613fa3565b6001600160a01b03165f9081526013602052604090205460ff1690565b600d545f9015610efd57610ef782600d5f81548110610ede57610ede6142e9565b5f918252602090912001546001600160a01b0316611378565b92915050565b505f919050565b5f610ef7826130d4565b5f51602061446f5f395f51905f52610f25816130f8565b5f8211610f855760405162461bcd60e51b8152602060048201526024808201527f4c6f636b206475726174696f6e206d75737420626520677265617465722074686044820152630616e20360e41b60648201526084015b60405180910390fd5b60098290556040518281527f0be752d502ead9f7f68ae425a37976abee08f7d72a78e613d13a0c1ac153915f906020015b60405180910390a15050565b606060038054610fd1906142fd565b80601f0160208091040260200160405190810160405280929190818152602001828054610ffd906142fd565b80156110485780601f1061101f57610100808354040283529160200191611048565b820191905f5260205f20905b81548152906001019060200180831161102b57829003601f168201915b5050505050905090565b5f3361105f818585613102565b5060019392505050565b6001600160a01b0381165f9081526016602052604081208190815b815481101561111f5781818154811061109f5761109f6142e9565b5f91825260209091206002600390920201015460ff161580156110e357508181815481106110cf576110cf6142e9565b905f5260205f209060030201600101544210155b15611117578181815481106110fa576110fa6142e9565b905f5260205f2090600302015f0154836111149190614349565b92505b600101611084565b50909392505050565b61113061310f565b335f5b600d54811015611193575f600d8281548110611151576111516142e9565b5f9182526020808320909101546001600160a01b0316808352600c90915260409091205490915060ff161561118a5761118a8184613139565b50600101611133565b5061119c613232565b335f9081526013602052604090205460ff16156111ce573360405163e34017e160e01b8152600401610f7c919061435c565b6111d9338484613256565b506111e46001600655565b5050565b5f51602061446f5f395f51905f526111ff816130f8565b6001600160a01b03821661124d5760405162461bcd60e51b8152602060048201526015602482015274496e76616c696420746f6b656e206164647265737360581b6044820152606401610f7c565b6001600160a01b0382165f908152600c602052604090205460ff1615611291576040516301e2357560e01b81526001600160a01b0383166004820152602401610f7c565b6001600160a01b0382165f818152600c60209081526040808320805460ff19166001908117909155600d805491820190557fd7b6990105719101dabeb77144f2a3385c8033acd3af97e9423a695e81ad1eb50180546001600160a01b03191685179055600f909152808220429055517ff3e4c2c64e71e6ba2eaab9a599bced62f9eb91d2cda610bf41aa8c80ff2cf8269190a25050565b600d545f901561137357611361600d5f81548110611348576113486142e9565b5f918252602090912001546001600160a01b0316612ee9565b61136e90621275006143c1565b905090565b505f90565b6001600160a01b038083165f818152601260209081526040808320948616808452948252808320549383526011825280832094835293905291822054670de0b6b3a7640000906113c785613043565b6113d191906143d8565b6001600160a01b0386165f908152602081905260409020546113f391906143c1565b6113fd91906143eb565b6114079190614349565b9392505050565b5f3361141b85828561342e565b6114268585856134a4565b506001949350505050565b61143961310f565b335f5b600d5481101561149c575f600d828154811061145a5761145a6142e9565b5f9182526020808320909101546001600160a01b0316808352600c90915260409091205490915060ff1615611493576114938184613139565b5060010161143c565b506114a5613232565b335f9081526013602052604090205460ff16156114d7573360405163e34017e160e01b8152600401610f7c919061435c565b5f821161151a5760405162461bcd60e51b8152602060048201526011602482015270043616e6e6f74207769746864726177203607c1b6044820152606401610f7c565b5f61152433611069565b9050808311156115515760405163edf89e3d60e01b81526004810184905260248101829052604401610f7c565b335f90815260166020526040812084915b81548110801561157157505f83115b156116aa57818181548110611588576115886142e9565b5f91825260209091206002600390920201015460ff161580156115cc57508181815481106115b8576115b86142e9565b905f5260205f209060030201600101544210155b1561169857828282815481106115e4576115e46142e9565b905f5260205f2090600302015f0154116116605781818154811061160a5761160a6142e9565b905f5260205f2090600302015f01548361162491906143d8565b9250600182828154811061163a5761163a6142e9565b5f9182526020909120600390910201600201805460ff1916911515919091179055611698565b82828281548110611673576116736142e9565b905f5260205f2090600302015f015f82825461168f91906143d8565b909155505f9350505b806116a28161440a565b915050611562565b50335f90815260146020526040812080548792906116c99084906143d8565b909155506116d990503386613501565b61170d6001600160a01b037f0000000000000000000000000000000000000000000000000000000000000000163387613535565b60405185815233907f7084f5476618d8e60b11ef0d7d3f06914655adb8793e28ff7f018d4c76d505d59060200160405180910390a2505050506117506001600655565b50565b61177660405180606001604052805f81526020015f81526020015f151581525090565b6001600160a01b0383165f9081526016602052604090205482106117b0576040516333200a8b60e11b815260048101839052602401610f7c565b6001600160a01b0383165f9081526016602052604090208054839081106117d9576117d96142e9565b5f9182526020918290206040805160608101825260039093029091018054835260018101549383019390935260029092015460ff16151591810191909152905092915050565b5f82815260076020526040902060010154611839816130f8565b6118438383613594565b50505050565b6001600160a01b03811633146118725760405163334bd91960e11b815260040160405180910390fd5b61187c82826135c7565b505050565b61188961310f565b611891613232565b335f9081526013602052604090205460ff16156118c3573360405163e34017e160e01b8152600401610f7c919061435c565b600d54156118fb576118fb600d5f815481106118e1576118e16142e9565b5f918252602090912001546001600160a01b031633613139565b6119056001600655565b565b5f51602061446f5f395f51905f5261191e816130f8565b6001600160a01b0382165f908152600c602052604090205460ff166119615760405163751dff9760e11b81526001600160a01b0383166004820152602401610f7c565b6001600160a01b0382165f908152600c60205260408120805460ff191690555b600d54811015611a7557826001600160a01b0316600d82815481106119a8576119a86142e9565b5f918252602090912001546001600160a01b031603611a6d57600d80546119d1906001906143d8565b815481106119e1576119e16142e9565b5f91825260209091200154600d80546001600160a01b039092169183908110611a0c57611a0c6142e9565b905f5260205f20015f6101000a8154816001600160a01b0302191690836001600160a01b03160217905550600d805480611a4857611a48614422565b5f8281526020902081015f1990810180546001600160a01b0319169055019055611a75565b600101611981565b506040516001600160a01b038316907f66257bcef574219c04f7c05f7a1c78d599da10491294c92a5805c48b4cdf5009905f90a25050565b7f65d7a28e3265b37a6474929f336521b332c1681b933f6cb9f3376673440d862a611ad7816130f8565b6117506135f2565b611ae761310f565b611aef613232565b335f9081526013602052604090205460ff1615611b21573360405163e34017e160e01b8152600401610f7c919061435c565b600a54341015611b6c5760405162461bcd60e51b8152602060048201526016602482015275496e73756666696369656e7420636c61696d2066656560501b6044820152606401610f7c565b5f805b600d54811015611cdb575f600d8281548110611b8d57611b8d6142e9565b5f9182526020808320909101546001600160a01b0316808352600c90915260409091205490915060ff1615611cd257611bc68133613139565b335f9081526012602090815260408083206001600160a01b03851684529091529020548015611cd057335f8181526012602090815260408083206001600160a01b038781168552925280832092909255905163cd8515cf60e01b81527f00000000000000000000000000000000000000000000000000000000000000009091169163cd8515cf91611c5e919086908690600401614436565b5f604051808303815f87803b158015611c75575f5ffd5b505af1158015611c87573d5f5f3e3d5ffd5b50506040518381526001600160a01b03851692503391507f540798df468d7b23d11f156fdb954cb19ad414d150722a7b6d55ba369dea792e9060200160405180910390a3600193505b505b50600101611b6f565b505f34118015611ce85750805b15611d2557600b546040516001600160a01b03909116903480156108fc02915f818181858888f19350505050158015611d23573d5f5f3e3d5ffd5b505b506119056001600655565b5f51602061446f5f395f51905f52611d47816130f8565b600a8290556040518281527fc4530a2c82a973da2165d940859f86f630ca14e4ea7679c03bed6a999d029bf190602001610fb6565b5f51602061446f5f395f51905f52611d93816130f8565b611da76001600160a01b0385168484613535565b826001600160a01b0316846001600160a01b0316336001600160a01b03167f2503bf16a63c716afc6165935443fdbfcda0bfae53b99ae0935bc46d1298bb8685604051611df691815260200190565b60405180910390a450505050565b5f51602061446f5f395f51905f52611e1b816130f8565b6001600160a01b0382165f81815260136020526040808220805460ff19169055517f1747ca720b1a174a464b6513ace29b1d3190b5f632b9f34147017c81425bfde89190a25050565b611e6c61310f565b335f5b600d54811015611ecf575f600d8281548110611e8d57611e8d6142e9565b5f9182526020808320909101546001600160a01b0316808352600c90915260409091205490915060ff1615611ec657611ec68184613139565b50600101611e6f565b50611ed8613232565b335f9081526013602052604090205460ff1615611f0a573360405163e34017e160e01b8152600401610f7c919061435c565b335f908152601660205260409020548210611f3b576040516333200a8b60e11b815260048101839052602401610f7c565b335f908152601660205260408120805484908110611f5b57611f5b6142e9565b5f9182526020909120600390910201600281015490915060ff1615611fc25760405162461bcd60e51b815260206004820152601a60248201527f506f736974696f6e20616c72656164792077697468647261776e0000000000006044820152606401610f7c565b8060010154421015611ff65760018101546040516310f2604160e01b81524260048201526024810191909152604401610f7c565b805460028201805460ff19166001179055335f90815260146020526040812080548392906120259084906143d8565b9091555061203590503382613501565b6120696001600160a01b037f0000000000000000000000000000000000000000000000000000000000000000163383613535565b60405181815233907f7084f5476618d8e60b11ef0d7d3f06914655adb8793e28ff7f018d4c76d505d59060200160405180910390a25050506117506001600655565b6001600160a01b0381165f908152600e60209081526040808320805482518185028101850190935280835260609492939192909184015b8282101561214d578382905f5260205f2090600602016040518060c00160405290815f820154815260200160018201548152602001600282015481526020016003820154815260200160048201548152602001600582015481525050815260200190600101906120e2565b505050509050919050565b600d8181548110612167575f80fd5b5f918252602090912001546001600160a01b0316905081565b5f51602061446f5f395f51905f52612197816130f8565b815f5b600d548110156121fa575f600d82815481106121b8576121b86142e9565b5f9182526020808320909101546001600160a01b0316808352600c90915260409091205490915060ff16156121f1576121f18184613139565b5060010161219a565b506001600160a01b0383165f908152601360209081526040808320805460ff19166001179055601490915290205480156123be576001600160a01b0384165f908152601660205260408120905b81548110156122ba57818181548110612262576122626142e9565b5f91825260209091206002600390920201015460ff166122b2576001828281548110612290576122906142e9565b5f9182526020909120600390910201600201805460ff19169115159190911790555b600101612247565b506001600160a01b0385165f9081526014602052604081208190555b600d5481101561233a576001600160a01b0386165f908152601260205260408120600d80548391908590811061230e5761230e6142e9565b5f9182526020808320909101546001600160a01b031683528201929092526040019020556001016122d6565b506123458583613501565b6123796001600160a01b037f0000000000000000000000000000000000000000000000000000000000000000168684613535565b846001600160a01b03167ff7d69068585ead05d609f5965c9147570964ea979546ee5b072f31b7c31a6ee5836040516123b491815260200190565b60405180910390a2505b6040516001600160a01b038516907f44d5fe68b00f68950fb9c1ff0a61ef7f747b1a36359a7e3a7f3324db4b878967905f90a250505050565b7f65d7a28e3265b37a6474929f336521b332c1681b933f6cb9f3376673440d862a612421816130f8565b611750613644565b5f8281526008602052604081206114079083613681565b5f9182526007602090815260408084206001600160a01b0393909316845291905290205460ff1690565b606060048054610fd1906142fd565b600d54606090819067ffffffffffffffff8111156124995761249961445a565b6040519080825280602002602001820160405280156124c2578160200160208202803683370190505b50600d5490925067ffffffffffffffff8111156124e1576124e161445a565b60405190808252806020026020018201604052801561250a578160200160208202803683370190505b5090505f5b600d548110156125b557600d818154811061252c5761252c6142e9565b905f5260205f20015f9054906101000a90046001600160a01b0316838281518110612559576125596142e9565b60200260200101906001600160a01b031690816001600160a01b03168152505061259084600d8381548110610ede57610ede6142e9565b8282815181106125a2576125a26142e9565b602090810291909101015260010161250f565b50915091565b5f818152600860205260409020606090610ef79061368c565b6125dc61310f565b335f5b600d5481101561263f575f600d82815481106125fd576125fd6142e9565b5f9182526020808320909101546001600160a01b0316808352600c90915260409091205490915060ff1615612636576126368184613139565b506001016125df565b50612648613232565b335f9081526013602052604090205460ff161561267a573360405163e34017e160e01b8152600401610f7c919061435c565b6126873383600954613256565b506117506001600655565b5f51602061446f5f395f51905f526126a9816130f8565b835f6126b58282613139565b6001600160a01b0386165f908152600c602052604090205460ff166126f85760405163751dff9760e11b81526001600160a01b0387166004820152602401610f7c565b5f85116127475760405162461bcd60e51b815260206004820152601760248201527f43616e6e6f7420737570706c79203020726577617264730000000000000000006044820152606401610f7c565b5f84116127965760405162461bcd60e51b815260206004820152601f60248201527f4475726174696f6e206d7573742062652067726561746572207468616e2030006044820152606401610f7c565b6127cb6001600160a01b038716337f000000000000000000000000000000000000000000000000000000000000000088613698565b6001600160a01b0386165f908152600e602052604090819020815160c0810190925290806127f987896143eb565b815260200142815260200186426128109190614349565b815260208082018990525f604080840182905260609384018290528554600181810188559683529183902085516006909302019182559184015194810194909455820151600284015581015160038301556080810151600483015560a001516005909101556001600160a01b0386167f0727302becd070529b3293f4ec8f553d9f6ae1773f638598db1205fbf890808386866128ac81836143eb565b6040805193845260208401929092529082015260600160405180910390a2505050505050565b5f3361105f8185856134a4565b5f51602061446f5f395f51905f526128f6816130f8565b6040516323b872dd60e01b815284906001600160a01b038216906323b872dd9061292890309088908890600401614436565b5f604051808303815f87803b15801561293f575f5ffd5b505af1158015612951573d5f5f3e3d5ffd5b50505050836001600160a01b0316856001600160a01b0316336001600160a01b03167f4744bb01c1ab0b5b28a5d0006a4318240b4e4243c572309d6814313ea8e05549866040516129a491815260200190565b60405180910390a45050505050565b600e602052815f5260405f2081815481106129cc575f80fd5b5f91825260209091206006909102018054600182015460028301546003840154600485015460059095015493965091945092909186565b6016602052815f5260405f208181548110612a1c575f80fd5b5f91825260209091206003909102018054600182015460029092015490935090915060ff1683565b6001600160a01b0381165f9081526016602052604081208190815b815481101561111f57818181548110612a7a57612a7a6142e9565b5f91825260209091206002600390920201015460ff16158015612abd5750818181548110612aaa57612aaa6142e9565b905f5260205f2090600302016001015442105b15612af157818181548110612ad457612ad46142e9565b905f5260205f2090600302015f015483612aee9190614349565b92505b600101612a5f565b5f818152600860205260408120610ef7906136c0565b612b1761310f565b8033612b238282613139565b612b2b613232565b335f9081526013602052604090205460ff1615612b5d573360405163e34017e160e01b8152600401610f7c919061435c565b600a54341015612ba85760405162461bcd60e51b8152602060048201526016602482015275496e73756666696369656e7420636c61696d2066656560501b6044820152606401610f7c565b335f9081526012602090815260408083206001600160a01b03871684529091529020548015612cae57335f8181526012602090815260408083206001600160a01b038981168552925280832092909255905163cd8515cf60e01b81527f00000000000000000000000000000000000000000000000000000000000000009091169163cd8515cf91612c40919088908690600401614436565b5f604051808303815f87803b158015612c57575f5ffd5b505af1158015612c69573d5f5f3e3d5ffd5b50506040518381526001600160a01b03871692503391507f540798df468d7b23d11f156fdb954cb19ad414d150722a7b6d55ba369dea792e9060200160405180910390a35b3415612cec57600b546040516001600160a01b03909116903480156108fc02915f818181858888f19350505050158015612cea573d5f5f3e3d5ffd5b505b5050506117506001600655565b5f82815260076020526040902060010154612d13816130f8565b61184383836135c7565b5f51602061446f5f395f51905f52612d34816130f8565b6040516001600160a01b0384169083156108fc029084905f818181858888f19350505050158015612d67573d5f5f3e3d5ffd5b506040518281526001600160a01b0384169033907f51a3aef945b229f9f13f9c7411484fe8436ed204499a994908f9b913103928ba906020015b60405180910390a3505050565b6060600d80548060200260200160405190810160405280929190818152602001828054801561104857602002820191905f5260205f20905b81546001600160a01b03168152600190910190602001808311612de6575050505050905090565b6001600160a01b0381165f908152601660209081526040808320805482518185028101850190935280835260609492939192909184015b8282101561214d575f8481526020908190206040805160608101825260038602909201805483526001808201548486015260029091015460ff161515918301919091529083529092019101612e44565b612e9c613232565b335f9081526013602052604090205460ff1615612ece573360405163e34017e160e01b8152600401610f7c919061435c565b5f612ed833611069565b905080156117505761175081611431565b6001600160a01b0381165f908152600e602052604081208190815b815481101561111f57818181548110612f1f57612f1f6142e9565b905f5260205f209060060201600101544210158015612f5e5750818181548110612f4b57612f4b6142e9565b905f5260205f2090600602016002015442105b15612f9257818181548110612f7557612f756142e9565b905f5260205f2090600602015f015483612f8f9190614349565b92505b600101612f04565b5f51602061446f5f395f51905f52612fb1816130f8565b6001600160a01b038216612ff95760405162461bcd60e51b815260206004820152600f60248201526e496e76616c6964206164647265737360881b6044820152606401610f7c565b600b80546001600160a01b0319166001600160a01b0384169081179091556040517fbdf37c276f641820b141429d245add2552b4118c0866e5a78638e3de5ef18d9d905f90a25050565b5f61304d60025490565b5f0361306e57506001600160a01b03165f9081526010602052604090205490565b5f61307883612ee9565b6001600160a01b0384165f908152600f60205260408120549192509061309e90426143d8565b90506130aa82826143c1565b6001600160a01b0385165f908152601060205260409020546130cc9190614349565b949350505050565b5f6001600160e01b03198216635a05180f60e01b1480610ef75750610ef7826136c9565b61175081336136fd565b61187c8383836001613736565b60026006540361313257604051633ee5aeb560e01b815260040160405180910390fd5b6002600655565b613141613808565b5f61314b60025490565b11156131bc575f61315b83612ee9565b6001600160a01b0384165f908152600f60205260408120549192509061318190426143d8565b905061318d82826143c1565b6001600160a01b0385165f90815260106020526040812080549091906131b4908490614349565b909155505050505b6001600160a01b038083165f908152600f602052604090204290558116156111e4576131e88183611378565b6001600160a01b039182165f818152601260209081526040808320969095168083529581528482209390935560108352838120549181526011835283812094815293909152912055565b60055460ff16156119055760405163d93c066560e01b815260040160405180910390fd5b5f82116132965760405162461bcd60e51b815260206004820152600e60248201526d043616e6e6f74207374616b6520360941b6044820152606401610f7c565b6009548110156132c75760095460405163102313b160e31b8152610f7c918391600401918252602082015260400190565b6132fc6001600160a01b037f000000000000000000000000000000000000000000000000000000000000000016843085613698565b6133068383613a61565b6001600160a01b0383165f908152601660209081526040918290208251606081019093528483529190810161333b8442614349565b81525f6020918201819052835460018082018655948252828220845160039092020190815583830151948101949094556040928301516002909401805460ff1916941515949094179093556001600160a01b038616835260149052812080548492906133a8908490614349565b90915550506001600160a01b0383165f9081526017602052604081208054916133d08361440a565b90915550506001600160a01b0383165f8181526015602090815260409182902042905581518581529081018490527f1449c6dd7851abc30abf37f57715f492010519147cc2652fbc38202c18a6ee90910160405180910390a2505050565b6001600160a01b038381165f908152600160209081526040808320938616835292905220545f19811015611843578181101561349657604051637dc7a0d960e11b81526001600160a01b03841660048201526024810182905260448101839052606401610f7c565b61184384848484035f613736565b6001600160a01b0383166134cd57604051634b637e8f60e11b81525f6004820152602401610f7c565b6001600160a01b0382166134f65760405163ec442f0560e01b81525f6004820152602401610f7c565b61187c838383613a91565b6001600160a01b03821661352a57604051634b637e8f60e11b81525f6004820152602401610f7c565b6111e4825f83613a91565b6040516001600160a01b0383811660248301526044820183905261187c91859182169063a9059cbb906064015b604051602081830303815290604052915060e01b6020820180516001600160e01b038381831617835250505050613b09565b5f5f6135a08484613b75565b90508015611407575f8481526008602052604090206135bf9084613c06565b509392505050565b5f5f6135d38484613c1a565b90508015611407575f8481526008602052604090206135bf9084613c85565b6135fa613c99565b6005805460ff191690557f5db9ee0a495bf2e6ff9c91a7834c1ba4fdd244a5e8aa4e537bd38aeae4b073aa335b6040516001600160a01b03909116815260200160405180910390a1565b61364c613232565b6005805460ff191660011790557f62e78cea01bee320cd4e420270b5ea74000d11b0c9f74754ebdbfc544b05a2586136273390565b5f6114078383613cbc565b60605f61140783613ce2565b61184384856001600160a01b03166323b872dd86868660405160240161356293929190614436565b5f610ef7825490565b5f6001600160e01b03198216637965db0b60e01b1480610ef757506301ffc9a760e01b6001600160e01b0319831614610ef7565b6137078282612440565b6111e45760405163e2517d3f60e01b81526001600160a01b038216600482015260248101839052604401610f7c565b6001600160a01b03841661375f5760405163e602df0560e01b81525f6004820152602401610f7c565b6001600160a01b03831661378857604051634a1406b160e11b81525f6004820152602401610f7c565b6001600160a01b038085165f908152600160209081526040808320938716835292905220829055801561184357826001600160a01b0316846001600160a01b03167f8c5be1e5ebec7d5bd14f71427d1e84f3dd0314c0f7b2291e5b200ac8c7c3b925846040516137fa91815260200190565b60405180910390a350505050565b5f61381260025490565b159050808015613825575060195460ff16155b1561394757426018556019805460ff191660011790555f5b600d548110156111e4575f600d828154811061385b5761385b6142e9565b5f9182526020808320909101546001600160a01b0316808352600e90915260408220909250905b815481101561393c5781818154811061389d5761389d6142e9565b905f5260205f209060060201600401545f1480156138dc57508181815481106138c8576138c86142e9565b905f5260205f209060060201600101544210155b801561390857508181815481106138f5576138f56142e9565b905f5260205f2090600602016002015442105b156139345742828281548110613920576139206142e9565b905f5260205f209060060201600401819055505b600101613882565b50505060010161383d565b80158015613957575060195460ff165b15611750575f6018544261396b91906143d8565b6019805460ff1916905590505f5b600d5481101561187c575f600d8281548110613997576139976142e9565b5f9182526020808320909101546001600160a01b0316808352600e90915260408220909250905b8154811015613a56575f8282815481106139da576139da6142e9565b905f5260205f209060060201600401541115613a4e5784828281548110613a0357613a036142e9565b905f5260205f2090600602016005015f828254613a209190614349565b925050819055505f828281548110613a3a57613a3a6142e9565b905f5260205f209060060201600401819055505b6001016139be565b505050600101613979565b6001600160a01b038216613a8a5760405163ec442f0560e01b81525f6004820152602401610f7c565b6111e45f83835b5f5b600d54811015613afd575f600d8281548110613ab157613ab16142e9565b5f9182526020808320909101546001600160a01b0316808352600c90915260409091205490915060ff1615613af457613aea8186613139565b613af48185613139565b50600101613a93565b5061187c838383613d3b565b5f5f60205f8451602086015f885af180613b28576040513d5f823e3d81fd5b50505f513d91508115613b3f578060011415613b4c565b6001600160a01b0384163b155b1561184357604051635274afe760e01b81526001600160a01b0385166004820152602401610f7c565b5f613b808383612440565b613bff575f8381526007602090815260408083206001600160a01b03861684529091529020805460ff19166001179055613bb73390565b6001600160a01b0316826001600160a01b0316847f2f8788117e7eff1d82e926ec794901d17c78024a50270940304540a733656f0d60405160405180910390a4506001610ef7565b505f610ef7565b5f611407836001600160a01b038416613d4e565b5f613c258383612440565b15613bff575f8381526007602090815260408083206001600160a01b0386168085529252808320805460ff1916905551339286917ff6391f5c32d9c69d2a47ea670b442974b53935d1edc7fd64eb21e047a839171b9190a4506001610ef7565b5f611407836001600160a01b038416613d93565b60055460ff1661190557604051638dfc202b60e01b815260040160405180910390fd5b5f825f018281548110613cd157613cd16142e9565b905f5260205f200154905092915050565b6060815f01805480602002602001604051908101604052809291908181526020018280548015613d2f57602002820191905f5260205f20905b815481526020019060010190808311613d1b575b50505050509050919050565b613d43613232565b61187c838383613e76565b5f818152600183016020526040812054613bff57508154600181810184555f848152602080822090930184905584548482528286019093526040902091909155610ef7565b5f8181526001830160205260408120548015613e6d575f613db56001836143d8565b85549091505f90613dc8906001906143d8565b9050808214613e27575f865f018281548110613de657613de66142e9565b905f5260205f200154905080875f018481548110613e0657613e066142e9565b5f918252602080832090910192909255918252600188019052604090208390555b8554869080613e3857613e38614422565b600190038181905f5260205f20015f90559055856001015f8681526020019081526020015f205f905560019350505050610ef7565b5f915050610ef7565b6001600160a01b038316613ea0578060025f828254613e959190614349565b90915550613f109050565b6001600160a01b0383165f9081526020819052604090205481811015613ef25760405163391434e360e21b81526001600160a01b03851660048201526024810182905260448101839052606401610f7c565b6001600160a01b0384165f9081526020819052604090209082900390555b6001600160a01b038216613f2c57600280548290039055613f4a565b6001600160a01b0382165f9081526020819052604090208054820190555b816001600160a01b0316836001600160a01b03167fddf252ad1be2c89b69c2b068fc378daa952ba7f163c4a11628f55a4df523b3ef83604051612da191815260200190565b6001600160a01b0381168114611750575f5ffd5b5f60208284031215613fb3575f5ffd5b813561140781613f8f565b5f60208284031215613fce575f5ffd5b81356001600160e01b031981168114611407575f5ffd5b5f60208284031215613ff5575f5ffd5b5035919050565b602081525f82518060208401528060208501604085015e5f604082850101526040601f19601f83011684010191505092915050565b5f5f60408385031215614042575f5ffd5b823561404d81613f8f565b946020939093013593505050565b5f5f6040838503121561406c575f5ffd5b823561407781613f8f565b9150602083013561408781613f8f565b809150509250929050565b5f5f604083850312156140a3575f5ffd5b50508035926020909101359150565b5f5f5f606084860312156140c4575f5ffd5b83356140cf81613f8f565b925060208401356140df81613f8f565b929592945050506040919091013590565b815181526020808301519082015260408083015115159082015260608101610ef7565b5f5f60408385031215614124575f5ffd5b82359150602083013561408781613f8f565b602080825282518282018190525f918401906040840190835b818110156141a7578351805184526020810151602085015260408101516040850152606081015160608501526080810151608085015260a081015160a08501525060c08301925060208401935060018101905061414f565b509095945050505050565b5f8151808452602084019350602083015f5b828110156141eb5781516001600160a01b03168652602095860195909101906001016141c4565b5093949350505050565b604081525f61420760408301856141b2565b82810360208401528084518083526020830191506020860192505f5b81811015614241578351835260209384019390920191600101614223565b50909695505050505050565b602081525f61140760208301846141b2565b5f5f5f60608486031215614271575f5ffd5b833561427c81613f8f565b95602085013595506040909401359392505050565b602080825282518282018190525f918401906040840190835b818110156141a7576142d383855180518252602080820151908301526040908101511515910152565b60209390930192606092909201916001016142aa565b634e487b7160e01b5f52603260045260245ffd5b600181811c9082168061431157607f821691505b60208210810361432f57634e487b7160e01b5f52602260045260245ffd5b50919050565b634e487b7160e01b5f52601160045260245ffd5b80820180821115610ef757610ef7614335565b6001600160a01b039190911681526040602082018190526033908201527f596f7520617265206e6f7420616c6c6f77656420746f20696e746572616374206060820152723bb4ba34103a3434b99031b7b73a3930b1ba1760691b608082015260a00190565b8082028115828204841417610ef757610ef7614335565b81810381811115610ef757610ef7614335565b5f8261440557634e487b7160e01b5f52601260045260245ffd5b500490565b5f6001820161441b5761441b614335565b5060010190565b634e487b7160e01b5f52603160045260245ffd5b6001600160a01b039384168152919092166020820152604081019190915260600190565b634e487b7160e01b5f52604160045260245ffdfea49807205ce4d355092ef5a8a18f56e8913cf4a201fbe287825b095693c21775a264697066735822122090af4ef75c6a1887c5b5cce5cf573ed08f7f1ecc492f12d9d24162c67280444064736f6c634300081d0033",
			"opcodes": "PUSH1 0xC0 PUSH1 0x40 MSTORE CALLVALUE DUP1 ISZERO PUSH2 0xF JUMPI PUSH0 PUSH0 REVERT JUMPDEST POP PUSH1 0x40 MLOAD PUSH2 0x4937 CODESIZE SUB DUP1 PUSH2 0x4937 DUP4 CODECOPY DUP2 ADD PUSH1 0x40 DUP2 SWAP1 MSTORE PUSH2 0x2E SWAP2 PUSH2 0x28F JUMP JUMPDEST PUSH1 0x40 MLOAD DUP1 PUSH1 0x40 ADD PUSH1 0x40 MSTORE DUP1 PUSH1 0x10 DUP2 MSTORE PUSH1 0x20 ADD PUSH16 0x526577617264735374616B6564415649 PUSH1 0x80 SHL DUP2 MSTORE POP PUSH1 0x40 MLOAD DUP1 PUSH1 0x40 ADD PUSH1 0x40 MSTORE DUP1 PUSH1 0x5 DUP2 MSTORE PUSH1 0x20 ADD PUSH5 0x7374415649 PUSH1 0xD8 SHL DUP2 MSTORE POP DUP2 PUSH1 0x3 SWAP1 DUP2 PUSH2 0x84 SWAP2 SWAP1 PUSH2 0x367 JUMP JUMPDEST POP PUSH1 0x4 PUSH2 0x91 DUP3 DUP3 PUSH2 0x367 JUMP JUMPDEST POP POP PUSH1 0x1 PUSH1 0x6 SSTORE POP PUSH1 0x1 PUSH1 0x1 PUSH1 0xA0 SHL SUB DUP3 DUP2 AND PUSH1 0x80 MSTORE DUP2 DUP2 AND PUSH1 0xA0 MSTORE PUSH3 0x6EBE00 PUSH1 0x9 SSTORE PUSH7 0x11C37937E08000 PUSH1 0xA SSTORE PUSH1 0xB DUP1 SLOAD PUSH1 0x1 PUSH1 0x1 PUSH1 0xA0 SHL SUB NOT AND SWAP2 DUP6 AND SWAP2 SWAP1 SWAP2 OR SWAP1 SSTORE PUSH2 0xE0 PUSH0 DUP5 PUSH2 0x13F JUMP JUMPDEST POP PUSH2 0x10B PUSH32 0xA49807205CE4D355092EF5A8A18F56E8913CF4A201FBE287825B095693C21775 DUP5 PUSH2 0x13F JUMP JUMPDEST POP PUSH2 0x136 PUSH32 0x65D7A28E3265B37A6474929F336521B332C1681B933F6CB9F3376673440D862A DUP5 PUSH2 0x13F JUMP JUMPDEST POP POP POP POP PUSH2 0x421 JUMP JUMPDEST PUSH0 DUP1 PUSH2 0x14B DUP5 DUP5 PUSH2 0x175 JUMP JUMPDEST SWAP1 POP DUP1 ISZERO PUSH2 0x16C JUMPI PUSH0 DUP5 DUP2 MSTORE PUSH1 0x8 PUSH1 0x20 MSTORE PUSH1 0x40 SWAP1 KECCAK256 PUSH2 0x16A SWAP1 DUP5 PUSH2 0x220 JUMP JUMPDEST POP JUMPDEST SWAP1 POP JUMPDEST SWAP3 SWAP2 POP POP JUMP JUMPDEST PUSH0 DUP3 DUP2 MSTORE PUSH1 0x7 PUSH1 0x20 SWAP1 DUP2 MSTORE PUSH1 0x40 DUP1 DUP4 KECCAK256 PUSH1 0x1 PUSH1 0x1 PUSH1 0xA0 SHL SUB DUP6 AND DUP5 MSTORE SWAP1 SWAP2 MSTORE DUP2 KECCAK256 SLOAD PUSH1 0xFF AND PUSH2 0x219 JUMPI PUSH0 DUP4 DUP2 MSTORE PUSH1 0x7 PUSH1 0x20 SWAP1 DUP2 MSTORE PUSH1 0x40 DUP1 DUP4 KECCAK256 PUSH1 0x1 PUSH1 0x1 PUSH1 0xA0 SHL SUB DUP7 AND DUP5 MSTORE SWAP1 SWAP2 MSTORE SWAP1 KECCAK256 DUP1 SLOAD PUSH1 0xFF NOT AND PUSH1 0x1 OR SWAP1 SSTORE PUSH2 0x1D1 CALLER SWAP1 JUMP JUMPDEST PUSH1 0x1 PUSH1 0x1 PUSH1 0xA0 SHL SUB AND DUP3 PUSH1 0x1 PUSH1 0x1 PUSH1 0xA0 SHL SUB AND DUP5 PUSH32 0x2F8788117E7EFF1D82E926EC794901D17C78024A50270940304540A733656F0D PUSH1 0x40 MLOAD PUSH1 0x40 MLOAD DUP1 SWAP2 SUB SWAP1 LOG4 POP PUSH1 0x1 PUSH2 0x16F JUMP JUMPDEST POP PUSH0 PUSH2 0x16F JUMP JUMPDEST PUSH0 PUSH2 0x16C DUP4 PUSH1 0x1 PUSH1 0x1 PUSH1 0xA0 SHL SUB DUP5 AND PUSH0 DUP2 DUP2 MSTORE PUSH1 0x1 DUP4 ADD PUSH1 0x20 MSTORE PUSH1 0x40 DUP2 KECCAK256 SLOAD PUSH2 0x219 JUMPI POP DUP2 SLOAD PUSH1 0x1 DUP2 DUP2 ADD DUP5 SSTORE PUSH0 DUP5 DUP2 MSTORE PUSH1 0x20 DUP1 DUP3 KECCAK256 SWAP1 SWAP4 ADD DUP5 SWAP1 SSTORE DUP5 SLOAD DUP5 DUP3 MSTORE DUP3 DUP7 ADD SWAP1 SWAP4 MSTORE PUSH1 0x40 SWAP1 KECCAK256 SWAP2 SWAP1 SWAP2 SSTORE PUSH2 0x16F JUMP JUMPDEST DUP1 MLOAD PUSH1 0x1 PUSH1 0x1 PUSH1 0xA0 SHL SUB DUP2 AND DUP2 EQ PUSH2 0x28A JUMPI PUSH0 PUSH0 REVERT JUMPDEST SWAP2 SWAP1 POP JUMP JUMPDEST PUSH0 PUSH0 PUSH0 PUSH1 0x60 DUP5 DUP7 SUB SLT ISZERO PUSH2 0x2A1 JUMPI PUSH0 PUSH0 REVERT JUMPDEST PUSH2 0x2AA DUP5 PUSH2 0x274 JUMP JUMPDEST SWAP3 POP PUSH2 0x2B8 PUSH1 0x20 DUP6 ADD PUSH2 0x274 JUMP JUMPDEST SWAP2 POP PUSH2 0x2C6 PUSH1 0x40 DUP6 ADD PUSH2 0x274 JUMP JUMPDEST SWAP1 POP SWAP3 POP SWAP3 POP SWAP3 JUMP JUMPDEST PUSH4 0x4E487B71 PUSH1 0xE0 SHL PUSH0 MSTORE PUSH1 0x41 PUSH1 0x4 MSTORE PUSH1 0x24 PUSH0 REVERT JUMPDEST PUSH1 0x1 DUP2 DUP2 SHR SWAP1 DUP3 AND DUP1 PUSH2 0x2F7 JUMPI PUSH1 0x7F DUP3 AND SWAP2 POP JUMPDEST PUSH1 0x20 DUP3 LT DUP2 SUB PUSH2 0x315 JUMPI PUSH4 0x4E487B71 PUSH1 0xE0 SHL PUSH0 MSTORE PUSH1 0x22 PUSH1 0x4 MSTORE PUSH1 0x24 PUSH0 REVERT JUMPDEST POP SWAP2 SWAP1 POP JUMP JUMPDEST PUSH1 0x1F DUP3 GT ISZERO PUSH2 0x362 JUMPI DUP1 PUSH0 MSTORE PUSH1 0x20 PUSH0 KECCAK256 PUSH1 0x1F DUP5 ADD PUSH1 0x5 SHR DUP2 ADD PUSH1 0x20 DUP6 LT ISZERO PUSH2 0x340 JUMPI POP DUP1 JUMPDEST PUSH1 0x1F DUP5 ADD PUSH1 0x5 SHR DUP3 ADD SWAP2 POP JUMPDEST DUP2 DUP2 LT ISZERO PUSH2 0x35F JUMPI PUSH0 DUP2 SSTORE PUSH1 0x1 ADD PUSH2 0x34C JUMP JUMPDEST POP POP JUMPDEST POP POP POP JUMP JUMPDEST DUP2 MLOAD PUSH1 0x1 PUSH1 0x1 PUSH1 0x40 SHL SUB DUP2 GT ISZERO PUSH2 0x380 JUMPI PUSH2 0x380 PUSH2 0x2CF JUMP JUMPDEST PUSH2 0x394 DUP2 PUSH2 0x38E DUP5 SLOAD PUSH2 0x2E3 JUMP JUMPDEST DUP5 PUSH2 0x31B JUMP JUMPDEST PUSH1 0x20 PUSH1 0x1F DUP3 GT PUSH1 0x1 DUP2 EQ PUSH2 0x3C6 JUMPI PUSH0 DUP4 ISZERO PUSH2 0x3AF JUMPI POP DUP5 DUP3 ADD MLOAD JUMPDEST PUSH0 NOT PUSH1 0x3 DUP6 SWAP1 SHL SHR NOT AND PUSH1 0x1 DUP5 SWAP1 SHL OR DUP5 SSTORE PUSH2 0x35F JUMP JUMPDEST PUSH0 DUP5 DUP2 MSTORE PUSH1 0x20 DUP2 KECCAK256 PUSH1 0x1F NOT DUP6 AND SWAP2 JUMPDEST DUP3 DUP2 LT ISZERO PUSH2 0x3F5 JUMPI DUP8 DUP6 ADD MLOAD DUP3 SSTORE PUSH1 0x20 SWAP5 DUP6 ADD SWAP5 PUSH1 0x1 SWAP1 SWAP3 ADD SWAP2 ADD PUSH2 0x3D5 JUMP JUMPDEST POP DUP5 DUP3 LT ISZERO PUSH2 0x412 JUMPI DUP7 DUP5 ADD MLOAD PUSH0 NOT PUSH1 0x3 DUP8 SWAP1 SHL PUSH1 0xF8 AND SHR NOT AND DUP2 SSTORE JUMPDEST POP POP POP POP PUSH1 0x1 SWAP1 DUP2 SHL ADD SWAP1 SSTORE POP JUMP JUMPDEST PUSH1 0x80 MLOAD PUSH1 0xA0 MLOAD PUSH2 0x44C4 PUSH2 0x473 PUSH0 CODECOPY PUSH0 DUP2 DUP2 PUSH2 0xE64 ADD MSTORE DUP2 DUP2 PUSH2 0x1C24 ADD MSTORE DUP2 DUP2 PUSH2 0x27A6 ADD MSTORE PUSH2 0x2C06 ADD MSTORE PUSH0 DUP2 DUP2 PUSH2 0x941 ADD MSTORE DUP2 DUP2 PUSH2 0x16E6 ADD MSTORE DUP2 DUP2 PUSH2 0x2042 ADD MSTORE DUP2 DUP2 PUSH2 0x2352 ADD MSTORE PUSH2 0x32D4 ADD MSTORE PUSH2 0x44C4 PUSH0 RETURN INVALID PUSH1 0x80 PUSH1 0x40 MSTORE PUSH1 0x4 CALLDATASIZE LT PUSH2 0x436 JUMPI PUSH0 CALLDATALOAD PUSH1 0xE0 SHR DUP1 PUSH4 0x75B238FC GT PUSH2 0x22B JUMPI DUP1 PUSH4 0xB8C6A929 GT PUSH2 0x129 JUMPI DUP1 PUSH4 0xDC21FB76 GT PUSH2 0xB3 JUMPI DUP1 PUSH4 0xEFDCD974 GT PUSH2 0x78 JUMPI DUP1 PUSH4 0xEFDCD974 EQ PUSH2 0xDE7 JUMPI DUP1 PUSH4 0xF1229777 EQ PUSH2 0xE06 JUMPI DUP1 PUSH4 0xF9F92BE4 EQ PUSH2 0xE25 JUMPI DUP1 PUSH4 0xFBFA77CF EQ PUSH2 0xE53 JUMPI DUP1 PUSH4 0xFE575A87 EQ PUSH2 0xE86 JUMPI PUSH0 PUSH0 REVERT JUMPDEST DUP1 PUSH4 0xDC21FB76 EQ PUSH2 0xD11 JUMPI DUP1 PUSH4 0xDD62ED3E EQ PUSH2 0xD3D JUMPI DUP1 PUSH4 0xE63AB1E9 EQ PUSH2 0xD81 JUMPI DUP1 PUSH4 0xE9FAD8EE EQ PUSH2 0xDB4 JUMPI DUP1 PUSH4 0xEC35FDE5 EQ PUSH2 0xDC8 JUMPI PUSH0 PUSH0 REVERT JUMPDEST DUP1 PUSH4 0xCA15C873 GT PUSH2 0xF9 JUMPI DUP1 PUSH4 0xCA15C873 EQ PUSH2 0xC8D JUMPI DUP1 PUSH4 0xCC7045D7 EQ PUSH2 0xCAC JUMPI DUP1 PUSH4 0xD547741F EQ PUSH2 0xCBF JUMPI DUP1 PUSH4 0xD79E8567 EQ PUSH2 0xCDE JUMPI DUP1 PUSH4 0xD8F67495 EQ PUSH2 0xCFD JUMPI PUSH0 PUSH0 REVERT JUMPDEST DUP1 PUSH4 0xB8C6A929 EQ PUSH2 0xC08 JUMPI DUP1 PUSH4 0xC4086893 EQ PUSH2 0xC44 JUMPI DUP1 PUSH4 0xC423BE25 EQ PUSH2 0xC63 JUMPI DUP1 PUSH4 0xC6DDD3A0 EQ PUSH2 0xC78 JUMPI PUSH0 PUSH0 REVERT JUMPDEST DUP1 PUSH4 0xA217FDDF GT PUSH2 0x1B5 JUMPI DUP1 PUSH4 0xACC3A939 GT PUSH2 0x17A JUMPI DUP1 PUSH4 0xACC3A939 EQ PUSH2 0xB28 JUMPI DUP1 PUSH4 0xB02E64A9 EQ PUSH2 0xB53 JUMPI DUP1 PUSH4 0xB3F00674 EQ PUSH2 0xB7E JUMPI DUP1 PUSH4 0xB72B85A1 EQ PUSH2 0xB9D JUMPI DUP1 PUSH4 0xB80E6793 EQ PUSH2 0xBBC JUMPI PUSH0 PUSH0 REVERT JUMPDEST DUP1 PUSH4 0xA217FDDF EQ PUSH2 0xA8C JUMPI DUP1 PUSH4 0xA3246AD3 EQ PUSH2 0xA9F JUMPI DUP1 PUSH4 0xA694FC3A EQ PUSH2 0xACB JUMPI DUP1 PUSH4 0xA6EEC453 EQ PUSH2 0xAEA JUMPI DUP1 PUSH4 0xA9059CBB EQ PUSH2 0xB09 JUMPI PUSH0 PUSH0 REVERT JUMPDEST DUP1 PUSH4 0x9010D07C GT PUSH2 0x1FB JUMPI DUP1 PUSH4 0x9010D07C EQ PUSH2 0x9F8 JUMPI DUP1 PUSH4 0x91D14854 EQ PUSH2 0xA17 JUMPI DUP1 PUSH4 0x95D89B41 EQ PUSH2 0xA36 JUMPI DUP1 PUSH4 0x9D86B850 EQ PUSH2 0xA4A JUMPI DUP1 PUSH4 0x9E88EC10 EQ PUSH2 0xA5F JUMPI PUSH0 PUSH0 REVERT JUMPDEST DUP1 PUSH4 0x75B238FC EQ PUSH2 0x963 JUMPI DUP1 PUSH4 0x78A2574B EQ PUSH2 0x983 JUMPI DUP1 PUSH4 0x7BB1CA19 EQ PUSH2 0x9B9 JUMPI DUP1 PUSH4 0x8456CB59 EQ PUSH2 0x9E4 JUMPI PUSH0 PUSH0 REVERT JUMPDEST DUP1 PUSH4 0x2F2FF15D GT PUSH2 0x338 JUMPI DUP1 PUSH4 0x54FD83C1 GT PUSH2 0x2C2 JUMPI DUP1 PUSH4 0x5C975ABB GT PUSH2 0x287 JUMPI DUP1 PUSH4 0x5C975ABB EQ PUSH2 0x88F JUMPI DUP1 PUSH4 0x5DA9E169 EQ PUSH2 0x8A6 JUMPI DUP1 PUSH4 0x62441BF6 EQ PUSH2 0x8DD JUMPI DUP1 PUSH4 0x70A08231 EQ PUSH2 0x8FC JUMPI DUP1 PUSH4 0x72F702F3 EQ PUSH2 0x930 JUMPI PUSH0 PUSH0 REVERT JUMPDEST DUP1 PUSH4 0x54FD83C1 EQ PUSH2 0x7E7 JUMPI DUP1 PUSH4 0x55B8FB81 EQ PUSH2 0x806 JUMPI DUP1 PUSH4 0x5B34BC41 EQ PUSH2 0x825 JUMPI DUP1 PUSH4 0x5BDEAB61 EQ PUSH2 0x844 JUMPI DUP1 PUSH4 0x5BFC82AD EQ PUSH2 0x863 JUMPI PUSH0 PUSH0 REVERT JUMPDEST DUP1 PUSH4 0x3D509C97 GT PUSH2 0x308 JUMPI DUP1 PUSH4 0x3D509C97 EQ PUSH2 0x765 JUMPI DUP1 PUSH4 0x3DD6AA42 EQ PUSH2 0x784 JUMPI DUP1 PUSH4 0x3F4BA83A EQ PUSH2 0x79D JUMPI DUP1 PUSH4 0x45B35F56 EQ PUSH2 0x7B1 JUMPI DUP1 PUSH4 0x5225F987 EQ PUSH2 0x7B9 JUMPI PUSH0 PUSH0 REVERT JUMPDEST DUP1 PUSH4 0x2F2FF15D EQ PUSH2 0x6F8 JUMPI DUP1 PUSH4 0x313CE567 EQ PUSH2 0x717 JUMPI DUP1 PUSH4 0x36568ABE EQ PUSH2 0x732 JUMPI DUP1 PUSH4 0x3D18B912 EQ PUSH2 0x751 JUMPI PUSH0 PUSH0 REVERT JUMPDEST DUP1 PUSH4 0x1935FFEC GT PUSH2 0x3C4 JUMPI DUP1 PUSH4 0x23B872DD GT PUSH2 0x389 JUMPI DUP1 PUSH4 0x23B872DD EQ PUSH2 0x635 JUMPI DUP1 PUSH4 0x248A9CA3 EQ PUSH2 0x654 JUMPI DUP1 PUSH4 0x28BCF07A EQ PUSH2 0x682 JUMPI DUP1 PUSH4 0x2E1A7D4D EQ PUSH2 0x6AD JUMPI DUP1 PUSH4 0x2E569EFF EQ PUSH2 0x6CC JUMPI PUSH0 PUSH0 REVERT JUMPDEST DUP1 PUSH4 0x1935FFEC EQ PUSH2 0x590 JUMPI DUP1 PUSH4 0x1B7447F1 EQ PUSH2 0x5C4 JUMPI DUP1 PUSH4 0x1C03E6CC EQ PUSH2 0x5E3 JUMPI DUP1 PUSH4 0x1C1F78EB EQ PUSH2 0x602 JUMPI DUP1 PUSH4 0x211DC32D EQ PUSH2 0x616 JUMPI PUSH0 PUSH0 REVERT JUMPDEST DUP1 PUSH4 0x95EA7B3 GT PUSH2 0x40A JUMPI DUP1 PUSH4 0x95EA7B3 EQ PUSH2 0x4DD JUMPI DUP1 PUSH4 0x11B567B9 EQ PUSH2 0x4FC JUMPI DUP1 PUSH4 0x129DE5BF EQ PUSH2 0x532 JUMPI DUP1 PUSH4 0x14228806 EQ PUSH2 0x551 JUMPI DUP1 PUSH4 0x18160DDD EQ PUSH2 0x57C JUMPI PUSH0 PUSH0 REVERT JUMPDEST DUP1 PUSH3 0x8CC262 EQ PUSH2 0x43A JUMPI DUP1 PUSH4 0x1FFC9A7 EQ PUSH2 0x46C JUMPI DUP1 PUSH4 0x4F6C0EF EQ PUSH2 0x49B JUMPI DUP1 PUSH4 0x6FDDE03 EQ PUSH2 0x4BC JUMPI JUMPDEST PUSH0 PUSH0 REVERT JUMPDEST CALLVALUE DUP1 ISZERO PUSH2 0x445 JUMPI PUSH0 PUSH0 REVERT JUMPDEST POP PUSH2 0x459 PUSH2 0x454 CALLDATASIZE PUSH1 0x4 PUSH2 0x3FA3 JUMP JUMPDEST PUSH2 0xEBD JUMP JUMPDEST PUSH1 0x40 MLOAD SWAP1 DUP2 MSTORE PUSH1 0x20 ADD JUMPDEST PUSH1 0x40 MLOAD DUP1 SWAP2 SUB SWAP1 RETURN JUMPDEST CALLVALUE DUP1 ISZERO PUSH2 0x477 JUMPI PUSH0 PUSH0 REVERT JUMPDEST POP PUSH2 0x48B PUSH2 0x486 CALLDATASIZE PUSH1 0x4 PUSH2 0x3FBE JUMP JUMPDEST PUSH2 0xF04 JUMP JUMPDEST PUSH1 0x40 MLOAD SWAP1 ISZERO ISZERO DUP2 MSTORE PUSH1 0x20 ADD PUSH2 0x463 JUMP JUMPDEST CALLVALUE DUP1 ISZERO PUSH2 0x4A6 JUMPI PUSH0 PUSH0 REVERT JUMPDEST POP PUSH2 0x4BA PUSH2 0x4B5 CALLDATASIZE PUSH1 0x4 PUSH2 0x3FE5 JUMP JUMPDEST PUSH2 0xF0E JUMP JUMPDEST STOP JUMPDEST CALLVALUE DUP1 ISZERO PUSH2 0x4C7 JUMPI PUSH0 PUSH0 REVERT JUMPDEST POP PUSH2 0x4D0 PUSH2 0xFC2 JUMP JUMPDEST PUSH1 0x40 MLOAD PUSH2 0x463 SWAP2 SWAP1 PUSH2 0x3FFC JUMP JUMPDEST CALLVALUE DUP1 ISZERO PUSH2 0x4E8 JUMPI PUSH0 PUSH0 REVERT JUMPDEST POP PUSH2 0x48B PUSH2 0x4F7 CALLDATASIZE PUSH1 0x4 PUSH2 0x4031 JUMP JUMPDEST PUSH2 0x1052 JUMP JUMPDEST CALLVALUE DUP1 ISZERO PUSH2 0x507 JUMPI PUSH0 PUSH0 REVERT JUMPDEST POP PUSH2 0x459 PUSH2 0x516 CALLDATASIZE PUSH1 0x4 PUSH2 0x405B JUMP JUMPDEST PUSH1 0x11 PUSH1 0x20 SWAP1 DUP2 MSTORE PUSH0 SWAP3 DUP4 MSTORE PUSH1 0x40 DUP1 DUP5 KECCAK256 SWAP1 SWAP2 MSTORE SWAP1 DUP3 MSTORE SWAP1 KECCAK256 SLOAD DUP2 JUMP JUMPDEST CALLVALUE DUP1 ISZERO PUSH2 0x53D JUMPI PUSH0 PUSH0 REVERT JUMPDEST POP PUSH2 0x459 PUSH2 0x54C CALLDATASIZE PUSH1 0x4 PUSH2 0x3FA3 JUMP JUMPDEST PUSH2 0x1069 JUMP JUMPDEST CALLVALUE DUP1 ISZERO PUSH2 0x55C JUMPI PUSH0 PUSH0 REVERT JUMPDEST POP PUSH2 0x459 PUSH2 0x56B CALLDATASIZE PUSH1 0x4 PUSH2 0x3FA3 JUMP JUMPDEST PUSH1 0x10 PUSH1 0x20 MSTORE PUSH0 SWAP1 DUP2 MSTORE PUSH1 0x40 SWAP1 KECCAK256 SLOAD DUP2 JUMP JUMPDEST CALLVALUE DUP1 ISZERO PUSH2 0x587 JUMPI PUSH0 PUSH0 REVERT JUMPDEST POP PUSH1 0x2 SLOAD PUSH2 0x459 JUMP JUMPDEST CALLVALUE DUP1 ISZERO PUSH2 0x59B JUMPI PUSH0 PUSH0 REVERT JUMPDEST POP PUSH2 0x459 PUSH2 0x5AA CALLDATASIZE PUSH1 0x4 PUSH2 0x3FA3 JUMP JUMPDEST PUSH1 0x1 PUSH1 0x1 PUSH1 0xA0 SHL SUB AND PUSH0 SWAP1 DUP2 MSTORE PUSH1 0x16 PUSH1 0x20 MSTORE PUSH1 0x40 SWAP1 KECCAK256 SLOAD SWAP1 JUMP JUMPDEST CALLVALUE DUP1 ISZERO PUSH2 0x5CF JUMPI PUSH0 PUSH0 REVERT JUMPDEST POP PUSH2 0x4BA PUSH2 0x5DE CALLDATASIZE PUSH1 0x4 PUSH2 0x4092 JUMP JUMPDEST PUSH2 0x1128 JUMP JUMPDEST CALLVALUE DUP1 ISZERO PUSH2 0x5EE JUMPI PUSH0 PUSH0 REVERT JUMPDEST POP PUSH2 0x4BA PUSH2 0x5FD CALLDATASIZE PUSH1 0x4 PUSH2 0x3FA3 JUMP JUMPDEST PUSH2 0x11E8 JUMP JUMPDEST CALLVALUE DUP1 ISZERO PUSH2 0x60D JUMPI PUSH0 PUSH0 REVERT JUMPDEST POP PUSH2 0x459 PUSH2 0x1328 JUMP JUMPDEST CALLVALUE DUP1 ISZERO PUSH2 0x621 JUMPI PUSH0 PUSH0 REVERT JUMPDEST POP PUSH2 0x459 PUSH2 0x630 CALLDATASIZE PUSH1 0x4 PUSH2 0x405B JUMP JUMPDEST PUSH2 0x1378 JUMP JUMPDEST CALLVALUE DUP1 ISZERO PUSH2 0x640 JUMPI PUSH0 PUSH0 REVERT JUMPDEST POP PUSH2 0x48B PUSH2 0x64F CALLDATASIZE PUSH1 0x4 PUSH2 0x40B2 JUMP JUMPDEST PUSH2 0x140E JUMP JUMPDEST CALLVALUE DUP1 ISZERO PUSH2 0x65F JUMPI PUSH0 PUSH0 REVERT JUMPDEST POP PUSH2 0x459 PUSH2 0x66E CALLDATASIZE PUSH1 0x4 PUSH2 0x3FE5 JUMP JUMPDEST PUSH0 SWAP1 DUP2 MSTORE PUSH1 0x7 PUSH1 0x20 MSTORE PUSH1 0x40 SWAP1 KECCAK256 PUSH1 0x1 ADD SLOAD SWAP1 JUMP JUMPDEST CALLVALUE DUP1 ISZERO PUSH2 0x68D JUMPI PUSH0 PUSH0 REVERT JUMPDEST POP PUSH2 0x459 PUSH2 0x69C CALLDATASIZE PUSH1 0x4 PUSH2 0x3FA3 JUMP JUMPDEST PUSH1 0xF PUSH1 0x20 MSTORE PUSH0 SWAP1 DUP2 MSTORE PUSH1 0x40 SWAP1 KECCAK256 SLOAD DUP2 JUMP JUMPDEST CALLVALUE DUP1 ISZERO PUSH2 0x6B8 JUMPI PUSH0 PUSH0 REVERT JUMPDEST POP PUSH2 0x4BA PUSH2 0x6C7 CALLDATASIZE PUSH1 0x4 PUSH2 0x3FE5 JUMP JUMPDEST PUSH2 0x1431 JUMP JUMPDEST CALLVALUE DUP1 ISZERO PUSH2 0x6D7 JUMPI PUSH0 PUSH0 REVERT JUMPDEST POP PUSH2 0x6EB PUSH2 0x6E6 CALLDATASIZE PUSH1 0x4 PUSH2 0x4031 JUMP JUMPDEST PUSH2 0x1753 JUMP JUMPDEST PUSH1 0x40 MLOAD PUSH2 0x463 SWAP2 SWAP1 PUSH2 0x40F0 JUMP JUMPDEST CALLVALUE DUP1 ISZERO PUSH2 0x703 JUMPI PUSH0 PUSH0 REVERT JUMPDEST POP PUSH2 0x4BA PUSH2 0x712 CALLDATASIZE PUSH1 0x4 PUSH2 0x4113 JUMP JUMPDEST PUSH2 0x181F JUMP JUMPDEST CALLVALUE DUP1 ISZERO PUSH2 0x722 JUMPI PUSH0 PUSH0 REVERT JUMPDEST POP PUSH1 0x40 MLOAD PUSH1 0x12 DUP2 MSTORE PUSH1 0x20 ADD PUSH2 0x463 JUMP JUMPDEST CALLVALUE DUP1 ISZERO PUSH2 0x73D JUMPI PUSH0 PUSH0 REVERT JUMPDEST POP PUSH2 0x4BA PUSH2 0x74C CALLDATASIZE PUSH1 0x4 PUSH2 0x4113 JUMP JUMPDEST PUSH2 0x1849 JUMP JUMPDEST CALLVALUE DUP1 ISZERO PUSH2 0x75C JUMPI PUSH0 PUSH0 REVERT JUMPDEST POP PUSH2 0x4BA PUSH2 0x1881 JUMP JUMPDEST CALLVALUE DUP1 ISZERO PUSH2 0x770 JUMPI PUSH0 PUSH0 REVERT JUMPDEST POP PUSH2 0x4BA PUSH2 0x77F CALLDATASIZE PUSH1 0x4 PUSH2 0x3FA3 JUMP JUMPDEST PUSH2 0x1907 JUMP JUMPDEST CALLVALUE DUP1 ISZERO PUSH2 0x78F JUMPI PUSH0 PUSH0 REVERT JUMPDEST POP PUSH1 0x19 SLOAD PUSH2 0x48B SWAP1 PUSH1 0xFF AND DUP2 JUMP JUMPDEST CALLVALUE DUP1 ISZERO PUSH2 0x7A8 JUMPI PUSH0 PUSH0 REVERT JUMPDEST POP PUSH2 0x4BA PUSH2 0x1AAD JUMP JUMPDEST PUSH2 0x4BA PUSH2 0x1ADF JUMP JUMPDEST CALLVALUE DUP1 ISZERO PUSH2 0x7C4 JUMPI PUSH0 PUSH0 REVERT JUMPDEST POP PUSH2 0x48B PUSH2 0x7D3 CALLDATASIZE PUSH1 0x4 PUSH2 0x3FA3 JUMP JUMPDEST PUSH1 0xC PUSH1 0x20 MSTORE PUSH0 SWAP1 DUP2 MSTORE PUSH1 0x40 SWAP1 KECCAK256 SLOAD PUSH1 0xFF AND DUP2 JUMP JUMPDEST CALLVALUE DUP1 ISZERO PUSH2 0x7F2 JUMPI PUSH0 PUSH0 REVERT JUMPDEST POP PUSH2 0x4BA PUSH2 0x801 CALLDATASIZE PUSH1 0x4 PUSH2 0x3FE5 JUMP JUMPDEST PUSH2 0x1D30 JUMP JUMPDEST CALLVALUE DUP1 ISZERO PUSH2 0x811 JUMPI PUSH0 PUSH0 REVERT JUMPDEST POP PUSH2 0x4BA PUSH2 0x820 CALLDATASIZE PUSH1 0x4 PUSH2 0x40B2 JUMP JUMPDEST PUSH2 0x1D7C JUMP JUMPDEST CALLVALUE DUP1 ISZERO PUSH2 0x830 JUMPI PUSH0 PUSH0 REVERT JUMPDEST POP PUSH2 0x4BA PUSH2 0x83F CALLDATASIZE PUSH1 0x4 PUSH2 0x3FA3 JUMP JUMPDEST PUSH2 0x1E04 JUMP JUMPDEST CALLVALUE DUP1 ISZERO PUSH2 0x84F JUMPI PUSH0 PUSH0 REVERT JUMPDEST POP PUSH2 0x4BA PUSH2 0x85E CALLDATASIZE PUSH1 0x4 PUSH2 0x3FE5 JUMP JUMPDEST PUSH2 0x1E64 JUMP JUMPDEST CALLVALUE DUP1 ISZERO PUSH2 0x86E JUMPI PUSH0 PUSH0 REVERT JUMPDEST POP PUSH2 0x882 PUSH2 0x87D CALLDATASIZE PUSH1 0x4 PUSH2 0x3FA3 JUMP JUMPDEST PUSH2 0x20AB JUMP JUMPDEST PUSH1 0x40 MLOAD PUSH2 0x463 SWAP2 SWAP1 PUSH2 0x4136 JUMP JUMPDEST CALLVALUE DUP1 ISZERO PUSH2 0x89A JUMPI PUSH0 PUSH0 REVERT JUMPDEST POP PUSH1 0x5 SLOAD PUSH1 0xFF AND PUSH2 0x48B JUMP JUMPDEST CALLVALUE DUP1 ISZERO PUSH2 0x8B1 JUMPI PUSH0 PUSH0 REVERT JUMPDEST POP PUSH2 0x8C5 PUSH2 0x8C0 CALLDATASIZE PUSH1 0x4 PUSH2 0x3FE5 JUMP JUMPDEST PUSH2 0x2158 JUMP JUMPDEST PUSH1 0x40 MLOAD PUSH1 0x1 PUSH1 0x1 PUSH1 0xA0 SHL SUB SWAP1 SWAP2 AND DUP2 MSTORE PUSH1 0x20 ADD PUSH2 0x463 JUMP JUMPDEST CALLVALUE DUP1 ISZERO PUSH2 0x8E8 JUMPI PUSH0 PUSH0 REVERT JUMPDEST POP PUSH2 0x4BA PUSH2 0x8F7 CALLDATASIZE PUSH1 0x4 PUSH2 0x3FA3 JUMP JUMPDEST PUSH2 0x2180 JUMP JUMPDEST CALLVALUE DUP1 ISZERO PUSH2 0x907 JUMPI PUSH0 PUSH0 REVERT JUMPDEST POP PUSH2 0x459 PUSH2 0x916 CALLDATASIZE PUSH1 0x4 PUSH2 0x3FA3 JUMP JUMPDEST PUSH1 0x1 PUSH1 0x1 PUSH1 0xA0 SHL SUB AND PUSH0 SWAP1 DUP2 MSTORE PUSH1 0x20 DUP2 SWAP1 MSTORE PUSH1 0x40 SWAP1 KECCAK256 SLOAD SWAP1 JUMP JUMPDEST CALLVALUE DUP1 ISZERO PUSH2 0x93B JUMPI PUSH0 PUSH0 REVERT JUMPDEST POP PUSH2 0x8C5 PUSH32 0x0 DUP2 JUMP JUMPDEST CALLVALUE DUP1 ISZERO PUSH2 0x96E JUMPI PUSH0 PUSH0 REVERT JUMPDEST POP PUSH2 0x459 PUSH0 MLOAD PUSH1 0x20 PUSH2 0x446F PUSH0 CODECOPY PUSH0 MLOAD SWAP1 PUSH0 MSTORE DUP2 JUMP JUMPDEST CALLVALUE DUP1 ISZERO PUSH2 0x98E JUMPI PUSH0 PUSH0 REVERT JUMPDEST POP PUSH2 0x459 PUSH2 0x99D CALLDATASIZE PUSH1 0x4 PUSH2 0x405B JUMP JUMPDEST PUSH1 0x12 PUSH1 0x20 SWAP1 DUP2 MSTORE PUSH0 SWAP3 DUP4 MSTORE PUSH1 0x40 DUP1 DUP5 KECCAK256 SWAP1 SWAP2 MSTORE SWAP1 DUP3 MSTORE SWAP1 KECCAK256 SLOAD DUP2 JUMP JUMPDEST CALLVALUE DUP1 ISZERO PUSH2 0x9C4 JUMPI PUSH0 PUSH0 REVERT JUMPDEST POP PUSH2 0x459 PUSH2 0x9D3 CALLDATASIZE PUSH1 0x4 PUSH2 0x3FA3 JUMP JUMPDEST PUSH1 0x15 PUSH1 0x20 MSTORE PUSH0 SWAP1 DUP2 MSTORE PUSH1 0x40 SWAP1 KECCAK256 SLOAD DUP2 JUMP JUMPDEST CALLVALUE DUP1 ISZERO PUSH2 0x9EF JUMPI PUSH0 PUSH0 REVERT JUMPDEST POP PUSH2 0x4BA PUSH2 0x23F7 JUMP JUMPDEST CALLVALUE DUP1 ISZERO PUSH2 0xA03 JUMPI PUSH0 PUSH0 REVERT JUMPDEST POP PUSH2 0x8C5 PUSH2 0xA12 CALLDATASIZE PUSH1 0x4 PUSH2 0x4092 JUMP JUMPDEST PUSH2 0x2429 JUMP JUMPDEST CALLVALUE DUP1 ISZERO PUSH2 0xA22 JUMPI PUSH0 PUSH0 REVERT JUMPDEST POP PUSH2 0x48B PUSH2 0xA31 CALLDATASIZE PUSH1 0x4 PUSH2 0x4113 JUMP JUMPDEST PUSH2 0x2440 JUMP JUMPDEST CALLVALUE DUP1 ISZERO PUSH2 0xA41 JUMPI PUSH0 PUSH0 REVERT JUMPDEST POP PUSH2 0x4D0 PUSH2 0x246A JUMP JUMPDEST CALLVALUE DUP1 ISZERO PUSH2 0xA55 JUMPI PUSH0 PUSH0 REVERT JUMPDEST POP PUSH2 0x459 PUSH1 0x9 SLOAD DUP2 JUMP JUMPDEST CALLVALUE DUP1 ISZERO PUSH2 0xA6A JUMPI PUSH0 PUSH0 REVERT JUMPDEST POP PUSH2 0xA7E PUSH2 0xA79 CALLDATASIZE PUSH1 0x4 PUSH2 0x3FA3 JUMP JUMPDEST PUSH2 0x2479 JUMP JUMPDEST PUSH1 0x40 MLOAD PUSH2 0x463 SWAP3 SWAP2 SWAP1 PUSH2 0x41F5 JUMP JUMPDEST CALLVALUE DUP1 ISZERO PUSH2 0xA97 JUMPI PUSH0 PUSH0 REVERT JUMPDEST POP PUSH2 0x459 PUSH0 DUP2 JUMP JUMPDEST CALLVALUE DUP1 ISZERO PUSH2 0xAAA JUMPI PUSH0 PUSH0 REVERT JUMPDEST POP PUSH2 0xABE PUSH2 0xAB9 CALLDATASIZE PUSH1 0x4 PUSH2 0x3FE5 JUMP JUMPDEST PUSH2 0x25BB JUMP JUMPDEST PUSH1 0x40 MLOAD PUSH2 0x463 SWAP2 SWAP1 PUSH2 0x424D JUMP JUMPDEST CALLVALUE DUP1 ISZERO PUSH2 0xAD6 JUMPI PUSH0 PUSH0 REVERT JUMPDEST POP PUSH2 0x4BA PUSH2 0xAE5 CALLDATASIZE PUSH1 0x4 PUSH2 0x3FE5 JUMP JUMPDEST PUSH2 0x25D4 JUMP JUMPDEST CALLVALUE DUP1 ISZERO PUSH2 0xAF5 JUMPI PUSH0 PUSH0 REVERT JUMPDEST POP PUSH2 0x4BA PUSH2 0xB04 CALLDATASIZE PUSH1 0x4 PUSH2 0x425F JUMP JUMPDEST PUSH2 0x2692 JUMP JUMPDEST CALLVALUE DUP1 ISZERO PUSH2 0xB14 JUMPI PUSH0 PUSH0 REVERT JUMPDEST POP PUSH2 0x48B PUSH2 0xB23 CALLDATASIZE PUSH1 0x4 PUSH2 0x4031 JUMP JUMPDEST PUSH2 0x28D2 JUMP JUMPDEST CALLVALUE DUP1 ISZERO PUSH2 0xB33 JUMPI PUSH0 PUSH0 REVERT JUMPDEST POP PUSH2 0x459 PUSH2 0xB42 CALLDATASIZE PUSH1 0x4 PUSH2 0x3FA3 JUMP JUMPDEST PUSH1 0x14 PUSH1 0x20 MSTORE PUSH0 SWAP1 DUP2 MSTORE PUSH1 0x40 SWAP1 KECCAK256 SLOAD DUP2 JUMP JUMPDEST CALLVALUE DUP1 ISZERO PUSH2 0xB5E JUMPI PUSH0 PUSH0 REVERT JUMPDEST POP PUSH2 0x459 PUSH2 0xB6D CALLDATASIZE PUSH1 0x4 PUSH2 0x3FA3 JUMP JUMPDEST PUSH1 0x17 PUSH1 0x20 MSTORE PUSH0 SWAP1 DUP2 MSTORE PUSH1 0x40 SWAP1 KECCAK256 SLOAD DUP2 JUMP JUMPDEST CALLVALUE DUP1 ISZERO PUSH2 0xB89 JUMPI PUSH0 PUSH0 REVERT JUMPDEST POP PUSH1 0xB SLOAD PUSH2 0x8C5 SWAP1 PUSH1 0x1 PUSH1 0x1 PUSH1 0xA0 SHL SUB AND DUP2 JUMP JUMPDEST CALLVALUE DUP1 ISZERO PUSH2 0xBA8 JUMPI PUSH0 PUSH0 REVERT JUMPDEST POP PUSH2 0x4BA PUSH2 0xBB7 CALLDATASIZE PUSH1 0x4 PUSH2 0x40B2 JUMP JUMPDEST PUSH2 0x28DF JUMP JUMPDEST CALLVALUE DUP1 ISZERO PUSH2 0xBC7 JUMPI PUSH0 PUSH0 REVERT JUMPDEST POP PUSH2 0xBDB PUSH2 0xBD6 CALLDATASIZE PUSH1 0x4 PUSH2 0x4031 JUMP JUMPDEST PUSH2 0x29B3 JUMP JUMPDEST PUSH1 0x40 DUP1 MLOAD SWAP7 DUP8 MSTORE PUSH1 0x20 DUP8 ADD SWAP6 SWAP1 SWAP6 MSTORE SWAP4 DUP6 ADD SWAP3 SWAP1 SWAP3 MSTORE PUSH1 0x60 DUP5 ADD MSTORE PUSH1 0x80 DUP4 ADD MSTORE PUSH1 0xA0 DUP3 ADD MSTORE PUSH1 0xC0 ADD PUSH2 0x463 JUMP JUMPDEST CALLVALUE DUP1 ISZERO PUSH2 0xC13 JUMPI PUSH0 PUSH0 REVERT JUMPDEST POP PUSH2 0xC27 PUSH2 0xC22 CALLDATASIZE PUSH1 0x4 PUSH2 0x4031 JUMP JUMPDEST PUSH2 0x2A03 JUMP JUMPDEST PUSH1 0x40 DUP1 MLOAD SWAP4 DUP5 MSTORE PUSH1 0x20 DUP5 ADD SWAP3 SWAP1 SWAP3 MSTORE ISZERO ISZERO SWAP1 DUP3 ADD MSTORE PUSH1 0x60 ADD PUSH2 0x463 JUMP JUMPDEST CALLVALUE DUP1 ISZERO PUSH2 0xC4F JUMPI PUSH0 PUSH0 REVERT JUMPDEST POP PUSH2 0x459 PUSH2 0xC5E CALLDATASIZE PUSH1 0x4 PUSH2 0x3FA3 JUMP JUMPDEST PUSH2 0x2A44 JUMP JUMPDEST CALLVALUE DUP1 ISZERO PUSH2 0xC6E JUMPI PUSH0 PUSH0 REVERT JUMPDEST POP PUSH2 0x459 PUSH1 0xA SLOAD DUP2 JUMP JUMPDEST CALLVALUE DUP1 ISZERO PUSH2 0xC83 JUMPI PUSH0 PUSH0 REVERT JUMPDEST POP PUSH2 0x459 PUSH1 0x18 SLOAD DUP2 JUMP JUMPDEST CALLVALUE DUP1 ISZERO PUSH2 0xC98 JUMPI PUSH0 PUSH0 REVERT JUMPDEST POP PUSH2 0x459 PUSH2 0xCA7 CALLDATASIZE PUSH1 0x4 PUSH2 0x3FE5 JUMP JUMPDEST PUSH2 0x2AF9 JUMP JUMPDEST PUSH2 0x4BA PUSH2 0xCBA CALLDATASIZE PUSH1 0x4 PUSH2 0x3FA3 JUMP JUMPDEST PUSH2 0x2B0F JUMP JUMPDEST CALLVALUE DUP1 ISZERO PUSH2 0xCCA JUMPI PUSH0 PUSH0 REVERT JUMPDEST POP PUSH2 0x4BA PUSH2 0xCD9 CALLDATASIZE PUSH1 0x4 PUSH2 0x4113 JUMP JUMPDEST PUSH2 0x2CF9 JUMP JUMPDEST CALLVALUE DUP1 ISZERO PUSH2 0xCE9 JUMPI PUSH0 PUSH0 REVERT JUMPDEST POP PUSH2 0x4BA PUSH2 0xCF8 CALLDATASIZE PUSH1 0x4 PUSH2 0x4031 JUMP JUMPDEST PUSH2 0x2D1D JUMP JUMPDEST CALLVALUE DUP1 ISZERO PUSH2 0xD08 JUMPI PUSH0 PUSH0 REVERT JUMPDEST POP PUSH2 0xABE PUSH2 0x2DAE JUMP JUMPDEST CALLVALUE DUP1 ISZERO PUSH2 0xD1C JUMPI PUSH0 PUSH0 REVERT JUMPDEST POP PUSH2 0xD30 PUSH2 0xD2B CALLDATASIZE PUSH1 0x4 PUSH2 0x3FA3 JUMP JUMPDEST PUSH2 0x2E0D JUMP JUMPDEST PUSH1 0x40 MLOAD PUSH2 0x463 SWAP2 SWAP1 PUSH2 0x4291 JUMP JUMPDEST CALLVALUE DUP1 ISZERO PUSH2 0xD48 JUMPI PUSH0 PUSH0 REVERT JUMPDEST POP PUSH2 0x459 PUSH2 0xD57 CALLDATASIZE PUSH1 0x4 PUSH2 0x405B JUMP JUMPDEST PUSH1 0x1 PUSH1 0x1 PUSH1 0xA0 SHL SUB SWAP2 DUP3 AND PUSH0 SWAP1 DUP2 MSTORE PUSH1 0x1 PUSH1 0x20 SWAP1 DUP2 MSTORE PUSH1 0x40 DUP1 DUP4 KECCAK256 SWAP4 SWAP1 SWAP5 AND DUP3 MSTORE SWAP2 SWAP1 SWAP2 MSTORE KECCAK256 SLOAD SWAP1 JUMP JUMPDEST CALLVALUE DUP1 ISZERO PUSH2 0xD8C JUMPI PUSH0 PUSH0 REVERT JUMPDEST POP PUSH2 0x459 PUSH32 0x65D7A28E3265B37A6474929F336521B332C1681B933F6CB9F3376673440D862A DUP2 JUMP JUMPDEST CALLVALUE DUP1 ISZERO PUSH2 0xDBF JUMPI PUSH0 PUSH0 REVERT JUMPDEST POP PUSH2 0x4BA PUSH2 0x2E94 JUMP JUMPDEST CALLVALUE DUP1 ISZERO PUSH2 0xDD3 JUMPI PUSH0 PUSH0 REVERT JUMPDEST POP PUSH2 0x459 PUSH2 0xDE2 CALLDATASIZE PUSH1 0x4 PUSH2 0x3FA3 JUMP JUMPDEST PUSH2 0x2EE9 JUMP JUMPDEST CALLVALUE DUP1 ISZERO PUSH2 0xDF2 JUMPI PUSH0 PUSH0 REVERT JUMPDEST POP PUSH2 0x4BA PUSH2 0xE01 CALLDATASIZE PUSH1 0x4 PUSH2 0x3FA3 JUMP JUMPDEST PUSH2 0x2F9A JUMP JUMPDEST CALLVALUE DUP1 ISZERO PUSH2 0xE11 JUMPI PUSH0 PUSH0 REVERT JUMPDEST POP PUSH2 0x459 PUSH2 0xE20 CALLDATASIZE PUSH1 0x4 PUSH2 0x3FA3 JUMP JUMPDEST PUSH2 0x3043 JUMP JUMPDEST CALLVALUE DUP1 ISZERO PUSH2 0xE30 JUMPI PUSH0 PUSH0 REVERT JUMPDEST POP PUSH2 0x48B PUSH2 0xE3F CALLDATASIZE PUSH1 0x4 PUSH2 0x3FA3 JUMP JUMPDEST PUSH1 0x13 PUSH1 0x20 MSTORE PUSH0 SWAP1 DUP2 MSTORE PUSH1 0x40 SWAP1 KECCAK256 SLOAD PUSH1 0xFF AND DUP2 JUMP JUMPDEST CALLVALUE DUP1 ISZERO PUSH2 0xE5E JUMPI PUSH0 PUSH0 REVERT JUMPDEST POP PUSH2 0x8C5 PUSH32 0x0 DUP2 JUMP JUMPDEST CALLVALUE DUP1 ISZERO PUSH2 0xE91 JUMPI PUSH0 PUSH0 REVERT JUMPDEST POP PUSH2 0x48B PUSH2 0xEA0 CALLDATASIZE PUSH1 0x4 PUSH2 0x3FA3 JUMP JUMPDEST PUSH1 0x1 PUSH1 0x1 PUSH1 0xA0 SHL SUB AND PUSH0 SWAP1 DUP2 MSTORE PUSH1 0x13 PUSH1 0x20 MSTORE PUSH1 0x40 SWAP1 KECCAK256 SLOAD PUSH1 0xFF AND SWAP1 JUMP JUMPDEST PUSH1 0xD SLOAD PUSH0 SWAP1 ISZERO PUSH2 0xEFD JUMPI PUSH2 0xEF7 DUP3 PUSH1 0xD PUSH0 DUP2 SLOAD DUP2 LT PUSH2 0xEDE JUMPI PUSH2 0xEDE PUSH2 0x42E9 JUMP JUMPDEST PUSH0 SWAP2 DUP3 MSTORE PUSH1 0x20 SWAP1 SWAP2 KECCAK256 ADD SLOAD PUSH1 0x1 PUSH1 0x1 PUSH1 0xA0 SHL SUB AND PUSH2 0x1378 JUMP JUMPDEST SWAP3 SWAP2 POP POP JUMP JUMPDEST POP PUSH0 SWAP2 SWAP1 POP JUMP JUMPDEST PUSH0 PUSH2 0xEF7 DUP3 PUSH2 0x30D4 JUMP JUMPDEST PUSH0 MLOAD PUSH1 0x20 PUSH2 0x446F PUSH0 CODECOPY PUSH0 MLOAD SWAP1 PUSH0 MSTORE PUSH2 0xF25 DUP2 PUSH2 0x30F8 JUMP JUMPDEST PUSH0 DUP3 GT PUSH2 0xF85 JUMPI PUSH1 0x40 MLOAD PUSH3 0x461BCD PUSH1 0xE5 SHL DUP2 MSTORE PUSH1 0x20 PUSH1 0x4 DUP3 ADD MSTORE PUSH1 0x24 DUP1 DUP3 ADD MSTORE PUSH32 0x4C6F636B206475726174696F6E206D7573742062652067726561746572207468 PUSH1 0x44 DUP3 ADD MSTORE PUSH4 0x616E203 PUSH1 0xE4 SHL PUSH1 0x64 DUP3 ADD MSTORE PUSH1 0x84 ADD JUMPDEST PUSH1 0x40 MLOAD DUP1 SWAP2 SUB SWAP1 REVERT JUMPDEST PUSH1 0x9 DUP3 SWAP1 SSTORE PUSH1 0x40 MLOAD DUP3 DUP2 MSTORE PUSH32 0xBE752D502EAD9F7F68AE425A37976ABEE08F7D72A78E613D13A0C1AC153915F SWAP1 PUSH1 0x20 ADD JUMPDEST PUSH1 0x40 MLOAD DUP1 SWAP2 SUB SWAP1 LOG1 POP POP JUMP JUMPDEST PUSH1 0x60 PUSH1 0x3 DUP1 SLOAD PUSH2 0xFD1 SWAP1 PUSH2 0x42FD JUMP JUMPDEST DUP1 PUSH1 0x1F ADD PUSH1 0x20 DUP1 SWAP2 DIV MUL PUSH1 0x20 ADD PUSH1 0x40 MLOAD SWAP1 DUP2 ADD PUSH1 0x40 MSTORE DUP1 SWAP3 SWAP2 SWAP1 DUP2 DUP2 MSTORE PUSH1 0x20 ADD DUP3 DUP1 SLOAD PUSH2 0xFFD SWAP1 PUSH2 0x42FD JUMP JUMPDEST DUP1 ISZERO PUSH2 0x1048 JUMPI DUP1 PUSH1 0x1F LT PUSH2 0x101F JUMPI PUSH2 0x100 DUP1 DUP4 SLOAD DIV MUL DUP4 MSTORE SWAP2 PUSH1 0x20 ADD SWAP2 PUSH2 0x1048 JUMP JUMPDEST DUP3 ADD SWAP2 SWAP1 PUSH0 MSTORE PUSH1 0x20 PUSH0 KECCAK256 SWAP1 JUMPDEST DUP2 SLOAD DUP2 MSTORE SWAP1 PUSH1 0x1 ADD SWAP1 PUSH1 0x20 ADD DUP1 DUP4 GT PUSH2 0x102B JUMPI DUP3 SWAP1 SUB PUSH1 0x1F AND DUP3 ADD SWAP2 JUMPDEST POP POP POP POP POP SWAP1 POP SWAP1 JUMP JUMPDEST PUSH0 CALLER PUSH2 0x105F DUP2 DUP6 DUP6 PUSH2 0x3102 JUMP JUMPDEST POP PUSH1 0x1 SWAP4 SWAP3 POP POP POP JUMP JUMPDEST PUSH1 0x1 PUSH1 0x1 PUSH1 0xA0 SHL SUB DUP2 AND PUSH0 SWAP1 DUP2 MSTORE PUSH1 0x16 PUSH1 0x20 MSTORE PUSH1 0x40 DUP2 KECCAK256 DUP2 SWAP1 DUP2 JUMPDEST DUP2 SLOAD DUP2 LT ISZERO PUSH2 0x111F JUMPI DUP2 DUP2 DUP2 SLOAD DUP2 LT PUSH2 0x109F JUMPI PUSH2 0x109F PUSH2 0x42E9 JUMP JUMPDEST PUSH0 SWAP2 DUP3 MSTORE PUSH1 0x20 SWAP1 SWAP2 KECCAK256 PUSH1 0x2 PUSH1 0x3 SWAP1 SWAP3 MUL ADD ADD SLOAD PUSH1 0xFF AND ISZERO DUP1 ISZERO PUSH2 0x10E3 JUMPI POP DUP2 DUP2 DUP2 SLOAD DUP2 LT PUSH2 0x10CF JUMPI PUSH2 0x10CF PUSH2 0x42E9 JUMP JUMPDEST SWAP1 PUSH0 MSTORE PUSH1 0x20 PUSH0 KECCAK256 SWAP1 PUSH1 0x3 MUL ADD PUSH1 0x1 ADD SLOAD TIMESTAMP LT ISZERO JUMPDEST ISZERO PUSH2 0x1117 JUMPI DUP2 DUP2 DUP2 SLOAD DUP2 LT PUSH2 0x10FA JUMPI PUSH2 0x10FA PUSH2 0x42E9 JUMP JUMPDEST SWAP1 PUSH0 MSTORE PUSH1 0x20 PUSH0 KECCAK256 SWAP1 PUSH1 0x3 MUL ADD PUSH0 ADD SLOAD DUP4 PUSH2 0x1114 SWAP2 SWAP1 PUSH2 0x4349 JUMP JUMPDEST SWAP3 POP JUMPDEST PUSH1 0x1 ADD PUSH2 0x1084 JUMP JUMPDEST POP SWAP1 SWAP4 SWAP3 POP POP POP JUMP JUMPDEST PUSH2 0x1130 PUSH2 0x310F JUMP JUMPDEST CALLER PUSH0 JUMPDEST PUSH1 0xD SLOAD DUP2 LT ISZERO PUSH2 0x1193 JUMPI PUSH0 PUSH1 0xD DUP3 DUP2 SLOAD DUP2 LT PUSH2 0x1151 JUMPI PUSH2 0x1151 PUSH2 0x42E9 JUMP JUMPDEST PUSH0 SWAP2 DUP3 MSTORE PUSH1 0x20 DUP1 DUP4 KECCAK256 SWAP1 SWAP2 ADD SLOAD PUSH1 0x1 PUSH1 0x1 PUSH1 0xA0 SHL SUB AND DUP1 DUP4 MSTORE PUSH1 0xC SWAP1 SWAP2 MSTORE PUSH1 0x40 SWAP1 SWAP2 KECCAK256 SLOAD SWAP1 SWAP2 POP PUSH1 0xFF AND ISZERO PUSH2 0x118A JUMPI PUSH2 0x118A DUP2 DUP5 PUSH2 0x3139 JUMP JUMPDEST POP PUSH1 0x1 ADD PUSH2 0x1133 JUMP JUMPDEST POP PUSH2 0x119C PUSH2 0x3232 JUMP JUMPDEST CALLER PUSH0 SWAP1 DUP2 MSTORE PUSH1 0x13 PUSH1 0x20 MSTORE PUSH1 0x40 SWAP1 KECCAK256 SLOAD PUSH1 0xFF AND ISZERO PUSH2 0x11CE JUMPI CALLER PUSH1 0x40 MLOAD PUSH4 0xE34017E1 PUSH1 0xE0 SHL DUP2 MSTORE PUSH1 0x4 ADD PUSH2 0xF7C SWAP2 SWAP1 PUSH2 0x435C JUMP JUMPDEST PUSH2 0x11D9 CALLER DUP5 DUP5 PUSH2 0x3256 JUMP JUMPDEST POP PUSH2 0x11E4 PUSH1 0x1 PUSH1 0x6 SSTORE JUMP JUMPDEST POP POP JUMP JUMPDEST PUSH0 MLOAD PUSH1 0x20 PUSH2 0x446F PUSH0 CODECOPY PUSH0 MLOAD SWAP1 PUSH0 MSTORE PUSH2 0x11FF DUP2 PUSH2 0x30F8 JUMP JUMPDEST PUSH1 0x1 PUSH1 0x1 PUSH1 0xA0 SHL SUB DUP3 AND PUSH2 0x124D JUMPI PUSH1 0x40 MLOAD PUSH3 0x461BCD PUSH1 0xE5 SHL DUP2 MSTORE PUSH1 0x20 PUSH1 0x4 DUP3 ADD MSTORE PUSH1 0x15 PUSH1 0x24 DUP3 ADD MSTORE PUSH21 0x496E76616C696420746F6B656E2061646472657373 PUSH1 0x58 SHL PUSH1 0x44 DUP3 ADD MSTORE PUSH1 0x64 ADD PUSH2 0xF7C JUMP JUMPDEST PUSH1 0x1 PUSH1 0x1 PUSH1 0xA0 SHL SUB DUP3 AND PUSH0 SWAP1 DUP2 MSTORE PUSH1 0xC PUSH1 0x20 MSTORE PUSH1 0x40 SWAP1 KECCAK256 SLOAD PUSH1 0xFF AND ISZERO PUSH2 0x1291 JUMPI PUSH1 0x40 MLOAD PUSH4 0x1E23575 PUSH1 0xE0 SHL DUP2 MSTORE PUSH1 0x1 PUSH1 0x1 PUSH1 0xA0 SHL SUB DUP4 AND PUSH1 0x4 DUP3 ADD MSTORE PUSH1 0x24 ADD PUSH2 0xF7C JUMP JUMPDEST PUSH1 0x1 PUSH1 0x1 PUSH1 0xA0 SHL SUB DUP3 AND PUSH0 DUP2 DUP2 MSTORE PUSH1 0xC PUSH1 0x20 SWAP1 DUP2 MSTORE PUSH1 0x40 DUP1 DUP4 KECCAK256 DUP1 SLOAD PUSH1 0xFF NOT AND PUSH1 0x1 SWAP1 DUP2 OR SWAP1 SWAP2 SSTORE PUSH1 0xD DUP1 SLOAD SWAP2 DUP3 ADD SWAP1 SSTORE PUSH32 0xD7B6990105719101DABEB77144F2A3385C8033ACD3AF97E9423A695E81AD1EB5 ADD DUP1 SLOAD PUSH1 0x1 PUSH1 0x1 PUSH1 0xA0 SHL SUB NOT AND DUP6 OR SWAP1 SSTORE PUSH1 0xF SWAP1 SWAP2 MSTORE DUP1 DUP3 KECCAK256 TIMESTAMP SWAP1 SSTORE MLOAD PUSH32 0xF3E4C2C64E71E6BA2EAAB9A599BCED62F9EB91D2CDA610BF41AA8C80FF2CF826 SWAP2 SWAP1 LOG2 POP POP JUMP JUMPDEST PUSH1 0xD SLOAD PUSH0 SWAP1 ISZERO PUSH2 0x1373 JUMPI PUSH2 0x1361 PUSH1 0xD PUSH0 DUP2 SLOAD DUP2 LT PUSH2 0x1348 JUMPI PUSH2 0x1348 PUSH2 0x42E9 JUMP JUMPDEST PUSH0 SWAP2 DUP3 MSTORE PUSH1 0x20 SWAP1 SWAP2 KECCAK256 ADD SLOAD PUSH1 0x1 PUSH1 0x1 PUSH1 0xA0 SHL SUB AND PUSH2 0x2EE9 JUMP JUMPDEST PUSH2 0x136E SWAP1 PUSH3 0x127500 PUSH2 0x43C1 JUMP JUMPDEST SWAP1 POP SWAP1 JUMP JUMPDEST POP PUSH0 SWAP1 JUMP JUMPDEST PUSH1 0x1 PUSH1 0x1 PUSH1 0xA0 SHL SUB DUP1 DUP4 AND PUSH0 DUP2 DUP2 MSTORE PUSH1 0x12 PUSH1 0x20 SWAP1 DUP2 MSTORE PUSH1 0x40 DUP1 DUP4 KECCAK256 SWAP5 DUP7 AND DUP1 DUP5 MSTORE SWAP5 DUP3 MSTORE DUP1 DUP4 KECCAK256 SLOAD SWAP4 DUP4 MSTORE PUSH1 0x11 DUP3 MSTORE DUP1 DUP4 KECCAK256 SWAP5 DUP4 MSTORE SWAP4 SWAP1 MSTORE SWAP2 DUP3 KECCAK256 SLOAD PUSH8 0xDE0B6B3A7640000 SWAP1 PUSH2 0x13C7 DUP6 PUSH2 0x3043 JUMP JUMPDEST PUSH2 0x13D1 SWAP2 SWAP1 PUSH2 0x43D8 JUMP JUMPDEST PUSH1 0x1 PUSH1 0x1 PUSH1 0xA0 SHL SUB DUP7 AND PUSH0 SWAP1 DUP2 MSTORE PUSH1 0x20 DUP2 SWAP1 MSTORE PUSH1 0x40 SWAP1 KECCAK256 SLOAD PUSH2 0x13F3 SWAP2 SWAP1 PUSH2 0x43C1 JUMP JUMPDEST PUSH2 0x13FD SWAP2 SWAP1 PUSH2 0x43EB JUMP JUMPDEST PUSH2 0x1407 SWAP2 SWAP1 PUSH2 0x4349 JUMP JUMPDEST SWAP4 SWAP3 POP POP POP JUMP JUMPDEST PUSH0 CALLER PUSH2 0x141B DUP6 DUP3 DUP6 PUSH2 0x342E JUMP JUMPDEST PUSH2 0x1426 DUP6 DUP6 DUP6 PUSH2 0x34A4 JUMP JUMPDEST POP PUSH1 0x1 SWAP5 SWAP4 POP POP POP POP JUMP JUMPDEST PUSH2 0x1439 PUSH2 0x310F JUMP JUMPDEST CALLER PUSH0 JUMPDEST PUSH1 0xD SLOAD DUP2 LT ISZERO PUSH2 0x149C JUMPI PUSH0 PUSH1 0xD DUP3 DUP2 SLOAD DUP2 LT PUSH2 0x145A JUMPI PUSH2 0x145A PUSH2 0x42E9 JUMP JUMPDEST PUSH0 SWAP2 DUP3 MSTORE PUSH1 0x20 DUP1 DUP4 KECCAK256 SWAP1 SWAP2 ADD SLOAD PUSH1 0x1 PUSH1 0x1 PUSH1 0xA0 SHL SUB AND DUP1 DUP4 MSTORE PUSH1 0xC SWAP1 SWAP2 MSTORE PUSH1 0x40 SWAP1 SWAP2 KECCAK256 SLOAD SWAP1 SWAP2 POP PUSH1 0xFF AND ISZERO PUSH2 0x1493 JUMPI PUSH2 0x1493 DUP2 DUP5 PUSH2 0x3139 JUMP JUMPDEST POP PUSH1 0x1 ADD PUSH2 0x143C JUMP JUMPDEST POP PUSH2 0x14A5 PUSH2 0x3232 JUMP JUMPDEST CALLER PUSH0 SWAP1 DUP2 MSTORE PUSH1 0x13 PUSH1 0x20 MSTORE PUSH1 0x40 SWAP1 KECCAK256 SLOAD PUSH1 0xFF AND ISZERO PUSH2 0x14D7 JUMPI CALLER PUSH1 0x40 MLOAD PUSH4 0xE34017E1 PUSH1 0xE0 SHL DUP2 MSTORE PUSH1 0x4 ADD PUSH2 0xF7C SWAP2 SWAP1 PUSH2 0x435C JUMP JUMPDEST PUSH0 DUP3 GT PUSH2 0x151A JUMPI PUSH1 0x40 MLOAD PUSH3 0x461BCD PUSH1 0xE5 SHL DUP2 MSTORE PUSH1 0x20 PUSH1 0x4 DUP3 ADD MSTORE PUSH1 0x11 PUSH1 0x24 DUP3 ADD MSTORE PUSH17 0x43616E6E6F74207769746864726177203 PUSH1 0x7C SHL PUSH1 0x44 DUP3 ADD MSTORE PUSH1 0x64 ADD PUSH2 0xF7C JUMP JUMPDEST PUSH0 PUSH2 0x1524 CALLER PUSH2 0x1069 JUMP JUMPDEST SWAP1 POP DUP1 DUP4 GT ISZERO PUSH2 0x1551 JUMPI PUSH1 0x40 MLOAD PUSH4 0xEDF89E3D PUSH1 0xE0 SHL DUP2 MSTORE PUSH1 0x4 DUP2 ADD DUP5 SWAP1 MSTORE PUSH1 0x24 DUP2 ADD DUP3 SWAP1 MSTORE PUSH1 0x44 ADD PUSH2 0xF7C JUMP JUMPDEST CALLER PUSH0 SWAP1 DUP2 MSTORE PUSH1 0x16 PUSH1 0x20 MSTORE PUSH1 0x40 DUP2 KECCAK256 DUP5 SWAP2 JUMPDEST DUP2 SLOAD DUP2 LT DUP1 ISZERO PUSH2 0x1571 JUMPI POP PUSH0 DUP4 GT JUMPDEST ISZERO PUSH2 0x16AA JUMPI DUP2 DUP2 DUP2 SLOAD DUP2 LT PUSH2 0x1588 JUMPI PUSH2 0x1588 PUSH2 0x42E9 JUMP JUMPDEST PUSH0 SWAP2 DUP3 MSTORE PUSH1 0x20 SWAP1 SWAP2 KECCAK256 PUSH1 0x2 PUSH1 0x3 SWAP1 SWAP3 MUL ADD ADD SLOAD PUSH1 0xFF AND ISZERO DUP1 ISZERO PUSH2 0x15CC JUMPI POP DUP2 DUP2 DUP2 SLOAD DUP2 LT PUSH2 0x15B8 JUMPI PUSH2 0x15B8 PUSH2 0x42E9 JUMP JUMPDEST SWAP1 PUSH0 MSTORE PUSH1 0x20 PUSH0 KECCAK256 SWAP1 PUSH1 0x3 MUL ADD PUSH1 0x1 ADD SLOAD TIMESTAMP LT ISZERO JUMPDEST ISZERO PUSH2 0x1698 JUMPI DUP3 DUP3 DUP3 DUP2 SLOAD DUP2 LT PUSH2 0x15E4 JUMPI PUSH2 0x15E4 PUSH2 0x42E9 JUMP JUMPDEST SWAP1 PUSH0 MSTORE PUSH1 0x20 PUSH0 KECCAK256 SWAP1 PUSH1 0x3 MUL ADD PUSH0 ADD SLOAD GT PUSH2 0x1660 JUMPI DUP2 DUP2 DUP2 SLOAD DUP2 LT PUSH2 0x160A JUMPI PUSH2 0x160A PUSH2 0x42E9 JUMP JUMPDEST SWAP1 PUSH0 MSTORE PUSH1 0x20 PUSH0 KECCAK256 SWAP1 PUSH1 0x3 MUL ADD PUSH0 ADD SLOAD DUP4 PUSH2 0x1624 SWAP2 SWAP1 PUSH2 0x43D8 JUMP JUMPDEST SWAP3 POP PUSH1 0x1 DUP3 DUP3 DUP2 SLOAD DUP2 LT PUSH2 0x163A JUMPI PUSH2 0x163A PUSH2 0x42E9 JUMP JUMPDEST PUSH0 SWAP2 DUP3 MSTORE PUSH1 0x20 SWAP1 SWAP2 KECCAK256 PUSH1 0x3 SWAP1 SWAP2 MUL ADD PUSH1 0x2 ADD DUP1 SLOAD PUSH1 0xFF NOT AND SWAP2 ISZERO ISZERO SWAP2 SWAP1 SWAP2 OR SWAP1 SSTORE PUSH2 0x1698 JUMP JUMPDEST DUP3 DUP3 DUP3 DUP2 SLOAD DUP2 LT PUSH2 0x1673 JUMPI PUSH2 0x1673 PUSH2 0x42E9 JUMP JUMPDEST SWAP1 PUSH0 MSTORE PUSH1 0x20 PUSH0 KECCAK256 SWAP1 PUSH1 0x3 MUL ADD PUSH0 ADD PUSH0 DUP3 DUP3 SLOAD PUSH2 0x168F SWAP2 SWAP1 PUSH2 0x43D8 JUMP JUMPDEST SWAP1 SWAP2 SSTORE POP PUSH0 SWAP4 POP POP JUMPDEST DUP1 PUSH2 0x16A2 DUP2 PUSH2 0x440A JUMP JUMPDEST SWAP2 POP POP PUSH2 0x1562 JUMP JUMPDEST POP CALLER PUSH0 SWAP1 DUP2 MSTORE PUSH1 0x14 PUSH1 0x20 MSTORE PUSH1 0x40 DUP2 KECCAK256 DUP1 SLOAD DUP8 SWAP3 SWAP1 PUSH2 0x16C9 SWAP1 DUP5 SWAP1 PUSH2 0x43D8 JUMP JUMPDEST SWAP1 SWAP2 SSTORE POP PUSH2 0x16D9 SWAP1 POP CALLER DUP7 PUSH2 0x3501 JUMP JUMPDEST PUSH2 0x170D PUSH1 0x1 PUSH1 0x1 PUSH1 0xA0 SHL SUB PUSH32 0x0 AND CALLER DUP8 PUSH2 0x3535 JUMP JUMPDEST PUSH1 0x40 MLOAD DUP6 DUP2 MSTORE CALLER SWAP1 PUSH32 0x7084F5476618D8E60B11EF0D7D3F06914655ADB8793E28FF7F018D4C76D505D5 SWAP1 PUSH1 0x20 ADD PUSH1 0x40 MLOAD DUP1 SWAP2 SUB SWAP1 LOG2 POP POP POP POP PUSH2 0x1750 PUSH1 0x1 PUSH1 0x6 SSTORE JUMP JUMPDEST POP JUMP JUMPDEST PUSH2 0x1776 PUSH1 0x40 MLOAD DUP1 PUSH1 0x60 ADD PUSH1 0x40 MSTORE DUP1 PUSH0 DUP2 MSTORE PUSH1 0x20 ADD PUSH0 DUP2 MSTORE PUSH1 0x20 ADD PUSH0 ISZERO ISZERO DUP2 MSTORE POP SWAP1 JUMP JUMPDEST PUSH1 0x1 PUSH1 0x1 PUSH1 0xA0 SHL SUB DUP4 AND PUSH0 SWAP1 DUP2 MSTORE PUSH1 0x16 PUSH1 0x20 MSTORE PUSH1 0x40 SWAP1 KECCAK256 SLOAD DUP3 LT PUSH2 0x17B0 JUMPI PUSH1 0x40 MLOAD PUSH4 0x33200A8B PUSH1 0xE1 SHL DUP2 MSTORE PUSH1 0x4 DUP2 ADD DUP4 SWAP1 MSTORE PUSH1 0x24 ADD PUSH2 0xF7C JUMP JUMPDEST PUSH1 0x1 PUSH1 0x1 PUSH1 0xA0 SHL SUB DUP4 AND PUSH0 SWAP1 DUP2 MSTORE PUSH1 0x16 PUSH1 0x20 MSTORE PUSH1 0x40 SWAP1 KECCAK256 DUP1 SLOAD DUP4 SWAP1 DUP2 LT PUSH2 0x17D9 JUMPI PUSH2 0x17D9 PUSH2 0x42E9 JUMP JUMPDEST PUSH0 SWAP2 DUP3 MSTORE PUSH1 0x20 SWAP2 DUP3 SWAP1 KECCAK256 PUSH1 0x40 DUP1 MLOAD PUSH1 0x60 DUP2 ADD DUP3 MSTORE PUSH1 0x3 SWAP1 SWAP4 MUL SWAP1 SWAP2 ADD DUP1 SLOAD DUP4 MSTORE PUSH1 0x1 DUP2 ADD SLOAD SWAP4 DUP4 ADD SWAP4 SWAP1 SWAP4 MSTORE PUSH1 0x2 SWAP1 SWAP3 ADD SLOAD PUSH1 0xFF AND ISZERO ISZERO SWAP2 DUP2 ADD SWAP2 SWAP1 SWAP2 MSTORE SWAP1 POP SWAP3 SWAP2 POP POP JUMP JUMPDEST PUSH0 DUP3 DUP2 MSTORE PUSH1 0x7 PUSH1 0x20 MSTORE PUSH1 0x40 SWAP1 KECCAK256 PUSH1 0x1 ADD SLOAD PUSH2 0x1839 DUP2 PUSH2 0x30F8 JUMP JUMPDEST PUSH2 0x1843 DUP4 DUP4 PUSH2 0x3594 JUMP JUMPDEST POP POP POP POP JUMP JUMPDEST PUSH1 0x1 PUSH1 0x1 PUSH1 0xA0 SHL SUB DUP2 AND CALLER EQ PUSH2 0x1872 JUMPI PUSH1 0x40 MLOAD PUSH4 0x334BD919 PUSH1 0xE1 SHL DUP2 MSTORE PUSH1 0x4 ADD PUSH1 0x40 MLOAD DUP1 SWAP2 SUB SWAP1 REVERT JUMPDEST PUSH2 0x187C DUP3 DUP3 PUSH2 0x35C7 JUMP JUMPDEST POP POP POP JUMP JUMPDEST PUSH2 0x1889 PUSH2 0x310F JUMP JUMPDEST PUSH2 0x1891 PUSH2 0x3232 JUMP JUMPDEST CALLER PUSH0 SWAP1 DUP2 MSTORE PUSH1 0x13 PUSH1 0x20 MSTORE PUSH1 0x40 SWAP1 KECCAK256 SLOAD PUSH1 0xFF AND ISZERO PUSH2 0x18C3 JUMPI CALLER PUSH1 0x40 MLOAD PUSH4 0xE34017E1 PUSH1 0xE0 SHL DUP2 MSTORE PUSH1 0x4 ADD PUSH2 0xF7C SWAP2 SWAP1 PUSH2 0x435C JUMP JUMPDEST PUSH1 0xD SLOAD ISZERO PUSH2 0x18FB JUMPI PUSH2 0x18FB PUSH1 0xD PUSH0 DUP2 SLOAD DUP2 LT PUSH2 0x18E1 JUMPI PUSH2 0x18E1 PUSH2 0x42E9 JUMP JUMPDEST PUSH0 SWAP2 DUP3 MSTORE PUSH1 0x20 SWAP1 SWAP2 KECCAK256 ADD SLOAD PUSH1 0x1 PUSH1 0x1 PUSH1 0xA0 SHL SUB AND CALLER PUSH2 0x3139 JUMP JUMPDEST PUSH2 0x1905 PUSH1 0x1 PUSH1 0x6 SSTORE JUMP JUMPDEST JUMP JUMPDEST PUSH0 MLOAD PUSH1 0x20 PUSH2 0x446F PUSH0 CODECOPY PUSH0 MLOAD SWAP1 PUSH0 MSTORE PUSH2 0x191E DUP2 PUSH2 0x30F8 JUMP JUMPDEST PUSH1 0x1 PUSH1 0x1 PUSH1 0xA0 SHL SUB DUP3 AND PUSH0 SWAP1 DUP2 MSTORE PUSH1 0xC PUSH1 0x20 MSTORE PUSH1 0x40 SWAP1 KECCAK256 SLOAD PUSH1 0xFF AND PUSH2 0x1961 JUMPI PUSH1 0x40 MLOAD PUSH4 0x751DFF97 PUSH1 0xE1 SHL DUP2 MSTORE PUSH1 0x1 PUSH1 0x1 PUSH1 0xA0 SHL SUB DUP4 AND PUSH1 0x4 DUP3 ADD MSTORE PUSH1 0x24 ADD PUSH2 0xF7C JUMP JUMPDEST PUSH1 0x1 PUSH1 0x1 PUSH1 0xA0 SHL SUB DUP3 AND PUSH0 SWAP1 DUP2 MSTORE PUSH1 0xC PUSH1 0x20 MSTORE PUSH1 0x40 DUP2 KECCAK256 DUP1 SLOAD PUSH1 0xFF NOT AND SWAP1 SSTORE JUMPDEST PUSH1 0xD SLOAD DUP2 LT ISZERO PUSH2 0x1A75 JUMPI DUP3 PUSH1 0x1 PUSH1 0x1 PUSH1 0xA0 SHL SUB AND PUSH1 0xD DUP3 DUP2 SLOAD DUP2 LT PUSH2 0x19A8 JUMPI PUSH2 0x19A8 PUSH2 0x42E9 JUMP JUMPDEST PUSH0 SWAP2 DUP3 MSTORE PUSH1 0x20 SWAP1 SWAP2 KECCAK256 ADD SLOAD PUSH1 0x1 PUSH1 0x1 PUSH1 0xA0 SHL SUB AND SUB PUSH2 0x1A6D JUMPI PUSH1 0xD DUP1 SLOAD PUSH2 0x19D1 SWAP1 PUSH1 0x1 SWAP1 PUSH2 0x43D8 JUMP JUMPDEST DUP2 SLOAD DUP2 LT PUSH2 0x19E1 JUMPI PUSH2 0x19E1 PUSH2 0x42E9 JUMP JUMPDEST PUSH0 SWAP2 DUP3 MSTORE PUSH1 0x20 SWAP1 SWAP2 KECCAK256 ADD SLOAD PUSH1 0xD DUP1 SLOAD PUSH1 0x1 PUSH1 0x1 PUSH1 0xA0 SHL SUB SWAP1 SWAP3 AND SWAP2 DUP4 SWAP1 DUP2 LT PUSH2 0x1A0C JUMPI PUSH2 0x1A0C PUSH2 0x42E9 JUMP JUMPDEST SWAP1 PUSH0 MSTORE PUSH1 0x20 PUSH0 KECCAK256 ADD PUSH0 PUSH2 0x100 EXP DUP2 SLOAD DUP2 PUSH1 0x1 PUSH1 0x1 PUSH1 0xA0 SHL SUB MUL NOT AND SWAP1 DUP4 PUSH1 0x1 PUSH1 0x1 PUSH1 0xA0 SHL SUB AND MUL OR SWAP1 SSTORE POP PUSH1 0xD DUP1 SLOAD DUP1 PUSH2 0x1A48 JUMPI PUSH2 0x1A48 PUSH2 0x4422 JUMP JUMPDEST PUSH0 DUP3 DUP2 MSTORE PUSH1 0x20 SWAP1 KECCAK256 DUP2 ADD PUSH0 NOT SWAP1 DUP2 ADD DUP1 SLOAD PUSH1 0x1 PUSH1 0x1 PUSH1 0xA0 SHL SUB NOT AND SWAP1 SSTORE ADD SWAP1 SSTORE PUSH2 0x1A75 JUMP JUMPDEST PUSH1 0x1 ADD PUSH2 0x1981 JUMP JUMPDEST POP PUSH1 0x40 MLOAD PUSH1 0x1 PUSH1 0x1 PUSH1 0xA0 SHL SUB DUP4 AND SWAP1 PUSH32 0x66257BCEF574219C04F7C05F7A1C78D599DA10491294C92A5805C48B4CDF5009 SWAP1 PUSH0 SWAP1 LOG2 POP POP JUMP JUMPDEST PUSH32 0x65D7A28E3265B37A6474929F336521B332C1681B933F6CB9F3376673440D862A PUSH2 0x1AD7 DUP2 PUSH2 0x30F8 JUMP JUMPDEST PUSH2 0x1750 PUSH2 0x35F2 JUMP JUMPDEST PUSH2 0x1AE7 PUSH2 0x310F JUMP JUMPDEST PUSH2 0x1AEF PUSH2 0x3232 JUMP JUMPDEST CALLER PUSH0 SWAP1 DUP2 MSTORE PUSH1 0x13 PUSH1 0x20 MSTORE PUSH1 0x40 SWAP1 KECCAK256 SLOAD PUSH1 0xFF AND ISZERO PUSH2 0x1B21 JUMPI CALLER PUSH1 0x40 MLOAD PUSH4 0xE34017E1 PUSH1 0xE0 SHL DUP2 MSTORE PUSH1 0x4 ADD PUSH2 0xF7C SWAP2 SWAP1 PUSH2 0x435C JUMP JUMPDEST PUSH1 0xA SLOAD CALLVALUE LT ISZERO PUSH2 0x1B6C JUMPI PUSH1 0x40 MLOAD PUSH3 0x461BCD PUSH1 0xE5 SHL DUP2 MSTORE PUSH1 0x20 PUSH1 0x4 DUP3 ADD MSTORE PUSH1 0x16 PUSH1 0x24 DUP3 ADD MSTORE PUSH22 0x496E73756666696369656E7420636C61696D20666565 PUSH1 0x50 SHL PUSH1 0x44 DUP3 ADD MSTORE PUSH1 0x64 ADD PUSH2 0xF7C JUMP JUMPDEST PUSH0 DUP1 JUMPDEST PUSH1 0xD SLOAD DUP2 LT ISZERO PUSH2 0x1CDB JUMPI PUSH0 PUSH1 0xD DUP3 DUP2 SLOAD DUP2 LT PUSH2 0x1B8D JUMPI PUSH2 0x1B8D PUSH2 0x42E9 JUMP JUMPDEST PUSH0 SWAP2 DUP3 MSTORE PUSH1 0x20 DUP1 DUP4 KECCAK256 SWAP1 SWAP2 ADD SLOAD PUSH1 0x1 PUSH1 0x1 PUSH1 0xA0 SHL SUB AND DUP1 DUP4 MSTORE PUSH1 0xC SWAP1 SWAP2 MSTORE PUSH1 0x40 SWAP1 SWAP2 KECCAK256 SLOAD SWAP1 SWAP2 POP PUSH1 0xFF AND ISZERO PUSH2 0x1CD2 JUMPI PUSH2 0x1BC6 DUP2 CALLER PUSH2 0x3139 JUMP JUMPDEST CALLER PUSH0 SWAP1 DUP2 MSTORE PUSH1 0x12 PUSH1 0x20 SWAP1 DUP2 MSTORE PUSH1 0x40 DUP1 DUP4 KECCAK256 PUSH1 0x1 PUSH1 0x1 PUSH1 0xA0 SHL SUB DUP6 AND DUP5 MSTORE SWAP1 SWAP2 MSTORE SWAP1 KECCAK256 SLOAD DUP1 ISZERO PUSH2 0x1CD0 JUMPI CALLER PUSH0 DUP2 DUP2 MSTORE PUSH1 0x12 PUSH1 0x20 SWAP1 DUP2 MSTORE PUSH1 0x40 DUP1 DUP4 KECCAK256 PUSH1 0x1 PUSH1 0x1 PUSH1 0xA0 SHL SUB DUP8 DUP2 AND DUP6 MSTORE SWAP3 MSTORE DUP1 DUP4 KECCAK256 SWAP3 SWAP1 SWAP3 SSTORE SWAP1 MLOAD PUSH4 0xCD8515CF PUSH1 0xE0 SHL DUP2 MSTORE PUSH32 0x0 SWAP1 SWAP2 AND SWAP2 PUSH4 0xCD8515CF SWAP2 PUSH2 0x1C5E SWAP2 SWAP1 DUP7 SWAP1 DUP7 SWAP1 PUSH1 0x4 ADD PUSH2 0x4436 JUMP JUMPDEST PUSH0 PUSH1 0x40 MLOAD DUP1 DUP4 SUB DUP2 PUSH0 DUP8 DUP1 EXTCODESIZE ISZERO DUP1 ISZERO PUSH2 0x1C75 JUMPI PUSH0 PUSH0 REVERT JUMPDEST POP GAS CALL ISZERO DUP1 ISZERO PUSH2 0x1C87 JUMPI RETURNDATASIZE PUSH0 PUSH0 RETURNDATACOPY RETURNDATASIZE PUSH0 REVERT JUMPDEST POP POP PUSH1 0x40 MLOAD DUP4 DUP2 MSTORE PUSH1 0x1 PUSH1 0x1 PUSH1 0xA0 SHL SUB DUP6 AND SWAP3 POP CALLER SWAP2 POP PUSH32 0x540798DF468D7B23D11F156FDB954CB19AD414D150722A7B6D55BA369DEA792E SWAP1 PUSH1 0x20 ADD PUSH1 0x40 MLOAD DUP1 SWAP2 SUB SWAP1 LOG3 PUSH1 0x1 SWAP4 POP JUMPDEST POP JUMPDEST POP PUSH1 0x1 ADD PUSH2 0x1B6F JUMP JUMPDEST POP PUSH0 CALLVALUE GT DUP1 ISZERO PUSH2 0x1CE8 JUMPI POP DUP1 JUMPDEST ISZERO PUSH2 0x1D25 JUMPI PUSH1 0xB SLOAD PUSH1 0x40 MLOAD PUSH1 0x1 PUSH1 0x1 PUSH1 0xA0 SHL SUB SWAP1 SWAP2 AND SWAP1 CALLVALUE DUP1 ISZERO PUSH2 0x8FC MUL SWAP2 PUSH0 DUP2 DUP2 DUP2 DUP6 DUP9 DUP9 CALL SWAP4 POP POP POP POP ISZERO DUP1 ISZERO PUSH2 0x1D23 JUMPI RETURNDATASIZE PUSH0 PUSH0 RETURNDATACOPY RETURNDATASIZE PUSH0 REVERT JUMPDEST POP JUMPDEST POP PUSH2 0x1905 PUSH1 0x1 PUSH1 0x6 SSTORE JUMP JUMPDEST PUSH0 MLOAD PUSH1 0x20 PUSH2 0x446F PUSH0 CODECOPY PUSH0 MLOAD SWAP1 PUSH0 MSTORE PUSH2 0x1D47 DUP2 PUSH2 0x30F8 JUMP JUMPDEST PUSH1 0xA DUP3 SWAP1 SSTORE PUSH1 0x40 MLOAD DUP3 DUP2 MSTORE PUSH32 0xC4530A2C82A973DA2165D940859F86F630CA14E4EA7679C03BED6A999D029BF1 SWAP1 PUSH1 0x20 ADD PUSH2 0xFB6 JUMP JUMPDEST PUSH0 MLOAD PUSH1 0x20 PUSH2 0x446F PUSH0 CODECOPY PUSH0 MLOAD SWAP1 PUSH0 MSTORE PUSH2 0x1D93 DUP2 PUSH2 0x30F8 JUMP JUMPDEST PUSH2 0x1DA7 PUSH1 0x1 PUSH1 0x1 PUSH1 0xA0 SHL SUB DUP6 AND DUP5 DUP5 PUSH2 0x3535 JUMP JUMPDEST DUP3 PUSH1 0x1 PUSH1 0x1 PUSH1 0xA0 SHL SUB AND DUP5 PUSH1 0x1 PUSH1 0x1 PUSH1 0xA0 SHL SUB AND CALLER PUSH1 0x1 PUSH1 0x1 PUSH1 0xA0 SHL SUB AND PUSH32 0x2503BF16A63C716AFC6165935443FDBFCDA0BFAE53B99AE0935BC46D1298BB86 DUP6 PUSH1 0x40 MLOAD PUSH2 0x1DF6 SWAP2 DUP2 MSTORE PUSH1 0x20 ADD SWAP1 JUMP JUMPDEST PUSH1 0x40 MLOAD DUP1 SWAP2 SUB SWAP1 LOG4 POP POP POP POP JUMP JUMPDEST PUSH0 MLOAD PUSH1 0x20 PUSH2 0x446F PUSH0 CODECOPY PUSH0 MLOAD SWAP1 PUSH0 MSTORE PUSH2 0x1E1B DUP2 PUSH2 0x30F8 JUMP JUMPDEST PUSH1 0x1 PUSH1 0x1 PUSH1 0xA0 SHL SUB DUP3 AND PUSH0 DUP2 DUP2 MSTORE PUSH1 0x13 PUSH1 0x20 MSTORE PUSH1 0x40 DUP1 DUP3 KECCAK256 DUP1 SLOAD PUSH1 0xFF NOT AND SWAP1 SSTORE MLOAD PUSH32 0x1747CA720B1A174A464B6513ACE29B1D3190B5F632B9F34147017C81425BFDE8 SWAP2 SWAP1 LOG2 POP POP JUMP JUMPDEST PUSH2 0x1E6C PUSH2 0x310F JUMP JUMPDEST CALLER PUSH0 JUMPDEST PUSH1 0xD SLOAD DUP2 LT ISZERO PUSH2 0x1ECF JUMPI PUSH0 PUSH1 0xD DUP3 DUP2 SLOAD DUP2 LT PUSH2 0x1E8D JUMPI PUSH2 0x1E8D PUSH2 0x42E9 JUMP JUMPDEST PUSH0 SWAP2 DUP3 MSTORE PUSH1 0x20 DUP1 DUP4 KECCAK256 SWAP1 SWAP2 ADD SLOAD PUSH1 0x1 PUSH1 0x1 PUSH1 0xA0 SHL SUB AND DUP1 DUP4 MSTORE PUSH1 0xC SWAP1 SWAP2 MSTORE PUSH1 0x40 SWAP1 SWAP2 KECCAK256 SLOAD SWAP1 SWAP2 POP PUSH1 0xFF AND ISZERO PUSH2 0x1EC6 JUMPI PUSH2 0x1EC6 DUP2 DUP5 PUSH2 0x3139 JUMP JUMPDEST POP PUSH1 0x1 ADD PUSH2 0x1E6F JUMP JUMPDEST POP PUSH2 0x1ED8 PUSH2 0x3232 JUMP JUMPDEST CALLER PUSH0 SWAP1 DUP2 MSTORE PUSH1 0x13 PUSH1 0x20 MSTORE PUSH1 0x40 SWAP1 KECCAK256 SLOAD PUSH1 0xFF AND ISZERO PUSH2 0x1F0A JUMPI CALLER PUSH1 0x40 MLOAD PUSH4 0xE34017E1 PUSH1 0xE0 SHL DUP2 MSTORE PUSH1 0x4 ADD PUSH2 0xF7C SWAP2 SWAP1 PUSH2 0x435C JUMP JUMPDEST CALLER PUSH0 SWAP1 DUP2 MSTORE PUSH1 0x16 PUSH1 0x20 MSTORE PUSH1 0x40 SWAP1 KECCAK256 SLOAD DUP3 LT PUSH2 0x1F3B JUMPI PUSH1 0x40 MLOAD PUSH4 0x33200A8B PUSH1 0xE1 SHL DUP2 MSTORE PUSH1 0x4 DUP2 ADD DUP4 SWAP1 MSTORE PUSH1 0x24 ADD PUSH2 0xF7C JUMP JUMPDEST CALLER PUSH0 SWAP1 DUP2 MSTORE PUSH1 0x16 PUSH1 0x20 MSTORE PUSH1 0x40 DUP2 KECCAK256 DUP1 SLOAD DUP5 SWAP1 DUP2 LT PUSH2 0x1F5B JUMPI PUSH2 0x1F5B PUSH2 0x42E9 JUMP JUMPDEST PUSH0 SWAP2 DUP3 MSTORE PUSH1 0x20 SWAP1 SWAP2 KECCAK256 PUSH1 0x3 SWAP1 SWAP2 MUL ADD PUSH1 0x2 DUP2 ADD SLOAD SWAP1 SWAP2 POP PUSH1 0xFF AND ISZERO PUSH2 0x1FC2 JUMPI PUSH1 0x40 MLOAD PUSH3 0x461BCD PUSH1 0xE5 SHL DUP2 MSTORE PUSH1 0x20 PUSH1 0x4 DUP3 ADD MSTORE PUSH1 0x1A PUSH1 0x24 DUP3 ADD MSTORE PUSH32 0x506F736974696F6E20616C72656164792077697468647261776E000000000000 PUSH1 0x44 DUP3 ADD MSTORE PUSH1 0x64 ADD PUSH2 0xF7C JUMP JUMPDEST DUP1 PUSH1 0x1 ADD SLOAD TIMESTAMP LT ISZERO PUSH2 0x1FF6 JUMPI PUSH1 0x1 DUP2 ADD SLOAD PUSH1 0x40 MLOAD PUSH4 0x10F26041 PUSH1 0xE0 SHL DUP2 MSTORE TIMESTAMP PUSH1 0x4 DUP3 ADD MSTORE PUSH1 0x24 DUP2 ADD SWAP2 SWAP1 SWAP2 MSTORE PUSH1 0x44 ADD PUSH2 0xF7C JUMP JUMPDEST DUP1 SLOAD PUSH1 0x2 DUP3 ADD DUP1 SLOAD PUSH1 0xFF NOT AND PUSH1 0x1 OR SWAP1 SSTORE CALLER PUSH0 SWAP1 DUP2 MSTORE PUSH1 0x14 PUSH1 0x20 MSTORE PUSH1 0x40 DUP2 KECCAK256 DUP1 SLOAD DUP4 SWAP3 SWAP1 PUSH2 0x2025 SWAP1 DUP5 SWAP1 PUSH2 0x43D8 JUMP JUMPDEST SWAP1 SWAP2 SSTORE POP PUSH2 0x2035 SWAP1 POP CALLER DUP3 PUSH2 0x3501 JUMP JUMPDEST PUSH2 0x2069 PUSH1 0x1 PUSH1 0x1 PUSH1 0xA0 SHL SUB PUSH32 0x0 AND CALLER DUP4 PUSH2 0x3535 JUMP JUMPDEST PUSH1 0x40 MLOAD DUP2 DUP2 MSTORE CALLER SWAP1 PUSH32 0x7084F5476618D8E60B11EF0D7D3F06914655ADB8793E28FF7F018D4C76D505D5 SWAP1 PUSH1 0x20 ADD PUSH1 0x40 MLOAD DUP1 SWAP2 SUB SWAP1 LOG2 POP POP POP PUSH2 0x1750 PUSH1 0x1 PUSH1 0x6 SSTORE JUMP JUMPDEST PUSH1 0x1 PUSH1 0x1 PUSH1 0xA0 SHL SUB DUP2 AND PUSH0 SWAP1 DUP2 MSTORE PUSH1 0xE PUSH1 0x20 SWAP1 DUP2 MSTORE PUSH1 0x40 DUP1 DUP4 KECCAK256 DUP1 SLOAD DUP3 MLOAD DUP2 DUP6 MUL DUP2 ADD DUP6 ADD SWAP1 SWAP4 MSTORE DUP1 DUP4 MSTORE PUSH1 0x60 SWAP5 SWAP3 SWAP4 SWAP2 SWAP3 SWAP1 SWAP2 DUP5 ADD JUMPDEST DUP3 DUP3 LT ISZERO PUSH2 0x214D JUMPI DUP4 DUP3 SWAP1 PUSH0 MSTORE PUSH1 0x20 PUSH0 KECCAK256 SWAP1 PUSH1 0x6 MUL ADD PUSH1 0x40 MLOAD DUP1 PUSH1 0xC0 ADD PUSH1 0x40 MSTORE SWAP1 DUP2 PUSH0 DUP3 ADD SLOAD DUP2 MSTORE PUSH1 0x20 ADD PUSH1 0x1 DUP3 ADD SLOAD DUP2 MSTORE PUSH1 0x20 ADD PUSH1 0x2 DUP3 ADD SLOAD DUP2 MSTORE PUSH1 0x20 ADD PUSH1 0x3 DUP3 ADD SLOAD DUP2 MSTORE PUSH1 0x20 ADD PUSH1 0x4 DUP3 ADD SLOAD DUP2 MSTORE PUSH1 0x20 ADD PUSH1 0x5 DUP3 ADD SLOAD DUP2 MSTORE POP POP DUP2 MSTORE PUSH1 0x20 ADD SWAP1 PUSH1 0x1 ADD SWAP1 PUSH2 0x20E2 JUMP JUMPDEST POP POP POP POP SWAP1 POP SWAP2 SWAP1 POP JUMP JUMPDEST PUSH1 0xD DUP2 DUP2 SLOAD DUP2 LT PUSH2 0x2167 JUMPI PUSH0 DUP1 REVERT JUMPDEST PUSH0 SWAP2 DUP3 MSTORE PUSH1 0x20 SWAP1 SWAP2 KECCAK256 ADD SLOAD PUSH1 0x1 PUSH1 0x1 PUSH1 0xA0 SHL SUB AND SWAP1 POP DUP2 JUMP JUMPDEST PUSH0 MLOAD PUSH1 0x20 PUSH2 0x446F PUSH0 CODECOPY PUSH0 MLOAD SWAP1 PUSH0 MSTORE PUSH2 0x2197 DUP2 PUSH2 0x30F8 JUMP JUMPDEST DUP2 PUSH0 JUMPDEST PUSH1 0xD SLOAD DUP2 LT ISZERO PUSH2 0x21FA JUMPI PUSH0 PUSH1 0xD DUP3 DUP2 SLOAD DUP2 LT PUSH2 0x21B8 JUMPI PUSH2 0x21B8 PUSH2 0x42E9 JUMP JUMPDEST PUSH0 SWAP2 DUP3 MSTORE PUSH1 0x20 DUP1 DUP4 KECCAK256 SWAP1 SWAP2 ADD SLOAD PUSH1 0x1 PUSH1 0x1 PUSH1 0xA0 SHL SUB AND DUP1 DUP4 MSTORE PUSH1 0xC SWAP1 SWAP2 MSTORE PUSH1 0x40 SWAP1 SWAP2 KECCAK256 SLOAD SWAP1 SWAP2 POP PUSH1 0xFF AND ISZERO PUSH2 0x21F1 JUMPI PUSH2 0x21F1 DUP2 DUP5 PUSH2 0x3139 JUMP JUMPDEST POP PUSH1 0x1 ADD PUSH2 0x219A JUMP JUMPDEST POP PUSH1 0x1 PUSH1 0x1 PUSH1 0xA0 SHL SUB DUP4 AND PUSH0 SWAP1 DUP2 MSTORE PUSH1 0x13 PUSH1 0x20 SWAP1 DUP2 MSTORE PUSH1 0x40 DUP1 DUP4 KECCAK256 DUP1 SLOAD PUSH1 0xFF NOT AND PUSH1 0x1 OR SWAP1 SSTORE PUSH1 0x14 SWAP1 SWAP2 MSTORE SWAP1 KECCAK256 SLOAD DUP1 ISZERO PUSH2 0x23BE JUMPI PUSH1 0x1 PUSH1 0x1 PUSH1 0xA0 SHL SUB DUP5 AND PUSH0 SWAP1 DUP2 MSTORE PUSH1 0x16 PUSH1 0x20 MSTORE PUSH1 0x40 DUP2 KECCAK256 SWAP1 JUMPDEST DUP2 SLOAD DUP2 LT ISZERO PUSH2 0x22BA JUMPI DUP2 DUP2 DUP2 SLOAD DUP2 LT PUSH2 0x2262 JUMPI PUSH2 0x2262 PUSH2 0x42E9 JUMP JUMPDEST PUSH0 SWAP2 DUP3 MSTORE PUSH1 0x20 SWAP1 SWAP2 KECCAK256 PUSH1 0x2 PUSH1 0x3 SWAP1 SWAP3 MUL ADD ADD SLOAD PUSH1 0xFF AND PUSH2 0x22B2 JUMPI PUSH1 0x1 DUP3 DUP3 DUP2 SLOAD DUP2 LT PUSH2 0x2290 JUMPI PUSH2 0x2290 PUSH2 0x42E9 JUMP JUMPDEST PUSH0 SWAP2 DUP3 MSTORE PUSH1 0x20 SWAP1 SWAP2 KECCAK256 PUSH1 0x3 SWAP1 SWAP2 MUL ADD PUSH1 0x2 ADD DUP1 SLOAD PUSH1 0xFF NOT AND SWAP2 ISZERO ISZERO SWAP2 SWAP1 SWAP2 OR SWAP1 SSTORE JUMPDEST PUSH1 0x1 ADD PUSH2 0x2247 JUMP JUMPDEST POP PUSH1 0x1 PUSH1 0x1 PUSH1 0xA0 SHL SUB DUP6 AND PUSH0 SWAP1 DUP2 MSTORE PUSH1 0x14 PUSH1 0x20 MSTORE PUSH1 0x40 DUP2 KECCAK256 DUP2 SWAP1 SSTORE JUMPDEST PUSH1 0xD SLOAD DUP2 LT ISZERO PUSH2 0x233A JUMPI PUSH1 0x1 PUSH1 0x1 PUSH1 0xA0 SHL SUB DUP7 AND PUSH0 SWAP1 DUP2 MSTORE PUSH1 0x12 PUSH1 0x20 MSTORE PUSH1 0x40 DUP2 KECCAK256 PUSH1 0xD DUP1 SLOAD DUP4 SWAP2 SWAP1 DUP6 SWAP1 DUP2 LT PUSH2 0x230E JUMPI PUSH2 0x230E PUSH2 0x42E9 JUMP JUMPDEST PUSH0 SWAP2 DUP3 MSTORE PUSH1 0x20 DUP1 DUP4 KECCAK256 SWAP1 SWAP2 ADD SLOAD PUSH1 0x1 PUSH1 0x1 PUSH1 0xA0 SHL SUB AND DUP4 MSTORE DUP3 ADD SWAP3 SWAP1 SWAP3 MSTORE PUSH1 0x40 ADD SWAP1 KECCAK256 SSTORE PUSH1 0x1 ADD PUSH2 0x22D6 JUMP JUMPDEST POP PUSH2 0x2345 DUP6 DUP4 PUSH2 0x3501 JUMP JUMPDEST PUSH2 0x2379 PUSH1 0x1 PUSH1 0x1 PUSH1 0xA0 SHL SUB PUSH32 0x0 AND DUP7 DUP5 PUSH2 0x3535 JUMP JUMPDEST DUP5 PUSH1 0x1 PUSH1 0x1 PUSH1 0xA0 SHL SUB AND PUSH32 0xF7D69068585EAD05D609F5965C9147570964EA979546EE5B072F31B7C31A6EE5 DUP4 PUSH1 0x40 MLOAD PUSH2 0x23B4 SWAP2 DUP2 MSTORE PUSH1 0x20 ADD SWAP1 JUMP JUMPDEST PUSH1 0x40 MLOAD DUP1 SWAP2 SUB SWAP1 LOG2 POP JUMPDEST PUSH1 0x40 MLOAD PUSH1 0x1 PUSH1 0x1 PUSH1 0xA0 SHL SUB DUP6 AND SWAP1 PUSH32 0x44D5FE68B00F68950FB9C1FF0A61EF7F747B1A36359A7E3A7F3324DB4B878967 SWAP1 PUSH0 SWAP1 LOG2 POP POP POP POP JUMP JUMPDEST PUSH32 0x65D7A28E3265B37A6474929F336521B332C1681B933F6CB9F3376673440D862A PUSH2 0x2421 DUP2 PUSH2 0x30F8 JUMP JUMPDEST PUSH2 0x1750 PUSH2 0x3644 JUMP JUMPDEST PUSH0 DUP3 DUP2 MSTORE PUSH1 0x8 PUSH1 0x20 MSTORE PUSH1 0x40 DUP2 KECCAK256 PUSH2 0x1407 SWAP1 DUP4 PUSH2 0x3681 JUMP JUMPDEST PUSH0 SWAP2 DUP3 MSTORE PUSH1 0x7 PUSH1 0x20 SWAP1 DUP2 MSTORE PUSH1 0x40 DUP1 DUP5 KECCAK256 PUSH1 0x1 PUSH1 0x1 PUSH1 0xA0 SHL SUB SWAP4 SWAP1 SWAP4 AND DUP5 MSTORE SWAP2 SWAP1 MSTORE SWAP1 KECCAK256 SLOAD PUSH1 0xFF AND SWAP1 JUMP JUMPDEST PUSH1 0x60 PUSH1 0x4 DUP1 SLOAD PUSH2 0xFD1 SWAP1 PUSH2 0x42FD JUMP JUMPDEST PUSH1 0xD SLOAD PUSH1 0x60 SWAP1 DUP2 SWAP1 PUSH8 0xFFFFFFFFFFFFFFFF DUP2 GT ISZERO PUSH2 0x2499 JUMPI PUSH2 0x2499 PUSH2 0x445A JUMP JUMPDEST PUSH1 0x40 MLOAD SWAP1 DUP1 DUP3 MSTORE DUP1 PUSH1 0x20 MUL PUSH1 0x20 ADD DUP3 ADD PUSH1 0x40 MSTORE DUP1 ISZERO PUSH2 0x24C2 JUMPI DUP2 PUSH1 0x20 ADD PUSH1 0x20 DUP3 MUL DUP1 CALLDATASIZE DUP4 CALLDATACOPY ADD SWAP1 POP JUMPDEST POP PUSH1 0xD SLOAD SWAP1 SWAP3 POP PUSH8 0xFFFFFFFFFFFFFFFF DUP2 GT ISZERO PUSH2 0x24E1 JUMPI PUSH2 0x24E1 PUSH2 0x445A JUMP JUMPDEST PUSH1 0x40 MLOAD SWAP1 DUP1 DUP3 MSTORE DUP1 PUSH1 0x20 MUL PUSH1 0x20 ADD DUP3 ADD PUSH1 0x40 MSTORE DUP1 ISZERO PUSH2 0x250A JUMPI DUP2 PUSH1 0x20 ADD PUSH1 0x20 DUP3 MUL DUP1 CALLDATASIZE DUP4 CALLDATACOPY ADD SWAP1 POP JUMPDEST POP SWAP1 POP PUSH0 JUMPDEST PUSH1 0xD SLOAD DUP2 LT ISZERO PUSH2 0x25B5 JUMPI PUSH1 0xD DUP2 DUP2 SLOAD DUP2 LT PUSH2 0x252C JUMPI PUSH2 0x252C PUSH2 0x42E9 JUMP JUMPDEST SWAP1 PUSH0 MSTORE PUSH1 0x20 PUSH0 KECCAK256 ADD PUSH0 SWAP1 SLOAD SWAP1 PUSH2 0x100 EXP SWAP1 DIV PUSH1 0x1 PUSH1 0x1 PUSH1 0xA0 SHL SUB AND DUP4 DUP3 DUP2 MLOAD DUP2 LT PUSH2 0x2559 JUMPI PUSH2 0x2559 PUSH2 0x42E9 JUMP JUMPDEST PUSH1 0x20 MUL PUSH1 0x20 ADD ADD SWAP1 PUSH1 0x1 PUSH1 0x1 PUSH1 0xA0 SHL SUB AND SWAP1 DUP2 PUSH1 0x1 PUSH1 0x1 PUSH1 0xA0 SHL SUB AND DUP2 MSTORE POP POP PUSH2 0x2590 DUP5 PUSH1 0xD DUP4 DUP2 SLOAD DUP2 LT PUSH2 0xEDE JUMPI PUSH2 0xEDE PUSH2 0x42E9 JUMP JUMPDEST DUP3 DUP3 DUP2 MLOAD DUP2 LT PUSH2 0x25A2 JUMPI PUSH2 0x25A2 PUSH2 0x42E9 JUMP JUMPDEST PUSH1 0x20 SWAP1 DUP2 MUL SWAP2 SWAP1 SWAP2 ADD ADD MSTORE PUSH1 0x1 ADD PUSH2 0x250F JUMP JUMPDEST POP SWAP2 POP SWAP2 JUMP JUMPDEST PUSH0 DUP2 DUP2 MSTORE PUSH1 0x8 PUSH1 0x20 MSTORE PUSH1 0x40 SWAP1 KECCAK256 PUSH1 0x60 SWAP1 PUSH2 0xEF7 SWAP1 PUSH2 0x368C JUMP JUMPDEST PUSH2 0x25DC PUSH2 0x310F JUMP JUMPDEST CALLER PUSH0 JUMPDEST PUSH1 0xD SLOAD DUP2 LT ISZERO PUSH2 0x263F JUMPI PUSH0 PUSH1 0xD DUP3 DUP2 SLOAD DUP2 LT PUSH2 0x25FD JUMPI PUSH2 0x25FD PUSH2 0x42E9 JUMP JUMPDEST PUSH0 SWAP2 DUP3 MSTORE PUSH1 0x20 DUP1 DUP4 KECCAK256 SWAP1 SWAP2 ADD SLOAD PUSH1 0x1 PUSH1 0x1 PUSH1 0xA0 SHL SUB AND DUP1 DUP4 MSTORE PUSH1 0xC SWAP1 SWAP2 MSTORE PUSH1 0x40 SWAP1 SWAP2 KECCAK256 SLOAD SWAP1 SWAP2 POP PUSH1 0xFF AND ISZERO PUSH2 0x2636 JUMPI PUSH2 0x2636 DUP2 DUP5 PUSH2 0x3139 JUMP JUMPDEST POP PUSH1 0x1 ADD PUSH2 0x25DF JUMP JUMPDEST POP PUSH2 0x2648 PUSH2 0x3232 JUMP JUMPDEST CALLER PUSH0 SWAP1 DUP2 MSTORE PUSH1 0x13 PUSH1 0x20 MSTORE PUSH1 0x40 SWAP1 KECCAK256 SLOAD PUSH1 0xFF AND ISZERO PUSH2 0x267A JUMPI CALLER PUSH1 0x40 MLOAD PUSH4 0xE34017E1 PUSH1 0xE0 SHL DUP2 MSTORE PUSH1 0x4 ADD PUSH2 0xF7C SWAP2 SWAP1 PUSH2 0x435C JUMP JUMPDEST PUSH2 0x2687 CALLER DUP4 PUSH1 0x9 SLOAD PUSH2 0x3256 JUMP JUMPDEST POP PUSH2 0x1750 PUSH1 0x1 PUSH1 0x6 SSTORE JUMP JUMPDEST PUSH0 MLOAD PUSH1 0x20 PUSH2 0x446F PUSH0 CODECOPY PUSH0 MLOAD SWAP1 PUSH0 MSTORE PUSH2 0x26A9 DUP2 PUSH2 0x30F8 JUMP JUMPDEST DUP4 PUSH0 PUSH2 0x26B5 DUP3 DUP3 PUSH2 0x3139 JUMP JUMPDEST PUSH1 0x1 PUSH1 0x1 PUSH1 0xA0 SHL SUB DUP7 AND PUSH0 SWAP1 DUP2 MSTORE PUSH1 0xC PUSH1 0x20 MSTORE PUSH1 0x40 SWAP1 KECCAK256 SLOAD PUSH1 0xFF AND PUSH2 0x26F8 JUMPI PUSH1 0x40 MLOAD PUSH4 0x751DFF97 PUSH1 0xE1 SHL DUP2 MSTORE PUSH1 0x1 PUSH1 0x1 PUSH1 0xA0 SHL SUB DUP8 AND PUSH1 0x4 DUP3 ADD MSTORE PUSH1 0x24 ADD PUSH2 0xF7C JUMP JUMPDEST PUSH0 DUP6 GT PUSH2 0x2747 JUMPI PUSH1 0x40 MLOAD PUSH3 0x461BCD PUSH1 0xE5 SHL DUP2 MSTORE PUSH1 0x20 PUSH1 0x4 DUP3 ADD MSTORE PUSH1 0x17 PUSH1 0x24 DUP3 ADD MSTORE PUSH32 0x43616E6E6F7420737570706C7920302072657761726473000000000000000000 PUSH1 0x44 DUP3 ADD MSTORE PUSH1 0x64 ADD PUSH2 0xF7C JUMP JUMPDEST PUSH0 DUP5 GT PUSH2 0x2796 JUMPI PUSH1 0x40 MLOAD PUSH3 0x461BCD PUSH1 0xE5 SHL DUP2 MSTORE PUSH1 0x20 PUSH1 0x4 DUP3 ADD MSTORE PUSH1 0x1F PUSH1 0x24 DUP3 ADD MSTORE PUSH32 0x4475726174696F6E206D7573742062652067726561746572207468616E203000 PUSH1 0x44 DUP3 ADD MSTORE PUSH1 0x64 ADD PUSH2 0xF7C JUMP JUMPDEST PUSH2 0x27CB PUSH1 0x1 PUSH1 0x1 PUSH1 0xA0 SHL SUB DUP8 AND CALLER PUSH32 0x0 DUP9 PUSH2 0x3698 JUMP JUMPDEST PUSH1 0x1 PUSH1 0x1 PUSH1 0xA0 SHL SUB DUP7 AND PUSH0 SWAP1 DUP2 MSTORE PUSH1 0xE PUSH1 0x20 MSTORE PUSH1 0x40 SWAP1 DUP2 SWAP1 KECCAK256 DUP2 MLOAD PUSH1 0xC0 DUP2 ADD SWAP1 SWAP3 MSTORE SWAP1 DUP1 PUSH2 0x27F9 DUP8 DUP10 PUSH2 0x43EB JUMP JUMPDEST DUP2 MSTORE PUSH1 0x20 ADD TIMESTAMP DUP2 MSTORE PUSH1 0x20 ADD DUP7 TIMESTAMP PUSH2 0x2810 SWAP2 SWAP1 PUSH2 0x4349 JUMP JUMPDEST DUP2 MSTORE PUSH1 0x20 DUP1 DUP3 ADD DUP10 SWAP1 MSTORE PUSH0 PUSH1 0x40 DUP1 DUP5 ADD DUP3 SWAP1 MSTORE PUSH1 0x60 SWAP4 DUP5 ADD DUP3 SWAP1 MSTORE DUP6 SLOAD PUSH1 0x1 DUP2 DUP2 ADD DUP9 SSTORE SWAP7 DUP4 MSTORE SWAP2 DUP4 SWAP1 KECCAK256 DUP6 MLOAD PUSH1 0x6 SWAP1 SWAP4 MUL ADD SWAP2 DUP3 SSTORE SWAP2 DUP5 ADD MLOAD SWAP5 DUP2 ADD SWAP5 SWAP1 SWAP5 SSTORE DUP3 ADD MLOAD PUSH1 0x2 DUP5 ADD SSTORE DUP2 ADD MLOAD PUSH1 0x3 DUP4 ADD SSTORE PUSH1 0x80 DUP2 ADD MLOAD PUSH1 0x4 DUP4 ADD SSTORE PUSH1 0xA0 ADD MLOAD PUSH1 0x5 SWAP1 SWAP2 ADD SSTORE PUSH1 0x1 PUSH1 0x1 PUSH1 0xA0 SHL SUB DUP7 AND PUSH32 0x727302BECD070529B3293F4EC8F553D9F6AE1773F638598DB1205FBF8908083 DUP7 DUP7 PUSH2 0x28AC DUP2 DUP4 PUSH2 0x43EB JUMP JUMPDEST PUSH1 0x40 DUP1 MLOAD SWAP4 DUP5 MSTORE PUSH1 0x20 DUP5 ADD SWAP3 SWAP1 SWAP3 MSTORE SWAP1 DUP3 ADD MSTORE PUSH1 0x60 ADD PUSH1 0x40 MLOAD DUP1 SWAP2 SUB SWAP1 LOG2 POP POP POP POP POP POP JUMP JUMPDEST PUSH0 CALLER PUSH2 0x105F DUP2 DUP6 DUP6 PUSH2 0x34A4 JUMP JUMPDEST PUSH0 MLOAD PUSH1 0x20 PUSH2 0x446F PUSH0 CODECOPY PUSH0 MLOAD SWAP1 PUSH0 MSTORE PUSH2 0x28F6 DUP2 PUSH2 0x30F8 JUMP JUMPDEST PUSH1 0x40 MLOAD PUSH4 0x23B872DD PUSH1 0xE0 SHL DUP2 MSTORE DUP5 SWAP1 PUSH1 0x1 PUSH1 0x1 PUSH1 0xA0 SHL SUB DUP3 AND SWAP1 PUSH4 0x23B872DD SWAP1 PUSH2 0x2928 SWAP1 ADDRESS SWAP1 DUP9 SWAP1 DUP9 SWAP1 PUSH1 0x4 ADD PUSH2 0x4436 JUMP JUMPDEST PUSH0 PUSH1 0x40 MLOAD DUP1 DUP4 SUB DUP2 PUSH0 DUP8 DUP1 EXTCODESIZE ISZERO DUP1 ISZERO PUSH2 0x293F JUMPI PUSH0 PUSH0 REVERT JUMPDEST POP GAS CALL ISZERO DUP1 ISZERO PUSH2 0x2951 JUMPI RETURNDATASIZE PUSH0 PUSH0 RETURNDATACOPY RETURNDATASIZE PUSH0 REVERT JUMPDEST POP POP POP POP DUP4 PUSH1 0x1 PUSH1 0x1 PUSH1 0xA0 SHL SUB AND DUP6 PUSH1 0x1 PUSH1 0x1 PUSH1 0xA0 SHL SUB AND CALLER PUSH1 0x1 PUSH1 0x1 PUSH1 0xA0 SHL SUB AND PUSH32 0x4744BB01C1AB0B5B28A5D0006A4318240B4E4243C572309D6814313EA8E05549 DUP7 PUSH1 0x40 MLOAD PUSH2 0x29A4 SWAP2 DUP2 MSTORE PUSH1 0x20 ADD SWAP1 JUMP JUMPDEST PUSH1 0x40 MLOAD DUP1 SWAP2 SUB SWAP1 LOG4 POP POP POP POP POP JUMP JUMPDEST PUSH1 0xE PUSH1 0x20 MSTORE DUP2 PUSH0 MSTORE PUSH1 0x40 PUSH0 KECCAK256 DUP2 DUP2 SLOAD DUP2 LT PUSH2 0x29CC JUMPI PUSH0 DUP1 REVERT JUMPDEST PUSH0 SWAP2 DUP3 MSTORE PUSH1 0x20 SWAP1 SWAP2 KECCAK256 PUSH1 0x6 SWAP1 SWAP2 MUL ADD DUP1 SLOAD PUSH1 0x1 DUP3 ADD SLOAD PUSH1 0x2 DUP4 ADD SLOAD PUSH1 0x3 DUP5 ADD SLOAD PUSH1 0x4 DUP6 ADD SLOAD PUSH1 0x5 SWAP1 SWAP6 ADD SLOAD SWAP4 SWAP7 POP SWAP2 SWAP5 POP SWAP3 SWAP1 SWAP2 DUP7 JUMP JUMPDEST PUSH1 0x16 PUSH1 0x20 MSTORE DUP2 PUSH0 MSTORE PUSH1 0x40 PUSH0 KECCAK256 DUP2 DUP2 SLOAD DUP2 LT PUSH2 0x2A1C JUMPI PUSH0 DUP1 REVERT JUMPDEST PUSH0 SWAP2 DUP3 MSTORE PUSH1 0x20 SWAP1 SWAP2 KECCAK256 PUSH1 0x3 SWAP1 SWAP2 MUL ADD DUP1 SLOAD PUSH1 0x1 DUP3 ADD SLOAD PUSH1 0x2 SWAP1 SWAP3 ADD SLOAD SWAP1 SWAP4 POP SWAP1 SWAP2 POP PUSH1 0xFF AND DUP4 JUMP JUMPDEST PUSH1 0x1 PUSH1 0x1 PUSH1 0xA0 SHL SUB DUP2 AND PUSH0 SWAP1 DUP2 MSTORE PUSH1 0x16 PUSH1 0x20 MSTORE PUSH1 0x40 DUP2 KECCAK256 DUP2 SWAP1 DUP2 JUMPDEST DUP2 SLOAD DUP2 LT ISZERO PUSH2 0x111F JUMPI DUP2 DUP2 DUP2 SLOAD DUP2 LT PUSH2 0x2A7A JUMPI PUSH2 0x2A7A PUSH2 0x42E9 JUMP JUMPDEST PUSH0 SWAP2 DUP3 MSTORE PUSH1 0x20 SWAP1 SWAP2 KECCAK256 PUSH1 0x2 PUSH1 0x3 SWAP1 SWAP3 MUL ADD ADD SLOAD PUSH1 0xFF AND ISZERO DUP1 ISZERO PUSH2 0x2ABD JUMPI POP DUP2 DUP2 DUP2 SLOAD DUP2 LT PUSH2 0x2AAA JUMPI PUSH2 0x2AAA PUSH2 0x42E9 JUMP JUMPDEST SWAP1 PUSH0 MSTORE PUSH1 0x20 PUSH0 KECCAK256 SWAP1 PUSH1 0x3 MUL ADD PUSH1 0x1 ADD SLOAD TIMESTAMP LT JUMPDEST ISZERO PUSH2 0x2AF1 JUMPI DUP2 DUP2 DUP2 SLOAD DUP2 LT PUSH2 0x2AD4 JUMPI PUSH2 0x2AD4 PUSH2 0x42E9 JUMP JUMPDEST SWAP1 PUSH0 MSTORE PUSH1 0x20 PUSH0 KECCAK256 SWAP1 PUSH1 0x3 MUL ADD PUSH0 ADD SLOAD DUP4 PUSH2 0x2AEE SWAP2 SWAP1 PUSH2 0x4349 JUMP JUMPDEST SWAP3 POP JUMPDEST PUSH1 0x1 ADD PUSH2 0x2A5F JUMP JUMPDEST PUSH0 DUP2 DUP2 MSTORE PUSH1 0x8 PUSH1 0x20 MSTORE PUSH1 0x40 DUP2 KECCAK256 PUSH2 0xEF7 SWAP1 PUSH2 0x36C0 JUMP JUMPDEST PUSH2 0x2B17 PUSH2 0x310F JUMP JUMPDEST DUP1 CALLER PUSH2 0x2B23 DUP3 DUP3 PUSH2 0x3139 JUMP JUMPDEST PUSH2 0x2B2B PUSH2 0x3232 JUMP JUMPDEST CALLER PUSH0 SWAP1 DUP2 MSTORE PUSH1 0x13 PUSH1 0x20 MSTORE PUSH1 0x40 SWAP1 KECCAK256 SLOAD PUSH1 0xFF AND ISZERO PUSH2 0x2B5D JUMPI CALLER PUSH1 0x40 MLOAD PUSH4 0xE34017E1 PUSH1 0xE0 SHL DUP2 MSTORE PUSH1 0x4 ADD PUSH2 0xF7C SWAP2 SWAP1 PUSH2 0x435C JUMP JUMPDEST PUSH1 0xA SLOAD CALLVALUE LT ISZERO PUSH2 0x2BA8 JUMPI PUSH1 0x40 MLOAD PUSH3 0x461BCD PUSH1 0xE5 SHL DUP2 MSTORE PUSH1 0x20 PUSH1 0x4 DUP3 ADD MSTORE PUSH1 0x16 PUSH1 0x24 DUP3 ADD MSTORE PUSH22 0x496E73756666696369656E7420636C61696D20666565 PUSH1 0x50 SHL PUSH1 0x44 DUP3 ADD MSTORE PUSH1 0x64 ADD PUSH2 0xF7C JUMP JUMPDEST CALLER PUSH0 SWAP1 DUP2 MSTORE PUSH1 0x12 PUSH1 0x20 SWAP1 DUP2 MSTORE PUSH1 0x40 DUP1 DUP4 KECCAK256 PUSH1 0x1 PUSH1 0x1 PUSH1 0xA0 SHL SUB DUP8 AND DUP5 MSTORE SWAP1 SWAP2 MSTORE SWAP1 KECCAK256 SLOAD DUP1 ISZERO PUSH2 0x2CAE JUMPI CALLER PUSH0 DUP2 DUP2 MSTORE PUSH1 0x12 PUSH1 0x20 SWAP1 DUP2 MSTORE PUSH1 0x40 DUP1 DUP4 KECCAK256 PUSH1 0x1 PUSH1 0x1 PUSH1 0xA0 SHL SUB DUP10 DUP2 AND DUP6 MSTORE SWAP3 MSTORE DUP1 DUP4 KECCAK256 SWAP3 SWAP1 SWAP3 SSTORE SWAP1 MLOAD PUSH4 0xCD8515CF PUSH1 0xE0 SHL DUP2 MSTORE PUSH32 0x0 SWAP1 SWAP2 AND SWAP2 PUSH4 0xCD8515CF SWAP2 PUSH2 0x2C40 SWAP2 SWAP1 DUP9 SWAP1 DUP7 SWAP1 PUSH1 0x4 ADD PUSH2 0x4436 JUMP JUMPDEST PUSH0 PUSH1 0x40 MLOAD DUP1 DUP4 SUB DUP2 PUSH0 DUP8 DUP1 EXTCODESIZE ISZERO DUP1 ISZERO PUSH2 0x2C57 JUMPI PUSH0 PUSH0 REVERT JUMPDEST POP GAS CALL ISZERO DUP1 ISZERO PUSH2 0x2C69 JUMPI RETURNDATASIZE PUSH0 PUSH0 RETURNDATACOPY RETURNDATASIZE PUSH0 REVERT JUMPDEST POP POP PUSH1 0x40 MLOAD DUP4 DUP2 MSTORE PUSH1 0x1 PUSH1 0x1 PUSH1 0xA0 SHL SUB DUP8 AND SWAP3 POP CALLER SWAP2 POP PUSH32 0x540798DF468D7B23D11F156FDB954CB19AD414D150722A7B6D55BA369DEA792E SWAP1 PUSH1 0x20 ADD PUSH1 0x40 MLOAD DUP1 SWAP2 SUB SWAP1 LOG3 JUMPDEST CALLVALUE ISZERO PUSH2 0x2CEC JUMPI PUSH1 0xB SLOAD PUSH1 0x40 MLOAD PUSH1 0x1 PUSH1 0x1 PUSH1 0xA0 SHL SUB SWAP1 SWAP2 AND SWAP1 CALLVALUE DUP1 ISZERO PUSH2 0x8FC MUL SWAP2 PUSH0 DUP2 DUP2 DUP2 DUP6 DUP9 DUP9 CALL SWAP4 POP POP POP POP ISZERO DUP1 ISZERO PUSH2 0x2CEA JUMPI RETURNDATASIZE PUSH0 PUSH0 RETURNDATACOPY RETURNDATASIZE PUSH0 REVERT JUMPDEST POP JUMPDEST POP POP POP PUSH2 0x1750 PUSH1 0x1 PUSH1 0x6 SSTORE JUMP JUMPDEST PUSH0 DUP3 DUP2 MSTORE PUSH1 0x7 PUSH1 0x20 MSTORE PUSH1 0x40 SWAP1 KECCAK256 PUSH1 0x1 ADD SLOAD PUSH2 0x2D13 DUP2 PUSH2 0x30F8 JUMP JUMPDEST PUSH2 0x1843 DUP4 DUP4 PUSH2 0x35C7 JUMP JUMPDEST PUSH0 MLOAD PUSH1 0x20 PUSH2 0x446F PUSH0 CODECOPY PUSH0 MLOAD SWAP1 PUSH0 MSTORE PUSH2 0x2D34 DUP2 PUSH2 0x30F8 JUMP JUMPDEST PUSH1 0x40 MLOAD PUSH1 0x1 PUSH1 0x1 PUSH1 0xA0 SHL SUB DUP5 AND SWAP1 DUP4 ISZERO PUSH2 0x8FC MUL SWAP1 DUP5 SWAP1 PUSH0 DUP2 DUP2 DUP2 DUP6 DUP9 DUP9 CALL SWAP4 POP POP POP POP ISZERO DUP1 ISZERO PUSH2 0x2D67 JUMPI RETURNDATASIZE PUSH0 PUSH0 RETURNDATACOPY RETURNDATASIZE PUSH0 REVERT JUMPDEST POP PUSH1 0x40 MLOAD DUP3 DUP2 MSTORE PUSH1 0x1 PUSH1 0x1 PUSH1 0xA0 SHL SUB DUP5 AND SWAP1 CALLER SWAP1 PUSH32 0x51A3AEF945B229F9F13F9C7411484FE8436ED204499A994908F9B913103928BA SWAP1 PUSH1 0x20 ADD JUMPDEST PUSH1 0x40 MLOAD DUP1 SWAP2 SUB SWAP1 LOG3 POP POP POP JUMP JUMPDEST PUSH1 0x60 PUSH1 0xD DUP1 SLOAD DUP1 PUSH1 0x20 MUL PUSH1 0x20 ADD PUSH1 0x40 MLOAD SWAP1 DUP2 ADD PUSH1 0x40 MSTORE DUP1 SWAP3 SWAP2 SWAP1 DUP2 DUP2 MSTORE PUSH1 0x20 ADD DUP3 DUP1 SLOAD DUP1 ISZERO PUSH2 0x1048 JUMPI PUSH1 0x20 MUL DUP3 ADD SWAP2 SWAP1 PUSH0 MSTORE PUSH1 0x20 PUSH0 KECCAK256 SWAP1 JUMPDEST DUP2 SLOAD PUSH1 0x1 PUSH1 0x1 PUSH1 0xA0 SHL SUB AND DUP2 MSTORE PUSH1 0x1 SWAP1 SWAP2 ADD SWAP1 PUSH1 0x20 ADD DUP1 DUP4 GT PUSH2 0x2DE6 JUMPI POP POP POP POP POP SWAP1 POP SWAP1 JUMP JUMPDEST PUSH1 0x1 PUSH1 0x1 PUSH1 0xA0 SHL SUB DUP2 AND PUSH0 SWAP1 DUP2 MSTORE PUSH1 0x16 PUSH1 0x20 SWAP1 DUP2 MSTORE PUSH1 0x40 DUP1 DUP4 KECCAK256 DUP1 SLOAD DUP3 MLOAD DUP2 DUP6 MUL DUP2 ADD DUP6 ADD SWAP1 SWAP4 MSTORE DUP1 DUP4 MSTORE PUSH1 0x60 SWAP5 SWAP3 SWAP4 SWAP2 SWAP3 SWAP1 SWAP2 DUP5 ADD JUMPDEST DUP3 DUP3 LT ISZERO PUSH2 0x214D JUMPI PUSH0 DUP5 DUP2 MSTORE PUSH1 0x20 SWAP1 DUP2 SWAP1 KECCAK256 PUSH1 0x40 DUP1 MLOAD PUSH1 0x60 DUP2 ADD DUP3 MSTORE PUSH1 0x3 DUP7 MUL SWAP1 SWAP3 ADD DUP1 SLOAD DUP4 MSTORE PUSH1 0x1 DUP1 DUP3 ADD SLOAD DUP5 DUP7 ADD MSTORE PUSH1 0x2 SWAP1 SWAP2 ADD SLOAD PUSH1 0xFF AND ISZERO ISZERO SWAP2 DUP4 ADD SWAP2 SWAP1 SWAP2 MSTORE SWAP1 DUP4 MSTORE SWAP1 SWAP3 ADD SWAP2 ADD PUSH2 0x2E44 JUMP JUMPDEST PUSH2 0x2E9C PUSH2 0x3232 JUMP JUMPDEST CALLER PUSH0 SWAP1 DUP2 MSTORE PUSH1 0x13 PUSH1 0x20 MSTORE PUSH1 0x40 SWAP1 KECCAK256 SLOAD PUSH1 0xFF AND ISZERO PUSH2 0x2ECE JUMPI CALLER PUSH1 0x40 MLOAD PUSH4 0xE34017E1 PUSH1 0xE0 SHL DUP2 MSTORE PUSH1 0x4 ADD PUSH2 0xF7C SWAP2 SWAP1 PUSH2 0x435C JUMP JUMPDEST PUSH0 PUSH2 0x2ED8 CALLER PUSH2 0x1069 JUMP JUMPDEST SWAP1 POP DUP1 ISZERO PUSH2 0x1750 JUMPI PUSH2 0x1750 DUP2 PUSH2 0x1431 JUMP JUMPDEST PUSH1 0x1 PUSH1 0x1 PUSH1 0xA0 SHL SUB DUP2 AND PUSH0 SWAP1 DUP2 MSTORE PUSH1 0xE PUSH1 0x20 MSTORE PUSH1 0x40 DUP2 KECCAK256 DUP2 SWAP1 DUP2 JUMPDEST DUP2 SLOAD DUP2 LT ISZERO PUSH2 0x111F JUMPI DUP2 DUP2 DUP2 SLOAD DUP2 LT PUSH2 0x2F1F JUMPI PUSH2 0x2F1F PUSH2 0x42E9 JUMP JUMPDEST SWAP1 PUSH0 MSTORE PUSH1 0x20 PUSH0 KECCAK256 SWAP1 PUSH1 0x6 MUL ADD PUSH1 0x1 ADD SLOAD TIMESTAMP LT ISZERO DUP1 ISZERO PUSH2 0x2F5E JUMPI POP DUP2 DUP2 DUP2 SLOAD DUP2 LT PUSH2 0x2F4B JUMPI PUSH2 0x2F4B PUSH2 0x42E9 JUMP JUMPDEST SWAP1 PUSH0 MSTORE PUSH1 0x20 PUSH0 KECCAK256 SWAP1 PUSH1 0x6 MUL ADD PUSH1 0x2 ADD SLOAD TIMESTAMP LT JUMPDEST ISZERO PUSH2 0x2F92 JUMPI DUP2 DUP2 DUP2 SLOAD DUP2 LT PUSH2 0x2F75 JUMPI PUSH2 0x2F75 PUSH2 0x42E9 JUMP JUMPDEST SWAP1 PUSH0 MSTORE PUSH1 0x20 PUSH0 KECCAK256 SWAP1 PUSH1 0x6 MUL ADD PUSH0 ADD SLOAD DUP4 PUSH2 0x2F8F SWAP2 SWAP1 PUSH2 0x4349 JUMP JUMPDEST SWAP3 POP JUMPDEST PUSH1 0x1 ADD PUSH2 0x2F04 JUMP JUMPDEST PUSH0 MLOAD PUSH1 0x20 PUSH2 0x446F PUSH0 CODECOPY PUSH0 MLOAD SWAP1 PUSH0 MSTORE PUSH2 0x2FB1 DUP2 PUSH2 0x30F8 JUMP JUMPDEST PUSH1 0x1 PUSH1 0x1 PUSH1 0xA0 SHL SUB DUP3 AND PUSH2 0x2FF9 JUMPI PUSH1 0x40 MLOAD PUSH3 0x461BCD PUSH1 0xE5 SHL DUP2 MSTORE PUSH1 0x20 PUSH1 0x4 DUP3 ADD MSTORE PUSH1 0xF PUSH1 0x24 DUP3 ADD MSTORE PUSH15 0x496E76616C69642061646472657373 PUSH1 0x88 SHL PUSH1 0x44 DUP3 ADD MSTORE PUSH1 0x64 ADD PUSH2 0xF7C JUMP JUMPDEST PUSH1 0xB DUP1 SLOAD PUSH1 0x1 PUSH1 0x1 PUSH1 0xA0 SHL SUB NOT AND PUSH1 0x1 PUSH1 0x1 PUSH1 0xA0 SHL SUB DUP5 AND SWAP1 DUP2 OR SWAP1 SWAP2 SSTORE PUSH1 0x40 MLOAD PUSH32 0xBDF37C276F641820B141429D245ADD2552B4118C0866E5A78638E3DE5EF18D9D SWAP1 PUSH0 SWAP1 LOG2 POP POP JUMP JUMPDEST PUSH0 PUSH2 0x304D PUSH1 0x2 SLOAD SWAP1 JUMP JUMPDEST PUSH0 SUB PUSH2 0x306E JUMPI POP PUSH1 0x1 PUSH1 0x1 PUSH1 0xA0 SHL SUB AND PUSH0 SWAP1 DUP2 MSTORE PUSH1 0x10 PUSH1 0x20 MSTORE PUSH1 0x40 SWAP1 KECCAK256 SLOAD SWAP1 JUMP JUMPDEST PUSH0 PUSH2 0x3078 DUP4 PUSH2 0x2EE9 JUMP JUMPDEST PUSH1 0x1 PUSH1 0x1 PUSH1 0xA0 SHL SUB DUP5 AND PUSH0 SWAP1 DUP2 MSTORE PUSH1 0xF PUSH1 0x20 MSTORE PUSH1 0x40 DUP2 KECCAK256 SLOAD SWAP2 SWAP3 POP SWAP1 PUSH2 0x309E SWAP1 TIMESTAMP PUSH2 0x43D8 JUMP JUMPDEST SWAP1 POP PUSH2 0x30AA DUP3 DUP3 PUSH2 0x43C1 JUMP JUMPDEST PUSH1 0x1 PUSH1 0x1 PUSH1 0xA0 SHL SUB DUP6 AND PUSH0 SWAP1 DUP2 MSTORE PUSH1 0x10 PUSH1 0x20 MSTORE PUSH1 0x40 SWAP1 KECCAK256 SLOAD PUSH2 0x30CC SWAP2 SWAP1 PUSH2 0x4349 JUMP JUMPDEST SWAP5 SWAP4 POP POP POP POP JUMP JUMPDEST PUSH0 PUSH1 0x1 PUSH1 0x1 PUSH1 0xE0 SHL SUB NOT DUP3 AND PUSH4 0x5A05180F PUSH1 0xE0 SHL EQ DUP1 PUSH2 0xEF7 JUMPI POP PUSH2 0xEF7 DUP3 PUSH2 0x36C9 JUMP JUMPDEST PUSH2 0x1750 DUP2 CALLER PUSH2 0x36FD JUMP JUMPDEST PUSH2 0x187C DUP4 DUP4 DUP4 PUSH1 0x1 PUSH2 0x3736 JUMP JUMPDEST PUSH1 0x2 PUSH1 0x6 SLOAD SUB PUSH2 0x3132 JUMPI PUSH1 0x40 MLOAD PUSH4 0x3EE5AEB5 PUSH1 0xE0 SHL DUP2 MSTORE PUSH1 0x4 ADD PUSH1 0x40 MLOAD DUP1 SWAP2 SUB SWAP1 REVERT JUMPDEST PUSH1 0x2 PUSH1 0x6 SSTORE JUMP JUMPDEST PUSH2 0x3141 PUSH2 0x3808 JUMP JUMPDEST PUSH0 PUSH2 0x314B PUSH1 0x2 SLOAD SWAP1 JUMP JUMPDEST GT ISZERO PUSH2 0x31BC JUMPI PUSH0 PUSH2 0x315B DUP4 PUSH2 0x2EE9 JUMP JUMPDEST PUSH1 0x1 PUSH1 0x1 PUSH1 0xA0 SHL SUB DUP5 AND PUSH0 SWAP1 DUP2 MSTORE PUSH1 0xF PUSH1 0x20 MSTORE PUSH1 0x40 DUP2 KECCAK256 SLOAD SWAP2 SWAP3 POP SWAP1 PUSH2 0x3181 SWAP1 TIMESTAMP PUSH2 0x43D8 JUMP JUMPDEST SWAP1 POP PUSH2 0x318D DUP3 DUP3 PUSH2 0x43C1 JUMP JUMPDEST PUSH1 0x1 PUSH1 0x1 PUSH1 0xA0 SHL SUB DUP6 AND PUSH0 SWAP1 DUP2 MSTORE PUSH1 0x10 PUSH1 0x20 MSTORE PUSH1 0x40 DUP2 KECCAK256 DUP1 SLOAD SWAP1 SWAP2 SWAP1 PUSH2 0x31B4 SWAP1 DUP5 SWAP1 PUSH2 0x4349 JUMP JUMPDEST SWAP1 SWAP2 SSTORE POP POP POP POP JUMPDEST PUSH1 0x1 PUSH1 0x1 PUSH1 0xA0 SHL SUB DUP1 DUP4 AND PUSH0 SWAP1 DUP2 MSTORE PUSH1 0xF PUSH1 0x20 MSTORE PUSH1 0x40 SWAP1 KECCAK256 TIMESTAMP SWAP1 SSTORE DUP2 AND ISZERO PUSH2 0x11E4 JUMPI PUSH2 0x31E8 DUP2 DUP4 PUSH2 0x1378 JUMP JUMPDEST PUSH1 0x1 PUSH1 0x1 PUSH1 0xA0 SHL SUB SWAP2 DUP3 AND PUSH0 DUP2 DUP2 MSTORE PUSH1 0x12 PUSH1 0x20 SWAP1 DUP2 MSTORE PUSH1 0x40 DUP1 DUP4 KECCAK256 SWAP7 SWAP1 SWAP6 AND DUP1 DUP4 MSTORE SWAP6 DUP2 MSTORE DUP5 DUP3 KECCAK256 SWAP4 SWAP1 SWAP4 SSTORE PUSH1 0x10 DUP4 MSTORE DUP4 DUP2 KECCAK256 SLOAD SWAP2 DUP2 MSTORE PUSH1 0x11 DUP4 MSTORE DUP4 DUP2 KECCAK256 SWAP5 DUP2 MSTORE SWAP4 SWAP1 SWAP2 MSTORE SWAP2 KECCAK256 SSTORE JUMP JUMPDEST PUSH1 0x5 SLOAD PUSH1 0xFF AND ISZERO PUSH2 0x1905 JUMPI PUSH1 0x40 MLOAD PUSH4 0xD93C0665 PUSH1 0xE0 SHL DUP2 MSTORE PUSH1 0x4 ADD PUSH1 0x40 MLOAD DUP1 SWAP2 SUB SWAP1 REVERT JUMPDEST PUSH0 DUP3 GT PUSH2 0x3296 JUMPI PUSH1 0x40 MLOAD PUSH3 0x461BCD PUSH1 0xE5 SHL DUP2 MSTORE PUSH1 0x20 PUSH1 0x4 DUP3 ADD MSTORE PUSH1 0xE PUSH1 0x24 DUP3 ADD MSTORE PUSH14 0x43616E6E6F74207374616B65203 PUSH1 0x94 SHL PUSH1 0x44 DUP3 ADD MSTORE PUSH1 0x64 ADD PUSH2 0xF7C JUMP JUMPDEST PUSH1 0x9 SLOAD DUP2 LT ISZERO PUSH2 0x32C7 JUMPI PUSH1 0x9 SLOAD PUSH1 0x40 MLOAD PUSH4 0x102313B1 PUSH1 0xE3 SHL DUP2 MSTORE PUSH2 0xF7C SWAP2 DUP4 SWAP2 PUSH1 0x4 ADD SWAP2 DUP3 MSTORE PUSH1 0x20 DUP3 ADD MSTORE PUSH1 0x40 ADD SWAP1 JUMP JUMPDEST PUSH2 0x32FC PUSH1 0x1 PUSH1 0x1 PUSH1 0xA0 SHL SUB PUSH32 0x0 AND DUP5 ADDRESS DUP6 PUSH2 0x3698 JUMP JUMPDEST PUSH2 0x3306 DUP4 DUP4 PUSH2 0x3A61 JUMP JUMPDEST PUSH1 0x1 PUSH1 0x1 PUSH1 0xA0 SHL SUB DUP4 AND PUSH0 SWAP1 DUP2 MSTORE PUSH1 0x16 PUSH1 0x20 SWAP1 DUP2 MSTORE PUSH1 0x40 SWAP2 DUP3 SWAP1 KECCAK256 DUP3 MLOAD PUSH1 0x60 DUP2 ADD SWAP1 SWAP4 MSTORE DUP5 DUP4 MSTORE SWAP2 SWAP1 DUP2 ADD PUSH2 0x333B DUP5 TIMESTAMP PUSH2 0x4349 JUMP JUMPDEST DUP2 MSTORE PUSH0 PUSH1 0x20 SWAP2 DUP3 ADD DUP2 SWAP1 MSTORE DUP4 SLOAD PUSH1 0x1 DUP1 DUP3 ADD DUP7 SSTORE SWAP5 DUP3 MSTORE DUP3 DUP3 KECCAK256 DUP5 MLOAD PUSH1 0x3 SWAP1 SWAP3 MUL ADD SWAP1 DUP2 SSTORE DUP4 DUP4 ADD MLOAD SWAP5 DUP2 ADD SWAP5 SWAP1 SWAP5 SSTORE PUSH1 0x40 SWAP3 DUP4 ADD MLOAD PUSH1 0x2 SWAP1 SWAP5 ADD DUP1 SLOAD PUSH1 0xFF NOT AND SWAP5 ISZERO ISZERO SWAP5 SWAP1 SWAP5 OR SWAP1 SWAP4 SSTORE PUSH1 0x1 PUSH1 0x1 PUSH1 0xA0 SHL SUB DUP7 AND DUP4 MSTORE PUSH1 0x14 SWAP1 MSTORE DUP2 KECCAK256 DUP1 SLOAD DUP5 SWAP3 SWAP1 PUSH2 0x33A8 SWAP1 DUP5 SWAP1 PUSH2 0x4349 JUMP JUMPDEST SWAP1 SWAP2 SSTORE POP POP PUSH1 0x1 PUSH1 0x1 PUSH1 0xA0 SHL SUB DUP4 AND PUSH0 SWAP1 DUP2 MSTORE PUSH1 0x17 PUSH1 0x20 MSTORE PUSH1 0x40 DUP2 KECCAK256 DUP1 SLOAD SWAP2 PUSH2 0x33D0 DUP4 PUSH2 0x440A JUMP JUMPDEST SWAP1 SWAP2 SSTORE POP POP PUSH1 0x1 PUSH1 0x1 PUSH1 0xA0 SHL SUB DUP4 AND PUSH0 DUP2 DUP2 MSTORE PUSH1 0x15 PUSH1 0x20 SWAP1 DUP2 MSTORE PUSH1 0x40 SWAP2 DUP3 SWAP1 KECCAK256 TIMESTAMP SWAP1 SSTORE DUP2 MLOAD DUP6 DUP2 MSTORE SWAP1 DUP2 ADD DUP5 SWAP1 MSTORE PUSH32 0x1449C6DD7851ABC30ABF37F57715F492010519147CC2652FBC38202C18A6EE90 SWAP2 ADD PUSH1 0x40 MLOAD DUP1 SWAP2 SUB SWAP1 LOG2 POP POP POP JUMP JUMPDEST PUSH1 0x1 PUSH1 0x1 PUSH1 0xA0 SHL SUB DUP4 DUP2 AND PUSH0 SWAP1 DUP2 MSTORE PUSH1 0x1 PUSH1 0x20 SWAP1 DUP2 MSTORE PUSH1 0x40 DUP1 DUP4 KECCAK256 SWAP4 DUP7 AND DUP4 MSTORE SWAP3 SWAP1 MSTORE KECCAK256 SLOAD PUSH0 NOT DUP2 LT ISZERO PUSH2 0x1843 JUMPI DUP2 DUP2 LT ISZERO PUSH2 0x3496 JUMPI PUSH1 0x40 MLOAD PUSH4 0x7DC7A0D9 PUSH1 0xE1 SHL DUP2 MSTORE PUSH1 0x1 PUSH1 0x1 PUSH1 0xA0 SHL SUB DUP5 AND PUSH1 0x4 DUP3 ADD MSTORE PUSH1 0x24 DUP2 ADD DUP3 SWAP1 MSTORE PUSH1 0x44 DUP2 ADD DUP4 SWAP1 MSTORE PUSH1 0x64 ADD PUSH2 0xF7C JUMP JUMPDEST PUSH2 0x1843 DUP5 DUP5 DUP5 DUP5 SUB PUSH0 PUSH2 0x3736 JUMP JUMPDEST PUSH1 0x1 PUSH1 0x1 PUSH1 0xA0 SHL SUB DUP4 AND PUSH2 0x34CD JUMPI PUSH1 0x40 MLOAD PUSH4 0x4B637E8F PUSH1 0xE1 SHL DUP2 MSTORE PUSH0 PUSH1 0x4 DUP3 ADD MSTORE PUSH1 0x24 ADD PUSH2 0xF7C JUMP JUMPDEST PUSH1 0x1 PUSH1 0x1 PUSH1 0xA0 SHL SUB DUP3 AND PUSH2 0x34F6 JUMPI PUSH1 0x40 MLOAD PUSH4 0xEC442F05 PUSH1 0xE0 SHL DUP2 MSTORE PUSH0 PUSH1 0x4 DUP3 ADD MSTORE PUSH1 0x24 ADD PUSH2 0xF7C JUMP JUMPDEST PUSH2 0x187C DUP4 DUP4 DUP4 PUSH2 0x3A91 JUMP JUMPDEST PUSH1 0x1 PUSH1 0x1 PUSH1 0xA0 SHL SUB DUP3 AND PUSH2 0x352A JUMPI PUSH1 0x40 MLOAD PUSH4 0x4B637E8F PUSH1 0xE1 SHL DUP2 MSTORE PUSH0 PUSH1 0x4 DUP3 ADD MSTORE PUSH1 0x24 ADD PUSH2 0xF7C JUMP JUMPDEST PUSH2 0x11E4 DUP3 PUSH0 DUP4 PUSH2 0x3A91 JUMP JUMPDEST PUSH1 0x40 MLOAD PUSH1 0x1 PUSH1 0x1 PUSH1 0xA0 SHL SUB DUP4 DUP2 AND PUSH1 0x24 DUP4 ADD MSTORE PUSH1 0x44 DUP3 ADD DUP4 SWAP1 MSTORE PUSH2 0x187C SWAP2 DUP6 SWAP2 DUP3 AND SWAP1 PUSH4 0xA9059CBB SWAP1 PUSH1 0x64 ADD JUMPDEST PUSH1 0x40 MLOAD PUSH1 0x20 DUP2 DUP4 SUB SUB DUP2 MSTORE SWAP1 PUSH1 0x40 MSTORE SWAP2 POP PUSH1 0xE0 SHL PUSH1 0x20 DUP3 ADD DUP1 MLOAD PUSH1 0x1 PUSH1 0x1 PUSH1 0xE0 SHL SUB DUP4 DUP2 DUP4 AND OR DUP4 MSTORE POP POP POP POP PUSH2 0x3B09 JUMP JUMPDEST PUSH0 PUSH0 PUSH2 0x35A0 DUP5 DUP5 PUSH2 0x3B75 JUMP JUMPDEST SWAP1 POP DUP1 ISZERO PUSH2 0x1407 JUMPI PUSH0 DUP5 DUP2 MSTORE PUSH1 0x8 PUSH1 0x20 MSTORE PUSH1 0x40 SWAP1 KECCAK256 PUSH2 0x35BF SWAP1 DUP5 PUSH2 0x3C06 JUMP JUMPDEST POP SWAP4 SWAP3 POP POP POP JUMP JUMPDEST PUSH0 PUSH0 PUSH2 0x35D3 DUP5 DUP5 PUSH2 0x3C1A JUMP JUMPDEST SWAP1 POP DUP1 ISZERO PUSH2 0x1407 JUMPI PUSH0 DUP5 DUP2 MSTORE PUSH1 0x8 PUSH1 0x20 MSTORE PUSH1 0x40 SWAP1 KECCAK256 PUSH2 0x35BF SWAP1 DUP5 PUSH2 0x3C85 JUMP JUMPDEST PUSH2 0x35FA PUSH2 0x3C99 JUMP JUMPDEST PUSH1 0x5 DUP1 SLOAD PUSH1 0xFF NOT AND SWAP1 SSTORE PUSH32 0x5DB9EE0A495BF2E6FF9C91A7834C1BA4FDD244A5E8AA4E537BD38AEAE4B073AA CALLER JUMPDEST PUSH1 0x40 MLOAD PUSH1 0x1 PUSH1 0x1 PUSH1 0xA0 SHL SUB SWAP1 SWAP2 AND DUP2 MSTORE PUSH1 0x20 ADD PUSH1 0x40 MLOAD DUP1 SWAP2 SUB SWAP1 LOG1 JUMP JUMPDEST PUSH2 0x364C PUSH2 0x3232 JUMP JUMPDEST PUSH1 0x5 DUP1 SLOAD PUSH1 0xFF NOT AND PUSH1 0x1 OR SWAP1 SSTORE PUSH32 0x62E78CEA01BEE320CD4E420270B5EA74000D11B0C9F74754EBDBFC544B05A258 PUSH2 0x3627 CALLER SWAP1 JUMP JUMPDEST PUSH0 PUSH2 0x1407 DUP4 DUP4 PUSH2 0x3CBC JUMP JUMPDEST PUSH1 0x60 PUSH0 PUSH2 0x1407 DUP4 PUSH2 0x3CE2 JUMP JUMPDEST PUSH2 0x1843 DUP5 DUP6 PUSH1 0x1 PUSH1 0x1 PUSH1 0xA0 SHL SUB AND PUSH4 0x23B872DD DUP7 DUP7 DUP7 PUSH1 0x40 MLOAD PUSH1 0x24 ADD PUSH2 0x3562 SWAP4 SWAP3 SWAP2 SWAP1 PUSH2 0x4436 JUMP JUMPDEST PUSH0 PUSH2 0xEF7 DUP3 SLOAD SWAP1 JUMP JUMPDEST PUSH0 PUSH1 0x1 PUSH1 0x1 PUSH1 0xE0 SHL SUB NOT DUP3 AND PUSH4 0x7965DB0B PUSH1 0xE0 SHL EQ DUP1 PUSH2 0xEF7 JUMPI POP PUSH4 0x1FFC9A7 PUSH1 0xE0 SHL PUSH1 0x1 PUSH1 0x1 PUSH1 0xE0 SHL SUB NOT DUP4 AND EQ PUSH2 0xEF7 JUMP JUMPDEST PUSH2 0x3707 DUP3 DUP3 PUSH2 0x2440 JUMP JUMPDEST PUSH2 0x11E4 JUMPI PUSH1 0x40 MLOAD PUSH4 0xE2517D3F PUSH1 0xE0 SHL DUP2 MSTORE PUSH1 0x1 PUSH1 0x1 PUSH1 0xA0 SHL SUB DUP3 AND PUSH1 0x4 DUP3 ADD MSTORE PUSH1 0x24 DUP2 ADD DUP4 SWAP1 MSTORE PUSH1 0x44 ADD PUSH2 0xF7C JUMP JUMPDEST PUSH1 0x1 PUSH1 0x1 PUSH1 0xA0 SHL SUB DUP5 AND PUSH2 0x375F JUMPI PUSH1 0x40 MLOAD PUSH4 0xE602DF05 PUSH1 0xE0 SHL DUP2 MSTORE PUSH0 PUSH1 0x4 DUP3 ADD MSTORE PUSH1 0x24 ADD PUSH2 0xF7C JUMP JUMPDEST PUSH1 0x1 PUSH1 0x1 PUSH1 0xA0 SHL SUB DUP4 AND PUSH2 0x3788 JUMPI PUSH1 0x40 MLOAD PUSH4 0x4A1406B1 PUSH1 0xE1 SHL DUP2 MSTORE PUSH0 PUSH1 0x4 DUP3 ADD MSTORE PUSH1 0x24 ADD PUSH2 0xF7C JUMP JUMPDEST PUSH1 0x1 PUSH1 0x1 PUSH1 0xA0 SHL SUB DUP1 DUP6 AND PUSH0 SWAP1 DUP2 MSTORE PUSH1 0x1 PUSH1 0x20 SWAP1 DUP2 MSTORE PUSH1 0x40 DUP1 DUP4 KECCAK256 SWAP4 DUP8 AND DUP4 MSTORE SWAP3 SWAP1 MSTORE KECCAK256 DUP3 SWAP1 SSTORE DUP1 ISZERO PUSH2 0x1843 JUMPI DUP3 PUSH1 0x1 PUSH1 0x1 PUSH1 0xA0 SHL SUB AND DUP5 PUSH1 0x1 PUSH1 0x1 PUSH1 0xA0 SHL SUB AND PUSH32 0x8C5BE1E5EBEC7D5BD14F71427D1E84F3DD0314C0F7B2291E5B200AC8C7C3B925 DUP5 PUSH1 0x40 MLOAD PUSH2 0x37FA SWAP2 DUP2 MSTORE PUSH1 0x20 ADD SWAP1 JUMP JUMPDEST PUSH1 0x40 MLOAD DUP1 SWAP2 SUB SWAP1 LOG3 POP POP POP POP JUMP JUMPDEST PUSH0 PUSH2 0x3812 PUSH1 0x2 SLOAD SWAP1 JUMP JUMPDEST ISZERO SWAP1 POP DUP1 DUP1 ISZERO PUSH2 0x3825 JUMPI POP PUSH1 0x19 SLOAD PUSH1 0xFF AND ISZERO JUMPDEST ISZERO PUSH2 0x3947 JUMPI TIMESTAMP PUSH1 0x18 SSTORE PUSH1 0x19 DUP1 SLOAD PUSH1 0xFF NOT AND PUSH1 0x1 OR SWAP1 SSTORE PUSH0 JUMPDEST PUSH1 0xD SLOAD DUP2 LT ISZERO PUSH2 0x11E4 JUMPI PUSH0 PUSH1 0xD DUP3 DUP2 SLOAD DUP2 LT PUSH2 0x385B JUMPI PUSH2 0x385B PUSH2 0x42E9 JUMP JUMPDEST PUSH0 SWAP2 DUP3 MSTORE PUSH1 0x20 DUP1 DUP4 KECCAK256 SWAP1 SWAP2 ADD SLOAD PUSH1 0x1 PUSH1 0x1 PUSH1 0xA0 SHL SUB AND DUP1 DUP4 MSTORE PUSH1 0xE SWAP1 SWAP2 MSTORE PUSH1 0x40 DUP3 KECCAK256 SWAP1 SWAP3 POP SWAP1 JUMPDEST DUP2 SLOAD DUP2 LT ISZERO PUSH2 0x393C JUMPI DUP2 DUP2 DUP2 SLOAD DUP2 LT PUSH2 0x389D JUMPI PUSH2 0x389D PUSH2 0x42E9 JUMP JUMPDEST SWAP1 PUSH0 MSTORE PUSH1 0x20 PUSH0 KECCAK256 SWAP1 PUSH1 0x6 MUL ADD PUSH1 0x4 ADD SLOAD PUSH0 EQ DUP1 ISZERO PUSH2 0x38DC JUMPI POP DUP2 DUP2 DUP2 SLOAD DUP2 LT PUSH2 0x38C8 JUMPI PUSH2 0x38C8 PUSH2 0x42E9 JUMP JUMPDEST SWAP1 PUSH0 MSTORE PUSH1 0x20 PUSH0 KECCAK256 SWAP1 PUSH1 0x6 MUL ADD PUSH1 0x1 ADD SLOAD TIMESTAMP LT ISZERO JUMPDEST DUP1 ISZERO PUSH2 0x3908 JUMPI POP DUP2 DUP2 DUP2 SLOAD DUP2 LT PUSH2 0x38F5 JUMPI PUSH2 0x38F5 PUSH2 0x42E9 JUMP JUMPDEST SWAP1 PUSH0 MSTORE PUSH1 0x20 PUSH0 KECCAK256 SWAP1 PUSH1 0x6 MUL ADD PUSH1 0x2 ADD SLOAD TIMESTAMP LT JUMPDEST ISZERO PUSH2 0x3934 JUMPI TIMESTAMP DUP3 DUP3 DUP2 SLOAD DUP2 LT PUSH2 0x3920 JUMPI PUSH2 0x3920 PUSH2 0x42E9 JUMP JUMPDEST SWAP1 PUSH0 MSTORE PUSH1 0x20 PUSH0 KECCAK256 SWAP1 PUSH1 0x6 MUL ADD PUSH1 0x4 ADD DUP2 SWAP1 SSTORE POP JUMPDEST PUSH1 0x1 ADD PUSH2 0x3882 JUMP JUMPDEST POP POP POP PUSH1 0x1 ADD PUSH2 0x383D JUMP JUMPDEST DUP1 ISZERO DUP1 ISZERO PUSH2 0x3957 JUMPI POP PUSH1 0x19 SLOAD PUSH1 0xFF AND JUMPDEST ISZERO PUSH2 0x1750 JUMPI PUSH0 PUSH1 0x18 SLOAD TIMESTAMP PUSH2 0x396B SWAP2 SWAP1 PUSH2 0x43D8 JUMP JUMPDEST PUSH1 0x19 DUP1 SLOAD PUSH1 0xFF NOT AND SWAP1 SSTORE SWAP1 POP PUSH0 JUMPDEST PUSH1 0xD SLOAD DUP2 LT ISZERO PUSH2 0x187C JUMPI PUSH0 PUSH1 0xD DUP3 DUP2 SLOAD DUP2 LT PUSH2 0x3997 JUMPI PUSH2 0x3997 PUSH2 0x42E9 JUMP JUMPDEST PUSH0 SWAP2 DUP3 MSTORE PUSH1 0x20 DUP1 DUP4 KECCAK256 SWAP1 SWAP2 ADD SLOAD PUSH1 0x1 PUSH1 0x1 PUSH1 0xA0 SHL SUB AND DUP1 DUP4 MSTORE PUSH1 0xE SWAP1 SWAP2 MSTORE PUSH1 0x40 DUP3 KECCAK256 SWAP1 SWAP3 POP SWAP1 JUMPDEST DUP2 SLOAD DUP2 LT ISZERO PUSH2 0x3A56 JUMPI PUSH0 DUP3 DUP3 DUP2 SLOAD DUP2 LT PUSH2 0x39DA JUMPI PUSH2 0x39DA PUSH2 0x42E9 JUMP JUMPDEST SWAP1 PUSH0 MSTORE PUSH1 0x20 PUSH0 KECCAK256 SWAP1 PUSH1 0x6 MUL ADD PUSH1 0x4 ADD SLOAD GT ISZERO PUSH2 0x3A4E JUMPI DUP5 DUP3 DUP3 DUP2 SLOAD DUP2 LT PUSH2 0x3A03 JUMPI PUSH2 0x3A03 PUSH2 0x42E9 JUMP JUMPDEST SWAP1 PUSH0 MSTORE PUSH1 0x20 PUSH0 KECCAK256 SWAP1 PUSH1 0x6 MUL ADD PUSH1 0x5 ADD PUSH0 DUP3 DUP3 SLOAD PUSH2 0x3A20 SWAP2 SWAP1 PUSH2 0x4349 JUMP JUMPDEST SWAP3 POP POP DUP2 SWAP1 SSTORE POP PUSH0 DUP3 DUP3 DUP2 SLOAD DUP2 LT PUSH2 0x3A3A JUMPI PUSH2 0x3A3A PUSH2 0x42E9 JUMP JUMPDEST SWAP1 PUSH0 MSTORE PUSH1 0x20 PUSH0 KECCAK256 SWAP1 PUSH1 0x6 MUL ADD PUSH1 0x4 ADD DUP2 SWAP1 SSTORE POP JUMPDEST PUSH1 0x1 ADD PUSH2 0x39BE JUMP JUMPDEST POP POP POP PUSH1 0x1 ADD PUSH2 0x3979 JUMP JUMPDEST PUSH1 0x1 PUSH1 0x1 PUSH1 0xA0 SHL SUB DUP3 AND PUSH2 0x3A8A JUMPI PUSH1 0x40 MLOAD PUSH4 0xEC442F05 PUSH1 0xE0 SHL DUP2 MSTORE PUSH0 PUSH1 0x4 DUP3 ADD MSTORE PUSH1 0x24 ADD PUSH2 0xF7C JUMP JUMPDEST PUSH2 0x11E4 PUSH0 DUP4 DUP4 JUMPDEST PUSH0 JUMPDEST PUSH1 0xD SLOAD DUP2 LT ISZERO PUSH2 0x3AFD JUMPI PUSH0 PUSH1 0xD DUP3 DUP2 SLOAD DUP2 LT PUSH2 0x3AB1 JUMPI PUSH2 0x3AB1 PUSH2 0x42E9 JUMP JUMPDEST PUSH0 SWAP2 DUP3 MSTORE PUSH1 0x20 DUP1 DUP4 KECCAK256 SWAP1 SWAP2 ADD SLOAD PUSH1 0x1 PUSH1 0x1 PUSH1 0xA0 SHL SUB AND DUP1 DUP4 MSTORE PUSH1 0xC SWAP1 SWAP2 MSTORE PUSH1 0x40 SWAP1 SWAP2 KECCAK256 SLOAD SWAP1 SWAP2 POP PUSH1 0xFF AND ISZERO PUSH2 0x3AF4 JUMPI PUSH2 0x3AEA DUP2 DUP7 PUSH2 0x3139 JUMP JUMPDEST PUSH2 0x3AF4 DUP2 DUP6 PUSH2 0x3139 JUMP JUMPDEST POP PUSH1 0x1 ADD PUSH2 0x3A93 JUMP JUMPDEST POP PUSH2 0x187C DUP4 DUP4 DUP4 PUSH2 0x3D3B JUMP JUMPDEST PUSH0 PUSH0 PUSH1 0x20 PUSH0 DUP5 MLOAD PUSH1 0x20 DUP7 ADD PUSH0 DUP9 GAS CALL DUP1 PUSH2 0x3B28 JUMPI PUSH1 0x40 MLOAD RETURNDATASIZE PUSH0 DUP3 RETURNDATACOPY RETURNDATASIZE DUP2 REVERT JUMPDEST POP POP PUSH0 MLOAD RETURNDATASIZE SWAP2 POP DUP2 ISZERO PUSH2 0x3B3F JUMPI DUP1 PUSH1 0x1 EQ ISZERO PUSH2 0x3B4C JUMP JUMPDEST PUSH1 0x1 PUSH1 0x1 PUSH1 0xA0 SHL SUB DUP5 AND EXTCODESIZE ISZERO JUMPDEST ISZERO PUSH2 0x1843 JUMPI PUSH1 0x40 MLOAD PUSH4 0x5274AFE7 PUSH1 0xE0 SHL DUP2 MSTORE PUSH1 0x1 PUSH1 0x1 PUSH1 0xA0 SHL SUB DUP6 AND PUSH1 0x4 DUP3 ADD MSTORE PUSH1 0x24 ADD PUSH2 0xF7C JUMP JUMPDEST PUSH0 PUSH2 0x3B80 DUP4 DUP4 PUSH2 0x2440 JUMP JUMPDEST PUSH2 0x3BFF JUMPI PUSH0 DUP4 DUP2 MSTORE PUSH1 0x7 PUSH1 0x20 SWAP1 DUP2 MSTORE PUSH1 0x40 DUP1 DUP4 KECCAK256 PUSH1 0x1 PUSH1 0x1 PUSH1 0xA0 SHL SUB DUP7 AND DUP5 MSTORE SWAP1 SWAP2 MSTORE SWAP1 KECCAK256 DUP1 SLOAD PUSH1 0xFF NOT AND PUSH1 0x1 OR SWAP1 SSTORE PUSH2 0x3BB7 CALLER SWAP1 JUMP JUMPDEST PUSH1 0x1 PUSH1 0x1 PUSH1 0xA0 SHL SUB AND DUP3 PUSH1 0x1 PUSH1 0x1 PUSH1 0xA0 SHL SUB AND DUP5 PUSH32 0x2F8788117E7EFF1D82E926EC794901D17C78024A50270940304540A733656F0D PUSH1 0x40 MLOAD PUSH1 0x40 MLOAD DUP1 SWAP2 SUB SWAP1 LOG4 POP PUSH1 0x1 PUSH2 0xEF7 JUMP JUMPDEST POP PUSH0 PUSH2 0xEF7 JUMP JUMPDEST PUSH0 PUSH2 0x1407 DUP4 PUSH1 0x1 PUSH1 0x1 PUSH1 0xA0 SHL SUB DUP5 AND PUSH2 0x3D4E JUMP JUMPDEST PUSH0 PUSH2 0x3C25 DUP4 DUP4 PUSH2 0x2440 JUMP JUMPDEST ISZERO PUSH2 0x3BFF JUMPI PUSH0 DUP4 DUP2 MSTORE PUSH1 0x7 PUSH1 0x20 SWAP1 DUP2 MSTORE PUSH1 0x40 DUP1 DUP4 KECCAK256 PUSH1 0x1 PUSH1 0x1 PUSH1 0xA0 SHL SUB DUP7 AND DUP1 DUP6 MSTORE SWAP3 MSTORE DUP1 DUP4 KECCAK256 DUP1 SLOAD PUSH1 0xFF NOT AND SWAP1 SSTORE MLOAD CALLER SWAP3 DUP7 SWAP2 PUSH32 0xF6391F5C32D9C69D2A47EA670B442974B53935D1EDC7FD64EB21E047A839171B SWAP2 SWAP1 LOG4 POP PUSH1 0x1 PUSH2 0xEF7 JUMP JUMPDEST PUSH0 PUSH2 0x1407 DUP4 PUSH1 0x1 PUSH1 0x1 PUSH1 0xA0 SHL SUB DUP5 AND PUSH2 0x3D93 JUMP JUMPDEST PUSH1 0x5 SLOAD PUSH1 0xFF AND PUSH2 0x1905 JUMPI PUSH1 0x40 MLOAD PUSH4 0x8DFC202B PUSH1 0xE0 SHL DUP2 MSTORE PUSH1 0x4 ADD PUSH1 0x40 MLOAD DUP1 SWAP2 SUB SWAP1 REVERT JUMPDEST PUSH0 DUP3 PUSH0 ADD DUP3 DUP2 SLOAD DUP2 LT PUSH2 0x3CD1 JUMPI PUSH2 0x3CD1 PUSH2 0x42E9 JUMP JUMPDEST SWAP1 PUSH0 MSTORE PUSH1 0x20 PUSH0 KECCAK256 ADD SLOAD SWAP1 POP SWAP3 SWAP2 POP POP JUMP JUMPDEST PUSH1 0x60 DUP2 PUSH0 ADD DUP1 SLOAD DUP1 PUSH1 0x20 MUL PUSH1 0x20 ADD PUSH1 0x40 MLOAD SWAP1 DUP2 ADD PUSH1 0x40 MSTORE DUP1 SWAP3 SWAP2 SWAP1 DUP2 DUP2 MSTORE PUSH1 0x20 ADD DUP3 DUP1 SLOAD DUP1 ISZERO PUSH2 0x3D2F JUMPI PUSH1 0x20 MUL DUP3 ADD SWAP2 SWAP1 PUSH0 MSTORE PUSH1 0x20 PUSH0 KECCAK256 SWAP1 JUMPDEST DUP2 SLOAD DUP2 MSTORE PUSH1 0x20 ADD SWAP1 PUSH1 0x1 ADD SWAP1 DUP1 DUP4 GT PUSH2 0x3D1B JUMPI JUMPDEST POP POP POP POP POP SWAP1 POP SWAP2 SWAP1 POP JUMP JUMPDEST PUSH2 0x3D43 PUSH2 0x3232 JUMP JUMPDEST PUSH2 0x187C DUP4 DUP4 DUP4 PUSH2 0x3E76 JUMP JUMPDEST PUSH0 DUP2 DUP2 MSTORE PUSH1 0x1 DUP4 ADD PUSH1 0x20 MSTORE PUSH1 0x40 DUP2 KECCAK256 SLOAD PUSH2 0x3BFF JUMPI POP DUP2 SLOAD PUSH1 0x1 DUP2 DUP2 ADD DUP5 SSTORE PUSH0 DUP5 DUP2 MSTORE PUSH1 0x20 DUP1 DUP3 KECCAK256 SWAP1 SWAP4 ADD DUP5 SWAP1 SSTORE DUP5 SLOAD DUP5 DUP3 MSTORE DUP3 DUP7 ADD SWAP1 SWAP4 MSTORE PUSH1 0x40 SWAP1 KECCAK256 SWAP2 SWAP1 SWAP2 SSTORE PUSH2 0xEF7 JUMP JUMPDEST PUSH0 DUP2 DUP2 MSTORE PUSH1 0x1 DUP4 ADD PUSH1 0x20 MSTORE PUSH1 0x40 DUP2 KECCAK256 SLOAD DUP1 ISZERO PUSH2 0x3E6D JUMPI PUSH0 PUSH2 0x3DB5 PUSH1 0x1 DUP4 PUSH2 0x43D8 JUMP JUMPDEST DUP6 SLOAD SWAP1 SWAP2 POP PUSH0 SWAP1 PUSH2 0x3DC8 SWAP1 PUSH1 0x1 SWAP1 PUSH2 0x43D8 JUMP JUMPDEST SWAP1 POP DUP1 DUP3 EQ PUSH2 0x3E27 JUMPI PUSH0 DUP7 PUSH0 ADD DUP3 DUP2 SLOAD DUP2 LT PUSH2 0x3DE6 JUMPI PUSH2 0x3DE6 PUSH2 0x42E9 JUMP JUMPDEST SWAP1 PUSH0 MSTORE PUSH1 0x20 PUSH0 KECCAK256 ADD SLOAD SWAP1 POP DUP1 DUP8 PUSH0 ADD DUP5 DUP2 SLOAD DUP2 LT PUSH2 0x3E06 JUMPI PUSH2 0x3E06 PUSH2 0x42E9 JUMP JUMPDEST PUSH0 SWAP2 DUP3 MSTORE PUSH1 0x20 DUP1 DUP4 KECCAK256 SWAP1 SWAP2 ADD SWAP3 SWAP1 SWAP3 SSTORE SWAP2 DUP3 MSTORE PUSH1 0x1 DUP9 ADD SWAP1 MSTORE PUSH1 0x40 SWAP1 KECCAK256 DUP4 SWAP1 SSTORE JUMPDEST DUP6 SLOAD DUP7 SWAP1 DUP1 PUSH2 0x3E38 JUMPI PUSH2 0x3E38 PUSH2 0x4422 JUMP JUMPDEST PUSH1 0x1 SWAP1 SUB DUP2 DUP2 SWAP1 PUSH0 MSTORE PUSH1 0x20 PUSH0 KECCAK256 ADD PUSH0 SWAP1 SSTORE SWAP1 SSTORE DUP6 PUSH1 0x1 ADD PUSH0 DUP7 DUP2 MSTORE PUSH1 0x20 ADD SWAP1 DUP2 MSTORE PUSH1 0x20 ADD PUSH0 KECCAK256 PUSH0 SWAP1 SSTORE PUSH1 0x1 SWAP4 POP POP POP POP PUSH2 0xEF7 JUMP JUMPDEST PUSH0 SWAP2 POP POP PUSH2 0xEF7 JUMP JUMPDEST PUSH1 0x1 PUSH1 0x1 PUSH1 0xA0 SHL SUB DUP4 AND PUSH2 0x3EA0 JUMPI DUP1 PUSH1 0x2 PUSH0 DUP3 DUP3 SLOAD PUSH2 0x3E95 SWAP2 SWAP1 PUSH2 0x4349 JUMP JUMPDEST SWAP1 SWAP2 SSTORE POP PUSH2 0x3F10 SWAP1 POP JUMP JUMPDEST PUSH1 0x1 PUSH1 0x1 PUSH1 0xA0 SHL SUB DUP4 AND PUSH0 SWAP1 DUP2 MSTORE PUSH1 0x20 DUP2 SWAP1 MSTORE PUSH1 0x40 SWAP1 KECCAK256 SLOAD DUP2 DUP2 LT ISZERO PUSH2 0x3EF2 JUMPI PUSH1 0x40 MLOAD PUSH4 0x391434E3 PUSH1 0xE2 SHL DUP2 MSTORE PUSH1 0x1 PUSH1 0x1 PUSH1 0xA0 SHL SUB DUP6 AND PUSH1 0x4 DUP3 ADD MSTORE PUSH1 0x24 DUP2 ADD DUP3 SWAP1 MSTORE PUSH1 0x44 DUP2 ADD DUP4 SWAP1 MSTORE PUSH1 0x64 ADD PUSH2 0xF7C JUMP JUMPDEST PUSH1 0x1 PUSH1 0x1 PUSH1 0xA0 SHL SUB DUP5 AND PUSH0 SWAP1 DUP2 MSTORE PUSH1 0x20 DUP2 SWAP1 MSTORE PUSH1 0x40 SWAP1 KECCAK256 SWAP1 DUP3 SWAP1 SUB SWAP1 SSTORE JUMPDEST PUSH1 0x1 PUSH1 0x1 PUSH1 0xA0 SHL SUB DUP3 AND PUSH2 0x3F2C JUMPI PUSH1 0x2 DUP1 SLOAD DUP3 SWAP1 SUB SWAP1 SSTORE PUSH2 0x3F4A JUMP JUMPDEST PUSH1 0x1 PUSH1 0x1 PUSH1 0xA0 SHL SUB DUP3 AND PUSH0 SWAP1 DUP2 MSTORE PUSH1 0x20 DUP2 SWAP1 MSTORE PUSH1 0x40 SWAP1 KECCAK256 DUP1 SLOAD DUP3 ADD SWAP1 SSTORE JUMPDEST DUP2 PUSH1 0x1 PUSH1 0x1 PUSH1 0xA0 SHL SUB AND DUP4 PUSH1 0x1 PUSH1 0x1 PUSH1 0xA0 SHL SUB AND PUSH32 0xDDF252AD1BE2C89B69C2B068FC378DAA952BA7F163C4A11628F55A4DF523B3EF DUP4 PUSH1 0x40 MLOAD PUSH2 0x2DA1 SWAP2 DUP2 MSTORE PUSH1 0x20 ADD SWAP1 JUMP JUMPDEST PUSH1 0x1 PUSH1 0x1 PUSH1 0xA0 SHL SUB DUP2 AND DUP2 EQ PUSH2 0x1750 JUMPI PUSH0 PUSH0 REVERT JUMPDEST PUSH0 PUSH1 0x20 DUP3 DUP5 SUB SLT ISZERO PUSH2 0x3FB3 JUMPI PUSH0 PUSH0 REVERT JUMPDEST DUP2 CALLDATALOAD PUSH2 0x1407 DUP2 PUSH2 0x3F8F JUMP JUMPDEST PUSH0 PUSH1 0x20 DUP3 DUP5 SUB SLT ISZERO PUSH2 0x3FCE JUMPI PUSH0 PUSH0 REVERT JUMPDEST DUP2 CALLDATALOAD PUSH1 0x1 PUSH1 0x1 PUSH1 0xE0 SHL SUB NOT DUP2 AND DUP2 EQ PUSH2 0x1407 JUMPI PUSH0 PUSH0 REVERT JUMPDEST PUSH0 PUSH1 0x20 DUP3 DUP5 SUB SLT ISZERO PUSH2 0x3FF5 JUMPI PUSH0 PUSH0 REVERT JUMPDEST POP CALLDATALOAD SWAP2 SWAP1 POP JUMP JUMPDEST PUSH1 0x20 DUP2 MSTORE PUSH0 DUP3 MLOAD DUP1 PUSH1 0x20 DUP5 ADD MSTORE DUP1 PUSH1 0x20 DUP6 ADD PUSH1 0x40 DUP6 ADD MCOPY PUSH0 PUSH1 0x40 DUP3 DUP6 ADD ADD MSTORE PUSH1 0x40 PUSH1 0x1F NOT PUSH1 0x1F DUP4 ADD AND DUP5 ADD ADD SWAP2 POP POP SWAP3 SWAP2 POP POP JUMP JUMPDEST PUSH0 PUSH0 PUSH1 0x40 DUP4 DUP6 SUB SLT ISZERO PUSH2 0x4042 JUMPI PUSH0 PUSH0 REVERT JUMPDEST DUP3 CALLDATALOAD PUSH2 0x404D DUP2 PUSH2 0x3F8F JUMP JUMPDEST SWAP5 PUSH1 0x20 SWAP4 SWAP1 SWAP4 ADD CALLDATALOAD SWAP4 POP POP POP JUMP JUMPDEST PUSH0 PUSH0 PUSH1 0x40 DUP4 DUP6 SUB SLT ISZERO PUSH2 0x406C JUMPI PUSH0 PUSH0 REVERT JUMPDEST DUP3 CALLDATALOAD PUSH2 0x4077 DUP2 PUSH2 0x3F8F JUMP JUMPDEST SWAP2 POP PUSH1 0x20 DUP4 ADD CALLDATALOAD PUSH2 0x4087 DUP2 PUSH2 0x3F8F JUMP JUMPDEST DUP1 SWAP2 POP POP SWAP3 POP SWAP3 SWAP1 POP JUMP JUMPDEST PUSH0 PUSH0 PUSH1 0x40 DUP4 DUP6 SUB SLT ISZERO PUSH2 0x40A3 JUMPI PUSH0 PUSH0 REVERT JUMPDEST POP POP DUP1 CALLDATALOAD SWAP3 PUSH1 0x20 SWAP1 SWAP2 ADD CALLDATALOAD SWAP2 POP JUMP JUMPDEST PUSH0 PUSH0 PUSH0 PUSH1 0x60 DUP5 DUP7 SUB SLT ISZERO PUSH2 0x40C4 JUMPI PUSH0 PUSH0 REVERT JUMPDEST DUP4 CALLDATALOAD PUSH2 0x40CF DUP2 PUSH2 0x3F8F JUMP JUMPDEST SWAP3 POP PUSH1 0x20 DUP5 ADD CALLDATALOAD PUSH2 0x40DF DUP2 PUSH2 0x3F8F JUMP JUMPDEST SWAP3 SWAP6 SWAP3 SWAP5 POP POP POP PUSH1 0x40 SWAP2 SWAP1 SWAP2 ADD CALLDATALOAD SWAP1 JUMP JUMPDEST DUP2 MLOAD DUP2 MSTORE PUSH1 0x20 DUP1 DUP4 ADD MLOAD SWAP1 DUP3 ADD MSTORE PUSH1 0x40 DUP1 DUP4 ADD MLOAD ISZERO ISZERO SWAP1 DUP3 ADD MSTORE PUSH1 0x60 DUP2 ADD PUSH2 0xEF7 JUMP JUMPDEST PUSH0 PUSH0 PUSH1 0x40 DUP4 DUP6 SUB SLT ISZERO PUSH2 0x4124 JUMPI PUSH0 PUSH0 REVERT JUMPDEST DUP3 CALLDATALOAD SWAP2 POP PUSH1 0x20 DUP4 ADD CALLDATALOAD PUSH2 0x4087 DUP2 PUSH2 0x3F8F JUMP JUMPDEST PUSH1 0x20 DUP1 DUP3 MSTORE DUP3 MLOAD DUP3 DUP3 ADD DUP2 SWAP1 MSTORE PUSH0 SWAP2 DUP5 ADD SWAP1 PUSH1 0x40 DUP5 ADD SWAP1 DUP4 JUMPDEST DUP2 DUP2 LT ISZERO PUSH2 0x41A7 JUMPI DUP4 MLOAD DUP1 MLOAD DUP5 MSTORE PUSH1 0x20 DUP2 ADD MLOAD PUSH1 0x20 DUP6 ADD MSTORE PUSH1 0x40 DUP2 ADD MLOAD PUSH1 0x40 DUP6 ADD MSTORE PUSH1 0x60 DUP2 ADD MLOAD PUSH1 0x60 DUP6 ADD MSTORE PUSH1 0x80 DUP2 ADD MLOAD PUSH1 0x80 DUP6 ADD MSTORE PUSH1 0xA0 DUP2 ADD MLOAD PUSH1 0xA0 DUP6 ADD MSTORE POP PUSH1 0xC0 DUP4 ADD SWAP3 POP PUSH1 0x20 DUP5 ADD SWAP4 POP PUSH1 0x1 DUP2 ADD SWAP1 POP PUSH2 0x414F JUMP JUMPDEST POP SWAP1 SWAP6 SWAP5 POP POP POP POP POP JUMP JUMPDEST PUSH0 DUP2 MLOAD DUP1 DUP5 MSTORE PUSH1 0x20 DUP5 ADD SWAP4 POP PUSH1 0x20 DUP4 ADD PUSH0 JUMPDEST DUP3 DUP2 LT ISZERO PUSH2 0x41EB JUMPI DUP2 MLOAD PUSH1 0x1 PUSH1 0x1 PUSH1 0xA0 SHL SUB AND DUP7 MSTORE PUSH1 0x20 SWAP6 DUP7 ADD SWAP6 SWAP1 SWAP2 ADD SWAP1 PUSH1 0x1 ADD PUSH2 0x41C4 JUMP JUMPDEST POP SWAP4 SWAP5 SWAP4 POP POP POP POP JUMP JUMPDEST PUSH1 0x40 DUP2 MSTORE PUSH0 PUSH2 0x4207 PUSH1 0x40 DUP4 ADD DUP6 PUSH2 0x41B2 JUMP JUMPDEST DUP3 DUP2 SUB PUSH1 0x20 DUP5 ADD MSTORE DUP1 DUP5 MLOAD DUP1 DUP4 MSTORE PUSH1 0x20 DUP4 ADD SWAP2 POP PUSH1 0x20 DUP7 ADD SWAP3 POP PUSH0 JUMPDEST DUP2 DUP2 LT ISZERO PUSH2 0x4241 JUMPI DUP4 MLOAD DUP4 MSTORE PUSH1 0x20 SWAP4 DUP5 ADD SWAP4 SWAP1 SWAP3 ADD SWAP2 PUSH1 0x1 ADD PUSH2 0x4223 JUMP JUMPDEST POP SWAP1 SWAP7 SWAP6 POP POP POP POP POP POP JUMP JUMPDEST PUSH1 0x20 DUP2 MSTORE PUSH0 PUSH2 0x1407 PUSH1 0x20 DUP4 ADD DUP5 PUSH2 0x41B2 JUMP JUMPDEST PUSH0 PUSH0 PUSH0 PUSH1 0x60 DUP5 DUP7 SUB SLT ISZERO PUSH2 0x4271 JUMPI PUSH0 PUSH0 REVERT JUMPDEST DUP4 CALLDATALOAD PUSH2 0x427C DUP2 PUSH2 0x3F8F JUMP JUMPDEST SWAP6 PUSH1 0x20 DUP6 ADD CALLDATALOAD SWAP6 POP PUSH1 0x40 SWAP1 SWAP5 ADD CALLDATALOAD SWAP4 SWAP3 POP POP POP JUMP JUMPDEST PUSH1 0x20 DUP1 DUP3 MSTORE DUP3 MLOAD DUP3 DUP3 ADD DUP2 SWAP1 MSTORE PUSH0 SWAP2 DUP5 ADD SWAP1 PUSH1 0x40 DUP5 ADD SWAP1 DUP4 JUMPDEST DUP2 DUP2 LT ISZERO PUSH2 0x41A7 JUMPI PUSH2 0x42D3 DUP4 DUP6 MLOAD DUP1 MLOAD DUP3 MSTORE PUSH1 0x20 DUP1 DUP3 ADD MLOAD SWAP1 DUP4 ADD MSTORE PUSH1 0x40 SWAP1 DUP2 ADD MLOAD ISZERO ISZERO SWAP2 ADD MSTORE JUMP JUMPDEST PUSH1 0x20 SWAP4 SWAP1 SWAP4 ADD SWAP3 PUSH1 0x60 SWAP3 SWAP1 SWAP3 ADD SWAP2 PUSH1 0x1 ADD PUSH2 0x42AA JUMP JUMPDEST PUSH4 0x4E487B71 PUSH1 0xE0 SHL PUSH0 MSTORE PUSH1 0x32 PUSH1 0x4 MSTORE PUSH1 0x24 PUSH0 REVERT JUMPDEST PUSH1 0x1 DUP2 DUP2 SHR SWAP1 DUP3 AND DUP1 PUSH2 0x4311 JUMPI PUSH1 0x7F DUP3 AND SWAP2 POP JUMPDEST PUSH1 0x20 DUP3 LT DUP2 SUB PUSH2 0x432F JUMPI PUSH4 0x4E487B71 PUSH1 0xE0 SHL PUSH0 MSTORE PUSH1 0x22 PUSH1 0x4 MSTORE PUSH1 0x24 PUSH0 REVERT JUMPDEST POP SWAP2 SWAP1 POP JUMP JUMPDEST PUSH4 0x4E487B71 PUSH1 0xE0 SHL PUSH0 MSTORE PUSH1 0x11 PUSH1 0x4 MSTORE PUSH1 0x24 PUSH0 REVERT JUMPDEST DUP1 DUP3 ADD DUP1 DUP3 GT ISZERO PUSH2 0xEF7 JUMPI PUSH2 0xEF7 PUSH2 0x4335 JUMP JUMPDEST PUSH1 0x1 PUSH1 0x1 PUSH1 0xA0 SHL SUB SWAP2 SWAP1 SWAP2 AND DUP2 MSTORE PUSH1 0x40 PUSH1 0x20 DUP3 ADD DUP2 SWAP1 MSTORE PUSH1 0x33 SWAP1 DUP3 ADD MSTORE PUSH32 0x596F7520617265206E6F7420616C6C6F77656420746F20696E74657261637420 PUSH1 0x60 DUP3 ADD MSTORE PUSH19 0x3BB4BA34103A3434B99031B7B73A3930B1BA17 PUSH1 0x69 SHL PUSH1 0x80 DUP3 ADD MSTORE PUSH1 0xA0 ADD SWAP1 JUMP JUMPDEST DUP1 DUP3 MUL DUP2 ISZERO DUP3 DUP3 DIV DUP5 EQ OR PUSH2 0xEF7 JUMPI PUSH2 0xEF7 PUSH2 0x4335 JUMP JUMPDEST DUP2 DUP2 SUB DUP2 DUP2 GT ISZERO PUSH2 0xEF7 JUMPI PUSH2 0xEF7 PUSH2 0x4335 JUMP JUMPDEST PUSH0 DUP3 PUSH2 0x4405 JUMPI PUSH4 0x4E487B71 PUSH1 0xE0 SHL PUSH0 MSTORE PUSH1 0x12 PUSH1 0x4 MSTORE PUSH1 0x24 PUSH0 REVERT JUMPDEST POP DIV SWAP1 JUMP JUMPDEST PUSH0 PUSH1 0x1 DUP3 ADD PUSH2 0x441B JUMPI PUSH2 0x441B PUSH2 0x4335 JUMP JUMPDEST POP PUSH1 0x1 ADD SWAP1 JUMP JUMPDEST PUSH4 0x4E487B71 PUSH1 0xE0 SHL PUSH0 MSTORE PUSH1 0x31 PUSH1 0x4 MSTORE PUSH1 0x24 PUSH0 REVERT JUMPDEST PUSH1 0x1 PUSH1 0x1 PUSH1 0xA0 SHL SUB SWAP4 DUP5 AND DUP2 MSTORE SWAP2 SWAP1 SWAP3 AND PUSH1 0x20 DUP3 ADD MSTORE PUSH1 0x40 DUP2 ADD SWAP2 SWAP1 SWAP2 MSTORE PUSH1 0x60 ADD SWAP1 JUMP JUMPDEST PUSH4 0x4E487B71 PUSH1 0xE0 SHL PUSH0 MSTORE PUSH1 0x41 PUSH1 0x4 MSTORE PUSH1 0x24 PUSH0 REVERT INVALID LOG4 SWAP9 SMOD KECCAK256 TLOAD RETF 0xD3 SSTORE MULMOD 0x2E CREATE2 0xA8 LOG1 DUP16 JUMP 0xE8 SWAP2 EXTCODECOPY DELEGATECALL LOG2 ADD EXTSTATICCALL 0xE2 DUP8 DUP3 JUMPDEST MULMOD JUMP SWAP4 0xC2 OR PUSH22 0xA264697066735822122090AF4EF75C6A1887C5B5CCE5 0xCF JUMPI RETURNDATACOPY 0xD0 DUP16 PUSH32 0x1ECC492F12D9D24162C67280444064736F6C634300081D003300000000000000 "
		},
		"gasEstimates": {
			"creation": {
				"codeDepositCost": "3520800",
				"executionCost": "infinite",
				"totalCost": "infinite"
			},
			"external": {
				"ADMIN_ROLE()": "infinite",
				"DEFAULT_ADMIN_ROLE()": "250",
				"PAUSER_ROLE()": "294",
				"addRewardToken(address)": "infinite",
				"allowance(address,address)": "infinite",
				"approve(address,uint256)": "24770",
				"balanceOf(address)": "2653",
				"blacklist(address)": "2632",
				"blacklistWallet(address)": "infinite",
				"claimFeeETH()": "2395",
				"decimals()": "267",
				"earned(address)": "infinite",
				"earned(address,address)": "infinite",
				"earnedAll(address)": "infinite",
				"emergencyWithdrawERC20(address,address,uint256)": "infinite",
				"emergencyWithdrawERC721(address,address,uint256)": "infinite",
				"emergencyWithdrawETH(address,uint256)": "infinite",
				"exit()": "infinite",
				"feeReceiver()": "2447",
				"getActiveRewardRate(address)": "infinite",
				"getAllRewards()": "infinite",
				"getLockedBalance(address)": "infinite",
				"getReward()": "infinite",
				"getRewardForDuration()": "infinite",
				"getRewardForToken(address)": "infinite",
				"getRewardSchedules(address)": "infinite",
				"getRoleAdmin(bytes32)": "2520",
				"getRoleMember(bytes32,uint256)": "infinite",
				"getRoleMemberCount(bytes32)": "infinite",
				"getRoleMembers(bytes32)": "infinite",
				"getStakePosition(address,uint256)": "11672",
				"getUnlockedBalance(address)": "infinite",
				"getUserStakePositionCount(address)": "2586",
				"getUserStakePositions(address)": "infinite",
				"getWhitelistedRewardTokens()": "infinite",
				"grantRole(bytes32,address)": "infinite",
				"hasRole(bytes32,address)": "2750",
				"isBlacklisted(address)": "2694",
				"lastStakeTime(address)": "2612",
				"lastTotalSupplyZeroTime()": "2417",
				"lastUpdateTimePerToken(address)": "2611",
				"minimumLockDuration()": "2417",
				"name()": "infinite",
				"pause()": "infinite",
				"paused()": "2370",
				"removeRewardToken(address)": "infinite",
				"renounceRole(bytes32,address)": "infinite",
				"revokeRole(bytes32,address)": "infinite",
				"rewardPerToken(address)": "infinite",
				"rewardPerTokenStoredPerToken(address)": "2634",
				"rewardSchedules(address,uint256)": "15564",
				"rewardTokensList(uint256)": "4700",
				"rewardsPerToken(address,address)": "infinite",
				"setClaimFeeETH(uint256)": "infinite",
				"setFeeReceiver(address)": "infinite",
				"setMinimumLockDuration(uint256)": "infinite",
				"stake(uint256)": "infinite",
				"stakeWithBonus(uint256,uint256)": "infinite",
				"stakingToken()": "infinite",
				"supplyRewards(address,uint256,uint256)": "infinite",
				"supportsInterface(bytes4)": "infinite",
				"symbol()": "infinite",
				"totalSupply()": "2437",
				"transfer(address,uint256)": "infinite",
				"transferFrom(address,address,uint256)": "infinite",
				"unblacklistWallet(address)": "infinite",
				"unpause()": "infinite",
				"userRewardPerTokenPaidPerToken(address,address)": "infinite",
				"userStakeCount(address)": "2588",
				"userStakePositions(address,uint256)": "9099",
				"userStaked(address)": "2566",
				"vault()": "infinite",
				"wasTotalSupplyZero()": "2399",
				"whitelistedRewardTokens(address)": "2678",
				"withdraw(uint256)": "infinite",
				"withdrawStakePosition(uint256)": "infinite"
			},
			"internal": {
				"_handleSupplyChange()": "infinite",
				"_stakeWithLock(address,uint256,uint256)": "infinite",
				"_update(address,address,uint256)": "infinite",
				"_updateRewardForToken(address,address)": "infinite"
			}
		},
		"methodIdentifiers": {
			"ADMIN_ROLE()": "75b238fc",
			"DEFAULT_ADMIN_ROLE()": "a217fddf",
			"PAUSER_ROLE()": "e63ab1e9",
			"addRewardToken(address)": "1c03e6cc",
			"allowance(address,address)": "dd62ed3e",
			"approve(address,uint256)": "095ea7b3",
			"balanceOf(address)": "70a08231",
			"blacklist(address)": "f9f92be4",
			"blacklistWallet(address)": "62441bf6",
			"claimFeeETH()": "c423be25",
			"decimals()": "313ce567",
			"earned(address)": "008cc262",
			"earned(address,address)": "211dc32d",
			"earnedAll(address)": "9e88ec10",
			"emergencyWithdrawERC20(address,address,uint256)": "55b8fb81",
			"emergencyWithdrawERC721(address,address,uint256)": "b72b85a1",
			"emergencyWithdrawETH(address,uint256)": "d79e8567",
			"exit()": "e9fad8ee",
			"feeReceiver()": "b3f00674",
			"getActiveRewardRate(address)": "ec35fde5",
			"getAllRewards()": "45b35f56",
			"getLockedBalance(address)": "c4086893",
			"getReward()": "3d18b912",
			"getRewardForDuration()": "1c1f78eb",
			"getRewardForToken(address)": "cc7045d7",
			"getRewardSchedules(address)": "5bfc82ad",
			"getRoleAdmin(bytes32)": "248a9ca3",
			"getRoleMember(bytes32,uint256)": "9010d07c",
			"getRoleMemberCount(bytes32)": "ca15c873",
			"getRoleMembers(bytes32)": "a3246ad3",
			"getStakePosition(address,uint256)": "2e569eff",
			"getUnlockedBalance(address)": "129de5bf",
			"getUserStakePositionCount(address)": "1935ffec",
			"getUserStakePositions(address)": "dc21fb76",
			"getWhitelistedRewardTokens()": "d8f67495",
			"grantRole(bytes32,address)": "2f2ff15d",
			"hasRole(bytes32,address)": "91d14854",
			"isBlacklisted(address)": "fe575a87",
			"lastStakeTime(address)": "7bb1ca19",
			"lastTotalSupplyZeroTime()": "c6ddd3a0",
			"lastUpdateTimePerToken(address)": "28bcf07a",
			"minimumLockDuration()": "9d86b850",
			"name()": "06fdde03",
			"pause()": "8456cb59",
			"paused()": "5c975abb",
			"removeRewardToken(address)": "3d509c97",
			"renounceRole(bytes32,address)": "36568abe",
			"revokeRole(bytes32,address)": "d547741f",
			"rewardPerToken(address)": "f1229777",
			"rewardPerTokenStoredPerToken(address)": "14228806",
			"rewardSchedules(address,uint256)": "b80e6793",
			"rewardTokensList(uint256)": "5da9e169",
			"rewardsPerToken(address,address)": "78a2574b",
			"setClaimFeeETH(uint256)": "54fd83c1",
			"setFeeReceiver(address)": "efdcd974",
			"setMinimumLockDuration(uint256)": "04f6c0ef",
			"stake(uint256)": "a694fc3a",
			"stakeWithBonus(uint256,uint256)": "1b7447f1",
			"stakingToken()": "72f702f3",
			"supplyRewards(address,uint256,uint256)": "a6eec453",
			"supportsInterface(bytes4)": "01ffc9a7",
			"symbol()": "95d89b41",
			"totalSupply()": "18160ddd",
			"transfer(address,uint256)": "a9059cbb",
			"transferFrom(address,address,uint256)": "23b872dd",
			"unblacklistWallet(address)": "5b34bc41",
			"unpause()": "3f4ba83a",
			"userRewardPerTokenPaidPerToken(address,address)": "11b567b9",
			"userStakeCount(address)": "b02e64a9",
			"userStakePositions(address,uint256)": "b8c6a929",
			"userStaked(address)": "acc3a939",
			"vault()": "fbfa77cf",
			"wasTotalSupplyZero()": "3dd6aa42",
			"whitelistedRewardTokens(address)": "5225f987",
			"withdraw(uint256)": "2e1a7d4d",
			"withdrawStakePosition(uint256)": "5bdeab61"
		}
	},
	"abi": [
		{
			"inputs": [
				{
					"internalType": "address",
					"name": "_admin",
					"type": "address"
				},
				{
					"internalType": "address",
					"name": "_stakingToken",
					"type": "address"
				},
				{
					"internalType": "address",
					"name": "_vault",
					"type": "address"
				}
			],
			"stateMutability": "nonpayable",
			"type": "constructor"
		},
		{
			"inputs": [],
			"name": "AccessControlBadConfirmation",
			"type": "error"
		},
		{
			"inputs": [
				{
					"internalType": "address",
					"name": "account",
					"type": "address"
				},
				{
					"internalType": "bytes32",
					"name": "neededRole",
					"type": "bytes32"
				}
			],
			"name": "AccessControlUnauthorizedAccount",
			"type": "error"
		},
		{
			"inputs": [
				{
					"internalType": "uint256",
					"name": "currentTime",
					"type": "uint256"
				},
				{
					"internalType": "uint256",
					"name": "unlockTime",
					"type": "uint256"
				}
			],
			"name": "DepositStillLocked",
			"type": "error"
		},
		{
			"inputs": [
				{
					"internalType": "address",
					"name": "spender",
					"type": "address"
				},
				{
					"internalType": "uint256",
					"name": "allowance",
					"type": "uint256"
				},
				{
					"internalType": "uint256",
					"name": "needed",
					"type": "uint256"
				}
			],
			"name": "ERC20InsufficientAllowance",
			"type": "error"
		},
		{
			"inputs": [
				{
					"internalType": "address",
					"name": "sender",
					"type": "address"
				},
				{
					"internalType": "uint256",
					"name": "balance",
					"type": "uint256"
				},
				{
					"internalType": "uint256",
					"name": "needed",
					"type": "uint256"
				}
			],
			"name": "ERC20InsufficientBalance",
			"type": "error"
		},
		{
			"inputs": [
				{
					"internalType": "address",
					"name": "approver",
					"type": "address"
				}
			],
			"name": "ERC20InvalidApprover",
			"type": "error"
		},
		{
			"inputs": [
				{
					"internalType": "address",
					"name": "receiver",
					"type": "address"
				}
			],
			"name": "ERC20InvalidReceiver",
			"type": "error"
		},
		{
			"inputs": [
				{
					"internalType": "address",
					"name": "sender",
					"type": "address"
				}
			],
			"name": "ERC20InvalidSender",
			"type": "error"
		},
		{
			"inputs": [
				{
					"internalType": "address",
					"name": "spender",
					"type": "address"
				}
			],
			"name": "ERC20InvalidSpender",
			"type": "error"
		},
		{
			"inputs": [],
			"name": "EnforcedPause",
			"type": "error"
		},
		{
			"inputs": [],
			"name": "ExpectedPause",
			"type": "error"
		},
		{
			"inputs": [
				{
					"internalType": "uint256",
					"name": "requested",
					"type": "uint256"
				},
				{
					"internalType": "uint256",
					"name": "available",
					"type": "uint256"
				}
			],
			"name": "InsufficientUnlockedBalance",
			"type": "error"
		},
		{
			"inputs": [
				{
					"internalType": "uint256",
					"name": "stakeId",
					"type": "uint256"
				}
			],
			"name": "InvalidStakeId",
			"type": "error"
		},
		{
			"inputs": [
				{
					"internalType": "address",
					"name": "account",
					"type": "address"
				},
				{
					"internalType": "string",
					"name": "reason",
					"type": "string"
				}
			],
			"name": "IsBlacklisted",
			"type": "error"
		},
		{
			"inputs": [
				{
					"internalType": "uint256",
					"name": "provided",
					"type": "uint256"
				},
				{
					"internalType": "uint256",
					"name": "minimum",
					"type": "uint256"
				}
			],
			"name": "LockDurationTooShort",
			"type": "error"
		},
		{
			"inputs": [],
			"name": "ReentrancyGuardReentrantCall",
			"type": "error"
		},
		{
			"inputs": [
				{
					"internalType": "address",
					"name": "token",
					"type": "address"
				}
			],
			"name": "SafeERC20FailedOperation",
			"type": "error"
		},
		{
			"inputs": [
				{
					"internalType": "address",
					"name": "token",
					"type": "address"
				}
			],
			"name": "TokenAlreadyWhitelisted",
			"type": "error"
		},
		{
			"inputs": [
				{
					"internalType": "address",
					"name": "token",
					"type": "address"
				}
			],
			"name": "TokenNotWhitelisted",
			"type": "error"
		},
		{
			"anonymous": false,
			"inputs": [
				{
					"indexed": true,
					"internalType": "address",
					"name": "owner",
					"type": "address"
				},
				{
					"indexed": true,
					"internalType": "address",
					"name": "spender",
					"type": "address"
				},
				{
					"indexed": false,
					"internalType": "uint256",
					"name": "value",
					"type": "uint256"
				}
			],
			"name": "Approval",
			"type": "event"
		},
		{
			"anonymous": false,
			"inputs": [
				{
					"indexed": true,
					"internalType": "address",
					"name": "account",
					"type": "address"
				}
			],
			"name": "BlacklistAdded",
			"type": "event"
		},
		{
			"anonymous": false,
			"inputs": [
				{
					"indexed": true,
					"internalType": "address",
					"name": "account",
					"type": "address"
				}
			],
			"name": "BlacklistRemoved",
			"type": "event"
		},
		{
			"anonymous": false,
			"inputs": [
				{
					"indexed": false,
					"internalType": "uint256",
					"name": "fee",
					"type": "uint256"
				}
			],
			"name": "ClaimFeeETHSet",
			"type": "event"
		},
		{
			"anonymous": false,
			"inputs": [
				{
					"indexed": true,
					"internalType": "address",
					"name": "caller",
					"type": "address"
				},
				{
					"indexed": true,
					"internalType": "address",
					"name": "token",
					"type": "address"
				},
				{
					"indexed": true,
					"internalType": "address",
					"name": "recipient",
					"type": "address"
				},
				{
					"indexed": false,
					"internalType": "uint256",
					"name": "amount",
					"type": "uint256"
				}
			],
			"name": "EmergencyWithdrawERC20",
			"type": "event"
		},
		{
			"anonymous": false,
			"inputs": [
				{
					"indexed": true,
					"internalType": "address",
					"name": "caller",
					"type": "address"
				},
				{
					"indexed": true,
					"internalType": "address",
					"name": "token",
					"type": "address"
				},
				{
					"indexed": true,
					"internalType": "address",
					"name": "recipient",
					"type": "address"
				},
				{
					"indexed": false,
					"internalType": "uint256",
					"name": "tokenId",
					"type": "uint256"
				}
			],
			"name": "EmergencyWithdrawERC721",
			"type": "event"
		},
		{
			"anonymous": false,
			"inputs": [
				{
					"indexed": true,
					"internalType": "address",
					"name": "caller",
					"type": "address"
				},
				{
					"indexed": true,
					"internalType": "address",
					"name": "recipient",
					"type": "address"
				},
				{
					"indexed": false,
					"internalType": "uint256",
					"name": "amount",
					"type": "uint256"
				}
			],
			"name": "EmergencyWithdrawETH",
			"type": "event"
		},
		{
			"anonymous": false,
			"inputs": [
				{
					"indexed": true,
					"internalType": "address",
					"name": "feeReceiver",
					"type": "address"
				}
			],
			"name": "FeeReceiverSet",
			"type": "event"
		},
		{
			"anonymous": false,
			"inputs": [
				{
					"indexed": false,
					"internalType": "uint256",
					"name": "duration",
					"type": "uint256"
				}
			],
			"name": "MinimumLockDurationSet",
			"type": "event"
		},
		{
			"anonymous": false,
			"inputs": [
				{
					"indexed": false,
					"internalType": "address",
					"name": "account",
					"type": "address"
				}
			],
			"name": "Paused",
			"type": "event"
		},
		{
			"anonymous": false,
			"inputs": [
				{
					"indexed": true,
					"internalType": "address",
					"name": "token",
					"type": "address"
				},
				{
					"indexed": false,
					"internalType": "uint256",
					"name": "amount",
					"type": "uint256"
				},
				{
					"indexed": false,
					"internalType": "uint256",
					"name": "duration",
					"type": "uint256"
				},
				{
					"indexed": false,
					"internalType": "uint256",
					"name": "rewardRate",
					"type": "uint256"
				}
			],
			"name": "RewardAdded",
			"type": "event"
		},
		{
			"anonymous": false,
			"inputs": [
				{
					"indexed": true,
					"internalType": "address",
					"name": "user",
					"type": "address"
				},
				{
					"indexed": true,
					"internalType": "address",
					"name": "token",
					"type": "address"
				},
				{
					"indexed": false,
					"internalType": "uint256",
					"name": "reward",
					"type": "uint256"
				}
			],
			"name": "RewardPaid",
			"type": "event"
		},
		{
			"anonymous": false,
			"inputs": [
				{
					"indexed": true,
					"internalType": "address",
					"name": "token",
					"type": "address"
				}
			],
			"name": "RewardTokenAdded",
			"type": "event"
		},
		{
			"anonymous": false,
			"inputs": [
				{
					"indexed": true,
					"internalType": "address",
					"name": "token",
					"type": "address"
				}
			],
			"name": "RewardTokenRemoved",
			"type": "event"
		},
		{
			"anonymous": false,
			"inputs": [
				{
					"indexed": true,
					"internalType": "bytes32",
					"name": "role",
					"type": "bytes32"
				},
				{
					"indexed": true,
					"internalType": "bytes32",
					"name": "previousAdminRole",
					"type": "bytes32"
				},
				{
					"indexed": true,
					"internalType": "bytes32",
					"name": "newAdminRole",
					"type": "bytes32"
				}
			],
			"name": "RoleAdminChanged",
			"type": "event"
		},
		{
			"anonymous": false,
			"inputs": [
				{
					"indexed": true,
					"internalType": "bytes32",
					"name": "role",
					"type": "bytes32"
				},
				{
					"indexed": true,
					"internalType": "address",
					"name": "account",
					"type": "address"
				},
				{
					"indexed": true,
					"internalType": "address",
					"name": "sender",
					"type": "address"
				}
			],
			"name": "RoleGranted",
			"type": "event"
		},
		{
			"anonymous": false,
			"inputs": [
				{
					"indexed": true,
					"internalType": "bytes32",
					"name": "role",
					"type": "bytes32"
				},
				{
					"indexed": true,
					"internalType": "address",
					"name": "account",
					"type": "address"
				},
				{
					"indexed": true,
					"internalType": "address",
					"name": "sender",
					"type": "address"
				}
			],
			"name": "RoleRevoked",
			"type": "event"
		},
		{
			"anonymous": false,
			"inputs": [
				{
					"indexed": true,
					"internalType": "address",
					"name": "account",
					"type": "address"
				},
				{
					"indexed": false,
					"internalType": "uint256",
					"name": "amount",
					"type": "uint256"
				}
			],
			"name": "StakeReturnedDueToBlacklist",
			"type": "event"
		},
		{
			"anonymous": false,
			"inputs": [
				{
					"indexed": true,
					"internalType": "address",
					"name": "user",
					"type": "address"
				},
				{
					"indexed": false,
					"internalType": "uint256",
					"name": "amount",
					"type": "uint256"
				},
				{
					"indexed": false,
					"internalType": "uint256",
					"name": "lock",
					"type": "uint256"
				}
			],
			"name": "Staked",
			"type": "event"
		},
		{
			"anonymous": false,
			"inputs": [
				{
					"indexed": true,
					"internalType": "address",
					"name": "from",
					"type": "address"
				},
				{
					"indexed": true,
					"internalType": "address",
					"name": "to",
					"type": "address"
				},
				{
					"indexed": false,
					"internalType": "uint256",
					"name": "value",
					"type": "uint256"
				}
			],
			"name": "Transfer",
			"type": "event"
		},
		{
			"anonymous": false,
			"inputs": [
				{
					"indexed": false,
					"internalType": "address",
					"name": "account",
					"type": "address"
				}
			],
			"name": "Unpaused",
			"type": "event"
		},
		{
			"anonymous": false,
			"inputs": [
				{
					"indexed": true,
					"internalType": "address",
					"name": "user",
					"type": "address"
				},
				{
					"indexed": false,
					"internalType": "uint256",
					"name": "amount",
					"type": "uint256"
				}
			],
			"name": "Withdrawn",
			"type": "event"
		},
		{
			"inputs": [],
			"name": "ADMIN_ROLE",
			"outputs": [
				{
					"internalType": "bytes32",
					"name": "",
					"type": "bytes32"
				}
			],
			"stateMutability": "view",
			"type": "function"
		},
		{
			"inputs": [],
			"name": "DEFAULT_ADMIN_ROLE",
			"outputs": [
				{
					"internalType": "bytes32",
					"name": "",
					"type": "bytes32"
				}
			],
			"stateMutability": "view",
			"type": "function"
		},
		{
			"inputs": [],
			"name": "PAUSER_ROLE",
			"outputs": [
				{
					"internalType": "bytes32",
					"name": "",
					"type": "bytes32"
				}
			],
			"stateMutability": "view",
			"type": "function"
		},
		{
			"inputs": [
				{
					"internalType": "address",
					"name": "token",
					"type": "address"
				}
			],
			"name": "addRewardToken",
			"outputs": [],
			"stateMutability": "nonpayable",
			"type": "function"
		},
		{
			"inputs": [
				{
					"internalType": "address",
					"name": "owner",
					"type": "address"
				},
				{
					"internalType": "address",
					"name": "spender",
					"type": "address"
				}
			],
			"name": "allowance",
			"outputs": [
				{
					"internalType": "uint256",
					"name": "",
					"type": "uint256"
				}
			],
			"stateMutability": "view",
			"type": "function"
		},
		{
			"inputs": [
				{
					"internalType": "address",
					"name": "spender",
					"type": "address"
				},
				{
					"internalType": "uint256",
					"name": "value",
					"type": "uint256"
				}
			],
			"name": "approve",
			"outputs": [
				{
					"internalType": "bool",
					"name": "",
					"type": "bool"
				}
			],
			"stateMutability": "nonpayable",
			"type": "function"
		},
		{
			"inputs": [
				{
					"internalType": "address",
					"name": "account",
					"type": "address"
				}
			],
			"name": "balanceOf",
			"outputs": [
				{
					"internalType": "uint256",
					"name": "",
					"type": "uint256"
				}
			],
			"stateMutability": "view",
			"type": "function"
		},
		{
			"inputs": [
				{
					"internalType": "address",
					"name": "",
					"type": "address"
				}
			],
			"name": "blacklist",
			"outputs": [
				{
					"internalType": "bool",
					"name": "",
					"type": "bool"
				}
			],
			"stateMutability": "view",
			"type": "function"
		},
		{
			"inputs": [
				{
					"internalType": "address",
					"name": "account",
					"type": "address"
				}
			],
			"name": "blacklistWallet",
			"outputs": [],
			"stateMutability": "nonpayable",
			"type": "function"
		},
		{
			"inputs": [],
			"name": "claimFeeETH",
			"outputs": [
				{
					"internalType": "uint256",
					"name": "",
					"type": "uint256"
				}
			],
			"stateMutability": "view",
			"type": "function"
		},
		{
			"inputs": [],
			"name": "decimals",
			"outputs": [
				{
					"internalType": "uint8",
					"name": "",
					"type": "uint8"
				}
			],
			"stateMutability": "view",
			"type": "function"
		},
		{
			"inputs": [
				{
					"internalType": "address",
					"name": "account",
					"type": "address"
				}
			],
			"name": "earned",
			"outputs": [
				{
					"internalType": "uint256",
					"name": "",
					"type": "uint256"
				}
			],
			"stateMutability": "view",
			"type": "function"
		},
		{
			"inputs": [
				{
					"internalType": "address",
					"name": "account",
					"type": "address"
				},
				{
					"internalType": "address",
					"name": "token",
					"type": "address"
				}
			],
			"name": "earned",
			"outputs": [
				{
					"internalType": "uint256",
					"name": "",
					"type": "uint256"
				}
			],
			"stateMutability": "view",
			"type": "function"
		},
		{
			"inputs": [
				{
					"internalType": "address",
					"name": "account",
					"type": "address"
				}
			],
			"name": "earnedAll",
			"outputs": [
				{
					"internalType": "address[]",
					"name": "tokens",
					"type": "address[]"
				},
				{
					"internalType": "uint256[]",
					"name": "amounts",
					"type": "uint256[]"
				}
			],
			"stateMutability": "view",
			"type": "function"
		},
		{
			"inputs": [
				{
					"internalType": "address",
					"name": "tokenAddress",
					"type": "address"
				},
				{
					"internalType": "address",
					"name": "recipient",
					"type": "address"
				},
				{
					"internalType": "uint256",
					"name": "amount",
					"type": "uint256"
				}
			],
			"name": "emergencyWithdrawERC20",
			"outputs": [],
			"stateMutability": "nonpayable",
			"type": "function"
		},
		{
			"inputs": [
				{
					"internalType": "address",
					"name": "tokenAddress",
					"type": "address"
				},
				{
					"internalType": "address",
					"name": "recipient",
					"type": "address"
				},
				{
					"internalType": "uint256",
					"name": "tokenId",
					"type": "uint256"
				}
			],
			"name": "emergencyWithdrawERC721",
			"outputs": [],
			"stateMutability": "nonpayable",
			"type": "function"
		},
		{
			"inputs": [
				{
					"internalType": "address payable",
					"name": "recipient",
					"type": "address"
				},
				{
					"internalType": "uint256",
					"name": "amount",
					"type": "uint256"
				}
			],
			"name": "emergencyWithdrawETH",
			"outputs": [],
			"stateMutability": "nonpayable",
			"type": "function"
		},
		{
			"inputs": [],
			"name": "exit",
			"outputs": [],
			"stateMutability": "nonpayable",
			"type": "function"
		},
		{
			"inputs": [],
			"name": "feeReceiver",
			"outputs": [
				{
					"internalType": "address",
					"name": "",
					"type": "address"
				}
			],
			"stateMutability": "view",
			"type": "function"
		},
		{
			"inputs": [
				{
					"internalType": "address",
					"name": "token",
					"type": "address"
				}
			],
			"name": "getActiveRewardRate",
			"outputs": [
				{
					"internalType": "uint256",
					"name": "",
					"type": "uint256"
				}
			],
			"stateMutability": "view",
			"type": "function"
		},
		{
			"inputs": [],
			"name": "getAllRewards",
			"outputs": [],
			"stateMutability": "payable",
			"type": "function"
		},
		{
			"inputs": [
				{
					"internalType": "address",
					"name": "account",
					"type": "address"
				}
			],
			"name": "getLockedBalance",
			"outputs": [
				{
					"internalType": "uint256",
					"name": "",
					"type": "uint256"
				}
			],
			"stateMutability": "view",
			"type": "function"
		},
		{
			"inputs": [],
			"name": "getReward",
			"outputs": [],
			"stateMutability": "nonpayable",
			"type": "function"
		},
		{
			"inputs": [],
			"name": "getRewardForDuration",
			"outputs": [
				{
					"internalType": "uint256",
					"name": "",
					"type": "uint256"
				}
			],
			"stateMutability": "view",
			"type": "function"
		},
		{
			"inputs": [
				{
					"internalType": "address",
					"name": "token",
					"type": "address"
				}
			],
			"name": "getRewardForToken",
			"outputs": [],
			"stateMutability": "payable",
			"type": "function"
		},
		{
			"inputs": [
				{
					"internalType": "address",
					"name": "token",
					"type": "address"
				}
			],
			"name": "getRewardSchedules",
			"outputs": [
				{
					"components": [
						{
							"internalType": "uint256",
							"name": "rewardRate",
							"type": "uint256"
						},
						{
							"internalType": "uint256",
							"name": "startTime",
							"type": "uint256"
						},
						{
							"internalType": "uint256",
							"name": "endTime",
							"type": "uint256"
						},
						{
							"internalType": "uint256",
							"name": "totalSupplied",
							"type": "uint256"
						},
						{
							"internalType": "uint256",
							"name": "pausedAt",
							"type": "uint256"
						},
						{
							"internalType": "uint256",
							"name": "totalPausedTime",
							"type": "uint256"
						}
					],
					"internalType": "struct AviatorStakingPool.RewardSchedule[]",
					"name": "",
					"type": "tuple[]"
				}
			],
			"stateMutability": "view",
			"type": "function"
		},
		{
			"inputs": [
				{
					"internalType": "bytes32",
					"name": "role",
					"type": "bytes32"
				}
			],
			"name": "getRoleAdmin",
			"outputs": [
				{
					"internalType": "bytes32",
					"name": "",
					"type": "bytes32"
				}
			],
			"stateMutability": "view",
			"type": "function"
		},
		{
			"inputs": [
				{
					"internalType": "bytes32",
					"name": "role",
					"type": "bytes32"
				},
				{
					"internalType": "uint256",
					"name": "index",
					"type": "uint256"
				}
			],
			"name": "getRoleMember",
			"outputs": [
				{
					"internalType": "address",
					"name": "",
					"type": "address"
				}
			],
			"stateMutability": "view",
			"type": "function"
		},
		{
			"inputs": [
				{
					"internalType": "bytes32",
					"name": "role",
					"type": "bytes32"
				}
			],
			"name": "getRoleMemberCount",
			"outputs": [
				{
					"internalType": "uint256",
					"name": "",
					"type": "uint256"
				}
			],
			"stateMutability": "view",
			"type": "function"
		},
		{
			"inputs": [
				{
					"internalType": "bytes32",
					"name": "role",
					"type": "bytes32"
				}
			],
			"name": "getRoleMembers",
			"outputs": [
				{
					"internalType": "address[]",
					"name": "",
					"type": "address[]"
				}
			],
			"stateMutability": "view",
			"type": "function"
		},
		{
			"inputs": [
				{
					"internalType": "address",
					"name": "account",
					"type": "address"
				},
				{
					"internalType": "uint256",
					"name": "stakeId",
					"type": "uint256"
				}
			],
			"name": "getStakePosition",
			"outputs": [
				{
					"components": [
						{
							"internalType": "uint256",
							"name": "amount",
							"type": "uint256"
						},
						{
							"internalType": "uint256",
							"name": "unlockTime",
							"type": "uint256"
						},
						{
							"internalType": "bool",
							"name": "withdrawn",
							"type": "bool"
						}
					],
					"internalType": "struct AviatorStakingPool.StakePosition",
					"name": "",
					"type": "tuple"
				}
			],
			"stateMutability": "view",
			"type": "function"
		},
		{
			"inputs": [
				{
					"internalType": "address",
					"name": "account",
					"type": "address"
				}
			],
			"name": "getUnlockedBalance",
			"outputs": [
				{
					"internalType": "uint256",
					"name": "",
					"type": "uint256"
				}
			],
			"stateMutability": "view",
			"type": "function"
		},
		{
			"inputs": [
				{
					"internalType": "address",
					"name": "account",
					"type": "address"
				}
			],
			"name": "getUserStakePositionCount",
			"outputs": [
				{
					"internalType": "uint256",
					"name": "",
					"type": "uint256"
				}
			],
			"stateMutability": "view",
			"type": "function"
		},
		{
			"inputs": [
				{
					"internalType": "address",
					"name": "account",
					"type": "address"
				}
			],
			"name": "getUserStakePositions",
			"outputs": [
				{
					"components": [
						{
							"internalType": "uint256",
							"name": "amount",
							"type": "uint256"
						},
						{
							"internalType": "uint256",
							"name": "unlockTime",
							"type": "uint256"
						},
						{
							"internalType": "bool",
							"name": "withdrawn",
							"type": "bool"
						}
					],
					"internalType": "struct AviatorStakingPool.StakePosition[]",
					"name": "",
					"type": "tuple[]"
				}
			],
			"stateMutability": "view",
			"type": "function"
		},
		{
			"inputs": [],
			"name": "getWhitelistedRewardTokens",
			"outputs": [
				{
					"internalType": "address[]",
					"name": "",
					"type": "address[]"
				}
			],
			"stateMutability": "view",
			"type": "function"
		},
		{
			"inputs": [
				{
					"internalType": "bytes32",
					"name": "role",
					"type": "bytes32"
				},
				{
					"internalType": "address",
					"name": "account",
					"type": "address"
				}
			],
			"name": "grantRole",
			"outputs": [],
			"stateMutability": "nonpayable",
			"type": "function"
		},
		{
			"inputs": [
				{
					"internalType": "bytes32",
					"name": "role",
					"type": "bytes32"
				},
				{
					"internalType": "address",
					"name": "account",
					"type": "address"
				}
			],
			"name": "hasRole",
			"outputs": [
				{
					"internalType": "bool",
					"name": "",
					"type": "bool"
				}
			],
			"stateMutability": "view",
			"type": "function"
		},
		{
			"inputs": [
				{
					"internalType": "address",
					"name": "account",
					"type": "address"
				}
			],
			"name": "isBlacklisted",
			"outputs": [
				{
					"internalType": "bool",
					"name": "",
					"type": "bool"
				}
			],
			"stateMutability": "view",
			"type": "function"
		},
		{
			"inputs": [
				{
					"internalType": "address",
					"name": "",
					"type": "address"
				}
			],
			"name": "lastStakeTime",
			"outputs": [
				{
					"internalType": "uint256",
					"name": "",
					"type": "uint256"
				}
			],
			"stateMutability": "view",
			"type": "function"
		},
		{
			"inputs": [],
			"name": "lastTotalSupplyZeroTime",
			"outputs": [
				{
					"internalType": "uint256",
					"name": "",
					"type": "uint256"
				}
			],
			"stateMutability": "view",
			"type": "function"
		},
		{
			"inputs": [
				{
					"internalType": "address",
					"name": "",
					"type": "address"
				}
			],
			"name": "lastUpdateTimePerToken",
			"outputs": [
				{
					"internalType": "uint256",
					"name": "",
					"type": "uint256"
				}
			],
			"stateMutability": "view",
			"type": "function"
		},
		{
			"inputs": [],
			"name": "minimumLockDuration",
			"outputs": [
				{
					"internalType": "uint256",
					"name": "",
					"type": "uint256"
				}
			],
			"stateMutability": "view",
			"type": "function"
		},
		{
			"inputs": [],
			"name": "name",
			"outputs": [
				{
					"internalType": "string",
					"name": "",
					"type": "string"
				}
			],
			"stateMutability": "view",
			"type": "function"
		},
		{
			"inputs": [],
			"name": "pause",
			"outputs": [],
			"stateMutability": "nonpayable",
			"type": "function"
		},
		{
			"inputs": [],
			"name": "paused",
			"outputs": [
				{
					"internalType": "bool",
					"name": "",
					"type": "bool"
				}
			],
			"stateMutability": "view",
			"type": "function"
		},
		{
			"inputs": [
				{
					"internalType": "address",
					"name": "token",
					"type": "address"
				}
			],
			"name": "removeRewardToken",
			"outputs": [],
			"stateMutability": "nonpayable",
			"type": "function"
		},
		{
			"inputs": [
				{
					"internalType": "bytes32",
					"name": "role",
					"type": "bytes32"
				},
				{
					"internalType": "address",
					"name": "callerConfirmation",
					"type": "address"
				}
			],
			"name": "renounceRole",
			"outputs": [],
			"stateMutability": "nonpayable",
			"type": "function"
		},
		{
			"inputs": [
				{
					"internalType": "bytes32",
					"name": "role",
					"type": "bytes32"
				},
				{
					"internalType": "address",
					"name": "account",
					"type": "address"
				}
			],
			"name": "revokeRole",
			"outputs": [],
			"stateMutability": "nonpayable",
			"type": "function"
		},
		{
			"inputs": [
				{
					"internalType": "address",
					"name": "token",
					"type": "address"
				}
			],
			"name": "rewardPerToken",
			"outputs": [
				{
					"internalType": "uint256",
					"name": "",
					"type": "uint256"
				}
			],
			"stateMutability": "view",
			"type": "function"
		},
		{
			"inputs": [
				{
					"internalType": "address",
					"name": "",
					"type": "address"
				}
			],
			"name": "rewardPerTokenStoredPerToken",
			"outputs": [
				{
					"internalType": "uint256",
					"name": "",
					"type": "uint256"
				}
			],
			"stateMutability": "view",
			"type": "function"
		},
		{
			"inputs": [
				{
					"internalType": "address",
					"name": "",
					"type": "address"
				},
				{
					"internalType": "uint256",
					"name": "",
					"type": "uint256"
				}
			],
			"name": "rewardSchedules",
			"outputs": [
				{
					"internalType": "uint256",
					"name": "rewardRate",
					"type": "uint256"
				},
				{
					"internalType": "uint256",
					"name": "startTime",
					"type": "uint256"
				},
				{
					"internalType": "uint256",
					"name": "endTime",
					"type": "uint256"
				},
				{
					"internalType": "uint256",
					"name": "totalSupplied",
					"type": "uint256"
				},
				{
					"internalType": "uint256",
					"name": "pausedAt",
					"type": "uint256"
				},
				{
					"internalType": "uint256",
					"name": "totalPausedTime",
					"type": "uint256"
				}
			],
			"stateMutability": "view",
			"type": "function"
		},
		{
			"inputs": [
				{
					"internalType": "uint256",
					"name": "",
					"type": "uint256"
				}
			],
			"name": "rewardTokensList",
			"outputs": [
				{
					"internalType": "address",
					"name": "",
					"type": "address"
				}
			],
			"stateMutability": "view",
			"type": "function"
		},
		{
			"inputs": [
				{
					"internalType": "address",
					"name": "",
					"type": "address"
				},
				{
					"internalType": "address",
					"name": "",
					"type": "address"
				}
			],
			"name": "rewardsPerToken",
			"outputs": [
				{
					"internalType": "uint256",
					"name": "",
					"type": "uint256"
				}
			],
			"stateMutability": "view",
			"type": "function"
		},
		{
			"inputs": [
				{
					"internalType": "uint256",
					"name": "_claimFeeETH",
					"type": "uint256"
				}
			],
			"name": "setClaimFeeETH",
			"outputs": [],
			"stateMutability": "nonpayable",
			"type": "function"
		},
		{
			"inputs": [
				{
					"internalType": "address",
					"name": "_feeReceiver",
					"type": "address"
				}
			],
			"name": "setFeeReceiver",
			"outputs": [],
			"stateMutability": "nonpayable",
			"type": "function"
		},
		{
			"inputs": [
				{
					"internalType": "uint256",
					"name": "_minimumLockDuration",
					"type": "uint256"
				}
			],
			"name": "setMinimumLockDuration",
			"outputs": [],
			"stateMutability": "nonpayable",
			"type": "function"
		},
		{
			"inputs": [
				{
					"internalType": "uint256",
					"name": "amount",
					"type": "uint256"
				}
			],
			"name": "stake",
			"outputs": [],
			"stateMutability": "nonpayable",
			"type": "function"
		},
		{
			"inputs": [
				{
					"internalType": "uint256",
					"name": "amount",
					"type": "uint256"
				},
				{
					"internalType": "uint256",
					"name": "lock",
					"type": "uint256"
				}
			],
			"name": "stakeWithBonus",
			"outputs": [],
			"stateMutability": "nonpayable",
			"type": "function"
		},
		{
			"inputs": [],
			"name": "stakingToken",
			"outputs": [
				{
					"internalType": "contract IERC20",
					"name": "",
					"type": "address"
				}
			],
			"stateMutability": "view",
			"type": "function"
		},
		{
			"inputs": [
				{
					"internalType": "address",
					"name": "token",
					"type": "address"
				},
				{
					"internalType": "uint256",
					"name": "amount",
					"type": "uint256"
				},
				{
					"internalType": "uint256",
					"name": "duration",
					"type": "uint256"
				}
			],
			"name": "supplyRewards",
			"outputs": [],
			"stateMutability": "nonpayable",
			"type": "function"
		},
		{
			"inputs": [
				{
					"internalType": "bytes4",
					"name": "interfaceId",
					"type": "bytes4"
				}
			],
			"name": "supportsInterface",
			"outputs": [
				{
					"internalType": "bool",
					"name": "",
					"type": "bool"
				}
			],
			"stateMutability": "view",
			"type": "function"
		},
		{
			"inputs": [],
			"name": "symbol",
			"outputs": [
				{
					"internalType": "string",
					"name": "",
					"type": "string"
				}
			],
			"stateMutability": "view",
			"type": "function"
		},
		{
			"inputs": [],
			"name": "totalSupply",
			"outputs": [
				{
					"internalType": "uint256",
					"name": "",
					"type": "uint256"
				}
			],
			"stateMutability": "view",
			"type": "function"
		},
		{
			"inputs": [
				{
					"internalType": "address",
					"name": "to",
					"type": "address"
				},
				{
					"internalType": "uint256",
					"name": "value",
					"type": "uint256"
				}
			],
			"name": "transfer",
			"outputs": [
				{
					"internalType": "bool",
					"name": "",
					"type": "bool"
				}
			],
			"stateMutability": "nonpayable",
			"type": "function"
		},
		{
			"inputs": [
				{
					"internalType": "address",
					"name": "from",
					"type": "address"
				},
				{
					"internalType": "address",
					"name": "to",
					"type": "address"
				},
				{
					"internalType": "uint256",
					"name": "value",
					"type": "uint256"
				}
			],
			"name": "transferFrom",
			"outputs": [
				{
					"internalType": "bool",
					"name": "",
					"type": "bool"
				}
			],
			"stateMutability": "nonpayable",
			"type": "function"
		},
		{
			"inputs": [
				{
					"internalType": "address",
					"name": "account",
					"type": "address"
				}
			],
			"name": "unblacklistWallet",
			"outputs": [],
			"stateMutability": "nonpayable",
			"type": "function"
		},
		{
			"inputs": [],
			"name": "unpause",
			"outputs": [],
			"stateMutability": "nonpayable",
			"type": "function"
		},
		{
			"inputs": [
				{
					"internalType": "address",
					"name": "",
					"type": "address"
				},
				{
					"internalType": "address",
					"name": "",
					"type": "address"
				}
			],
			"name": "userRewardPerTokenPaidPerToken",
			"outputs": [
				{
					"internalType": "uint256",
					"name": "",
					"type": "uint256"
				}
			],
			"stateMutability": "view",
			"type": "function"
		},
		{
			"inputs": [
				{
					"internalType": "address",
					"name": "",
					"type": "address"
				}
			],
			"name": "userStakeCount",
			"outputs": [
				{
					"internalType": "uint256",
					"name": "",
					"type": "uint256"
				}
			],
			"stateMutability": "view",
			"type": "function"
		},
		{
			"inputs": [
				{
					"internalType": "address",
					"name": "",
					"type": "address"
				},
				{
					"internalType": "uint256",
					"name": "",
					"type": "uint256"
				}
			],
			"name": "userStakePositions",
			"outputs": [
				{
					"internalType": "uint256",
					"name": "amount",
					"type": "uint256"
				},
				{
					"internalType": "uint256",
					"name": "unlockTime",
					"type": "uint256"
				},
				{
					"internalType": "bool",
					"name": "withdrawn",
					"type": "bool"
				}
			],
			"stateMutability": "view",
			"type": "function"
		},
		{
			"inputs": [
				{
					"internalType": "address",
					"name": "",
					"type": "address"
				}
			],
			"name": "userStaked",
			"outputs": [
				{
					"internalType": "uint256",
					"name": "",
					"type": "uint256"
				}
			],
			"stateMutability": "view",
			"type": "function"
		},
		{
			"inputs": [],
			"name": "vault",
			"outputs": [
				{
					"internalType": "contract AviatorRewardsVault",
					"name": "",
					"type": "address"
				}
			],
			"stateMutability": "view",
			"type": "function"
		},
		{
			"inputs": [],
			"name": "wasTotalSupplyZero",
			"outputs": [
				{
					"internalType": "bool",
					"name": "",
					"type": "bool"
				}
			],
			"stateMutability": "view",
			"type": "function"
		},
		{
			"inputs": [
				{
					"internalType": "address",
					"name": "",
					"type": "address"
				}
			],
			"name": "whitelistedRewardTokens",
			"outputs": [
				{
					"internalType": "bool",
					"name": "",
					"type": "bool"
				}
			],
			"stateMutability": "view",
			"type": "function"
		},
		{
			"inputs": [
				{
					"internalType": "uint256",
					"name": "amount",
					"type": "uint256"
				}
			],
			"name": "withdraw",
			"outputs": [],
			"stateMutability": "nonpayable",
			"type": "function"
		},
		{
			"inputs": [
				{
					"internalType": "uint256",
					"name": "stakeId",
					"type": "uint256"
				}
			],
			"name": "withdrawStakePosition",
			"outputs": [],
			"stateMutability": "nonpayable",
			"type": "function"
		}
	]
}