{
	"data": {
		"bytecode": {
			"linkReferences": {},
			"object": "6080604052348015600e575f5ffd5b5060156019565b60c9565b7ff0c57e16840df040f15088dc2f81fe391c3923bec73e23a9662efc9c229c6a00805468010000000000000000900460ff161560685760405163f92ee8a960e01b815260040160405180910390fd5b80546001600160401b039081161460c65780546001600160401b0319166001600160401b0390811782556040519081527fc7f505b2f371ae2175ee4913f4499e1f2633a7b5936321eed1cdaeb6115181d29060200160405180910390a15b50565b615884806100d65f395ff3fe6080604052600436106104af575f3560e01c80637547c7a31161026d578063c40868931161014a578063dc21fb76116100be578063ec35fde511610083578063ec35fde514610f5d578063efdcd97414610f7c578063f122977714610f9b578063f9f92be414610fba578063fbfa77cf14610fe8578063fe575a8714611007575f5ffd5b8063dc21fb7614610e9c578063e583983614610ec8578063e5b7910614610eff578063e63ab1e914610f1e578063e985e9c514610f3e575f5ffd5b8063cc7045d71161010f578063cc7045d714610da4578063d051665014610db7578063d547741f14610de5578063d5a44f8614610e04578063d79e856714610e69578063d8f6749514610e88575f5ffd5b8063c408689314610d1d578063c423be2514610d3c578063c6ddd3a014610d51578063c87b56dd14610d66578063ca15c87314610d85575f5ffd5b80639f001169116101e1578063a6eec453116101a6578063a6eec45314610c36578063b3f0067414610c55578063b72b85a114610c74578063b80e679314610c93578063b88d4fde14610cdf578063c0c53b8b14610cfe575f5ffd5b80639f00116914610ba5578063a217fddf14610bc4578063a22cb46514610bd7578063a3246ad314610bf6578063a3d046a814610c22575f5ffd5b806389e632071161023257806389e6320714610ae55780639010d07c14610b1157806391d1485414610b3057806395d89b4114610b4f5780639d86b85014610b635780639e88ec1014610b78575f5ffd5b80637547c7a314610a4757806375794a3c14610a6657806375b238fc14610a7b57806378a2574b14610a9b5780638456cb5914610ad1575f5ffd5b8063313da78f1161039b57806355b8fb811161030f5780635da9e169116102d45780635da9e1691461098e57806360f588b7146109ad57806362441bf6146109cc5780636352211e146109eb57806370a0823114610a0a57806372f702f314610a29575f5ffd5b806355b8fb81146108ec578063567e98f91461090b5780635b34bc41146109205780635bfc82ad1461093f5780635c975abb1461096b575f5ffd5b80633f4ba83a116103605780633f4ba83a1461084557806342842e0e1461085957806345b35f56146108785780634f6ccce7146108805780635225f9871461089f57806354fd83c1146108cd575f5ffd5b8063313da78f146107a35780633455f41e146107cf57806336568abe146107ee5780633d509c971461080d5780633dd6aa421461082c575f5ffd5b806318160ddd1161043257806323b872dd116103f757806323b872dd146106dd578063248a9ca3146106fc57806328bcf07a1461071b5780632e1a7d4d146107465780632f2ff15d146107655780632f745c5914610784575f5ffd5b806318160ddd1461064c5780631b7447f11461066c5780631c03e6cc1461068b5780631c1f78eb146106aa578063211dc32d146106be575f5ffd5b8063081812fc11610478578063081812fc14610576578063095ea7b3146105ad57806311b567b9146105cc578063129de5bf146106025780631422880614610621575f5ffd5b80628cc262146104b357806301ffc9a7146104e557806304f6c0ef1461051457806306a85f0f1461053557806306fdde0314610555575b5f5ffd5b3480156104be575f5ffd5b506104d26104cd366004614e8d565b61103e565b6040519081526020015b60405180910390f35b3480156104f0575f5ffd5b506105046104ff366004614ebd565b611085565b60405190151581526020016104dc565b34801561051f575f5ffd5b5061053361052e366004614ed8565b61108f565b005b348015610540575f5ffd5b506104d25f51602061576f5f395f51905f5281565b348015610560575f5ffd5b50610569611143565b6040516104dc9190614f1d565b348015610581575f5ffd5b50610595610590366004614ed8565b6111e4565b6040516001600160a01b0390911681526020016104dc565b3480156105b8575f5ffd5b506105336105c7366004614f2f565b6111f8565b3480156105d7575f5ffd5b506104d26105e6366004614f59565b600d60209081525f928352604080842090915290825290205481565b34801561060d575f5ffd5b506104d261061c366004614e8d565b611207565b34801561062c575f5ffd5b506104d261063b366004614e8d565b600c6020525f908152604090205481565b348015610657575f5ffd5b505f5160206157af5f395f51905f52546104d2565b348015610677575f5ffd5b506104d2610686366004614f90565b61127a565b348015610696575f5ffd5b506105336106a5366004614e8d565b611377565b3480156106b5575f5ffd5b506104d26114b7565b3480156106c9575f5ffd5b506104d26106d8366004614f59565b611507565b3480156106e8575f5ffd5b506105336106f7366004614fb0565b61158e565b348015610707575f5ffd5b506104d2610716366004614ed8565b611617565b348015610726575f5ffd5b506104d2610735366004614e8d565b600b6020525f908152604090205481565b348015610751575f5ffd5b50610533610760366004614ed8565b611637565b348015610770575f5ffd5b5061053361077f366004614fee565b611849565b34801561078f575f5ffd5b506104d261079e366004614f2f565b611865565b3480156107ae575f5ffd5b506107c26107bd366004614e8d565b6118d6565b6040516104dc919061504b565b3480156107da575f5ffd5b506104d26107e9366004614e8d565b611962565b3480156107f9575f5ffd5b50610533610808366004614fee565b6119c4565b348015610818575f5ffd5b50610533610827366004614e8d565b6119fc565b348015610837575f5ffd5b506012546105049060ff1681565b348015610850575f5ffd5b50610533611ba2565b348015610864575f5ffd5b50610533610873366004614fb0565b611bc1565b610533611bdb565b34801561088b575f5ffd5b506104d261089a366004614ed8565b611e4d565b3480156108aa575f5ffd5b506105046108b9366004614e8d565b60086020525f908152604090205460ff1681565b3480156108d8575f5ffd5b506105336108e7366004614ed8565b611ebf565b3480156108f7575f5ffd5b50610533610906366004614fb0565b611f0b565b348015610916575f5ffd5b506104d260035481565b34801561092b575f5ffd5b5061053361093a366004614e8d565b611f93565b34801561094a575f5ffd5b5061095e610959366004614e8d565b611ff3565b6040516104dc919061505d565b348015610976575f5ffd5b505f5160206157ef5f395f51905f525460ff16610504565b348015610999575f5ffd5b506105956109a8366004614ed8565b6120a0565b3480156109b8575f5ffd5b506105336109c7366004614e8d565b6120c8565b3480156109d7575f5ffd5b506105336109e6366004614e8d565b612190565b3480156109f6575f5ffd5b50610595610a05366004614ed8565b6123b4565b348015610a15575f5ffd5b506104d2610a24366004614e8d565b6123be565b348015610a34575f5ffd5b505f54610595906001600160a01b031681565b348015610a52575f5ffd5b506104d2610a61366004614ed8565b612416565b348015610a71575f5ffd5b506104d260025481565b348015610a86575f5ffd5b506104d25f51602061582f5f395f51905f5281565b348015610aa6575f5ffd5b506104d2610ab5366004614f59565b600e60209081525f928352604080842090915290825290205481565b348015610adc575f5ffd5b5061053361251a565b348015610af0575f5ffd5b50610b04610aff366004614ed8565b612539565b6040516104dc91906150d9565b348015610b1c575f5ffd5b50610595610b2b366004614f90565b612602565b348015610b3b575f5ffd5b50610504610b4a366004614fee565b61262f565b348015610b5a575f5ffd5b50610569612665565b348015610b6e575f5ffd5b506104d260045481565b348015610b83575f5ffd5b50610b97610b92366004614e8d565b6126a3565b6040516104dc92919061513f565b348015610bb0575f5ffd5b50610533610bbf366004614e8d565b6127e3565b348015610bcf575f5ffd5b506104d25f81565b348015610be2575f5ffd5b50610533610bf1366004615163565b6128a7565b348015610c01575f5ffd5b50610c15610c10366004614ed8565b6128b2565b6040516104dc9190615193565b348015610c2d575f5ffd5b506105336128db565b348015610c41575f5ffd5b50610533610c503660046151a5565b6129dc565b348015610c60575f5ffd5b50600654610595906001600160a01b031681565b348015610c7f575f5ffd5b50610533610c8e366004614fb0565b612c03565b348015610c9e575f5ffd5b50610cb2610cad366004614f2f565b612cd7565b604080519687526020870195909552938501929092526060840152608083015260a082015260c0016104dc565b348015610cea575f5ffd5b50610533610cf93660046151eb565b612d27565b348015610d09575f5ffd5b50610533610d183660046152c9565b612d3f565b348015610d28575f5ffd5b506104d2610d37366004614e8d565b612f48565b348015610d47575f5ffd5b506104d260055481565b348015610d5c575f5ffd5b506104d260115481565b348015610d71575f5ffd5b50610569610d80366004614ed8565b612fb2565b348015610d90575f5ffd5b506104d2610d9f366004614ed8565b613022565b610533610db2366004614e8d565b613046565b348015610dc2575f5ffd5b50610504610dd1366004614e8d565b600f6020525f908152604090205460ff1681565b348015610df0575f5ffd5b50610533610dff366004614fee565b61324f565b348015610e0f575f5ffd5b50610e47610e1e366004614ed8565b60076020525f908152604090208054600182015460028301546003909301549192909160ff1684565b60408051948552602085019390935291830152151560608201526080016104dc565b348015610e74575f5ffd5b50610533610e83366004614f2f565b61326b565b348015610e93575f5ffd5b50610c156132fb565b348015610ea7575f5ffd5b50610ebb610eb6366004614e8d565b61335b565b6040516104dc9190615311565b348015610ed3575f5ffd5b50610504610ee2366004614e8d565b6001600160a01b03165f908152600f602052604090205460ff1690565b348015610f0a575f5ffd5b50610533610f19366004615376565b613465565b348015610f29575f5ffd5b506104d25f51602061578f5f395f51905f5281565b348015610f49575f5ffd5b50610504610f58366004614f59565b613498565b348015610f68575f5ffd5b506104d2610f77366004614e8d565b6134e4565b348015610f87575f5ffd5b50610533610f96366004614e8d565b61359e565b348015610fa6575f5ffd5b506104d2610fb5366004614e8d565b613647565b348015610fc5575f5ffd5b50610504610fd4366004614e8d565b60106020525f908152604090205460ff1681565b348015610ff3575f5ffd5b50600154610595906001600160a01b031681565b348015611012575f5ffd5b50610504611021366004614e8d565b6001600160a01b03165f9081526010602052604090205460ff1690565b6009545f901561107e576110788260095f8154811061105f5761105f6153e5565b5f918252602090912001546001600160a01b0316611507565b92915050565b505f919050565b5f611078826136ca565b5f51602061582f5f395f51905f526110a6816136ee565b5f82116111065760405162461bcd60e51b8152602060048201526024808201527f4c6f636b206475726174696f6e206d75737420626520677265617465722074686044820152630616e20360e41b60648201526084015b60405180910390fd5b60048290556040518281527f0be752d502ead9f7f68ae425a37976abee08f7d72a78e613d13a0c1ac153915f906020015b60405180910390a15050565b5f51602061574f5f395f51905f528054606091908190611162906153f9565b80601f016020809104026020016040519081016040528092919081815260200182805461118e906153f9565b80156111d95780601f106111b0576101008083540402835291602001916111d9565b820191905f5260205f20905b8154815290600101906020018083116111bc57829003601f168201915b505050505091505090565b5f6111ee826136f8565b506110788261372f565b611203828233613768565b5050565b5f5f611212836123be565b90505f805b82811015611272575f61122a8683611865565b5f81815260076020526040902060038101549192509060ff16158015611254575080600101544210155b156112685780546112659085615445565b93505b5050600101611217565b509392505050565b5f611283613775565b335f5b6009548110156112e6575f600982815481106112a4576112a46153e5565b5f9182526020808320909101546001600160a01b0316808352600890915260409091205490915060ff16156112dd576112dd81846137ac565b50600101611286565b506112ef61389d565b335f908152600f602052604090205460ff1615611321573360405163df681a9360e01b81526004016110fd9190615458565b335f9081526010602052604090205460ff1615611353573360405163e34017e160e01b81526004016110fd91906154b3565b61135e3385856138cd565b91505061107860015f51602061580f5f395f51905f5255565b5f51602061582f5f395f51905f5261138e816136ee565b6001600160a01b0382166113dc5760405162461bcd60e51b8152602060048201526015602482015274496e76616c696420746f6b656e206164647265737360581b60448201526064016110fd565b6001600160a01b0382165f9081526008602052604090205460ff1615611420576040516301e2357560e01b81526001600160a01b03831660048201526024016110fd565b6001600160a01b0382165f818152600860209081526040808320805460ff191660019081179091556009805491820190557f6e1540171b6c0c960b71a7020d9f60077f6af931a8bbf590da0223dacf75c7af0180546001600160a01b03191685179055600b909152808220429055517ff3e4c2c64e71e6ba2eaab9a599bced62f9eb91d2cda610bf41aa8c80ff2cf8269190a25050565b6009545f9015611502576114f060095f815481106114d7576114d76153e5565b5f918252602090912001546001600160a01b03166134e4565b6114fd90621275006154f5565b905090565b505f90565b6001600160a01b038083165f818152600e6020908152604080832094861680845294825280832054938352600d825280832094835293905291822054670de0b6b3a76400009061155685613647565b611560919061550c565b61156986611962565b61157391906154f5565b61157d919061551f565b6115879190615445565b9392505050565b6001600160a01b0382166115b757604051633250574960e11b81525f60048201526024016110fd565b5f6115c3838333613a56565b9050836001600160a01b0316816001600160a01b031614611611576040516364283d7b60e01b81526001600160a01b03808616600483015260248201849052821660448201526064016110fd565b50505050565b5f9081525f5160206157cf5f395f51905f52602052604090206001015490565b61163f613775565b335f5b6009548110156116a2575f60098281548110611660576116606153e5565b5f9182526020808320909101546001600160a01b0316808352600890915260409091205490915060ff16156116995761169981846137ac565b50600101611642565b506116ab61389d565b335f908152600f602052604090205460ff16156116dd573360405163df681a9360e01b81526004016110fd9190615458565b335f9081526010602052604090205460ff161561170f573360405163e34017e160e01b81526004016110fd91906154b3565b33611719836123b4565b6001600160a01b0316146117435760405163cda6dd4760e01b8152600481018390526024016110fd565b5f828152600760205260409020600381015460ff16156117795760405163a810fad960e01b8152600481018490526024016110fd565b80600101544210156117ad5760018101546040516310f2604160e01b815242600482015260248101919091526044016110fd565b80546003808301805460ff1916600117905580548291905f906117d190849061550c565b909155506117e0905084613b78565b5f546117f6906001600160a01b03163383613bb0565b604051818152849033907f92ccf450a286a957af52509bc1c9939d1a6a481783e142e41e2499f0bb66ebc69060200160405180910390a350505061184660015f51602061580f5f395f51905f5255565b50565b61185282611617565b61185b816136ee565b6116118383613c0f565b5f5f51602061572f5f395f51905f5261187d846123be565b83106118ae5760405163295f44f760e21b81526001600160a01b0385166004820152602481018490526044016110fd565b6001600160a01b0384165f908152602091825260408082208583529092522054905092915050565b60605f6118e2836123be565b90505f816001600160401b038111156118fd576118fd6151d7565b604051908082528060200260200182016040528015611926578160200160208202803683370190505b5090505f5b828110156112725761193d8582611865565b82828151811061194f5761194f6153e5565b602090810291909101015260010161192b565b5f5f61196d836123be565b90505f805b82811015611272575f6119858683611865565b5f8181526007602052604090206003015490915060ff166119bb575f818152600760205260409020546119b89084615445565b92505b50600101611972565b6001600160a01b03811633146119ed5760405163334bd91960e11b815260040160405180910390fd5b6119f78282613c51565b505050565b5f51602061582f5f395f51905f52611a13816136ee565b6001600160a01b0382165f9081526008602052604090205460ff16611a565760405163751dff9760e11b81526001600160a01b03831660048201526024016110fd565b6001600160a01b0382165f908152600860205260408120805460ff191690555b600954811015611b6a57826001600160a01b031660098281548110611a9d57611a9d6153e5565b5f918252602090912001546001600160a01b031603611b625760098054611ac69060019061550c565b81548110611ad657611ad66153e5565b5f91825260209091200154600980546001600160a01b039092169183908110611b0157611b016153e5565b905f5260205f20015f6101000a8154816001600160a01b0302191690836001600160a01b031602179055506009805480611b3d57611b3d61553e565b5f8281526020902081015f1990810180546001600160a01b0319169055019055611b6a565b600101611a76565b506040516001600160a01b038316907f66257bcef574219c04f7c05f7a1c78d599da10491294c92a5805c48b4cdf5009905f90a25050565b5f51602061578f5f395f51905f52611bb9816136ee565b611846613c8a565b6119f783838360405180602001604052805f815250612d27565b611be3613775565b611beb61389d565b335f908152600f602052604090205460ff1615611c1d573360405163df681a9360e01b81526004016110fd9190615458565b335f9081526010602052604090205460ff1615611c4f573360405163e34017e160e01b81526004016110fd91906154b3565b600554341015611c9a5760405162461bcd60e51b8152602060048201526016602482015275496e73756666696369656e7420636c61696d2066656560501b60448201526064016110fd565b5f805b600954811015611dea575f60098281548110611cbb57611cbb6153e5565b5f9182526020808320909101546001600160a01b0316808352600890915260409091205490915060ff1615611de157611cf481336137ac565b335f908152600e602090815260408083206001600160a01b03851684529091529020548015611ddf57335f818152600e602090815260408083206001600160a01b038781168552925280832092909255600154915163cd8515cf60e01b815291169163cd8515cf91611d6d919086908690600401615552565b5f604051808303815f87803b158015611d84575f5ffd5b505af1158015611d96573d5f5f3e3d5ffd5b50506040518381526001600160a01b03851692503391507f540798df468d7b23d11f156fdb954cb19ad414d150722a7b6d55ba369dea792e9060200160405180910390a3600193505b505b50600101611c9d565b505f34118015611df75750805b15611e34576006546040516001600160a01b03909116903480156108fc02915f818181858888f19350505050158015611e32573d5f5f3e3d5ffd5b505b50611e4b60015f51602061580f5f395f51905f5255565b565b5f5f51602061572f5f395f51905f52611e715f5160206157af5f395f51905f525490565b8310611e995760405163295f44f760e21b81525f6004820152602481018490526044016110fd565b806002018381548110611eae57611eae6153e5565b905f5260205f200154915050919050565b5f51602061582f5f395f51905f52611ed6816136ee565b60058290556040518281527fc4530a2c82a973da2165d940859f86f630ca14e4ea7679c03bed6a999d029bf190602001611137565b5f51602061582f5f395f51905f52611f22816136ee565b611f366001600160a01b0385168484613bb0565b826001600160a01b0316846001600160a01b0316336001600160a01b03167f2503bf16a63c716afc6165935443fdbfcda0bfae53b99ae0935bc46d1298bb8685604051611f8591815260200190565b60405180910390a450505050565b5f51602061582f5f395f51905f52611faa816136ee565b6001600160a01b0382165f81815260106020526040808220805460ff19169055517f1747ca720b1a174a464b6513ace29b1d3190b5f632b9f34147017c81425bfde89190a25050565b6001600160a01b0381165f908152600a60209081526040808320805482518185028101850190935280835260609492939192909184015b82821015612095578382905f5260205f2090600602016040518060c00160405290815f8201548152602001600182015481526020016002820154815260200160038201548152602001600482015481526020016005820154815250508152602001906001019061202a565b505050509050919050565b600981815481106120af575f80fd5b5f918252602090912001546001600160a01b0316905081565b5f51602061576f5f395f51905f526120df816136ee565b6001600160a01b0382165f908152600f602052604090205460ff166121335760405162461bcd60e51b815260206004820152600a6024820152692737ba10333937bd32b760b11b60448201526064016110fd565b6001600160a01b0382165f818152600f602052604090819020805460ff19169055517fe9d414cb75f78aacbb354c06488f105d0c3f5461b45c70b59fc05b44844f264e906121849042815260200190565b60405180910390a25050565b5f51602061582f5f395f51905f526121a7816136ee565b815f5b60095481101561220a575f600982815481106121c8576121c86153e5565b5f9182526020808320909101546001600160a01b0316808352600890915260409091205490915060ff16156122015761220181846137ac565b506001016121aa565b506001600160a01b0383165f908152601060205260408120805460ff19166001179055612236846123be565b90505f811561237a575f5b828110156122b2575f6122548783611865565b5f81815260076020526040902060038101549192509060ff166122a857805461227d9085615445565b6003808301805460ff1916600117905582548154929650915f906122a290849061550c565b90915550505b5050600101612241565b505f5b600954811015612319576001600160a01b0386165f908152600e6020526040812060098054839190859081106122ed576122ed6153e5565b5f9182526020808320909101546001600160a01b031683528201929092526040019020556001016122b5565b50801561237a575f54612336906001600160a01b03168683613bb0565b846001600160a01b03167ff7d69068585ead05d609f5965c9147570964ea979546ee5b072f31b7c31a6ee58260405161237191815260200190565b60405180910390a25b6040516001600160a01b038616907f44d5fe68b00f68950fb9c1ff0a61ef7f747b1a36359a7e3a7f3324db4b878967905f90a25050505050565b5f611078826136f8565b5f5f51602061574f5f395f51905f526001600160a01b0383166123f6576040516322718ad960e21b81525f60048201526024016110fd565b6001600160a01b039092165f908152600390920160205250604090205490565b5f61241f613775565b335f5b600954811015612482575f60098281548110612440576124406153e5565b5f9182526020808320909101546001600160a01b0316808352600890915260409091205490915060ff16156124795761247981846137ac565b50600101612422565b5061248b61389d565b335f908152600f602052604090205460ff16156124bd573360405163df681a9360e01b81526004016110fd9190615458565b335f9081526010602052604090205460ff16156124ef573360405163e34017e160e01b81526004016110fd91906154b3565b6124fc33846004546138cd565b91505061251560015f51602061580f5f395f51905f5255565b919050565b5f51602061578f5f395f51905f52612531816136ee565b611846613ce9565b61256260405180608001604052805f81526020015f81526020015f81526020015f151581525090565b5f61256c83613d31565b6001600160a01b0316036125b95760405162461bcd60e51b8152602060048201526014602482015273151bdad95b88191bd95cc81b9bdd08195e1a5cdd60621b60448201526064016110fd565b505f9081526007602090815260409182902082516080810184528154815260018201549281019290925260028101549282019290925260039091015460ff161515606082015290565b5f8281525f51602061570f5f395f51905f526020819052604082206126279084613d6a565b949350505050565b5f9182525f5160206157cf5f395f51905f52602090815260408084206001600160a01b0393909316845291905290205460ff1690565b7f80bb2b638cc20bc4d0a60d66940f3ab4a00c1d7b313497ca82fb0b4ab007930180546060915f51602061574f5f395f51905f5291611162906153f9565b60095460609081906001600160401b038111156126c2576126c26151d7565b6040519080825280602002602001820160405280156126eb578160200160208202803683370190505b506009549092506001600160401b03811115612709576127096151d7565b604051908082528060200260200182016040528015612732578160200160208202803683370190505b5090505f5b6009548110156127dd5760098181548110612754576127546153e5565b905f5260205f20015f9054906101000a90046001600160a01b0316838281518110612781576127816153e5565b60200260200101906001600160a01b031690816001600160a01b0316815250506127b8846009838154811061105f5761105f6153e5565b8282815181106127ca576127ca6153e5565b6020908102919091010152600101612737565b50915091565b5f51602061576f5f395f51905f526127fa816136ee565b6001600160a01b0382165f908152600f602052604090205460ff16156128535760405162461bcd60e51b815260206004820152600e60248201526d20b63932b0b23c90333937bd32b760911b60448201526064016110fd565b6001600160a01b0382165f818152600f602052604090819020805460ff19166001179055517fb161c4aa40cd54b43336c4b57f33a7308a27aa65d081c1aafacc49b51002659d906121849042815260200190565b611203338383613d75565b5f8181525f51602061570f5f395f51905f52602081905260409091206060919061158790613e24565b5f6128e5336123be565b90505f816001600160401b03811115612900576129006151d7565b604051908082528060200260200182016040528015612929578160200160208202803683370190505b5090505f805b838110156129a7575f6129423383611865565b5f81815260076020526040902060038101549192509060ff1615801561296c575080600101544210155b1561299d5781858581518110612984576129846153e5565b60209081029190910101528361299981615576565b9450505b505060010161292f565b505f5b81811015611611576129d48382815181106129c7576129c76153e5565b6020026020010151611637565b6001016129aa565b5f51602061582f5f395f51905f526129f3816136ee565b835f6129ff82826137ac565b6001600160a01b0386165f9081526008602052604090205460ff16612a425760405163751dff9760e11b81526001600160a01b03871660048201526024016110fd565b5f8511612a915760405162461bcd60e51b815260206004820152601760248201527f43616e6e6f7420737570706c792030207265776172647300000000000000000060448201526064016110fd565b5f8411612ae05760405162461bcd60e51b815260206004820152601f60248201527f4475726174696f6e206d7573742062652067726561746572207468616e20300060448201526064016110fd565b600154612afc906001600160a01b038881169133911688613e30565b6001600160a01b0386165f908152600a602052604090819020815160c081019092529080612b2a878961551f565b81526020014281526020018642612b419190615445565b815260208082018990525f604080840182905260609384018290528554600181810188559683529183902085516006909302019182559184015194810194909455820151600284015581015160038301556080810151600483015560a001516005909101556001600160a01b0386167f0727302becd070529b3293f4ec8f553d9f6ae1773f638598db1205fbf89080838686612bdd818361551f565b6040805193845260208401929092529082015260600160405180910390a2505050505050565b5f51602061582f5f395f51905f52612c1a816136ee565b6040516323b872dd60e01b815284906001600160a01b038216906323b872dd90612c4c90309088908890600401615552565b5f604051808303815f87803b158015612c63575f5ffd5b505af1158015612c75573d5f5f3e3d5ffd5b50505050836001600160a01b0316856001600160a01b0316336001600160a01b03167f4744bb01c1ab0b5b28a5d0006a4318240b4e4243c572309d6814313ea8e0554986604051612cc891815260200190565b60405180910390a45050505050565b600a602052815f5260405f208181548110612cf0575f80fd5b5f91825260209091206006909102018054600182015460028301546003840154600485015460059095015493965091945092909186565b612d3284848461158e565b6116113385858585613e58565b5f612d48613f80565b805490915060ff600160401b82041615906001600160401b03165f81158015612d6e5750825b90505f826001600160401b03166001148015612d895750303b155b905081158015612d97575080155b15612db55760405163f92ee8a960e01b815260040160405180910390fd5b845467ffffffffffffffff191660011785558315612ddf57845460ff60401b1916600160401b1785555b612e386040518060400160405280601681526020017520bb34b0ba37b91029ba30b5b2902837b9b4ba34b7b760511b815250604051806040016040528060098152602001681cdd1055924b53919560ba1b815250613fa8565b612e40613fba565b612e48613fba565b612e50613fc2565b612e58613fba565b5f80546001600160a01b03808a166001600160a01b0319928316178355600180548a8316908416178155600255626ebe006004556611c37937e0800060055560068054918c1691909216179055612eaf9089613c0f565b50612ec75f51602061582f5f395f51905f5289613c0f565b50612edf5f51602061578f5f395f51905f5289613c0f565b50612ef75f51602061576f5f395f51905f5289613c0f565b508315612f3e57845460ff60401b19168555604051600181527fc7f505b2f371ae2175ee4913f4499e1f2633a7b5936321eed1cdaeb6115181d29060200160405180910390a15b5050505050505050565b5f5f612f53836123be565b90505f805b82811015611272575f612f6b8683611865565b5f81815260076020526040902060038101549192509060ff16158015612f945750806001015442105b15612fa8578054612fa59085615445565b93505b5050600101612f58565b6060612fbd826136f8565b505f612fd360408051602081019091525f815290565b90505f815111612ff15760405180602001604052805f815250611587565b80612ffb84613fd2565b60405160200161300c9291906155a5565b6040516020818303038152906040529392505050565b5f8181525f51602061570f5f395f51905f5260208190526040822061158790614061565b61304e613775565b803361305a82826137ac565b61306261389d565b335f908152600f602052604090205460ff1615613094573360405163df681a9360e01b81526004016110fd9190615458565b335f9081526010602052604090205460ff16156130c6573360405163e34017e160e01b81526004016110fd91906154b3565b6005543410156131115760405162461bcd60e51b8152602060048201526016602482015275496e73756666696369656e7420636c61696d2066656560501b60448201526064016110fd565b335f908152600e602090815260408083206001600160a01b038716845290915290205480156131f857335f818152600e602090815260408083206001600160a01b038981168552925280832092909255600154915163cd8515cf60e01b815291169163cd8515cf9161318a919088908690600401615552565b5f604051808303815f87803b1580156131a1575f5ffd5b505af11580156131b3573d5f5f3e3d5ffd5b50506040518381526001600160a01b03871692503391507f540798df468d7b23d11f156fdb954cb19ad414d150722a7b6d55ba369dea792e9060200160405180910390a35b3415613236576006546040516001600160a01b03909116903480156108fc02915f818181858888f19350505050158015613234573d5f5f3e3d5ffd5b505b50505061184660015f51602061580f5f395f51905f5255565b61325882611617565b613261816136ee565b6116118383613c51565b5f51602061582f5f395f51905f52613282816136ee565b6040516001600160a01b0384169083156108fc029084905f818181858888f193505050501580156132b5573d5f5f3e3d5ffd5b506040518281526001600160a01b0384169033907f51a3aef945b229f9f13f9c7411484fe8436ed204499a994908f9b913103928ba9060200160405180910390a3505050565b6060600980548060200260200160405190810160405280929190818152602001828054801561335157602002820191905f5260205f20905b81546001600160a01b03168152600190910190602001808311613333575b5050505050905090565b60605f613367836123be565b90505f816001600160401b03811115613382576133826151d7565b6040519080825280602002602001820160405280156133dc57816020015b6133c960405180608001604052805f81526020015f81526020015f81526020015f151581525090565b8152602001906001900390816133a05790505b5090505f5b82811015611272575f6133f48683611865565b5f8181526007602090815260409182902082516080810184528154815260018201549281019290925260028101549282019290925260039091015460ff1615156060820152845191925090849084908110613451576134516153e5565b6020908102919091010152506001016133e1565b5f5b818110156119f757613490838383818110613484576134846153e5565b90506020020135611637565b600101613467565b6001600160a01b039182165f9081527f80bb2b638cc20bc4d0a60d66940f3ab4a00c1d7b313497ca82fb0b4ab00793056020908152604080832093909416825291909152205460ff1690565b6001600160a01b0381165f908152600a602052604081208190815b81548110156135955781818154811061351a5761351a6153e5565b905f5260205f2090600602016001015442101580156135595750818181548110613546576135466153e5565b905f5260205f2090600602016002015442105b1561358d57818181548110613570576135706153e5565b905f5260205f2090600602015f01548361358a9190615445565b92505b6001016134ff565b50909392505050565b5f51602061582f5f395f51905f526135b5816136ee565b6001600160a01b0382166135fd5760405162461bcd60e51b815260206004820152600f60248201526e496e76616c6964206164647265737360881b60448201526064016110fd565b600680546001600160a01b0319166001600160a01b0384169081179091556040517fbdf37c276f641820b141429d245add2552b4118c0866e5a78638e3de5ef18d9d905f90a25050565b5f6003545f0361366c57506001600160a01b03165f908152600c602052604090205490565b5f613676836134e4565b6001600160a01b0384165f908152600b60205260408120549192509061369c904261550c565b90506136a882826154f5565b6001600160a01b0385165f908152600c60205260409020546126279190615445565b5f6001600160e01b03198216635a05180f60e01b148061107857506110788261406a565b611846813361408e565b5f5f61370383613d31565b90506001600160a01b03811661107857604051637e27328960e01b8152600481018490526024016110fd565b5f9081527f80bb2b638cc20bc4d0a60d66940f3ab4a00c1d7b313497ca82fb0b4ab007930460205260409020546001600160a01b031690565b6119f783838360016140c7565b5f51602061580f5f395f51905f528054600119016137a657604051633ee5aeb560e01b815260040160405180910390fd5b60029055565b6137b46141da565b60035415613827575f6137c6836134e4565b6001600160a01b0384165f908152600b6020526040812054919250906137ec904261550c565b90506137f882826154f5565b6001600160a01b0385165f908152600c60205260408120805490919061381f908490615445565b909155505050505b6001600160a01b038083165f908152600b60205260409020429055811615611203576138538183611507565b6001600160a01b039182165f818152600e602090815260408083209690951680835295815284822093909355600c835283812054918152600d835283812094815293909152912055565b5f5160206157ef5f395f51905f525460ff1615611e4b5760405163d93c066560e01b815260040160405180910390fd5b5f5f831161390e5760405162461bcd60e51b815260206004820152600e60248201526d043616e6e6f74207374616b6520360941b60448201526064016110fd565b60045482101561393c576004805460405163102313b160e31b815291820184905260248201526044016110fd565b5f54613953906001600160a01b0316853086613e30565b600280545f918261396383615576565b919050559050613973858261442a565b604051806080016040528085815260200184426139909190615445565b8152426020808301919091525f604092830181905284815260078252828120845181559184015160018301559183015160028201556060909201516003928301805460ff19169115159190911790558154869291906139f0908490615445565b9091555050604080518581526020810185905282916001600160a01b038816917fb4caaf29adda3eefee3ad552a8e85058589bf834c7466cae4ee58787f70589ed910160405180910390a3949350505050565b60015f51602061580f5f395f51905f5255565b5f5f613a6184613d31565b90506001600160a01b03811615613af7576001600160a01b0381165f908152600f602052604090205460ff1615613af7576040805163df681a9360e01b81526001600160a01b03831660048201526024810191909152602260448201527f43616e6e6f74207472616e736665723a206163636f756e742069732066726f7a60648201526132b760f11b608482015260a4016110fd565b5f5b600954811015613b63575f60098281548110613b1757613b176153e5565b5f9182526020808320909101546001600160a01b0316808352600890915260409091205490915060ff1615613b5a57613b5081846137ac565b613b5a81886137ac565b50600101613af9565b50613b6f858585614443565b95945050505050565b5f613b845f835f613a56565b90506001600160a01b03811661120357604051637e27328960e01b8152600481018390526024016110fd565b6040516001600160a01b038381166024830152604482018390526119f791859182169063a9059cbb906064015b604051602081830303815290604052915060e01b6020820180516001600160e01b038381831617835250505050614539565b5f5f51602061570f5f395f51905f5281613c2985856145a5565b90508015612627575f858152602083905260409020613c489085614646565b50949350505050565b5f5f51602061570f5f395f51905f5281613c6b858561465a565b90508015612627575f858152602083905260409020613c4890856146d3565b613c926146e7565b5f5160206157ef5f395f51905f52805460ff191681557f5db9ee0a495bf2e6ff9c91a7834c1ba4fdd244a5e8aa4e537bd38aeae4b073aa335b6040516001600160a01b03909116815260200160405180910390a150565b613cf161389d565b5f5160206157ef5f395f51905f52805460ff191660011781557f62e78cea01bee320cd4e420270b5ea74000d11b0c9f74754ebdbfc544b05a25833613ccb565b5f9081527f80bb2b638cc20bc4d0a60d66940f3ab4a00c1d7b313497ca82fb0b4ab007930260205260409020546001600160a01b031690565b5f6115878383614716565b5f51602061574f5f395f51905f526001600160a01b038316613db557604051630b61174360e31b81526001600160a01b03841660048201526024016110fd565b6001600160a01b038481165f818152600584016020908152604080832094881680845294825291829020805460ff191687151590811790915591519182527f17307eab39ab6107e8899845ad3d59bd9653f200f220920489ca2b5937696c31910160405180910390a350505050565b60605f6115878361473c565b61161184856001600160a01b03166323b872dd868686604051602401613bdd93929190615552565b6001600160a01b0383163b15613f7957604051630a85bd0160e11b81526001600160a01b0384169063150b7a0290613e9a9088908890879087906004016155b9565b6020604051808303815f875af1925050508015613ed4575060408051601f3d908101601f19168201909252613ed1918101906155f5565b60015b613f3b573d808015613f01576040519150601f19603f3d011682016040523d82523d5f602084013e613f06565b606091505b5080515f03613f3357604051633250574960e11b81526001600160a01b03851660048201526024016110fd565b805160208201fd5b6001600160e01b03198116630a85bd0160e11b14613f7757604051633250574960e11b81526001600160a01b03851660048201526024016110fd565b505b5050505050565b5f807ff0c57e16840df040f15088dc2f81fe391c3923bec73e23a9662efc9c229c6a00611078565b613fb0614795565b61120382826147ba565b611e4b614795565b613fca614795565b611e4b6147ea565b60605f613fde836147f2565b60010190505f816001600160401b03811115613ffc57613ffc6151d7565b6040519080825280601f01601f191660200182016040528015614026576020820181803683370190505b5090508181016020015b5f19016f181899199a1a9b1b9c1cb0b131b232b360811b600a86061a8153600a850494508461403057509392505050565b5f611078825490565b5f6001600160e01b03198216637965db0b60e01b14806110785750611078826148c9565b614098828261262f565b6112035760405163e2517d3f60e01b81526001600160a01b0382166004820152602481018390526044016110fd565b5f51602061574f5f395f51905f5281806140e957506001600160a01b03831615155b156141aa575f6140f8856136f8565b90506001600160a01b038416158015906141245750836001600160a01b0316816001600160a01b031614155b801561413757506141358185613498565b155b156141605760405163a9fbf51f60e01b81526001600160a01b03851660048201526024016110fd565b82156141a85784866001600160a01b0316826001600160a01b03167f8c5be1e5ebec7d5bd14f71427d1e84f3dd0314c0f7b2291e5b200ac8c7c3b92560405160405180910390a45b505b5f93845260040160205250506040902080546001600160a01b0319166001600160a01b0392909216919091179055565b600354158080156141ee575060125460ff16155b1561431057426011556012805460ff191660011790555f5b600954811015611203575f60098281548110614224576142246153e5565b5f9182526020808320909101546001600160a01b0316808352600a90915260408220909250905b815481101561430557818181548110614266576142666153e5565b905f5260205f209060060201600401545f1480156142a55750818181548110614291576142916153e5565b905f5260205f209060060201600101544210155b80156142d157508181815481106142be576142be6153e5565b905f5260205f2090600602016002015442105b156142fd57428282815481106142e9576142e96153e5565b905f5260205f209060060201600401819055505b60010161424b565b505050600101614206565b80158015614320575060125460ff165b15611846575f60115442614334919061550c565b6012805460ff1916905590505f5b6009548110156119f7575f60098281548110614360576143606153e5565b5f9182526020808320909101546001600160a01b0316808352600a90915260408220909250905b815481101561441f575f8282815481106143a3576143a36153e5565b905f5260205f20906006020160040154111561441757848282815481106143cc576143cc6153e5565b905f5260205f2090600602016005015f8282546143e99190615445565b925050819055505f828281548110614403576144036153e5565b905f5260205f209060060201600401819055505b600101614387565b505050600101614342565b611203828260405180602001604052805f8152506148ed565b5f5f614450858585614904565b90506001600160a01b0381166144d7576144d2845f5160206157af5f395f51905f5280545f8381527f645e039705490088daad89bae25049a34f4a9072d398537b1ab2425f24cbed0360205260408120829055600182018355919091527fa42f15e5d656f8155fd7419d740a6073999f19cd6e061449ce4a257150545bf20155565b6144fa565b846001600160a01b0316816001600160a01b0316146144fa576144fa8185614a06565b6001600160a01b0385166145165761451184614a9d565b612627565b846001600160a01b0316816001600160a01b031614612627576126278585614b6a565b5f5f60205f8451602086015f885af180614558576040513d5f823e3d81fd5b50505f513d9150811561456f57806001141561457c565b6001600160a01b0384163b155b1561161157604051635274afe760e01b81526001600160a01b03851660048201526024016110fd565b5f5f5160206157cf5f395f51905f526145be848461262f565b61463d575f848152602082815260408083206001600160a01b03871684529091529020805460ff191660011790556145f33390565b6001600160a01b0316836001600160a01b0316857f2f8788117e7eff1d82e926ec794901d17c78024a50270940304540a733656f0d60405160405180910390a46001915050611078565b5f915050611078565b5f611587836001600160a01b038416614bc2565b5f5f5160206157cf5f395f51905f52614673848461262f565b1561463d575f848152602082815260408083206001600160a01b0387168085529252808320805460ff1916905551339287917ff6391f5c32d9c69d2a47ea670b442974b53935d1edc7fd64eb21e047a839171b9190a46001915050611078565b5f611587836001600160a01b038416614c0e565b5f5160206157ef5f395f51905f525460ff16611e4b57604051638dfc202b60e01b815260040160405180910390fd5b5f825f01828154811061472b5761472b6153e5565b905f5260205f200154905092915050565b6060815f0180548060200260200160405190810160405280929190818152602001828054801561478957602002820191905f5260205f20905b815481526020019060010190808311614775575b50505050509050919050565b61479d614ce8565b611e4b57604051631afcd79f60e31b815260040160405180910390fd5b6147c2614795565b5f51602061574f5f395f51905f52806147db8482615654565b50600181016116118382615654565b613a43614795565b5f8072184f03e93ff9f4daa797ed6e38ed64bf6a1f0160401b83106148305772184f03e93ff9f4daa797ed6e38ed64bf6a1f0160401b830492506040015b6d04ee2d6d415b85acef8100000000831061485c576d04ee2d6d415b85acef8100000000830492506020015b662386f26fc10000831061487a57662386f26fc10000830492506010015b6305f5e1008310614892576305f5e100830492506008015b61271083106148a657612710830492506004015b606483106148b8576064830492506002015b600a83106110785760010192915050565b5f6001600160e01b0319821663780e9d6360e01b1480611078575061107882614d01565b6148f78383614d50565b6119f7335f858585613e58565b5f5f51602061574f5f395f51905f528161491d85613d31565b90506001600160a01b0384161561493957614939818587614db1565b6001600160a01b03811615614975576149545f865f5f6140c7565b6001600160a01b0381165f908152600383016020526040902080545f190190555b6001600160a01b038616156149a5576001600160a01b0386165f9081526003830160205260409020805460010190555b5f85815260028301602052604080822080546001600160a01b0319166001600160a01b038a811691821790925591518893918516917fddf252ad1be2c89b69c2b068fc378daa952ba7f163c4a11628f55a4df523b3ef91a495945050505050565b5f51602061572f5f395f51905f525f614a1e846123be565b5f8481526001840160209081526040808320546001600160a01b03891684529186905290912091925090818314614a76575f838152602082815260408083205485845281842081905583526001870190915290208290555b5f948552600190930160209081526040808620869055928552929092528220919091555050565b5f5160206157af5f395f51905f52545f51602061572f5f395f51905f52905f90614ac99060019061550c565b5f848152600384016020526040812054600285018054939450909284908110614af457614af46153e5565b905f5260205f200154905080846002018381548110614b1557614b156153e5565b5f91825260208083209091019290925582815260038601909152604080822084905586825281205560028401805480614b5057614b5061553e565b600190038181905f5260205f20015f905590555050505050565b5f51602061572f5f395f51905f525f6001614b84856123be565b614b8e919061550c565b6001600160a01b039094165f9081526020838152604080832087845282528083208690559482526001909301909252502055565b5f818152600183016020526040812054614c0757508154600181810184555f848152602080822090930184905584548482528286019093526040902091909155611078565b505f611078565b5f818152600183016020526040812054801561463d575f614c3060018361550c565b85549091505f90614c439060019061550c565b9050808214614ca2575f865f018281548110614c6157614c616153e5565b905f5260205f200154905080875f018481548110614c8157614c816153e5565b5f918252602080832090910192909255918252600188019052604090208390555b8554869080614cb357614cb361553e565b600190038181905f5260205f20015f90559055856001015f8681526020019081526020015f205f905560019350505050611078565b5f614cf1613f80565b54600160401b900460ff16919050565b5f6001600160e01b031982166380ac58cd60e01b1480614d3157506001600160e01b03198216635b5e139f60e01b145b8061107857506301ffc9a760e01b6001600160e01b0319831614611078565b6001600160a01b038216614d7957604051633250574960e11b81525f60048201526024016110fd565b5f614d8583835f613a56565b90506001600160a01b038116156119f7576040516339e3563760e11b81525f60048201526024016110fd565b614dbc838383614e15565b6119f7576001600160a01b038316614dea57604051637e27328960e01b8152600481018290526024016110fd565b60405163177e802f60e01b81526001600160a01b0383166004820152602481018290526044016110fd565b5f6001600160a01b038316158015906126275750826001600160a01b0316846001600160a01b03161480614e4e5750614e4e8484613498565b806126275750826001600160a01b0316614e678361372f565b6001600160a01b031614949350505050565b6001600160a01b0381168114611846575f5ffd5b5f60208284031215614e9d575f5ffd5b813561158781614e79565b6001600160e01b031981168114611846575f5ffd5b5f60208284031215614ecd575f5ffd5b813561158781614ea8565b5f60208284031215614ee8575f5ffd5b5035919050565b5f81518084528060208401602086015e5f602082860101526020601f19601f83011685010191505092915050565b602081525f6115876020830184614eef565b5f5f60408385031215614f40575f5ffd5b8235614f4b81614e79565b946020939093013593505050565b5f5f60408385031215614f6a575f5ffd5b8235614f7581614e79565b91506020830135614f8581614e79565b809150509250929050565b5f5f60408385031215614fa1575f5ffd5b50508035926020909101359150565b5f5f5f60608486031215614fc2575f5ffd5b8335614fcd81614e79565b92506020840135614fdd81614e79565b929592945050506040919091013590565b5f5f60408385031215614fff575f5ffd5b823591506020830135614f8581614e79565b5f8151808452602084019350602083015f5b82811015615041578151865260209586019590910190600101615023565b5093949350505050565b602081525f6115876020830184615011565b602080825282518282018190525f918401906040840190835b818110156150ce578351805184526020810151602085015260408101516040850152606081015160608501526080810151608085015260a081015160a08501525060c083019250602084019350600181019050615076565b509095945050505050565b81518152602080830151908201526040808301519082015260608083015115159082015260808101611078565b5f8151808452602084019350602083015f5b828110156150415781516001600160a01b0316865260209586019590910190600101615118565b604081525f6151516040830185615106565b8281036020840152613b6f8185615011565b5f5f60408385031215615174575f5ffd5b823561517f81614e79565b915060208301358015158114614f85575f5ffd5b602081525f6115876020830184615106565b5f5f5f606084860312156151b7575f5ffd5b83356151c281614e79565b95602085013595506040909401359392505050565b634e487b7160e01b5f52604160045260245ffd5b5f5f5f5f608085870312156151fe575f5ffd5b843561520981614e79565b9350602085013561521981614e79565b92506040850135915060608501356001600160401b0381111561523a575f5ffd5b8501601f8101871361524a575f5ffd5b80356001600160401b03811115615263576152636151d7565b604051601f8201601f19908116603f011681016001600160401b0381118282101715615291576152916151d7565b6040528181528282016020018910156152a8575f5ffd5b816020840160208301375f6020838301015280935050505092959194509250565b5f5f5f606084860312156152db575f5ffd5b83356152e681614e79565b925060208401356152f681614e79565b9150604084013561530681614e79565b809150509250925092565b602080825282518282018190525f918401906040840190835b818110156150ce576153608385518051825260208101516020830152604081015160408301526060810151151560608301525050565b602093909301926080929092019160010161532a565b5f5f60208385031215615387575f5ffd5b82356001600160401b0381111561539c575f5ffd5b8301601f810185136153ac575f5ffd5b80356001600160401b038111156153c1575f5ffd5b8560208260051b84010111156153d5575f5ffd5b6020919091019590945092505050565b634e487b7160e01b5f52603260045260245ffd5b600181811c9082168061540d57607f821691505b60208210810361542b57634e487b7160e01b5f52602260045260245ffd5b50919050565b634e487b7160e01b5f52601160045260245ffd5b8082018082111561107857611078615431565b6001600160a01b039190911681526040602082018190526029908201527f4163636f756e742069732066726f7a656e20666f7220636f6d706c69616e636560608201526820707572706f73657360b81b608082015260a00190565b6001600160a01b03919091168152604060208201819052601690820152751058d8dbdd5b9d081a5cc8189b1858dadb1a5cdd195960521b606082015260800190565b808202811582820484141761107857611078615431565b8181038181111561107857611078615431565b5f8261553957634e487b7160e01b5f52601260045260245ffd5b500490565b634e487b7160e01b5f52603160045260245ffd5b6001600160a01b039384168152919092166020820152604081019190915260600190565b5f6001820161558757615587615431565b5060010190565b5f81518060208401855e5f93019283525090919050565b5f6126276155b3838661558e565b8461558e565b6001600160a01b03858116825284166020820152604081018390526080606082018190525f906155eb90830184614eef565b9695505050505050565b5f60208284031215615605575f5ffd5b815161158781614ea8565b601f8211156119f757805f5260205f20601f840160051c810160208510156156355750805b601f840160051c820191505b81811015613f79575f8155600101615641565b81516001600160401b0381111561566d5761566d6151d7565b6156818161567b84546153f9565b84615610565b6020601f8211600181146156b3575f831561569c5750848201515b5f19600385901b1c1916600184901b178455613f79565b5f84815260208120601f198516915b828110156156e257878501518255602094850194600190920191016156c2565b50848210156156ff57868401515f19600387901b60f8161c191681555b50505050600190811b0190555056fec1f6fe24621ce81ec5827caf0253cadb74709b061630e6b55e82371705932000645e039705490088daad89bae25049a34f4a9072d398537b1ab2425f24cbed0080bb2b638cc20bc4d0a60d66940f3ab4a00c1d7b313497ca82fb0b4ab007930092de27771f92d6942691d73358b3a4673e4880de8356f8f2cf452be87e02d36365d7a28e3265b37a6474929f336521b332c1681b933f6cb9f3376673440d862a645e039705490088daad89bae25049a34f4a9072d398537b1ab2425f24cbed0202dd7bc7dec4dceedda775e58dd541e08a116c6c53815c0bd028192f7b626800cd5ed15c6e187e77e9aee88184c21f4f2182ab5827cb3b7e07fbedcd63f033009b779b17422d0df92223018b32b4d1fa46e071723d6817e2486d003becc55f00a49807205ce4d355092ef5a8a18f56e8913cf4a201fbe287825b095693c21775a2646970667358221220c0be95ba79ea060cfe73bb45fcece3930515315280b25fcccfd4028d3a9a6e1a64736f6c634300081d0033",
			"opcodes": "PUSH1 0x80 PUSH1 0x40 MSTORE CALLVALUE DUP1 ISZERO PUSH1 0xE JUMPI PUSH0 PUSH0 REVERT JUMPDEST POP PUSH1 0x15 PUSH1 0x19 JUMP JUMPDEST PUSH1 0xC9 JUMP JUMPDEST PUSH32 0xF0C57E16840DF040F15088DC2F81FE391C3923BEC73E23A9662EFC9C229C6A00 DUP1 SLOAD PUSH9 0x10000000000000000 SWAP1 DIV PUSH1 0xFF AND ISZERO PUSH1 0x68 JUMPI PUSH1 0x40 MLOAD PUSH4 0xF92EE8A9 PUSH1 0xE0 SHL DUP2 MSTORE PUSH1 0x4 ADD PUSH1 0x40 MLOAD DUP1 SWAP2 SUB SWAP1 REVERT JUMPDEST DUP1 SLOAD PUSH1 0x1 PUSH1 0x1 PUSH1 0x40 SHL SUB SWAP1 DUP2 AND EQ PUSH1 0xC6 JUMPI DUP1 SLOAD PUSH1 0x1 PUSH1 0x1 PUSH1 0x40 SHL SUB NOT AND PUSH1 0x1 PUSH1 0x1 PUSH1 0x40 SHL SUB SWAP1 DUP2 OR DUP3 SSTORE PUSH1 0x40 MLOAD SWAP1 DUP2 MSTORE PUSH32 0xC7F505B2F371AE2175EE4913F4499E1F2633A7B5936321EED1CDAEB6115181D2 SWAP1 PUSH1 0x20 ADD PUSH1 0x40 MLOAD DUP1 SWAP2 SUB SWAP1 LOG1 JUMPDEST POP JUMP JUMPDEST PUSH2 0x5884 DUP1 PUSH2 0xD6 PUSH0 CODECOPY PUSH0 RETURN INVALID PUSH1 0x80 PUSH1 0x40 MSTORE PUSH1 0x4 CALLDATASIZE LT PUSH2 0x4AF JUMPI PUSH0 CALLDATALOAD PUSH1 0xE0 SHR DUP1 PUSH4 0x7547C7A3 GT PUSH2 0x26D JUMPI DUP1 PUSH4 0xC4086893 GT PUSH2 0x14A JUMPI DUP1 PUSH4 0xDC21FB76 GT PUSH2 0xBE JUMPI DUP1 PUSH4 0xEC35FDE5 GT PUSH2 0x83 JUMPI DUP1 PUSH4 0xEC35FDE5 EQ PUSH2 0xF5D JUMPI DUP1 PUSH4 0xEFDCD974 EQ PUSH2 0xF7C JUMPI DUP1 PUSH4 0xF1229777 EQ PUSH2 0xF9B JUMPI DUP1 PUSH4 0xF9F92BE4 EQ PUSH2 0xFBA JUMPI DUP1 PUSH4 0xFBFA77CF EQ PUSH2 0xFE8 JUMPI DUP1 PUSH4 0xFE575A87 EQ PUSH2 0x1007 JUMPI PUSH0 PUSH0 REVERT JUMPDEST DUP1 PUSH4 0xDC21FB76 EQ PUSH2 0xE9C JUMPI DUP1 PUSH4 0xE5839836 EQ PUSH2 0xEC8 JUMPI DUP1 PUSH4 0xE5B79106 EQ PUSH2 0xEFF JUMPI DUP1 PUSH4 0xE63AB1E9 EQ PUSH2 0xF1E JUMPI DUP1 PUSH4 0xE985E9C5 EQ PUSH2 0xF3E JUMPI PUSH0 PUSH0 REVERT JUMPDEST DUP1 PUSH4 0xCC7045D7 GT PUSH2 0x10F JUMPI DUP1 PUSH4 0xCC7045D7 EQ PUSH2 0xDA4 JUMPI DUP1 PUSH4 0xD0516650 EQ PUSH2 0xDB7 JUMPI DUP1 PUSH4 0xD547741F EQ PUSH2 0xDE5 JUMPI DUP1 PUSH4 0xD5A44F86 EQ PUSH2 0xE04 JUMPI DUP1 PUSH4 0xD79E8567 EQ PUSH2 0xE69 JUMPI DUP1 PUSH4 0xD8F67495 EQ PUSH2 0xE88 JUMPI PUSH0 PUSH0 REVERT JUMPDEST DUP1 PUSH4 0xC4086893 EQ PUSH2 0xD1D JUMPI DUP1 PUSH4 0xC423BE25 EQ PUSH2 0xD3C JUMPI DUP1 PUSH4 0xC6DDD3A0 EQ PUSH2 0xD51 JUMPI DUP1 PUSH4 0xC87B56DD EQ PUSH2 0xD66 JUMPI DUP1 PUSH4 0xCA15C873 EQ PUSH2 0xD85 JUMPI PUSH0 PUSH0 REVERT JUMPDEST DUP1 PUSH4 0x9F001169 GT PUSH2 0x1E1 JUMPI DUP1 PUSH4 0xA6EEC453 GT PUSH2 0x1A6 JUMPI DUP1 PUSH4 0xA6EEC453 EQ PUSH2 0xC36 JUMPI DUP1 PUSH4 0xB3F00674 EQ PUSH2 0xC55 JUMPI DUP1 PUSH4 0xB72B85A1 EQ PUSH2 0xC74 JUMPI DUP1 PUSH4 0xB80E6793 EQ PUSH2 0xC93 JUMPI DUP1 PUSH4 0xB88D4FDE EQ PUSH2 0xCDF JUMPI DUP1 PUSH4 0xC0C53B8B EQ PUSH2 0xCFE JUMPI PUSH0 PUSH0 REVERT JUMPDEST DUP1 PUSH4 0x9F001169 EQ PUSH2 0xBA5 JUMPI DUP1 PUSH4 0xA217FDDF EQ PUSH2 0xBC4 JUMPI DUP1 PUSH4 0xA22CB465 EQ PUSH2 0xBD7 JUMPI DUP1 PUSH4 0xA3246AD3 EQ PUSH2 0xBF6 JUMPI DUP1 PUSH4 0xA3D046A8 EQ PUSH2 0xC22 JUMPI PUSH0 PUSH0 REVERT JUMPDEST DUP1 PUSH4 0x89E63207 GT PUSH2 0x232 JUMPI DUP1 PUSH4 0x89E63207 EQ PUSH2 0xAE5 JUMPI DUP1 PUSH4 0x9010D07C EQ PUSH2 0xB11 JUMPI DUP1 PUSH4 0x91D14854 EQ PUSH2 0xB30 JUMPI DUP1 PUSH4 0x95D89B41 EQ PUSH2 0xB4F JUMPI DUP1 PUSH4 0x9D86B850 EQ PUSH2 0xB63 JUMPI DUP1 PUSH4 0x9E88EC10 EQ PUSH2 0xB78 JUMPI PUSH0 PUSH0 REVERT JUMPDEST DUP1 PUSH4 0x7547C7A3 EQ PUSH2 0xA47 JUMPI DUP1 PUSH4 0x75794A3C EQ PUSH2 0xA66 JUMPI DUP1 PUSH4 0x75B238FC EQ PUSH2 0xA7B JUMPI DUP1 PUSH4 0x78A2574B EQ PUSH2 0xA9B JUMPI DUP1 PUSH4 0x8456CB59 EQ PUSH2 0xAD1 JUMPI PUSH0 PUSH0 REVERT JUMPDEST DUP1 PUSH4 0x313DA78F GT PUSH2 0x39B JUMPI DUP1 PUSH4 0x55B8FB81 GT PUSH2 0x30F JUMPI DUP1 PUSH4 0x5DA9E169 GT PUSH2 0x2D4 JUMPI DUP1 PUSH4 0x5DA9E169 EQ PUSH2 0x98E JUMPI DUP1 PUSH4 0x60F588B7 EQ PUSH2 0x9AD JUMPI DUP1 PUSH4 0x62441BF6 EQ PUSH2 0x9CC JUMPI DUP1 PUSH4 0x6352211E EQ PUSH2 0x9EB JUMPI DUP1 PUSH4 0x70A08231 EQ PUSH2 0xA0A JUMPI DUP1 PUSH4 0x72F702F3 EQ PUSH2 0xA29 JUMPI PUSH0 PUSH0 REVERT JUMPDEST DUP1 PUSH4 0x55B8FB81 EQ PUSH2 0x8EC JUMPI DUP1 PUSH4 0x567E98F9 EQ PUSH2 0x90B JUMPI DUP1 PUSH4 0x5B34BC41 EQ PUSH2 0x920 JUMPI DUP1 PUSH4 0x5BFC82AD EQ PUSH2 0x93F JUMPI DUP1 PUSH4 0x5C975ABB EQ PUSH2 0x96B JUMPI PUSH0 PUSH0 REVERT JUMPDEST DUP1 PUSH4 0x3F4BA83A GT PUSH2 0x360 JUMPI DUP1 PUSH4 0x3F4BA83A EQ PUSH2 0x845 JUMPI DUP1 PUSH4 0x42842E0E EQ PUSH2 0x859 JUMPI DUP1 PUSH4 0x45B35F56 EQ PUSH2 0x878 JUMPI DUP1 PUSH4 0x4F6CCCE7 EQ PUSH2 0x880 JUMPI DUP1 PUSH4 0x5225F987 EQ PUSH2 0x89F JUMPI DUP1 PUSH4 0x54FD83C1 EQ PUSH2 0x8CD JUMPI PUSH0 PUSH0 REVERT JUMPDEST DUP1 PUSH4 0x313DA78F EQ PUSH2 0x7A3 JUMPI DUP1 PUSH4 0x3455F41E EQ PUSH2 0x7CF JUMPI DUP1 PUSH4 0x36568ABE EQ PUSH2 0x7EE JUMPI DUP1 PUSH4 0x3D509C97 EQ PUSH2 0x80D JUMPI DUP1 PUSH4 0x3DD6AA42 EQ PUSH2 0x82C JUMPI PUSH0 PUSH0 REVERT JUMPDEST DUP1 PUSH4 0x18160DDD GT PUSH2 0x432 JUMPI DUP1 PUSH4 0x23B872DD GT PUSH2 0x3F7 JUMPI DUP1 PUSH4 0x23B872DD EQ PUSH2 0x6DD JUMPI DUP1 PUSH4 0x248A9CA3 EQ PUSH2 0x6FC JUMPI DUP1 PUSH4 0x28BCF07A EQ PUSH2 0x71B JUMPI DUP1 PUSH4 0x2E1A7D4D EQ PUSH2 0x746 JUMPI DUP1 PUSH4 0x2F2FF15D EQ PUSH2 0x765 JUMPI DUP1 PUSH4 0x2F745C59 EQ PUSH2 0x784 JUMPI PUSH0 PUSH0 REVERT JUMPDEST DUP1 PUSH4 0x18160DDD EQ PUSH2 0x64C JUMPI DUP1 PUSH4 0x1B7447F1 EQ PUSH2 0x66C JUMPI DUP1 PUSH4 0x1C03E6CC EQ PUSH2 0x68B JUMPI DUP1 PUSH4 0x1C1F78EB EQ PUSH2 0x6AA JUMPI DUP1 PUSH4 0x211DC32D EQ PUSH2 0x6BE JUMPI PUSH0 PUSH0 REVERT JUMPDEST DUP1 PUSH4 0x81812FC GT PUSH2 0x478 JUMPI DUP1 PUSH4 0x81812FC EQ PUSH2 0x576 JUMPI DUP1 PUSH4 0x95EA7B3 EQ PUSH2 0x5AD JUMPI DUP1 PUSH4 0x11B567B9 EQ PUSH2 0x5CC JUMPI DUP1 PUSH4 0x129DE5BF EQ PUSH2 0x602 JUMPI DUP1 PUSH4 0x14228806 EQ PUSH2 0x621 JUMPI PUSH0 PUSH0 REVERT JUMPDEST DUP1 PUSH3 0x8CC262 EQ PUSH2 0x4B3 JUMPI DUP1 PUSH4 0x1FFC9A7 EQ PUSH2 0x4E5 JUMPI DUP1 PUSH4 0x4F6C0EF EQ PUSH2 0x514 JUMPI DUP1 PUSH4 0x6A85F0F EQ PUSH2 0x535 JUMPI DUP1 PUSH4 0x6FDDE03 EQ PUSH2 0x555 JUMPI JUMPDEST PUSH0 PUSH0 REVERT JUMPDEST CALLVALUE DUP1 ISZERO PUSH2 0x4BE JUMPI PUSH0 PUSH0 REVERT JUMPDEST POP PUSH2 0x4D2 PUSH2 0x4CD CALLDATASIZE PUSH1 0x4 PUSH2 0x4E8D JUMP JUMPDEST PUSH2 0x103E JUMP JUMPDEST PUSH1 0x40 MLOAD SWAP1 DUP2 MSTORE PUSH1 0x20 ADD JUMPDEST PUSH1 0x40 MLOAD DUP1 SWAP2 SUB SWAP1 RETURN JUMPDEST CALLVALUE DUP1 ISZERO PUSH2 0x4F0 JUMPI PUSH0 PUSH0 REVERT JUMPDEST POP PUSH2 0x504 PUSH2 0x4FF CALLDATASIZE PUSH1 0x4 PUSH2 0x4EBD JUMP JUMPDEST PUSH2 0x1085 JUMP JUMPDEST PUSH1 0x40 MLOAD SWAP1 ISZERO ISZERO DUP2 MSTORE PUSH1 0x20 ADD PUSH2 0x4DC JUMP JUMPDEST CALLVALUE DUP1 ISZERO PUSH2 0x51F JUMPI PUSH0 PUSH0 REVERT JUMPDEST POP PUSH2 0x533 PUSH2 0x52E CALLDATASIZE PUSH1 0x4 PUSH2 0x4ED8 JUMP JUMPDEST PUSH2 0x108F JUMP JUMPDEST STOP JUMPDEST CALLVALUE DUP1 ISZERO PUSH2 0x540 JUMPI PUSH0 PUSH0 REVERT JUMPDEST POP PUSH2 0x4D2 PUSH0 MLOAD PUSH1 0x20 PUSH2 0x576F PUSH0 CODECOPY PUSH0 MLOAD SWAP1 PUSH0 MSTORE DUP2 JUMP JUMPDEST CALLVALUE DUP1 ISZERO PUSH2 0x560 JUMPI PUSH0 PUSH0 REVERT JUMPDEST POP PUSH2 0x569 PUSH2 0x1143 JUMP JUMPDEST PUSH1 0x40 MLOAD PUSH2 0x4DC SWAP2 SWAP1 PUSH2 0x4F1D JUMP JUMPDEST CALLVALUE DUP1 ISZERO PUSH2 0x581 JUMPI PUSH0 PUSH0 REVERT JUMPDEST POP PUSH2 0x595 PUSH2 0x590 CALLDATASIZE PUSH1 0x4 PUSH2 0x4ED8 JUMP JUMPDEST PUSH2 0x11E4 JUMP JUMPDEST PUSH1 0x40 MLOAD PUSH1 0x1 PUSH1 0x1 PUSH1 0xA0 SHL SUB SWAP1 SWAP2 AND DUP2 MSTORE PUSH1 0x20 ADD PUSH2 0x4DC JUMP JUMPDEST CALLVALUE DUP1 ISZERO PUSH2 0x5B8 JUMPI PUSH0 PUSH0 REVERT JUMPDEST POP PUSH2 0x533 PUSH2 0x5C7 CALLDATASIZE PUSH1 0x4 PUSH2 0x4F2F JUMP JUMPDEST PUSH2 0x11F8 JUMP JUMPDEST CALLVALUE DUP1 ISZERO PUSH2 0x5D7 JUMPI PUSH0 PUSH0 REVERT JUMPDEST POP PUSH2 0x4D2 PUSH2 0x5E6 CALLDATASIZE PUSH1 0x4 PUSH2 0x4F59 JUMP JUMPDEST PUSH1 0xD PUSH1 0x20 SWAP1 DUP2 MSTORE PUSH0 SWAP3 DUP4 MSTORE PUSH1 0x40 DUP1 DUP5 KECCAK256 SWAP1 SWAP2 MSTORE SWAP1 DUP3 MSTORE SWAP1 KECCAK256 SLOAD DUP2 JUMP JUMPDEST CALLVALUE DUP1 ISZERO PUSH2 0x60D JUMPI PUSH0 PUSH0 REVERT JUMPDEST POP PUSH2 0x4D2 PUSH2 0x61C CALLDATASIZE PUSH1 0x4 PUSH2 0x4E8D JUMP JUMPDEST PUSH2 0x1207 JUMP JUMPDEST CALLVALUE DUP1 ISZERO PUSH2 0x62C JUMPI PUSH0 PUSH0 REVERT JUMPDEST POP PUSH2 0x4D2 PUSH2 0x63B CALLDATASIZE PUSH1 0x4 PUSH2 0x4E8D JUMP JUMPDEST PUSH1 0xC PUSH1 0x20 MSTORE PUSH0 SWAP1 DUP2 MSTORE PUSH1 0x40 SWAP1 KECCAK256 SLOAD DUP2 JUMP JUMPDEST CALLVALUE DUP1 ISZERO PUSH2 0x657 JUMPI PUSH0 PUSH0 REVERT JUMPDEST POP PUSH0 MLOAD PUSH1 0x20 PUSH2 0x57AF PUSH0 CODECOPY PUSH0 MLOAD SWAP1 PUSH0 MSTORE SLOAD PUSH2 0x4D2 JUMP JUMPDEST CALLVALUE DUP1 ISZERO PUSH2 0x677 JUMPI PUSH0 PUSH0 REVERT JUMPDEST POP PUSH2 0x4D2 PUSH2 0x686 CALLDATASIZE PUSH1 0x4 PUSH2 0x4F90 JUMP JUMPDEST PUSH2 0x127A JUMP JUMPDEST CALLVALUE DUP1 ISZERO PUSH2 0x696 JUMPI PUSH0 PUSH0 REVERT JUMPDEST POP PUSH2 0x533 PUSH2 0x6A5 CALLDATASIZE PUSH1 0x4 PUSH2 0x4E8D JUMP JUMPDEST PUSH2 0x1377 JUMP JUMPDEST CALLVALUE DUP1 ISZERO PUSH2 0x6B5 JUMPI PUSH0 PUSH0 REVERT JUMPDEST POP PUSH2 0x4D2 PUSH2 0x14B7 JUMP JUMPDEST CALLVALUE DUP1 ISZERO PUSH2 0x6C9 JUMPI PUSH0 PUSH0 REVERT JUMPDEST POP PUSH2 0x4D2 PUSH2 0x6D8 CALLDATASIZE PUSH1 0x4 PUSH2 0x4F59 JUMP JUMPDEST PUSH2 0x1507 JUMP JUMPDEST CALLVALUE DUP1 ISZERO PUSH2 0x6E8 JUMPI PUSH0 PUSH0 REVERT JUMPDEST POP PUSH2 0x533 PUSH2 0x6F7 CALLDATASIZE PUSH1 0x4 PUSH2 0x4FB0 JUMP JUMPDEST PUSH2 0x158E JUMP JUMPDEST CALLVALUE DUP1 ISZERO PUSH2 0x707 JUMPI PUSH0 PUSH0 REVERT JUMPDEST POP PUSH2 0x4D2 PUSH2 0x716 CALLDATASIZE PUSH1 0x4 PUSH2 0x4ED8 JUMP JUMPDEST PUSH2 0x1617 JUMP JUMPDEST CALLVALUE DUP1 ISZERO PUSH2 0x726 JUMPI PUSH0 PUSH0 REVERT JUMPDEST POP PUSH2 0x4D2 PUSH2 0x735 CALLDATASIZE PUSH1 0x4 PUSH2 0x4E8D JUMP JUMPDEST PUSH1 0xB PUSH1 0x20 MSTORE PUSH0 SWAP1 DUP2 MSTORE PUSH1 0x40 SWAP1 KECCAK256 SLOAD DUP2 JUMP JUMPDEST CALLVALUE DUP1 ISZERO PUSH2 0x751 JUMPI PUSH0 PUSH0 REVERT JUMPDEST POP PUSH2 0x533 PUSH2 0x760 CALLDATASIZE PUSH1 0x4 PUSH2 0x4ED8 JUMP JUMPDEST PUSH2 0x1637 JUMP JUMPDEST CALLVALUE DUP1 ISZERO PUSH2 0x770 JUMPI PUSH0 PUSH0 REVERT JUMPDEST POP PUSH2 0x533 PUSH2 0x77F CALLDATASIZE PUSH1 0x4 PUSH2 0x4FEE JUMP JUMPDEST PUSH2 0x1849 JUMP JUMPDEST CALLVALUE DUP1 ISZERO PUSH2 0x78F JUMPI PUSH0 PUSH0 REVERT JUMPDEST POP PUSH2 0x4D2 PUSH2 0x79E CALLDATASIZE PUSH1 0x4 PUSH2 0x4F2F JUMP JUMPDEST PUSH2 0x1865 JUMP JUMPDEST CALLVALUE DUP1 ISZERO PUSH2 0x7AE JUMPI PUSH0 PUSH0 REVERT JUMPDEST POP PUSH2 0x7C2 PUSH2 0x7BD CALLDATASIZE PUSH1 0x4 PUSH2 0x4E8D JUMP JUMPDEST PUSH2 0x18D6 JUMP JUMPDEST PUSH1 0x40 MLOAD PUSH2 0x4DC SWAP2 SWAP1 PUSH2 0x504B JUMP JUMPDEST CALLVALUE DUP1 ISZERO PUSH2 0x7DA JUMPI PUSH0 PUSH0 REVERT JUMPDEST POP PUSH2 0x4D2 PUSH2 0x7E9 CALLDATASIZE PUSH1 0x4 PUSH2 0x4E8D JUMP JUMPDEST PUSH2 0x1962 JUMP JUMPDEST CALLVALUE DUP1 ISZERO PUSH2 0x7F9 JUMPI PUSH0 PUSH0 REVERT JUMPDEST POP PUSH2 0x533 PUSH2 0x808 CALLDATASIZE PUSH1 0x4 PUSH2 0x4FEE JUMP JUMPDEST PUSH2 0x19C4 JUMP JUMPDEST CALLVALUE DUP1 ISZERO PUSH2 0x818 JUMPI PUSH0 PUSH0 REVERT JUMPDEST POP PUSH2 0x533 PUSH2 0x827 CALLDATASIZE PUSH1 0x4 PUSH2 0x4E8D JUMP JUMPDEST PUSH2 0x19FC JUMP JUMPDEST CALLVALUE DUP1 ISZERO PUSH2 0x837 JUMPI PUSH0 PUSH0 REVERT JUMPDEST POP PUSH1 0x12 SLOAD PUSH2 0x504 SWAP1 PUSH1 0xFF AND DUP2 JUMP JUMPDEST CALLVALUE DUP1 ISZERO PUSH2 0x850 JUMPI PUSH0 PUSH0 REVERT JUMPDEST POP PUSH2 0x533 PUSH2 0x1BA2 JUMP JUMPDEST CALLVALUE DUP1 ISZERO PUSH2 0x864 JUMPI PUSH0 PUSH0 REVERT JUMPDEST POP PUSH2 0x533 PUSH2 0x873 CALLDATASIZE PUSH1 0x4 PUSH2 0x4FB0 JUMP JUMPDEST PUSH2 0x1BC1 JUMP JUMPDEST PUSH2 0x533 PUSH2 0x1BDB JUMP JUMPDEST CALLVALUE DUP1 ISZERO PUSH2 0x88B JUMPI PUSH0 PUSH0 REVERT JUMPDEST POP PUSH2 0x4D2 PUSH2 0x89A CALLDATASIZE PUSH1 0x4 PUSH2 0x4ED8 JUMP JUMPDEST PUSH2 0x1E4D JUMP JUMPDEST CALLVALUE DUP1 ISZERO PUSH2 0x8AA JUMPI PUSH0 PUSH0 REVERT JUMPDEST POP PUSH2 0x504 PUSH2 0x8B9 CALLDATASIZE PUSH1 0x4 PUSH2 0x4E8D JUMP JUMPDEST PUSH1 0x8 PUSH1 0x20 MSTORE PUSH0 SWAP1 DUP2 MSTORE PUSH1 0x40 SWAP1 KECCAK256 SLOAD PUSH1 0xFF AND DUP2 JUMP JUMPDEST CALLVALUE DUP1 ISZERO PUSH2 0x8D8 JUMPI PUSH0 PUSH0 REVERT JUMPDEST POP PUSH2 0x533 PUSH2 0x8E7 CALLDATASIZE PUSH1 0x4 PUSH2 0x4ED8 JUMP JUMPDEST PUSH2 0x1EBF JUMP JUMPDEST CALLVALUE DUP1 ISZERO PUSH2 0x8F7 JUMPI PUSH0 PUSH0 REVERT JUMPDEST POP PUSH2 0x533 PUSH2 0x906 CALLDATASIZE PUSH1 0x4 PUSH2 0x4FB0 JUMP JUMPDEST PUSH2 0x1F0B JUMP JUMPDEST CALLVALUE DUP1 ISZERO PUSH2 0x916 JUMPI PUSH0 PUSH0 REVERT JUMPDEST POP PUSH2 0x4D2 PUSH1 0x3 SLOAD DUP2 JUMP JUMPDEST CALLVALUE DUP1 ISZERO PUSH2 0x92B JUMPI PUSH0 PUSH0 REVERT JUMPDEST POP PUSH2 0x533 PUSH2 0x93A CALLDATASIZE PUSH1 0x4 PUSH2 0x4E8D JUMP JUMPDEST PUSH2 0x1F93 JUMP JUMPDEST CALLVALUE DUP1 ISZERO PUSH2 0x94A JUMPI PUSH0 PUSH0 REVERT JUMPDEST POP PUSH2 0x95E PUSH2 0x959 CALLDATASIZE PUSH1 0x4 PUSH2 0x4E8D JUMP JUMPDEST PUSH2 0x1FF3 JUMP JUMPDEST PUSH1 0x40 MLOAD PUSH2 0x4DC SWAP2 SWAP1 PUSH2 0x505D JUMP JUMPDEST CALLVALUE DUP1 ISZERO PUSH2 0x976 JUMPI PUSH0 PUSH0 REVERT JUMPDEST POP PUSH0 MLOAD PUSH1 0x20 PUSH2 0x57EF PUSH0 CODECOPY PUSH0 MLOAD SWAP1 PUSH0 MSTORE SLOAD PUSH1 0xFF AND PUSH2 0x504 JUMP JUMPDEST CALLVALUE DUP1 ISZERO PUSH2 0x999 JUMPI PUSH0 PUSH0 REVERT JUMPDEST POP PUSH2 0x595 PUSH2 0x9A8 CALLDATASIZE PUSH1 0x4 PUSH2 0x4ED8 JUMP JUMPDEST PUSH2 0x20A0 JUMP JUMPDEST CALLVALUE DUP1 ISZERO PUSH2 0x9B8 JUMPI PUSH0 PUSH0 REVERT JUMPDEST POP PUSH2 0x533 PUSH2 0x9C7 CALLDATASIZE PUSH1 0x4 PUSH2 0x4E8D JUMP JUMPDEST PUSH2 0x20C8 JUMP JUMPDEST CALLVALUE DUP1 ISZERO PUSH2 0x9D7 JUMPI PUSH0 PUSH0 REVERT JUMPDEST POP PUSH2 0x533 PUSH2 0x9E6 CALLDATASIZE PUSH1 0x4 PUSH2 0x4E8D JUMP JUMPDEST PUSH2 0x2190 JUMP JUMPDEST CALLVALUE DUP1 ISZERO PUSH2 0x9F6 JUMPI PUSH0 PUSH0 REVERT JUMPDEST POP PUSH2 0x595 PUSH2 0xA05 CALLDATASIZE PUSH1 0x4 PUSH2 0x4ED8 JUMP JUMPDEST PUSH2 0x23B4 JUMP JUMPDEST CALLVALUE DUP1 ISZERO PUSH2 0xA15 JUMPI PUSH0 PUSH0 REVERT JUMPDEST POP PUSH2 0x4D2 PUSH2 0xA24 CALLDATASIZE PUSH1 0x4 PUSH2 0x4E8D JUMP JUMPDEST PUSH2 0x23BE JUMP JUMPDEST CALLVALUE DUP1 ISZERO PUSH2 0xA34 JUMPI PUSH0 PUSH0 REVERT JUMPDEST POP PUSH0 SLOAD PUSH2 0x595 SWAP1 PUSH1 0x1 PUSH1 0x1 PUSH1 0xA0 SHL SUB AND DUP2 JUMP JUMPDEST CALLVALUE DUP1 ISZERO PUSH2 0xA52 JUMPI PUSH0 PUSH0 REVERT JUMPDEST POP PUSH2 0x4D2 PUSH2 0xA61 CALLDATASIZE PUSH1 0x4 PUSH2 0x4ED8 JUMP JUMPDEST PUSH2 0x2416 JUMP JUMPDEST CALLVALUE DUP1 ISZERO PUSH2 0xA71 JUMPI PUSH0 PUSH0 REVERT JUMPDEST POP PUSH2 0x4D2 PUSH1 0x2 SLOAD DUP2 JUMP JUMPDEST CALLVALUE DUP1 ISZERO PUSH2 0xA86 JUMPI PUSH0 PUSH0 REVERT JUMPDEST POP PUSH2 0x4D2 PUSH0 MLOAD PUSH1 0x20 PUSH2 0x582F PUSH0 CODECOPY PUSH0 MLOAD SWAP1 PUSH0 MSTORE DUP2 JUMP JUMPDEST CALLVALUE DUP1 ISZERO PUSH2 0xAA6 JUMPI PUSH0 PUSH0 REVERT JUMPDEST POP PUSH2 0x4D2 PUSH2 0xAB5 CALLDATASIZE PUSH1 0x4 PUSH2 0x4F59 JUMP JUMPDEST PUSH1 0xE PUSH1 0x20 SWAP1 DUP2 MSTORE PUSH0 SWAP3 DUP4 MSTORE PUSH1 0x40 DUP1 DUP5 KECCAK256 SWAP1 SWAP2 MSTORE SWAP1 DUP3 MSTORE SWAP1 KECCAK256 SLOAD DUP2 JUMP JUMPDEST CALLVALUE DUP1 ISZERO PUSH2 0xADC JUMPI PUSH0 PUSH0 REVERT JUMPDEST POP PUSH2 0x533 PUSH2 0x251A JUMP JUMPDEST CALLVALUE DUP1 ISZERO PUSH2 0xAF0 JUMPI PUSH0 PUSH0 REVERT JUMPDEST POP PUSH2 0xB04 PUSH2 0xAFF CALLDATASIZE PUSH1 0x4 PUSH2 0x4ED8 JUMP JUMPDEST PUSH2 0x2539 JUMP JUMPDEST PUSH1 0x40 MLOAD PUSH2 0x4DC SWAP2 SWAP1 PUSH2 0x50D9 JUMP JUMPDEST CALLVALUE DUP1 ISZERO PUSH2 0xB1C JUMPI PUSH0 PUSH0 REVERT JUMPDEST POP PUSH2 0x595 PUSH2 0xB2B CALLDATASIZE PUSH1 0x4 PUSH2 0x4F90 JUMP JUMPDEST PUSH2 0x2602 JUMP JUMPDEST CALLVALUE DUP1 ISZERO PUSH2 0xB3B JUMPI PUSH0 PUSH0 REVERT JUMPDEST POP PUSH2 0x504 PUSH2 0xB4A CALLDATASIZE PUSH1 0x4 PUSH2 0x4FEE JUMP JUMPDEST PUSH2 0x262F JUMP JUMPDEST CALLVALUE DUP1 ISZERO PUSH2 0xB5A JUMPI PUSH0 PUSH0 REVERT JUMPDEST POP PUSH2 0x569 PUSH2 0x2665 JUMP JUMPDEST CALLVALUE DUP1 ISZERO PUSH2 0xB6E JUMPI PUSH0 PUSH0 REVERT JUMPDEST POP PUSH2 0x4D2 PUSH1 0x4 SLOAD DUP2 JUMP JUMPDEST CALLVALUE DUP1 ISZERO PUSH2 0xB83 JUMPI PUSH0 PUSH0 REVERT JUMPDEST POP PUSH2 0xB97 PUSH2 0xB92 CALLDATASIZE PUSH1 0x4 PUSH2 0x4E8D JUMP JUMPDEST PUSH2 0x26A3 JUMP JUMPDEST PUSH1 0x40 MLOAD PUSH2 0x4DC SWAP3 SWAP2 SWAP1 PUSH2 0x513F JUMP JUMPDEST CALLVALUE DUP1 ISZERO PUSH2 0xBB0 JUMPI PUSH0 PUSH0 REVERT JUMPDEST POP PUSH2 0x533 PUSH2 0xBBF CALLDATASIZE PUSH1 0x4 PUSH2 0x4E8D JUMP JUMPDEST PUSH2 0x27E3 JUMP JUMPDEST CALLVALUE DUP1 ISZERO PUSH2 0xBCF JUMPI PUSH0 PUSH0 REVERT JUMPDEST POP PUSH2 0x4D2 PUSH0 DUP2 JUMP JUMPDEST CALLVALUE DUP1 ISZERO PUSH2 0xBE2 JUMPI PUSH0 PUSH0 REVERT JUMPDEST POP PUSH2 0x533 PUSH2 0xBF1 CALLDATASIZE PUSH1 0x4 PUSH2 0x5163 JUMP JUMPDEST PUSH2 0x28A7 JUMP JUMPDEST CALLVALUE DUP1 ISZERO PUSH2 0xC01 JUMPI PUSH0 PUSH0 REVERT JUMPDEST POP PUSH2 0xC15 PUSH2 0xC10 CALLDATASIZE PUSH1 0x4 PUSH2 0x4ED8 JUMP JUMPDEST PUSH2 0x28B2 JUMP JUMPDEST PUSH1 0x40 MLOAD PUSH2 0x4DC SWAP2 SWAP1 PUSH2 0x5193 JUMP JUMPDEST CALLVALUE DUP1 ISZERO PUSH2 0xC2D JUMPI PUSH0 PUSH0 REVERT JUMPDEST POP PUSH2 0x533 PUSH2 0x28DB JUMP JUMPDEST CALLVALUE DUP1 ISZERO PUSH2 0xC41 JUMPI PUSH0 PUSH0 REVERT JUMPDEST POP PUSH2 0x533 PUSH2 0xC50 CALLDATASIZE PUSH1 0x4 PUSH2 0x51A5 JUMP JUMPDEST PUSH2 0x29DC JUMP JUMPDEST CALLVALUE DUP1 ISZERO PUSH2 0xC60 JUMPI PUSH0 PUSH0 REVERT JUMPDEST POP PUSH1 0x6 SLOAD PUSH2 0x595 SWAP1 PUSH1 0x1 PUSH1 0x1 PUSH1 0xA0 SHL SUB AND DUP2 JUMP JUMPDEST CALLVALUE DUP1 ISZERO PUSH2 0xC7F JUMPI PUSH0 PUSH0 REVERT JUMPDEST POP PUSH2 0x533 PUSH2 0xC8E CALLDATASIZE PUSH1 0x4 PUSH2 0x4FB0 JUMP JUMPDEST PUSH2 0x2C03 JUMP JUMPDEST CALLVALUE DUP1 ISZERO PUSH2 0xC9E JUMPI PUSH0 PUSH0 REVERT JUMPDEST POP PUSH2 0xCB2 PUSH2 0xCAD CALLDATASIZE PUSH1 0x4 PUSH2 0x4F2F JUMP JUMPDEST PUSH2 0x2CD7 JUMP JUMPDEST PUSH1 0x40 DUP1 MLOAD SWAP7 DUP8 MSTORE PUSH1 0x20 DUP8 ADD SWAP6 SWAP1 SWAP6 MSTORE SWAP4 DUP6 ADD SWAP3 SWAP1 SWAP3 MSTORE PUSH1 0x60 DUP5 ADD MSTORE PUSH1 0x80 DUP4 ADD MSTORE PUSH1 0xA0 DUP3 ADD MSTORE PUSH1 0xC0 ADD PUSH2 0x4DC JUMP JUMPDEST CALLVALUE DUP1 ISZERO PUSH2 0xCEA JUMPI PUSH0 PUSH0 REVERT JUMPDEST POP PUSH2 0x533 PUSH2 0xCF9 CALLDATASIZE PUSH1 0x4 PUSH2 0x51EB JUMP JUMPDEST PUSH2 0x2D27 JUMP JUMPDEST CALLVALUE DUP1 ISZERO PUSH2 0xD09 JUMPI PUSH0 PUSH0 REVERT JUMPDEST POP PUSH2 0x533 PUSH2 0xD18 CALLDATASIZE PUSH1 0x4 PUSH2 0x52C9 JUMP JUMPDEST PUSH2 0x2D3F JUMP JUMPDEST CALLVALUE DUP1 ISZERO PUSH2 0xD28 JUMPI PUSH0 PUSH0 REVERT JUMPDEST POP PUSH2 0x4D2 PUSH2 0xD37 CALLDATASIZE PUSH1 0x4 PUSH2 0x4E8D JUMP JUMPDEST PUSH2 0x2F48 JUMP JUMPDEST CALLVALUE DUP1 ISZERO PUSH2 0xD47 JUMPI PUSH0 PUSH0 REVERT JUMPDEST POP PUSH2 0x4D2 PUSH1 0x5 SLOAD DUP2 JUMP JUMPDEST CALLVALUE DUP1 ISZERO PUSH2 0xD5C JUMPI PUSH0 PUSH0 REVERT JUMPDEST POP PUSH2 0x4D2 PUSH1 0x11 SLOAD DUP2 JUMP JUMPDEST CALLVALUE DUP1 ISZERO PUSH2 0xD71 JUMPI PUSH0 PUSH0 REVERT JUMPDEST POP PUSH2 0x569 PUSH2 0xD80 CALLDATASIZE PUSH1 0x4 PUSH2 0x4ED8 JUMP JUMPDEST PUSH2 0x2FB2 JUMP JUMPDEST CALLVALUE DUP1 ISZERO PUSH2 0xD90 JUMPI PUSH0 PUSH0 REVERT JUMPDEST POP PUSH2 0x4D2 PUSH2 0xD9F CALLDATASIZE PUSH1 0x4 PUSH2 0x4ED8 JUMP JUMPDEST PUSH2 0x3022 JUMP JUMPDEST PUSH2 0x533 PUSH2 0xDB2 CALLDATASIZE PUSH1 0x4 PUSH2 0x4E8D JUMP JUMPDEST PUSH2 0x3046 JUMP JUMPDEST CALLVALUE DUP1 ISZERO PUSH2 0xDC2 JUMPI PUSH0 PUSH0 REVERT JUMPDEST POP PUSH2 0x504 PUSH2 0xDD1 CALLDATASIZE PUSH1 0x4 PUSH2 0x4E8D JUMP JUMPDEST PUSH1 0xF PUSH1 0x20 MSTORE PUSH0 SWAP1 DUP2 MSTORE PUSH1 0x40 SWAP1 KECCAK256 SLOAD PUSH1 0xFF AND DUP2 JUMP JUMPDEST CALLVALUE DUP1 ISZERO PUSH2 0xDF0 JUMPI PUSH0 PUSH0 REVERT JUMPDEST POP PUSH2 0x533 PUSH2 0xDFF CALLDATASIZE PUSH1 0x4 PUSH2 0x4FEE JUMP JUMPDEST PUSH2 0x324F JUMP JUMPDEST CALLVALUE DUP1 ISZERO PUSH2 0xE0F JUMPI PUSH0 PUSH0 REVERT JUMPDEST POP PUSH2 0xE47 PUSH2 0xE1E CALLDATASIZE PUSH1 0x4 PUSH2 0x4ED8 JUMP JUMPDEST PUSH1 0x7 PUSH1 0x20 MSTORE PUSH0 SWAP1 DUP2 MSTORE PUSH1 0x40 SWAP1 KECCAK256 DUP1 SLOAD PUSH1 0x1 DUP3 ADD SLOAD PUSH1 0x2 DUP4 ADD SLOAD PUSH1 0x3 SWAP1 SWAP4 ADD SLOAD SWAP2 SWAP3 SWAP1 SWAP2 PUSH1 0xFF AND DUP5 JUMP JUMPDEST PUSH1 0x40 DUP1 MLOAD SWAP5 DUP6 MSTORE PUSH1 0x20 DUP6 ADD SWAP4 SWAP1 SWAP4 MSTORE SWAP2 DUP4 ADD MSTORE ISZERO ISZERO PUSH1 0x60 DUP3 ADD MSTORE PUSH1 0x80 ADD PUSH2 0x4DC JUMP JUMPDEST CALLVALUE DUP1 ISZERO PUSH2 0xE74 JUMPI PUSH0 PUSH0 REVERT JUMPDEST POP PUSH2 0x533 PUSH2 0xE83 CALLDATASIZE PUSH1 0x4 PUSH2 0x4F2F JUMP JUMPDEST PUSH2 0x326B JUMP JUMPDEST CALLVALUE DUP1 ISZERO PUSH2 0xE93 JUMPI PUSH0 PUSH0 REVERT JUMPDEST POP PUSH2 0xC15 PUSH2 0x32FB JUMP JUMPDEST CALLVALUE DUP1 ISZERO PUSH2 0xEA7 JUMPI PUSH0 PUSH0 REVERT JUMPDEST POP PUSH2 0xEBB PUSH2 0xEB6 CALLDATASIZE PUSH1 0x4 PUSH2 0x4E8D JUMP JUMPDEST PUSH2 0x335B JUMP JUMPDEST PUSH1 0x40 MLOAD PUSH2 0x4DC SWAP2 SWAP1 PUSH2 0x5311 JUMP JUMPDEST CALLVALUE DUP1 ISZERO PUSH2 0xED3 JUMPI PUSH0 PUSH0 REVERT JUMPDEST POP PUSH2 0x504 PUSH2 0xEE2 CALLDATASIZE PUSH1 0x4 PUSH2 0x4E8D JUMP JUMPDEST PUSH1 0x1 PUSH1 0x1 PUSH1 0xA0 SHL SUB AND PUSH0 SWAP1 DUP2 MSTORE PUSH1 0xF PUSH1 0x20 MSTORE PUSH1 0x40 SWAP1 KECCAK256 SLOAD PUSH1 0xFF AND SWAP1 JUMP JUMPDEST CALLVALUE DUP1 ISZERO PUSH2 0xF0A JUMPI PUSH0 PUSH0 REVERT JUMPDEST POP PUSH2 0x533 PUSH2 0xF19 CALLDATASIZE PUSH1 0x4 PUSH2 0x5376 JUMP JUMPDEST PUSH2 0x3465 JUMP JUMPDEST CALLVALUE DUP1 ISZERO PUSH2 0xF29 JUMPI PUSH0 PUSH0 REVERT JUMPDEST POP PUSH2 0x4D2 PUSH0 MLOAD PUSH1 0x20 PUSH2 0x578F PUSH0 CODECOPY PUSH0 MLOAD SWAP1 PUSH0 MSTORE DUP2 JUMP JUMPDEST CALLVALUE DUP1 ISZERO PUSH2 0xF49 JUMPI PUSH0 PUSH0 REVERT JUMPDEST POP PUSH2 0x504 PUSH2 0xF58 CALLDATASIZE PUSH1 0x4 PUSH2 0x4F59 JUMP JUMPDEST PUSH2 0x3498 JUMP JUMPDEST CALLVALUE DUP1 ISZERO PUSH2 0xF68 JUMPI PUSH0 PUSH0 REVERT JUMPDEST POP PUSH2 0x4D2 PUSH2 0xF77 CALLDATASIZE PUSH1 0x4 PUSH2 0x4E8D JUMP JUMPDEST PUSH2 0x34E4 JUMP JUMPDEST CALLVALUE DUP1 ISZERO PUSH2 0xF87 JUMPI PUSH0 PUSH0 REVERT JUMPDEST POP PUSH2 0x533 PUSH2 0xF96 CALLDATASIZE PUSH1 0x4 PUSH2 0x4E8D JUMP JUMPDEST PUSH2 0x359E JUMP JUMPDEST CALLVALUE DUP1 ISZERO PUSH2 0xFA6 JUMPI PUSH0 PUSH0 REVERT JUMPDEST POP PUSH2 0x4D2 PUSH2 0xFB5 CALLDATASIZE PUSH1 0x4 PUSH2 0x4E8D JUMP JUMPDEST PUSH2 0x3647 JUMP JUMPDEST CALLVALUE DUP1 ISZERO PUSH2 0xFC5 JUMPI PUSH0 PUSH0 REVERT JUMPDEST POP PUSH2 0x504 PUSH2 0xFD4 CALLDATASIZE PUSH1 0x4 PUSH2 0x4E8D JUMP JUMPDEST PUSH1 0x10 PUSH1 0x20 MSTORE PUSH0 SWAP1 DUP2 MSTORE PUSH1 0x40 SWAP1 KECCAK256 SLOAD PUSH1 0xFF AND DUP2 JUMP JUMPDEST CALLVALUE DUP1 ISZERO PUSH2 0xFF3 JUMPI PUSH0 PUSH0 REVERT JUMPDEST POP PUSH1 0x1 SLOAD PUSH2 0x595 SWAP1 PUSH1 0x1 PUSH1 0x1 PUSH1 0xA0 SHL SUB AND DUP2 JUMP JUMPDEST CALLVALUE DUP1 ISZERO PUSH2 0x1012 JUMPI PUSH0 PUSH0 REVERT JUMPDEST POP PUSH2 0x504 PUSH2 0x1021 CALLDATASIZE PUSH1 0x4 PUSH2 0x4E8D JUMP JUMPDEST PUSH1 0x1 PUSH1 0x1 PUSH1 0xA0 SHL SUB AND PUSH0 SWAP1 DUP2 MSTORE PUSH1 0x10 PUSH1 0x20 MSTORE PUSH1 0x40 SWAP1 KECCAK256 SLOAD PUSH1 0xFF AND SWAP1 JUMP JUMPDEST PUSH1 0x9 SLOAD PUSH0 SWAP1 ISZERO PUSH2 0x107E JUMPI PUSH2 0x1078 DUP3 PUSH1 0x9 PUSH0 DUP2 SLOAD DUP2 LT PUSH2 0x105F JUMPI PUSH2 0x105F PUSH2 0x53E5 JUMP JUMPDEST PUSH0 SWAP2 DUP3 MSTORE PUSH1 0x20 SWAP1 SWAP2 KECCAK256 ADD SLOAD PUSH1 0x1 PUSH1 0x1 PUSH1 0xA0 SHL SUB AND PUSH2 0x1507 JUMP JUMPDEST SWAP3 SWAP2 POP POP JUMP JUMPDEST POP PUSH0 SWAP2 SWAP1 POP JUMP JUMPDEST PUSH0 PUSH2 0x1078 DUP3 PUSH2 0x36CA JUMP JUMPDEST PUSH0 MLOAD PUSH1 0x20 PUSH2 0x582F PUSH0 CODECOPY PUSH0 MLOAD SWAP1 PUSH0 MSTORE PUSH2 0x10A6 DUP2 PUSH2 0x36EE JUMP JUMPDEST PUSH0 DUP3 GT PUSH2 0x1106 JUMPI PUSH1 0x40 MLOAD PUSH3 0x461BCD PUSH1 0xE5 SHL DUP2 MSTORE PUSH1 0x20 PUSH1 0x4 DUP3 ADD MSTORE PUSH1 0x24 DUP1 DUP3 ADD MSTORE PUSH32 0x4C6F636B206475726174696F6E206D7573742062652067726561746572207468 PUSH1 0x44 DUP3 ADD MSTORE PUSH4 0x616E203 PUSH1 0xE4 SHL PUSH1 0x64 DUP3 ADD MSTORE PUSH1 0x84 ADD JUMPDEST PUSH1 0x40 MLOAD DUP1 SWAP2 SUB SWAP1 REVERT JUMPDEST PUSH1 0x4 DUP3 SWAP1 SSTORE PUSH1 0x40 MLOAD DUP3 DUP2 MSTORE PUSH32 0xBE752D502EAD9F7F68AE425A37976ABEE08F7D72A78E613D13A0C1AC153915F SWAP1 PUSH1 0x20 ADD JUMPDEST PUSH1 0x40 MLOAD DUP1 SWAP2 SUB SWAP1 LOG1 POP POP JUMP JUMPDEST PUSH0 MLOAD PUSH1 0x20 PUSH2 0x574F PUSH0 CODECOPY PUSH0 MLOAD SWAP1 PUSH0 MSTORE DUP1 SLOAD PUSH1 0x60 SWAP2 SWAP1 DUP2 SWAP1 PUSH2 0x1162 SWAP1 PUSH2 0x53F9 JUMP JUMPDEST DUP1 PUSH1 0x1F ADD PUSH1 0x20 DUP1 SWAP2 DIV MUL PUSH1 0x20 ADD PUSH1 0x40 MLOAD SWAP1 DUP2 ADD PUSH1 0x40 MSTORE DUP1 SWAP3 SWAP2 SWAP1 DUP2 DUP2 MSTORE PUSH1 0x20 ADD DUP3 DUP1 SLOAD PUSH2 0x118E SWAP1 PUSH2 0x53F9 JUMP JUMPDEST DUP1 ISZERO PUSH2 0x11D9 JUMPI DUP1 PUSH1 0x1F LT PUSH2 0x11B0 JUMPI PUSH2 0x100 DUP1 DUP4 SLOAD DIV MUL DUP4 MSTORE SWAP2 PUSH1 0x20 ADD SWAP2 PUSH2 0x11D9 JUMP JUMPDEST DUP3 ADD SWAP2 SWAP1 PUSH0 MSTORE PUSH1 0x20 PUSH0 KECCAK256 SWAP1 JUMPDEST DUP2 SLOAD DUP2 MSTORE SWAP1 PUSH1 0x1 ADD SWAP1 PUSH1 0x20 ADD DUP1 DUP4 GT PUSH2 0x11BC JUMPI DUP3 SWAP1 SUB PUSH1 0x1F AND DUP3 ADD SWAP2 JUMPDEST POP POP POP POP POP SWAP2 POP POP SWAP1 JUMP JUMPDEST PUSH0 PUSH2 0x11EE DUP3 PUSH2 0x36F8 JUMP JUMPDEST POP PUSH2 0x1078 DUP3 PUSH2 0x372F JUMP JUMPDEST PUSH2 0x1203 DUP3 DUP3 CALLER PUSH2 0x3768 JUMP JUMPDEST POP POP JUMP JUMPDEST PUSH0 PUSH0 PUSH2 0x1212 DUP4 PUSH2 0x23BE JUMP JUMPDEST SWAP1 POP PUSH0 DUP1 JUMPDEST DUP3 DUP2 LT ISZERO PUSH2 0x1272 JUMPI PUSH0 PUSH2 0x122A DUP7 DUP4 PUSH2 0x1865 JUMP JUMPDEST PUSH0 DUP2 DUP2 MSTORE PUSH1 0x7 PUSH1 0x20 MSTORE PUSH1 0x40 SWAP1 KECCAK256 PUSH1 0x3 DUP2 ADD SLOAD SWAP2 SWAP3 POP SWAP1 PUSH1 0xFF AND ISZERO DUP1 ISZERO PUSH2 0x1254 JUMPI POP DUP1 PUSH1 0x1 ADD SLOAD TIMESTAMP LT ISZERO JUMPDEST ISZERO PUSH2 0x1268 JUMPI DUP1 SLOAD PUSH2 0x1265 SWAP1 DUP6 PUSH2 0x5445 JUMP JUMPDEST SWAP4 POP JUMPDEST POP POP PUSH1 0x1 ADD PUSH2 0x1217 JUMP JUMPDEST POP SWAP4 SWAP3 POP POP POP JUMP JUMPDEST PUSH0 PUSH2 0x1283 PUSH2 0x3775 JUMP JUMPDEST CALLER PUSH0 JUMPDEST PUSH1 0x9 SLOAD DUP2 LT ISZERO PUSH2 0x12E6 JUMPI PUSH0 PUSH1 0x9 DUP3 DUP2 SLOAD DUP2 LT PUSH2 0x12A4 JUMPI PUSH2 0x12A4 PUSH2 0x53E5 JUMP JUMPDEST PUSH0 SWAP2 DUP3 MSTORE PUSH1 0x20 DUP1 DUP4 KECCAK256 SWAP1 SWAP2 ADD SLOAD PUSH1 0x1 PUSH1 0x1 PUSH1 0xA0 SHL SUB AND DUP1 DUP4 MSTORE PUSH1 0x8 SWAP1 SWAP2 MSTORE PUSH1 0x40 SWAP1 SWAP2 KECCAK256 SLOAD SWAP1 SWAP2 POP PUSH1 0xFF AND ISZERO PUSH2 0x12DD JUMPI PUSH2 0x12DD DUP2 DUP5 PUSH2 0x37AC JUMP JUMPDEST POP PUSH1 0x1 ADD PUSH2 0x1286 JUMP JUMPDEST POP PUSH2 0x12EF PUSH2 0x389D JUMP JUMPDEST CALLER PUSH0 SWAP1 DUP2 MSTORE PUSH1 0xF PUSH1 0x20 MSTORE PUSH1 0x40 SWAP1 KECCAK256 SLOAD PUSH1 0xFF AND ISZERO PUSH2 0x1321 JUMPI CALLER PUSH1 0x40 MLOAD PUSH4 0xDF681A93 PUSH1 0xE0 SHL DUP2 MSTORE PUSH1 0x4 ADD PUSH2 0x10FD SWAP2 SWAP1 PUSH2 0x5458 JUMP JUMPDEST CALLER PUSH0 SWAP1 DUP2 MSTORE PUSH1 0x10 PUSH1 0x20 MSTORE PUSH1 0x40 SWAP1 KECCAK256 SLOAD PUSH1 0xFF AND ISZERO PUSH2 0x1353 JUMPI CALLER PUSH1 0x40 MLOAD PUSH4 0xE34017E1 PUSH1 0xE0 SHL DUP2 MSTORE PUSH1 0x4 ADD PUSH2 0x10FD SWAP2 SWAP1 PUSH2 0x54B3 JUMP JUMPDEST PUSH2 0x135E CALLER DUP6 DUP6 PUSH2 0x38CD JUMP JUMPDEST SWAP2 POP POP PUSH2 0x1078 PUSH1 0x1 PUSH0 MLOAD PUSH1 0x20 PUSH2 0x580F PUSH0 CODECOPY PUSH0 MLOAD SWAP1 PUSH0 MSTORE SSTORE JUMP JUMPDEST PUSH0 MLOAD PUSH1 0x20 PUSH2 0x582F PUSH0 CODECOPY PUSH0 MLOAD SWAP1 PUSH0 MSTORE PUSH2 0x138E DUP2 PUSH2 0x36EE JUMP JUMPDEST PUSH1 0x1 PUSH1 0x1 PUSH1 0xA0 SHL SUB DUP3 AND PUSH2 0x13DC JUMPI PUSH1 0x40 MLOAD PUSH3 0x461BCD PUSH1 0xE5 SHL DUP2 MSTORE PUSH1 0x20 PUSH1 0x4 DUP3 ADD MSTORE PUSH1 0x15 PUSH1 0x24 DUP3 ADD MSTORE PUSH21 0x496E76616C696420746F6B656E2061646472657373 PUSH1 0x58 SHL PUSH1 0x44 DUP3 ADD MSTORE PUSH1 0x64 ADD PUSH2 0x10FD JUMP JUMPDEST PUSH1 0x1 PUSH1 0x1 PUSH1 0xA0 SHL SUB DUP3 AND PUSH0 SWAP1 DUP2 MSTORE PUSH1 0x8 PUSH1 0x20 MSTORE PUSH1 0x40 SWAP1 KECCAK256 SLOAD PUSH1 0xFF AND ISZERO PUSH2 0x1420 JUMPI PUSH1 0x40 MLOAD PUSH4 0x1E23575 PUSH1 0xE0 SHL DUP2 MSTORE PUSH1 0x1 PUSH1 0x1 PUSH1 0xA0 SHL SUB DUP4 AND PUSH1 0x4 DUP3 ADD MSTORE PUSH1 0x24 ADD PUSH2 0x10FD JUMP JUMPDEST PUSH1 0x1 PUSH1 0x1 PUSH1 0xA0 SHL SUB DUP3 AND PUSH0 DUP2 DUP2 MSTORE PUSH1 0x8 PUSH1 0x20 SWAP1 DUP2 MSTORE PUSH1 0x40 DUP1 DUP4 KECCAK256 DUP1 SLOAD PUSH1 0xFF NOT AND PUSH1 0x1 SWAP1 DUP2 OR SWAP1 SWAP2 SSTORE PUSH1 0x9 DUP1 SLOAD SWAP2 DUP3 ADD SWAP1 SSTORE PUSH32 0x6E1540171B6C0C960B71A7020D9F60077F6AF931A8BBF590DA0223DACF75C7AF ADD DUP1 SLOAD PUSH1 0x1 PUSH1 0x1 PUSH1 0xA0 SHL SUB NOT AND DUP6 OR SWAP1 SSTORE PUSH1 0xB SWAP1 SWAP2 MSTORE DUP1 DUP3 KECCAK256 TIMESTAMP SWAP1 SSTORE MLOAD PUSH32 0xF3E4C2C64E71E6BA2EAAB9A599BCED62F9EB91D2CDA610BF41AA8C80FF2CF826 SWAP2 SWAP1 LOG2 POP POP JUMP JUMPDEST PUSH1 0x9 SLOAD PUSH0 SWAP1 ISZERO PUSH2 0x1502 JUMPI PUSH2 0x14F0 PUSH1 0x9 PUSH0 DUP2 SLOAD DUP2 LT PUSH2 0x14D7 JUMPI PUSH2 0x14D7 PUSH2 0x53E5 JUMP JUMPDEST PUSH0 SWAP2 DUP3 MSTORE PUSH1 0x20 SWAP1 SWAP2 KECCAK256 ADD SLOAD PUSH1 0x1 PUSH1 0x1 PUSH1 0xA0 SHL SUB AND PUSH2 0x34E4 JUMP JUMPDEST PUSH2 0x14FD SWAP1 PUSH3 0x127500 PUSH2 0x54F5 JUMP JUMPDEST SWAP1 POP SWAP1 JUMP JUMPDEST POP PUSH0 SWAP1 JUMP JUMPDEST PUSH1 0x1 PUSH1 0x1 PUSH1 0xA0 SHL SUB DUP1 DUP4 AND PUSH0 DUP2 DUP2 MSTORE PUSH1 0xE PUSH1 0x20 SWAP1 DUP2 MSTORE PUSH1 0x40 DUP1 DUP4 KECCAK256 SWAP5 DUP7 AND DUP1 DUP5 MSTORE SWAP5 DUP3 MSTORE DUP1 DUP4 KECCAK256 SLOAD SWAP4 DUP4 MSTORE PUSH1 0xD DUP3 MSTORE DUP1 DUP4 KECCAK256 SWAP5 DUP4 MSTORE SWAP4 SWAP1 MSTORE SWAP2 DUP3 KECCAK256 SLOAD PUSH8 0xDE0B6B3A7640000 SWAP1 PUSH2 0x1556 DUP6 PUSH2 0x3647 JUMP JUMPDEST PUSH2 0x1560 SWAP2 SWAP1 PUSH2 0x550C JUMP JUMPDEST PUSH2 0x1569 DUP7 PUSH2 0x1962 JUMP JUMPDEST PUSH2 0x1573 SWAP2 SWAP1 PUSH2 0x54F5 JUMP JUMPDEST PUSH2 0x157D SWAP2 SWAP1 PUSH2 0x551F JUMP JUMPDEST PUSH2 0x1587 SWAP2 SWAP1 PUSH2 0x5445 JUMP JUMPDEST SWAP4 SWAP3 POP POP POP JUMP JUMPDEST PUSH1 0x1 PUSH1 0x1 PUSH1 0xA0 SHL SUB DUP3 AND PUSH2 0x15B7 JUMPI PUSH1 0x40 MLOAD PUSH4 0x32505749 PUSH1 0xE1 SHL DUP2 MSTORE PUSH0 PUSH1 0x4 DUP3 ADD MSTORE PUSH1 0x24 ADD PUSH2 0x10FD JUMP JUMPDEST PUSH0 PUSH2 0x15C3 DUP4 DUP4 CALLER PUSH2 0x3A56 JUMP JUMPDEST SWAP1 POP DUP4 PUSH1 0x1 PUSH1 0x1 PUSH1 0xA0 SHL SUB AND DUP2 PUSH1 0x1 PUSH1 0x1 PUSH1 0xA0 SHL SUB AND EQ PUSH2 0x1611 JUMPI PUSH1 0x40 MLOAD PUSH4 0x64283D7B PUSH1 0xE0 SHL DUP2 MSTORE PUSH1 0x1 PUSH1 0x1 PUSH1 0xA0 SHL SUB DUP1 DUP7 AND PUSH1 0x4 DUP4 ADD MSTORE PUSH1 0x24 DUP3 ADD DUP5 SWAP1 MSTORE DUP3 AND PUSH1 0x44 DUP3 ADD MSTORE PUSH1 0x64 ADD PUSH2 0x10FD JUMP JUMPDEST POP POP POP POP JUMP JUMPDEST PUSH0 SWAP1 DUP2 MSTORE PUSH0 MLOAD PUSH1 0x20 PUSH2 0x57CF PUSH0 CODECOPY PUSH0 MLOAD SWAP1 PUSH0 MSTORE PUSH1 0x20 MSTORE PUSH1 0x40 SWAP1 KECCAK256 PUSH1 0x1 ADD SLOAD SWAP1 JUMP JUMPDEST PUSH2 0x163F PUSH2 0x3775 JUMP JUMPDEST CALLER PUSH0 JUMPDEST PUSH1 0x9 SLOAD DUP2 LT ISZERO PUSH2 0x16A2 JUMPI PUSH0 PUSH1 0x9 DUP3 DUP2 SLOAD DUP2 LT PUSH2 0x1660 JUMPI PUSH2 0x1660 PUSH2 0x53E5 JUMP JUMPDEST PUSH0 SWAP2 DUP3 MSTORE PUSH1 0x20 DUP1 DUP4 KECCAK256 SWAP1 SWAP2 ADD SLOAD PUSH1 0x1 PUSH1 0x1 PUSH1 0xA0 SHL SUB AND DUP1 DUP4 MSTORE PUSH1 0x8 SWAP1 SWAP2 MSTORE PUSH1 0x40 SWAP1 SWAP2 KECCAK256 SLOAD SWAP1 SWAP2 POP PUSH1 0xFF AND ISZERO PUSH2 0x1699 JUMPI PUSH2 0x1699 DUP2 DUP5 PUSH2 0x37AC JUMP JUMPDEST POP PUSH1 0x1 ADD PUSH2 0x1642 JUMP JUMPDEST POP PUSH2 0x16AB PUSH2 0x389D JUMP JUMPDEST CALLER PUSH0 SWAP1 DUP2 MSTORE PUSH1 0xF PUSH1 0x20 MSTORE PUSH1 0x40 SWAP1 KECCAK256 SLOAD PUSH1 0xFF AND ISZERO PUSH2 0x16DD JUMPI CALLER PUSH1 0x40 MLOAD PUSH4 0xDF681A93 PUSH1 0xE0 SHL DUP2 MSTORE PUSH1 0x4 ADD PUSH2 0x10FD SWAP2 SWAP1 PUSH2 0x5458 JUMP JUMPDEST CALLER PUSH0 SWAP1 DUP2 MSTORE PUSH1 0x10 PUSH1 0x20 MSTORE PUSH1 0x40 SWAP1 KECCAK256 SLOAD PUSH1 0xFF AND ISZERO PUSH2 0x170F JUMPI CALLER PUSH1 0x40 MLOAD PUSH4 0xE34017E1 PUSH1 0xE0 SHL DUP2 MSTORE PUSH1 0x4 ADD PUSH2 0x10FD SWAP2 SWAP1 PUSH2 0x54B3 JUMP JUMPDEST CALLER PUSH2 0x1719 DUP4 PUSH2 0x23B4 JUMP JUMPDEST PUSH1 0x1 PUSH1 0x1 PUSH1 0xA0 SHL SUB AND EQ PUSH2 0x1743 JUMPI PUSH1 0x40 MLOAD PUSH4 0xCDA6DD47 PUSH1 0xE0 SHL DUP2 MSTORE PUSH1 0x4 DUP2 ADD DUP4 SWAP1 MSTORE PUSH1 0x24 ADD PUSH2 0x10FD JUMP JUMPDEST PUSH0 DUP3 DUP2 MSTORE PUSH1 0x7 PUSH1 0x20 MSTORE PUSH1 0x40 SWAP1 KECCAK256 PUSH1 0x3 DUP2 ADD SLOAD PUSH1 0xFF AND ISZERO PUSH2 0x1779 JUMPI PUSH1 0x40 MLOAD PUSH4 0xA810FAD9 PUSH1 0xE0 SHL DUP2 MSTORE PUSH1 0x4 DUP2 ADD DUP5 SWAP1 MSTORE PUSH1 0x24 ADD PUSH2 0x10FD JUMP JUMPDEST DUP1 PUSH1 0x1 ADD SLOAD TIMESTAMP LT ISZERO PUSH2 0x17AD JUMPI PUSH1 0x1 DUP2 ADD SLOAD PUSH1 0x40 MLOAD PUSH4 0x10F26041 PUSH1 0xE0 SHL DUP2 MSTORE TIMESTAMP PUSH1 0x4 DUP3 ADD MSTORE PUSH1 0x24 DUP2 ADD SWAP2 SWAP1 SWAP2 MSTORE PUSH1 0x44 ADD PUSH2 0x10FD JUMP JUMPDEST DUP1 SLOAD PUSH1 0x3 DUP1 DUP4 ADD DUP1 SLOAD PUSH1 0xFF NOT AND PUSH1 0x1 OR SWAP1 SSTORE DUP1 SLOAD DUP3 SWAP2 SWAP1 PUSH0 SWAP1 PUSH2 0x17D1 SWAP1 DUP5 SWAP1 PUSH2 0x550C JUMP JUMPDEST SWAP1 SWAP2 SSTORE POP PUSH2 0x17E0 SWAP1 POP DUP5 PUSH2 0x3B78 JUMP JUMPDEST PUSH0 SLOAD PUSH2 0x17F6 SWAP1 PUSH1 0x1 PUSH1 0x1 PUSH1 0xA0 SHL SUB AND CALLER DUP4 PUSH2 0x3BB0 JUMP JUMPDEST PUSH1 0x40 MLOAD DUP2 DUP2 MSTORE DUP5 SWAP1 CALLER SWAP1 PUSH32 0x92CCF450A286A957AF52509BC1C9939D1A6A481783E142E41E2499F0BB66EBC6 SWAP1 PUSH1 0x20 ADD PUSH1 0x40 MLOAD DUP1 SWAP2 SUB SWAP1 LOG3 POP POP POP PUSH2 0x1846 PUSH1 0x1 PUSH0 MLOAD PUSH1 0x20 PUSH2 0x580F PUSH0 CODECOPY PUSH0 MLOAD SWAP1 PUSH0 MSTORE SSTORE JUMP JUMPDEST POP JUMP JUMPDEST PUSH2 0x1852 DUP3 PUSH2 0x1617 JUMP JUMPDEST PUSH2 0x185B DUP2 PUSH2 0x36EE JUMP JUMPDEST PUSH2 0x1611 DUP4 DUP4 PUSH2 0x3C0F JUMP JUMPDEST PUSH0 PUSH0 MLOAD PUSH1 0x20 PUSH2 0x572F PUSH0 CODECOPY PUSH0 MLOAD SWAP1 PUSH0 MSTORE PUSH2 0x187D DUP5 PUSH2 0x23BE JUMP JUMPDEST DUP4 LT PUSH2 0x18AE JUMPI PUSH1 0x40 MLOAD PUSH4 0x295F44F7 PUSH1 0xE2 SHL DUP2 MSTORE PUSH1 0x1 PUSH1 0x1 PUSH1 0xA0 SHL SUB DUP6 AND PUSH1 0x4 DUP3 ADD MSTORE PUSH1 0x24 DUP2 ADD DUP5 SWAP1 MSTORE PUSH1 0x44 ADD PUSH2 0x10FD JUMP JUMPDEST PUSH1 0x1 PUSH1 0x1 PUSH1 0xA0 SHL SUB DUP5 AND PUSH0 SWAP1 DUP2 MSTORE PUSH1 0x20 SWAP2 DUP3 MSTORE PUSH1 0x40 DUP1 DUP3 KECCAK256 DUP6 DUP4 MSTORE SWAP1 SWAP3 MSTORE KECCAK256 SLOAD SWAP1 POP SWAP3 SWAP2 POP POP JUMP JUMPDEST PUSH1 0x60 PUSH0 PUSH2 0x18E2 DUP4 PUSH2 0x23BE JUMP JUMPDEST SWAP1 POP PUSH0 DUP2 PUSH1 0x1 PUSH1 0x1 PUSH1 0x40 SHL SUB DUP2 GT ISZERO PUSH2 0x18FD JUMPI PUSH2 0x18FD PUSH2 0x51D7 JUMP JUMPDEST PUSH1 0x40 MLOAD SWAP1 DUP1 DUP3 MSTORE DUP1 PUSH1 0x20 MUL PUSH1 0x20 ADD DUP3 ADD PUSH1 0x40 MSTORE DUP1 ISZERO PUSH2 0x1926 JUMPI DUP2 PUSH1 0x20 ADD PUSH1 0x20 DUP3 MUL DUP1 CALLDATASIZE DUP4 CALLDATACOPY ADD SWAP1 POP JUMPDEST POP SWAP1 POP PUSH0 JUMPDEST DUP3 DUP2 LT ISZERO PUSH2 0x1272 JUMPI PUSH2 0x193D DUP6 DUP3 PUSH2 0x1865 JUMP JUMPDEST DUP3 DUP3 DUP2 MLOAD DUP2 LT PUSH2 0x194F JUMPI PUSH2 0x194F PUSH2 0x53E5 JUMP JUMPDEST PUSH1 0x20 SWAP1 DUP2 MUL SWAP2 SWAP1 SWAP2 ADD ADD MSTORE PUSH1 0x1 ADD PUSH2 0x192B JUMP JUMPDEST PUSH0 PUSH0 PUSH2 0x196D DUP4 PUSH2 0x23BE JUMP JUMPDEST SWAP1 POP PUSH0 DUP1 JUMPDEST DUP3 DUP2 LT ISZERO PUSH2 0x1272 JUMPI PUSH0 PUSH2 0x1985 DUP7 DUP4 PUSH2 0x1865 JUMP JUMPDEST PUSH0 DUP2 DUP2 MSTORE PUSH1 0x7 PUSH1 0x20 MSTORE PUSH1 0x40 SWAP1 KECCAK256 PUSH1 0x3 ADD SLOAD SWAP1 SWAP2 POP PUSH1 0xFF AND PUSH2 0x19BB JUMPI PUSH0 DUP2 DUP2 MSTORE PUSH1 0x7 PUSH1 0x20 MSTORE PUSH1 0x40 SWAP1 KECCAK256 SLOAD PUSH2 0x19B8 SWAP1 DUP5 PUSH2 0x5445 JUMP JUMPDEST SWAP3 POP JUMPDEST POP PUSH1 0x1 ADD PUSH2 0x1972 JUMP JUMPDEST PUSH1 0x1 PUSH1 0x1 PUSH1 0xA0 SHL SUB DUP2 AND CALLER EQ PUSH2 0x19ED JUMPI PUSH1 0x40 MLOAD PUSH4 0x334BD919 PUSH1 0xE1 SHL DUP2 MSTORE PUSH1 0x4 ADD PUSH1 0x40 MLOAD DUP1 SWAP2 SUB SWAP1 REVERT JUMPDEST PUSH2 0x19F7 DUP3 DUP3 PUSH2 0x3C51 JUMP JUMPDEST POP POP POP JUMP JUMPDEST PUSH0 MLOAD PUSH1 0x20 PUSH2 0x582F PUSH0 CODECOPY PUSH0 MLOAD SWAP1 PUSH0 MSTORE PUSH2 0x1A13 DUP2 PUSH2 0x36EE JUMP JUMPDEST PUSH1 0x1 PUSH1 0x1 PUSH1 0xA0 SHL SUB DUP3 AND PUSH0 SWAP1 DUP2 MSTORE PUSH1 0x8 PUSH1 0x20 MSTORE PUSH1 0x40 SWAP1 KECCAK256 SLOAD PUSH1 0xFF AND PUSH2 0x1A56 JUMPI PUSH1 0x40 MLOAD PUSH4 0x751DFF97 PUSH1 0xE1 SHL DUP2 MSTORE PUSH1 0x1 PUSH1 0x1 PUSH1 0xA0 SHL SUB DUP4 AND PUSH1 0x4 DUP3 ADD MSTORE PUSH1 0x24 ADD PUSH2 0x10FD JUMP JUMPDEST PUSH1 0x1 PUSH1 0x1 PUSH1 0xA0 SHL SUB DUP3 AND PUSH0 SWAP1 DUP2 MSTORE PUSH1 0x8 PUSH1 0x20 MSTORE PUSH1 0x40 DUP2 KECCAK256 DUP1 SLOAD PUSH1 0xFF NOT AND SWAP1 SSTORE JUMPDEST PUSH1 0x9 SLOAD DUP2 LT ISZERO PUSH2 0x1B6A JUMPI DUP3 PUSH1 0x1 PUSH1 0x1 PUSH1 0xA0 SHL SUB AND PUSH1 0x9 DUP3 DUP2 SLOAD DUP2 LT PUSH2 0x1A9D JUMPI PUSH2 0x1A9D PUSH2 0x53E5 JUMP JUMPDEST PUSH0 SWAP2 DUP3 MSTORE PUSH1 0x20 SWAP1 SWAP2 KECCAK256 ADD SLOAD PUSH1 0x1 PUSH1 0x1 PUSH1 0xA0 SHL SUB AND SUB PUSH2 0x1B62 JUMPI PUSH1 0x9 DUP1 SLOAD PUSH2 0x1AC6 SWAP1 PUSH1 0x1 SWAP1 PUSH2 0x550C JUMP JUMPDEST DUP2 SLOAD DUP2 LT PUSH2 0x1AD6 JUMPI PUSH2 0x1AD6 PUSH2 0x53E5 JUMP JUMPDEST PUSH0 SWAP2 DUP3 MSTORE PUSH1 0x20 SWAP1 SWAP2 KECCAK256 ADD SLOAD PUSH1 0x9 DUP1 SLOAD PUSH1 0x1 PUSH1 0x1 PUSH1 0xA0 SHL SUB SWAP1 SWAP3 AND SWAP2 DUP4 SWAP1 DUP2 LT PUSH2 0x1B01 JUMPI PUSH2 0x1B01 PUSH2 0x53E5 JUMP JUMPDEST SWAP1 PUSH0 MSTORE PUSH1 0x20 PUSH0 KECCAK256 ADD PUSH0 PUSH2 0x100 EXP DUP2 SLOAD DUP2 PUSH1 0x1 PUSH1 0x1 PUSH1 0xA0 SHL SUB MUL NOT AND SWAP1 DUP4 PUSH1 0x1 PUSH1 0x1 PUSH1 0xA0 SHL SUB AND MUL OR SWAP1 SSTORE POP PUSH1 0x9 DUP1 SLOAD DUP1 PUSH2 0x1B3D JUMPI PUSH2 0x1B3D PUSH2 0x553E JUMP JUMPDEST PUSH0 DUP3 DUP2 MSTORE PUSH1 0x20 SWAP1 KECCAK256 DUP2 ADD PUSH0 NOT SWAP1 DUP2 ADD DUP1 SLOAD PUSH1 0x1 PUSH1 0x1 PUSH1 0xA0 SHL SUB NOT AND SWAP1 SSTORE ADD SWAP1 SSTORE PUSH2 0x1B6A JUMP JUMPDEST PUSH1 0x1 ADD PUSH2 0x1A76 JUMP JUMPDEST POP PUSH1 0x40 MLOAD PUSH1 0x1 PUSH1 0x1 PUSH1 0xA0 SHL SUB DUP4 AND SWAP1 PUSH32 0x66257BCEF574219C04F7C05F7A1C78D599DA10491294C92A5805C48B4CDF5009 SWAP1 PUSH0 SWAP1 LOG2 POP POP JUMP JUMPDEST PUSH0 MLOAD PUSH1 0x20 PUSH2 0x578F PUSH0 CODECOPY PUSH0 MLOAD SWAP1 PUSH0 MSTORE PUSH2 0x1BB9 DUP2 PUSH2 0x36EE JUMP JUMPDEST PUSH2 0x1846 PUSH2 0x3C8A JUMP JUMPDEST PUSH2 0x19F7 DUP4 DUP4 DUP4 PUSH1 0x40 MLOAD DUP1 PUSH1 0x20 ADD PUSH1 0x40 MSTORE DUP1 PUSH0 DUP2 MSTORE POP PUSH2 0x2D27 JUMP JUMPDEST PUSH2 0x1BE3 PUSH2 0x3775 JUMP JUMPDEST PUSH2 0x1BEB PUSH2 0x389D JUMP JUMPDEST CALLER PUSH0 SWAP1 DUP2 MSTORE PUSH1 0xF PUSH1 0x20 MSTORE PUSH1 0x40 SWAP1 KECCAK256 SLOAD PUSH1 0xFF AND ISZERO PUSH2 0x1C1D JUMPI CALLER PUSH1 0x40 MLOAD PUSH4 0xDF681A93 PUSH1 0xE0 SHL DUP2 MSTORE PUSH1 0x4 ADD PUSH2 0x10FD SWAP2 SWAP1 PUSH2 0x5458 JUMP JUMPDEST CALLER PUSH0 SWAP1 DUP2 MSTORE PUSH1 0x10 PUSH1 0x20 MSTORE PUSH1 0x40 SWAP1 KECCAK256 SLOAD PUSH1 0xFF AND ISZERO PUSH2 0x1C4F JUMPI CALLER PUSH1 0x40 MLOAD PUSH4 0xE34017E1 PUSH1 0xE0 SHL DUP2 MSTORE PUSH1 0x4 ADD PUSH2 0x10FD SWAP2 SWAP1 PUSH2 0x54B3 JUMP JUMPDEST PUSH1 0x5 SLOAD CALLVALUE LT ISZERO PUSH2 0x1C9A JUMPI PUSH1 0x40 MLOAD PUSH3 0x461BCD PUSH1 0xE5 SHL DUP2 MSTORE PUSH1 0x20 PUSH1 0x4 DUP3 ADD MSTORE PUSH1 0x16 PUSH1 0x24 DUP3 ADD MSTORE PUSH22 0x496E73756666696369656E7420636C61696D20666565 PUSH1 0x50 SHL PUSH1 0x44 DUP3 ADD MSTORE PUSH1 0x64 ADD PUSH2 0x10FD JUMP JUMPDEST PUSH0 DUP1 JUMPDEST PUSH1 0x9 SLOAD DUP2 LT ISZERO PUSH2 0x1DEA JUMPI PUSH0 PUSH1 0x9 DUP3 DUP2 SLOAD DUP2 LT PUSH2 0x1CBB JUMPI PUSH2 0x1CBB PUSH2 0x53E5 JUMP JUMPDEST PUSH0 SWAP2 DUP3 MSTORE PUSH1 0x20 DUP1 DUP4 KECCAK256 SWAP1 SWAP2 ADD SLOAD PUSH1 0x1 PUSH1 0x1 PUSH1 0xA0 SHL SUB AND DUP1 DUP4 MSTORE PUSH1 0x8 SWAP1 SWAP2 MSTORE PUSH1 0x40 SWAP1 SWAP2 KECCAK256 SLOAD SWAP1 SWAP2 POP PUSH1 0xFF AND ISZERO PUSH2 0x1DE1 JUMPI PUSH2 0x1CF4 DUP2 CALLER PUSH2 0x37AC JUMP JUMPDEST CALLER PUSH0 SWAP1 DUP2 MSTORE PUSH1 0xE PUSH1 0x20 SWAP1 DUP2 MSTORE PUSH1 0x40 DUP1 DUP4 KECCAK256 PUSH1 0x1 PUSH1 0x1 PUSH1 0xA0 SHL SUB DUP6 AND DUP5 MSTORE SWAP1 SWAP2 MSTORE SWAP1 KECCAK256 SLOAD DUP1 ISZERO PUSH2 0x1DDF JUMPI CALLER PUSH0 DUP2 DUP2 MSTORE PUSH1 0xE PUSH1 0x20 SWAP1 DUP2 MSTORE PUSH1 0x40 DUP1 DUP4 KECCAK256 PUSH1 0x1 PUSH1 0x1 PUSH1 0xA0 SHL SUB DUP8 DUP2 AND DUP6 MSTORE SWAP3 MSTORE DUP1 DUP4 KECCAK256 SWAP3 SWAP1 SWAP3 SSTORE PUSH1 0x1 SLOAD SWAP2 MLOAD PUSH4 0xCD8515CF PUSH1 0xE0 SHL DUP2 MSTORE SWAP2 AND SWAP2 PUSH4 0xCD8515CF SWAP2 PUSH2 0x1D6D SWAP2 SWAP1 DUP7 SWAP1 DUP7 SWAP1 PUSH1 0x4 ADD PUSH2 0x5552 JUMP JUMPDEST PUSH0 PUSH1 0x40 MLOAD DUP1 DUP4 SUB DUP2 PUSH0 DUP8 DUP1 EXTCODESIZE ISZERO DUP1 ISZERO PUSH2 0x1D84 JUMPI PUSH0 PUSH0 REVERT JUMPDEST POP GAS CALL ISZERO DUP1 ISZERO PUSH2 0x1D96 JUMPI RETURNDATASIZE PUSH0 PUSH0 RETURNDATACOPY RETURNDATASIZE PUSH0 REVERT JUMPDEST POP POP PUSH1 0x40 MLOAD DUP4 DUP2 MSTORE PUSH1 0x1 PUSH1 0x1 PUSH1 0xA0 SHL SUB DUP6 AND SWAP3 POP CALLER SWAP2 POP PUSH32 0x540798DF468D7B23D11F156FDB954CB19AD414D150722A7B6D55BA369DEA792E SWAP1 PUSH1 0x20 ADD PUSH1 0x40 MLOAD DUP1 SWAP2 SUB SWAP1 LOG3 PUSH1 0x1 SWAP4 POP JUMPDEST POP JUMPDEST POP PUSH1 0x1 ADD PUSH2 0x1C9D JUMP JUMPDEST POP PUSH0 CALLVALUE GT DUP1 ISZERO PUSH2 0x1DF7 JUMPI POP DUP1 JUMPDEST ISZERO PUSH2 0x1E34 JUMPI PUSH1 0x6 SLOAD PUSH1 0x40 MLOAD PUSH1 0x1 PUSH1 0x1 PUSH1 0xA0 SHL SUB SWAP1 SWAP2 AND SWAP1 CALLVALUE DUP1 ISZERO PUSH2 0x8FC MUL SWAP2 PUSH0 DUP2 DUP2 DUP2 DUP6 DUP9 DUP9 CALL SWAP4 POP POP POP POP ISZERO DUP1 ISZERO PUSH2 0x1E32 JUMPI RETURNDATASIZE PUSH0 PUSH0 RETURNDATACOPY RETURNDATASIZE PUSH0 REVERT JUMPDEST POP JUMPDEST POP PUSH2 0x1E4B PUSH1 0x1 PUSH0 MLOAD PUSH1 0x20 PUSH2 0x580F PUSH0 CODECOPY PUSH0 MLOAD SWAP1 PUSH0 MSTORE SSTORE JUMP JUMPDEST JUMP JUMPDEST PUSH0 PUSH0 MLOAD PUSH1 0x20 PUSH2 0x572F PUSH0 CODECOPY PUSH0 MLOAD SWAP1 PUSH0 MSTORE PUSH2 0x1E71 PUSH0 MLOAD PUSH1 0x20 PUSH2 0x57AF PUSH0 CODECOPY PUSH0 MLOAD SWAP1 PUSH0 MSTORE SLOAD SWAP1 JUMP JUMPDEST DUP4 LT PUSH2 0x1E99 JUMPI PUSH1 0x40 MLOAD PUSH4 0x295F44F7 PUSH1 0xE2 SHL DUP2 MSTORE PUSH0 PUSH1 0x4 DUP3 ADD MSTORE PUSH1 0x24 DUP2 ADD DUP5 SWAP1 MSTORE PUSH1 0x44 ADD PUSH2 0x10FD JUMP JUMPDEST DUP1 PUSH1 0x2 ADD DUP4 DUP2 SLOAD DUP2 LT PUSH2 0x1EAE JUMPI PUSH2 0x1EAE PUSH2 0x53E5 JUMP JUMPDEST SWAP1 PUSH0 MSTORE PUSH1 0x20 PUSH0 KECCAK256 ADD SLOAD SWAP2 POP POP SWAP2 SWAP1 POP JUMP JUMPDEST PUSH0 MLOAD PUSH1 0x20 PUSH2 0x582F PUSH0 CODECOPY PUSH0 MLOAD SWAP1 PUSH0 MSTORE PUSH2 0x1ED6 DUP2 PUSH2 0x36EE JUMP JUMPDEST PUSH1 0x5 DUP3 SWAP1 SSTORE PUSH1 0x40 MLOAD DUP3 DUP2 MSTORE PUSH32 0xC4530A2C82A973DA2165D940859F86F630CA14E4EA7679C03BED6A999D029BF1 SWAP1 PUSH1 0x20 ADD PUSH2 0x1137 JUMP JUMPDEST PUSH0 MLOAD PUSH1 0x20 PUSH2 0x582F PUSH0 CODECOPY PUSH0 MLOAD SWAP1 PUSH0 MSTORE PUSH2 0x1F22 DUP2 PUSH2 0x36EE JUMP JUMPDEST PUSH2 0x1F36 PUSH1 0x1 PUSH1 0x1 PUSH1 0xA0 SHL SUB DUP6 AND DUP5 DUP5 PUSH2 0x3BB0 JUMP JUMPDEST DUP3 PUSH1 0x1 PUSH1 0x1 PUSH1 0xA0 SHL SUB AND DUP5 PUSH1 0x1 PUSH1 0x1 PUSH1 0xA0 SHL SUB AND CALLER PUSH1 0x1 PUSH1 0x1 PUSH1 0xA0 SHL SUB AND PUSH32 0x2503BF16A63C716AFC6165935443FDBFCDA0BFAE53B99AE0935BC46D1298BB86 DUP6 PUSH1 0x40 MLOAD PUSH2 0x1F85 SWAP2 DUP2 MSTORE PUSH1 0x20 ADD SWAP1 JUMP JUMPDEST PUSH1 0x40 MLOAD DUP1 SWAP2 SUB SWAP1 LOG4 POP POP POP POP JUMP JUMPDEST PUSH0 MLOAD PUSH1 0x20 PUSH2 0x582F PUSH0 CODECOPY PUSH0 MLOAD SWAP1 PUSH0 MSTORE PUSH2 0x1FAA DUP2 PUSH2 0x36EE JUMP JUMPDEST PUSH1 0x1 PUSH1 0x1 PUSH1 0xA0 SHL SUB DUP3 AND PUSH0 DUP2 DUP2 MSTORE PUSH1 0x10 PUSH1 0x20 MSTORE PUSH1 0x40 DUP1 DUP3 KECCAK256 DUP1 SLOAD PUSH1 0xFF NOT AND SWAP1 SSTORE MLOAD PUSH32 0x1747CA720B1A174A464B6513ACE29B1D3190B5F632B9F34147017C81425BFDE8 SWAP2 SWAP1 LOG2 POP POP JUMP JUMPDEST PUSH1 0x1 PUSH1 0x1 PUSH1 0xA0 SHL SUB DUP2 AND PUSH0 SWAP1 DUP2 MSTORE PUSH1 0xA PUSH1 0x20 SWAP1 DUP2 MSTORE PUSH1 0x40 DUP1 DUP4 KECCAK256 DUP1 SLOAD DUP3 MLOAD DUP2 DUP6 MUL DUP2 ADD DUP6 ADD SWAP1 SWAP4 MSTORE DUP1 DUP4 MSTORE PUSH1 0x60 SWAP5 SWAP3 SWAP4 SWAP2 SWAP3 SWAP1 SWAP2 DUP5 ADD JUMPDEST DUP3 DUP3 LT ISZERO PUSH2 0x2095 JUMPI DUP4 DUP3 SWAP1 PUSH0 MSTORE PUSH1 0x20 PUSH0 KECCAK256 SWAP1 PUSH1 0x6 MUL ADD PUSH1 0x40 MLOAD DUP1 PUSH1 0xC0 ADD PUSH1 0x40 MSTORE SWAP1 DUP2 PUSH0 DUP3 ADD SLOAD DUP2 MSTORE PUSH1 0x20 ADD PUSH1 0x1 DUP3 ADD SLOAD DUP2 MSTORE PUSH1 0x20 ADD PUSH1 0x2 DUP3 ADD SLOAD DUP2 MSTORE PUSH1 0x20 ADD PUSH1 0x3 DUP3 ADD SLOAD DUP2 MSTORE PUSH1 0x20 ADD PUSH1 0x4 DUP3 ADD SLOAD DUP2 MSTORE PUSH1 0x20 ADD PUSH1 0x5 DUP3 ADD SLOAD DUP2 MSTORE POP POP DUP2 MSTORE PUSH1 0x20 ADD SWAP1 PUSH1 0x1 ADD SWAP1 PUSH2 0x202A JUMP JUMPDEST POP POP POP POP SWAP1 POP SWAP2 SWAP1 POP JUMP JUMPDEST PUSH1 0x9 DUP2 DUP2 SLOAD DUP2 LT PUSH2 0x20AF JUMPI PUSH0 DUP1 REVERT JUMPDEST PUSH0 SWAP2 DUP3 MSTORE PUSH1 0x20 SWAP1 SWAP2 KECCAK256 ADD SLOAD PUSH1 0x1 PUSH1 0x1 PUSH1 0xA0 SHL SUB AND SWAP1 POP DUP2 JUMP JUMPDEST PUSH0 MLOAD PUSH1 0x20 PUSH2 0x576F PUSH0 CODECOPY PUSH0 MLOAD SWAP1 PUSH0 MSTORE PUSH2 0x20DF DUP2 PUSH2 0x36EE JUMP JUMPDEST PUSH1 0x1 PUSH1 0x1 PUSH1 0xA0 SHL SUB DUP3 AND PUSH0 SWAP1 DUP2 MSTORE PUSH1 0xF PUSH1 0x20 MSTORE PUSH1 0x40 SWAP1 KECCAK256 SLOAD PUSH1 0xFF AND PUSH2 0x2133 JUMPI PUSH1 0x40 MLOAD PUSH3 0x461BCD PUSH1 0xE5 SHL DUP2 MSTORE PUSH1 0x20 PUSH1 0x4 DUP3 ADD MSTORE PUSH1 0xA PUSH1 0x24 DUP3 ADD MSTORE PUSH10 0x2737BA10333937BD32B7 PUSH1 0xB1 SHL PUSH1 0x44 DUP3 ADD MSTORE PUSH1 0x64 ADD PUSH2 0x10FD JUMP JUMPDEST PUSH1 0x1 PUSH1 0x1 PUSH1 0xA0 SHL SUB DUP3 AND PUSH0 DUP2 DUP2 MSTORE PUSH1 0xF PUSH1 0x20 MSTORE PUSH1 0x40 SWAP1 DUP2 SWAP1 KECCAK256 DUP1 SLOAD PUSH1 0xFF NOT AND SWAP1 SSTORE MLOAD PUSH32 0xE9D414CB75F78AACBB354C06488F105D0C3F5461B45C70B59FC05B44844F264E SWAP1 PUSH2 0x2184 SWAP1 TIMESTAMP DUP2 MSTORE PUSH1 0x20 ADD SWAP1 JUMP JUMPDEST PUSH1 0x40 MLOAD DUP1 SWAP2 SUB SWAP1 LOG2 POP POP JUMP JUMPDEST PUSH0 MLOAD PUSH1 0x20 PUSH2 0x582F PUSH0 CODECOPY PUSH0 MLOAD SWAP1 PUSH0 MSTORE PUSH2 0x21A7 DUP2 PUSH2 0x36EE JUMP JUMPDEST DUP2 PUSH0 JUMPDEST PUSH1 0x9 SLOAD DUP2 LT ISZERO PUSH2 0x220A JUMPI PUSH0 PUSH1 0x9 DUP3 DUP2 SLOAD DUP2 LT PUSH2 0x21C8 JUMPI PUSH2 0x21C8 PUSH2 0x53E5 JUMP JUMPDEST PUSH0 SWAP2 DUP3 MSTORE PUSH1 0x20 DUP1 DUP4 KECCAK256 SWAP1 SWAP2 ADD SLOAD PUSH1 0x1 PUSH1 0x1 PUSH1 0xA0 SHL SUB AND DUP1 DUP4 MSTORE PUSH1 0x8 SWAP1 SWAP2 MSTORE PUSH1 0x40 SWAP1 SWAP2 KECCAK256 SLOAD SWAP1 SWAP2 POP PUSH1 0xFF AND ISZERO PUSH2 0x2201 JUMPI PUSH2 0x2201 DUP2 DUP5 PUSH2 0x37AC JUMP JUMPDEST POP PUSH1 0x1 ADD PUSH2 0x21AA JUMP JUMPDEST POP PUSH1 0x1 PUSH1 0x1 PUSH1 0xA0 SHL SUB DUP4 AND PUSH0 SWAP1 DUP2 MSTORE PUSH1 0x10 PUSH1 0x20 MSTORE PUSH1 0x40 DUP2 KECCAK256 DUP1 SLOAD PUSH1 0xFF NOT AND PUSH1 0x1 OR SWAP1 SSTORE PUSH2 0x2236 DUP5 PUSH2 0x23BE JUMP JUMPDEST SWAP1 POP PUSH0 DUP2 ISZERO PUSH2 0x237A JUMPI PUSH0 JUMPDEST DUP3 DUP2 LT ISZERO PUSH2 0x22B2 JUMPI PUSH0 PUSH2 0x2254 DUP8 DUP4 PUSH2 0x1865 JUMP JUMPDEST PUSH0 DUP2 DUP2 MSTORE PUSH1 0x7 PUSH1 0x20 MSTORE PUSH1 0x40 SWAP1 KECCAK256 PUSH1 0x3 DUP2 ADD SLOAD SWAP2 SWAP3 POP SWAP1 PUSH1 0xFF AND PUSH2 0x22A8 JUMPI DUP1 SLOAD PUSH2 0x227D SWAP1 DUP6 PUSH2 0x5445 JUMP JUMPDEST PUSH1 0x3 DUP1 DUP4 ADD DUP1 SLOAD PUSH1 0xFF NOT AND PUSH1 0x1 OR SWAP1 SSTORE DUP3 SLOAD DUP2 SLOAD SWAP3 SWAP7 POP SWAP2 PUSH0 SWAP1 PUSH2 0x22A2 SWAP1 DUP5 SWAP1 PUSH2 0x550C JUMP JUMPDEST SWAP1 SWAP2 SSTORE POP POP JUMPDEST POP POP PUSH1 0x1 ADD PUSH2 0x2241 JUMP JUMPDEST POP PUSH0 JUMPDEST PUSH1 0x9 SLOAD DUP2 LT ISZERO PUSH2 0x2319 JUMPI PUSH1 0x1 PUSH1 0x1 PUSH1 0xA0 SHL SUB DUP7 AND PUSH0 SWAP1 DUP2 MSTORE PUSH1 0xE PUSH1 0x20 MSTORE PUSH1 0x40 DUP2 KECCAK256 PUSH1 0x9 DUP1 SLOAD DUP4 SWAP2 SWAP1 DUP6 SWAP1 DUP2 LT PUSH2 0x22ED JUMPI PUSH2 0x22ED PUSH2 0x53E5 JUMP JUMPDEST PUSH0 SWAP2 DUP3 MSTORE PUSH1 0x20 DUP1 DUP4 KECCAK256 SWAP1 SWAP2 ADD SLOAD PUSH1 0x1 PUSH1 0x1 PUSH1 0xA0 SHL SUB AND DUP4 MSTORE DUP3 ADD SWAP3 SWAP1 SWAP3 MSTORE PUSH1 0x40 ADD SWAP1 KECCAK256 SSTORE PUSH1 0x1 ADD PUSH2 0x22B5 JUMP JUMPDEST POP DUP1 ISZERO PUSH2 0x237A JUMPI PUSH0 SLOAD PUSH2 0x2336 SWAP1 PUSH1 0x1 PUSH1 0x1 PUSH1 0xA0 SHL SUB AND DUP7 DUP4 PUSH2 0x3BB0 JUMP JUMPDEST DUP5 PUSH1 0x1 PUSH1 0x1 PUSH1 0xA0 SHL SUB AND PUSH32 0xF7D69068585EAD05D609F5965C9147570964EA979546EE5B072F31B7C31A6EE5 DUP3 PUSH1 0x40 MLOAD PUSH2 0x2371 SWAP2 DUP2 MSTORE PUSH1 0x20 ADD SWAP1 JUMP JUMPDEST PUSH1 0x40 MLOAD DUP1 SWAP2 SUB SWAP1 LOG2 JUMPDEST PUSH1 0x40 MLOAD PUSH1 0x1 PUSH1 0x1 PUSH1 0xA0 SHL SUB DUP7 AND SWAP1 PUSH32 0x44D5FE68B00F68950FB9C1FF0A61EF7F747B1A36359A7E3A7F3324DB4B878967 SWAP1 PUSH0 SWAP1 LOG2 POP POP POP POP POP JUMP JUMPDEST PUSH0 PUSH2 0x1078 DUP3 PUSH2 0x36F8 JUMP JUMPDEST PUSH0 PUSH0 MLOAD PUSH1 0x20 PUSH2 0x574F PUSH0 CODECOPY PUSH0 MLOAD SWAP1 PUSH0 MSTORE PUSH1 0x1 PUSH1 0x1 PUSH1 0xA0 SHL SUB DUP4 AND PUSH2 0x23F6 JUMPI PUSH1 0x40 MLOAD PUSH4 0x22718AD9 PUSH1 0xE2 SHL DUP2 MSTORE PUSH0 PUSH1 0x4 DUP3 ADD MSTORE PUSH1 0x24 ADD PUSH2 0x10FD JUMP JUMPDEST PUSH1 0x1 PUSH1 0x1 PUSH1 0xA0 SHL SUB SWAP1 SWAP3 AND PUSH0 SWAP1 DUP2 MSTORE PUSH1 0x3 SWAP1 SWAP3 ADD PUSH1 0x20 MSTORE POP PUSH1 0x40 SWAP1 KECCAK256 SLOAD SWAP1 JUMP JUMPDEST PUSH0 PUSH2 0x241F PUSH2 0x3775 JUMP JUMPDEST CALLER PUSH0 JUMPDEST PUSH1 0x9 SLOAD DUP2 LT ISZERO PUSH2 0x2482 JUMPI PUSH0 PUSH1 0x9 DUP3 DUP2 SLOAD DUP2 LT PUSH2 0x2440 JUMPI PUSH2 0x2440 PUSH2 0x53E5 JUMP JUMPDEST PUSH0 SWAP2 DUP3 MSTORE PUSH1 0x20 DUP1 DUP4 KECCAK256 SWAP1 SWAP2 ADD SLOAD PUSH1 0x1 PUSH1 0x1 PUSH1 0xA0 SHL SUB AND DUP1 DUP4 MSTORE PUSH1 0x8 SWAP1 SWAP2 MSTORE PUSH1 0x40 SWAP1 SWAP2 KECCAK256 SLOAD SWAP1 SWAP2 POP PUSH1 0xFF AND ISZERO PUSH2 0x2479 JUMPI PUSH2 0x2479 DUP2 DUP5 PUSH2 0x37AC JUMP JUMPDEST POP PUSH1 0x1 ADD PUSH2 0x2422 JUMP JUMPDEST POP PUSH2 0x248B PUSH2 0x389D JUMP JUMPDEST CALLER PUSH0 SWAP1 DUP2 MSTORE PUSH1 0xF PUSH1 0x20 MSTORE PUSH1 0x40 SWAP1 KECCAK256 SLOAD PUSH1 0xFF AND ISZERO PUSH2 0x24BD JUMPI CALLER PUSH1 0x40 MLOAD PUSH4 0xDF681A93 PUSH1 0xE0 SHL DUP2 MSTORE PUSH1 0x4 ADD PUSH2 0x10FD SWAP2 SWAP1 PUSH2 0x5458 JUMP JUMPDEST CALLER PUSH0 SWAP1 DUP2 MSTORE PUSH1 0x10 PUSH1 0x20 MSTORE PUSH1 0x40 SWAP1 KECCAK256 SLOAD PUSH1 0xFF AND ISZERO PUSH2 0x24EF JUMPI CALLER PUSH1 0x40 MLOAD PUSH4 0xE34017E1 PUSH1 0xE0 SHL DUP2 MSTORE PUSH1 0x4 ADD PUSH2 0x10FD SWAP2 SWAP1 PUSH2 0x54B3 JUMP JUMPDEST PUSH2 0x24FC CALLER DUP5 PUSH1 0x4 SLOAD PUSH2 0x38CD JUMP JUMPDEST SWAP2 POP POP PUSH2 0x2515 PUSH1 0x1 PUSH0 MLOAD PUSH1 0x20 PUSH2 0x580F PUSH0 CODECOPY PUSH0 MLOAD SWAP1 PUSH0 MSTORE SSTORE JUMP JUMPDEST SWAP2 SWAP1 POP JUMP JUMPDEST PUSH0 MLOAD PUSH1 0x20 PUSH2 0x578F PUSH0 CODECOPY PUSH0 MLOAD SWAP1 PUSH0 MSTORE PUSH2 0x2531 DUP2 PUSH2 0x36EE JUMP JUMPDEST PUSH2 0x1846 PUSH2 0x3CE9 JUMP JUMPDEST PUSH2 0x2562 PUSH1 0x40 MLOAD DUP1 PUSH1 0x80 ADD PUSH1 0x40 MSTORE DUP1 PUSH0 DUP2 MSTORE PUSH1 0x20 ADD PUSH0 DUP2 MSTORE PUSH1 0x20 ADD PUSH0 DUP2 MSTORE PUSH1 0x20 ADD PUSH0 ISZERO ISZERO DUP2 MSTORE POP SWAP1 JUMP JUMPDEST PUSH0 PUSH2 0x256C DUP4 PUSH2 0x3D31 JUMP JUMPDEST PUSH1 0x1 PUSH1 0x1 PUSH1 0xA0 SHL SUB AND SUB PUSH2 0x25B9 JUMPI PUSH1 0x40 MLOAD PUSH3 0x461BCD PUSH1 0xE5 SHL DUP2 MSTORE PUSH1 0x20 PUSH1 0x4 DUP3 ADD MSTORE PUSH1 0x14 PUSH1 0x24 DUP3 ADD MSTORE PUSH20 0x151BDAD95B88191BD95CC81B9BDD08195E1A5CDD PUSH1 0x62 SHL PUSH1 0x44 DUP3 ADD MSTORE PUSH1 0x64 ADD PUSH2 0x10FD JUMP JUMPDEST POP PUSH0 SWAP1 DUP2 MSTORE PUSH1 0x7 PUSH1 0x20 SWAP1 DUP2 MSTORE PUSH1 0x40 SWAP2 DUP3 SWAP1 KECCAK256 DUP3 MLOAD PUSH1 0x80 DUP2 ADD DUP5 MSTORE DUP2 SLOAD DUP2 MSTORE PUSH1 0x1 DUP3 ADD SLOAD SWAP3 DUP2 ADD SWAP3 SWAP1 SWAP3 MSTORE PUSH1 0x2 DUP2 ADD SLOAD SWAP3 DUP3 ADD SWAP3 SWAP1 SWAP3 MSTORE PUSH1 0x3 SWAP1 SWAP2 ADD SLOAD PUSH1 0xFF AND ISZERO ISZERO PUSH1 0x60 DUP3 ADD MSTORE SWAP1 JUMP JUMPDEST PUSH0 DUP3 DUP2 MSTORE PUSH0 MLOAD PUSH1 0x20 PUSH2 0x570F PUSH0 CODECOPY PUSH0 MLOAD SWAP1 PUSH0 MSTORE PUSH1 0x20 DUP2 SWAP1 MSTORE PUSH1 0x40 DUP3 KECCAK256 PUSH2 0x2627 SWAP1 DUP5 PUSH2 0x3D6A JUMP JUMPDEST SWAP5 SWAP4 POP POP POP POP JUMP JUMPDEST PUSH0 SWAP2 DUP3 MSTORE PUSH0 MLOAD PUSH1 0x20 PUSH2 0x57CF PUSH0 CODECOPY PUSH0 MLOAD SWAP1 PUSH0 MSTORE PUSH1 0x20 SWAP1 DUP2 MSTORE PUSH1 0x40 DUP1 DUP5 KECCAK256 PUSH1 0x1 PUSH1 0x1 PUSH1 0xA0 SHL SUB SWAP4 SWAP1 SWAP4 AND DUP5 MSTORE SWAP2 SWAP1 MSTORE SWAP1 KECCAK256 SLOAD PUSH1 0xFF AND SWAP1 JUMP JUMPDEST PUSH32 0x80BB2B638CC20BC4D0A60D66940F3AB4A00C1D7B313497CA82FB0B4AB0079301 DUP1 SLOAD PUSH1 0x60 SWAP2 PUSH0 MLOAD PUSH1 0x20 PUSH2 0x574F PUSH0 CODECOPY PUSH0 MLOAD SWAP1 PUSH0 MSTORE SWAP2 PUSH2 0x1162 SWAP1 PUSH2 0x53F9 JUMP JUMPDEST PUSH1 0x9 SLOAD PUSH1 0x60 SWAP1 DUP2 SWAP1 PUSH1 0x1 PUSH1 0x1 PUSH1 0x40 SHL SUB DUP2 GT ISZERO PUSH2 0x26C2 JUMPI PUSH2 0x26C2 PUSH2 0x51D7 JUMP JUMPDEST PUSH1 0x40 MLOAD SWAP1 DUP1 DUP3 MSTORE DUP1 PUSH1 0x20 MUL PUSH1 0x20 ADD DUP3 ADD PUSH1 0x40 MSTORE DUP1 ISZERO PUSH2 0x26EB JUMPI DUP2 PUSH1 0x20 ADD PUSH1 0x20 DUP3 MUL DUP1 CALLDATASIZE DUP4 CALLDATACOPY ADD SWAP1 POP JUMPDEST POP PUSH1 0x9 SLOAD SWAP1 SWAP3 POP PUSH1 0x1 PUSH1 0x1 PUSH1 0x40 SHL SUB DUP2 GT ISZERO PUSH2 0x2709 JUMPI PUSH2 0x2709 PUSH2 0x51D7 JUMP JUMPDEST PUSH1 0x40 MLOAD SWAP1 DUP1 DUP3 MSTORE DUP1 PUSH1 0x20 MUL PUSH1 0x20 ADD DUP3 ADD PUSH1 0x40 MSTORE DUP1 ISZERO PUSH2 0x2732 JUMPI DUP2 PUSH1 0x20 ADD PUSH1 0x20 DUP3 MUL DUP1 CALLDATASIZE DUP4 CALLDATACOPY ADD SWAP1 POP JUMPDEST POP SWAP1 POP PUSH0 JUMPDEST PUSH1 0x9 SLOAD DUP2 LT ISZERO PUSH2 0x27DD JUMPI PUSH1 0x9 DUP2 DUP2 SLOAD DUP2 LT PUSH2 0x2754 JUMPI PUSH2 0x2754 PUSH2 0x53E5 JUMP JUMPDEST SWAP1 PUSH0 MSTORE PUSH1 0x20 PUSH0 KECCAK256 ADD PUSH0 SWAP1 SLOAD SWAP1 PUSH2 0x100 EXP SWAP1 DIV PUSH1 0x1 PUSH1 0x1 PUSH1 0xA0 SHL SUB AND DUP4 DUP3 DUP2 MLOAD DUP2 LT PUSH2 0x2781 JUMPI PUSH2 0x2781 PUSH2 0x53E5 JUMP JUMPDEST PUSH1 0x20 MUL PUSH1 0x20 ADD ADD SWAP1 PUSH1 0x1 PUSH1 0x1 PUSH1 0xA0 SHL SUB AND SWAP1 DUP2 PUSH1 0x1 PUSH1 0x1 PUSH1 0xA0 SHL SUB AND DUP2 MSTORE POP POP PUSH2 0x27B8 DUP5 PUSH1 0x9 DUP4 DUP2 SLOAD DUP2 LT PUSH2 0x105F JUMPI PUSH2 0x105F PUSH2 0x53E5 JUMP JUMPDEST DUP3 DUP3 DUP2 MLOAD DUP2 LT PUSH2 0x27CA JUMPI PUSH2 0x27CA PUSH2 0x53E5 JUMP JUMPDEST PUSH1 0x20 SWAP1 DUP2 MUL SWAP2 SWAP1 SWAP2 ADD ADD MSTORE PUSH1 0x1 ADD PUSH2 0x2737 JUMP JUMPDEST POP SWAP2 POP SWAP2 JUMP JUMPDEST PUSH0 MLOAD PUSH1 0x20 PUSH2 0x576F PUSH0 CODECOPY PUSH0 MLOAD SWAP1 PUSH0 MSTORE PUSH2 0x27FA DUP2 PUSH2 0x36EE JUMP JUMPDEST PUSH1 0x1 PUSH1 0x1 PUSH1 0xA0 SHL SUB DUP3 AND PUSH0 SWAP1 DUP2 MSTORE PUSH1 0xF PUSH1 0x20 MSTORE PUSH1 0x40 SWAP1 KECCAK256 SLOAD PUSH1 0xFF AND ISZERO PUSH2 0x2853 JUMPI PUSH1 0x40 MLOAD PUSH3 0x461BCD PUSH1 0xE5 SHL DUP2 MSTORE PUSH1 0x20 PUSH1 0x4 DUP3 ADD MSTORE PUSH1 0xE PUSH1 0x24 DUP3 ADD MSTORE PUSH14 0x20B63932B0B23C90333937BD32B7 PUSH1 0x91 SHL PUSH1 0x44 DUP3 ADD MSTORE PUSH1 0x64 ADD PUSH2 0x10FD JUMP JUMPDEST PUSH1 0x1 PUSH1 0x1 PUSH1 0xA0 SHL SUB DUP3 AND PUSH0 DUP2 DUP2 MSTORE PUSH1 0xF PUSH1 0x20 MSTORE PUSH1 0x40 SWAP1 DUP2 SWAP1 KECCAK256 DUP1 SLOAD PUSH1 0xFF NOT AND PUSH1 0x1 OR SWAP1 SSTORE MLOAD PUSH32 0xB161C4AA40CD54B43336C4B57F33A7308A27AA65D081C1AAFACC49B51002659D SWAP1 PUSH2 0x2184 SWAP1 TIMESTAMP DUP2 MSTORE PUSH1 0x20 ADD SWAP1 JUMP JUMPDEST PUSH2 0x1203 CALLER DUP4 DUP4 PUSH2 0x3D75 JUMP JUMPDEST PUSH0 DUP2 DUP2 MSTORE PUSH0 MLOAD PUSH1 0x20 PUSH2 0x570F PUSH0 CODECOPY PUSH0 MLOAD SWAP1 PUSH0 MSTORE PUSH1 0x20 DUP2 SWAP1 MSTORE PUSH1 0x40 SWAP1 SWAP2 KECCAK256 PUSH1 0x60 SWAP2 SWAP1 PUSH2 0x1587 SWAP1 PUSH2 0x3E24 JUMP JUMPDEST PUSH0 PUSH2 0x28E5 CALLER PUSH2 0x23BE JUMP JUMPDEST SWAP1 POP PUSH0 DUP2 PUSH1 0x1 PUSH1 0x1 PUSH1 0x40 SHL SUB DUP2 GT ISZERO PUSH2 0x2900 JUMPI PUSH2 0x2900 PUSH2 0x51D7 JUMP JUMPDEST PUSH1 0x40 MLOAD SWAP1 DUP1 DUP3 MSTORE DUP1 PUSH1 0x20 MUL PUSH1 0x20 ADD DUP3 ADD PUSH1 0x40 MSTORE DUP1 ISZERO PUSH2 0x2929 JUMPI DUP2 PUSH1 0x20 ADD PUSH1 0x20 DUP3 MUL DUP1 CALLDATASIZE DUP4 CALLDATACOPY ADD SWAP1 POP JUMPDEST POP SWAP1 POP PUSH0 DUP1 JUMPDEST DUP4 DUP2 LT ISZERO PUSH2 0x29A7 JUMPI PUSH0 PUSH2 0x2942 CALLER DUP4 PUSH2 0x1865 JUMP JUMPDEST PUSH0 DUP2 DUP2 MSTORE PUSH1 0x7 PUSH1 0x20 MSTORE PUSH1 0x40 SWAP1 KECCAK256 PUSH1 0x3 DUP2 ADD SLOAD SWAP2 SWAP3 POP SWAP1 PUSH1 0xFF AND ISZERO DUP1 ISZERO PUSH2 0x296C JUMPI POP DUP1 PUSH1 0x1 ADD SLOAD TIMESTAMP LT ISZERO JUMPDEST ISZERO PUSH2 0x299D JUMPI DUP2 DUP6 DUP6 DUP2 MLOAD DUP2 LT PUSH2 0x2984 JUMPI PUSH2 0x2984 PUSH2 0x53E5 JUMP JUMPDEST PUSH1 0x20 SWAP1 DUP2 MUL SWAP2 SWAP1 SWAP2 ADD ADD MSTORE DUP4 PUSH2 0x2999 DUP2 PUSH2 0x5576 JUMP JUMPDEST SWAP5 POP POP JUMPDEST POP POP PUSH1 0x1 ADD PUSH2 0x292F JUMP JUMPDEST POP PUSH0 JUMPDEST DUP2 DUP2 LT ISZERO PUSH2 0x1611 JUMPI PUSH2 0x29D4 DUP4 DUP3 DUP2 MLOAD DUP2 LT PUSH2 0x29C7 JUMPI PUSH2 0x29C7 PUSH2 0x53E5 JUMP JUMPDEST PUSH1 0x20 MUL PUSH1 0x20 ADD ADD MLOAD PUSH2 0x1637 JUMP JUMPDEST PUSH1 0x1 ADD PUSH2 0x29AA JUMP JUMPDEST PUSH0 MLOAD PUSH1 0x20 PUSH2 0x582F PUSH0 CODECOPY PUSH0 MLOAD SWAP1 PUSH0 MSTORE PUSH2 0x29F3 DUP2 PUSH2 0x36EE JUMP JUMPDEST DUP4 PUSH0 PUSH2 0x29FF DUP3 DUP3 PUSH2 0x37AC JUMP JUMPDEST PUSH1 0x1 PUSH1 0x1 PUSH1 0xA0 SHL SUB DUP7 AND PUSH0 SWAP1 DUP2 MSTORE PUSH1 0x8 PUSH1 0x20 MSTORE PUSH1 0x40 SWAP1 KECCAK256 SLOAD PUSH1 0xFF AND PUSH2 0x2A42 JUMPI PUSH1 0x40 MLOAD PUSH4 0x751DFF97 PUSH1 0xE1 SHL DUP2 MSTORE PUSH1 0x1 PUSH1 0x1 PUSH1 0xA0 SHL SUB DUP8 AND PUSH1 0x4 DUP3 ADD MSTORE PUSH1 0x24 ADD PUSH2 0x10FD JUMP JUMPDEST PUSH0 DUP6 GT PUSH2 0x2A91 JUMPI PUSH1 0x40 MLOAD PUSH3 0x461BCD PUSH1 0xE5 SHL DUP2 MSTORE PUSH1 0x20 PUSH1 0x4 DUP3 ADD MSTORE PUSH1 0x17 PUSH1 0x24 DUP3 ADD MSTORE PUSH32 0x43616E6E6F7420737570706C7920302072657761726473000000000000000000 PUSH1 0x44 DUP3 ADD MSTORE PUSH1 0x64 ADD PUSH2 0x10FD JUMP JUMPDEST PUSH0 DUP5 GT PUSH2 0x2AE0 JUMPI PUSH1 0x40 MLOAD PUSH3 0x461BCD PUSH1 0xE5 SHL DUP2 MSTORE PUSH1 0x20 PUSH1 0x4 DUP3 ADD MSTORE PUSH1 0x1F PUSH1 0x24 DUP3 ADD MSTORE PUSH32 0x4475726174696F6E206D7573742062652067726561746572207468616E203000 PUSH1 0x44 DUP3 ADD MSTORE PUSH1 0x64 ADD PUSH2 0x10FD JUMP JUMPDEST PUSH1 0x1 SLOAD PUSH2 0x2AFC SWAP1 PUSH1 0x1 PUSH1 0x1 PUSH1 0xA0 SHL SUB DUP9 DUP2 AND SWAP2 CALLER SWAP2 AND DUP9 PUSH2 0x3E30 JUMP JUMPDEST PUSH1 0x1 PUSH1 0x1 PUSH1 0xA0 SHL SUB DUP7 AND PUSH0 SWAP1 DUP2 MSTORE PUSH1 0xA PUSH1 0x20 MSTORE PUSH1 0x40 SWAP1 DUP2 SWAP1 KECCAK256 DUP2 MLOAD PUSH1 0xC0 DUP2 ADD SWAP1 SWAP3 MSTORE SWAP1 DUP1 PUSH2 0x2B2A DUP8 DUP10 PUSH2 0x551F JUMP JUMPDEST DUP2 MSTORE PUSH1 0x20 ADD TIMESTAMP DUP2 MSTORE PUSH1 0x20 ADD DUP7 TIMESTAMP PUSH2 0x2B41 SWAP2 SWAP1 PUSH2 0x5445 JUMP JUMPDEST DUP2 MSTORE PUSH1 0x20 DUP1 DUP3 ADD DUP10 SWAP1 MSTORE PUSH0 PUSH1 0x40 DUP1 DUP5 ADD DUP3 SWAP1 MSTORE PUSH1 0x60 SWAP4 DUP5 ADD DUP3 SWAP1 MSTORE DUP6 SLOAD PUSH1 0x1 DUP2 DUP2 ADD DUP9 SSTORE SWAP7 DUP4 MSTORE SWAP2 DUP4 SWAP1 KECCAK256 DUP6 MLOAD PUSH1 0x6 SWAP1 SWAP4 MUL ADD SWAP2 DUP3 SSTORE SWAP2 DUP5 ADD MLOAD SWAP5 DUP2 ADD SWAP5 SWAP1 SWAP5 SSTORE DUP3 ADD MLOAD PUSH1 0x2 DUP5 ADD SSTORE DUP2 ADD MLOAD PUSH1 0x3 DUP4 ADD SSTORE PUSH1 0x80 DUP2 ADD MLOAD PUSH1 0x4 DUP4 ADD SSTORE PUSH1 0xA0 ADD MLOAD PUSH1 0x5 SWAP1 SWAP2 ADD SSTORE PUSH1 0x1 PUSH1 0x1 PUSH1 0xA0 SHL SUB DUP7 AND PUSH32 0x727302BECD070529B3293F4EC8F553D9F6AE1773F638598DB1205FBF8908083 DUP7 DUP7 PUSH2 0x2BDD DUP2 DUP4 PUSH2 0x551F JUMP JUMPDEST PUSH1 0x40 DUP1 MLOAD SWAP4 DUP5 MSTORE PUSH1 0x20 DUP5 ADD SWAP3 SWAP1 SWAP3 MSTORE SWAP1 DUP3 ADD MSTORE PUSH1 0x60 ADD PUSH1 0x40 MLOAD DUP1 SWAP2 SUB SWAP1 LOG2 POP POP POP POP POP POP JUMP JUMPDEST PUSH0 MLOAD PUSH1 0x20 PUSH2 0x582F PUSH0 CODECOPY PUSH0 MLOAD SWAP1 PUSH0 MSTORE PUSH2 0x2C1A DUP2 PUSH2 0x36EE JUMP JUMPDEST PUSH1 0x40 MLOAD PUSH4 0x23B872DD PUSH1 0xE0 SHL DUP2 MSTORE DUP5 SWAP1 PUSH1 0x1 PUSH1 0x1 PUSH1 0xA0 SHL SUB DUP3 AND SWAP1 PUSH4 0x23B872DD SWAP1 PUSH2 0x2C4C SWAP1 ADDRESS SWAP1 DUP9 SWAP1 DUP9 SWAP1 PUSH1 0x4 ADD PUSH2 0x5552 JUMP JUMPDEST PUSH0 PUSH1 0x40 MLOAD DUP1 DUP4 SUB DUP2 PUSH0 DUP8 DUP1 EXTCODESIZE ISZERO DUP1 ISZERO PUSH2 0x2C63 JUMPI PUSH0 PUSH0 REVERT JUMPDEST POP GAS CALL ISZERO DUP1 ISZERO PUSH2 0x2C75 JUMPI RETURNDATASIZE PUSH0 PUSH0 RETURNDATACOPY RETURNDATASIZE PUSH0 REVERT JUMPDEST POP POP POP POP DUP4 PUSH1 0x1 PUSH1 0x1 PUSH1 0xA0 SHL SUB AND DUP6 PUSH1 0x1 PUSH1 0x1 PUSH1 0xA0 SHL SUB AND CALLER PUSH1 0x1 PUSH1 0x1 PUSH1 0xA0 SHL SUB AND PUSH32 0x4744BB01C1AB0B5B28A5D0006A4318240B4E4243C572309D6814313EA8E05549 DUP7 PUSH1 0x40 MLOAD PUSH2 0x2CC8 SWAP2 DUP2 MSTORE PUSH1 0x20 ADD SWAP1 JUMP JUMPDEST PUSH1 0x40 MLOAD DUP1 SWAP2 SUB SWAP1 LOG4 POP POP POP POP POP JUMP JUMPDEST PUSH1 0xA PUSH1 0x20 MSTORE DUP2 PUSH0 MSTORE PUSH1 0x40 PUSH0 KECCAK256 DUP2 DUP2 SLOAD DUP2 LT PUSH2 0x2CF0 JUMPI PUSH0 DUP1 REVERT JUMPDEST PUSH0 SWAP2 DUP3 MSTORE PUSH1 0x20 SWAP1 SWAP2 KECCAK256 PUSH1 0x6 SWAP1 SWAP2 MUL ADD DUP1 SLOAD PUSH1 0x1 DUP3 ADD SLOAD PUSH1 0x2 DUP4 ADD SLOAD PUSH1 0x3 DUP5 ADD SLOAD PUSH1 0x4 DUP6 ADD SLOAD PUSH1 0x5 SWAP1 SWAP6 ADD SLOAD SWAP4 SWAP7 POP SWAP2 SWAP5 POP SWAP3 SWAP1 SWAP2 DUP7 JUMP JUMPDEST PUSH2 0x2D32 DUP5 DUP5 DUP5 PUSH2 0x158E JUMP JUMPDEST PUSH2 0x1611 CALLER DUP6 DUP6 DUP6 DUP6 PUSH2 0x3E58 JUMP JUMPDEST PUSH0 PUSH2 0x2D48 PUSH2 0x3F80 JUMP JUMPDEST DUP1 SLOAD SWAP1 SWAP2 POP PUSH1 0xFF PUSH1 0x1 PUSH1 0x40 SHL DUP3 DIV AND ISZERO SWAP1 PUSH1 0x1 PUSH1 0x1 PUSH1 0x40 SHL SUB AND PUSH0 DUP2 ISZERO DUP1 ISZERO PUSH2 0x2D6E JUMPI POP DUP3 JUMPDEST SWAP1 POP PUSH0 DUP3 PUSH1 0x1 PUSH1 0x1 PUSH1 0x40 SHL SUB AND PUSH1 0x1 EQ DUP1 ISZERO PUSH2 0x2D89 JUMPI POP ADDRESS EXTCODESIZE ISZERO JUMPDEST SWAP1 POP DUP2 ISZERO DUP1 ISZERO PUSH2 0x2D97 JUMPI POP DUP1 ISZERO JUMPDEST ISZERO PUSH2 0x2DB5 JUMPI PUSH1 0x40 MLOAD PUSH4 0xF92EE8A9 PUSH1 0xE0 SHL DUP2 MSTORE PUSH1 0x4 ADD PUSH1 0x40 MLOAD DUP1 SWAP2 SUB SWAP1 REVERT JUMPDEST DUP5 SLOAD PUSH8 0xFFFFFFFFFFFFFFFF NOT AND PUSH1 0x1 OR DUP6 SSTORE DUP4 ISZERO PUSH2 0x2DDF JUMPI DUP5 SLOAD PUSH1 0xFF PUSH1 0x40 SHL NOT AND PUSH1 0x1 PUSH1 0x40 SHL OR DUP6 SSTORE JUMPDEST PUSH2 0x2E38 PUSH1 0x40 MLOAD DUP1 PUSH1 0x40 ADD PUSH1 0x40 MSTORE DUP1 PUSH1 0x16 DUP2 MSTORE PUSH1 0x20 ADD PUSH22 0x20BB34B0BA37B91029BA30B5B2902837B9B4BA34B7B7 PUSH1 0x51 SHL DUP2 MSTORE POP PUSH1 0x40 MLOAD DUP1 PUSH1 0x40 ADD PUSH1 0x40 MSTORE DUP1 PUSH1 0x9 DUP2 MSTORE PUSH1 0x20 ADD PUSH9 0x1CDD1055924B539195 PUSH1 0xBA SHL DUP2 MSTORE POP PUSH2 0x3FA8 JUMP JUMPDEST PUSH2 0x2E40 PUSH2 0x3FBA JUMP JUMPDEST PUSH2 0x2E48 PUSH2 0x3FBA JUMP JUMPDEST PUSH2 0x2E50 PUSH2 0x3FC2 JUMP JUMPDEST PUSH2 0x2E58 PUSH2 0x3FBA JUMP JUMPDEST PUSH0 DUP1 SLOAD PUSH1 0x1 PUSH1 0x1 PUSH1 0xA0 SHL SUB DUP1 DUP11 AND PUSH1 0x1 PUSH1 0x1 PUSH1 0xA0 SHL SUB NOT SWAP3 DUP4 AND OR DUP4 SSTORE PUSH1 0x1 DUP1 SLOAD DUP11 DUP4 AND SWAP1 DUP5 AND OR DUP2 SSTORE PUSH1 0x2 SSTORE PUSH3 0x6EBE00 PUSH1 0x4 SSTORE PUSH7 0x11C37937E08000 PUSH1 0x5 SSTORE PUSH1 0x6 DUP1 SLOAD SWAP2 DUP13 AND SWAP2 SWAP1 SWAP3 AND OR SWAP1 SSTORE PUSH2 0x2EAF SWAP1 DUP10 PUSH2 0x3C0F JUMP JUMPDEST POP PUSH2 0x2EC7 PUSH0 MLOAD PUSH1 0x20 PUSH2 0x582F PUSH0 CODECOPY PUSH0 MLOAD SWAP1 PUSH0 MSTORE DUP10 PUSH2 0x3C0F JUMP JUMPDEST POP PUSH2 0x2EDF PUSH0 MLOAD PUSH1 0x20 PUSH2 0x578F PUSH0 CODECOPY PUSH0 MLOAD SWAP1 PUSH0 MSTORE DUP10 PUSH2 0x3C0F JUMP JUMPDEST POP PUSH2 0x2EF7 PUSH0 MLOAD PUSH1 0x20 PUSH2 0x576F PUSH0 CODECOPY PUSH0 MLOAD SWAP1 PUSH0 MSTORE DUP10 PUSH2 0x3C0F JUMP JUMPDEST POP DUP4 ISZERO PUSH2 0x2F3E JUMPI DUP5 SLOAD PUSH1 0xFF PUSH1 0x40 SHL NOT AND DUP6 SSTORE PUSH1 0x40 MLOAD PUSH1 0x1 DUP2 MSTORE PUSH32 0xC7F505B2F371AE2175EE4913F4499E1F2633A7B5936321EED1CDAEB6115181D2 SWAP1 PUSH1 0x20 ADD PUSH1 0x40 MLOAD DUP1 SWAP2 SUB SWAP1 LOG1 JUMPDEST POP POP POP POP POP POP POP POP JUMP JUMPDEST PUSH0 PUSH0 PUSH2 0x2F53 DUP4 PUSH2 0x23BE JUMP JUMPDEST SWAP1 POP PUSH0 DUP1 JUMPDEST DUP3 DUP2 LT ISZERO PUSH2 0x1272 JUMPI PUSH0 PUSH2 0x2F6B DUP7 DUP4 PUSH2 0x1865 JUMP JUMPDEST PUSH0 DUP2 DUP2 MSTORE PUSH1 0x7 PUSH1 0x20 MSTORE PUSH1 0x40 SWAP1 KECCAK256 PUSH1 0x3 DUP2 ADD SLOAD SWAP2 SWAP3 POP SWAP1 PUSH1 0xFF AND ISZERO DUP1 ISZERO PUSH2 0x2F94 JUMPI POP DUP1 PUSH1 0x1 ADD SLOAD TIMESTAMP LT JUMPDEST ISZERO PUSH2 0x2FA8 JUMPI DUP1 SLOAD PUSH2 0x2FA5 SWAP1 DUP6 PUSH2 0x5445 JUMP JUMPDEST SWAP4 POP JUMPDEST POP POP PUSH1 0x1 ADD PUSH2 0x2F58 JUMP JUMPDEST PUSH1 0x60 PUSH2 0x2FBD DUP3 PUSH2 0x36F8 JUMP JUMPDEST POP PUSH0 PUSH2 0x2FD3 PUSH1 0x40 DUP1 MLOAD PUSH1 0x20 DUP2 ADD SWAP1 SWAP2 MSTORE PUSH0 DUP2 MSTORE SWAP1 JUMP JUMPDEST SWAP1 POP PUSH0 DUP2 MLOAD GT PUSH2 0x2FF1 JUMPI PUSH1 0x40 MLOAD DUP1 PUSH1 0x20 ADD PUSH1 0x40 MSTORE DUP1 PUSH0 DUP2 MSTORE POP PUSH2 0x1587 JUMP JUMPDEST DUP1 PUSH2 0x2FFB DUP5 PUSH2 0x3FD2 JUMP JUMPDEST PUSH1 0x40 MLOAD PUSH1 0x20 ADD PUSH2 0x300C SWAP3 SWAP2 SWAP1 PUSH2 0x55A5 JUMP JUMPDEST PUSH1 0x40 MLOAD PUSH1 0x20 DUP2 DUP4 SUB SUB DUP2 MSTORE SWAP1 PUSH1 0x40 MSTORE SWAP4 SWAP3 POP POP POP JUMP JUMPDEST PUSH0 DUP2 DUP2 MSTORE PUSH0 MLOAD PUSH1 0x20 PUSH2 0x570F PUSH0 CODECOPY PUSH0 MLOAD SWAP1 PUSH0 MSTORE PUSH1 0x20 DUP2 SWAP1 MSTORE PUSH1 0x40 DUP3 KECCAK256 PUSH2 0x1587 SWAP1 PUSH2 0x4061 JUMP JUMPDEST PUSH2 0x304E PUSH2 0x3775 JUMP JUMPDEST DUP1 CALLER PUSH2 0x305A DUP3 DUP3 PUSH2 0x37AC JUMP JUMPDEST PUSH2 0x3062 PUSH2 0x389D JUMP JUMPDEST CALLER PUSH0 SWAP1 DUP2 MSTORE PUSH1 0xF PUSH1 0x20 MSTORE PUSH1 0x40 SWAP1 KECCAK256 SLOAD PUSH1 0xFF AND ISZERO PUSH2 0x3094 JUMPI CALLER PUSH1 0x40 MLOAD PUSH4 0xDF681A93 PUSH1 0xE0 SHL DUP2 MSTORE PUSH1 0x4 ADD PUSH2 0x10FD SWAP2 SWAP1 PUSH2 0x5458 JUMP JUMPDEST CALLER PUSH0 SWAP1 DUP2 MSTORE PUSH1 0x10 PUSH1 0x20 MSTORE PUSH1 0x40 SWAP1 KECCAK256 SLOAD PUSH1 0xFF AND ISZERO PUSH2 0x30C6 JUMPI CALLER PUSH1 0x40 MLOAD PUSH4 0xE34017E1 PUSH1 0xE0 SHL DUP2 MSTORE PUSH1 0x4 ADD PUSH2 0x10FD SWAP2 SWAP1 PUSH2 0x54B3 JUMP JUMPDEST PUSH1 0x5 SLOAD CALLVALUE LT ISZERO PUSH2 0x3111 JUMPI PUSH1 0x40 MLOAD PUSH3 0x461BCD PUSH1 0xE5 SHL DUP2 MSTORE PUSH1 0x20 PUSH1 0x4 DUP3 ADD MSTORE PUSH1 0x16 PUSH1 0x24 DUP3 ADD MSTORE PUSH22 0x496E73756666696369656E7420636C61696D20666565 PUSH1 0x50 SHL PUSH1 0x44 DUP3 ADD MSTORE PUSH1 0x64 ADD PUSH2 0x10FD JUMP JUMPDEST CALLER PUSH0 SWAP1 DUP2 MSTORE PUSH1 0xE PUSH1 0x20 SWAP1 DUP2 MSTORE PUSH1 0x40 DUP1 DUP4 KECCAK256 PUSH1 0x1 PUSH1 0x1 PUSH1 0xA0 SHL SUB DUP8 AND DUP5 MSTORE SWAP1 SWAP2 MSTORE SWAP1 KECCAK256 SLOAD DUP1 ISZERO PUSH2 0x31F8 JUMPI CALLER PUSH0 DUP2 DUP2 MSTORE PUSH1 0xE PUSH1 0x20 SWAP1 DUP2 MSTORE PUSH1 0x40 DUP1 DUP4 KECCAK256 PUSH1 0x1 PUSH1 0x1 PUSH1 0xA0 SHL SUB DUP10 DUP2 AND DUP6 MSTORE SWAP3 MSTORE DUP1 DUP4 KECCAK256 SWAP3 SWAP1 SWAP3 SSTORE PUSH1 0x1 SLOAD SWAP2 MLOAD PUSH4 0xCD8515CF PUSH1 0xE0 SHL DUP2 MSTORE SWAP2 AND SWAP2 PUSH4 0xCD8515CF SWAP2 PUSH2 0x318A SWAP2 SWAP1 DUP9 SWAP1 DUP7 SWAP1 PUSH1 0x4 ADD PUSH2 0x5552 JUMP JUMPDEST PUSH0 PUSH1 0x40 MLOAD DUP1 DUP4 SUB DUP2 PUSH0 DUP8 DUP1 EXTCODESIZE ISZERO DUP1 ISZERO PUSH2 0x31A1 JUMPI PUSH0 PUSH0 REVERT JUMPDEST POP GAS CALL ISZERO DUP1 ISZERO PUSH2 0x31B3 JUMPI RETURNDATASIZE PUSH0 PUSH0 RETURNDATACOPY RETURNDATASIZE PUSH0 REVERT JUMPDEST POP POP PUSH1 0x40 MLOAD DUP4 DUP2 MSTORE PUSH1 0x1 PUSH1 0x1 PUSH1 0xA0 SHL SUB DUP8 AND SWAP3 POP CALLER SWAP2 POP PUSH32 0x540798DF468D7B23D11F156FDB954CB19AD414D150722A7B6D55BA369DEA792E SWAP1 PUSH1 0x20 ADD PUSH1 0x40 MLOAD DUP1 SWAP2 SUB SWAP1 LOG3 JUMPDEST CALLVALUE ISZERO PUSH2 0x3236 JUMPI PUSH1 0x6 SLOAD PUSH1 0x40 MLOAD PUSH1 0x1 PUSH1 0x1 PUSH1 0xA0 SHL SUB SWAP1 SWAP2 AND SWAP1 CALLVALUE DUP1 ISZERO PUSH2 0x8FC MUL SWAP2 PUSH0 DUP2 DUP2 DUP2 DUP6 DUP9 DUP9 CALL SWAP4 POP POP POP POP ISZERO DUP1 ISZERO PUSH2 0x3234 JUMPI RETURNDATASIZE PUSH0 PUSH0 RETURNDATACOPY RETURNDATASIZE PUSH0 REVERT JUMPDEST POP JUMPDEST POP POP POP PUSH2 0x1846 PUSH1 0x1 PUSH0 MLOAD PUSH1 0x20 PUSH2 0x580F PUSH0 CODECOPY PUSH0 MLOAD SWAP1 PUSH0 MSTORE SSTORE JUMP JUMPDEST PUSH2 0x3258 DUP3 PUSH2 0x1617 JUMP JUMPDEST PUSH2 0x3261 DUP2 PUSH2 0x36EE JUMP JUMPDEST PUSH2 0x1611 DUP4 DUP4 PUSH2 0x3C51 JUMP JUMPDEST PUSH0 MLOAD PUSH1 0x20 PUSH2 0x582F PUSH0 CODECOPY PUSH0 MLOAD SWAP1 PUSH0 MSTORE PUSH2 0x3282 DUP2 PUSH2 0x36EE JUMP JUMPDEST PUSH1 0x40 MLOAD PUSH1 0x1 PUSH1 0x1 PUSH1 0xA0 SHL SUB DUP5 AND SWAP1 DUP4 ISZERO PUSH2 0x8FC MUL SWAP1 DUP5 SWAP1 PUSH0 DUP2 DUP2 DUP2 DUP6 DUP9 DUP9 CALL SWAP4 POP POP POP POP ISZERO DUP1 ISZERO PUSH2 0x32B5 JUMPI RETURNDATASIZE PUSH0 PUSH0 RETURNDATACOPY RETURNDATASIZE PUSH0 REVERT JUMPDEST POP PUSH1 0x40 MLOAD DUP3 DUP2 MSTORE PUSH1 0x1 PUSH1 0x1 PUSH1 0xA0 SHL SUB DUP5 AND SWAP1 CALLER SWAP1 PUSH32 0x51A3AEF945B229F9F13F9C7411484FE8436ED204499A994908F9B913103928BA SWAP1 PUSH1 0x20 ADD PUSH1 0x40 MLOAD DUP1 SWAP2 SUB SWAP1 LOG3 POP POP POP JUMP JUMPDEST PUSH1 0x60 PUSH1 0x9 DUP1 SLOAD DUP1 PUSH1 0x20 MUL PUSH1 0x20 ADD PUSH1 0x40 MLOAD SWAP1 DUP2 ADD PUSH1 0x40 MSTORE DUP1 SWAP3 SWAP2 SWAP1 DUP2 DUP2 MSTORE PUSH1 0x20 ADD DUP3 DUP1 SLOAD DUP1 ISZERO PUSH2 0x3351 JUMPI PUSH1 0x20 MUL DUP3 ADD SWAP2 SWAP1 PUSH0 MSTORE PUSH1 0x20 PUSH0 KECCAK256 SWAP1 JUMPDEST DUP2 SLOAD PUSH1 0x1 PUSH1 0x1 PUSH1 0xA0 SHL SUB AND DUP2 MSTORE PUSH1 0x1 SWAP1 SWAP2 ADD SWAP1 PUSH1 0x20 ADD DUP1 DUP4 GT PUSH2 0x3333 JUMPI JUMPDEST POP POP POP POP POP SWAP1 POP SWAP1 JUMP JUMPDEST PUSH1 0x60 PUSH0 PUSH2 0x3367 DUP4 PUSH2 0x23BE JUMP JUMPDEST SWAP1 POP PUSH0 DUP2 PUSH1 0x1 PUSH1 0x1 PUSH1 0x40 SHL SUB DUP2 GT ISZERO PUSH2 0x3382 JUMPI PUSH2 0x3382 PUSH2 0x51D7 JUMP JUMPDEST PUSH1 0x40 MLOAD SWAP1 DUP1 DUP3 MSTORE DUP1 PUSH1 0x20 MUL PUSH1 0x20 ADD DUP3 ADD PUSH1 0x40 MSTORE DUP1 ISZERO PUSH2 0x33DC JUMPI DUP2 PUSH1 0x20 ADD JUMPDEST PUSH2 0x33C9 PUSH1 0x40 MLOAD DUP1 PUSH1 0x80 ADD PUSH1 0x40 MSTORE DUP1 PUSH0 DUP2 MSTORE PUSH1 0x20 ADD PUSH0 DUP2 MSTORE PUSH1 0x20 ADD PUSH0 DUP2 MSTORE PUSH1 0x20 ADD PUSH0 ISZERO ISZERO DUP2 MSTORE POP SWAP1 JUMP JUMPDEST DUP2 MSTORE PUSH1 0x20 ADD SWAP1 PUSH1 0x1 SWAP1 SUB SWAP1 DUP2 PUSH2 0x33A0 JUMPI SWAP1 POP JUMPDEST POP SWAP1 POP PUSH0 JUMPDEST DUP3 DUP2 LT ISZERO PUSH2 0x1272 JUMPI PUSH0 PUSH2 0x33F4 DUP7 DUP4 PUSH2 0x1865 JUMP JUMPDEST PUSH0 DUP2 DUP2 MSTORE PUSH1 0x7 PUSH1 0x20 SWAP1 DUP2 MSTORE PUSH1 0x40 SWAP2 DUP3 SWAP1 KECCAK256 DUP3 MLOAD PUSH1 0x80 DUP2 ADD DUP5 MSTORE DUP2 SLOAD DUP2 MSTORE PUSH1 0x1 DUP3 ADD SLOAD SWAP3 DUP2 ADD SWAP3 SWAP1 SWAP3 MSTORE PUSH1 0x2 DUP2 ADD SLOAD SWAP3 DUP3 ADD SWAP3 SWAP1 SWAP3 MSTORE PUSH1 0x3 SWAP1 SWAP2 ADD SLOAD PUSH1 0xFF AND ISZERO ISZERO PUSH1 0x60 DUP3 ADD MSTORE DUP5 MLOAD SWAP2 SWAP3 POP SWAP1 DUP5 SWAP1 DUP5 SWAP1 DUP2 LT PUSH2 0x3451 JUMPI PUSH2 0x3451 PUSH2 0x53E5 JUMP JUMPDEST PUSH1 0x20 SWAP1 DUP2 MUL SWAP2 SWAP1 SWAP2 ADD ADD MSTORE POP PUSH1 0x1 ADD PUSH2 0x33E1 JUMP JUMPDEST PUSH0 JUMPDEST DUP2 DUP2 LT ISZERO PUSH2 0x19F7 JUMPI PUSH2 0x3490 DUP4 DUP4 DUP4 DUP2 DUP2 LT PUSH2 0x3484 JUMPI PUSH2 0x3484 PUSH2 0x53E5 JUMP JUMPDEST SWAP1 POP PUSH1 0x20 MUL ADD CALLDATALOAD PUSH2 0x1637 JUMP JUMPDEST PUSH1 0x1 ADD PUSH2 0x3467 JUMP JUMPDEST PUSH1 0x1 PUSH1 0x1 PUSH1 0xA0 SHL SUB SWAP2 DUP3 AND PUSH0 SWAP1 DUP2 MSTORE PUSH32 0x80BB2B638CC20BC4D0A60D66940F3AB4A00C1D7B313497CA82FB0B4AB0079305 PUSH1 0x20 SWAP1 DUP2 MSTORE PUSH1 0x40 DUP1 DUP4 KECCAK256 SWAP4 SWAP1 SWAP5 AND DUP3 MSTORE SWAP2 SWAP1 SWAP2 MSTORE KECCAK256 SLOAD PUSH1 0xFF AND SWAP1 JUMP JUMPDEST PUSH1 0x1 PUSH1 0x1 PUSH1 0xA0 SHL SUB DUP2 AND PUSH0 SWAP1 DUP2 MSTORE PUSH1 0xA PUSH1 0x20 MSTORE PUSH1 0x40 DUP2 KECCAK256 DUP2 SWAP1 DUP2 JUMPDEST DUP2 SLOAD DUP2 LT ISZERO PUSH2 0x3595 JUMPI DUP2 DUP2 DUP2 SLOAD DUP2 LT PUSH2 0x351A JUMPI PUSH2 0x351A PUSH2 0x53E5 JUMP JUMPDEST SWAP1 PUSH0 MSTORE PUSH1 0x20 PUSH0 KECCAK256 SWAP1 PUSH1 0x6 MUL ADD PUSH1 0x1 ADD SLOAD TIMESTAMP LT ISZERO DUP1 ISZERO PUSH2 0x3559 JUMPI POP DUP2 DUP2 DUP2 SLOAD DUP2 LT PUSH2 0x3546 JUMPI PUSH2 0x3546 PUSH2 0x53E5 JUMP JUMPDEST SWAP1 PUSH0 MSTORE PUSH1 0x20 PUSH0 KECCAK256 SWAP1 PUSH1 0x6 MUL ADD PUSH1 0x2 ADD SLOAD TIMESTAMP LT JUMPDEST ISZERO PUSH2 0x358D JUMPI DUP2 DUP2 DUP2 SLOAD DUP2 LT PUSH2 0x3570 JUMPI PUSH2 0x3570 PUSH2 0x53E5 JUMP JUMPDEST SWAP1 PUSH0 MSTORE PUSH1 0x20 PUSH0 KECCAK256 SWAP1 PUSH1 0x6 MUL ADD PUSH0 ADD SLOAD DUP4 PUSH2 0x358A SWAP2 SWAP1 PUSH2 0x5445 JUMP JUMPDEST SWAP3 POP JUMPDEST PUSH1 0x1 ADD PUSH2 0x34FF JUMP JUMPDEST POP SWAP1 SWAP4 SWAP3 POP POP POP JUMP JUMPDEST PUSH0 MLOAD PUSH1 0x20 PUSH2 0x582F PUSH0 CODECOPY PUSH0 MLOAD SWAP1 PUSH0 MSTORE PUSH2 0x35B5 DUP2 PUSH2 0x36EE JUMP JUMPDEST PUSH1 0x1 PUSH1 0x1 PUSH1 0xA0 SHL SUB DUP3 AND PUSH2 0x35FD JUMPI PUSH1 0x40 MLOAD PUSH3 0x461BCD PUSH1 0xE5 SHL DUP2 MSTORE PUSH1 0x20 PUSH1 0x4 DUP3 ADD MSTORE PUSH1 0xF PUSH1 0x24 DUP3 ADD MSTORE PUSH15 0x496E76616C69642061646472657373 PUSH1 0x88 SHL PUSH1 0x44 DUP3 ADD MSTORE PUSH1 0x64 ADD PUSH2 0x10FD JUMP JUMPDEST PUSH1 0x6 DUP1 SLOAD PUSH1 0x1 PUSH1 0x1 PUSH1 0xA0 SHL SUB NOT AND PUSH1 0x1 PUSH1 0x1 PUSH1 0xA0 SHL SUB DUP5 AND SWAP1 DUP2 OR SWAP1 SWAP2 SSTORE PUSH1 0x40 MLOAD PUSH32 0xBDF37C276F641820B141429D245ADD2552B4118C0866E5A78638E3DE5EF18D9D SWAP1 PUSH0 SWAP1 LOG2 POP POP JUMP JUMPDEST PUSH0 PUSH1 0x3 SLOAD PUSH0 SUB PUSH2 0x366C JUMPI POP PUSH1 0x1 PUSH1 0x1 PUSH1 0xA0 SHL SUB AND PUSH0 SWAP1 DUP2 MSTORE PUSH1 0xC PUSH1 0x20 MSTORE PUSH1 0x40 SWAP1 KECCAK256 SLOAD SWAP1 JUMP JUMPDEST PUSH0 PUSH2 0x3676 DUP4 PUSH2 0x34E4 JUMP JUMPDEST PUSH1 0x1 PUSH1 0x1 PUSH1 0xA0 SHL SUB DUP5 AND PUSH0 SWAP1 DUP2 MSTORE PUSH1 0xB PUSH1 0x20 MSTORE PUSH1 0x40 DUP2 KECCAK256 SLOAD SWAP2 SWAP3 POP SWAP1 PUSH2 0x369C SWAP1 TIMESTAMP PUSH2 0x550C JUMP JUMPDEST SWAP1 POP PUSH2 0x36A8 DUP3 DUP3 PUSH2 0x54F5 JUMP JUMPDEST PUSH1 0x1 PUSH1 0x1 PUSH1 0xA0 SHL SUB DUP6 AND PUSH0 SWAP1 DUP2 MSTORE PUSH1 0xC PUSH1 0x20 MSTORE PUSH1 0x40 SWAP1 KECCAK256 SLOAD PUSH2 0x2627 SWAP2 SWAP1 PUSH2 0x5445 JUMP JUMPDEST PUSH0 PUSH1 0x1 PUSH1 0x1 PUSH1 0xE0 SHL SUB NOT DUP3 AND PUSH4 0x5A05180F PUSH1 0xE0 SHL EQ DUP1 PUSH2 0x1078 JUMPI POP PUSH2 0x1078 DUP3 PUSH2 0x406A JUMP JUMPDEST PUSH2 0x1846 DUP2 CALLER PUSH2 0x408E JUMP JUMPDEST PUSH0 PUSH0 PUSH2 0x3703 DUP4 PUSH2 0x3D31 JUMP JUMPDEST SWAP1 POP PUSH1 0x1 PUSH1 0x1 PUSH1 0xA0 SHL SUB DUP2 AND PUSH2 0x1078 JUMPI PUSH1 0x40 MLOAD PUSH4 0x7E273289 PUSH1 0xE0 SHL DUP2 MSTORE PUSH1 0x4 DUP2 ADD DUP5 SWAP1 MSTORE PUSH1 0x24 ADD PUSH2 0x10FD JUMP JUMPDEST PUSH0 SWAP1 DUP2 MSTORE PUSH32 0x80BB2B638CC20BC4D0A60D66940F3AB4A00C1D7B313497CA82FB0B4AB0079304 PUSH1 0x20 MSTORE PUSH1 0x40 SWAP1 KECCAK256 SLOAD PUSH1 0x1 PUSH1 0x1 PUSH1 0xA0 SHL SUB AND SWAP1 JUMP JUMPDEST PUSH2 0x19F7 DUP4 DUP4 DUP4 PUSH1 0x1 PUSH2 0x40C7 JUMP JUMPDEST PUSH0 MLOAD PUSH1 0x20 PUSH2 0x580F PUSH0 CODECOPY PUSH0 MLOAD SWAP1 PUSH0 MSTORE DUP1 SLOAD PUSH1 0x1 NOT ADD PUSH2 0x37A6 JUMPI PUSH1 0x40 MLOAD PUSH4 0x3EE5AEB5 PUSH1 0xE0 SHL DUP2 MSTORE PUSH1 0x4 ADD PUSH1 0x40 MLOAD DUP1 SWAP2 SUB SWAP1 REVERT JUMPDEST PUSH1 0x2 SWAP1 SSTORE JUMP JUMPDEST PUSH2 0x37B4 PUSH2 0x41DA JUMP JUMPDEST PUSH1 0x3 SLOAD ISZERO PUSH2 0x3827 JUMPI PUSH0 PUSH2 0x37C6 DUP4 PUSH2 0x34E4 JUMP JUMPDEST PUSH1 0x1 PUSH1 0x1 PUSH1 0xA0 SHL SUB DUP5 AND PUSH0 SWAP1 DUP2 MSTORE PUSH1 0xB PUSH1 0x20 MSTORE PUSH1 0x40 DUP2 KECCAK256 SLOAD SWAP2 SWAP3 POP SWAP1 PUSH2 0x37EC SWAP1 TIMESTAMP PUSH2 0x550C JUMP JUMPDEST SWAP1 POP PUSH2 0x37F8 DUP3 DUP3 PUSH2 0x54F5 JUMP JUMPDEST PUSH1 0x1 PUSH1 0x1 PUSH1 0xA0 SHL SUB DUP6 AND PUSH0 SWAP1 DUP2 MSTORE PUSH1 0xC PUSH1 0x20 MSTORE PUSH1 0x40 DUP2 KECCAK256 DUP1 SLOAD SWAP1 SWAP2 SWAP1 PUSH2 0x381F SWAP1 DUP5 SWAP1 PUSH2 0x5445 JUMP JUMPDEST SWAP1 SWAP2 SSTORE POP POP POP POP JUMPDEST PUSH1 0x1 PUSH1 0x1 PUSH1 0xA0 SHL SUB DUP1 DUP4 AND PUSH0 SWAP1 DUP2 MSTORE PUSH1 0xB PUSH1 0x20 MSTORE PUSH1 0x40 SWAP1 KECCAK256 TIMESTAMP SWAP1 SSTORE DUP2 AND ISZERO PUSH2 0x1203 JUMPI PUSH2 0x3853 DUP2 DUP4 PUSH2 0x1507 JUMP JUMPDEST PUSH1 0x1 PUSH1 0x1 PUSH1 0xA0 SHL SUB SWAP2 DUP3 AND PUSH0 DUP2 DUP2 MSTORE PUSH1 0xE PUSH1 0x20 SWAP1 DUP2 MSTORE PUSH1 0x40 DUP1 DUP4 KECCAK256 SWAP7 SWAP1 SWAP6 AND DUP1 DUP4 MSTORE SWAP6 DUP2 MSTORE DUP5 DUP3 KECCAK256 SWAP4 SWAP1 SWAP4 SSTORE PUSH1 0xC DUP4 MSTORE DUP4 DUP2 KECCAK256 SLOAD SWAP2 DUP2 MSTORE PUSH1 0xD DUP4 MSTORE DUP4 DUP2 KECCAK256 SWAP5 DUP2 MSTORE SWAP4 SWAP1 SWAP2 MSTORE SWAP2 KECCAK256 SSTORE JUMP JUMPDEST PUSH0 MLOAD PUSH1 0x20 PUSH2 0x57EF PUSH0 CODECOPY PUSH0 MLOAD SWAP1 PUSH0 MSTORE SLOAD PUSH1 0xFF AND ISZERO PUSH2 0x1E4B JUMPI PUSH1 0x40 MLOAD PUSH4 0xD93C0665 PUSH1 0xE0 SHL DUP2 MSTORE PUSH1 0x4 ADD PUSH1 0x40 MLOAD DUP1 SWAP2 SUB SWAP1 REVERT JUMPDEST PUSH0 PUSH0 DUP4 GT PUSH2 0x390E JUMPI PUSH1 0x40 MLOAD PUSH3 0x461BCD PUSH1 0xE5 SHL DUP2 MSTORE PUSH1 0x20 PUSH1 0x4 DUP3 ADD MSTORE PUSH1 0xE PUSH1 0x24 DUP3 ADD MSTORE PUSH14 0x43616E6E6F74207374616B65203 PUSH1 0x94 SHL PUSH1 0x44 DUP3 ADD MSTORE PUSH1 0x64 ADD PUSH2 0x10FD JUMP JUMPDEST PUSH1 0x4 SLOAD DUP3 LT ISZERO PUSH2 0x393C JUMPI PUSH1 0x4 DUP1 SLOAD PUSH1 0x40 MLOAD PUSH4 0x102313B1 PUSH1 0xE3 SHL DUP2 MSTORE SWAP2 DUP3 ADD DUP5 SWAP1 MSTORE PUSH1 0x24 DUP3 ADD MSTORE PUSH1 0x44 ADD PUSH2 0x10FD JUMP JUMPDEST PUSH0 SLOAD PUSH2 0x3953 SWAP1 PUSH1 0x1 PUSH1 0x1 PUSH1 0xA0 SHL SUB AND DUP6 ADDRESS DUP7 PUSH2 0x3E30 JUMP JUMPDEST PUSH1 0x2 DUP1 SLOAD PUSH0 SWAP2 DUP3 PUSH2 0x3963 DUP4 PUSH2 0x5576 JUMP JUMPDEST SWAP2 SWAP1 POP SSTORE SWAP1 POP PUSH2 0x3973 DUP6 DUP3 PUSH2 0x442A JUMP JUMPDEST PUSH1 0x40 MLOAD DUP1 PUSH1 0x80 ADD PUSH1 0x40 MSTORE DUP1 DUP6 DUP2 MSTORE PUSH1 0x20 ADD DUP5 TIMESTAMP PUSH2 0x3990 SWAP2 SWAP1 PUSH2 0x5445 JUMP JUMPDEST DUP2 MSTORE TIMESTAMP PUSH1 0x20 DUP1 DUP4 ADD SWAP2 SWAP1 SWAP2 MSTORE PUSH0 PUSH1 0x40 SWAP3 DUP4 ADD DUP2 SWAP1 MSTORE DUP5 DUP2 MSTORE PUSH1 0x7 DUP3 MSTORE DUP3 DUP2 KECCAK256 DUP5 MLOAD DUP2 SSTORE SWAP2 DUP5 ADD MLOAD PUSH1 0x1 DUP4 ADD SSTORE SWAP2 DUP4 ADD MLOAD PUSH1 0x2 DUP3 ADD SSTORE PUSH1 0x60 SWAP1 SWAP3 ADD MLOAD PUSH1 0x3 SWAP3 DUP4 ADD DUP1 SLOAD PUSH1 0xFF NOT AND SWAP2 ISZERO ISZERO SWAP2 SWAP1 SWAP2 OR SWAP1 SSTORE DUP2 SLOAD DUP7 SWAP3 SWAP2 SWAP1 PUSH2 0x39F0 SWAP1 DUP5 SWAP1 PUSH2 0x5445 JUMP JUMPDEST SWAP1 SWAP2 SSTORE POP POP PUSH1 0x40 DUP1 MLOAD DUP6 DUP2 MSTORE PUSH1 0x20 DUP2 ADD DUP6 SWAP1 MSTORE DUP3 SWAP2 PUSH1 0x1 PUSH1 0x1 PUSH1 0xA0 SHL SUB DUP9 AND SWAP2 PUSH32 0xB4CAAF29ADDA3EEFEE3AD552A8E85058589BF834C7466CAE4EE58787F70589ED SWAP2 ADD PUSH1 0x40 MLOAD DUP1 SWAP2 SUB SWAP1 LOG3 SWAP5 SWAP4 POP POP POP POP JUMP JUMPDEST PUSH1 0x1 PUSH0 MLOAD PUSH1 0x20 PUSH2 0x580F PUSH0 CODECOPY PUSH0 MLOAD SWAP1 PUSH0 MSTORE SSTORE JUMP JUMPDEST PUSH0 PUSH0 PUSH2 0x3A61 DUP5 PUSH2 0x3D31 JUMP JUMPDEST SWAP1 POP PUSH1 0x1 PUSH1 0x1 PUSH1 0xA0 SHL SUB DUP2 AND ISZERO PUSH2 0x3AF7 JUMPI PUSH1 0x1 PUSH1 0x1 PUSH1 0xA0 SHL SUB DUP2 AND PUSH0 SWAP1 DUP2 MSTORE PUSH1 0xF PUSH1 0x20 MSTORE PUSH1 0x40 SWAP1 KECCAK256 SLOAD PUSH1 0xFF AND ISZERO PUSH2 0x3AF7 JUMPI PUSH1 0x40 DUP1 MLOAD PUSH4 0xDF681A93 PUSH1 0xE0 SHL DUP2 MSTORE PUSH1 0x1 PUSH1 0x1 PUSH1 0xA0 SHL SUB DUP4 AND PUSH1 0x4 DUP3 ADD MSTORE PUSH1 0x24 DUP2 ADD SWAP2 SWAP1 SWAP2 MSTORE PUSH1 0x22 PUSH1 0x44 DUP3 ADD MSTORE PUSH32 0x43616E6E6F74207472616E736665723A206163636F756E742069732066726F7A PUSH1 0x64 DUP3 ADD MSTORE PUSH2 0x32B7 PUSH1 0xF1 SHL PUSH1 0x84 DUP3 ADD MSTORE PUSH1 0xA4 ADD PUSH2 0x10FD JUMP JUMPDEST PUSH0 JUMPDEST PUSH1 0x9 SLOAD DUP2 LT ISZERO PUSH2 0x3B63 JUMPI PUSH0 PUSH1 0x9 DUP3 DUP2 SLOAD DUP2 LT PUSH2 0x3B17 JUMPI PUSH2 0x3B17 PUSH2 0x53E5 JUMP JUMPDEST PUSH0 SWAP2 DUP3 MSTORE PUSH1 0x20 DUP1 DUP4 KECCAK256 SWAP1 SWAP2 ADD SLOAD PUSH1 0x1 PUSH1 0x1 PUSH1 0xA0 SHL SUB AND DUP1 DUP4 MSTORE PUSH1 0x8 SWAP1 SWAP2 MSTORE PUSH1 0x40 SWAP1 SWAP2 KECCAK256 SLOAD SWAP1 SWAP2 POP PUSH1 0xFF AND ISZERO PUSH2 0x3B5A JUMPI PUSH2 0x3B50 DUP2 DUP5 PUSH2 0x37AC JUMP JUMPDEST PUSH2 0x3B5A DUP2 DUP9 PUSH2 0x37AC JUMP JUMPDEST POP PUSH1 0x1 ADD PUSH2 0x3AF9 JUMP JUMPDEST POP PUSH2 0x3B6F DUP6 DUP6 DUP6 PUSH2 0x4443 JUMP JUMPDEST SWAP6 SWAP5 POP POP POP POP POP JUMP JUMPDEST PUSH0 PUSH2 0x3B84 PUSH0 DUP4 PUSH0 PUSH2 0x3A56 JUMP JUMPDEST SWAP1 POP PUSH1 0x1 PUSH1 0x1 PUSH1 0xA0 SHL SUB DUP2 AND PUSH2 0x1203 JUMPI PUSH1 0x40 MLOAD PUSH4 0x7E273289 PUSH1 0xE0 SHL DUP2 MSTORE PUSH1 0x4 DUP2 ADD DUP4 SWAP1 MSTORE PUSH1 0x24 ADD PUSH2 0x10FD JUMP JUMPDEST PUSH1 0x40 MLOAD PUSH1 0x1 PUSH1 0x1 PUSH1 0xA0 SHL SUB DUP4 DUP2 AND PUSH1 0x24 DUP4 ADD MSTORE PUSH1 0x44 DUP3 ADD DUP4 SWAP1 MSTORE PUSH2 0x19F7 SWAP2 DUP6 SWAP2 DUP3 AND SWAP1 PUSH4 0xA9059CBB SWAP1 PUSH1 0x64 ADD JUMPDEST PUSH1 0x40 MLOAD PUSH1 0x20 DUP2 DUP4 SUB SUB DUP2 MSTORE SWAP1 PUSH1 0x40 MSTORE SWAP2 POP PUSH1 0xE0 SHL PUSH1 0x20 DUP3 ADD DUP1 MLOAD PUSH1 0x1 PUSH1 0x1 PUSH1 0xE0 SHL SUB DUP4 DUP2 DUP4 AND OR DUP4 MSTORE POP POP POP POP PUSH2 0x4539 JUMP JUMPDEST PUSH0 PUSH0 MLOAD PUSH1 0x20 PUSH2 0x570F PUSH0 CODECOPY PUSH0 MLOAD SWAP1 PUSH0 MSTORE DUP2 PUSH2 0x3C29 DUP6 DUP6 PUSH2 0x45A5 JUMP JUMPDEST SWAP1 POP DUP1 ISZERO PUSH2 0x2627 JUMPI PUSH0 DUP6 DUP2 MSTORE PUSH1 0x20 DUP4 SWAP1 MSTORE PUSH1 0x40 SWAP1 KECCAK256 PUSH2 0x3C48 SWAP1 DUP6 PUSH2 0x4646 JUMP JUMPDEST POP SWAP5 SWAP4 POP POP POP POP JUMP JUMPDEST PUSH0 PUSH0 MLOAD PUSH1 0x20 PUSH2 0x570F PUSH0 CODECOPY PUSH0 MLOAD SWAP1 PUSH0 MSTORE DUP2 PUSH2 0x3C6B DUP6 DUP6 PUSH2 0x465A JUMP JUMPDEST SWAP1 POP DUP1 ISZERO PUSH2 0x2627 JUMPI PUSH0 DUP6 DUP2 MSTORE PUSH1 0x20 DUP4 SWAP1 MSTORE PUSH1 0x40 SWAP1 KECCAK256 PUSH2 0x3C48 SWAP1 DUP6 PUSH2 0x46D3 JUMP JUMPDEST PUSH2 0x3C92 PUSH2 0x46E7 JUMP JUMPDEST PUSH0 MLOAD PUSH1 0x20 PUSH2 0x57EF PUSH0 CODECOPY PUSH0 MLOAD SWAP1 PUSH0 MSTORE DUP1 SLOAD PUSH1 0xFF NOT AND DUP2 SSTORE PUSH32 0x5DB9EE0A495BF2E6FF9C91A7834C1BA4FDD244A5E8AA4E537BD38AEAE4B073AA CALLER JUMPDEST PUSH1 0x40 MLOAD PUSH1 0x1 PUSH1 0x1 PUSH1 0xA0 SHL SUB SWAP1 SWAP2 AND DUP2 MSTORE PUSH1 0x20 ADD PUSH1 0x40 MLOAD DUP1 SWAP2 SUB SWAP1 LOG1 POP JUMP JUMPDEST PUSH2 0x3CF1 PUSH2 0x389D JUMP JUMPDEST PUSH0 MLOAD PUSH1 0x20 PUSH2 0x57EF PUSH0 CODECOPY PUSH0 MLOAD SWAP1 PUSH0 MSTORE DUP1 SLOAD PUSH1 0xFF NOT AND PUSH1 0x1 OR DUP2 SSTORE PUSH32 0x62E78CEA01BEE320CD4E420270B5EA74000D11B0C9F74754EBDBFC544B05A258 CALLER PUSH2 0x3CCB JUMP JUMPDEST PUSH0 SWAP1 DUP2 MSTORE PUSH32 0x80BB2B638CC20BC4D0A60D66940F3AB4A00C1D7B313497CA82FB0B4AB0079302 PUSH1 0x20 MSTORE PUSH1 0x40 SWAP1 KECCAK256 SLOAD PUSH1 0x1 PUSH1 0x1 PUSH1 0xA0 SHL SUB AND SWAP1 JUMP JUMPDEST PUSH0 PUSH2 0x1587 DUP4 DUP4 PUSH2 0x4716 JUMP JUMPDEST PUSH0 MLOAD PUSH1 0x20 PUSH2 0x574F PUSH0 CODECOPY PUSH0 MLOAD SWAP1 PUSH0 MSTORE PUSH1 0x1 PUSH1 0x1 PUSH1 0xA0 SHL SUB DUP4 AND PUSH2 0x3DB5 JUMPI PUSH1 0x40 MLOAD PUSH4 0xB611743 PUSH1 0xE3 SHL DUP2 MSTORE PUSH1 0x1 PUSH1 0x1 PUSH1 0xA0 SHL SUB DUP5 AND PUSH1 0x4 DUP3 ADD MSTORE PUSH1 0x24 ADD PUSH2 0x10FD JUMP JUMPDEST PUSH1 0x1 PUSH1 0x1 PUSH1 0xA0 SHL SUB DUP5 DUP2 AND PUSH0 DUP2 DUP2 MSTORE PUSH1 0x5 DUP5 ADD PUSH1 0x20 SWAP1 DUP2 MSTORE PUSH1 0x40 DUP1 DUP4 KECCAK256 SWAP5 DUP9 AND DUP1 DUP5 MSTORE SWAP5 DUP3 MSTORE SWAP2 DUP3 SWAP1 KECCAK256 DUP1 SLOAD PUSH1 0xFF NOT AND DUP8 ISZERO ISZERO SWAP1 DUP2 OR SWAP1 SWAP2 SSTORE SWAP2 MLOAD SWAP2 DUP3 MSTORE PUSH32 0x17307EAB39AB6107E8899845AD3D59BD9653F200F220920489CA2B5937696C31 SWAP2 ADD PUSH1 0x40 MLOAD DUP1 SWAP2 SUB SWAP1 LOG3 POP POP POP POP JUMP JUMPDEST PUSH1 0x60 PUSH0 PUSH2 0x1587 DUP4 PUSH2 0x473C JUMP JUMPDEST PUSH2 0x1611 DUP5 DUP6 PUSH1 0x1 PUSH1 0x1 PUSH1 0xA0 SHL SUB AND PUSH4 0x23B872DD DUP7 DUP7 DUP7 PUSH1 0x40 MLOAD PUSH1 0x24 ADD PUSH2 0x3BDD SWAP4 SWAP3 SWAP2 SWAP1 PUSH2 0x5552 JUMP JUMPDEST PUSH1 0x1 PUSH1 0x1 PUSH1 0xA0 SHL SUB DUP4 AND EXTCODESIZE ISZERO PUSH2 0x3F79 JUMPI PUSH1 0x40 MLOAD PUSH4 0xA85BD01 PUSH1 0xE1 SHL DUP2 MSTORE PUSH1 0x1 PUSH1 0x1 PUSH1 0xA0 SHL SUB DUP5 AND SWAP1 PUSH4 0x150B7A02 SWAP1 PUSH2 0x3E9A SWAP1 DUP9 SWAP1 DUP9 SWAP1 DUP8 SWAP1 DUP8 SWAP1 PUSH1 0x4 ADD PUSH2 0x55B9 JUMP JUMPDEST PUSH1 0x20 PUSH1 0x40 MLOAD DUP1 DUP4 SUB DUP2 PUSH0 DUP8 GAS CALL SWAP3 POP POP POP DUP1 ISZERO PUSH2 0x3ED4 JUMPI POP PUSH1 0x40 DUP1 MLOAD PUSH1 0x1F RETURNDATASIZE SWAP1 DUP2 ADD PUSH1 0x1F NOT AND DUP3 ADD SWAP1 SWAP3 MSTORE PUSH2 0x3ED1 SWAP2 DUP2 ADD SWAP1 PUSH2 0x55F5 JUMP JUMPDEST PUSH1 0x1 JUMPDEST PUSH2 0x3F3B JUMPI RETURNDATASIZE DUP1 DUP1 ISZERO PUSH2 0x3F01 JUMPI PUSH1 0x40 MLOAD SWAP2 POP PUSH1 0x1F NOT PUSH1 0x3F RETURNDATASIZE ADD AND DUP3 ADD PUSH1 0x40 MSTORE RETURNDATASIZE DUP3 MSTORE RETURNDATASIZE PUSH0 PUSH1 0x20 DUP5 ADD RETURNDATACOPY PUSH2 0x3F06 JUMP JUMPDEST PUSH1 0x60 SWAP2 POP JUMPDEST POP DUP1 MLOAD PUSH0 SUB PUSH2 0x3F33 JUMPI PUSH1 0x40 MLOAD PUSH4 0x32505749 PUSH1 0xE1 SHL DUP2 MSTORE PUSH1 0x1 PUSH1 0x1 PUSH1 0xA0 SHL SUB DUP6 AND PUSH1 0x4 DUP3 ADD MSTORE PUSH1 0x24 ADD PUSH2 0x10FD JUMP JUMPDEST DUP1 MLOAD PUSH1 0x20 DUP3 ADD REVERT JUMPDEST PUSH1 0x1 PUSH1 0x1 PUSH1 0xE0 SHL SUB NOT DUP2 AND PUSH4 0xA85BD01 PUSH1 0xE1 SHL EQ PUSH2 0x3F77 JUMPI PUSH1 0x40 MLOAD PUSH4 0x32505749 PUSH1 0xE1 SHL DUP2 MSTORE PUSH1 0x1 PUSH1 0x1 PUSH1 0xA0 SHL SUB DUP6 AND PUSH1 0x4 DUP3 ADD MSTORE PUSH1 0x24 ADD PUSH2 0x10FD JUMP JUMPDEST POP JUMPDEST POP POP POP POP POP JUMP JUMPDEST PUSH0 DUP1 PUSH32 0xF0C57E16840DF040F15088DC2F81FE391C3923BEC73E23A9662EFC9C229C6A00 PUSH2 0x1078 JUMP JUMPDEST PUSH2 0x3FB0 PUSH2 0x4795 JUMP JUMPDEST PUSH2 0x1203 DUP3 DUP3 PUSH2 0x47BA JUMP JUMPDEST PUSH2 0x1E4B PUSH2 0x4795 JUMP JUMPDEST PUSH2 0x3FCA PUSH2 0x4795 JUMP JUMPDEST PUSH2 0x1E4B PUSH2 0x47EA JUMP JUMPDEST PUSH1 0x60 PUSH0 PUSH2 0x3FDE DUP4 PUSH2 0x47F2 JUMP JUMPDEST PUSH1 0x1 ADD SWAP1 POP PUSH0 DUP2 PUSH1 0x1 PUSH1 0x1 PUSH1 0x40 SHL SUB DUP2 GT ISZERO PUSH2 0x3FFC JUMPI PUSH2 0x3FFC PUSH2 0x51D7 JUMP JUMPDEST PUSH1 0x40 MLOAD SWAP1 DUP1 DUP3 MSTORE DUP1 PUSH1 0x1F ADD PUSH1 0x1F NOT AND PUSH1 0x20 ADD DUP3 ADD PUSH1 0x40 MSTORE DUP1 ISZERO PUSH2 0x4026 JUMPI PUSH1 0x20 DUP3 ADD DUP2 DUP1 CALLDATASIZE DUP4 CALLDATACOPY ADD SWAP1 POP JUMPDEST POP SWAP1 POP DUP2 DUP2 ADD PUSH1 0x20 ADD JUMPDEST PUSH0 NOT ADD PUSH16 0x181899199A1A9B1B9C1CB0B131B232B3 PUSH1 0x81 SHL PUSH1 0xA DUP7 MOD BYTE DUP2 MSTORE8 PUSH1 0xA DUP6 DIV SWAP5 POP DUP5 PUSH2 0x4030 JUMPI POP SWAP4 SWAP3 POP POP POP JUMP JUMPDEST PUSH0 PUSH2 0x1078 DUP3 SLOAD SWAP1 JUMP JUMPDEST PUSH0 PUSH1 0x1 PUSH1 0x1 PUSH1 0xE0 SHL SUB NOT DUP3 AND PUSH4 0x7965DB0B PUSH1 0xE0 SHL EQ DUP1 PUSH2 0x1078 JUMPI POP PUSH2 0x1078 DUP3 PUSH2 0x48C9 JUMP JUMPDEST PUSH2 0x4098 DUP3 DUP3 PUSH2 0x262F JUMP JUMPDEST PUSH2 0x1203 JUMPI PUSH1 0x40 MLOAD PUSH4 0xE2517D3F PUSH1 0xE0 SHL DUP2 MSTORE PUSH1 0x1 PUSH1 0x1 PUSH1 0xA0 SHL SUB DUP3 AND PUSH1 0x4 DUP3 ADD MSTORE PUSH1 0x24 DUP2 ADD DUP4 SWAP1 MSTORE PUSH1 0x44 ADD PUSH2 0x10FD JUMP JUMPDEST PUSH0 MLOAD PUSH1 0x20 PUSH2 0x574F PUSH0 CODECOPY PUSH0 MLOAD SWAP1 PUSH0 MSTORE DUP2 DUP1 PUSH2 0x40E9 JUMPI POP PUSH1 0x1 PUSH1 0x1 PUSH1 0xA0 SHL SUB DUP4 AND ISZERO ISZERO JUMPDEST ISZERO PUSH2 0x41AA JUMPI PUSH0 PUSH2 0x40F8 DUP6 PUSH2 0x36F8 JUMP JUMPDEST SWAP1 POP PUSH1 0x1 PUSH1 0x1 PUSH1 0xA0 SHL SUB DUP5 AND ISZERO DUP1 ISZERO SWAP1 PUSH2 0x4124 JUMPI POP DUP4 PUSH1 0x1 PUSH1 0x1 PUSH1 0xA0 SHL SUB AND DUP2 PUSH1 0x1 PUSH1 0x1 PUSH1 0xA0 SHL SUB AND EQ ISZERO JUMPDEST DUP1 ISZERO PUSH2 0x4137 JUMPI POP PUSH2 0x4135 DUP2 DUP6 PUSH2 0x3498 JUMP JUMPDEST ISZERO JUMPDEST ISZERO PUSH2 0x4160 JUMPI PUSH1 0x40 MLOAD PUSH4 0xA9FBF51F PUSH1 0xE0 SHL DUP2 MSTORE PUSH1 0x1 PUSH1 0x1 PUSH1 0xA0 SHL SUB DUP6 AND PUSH1 0x4 DUP3 ADD MSTORE PUSH1 0x24 ADD PUSH2 0x10FD JUMP JUMPDEST DUP3 ISZERO PUSH2 0x41A8 JUMPI DUP5 DUP7 PUSH1 0x1 PUSH1 0x1 PUSH1 0xA0 SHL SUB AND DUP3 PUSH1 0x1 PUSH1 0x1 PUSH1 0xA0 SHL SUB AND PUSH32 0x8C5BE1E5EBEC7D5BD14F71427D1E84F3DD0314C0F7B2291E5B200AC8C7C3B925 PUSH1 0x40 MLOAD PUSH1 0x40 MLOAD DUP1 SWAP2 SUB SWAP1 LOG4 JUMPDEST POP JUMPDEST PUSH0 SWAP4 DUP5 MSTORE PUSH1 0x4 ADD PUSH1 0x20 MSTORE POP POP PUSH1 0x40 SWAP1 KECCAK256 DUP1 SLOAD PUSH1 0x1 PUSH1 0x1 PUSH1 0xA0 SHL SUB NOT AND PUSH1 0x1 PUSH1 0x1 PUSH1 0xA0 SHL SUB SWAP3 SWAP1 SWAP3 AND SWAP2 SWAP1 SWAP2 OR SWAP1 SSTORE JUMP JUMPDEST PUSH1 0x3 SLOAD ISZERO DUP1 DUP1 ISZERO PUSH2 0x41EE JUMPI POP PUSH1 0x12 SLOAD PUSH1 0xFF AND ISZERO JUMPDEST ISZERO PUSH2 0x4310 JUMPI TIMESTAMP PUSH1 0x11 SSTORE PUSH1 0x12 DUP1 SLOAD PUSH1 0xFF NOT AND PUSH1 0x1 OR SWAP1 SSTORE PUSH0 JUMPDEST PUSH1 0x9 SLOAD DUP2 LT ISZERO PUSH2 0x1203 JUMPI PUSH0 PUSH1 0x9 DUP3 DUP2 SLOAD DUP2 LT PUSH2 0x4224 JUMPI PUSH2 0x4224 PUSH2 0x53E5 JUMP JUMPDEST PUSH0 SWAP2 DUP3 MSTORE PUSH1 0x20 DUP1 DUP4 KECCAK256 SWAP1 SWAP2 ADD SLOAD PUSH1 0x1 PUSH1 0x1 PUSH1 0xA0 SHL SUB AND DUP1 DUP4 MSTORE PUSH1 0xA SWAP1 SWAP2 MSTORE PUSH1 0x40 DUP3 KECCAK256 SWAP1 SWAP3 POP SWAP1 JUMPDEST DUP2 SLOAD DUP2 LT ISZERO PUSH2 0x4305 JUMPI DUP2 DUP2 DUP2 SLOAD DUP2 LT PUSH2 0x4266 JUMPI PUSH2 0x4266 PUSH2 0x53E5 JUMP JUMPDEST SWAP1 PUSH0 MSTORE PUSH1 0x20 PUSH0 KECCAK256 SWAP1 PUSH1 0x6 MUL ADD PUSH1 0x4 ADD SLOAD PUSH0 EQ DUP1 ISZERO PUSH2 0x42A5 JUMPI POP DUP2 DUP2 DUP2 SLOAD DUP2 LT PUSH2 0x4291 JUMPI PUSH2 0x4291 PUSH2 0x53E5 JUMP JUMPDEST SWAP1 PUSH0 MSTORE PUSH1 0x20 PUSH0 KECCAK256 SWAP1 PUSH1 0x6 MUL ADD PUSH1 0x1 ADD SLOAD TIMESTAMP LT ISZERO JUMPDEST DUP1 ISZERO PUSH2 0x42D1 JUMPI POP DUP2 DUP2 DUP2 SLOAD DUP2 LT PUSH2 0x42BE JUMPI PUSH2 0x42BE PUSH2 0x53E5 JUMP JUMPDEST SWAP1 PUSH0 MSTORE PUSH1 0x20 PUSH0 KECCAK256 SWAP1 PUSH1 0x6 MUL ADD PUSH1 0x2 ADD SLOAD TIMESTAMP LT JUMPDEST ISZERO PUSH2 0x42FD JUMPI TIMESTAMP DUP3 DUP3 DUP2 SLOAD DUP2 LT PUSH2 0x42E9 JUMPI PUSH2 0x42E9 PUSH2 0x53E5 JUMP JUMPDEST SWAP1 PUSH0 MSTORE PUSH1 0x20 PUSH0 KECCAK256 SWAP1 PUSH1 0x6 MUL ADD PUSH1 0x4 ADD DUP2 SWAP1 SSTORE POP JUMPDEST PUSH1 0x1 ADD PUSH2 0x424B JUMP JUMPDEST POP POP POP PUSH1 0x1 ADD PUSH2 0x4206 JUMP JUMPDEST DUP1 ISZERO DUP1 ISZERO PUSH2 0x4320 JUMPI POP PUSH1 0x12 SLOAD PUSH1 0xFF AND JUMPDEST ISZERO PUSH2 0x1846 JUMPI PUSH0 PUSH1 0x11 SLOAD TIMESTAMP PUSH2 0x4334 SWAP2 SWAP1 PUSH2 0x550C JUMP JUMPDEST PUSH1 0x12 DUP1 SLOAD PUSH1 0xFF NOT AND SWAP1 SSTORE SWAP1 POP PUSH0 JUMPDEST PUSH1 0x9 SLOAD DUP2 LT ISZERO PUSH2 0x19F7 JUMPI PUSH0 PUSH1 0x9 DUP3 DUP2 SLOAD DUP2 LT PUSH2 0x4360 JUMPI PUSH2 0x4360 PUSH2 0x53E5 JUMP JUMPDEST PUSH0 SWAP2 DUP3 MSTORE PUSH1 0x20 DUP1 DUP4 KECCAK256 SWAP1 SWAP2 ADD SLOAD PUSH1 0x1 PUSH1 0x1 PUSH1 0xA0 SHL SUB AND DUP1 DUP4 MSTORE PUSH1 0xA SWAP1 SWAP2 MSTORE PUSH1 0x40 DUP3 KECCAK256 SWAP1 SWAP3 POP SWAP1 JUMPDEST DUP2 SLOAD DUP2 LT ISZERO PUSH2 0x441F JUMPI PUSH0 DUP3 DUP3 DUP2 SLOAD DUP2 LT PUSH2 0x43A3 JUMPI PUSH2 0x43A3 PUSH2 0x53E5 JUMP JUMPDEST SWAP1 PUSH0 MSTORE PUSH1 0x20 PUSH0 KECCAK256 SWAP1 PUSH1 0x6 MUL ADD PUSH1 0x4 ADD SLOAD GT ISZERO PUSH2 0x4417 JUMPI DUP5 DUP3 DUP3 DUP2 SLOAD DUP2 LT PUSH2 0x43CC JUMPI PUSH2 0x43CC PUSH2 0x53E5 JUMP JUMPDEST SWAP1 PUSH0 MSTORE PUSH1 0x20 PUSH0 KECCAK256 SWAP1 PUSH1 0x6 MUL ADD PUSH1 0x5 ADD PUSH0 DUP3 DUP3 SLOAD PUSH2 0x43E9 SWAP2 SWAP1 PUSH2 0x5445 JUMP JUMPDEST SWAP3 POP POP DUP2 SWAP1 SSTORE POP PUSH0 DUP3 DUP3 DUP2 SLOAD DUP2 LT PUSH2 0x4403 JUMPI PUSH2 0x4403 PUSH2 0x53E5 JUMP JUMPDEST SWAP1 PUSH0 MSTORE PUSH1 0x20 PUSH0 KECCAK256 SWAP1 PUSH1 0x6 MUL ADD PUSH1 0x4 ADD DUP2 SWAP1 SSTORE POP JUMPDEST PUSH1 0x1 ADD PUSH2 0x4387 JUMP JUMPDEST POP POP POP PUSH1 0x1 ADD PUSH2 0x4342 JUMP JUMPDEST PUSH2 0x1203 DUP3 DUP3 PUSH1 0x40 MLOAD DUP1 PUSH1 0x20 ADD PUSH1 0x40 MSTORE DUP1 PUSH0 DUP2 MSTORE POP PUSH2 0x48ED JUMP JUMPDEST PUSH0 PUSH0 PUSH2 0x4450 DUP6 DUP6 DUP6 PUSH2 0x4904 JUMP JUMPDEST SWAP1 POP PUSH1 0x1 PUSH1 0x1 PUSH1 0xA0 SHL SUB DUP2 AND PUSH2 0x44D7 JUMPI PUSH2 0x44D2 DUP5 PUSH0 MLOAD PUSH1 0x20 PUSH2 0x57AF PUSH0 CODECOPY PUSH0 MLOAD SWAP1 PUSH0 MSTORE DUP1 SLOAD PUSH0 DUP4 DUP2 MSTORE PUSH32 0x645E039705490088DAAD89BAE25049A34F4A9072D398537B1AB2425F24CBED03 PUSH1 0x20 MSTORE PUSH1 0x40 DUP2 KECCAK256 DUP3 SWAP1 SSTORE PUSH1 0x1 DUP3 ADD DUP4 SSTORE SWAP2 SWAP1 SWAP2 MSTORE PUSH32 0xA42F15E5D656F8155FD7419D740A6073999F19CD6E061449CE4A257150545BF2 ADD SSTORE JUMP JUMPDEST PUSH2 0x44FA JUMP JUMPDEST DUP5 PUSH1 0x1 PUSH1 0x1 PUSH1 0xA0 SHL SUB AND DUP2 PUSH1 0x1 PUSH1 0x1 PUSH1 0xA0 SHL SUB AND EQ PUSH2 0x44FA JUMPI PUSH2 0x44FA DUP2 DUP6 PUSH2 0x4A06 JUMP JUMPDEST PUSH1 0x1 PUSH1 0x1 PUSH1 0xA0 SHL SUB DUP6 AND PUSH2 0x4516 JUMPI PUSH2 0x4511 DUP5 PUSH2 0x4A9D JUMP JUMPDEST PUSH2 0x2627 JUMP JUMPDEST DUP5 PUSH1 0x1 PUSH1 0x1 PUSH1 0xA0 SHL SUB AND DUP2 PUSH1 0x1 PUSH1 0x1 PUSH1 0xA0 SHL SUB AND EQ PUSH2 0x2627 JUMPI PUSH2 0x2627 DUP6 DUP6 PUSH2 0x4B6A JUMP JUMPDEST PUSH0 PUSH0 PUSH1 0x20 PUSH0 DUP5 MLOAD PUSH1 0x20 DUP7 ADD PUSH0 DUP9 GAS CALL DUP1 PUSH2 0x4558 JUMPI PUSH1 0x40 MLOAD RETURNDATASIZE PUSH0 DUP3 RETURNDATACOPY RETURNDATASIZE DUP2 REVERT JUMPDEST POP POP PUSH0 MLOAD RETURNDATASIZE SWAP2 POP DUP2 ISZERO PUSH2 0x456F JUMPI DUP1 PUSH1 0x1 EQ ISZERO PUSH2 0x457C JUMP JUMPDEST PUSH1 0x1 PUSH1 0x1 PUSH1 0xA0 SHL SUB DUP5 AND EXTCODESIZE ISZERO JUMPDEST ISZERO PUSH2 0x1611 JUMPI PUSH1 0x40 MLOAD PUSH4 0x5274AFE7 PUSH1 0xE0 SHL DUP2 MSTORE PUSH1 0x1 PUSH1 0x1 PUSH1 0xA0 SHL SUB DUP6 AND PUSH1 0x4 DUP3 ADD MSTORE PUSH1 0x24 ADD PUSH2 0x10FD JUMP JUMPDEST PUSH0 PUSH0 MLOAD PUSH1 0x20 PUSH2 0x57CF PUSH0 CODECOPY PUSH0 MLOAD SWAP1 PUSH0 MSTORE PUSH2 0x45BE DUP5 DUP5 PUSH2 0x262F JUMP JUMPDEST PUSH2 0x463D JUMPI PUSH0 DUP5 DUP2 MSTORE PUSH1 0x20 DUP3 DUP2 MSTORE PUSH1 0x40 DUP1 DUP4 KECCAK256 PUSH1 0x1 PUSH1 0x1 PUSH1 0xA0 SHL SUB DUP8 AND DUP5 MSTORE SWAP1 SWAP2 MSTORE SWAP1 KECCAK256 DUP1 SLOAD PUSH1 0xFF NOT AND PUSH1 0x1 OR SWAP1 SSTORE PUSH2 0x45F3 CALLER SWAP1 JUMP JUMPDEST PUSH1 0x1 PUSH1 0x1 PUSH1 0xA0 SHL SUB AND DUP4 PUSH1 0x1 PUSH1 0x1 PUSH1 0xA0 SHL SUB AND DUP6 PUSH32 0x2F8788117E7EFF1D82E926EC794901D17C78024A50270940304540A733656F0D PUSH1 0x40 MLOAD PUSH1 0x40 MLOAD DUP1 SWAP2 SUB SWAP1 LOG4 PUSH1 0x1 SWAP2 POP POP PUSH2 0x1078 JUMP JUMPDEST PUSH0 SWAP2 POP POP PUSH2 0x1078 JUMP JUMPDEST PUSH0 PUSH2 0x1587 DUP4 PUSH1 0x1 PUSH1 0x1 PUSH1 0xA0 SHL SUB DUP5 AND PUSH2 0x4BC2 JUMP JUMPDEST PUSH0 PUSH0 MLOAD PUSH1 0x20 PUSH2 0x57CF PUSH0 CODECOPY PUSH0 MLOAD SWAP1 PUSH0 MSTORE PUSH2 0x4673 DUP5 DUP5 PUSH2 0x262F JUMP JUMPDEST ISZERO PUSH2 0x463D JUMPI PUSH0 DUP5 DUP2 MSTORE PUSH1 0x20 DUP3 DUP2 MSTORE PUSH1 0x40 DUP1 DUP4 KECCAK256 PUSH1 0x1 PUSH1 0x1 PUSH1 0xA0 SHL SUB DUP8 AND DUP1 DUP6 MSTORE SWAP3 MSTORE DUP1 DUP4 KECCAK256 DUP1 SLOAD PUSH1 0xFF NOT AND SWAP1 SSTORE MLOAD CALLER SWAP3 DUP8 SWAP2 PUSH32 0xF6391F5C32D9C69D2A47EA670B442974B53935D1EDC7FD64EB21E047A839171B SWAP2 SWAP1 LOG4 PUSH1 0x1 SWAP2 POP POP PUSH2 0x1078 JUMP JUMPDEST PUSH0 PUSH2 0x1587 DUP4 PUSH1 0x1 PUSH1 0x1 PUSH1 0xA0 SHL SUB DUP5 AND PUSH2 0x4C0E JUMP JUMPDEST PUSH0 MLOAD PUSH1 0x20 PUSH2 0x57EF PUSH0 CODECOPY PUSH0 MLOAD SWAP1 PUSH0 MSTORE SLOAD PUSH1 0xFF AND PUSH2 0x1E4B JUMPI PUSH1 0x40 MLOAD PUSH4 0x8DFC202B PUSH1 0xE0 SHL DUP2 MSTORE PUSH1 0x4 ADD PUSH1 0x40 MLOAD DUP1 SWAP2 SUB SWAP1 REVERT JUMPDEST PUSH0 DUP3 PUSH0 ADD DUP3 DUP2 SLOAD DUP2 LT PUSH2 0x472B JUMPI PUSH2 0x472B PUSH2 0x53E5 JUMP JUMPDEST SWAP1 PUSH0 MSTORE PUSH1 0x20 PUSH0 KECCAK256 ADD SLOAD SWAP1 POP SWAP3 SWAP2 POP POP JUMP JUMPDEST PUSH1 0x60 DUP2 PUSH0 ADD DUP1 SLOAD DUP1 PUSH1 0x20 MUL PUSH1 0x20 ADD PUSH1 0x40 MLOAD SWAP1 DUP2 ADD PUSH1 0x40 MSTORE DUP1 SWAP3 SWAP2 SWAP1 DUP2 DUP2 MSTORE PUSH1 0x20 ADD DUP3 DUP1 SLOAD DUP1 ISZERO PUSH2 0x4789 JUMPI PUSH1 0x20 MUL DUP3 ADD SWAP2 SWAP1 PUSH0 MSTORE PUSH1 0x20 PUSH0 KECCAK256 SWAP1 JUMPDEST DUP2 SLOAD DUP2 MSTORE PUSH1 0x20 ADD SWAP1 PUSH1 0x1 ADD SWAP1 DUP1 DUP4 GT PUSH2 0x4775 JUMPI JUMPDEST POP POP POP POP POP SWAP1 POP SWAP2 SWAP1 POP JUMP JUMPDEST PUSH2 0x479D PUSH2 0x4CE8 JUMP JUMPDEST PUSH2 0x1E4B JUMPI PUSH1 0x40 MLOAD PUSH4 0x1AFCD79F PUSH1 0xE3 SHL DUP2 MSTORE PUSH1 0x4 ADD PUSH1 0x40 MLOAD DUP1 SWAP2 SUB SWAP1 REVERT JUMPDEST PUSH2 0x47C2 PUSH2 0x4795 JUMP JUMPDEST PUSH0 MLOAD PUSH1 0x20 PUSH2 0x574F PUSH0 CODECOPY PUSH0 MLOAD SWAP1 PUSH0 MSTORE DUP1 PUSH2 0x47DB DUP5 DUP3 PUSH2 0x5654 JUMP JUMPDEST POP PUSH1 0x1 DUP2 ADD PUSH2 0x1611 DUP4 DUP3 PUSH2 0x5654 JUMP JUMPDEST PUSH2 0x3A43 PUSH2 0x4795 JUMP JUMPDEST PUSH0 DUP1 PUSH19 0x184F03E93FF9F4DAA797ED6E38ED64BF6A1F01 PUSH1 0x40 SHL DUP4 LT PUSH2 0x4830 JUMPI PUSH19 0x184F03E93FF9F4DAA797ED6E38ED64BF6A1F01 PUSH1 0x40 SHL DUP4 DIV SWAP3 POP PUSH1 0x40 ADD JUMPDEST PUSH14 0x4EE2D6D415B85ACEF8100000000 DUP4 LT PUSH2 0x485C JUMPI PUSH14 0x4EE2D6D415B85ACEF8100000000 DUP4 DIV SWAP3 POP PUSH1 0x20 ADD JUMPDEST PUSH7 0x2386F26FC10000 DUP4 LT PUSH2 0x487A JUMPI PUSH7 0x2386F26FC10000 DUP4 DIV SWAP3 POP PUSH1 0x10 ADD JUMPDEST PUSH4 0x5F5E100 DUP4 LT PUSH2 0x4892 JUMPI PUSH4 0x5F5E100 DUP4 DIV SWAP3 POP PUSH1 0x8 ADD JUMPDEST PUSH2 0x2710 DUP4 LT PUSH2 0x48A6 JUMPI PUSH2 0x2710 DUP4 DIV SWAP3 POP PUSH1 0x4 ADD JUMPDEST PUSH1 0x64 DUP4 LT PUSH2 0x48B8 JUMPI PUSH1 0x64 DUP4 DIV SWAP3 POP PUSH1 0x2 ADD JUMPDEST PUSH1 0xA DUP4 LT PUSH2 0x1078 JUMPI PUSH1 0x1 ADD SWAP3 SWAP2 POP POP JUMP JUMPDEST PUSH0 PUSH1 0x1 PUSH1 0x1 PUSH1 0xE0 SHL SUB NOT DUP3 AND PUSH4 0x780E9D63 PUSH1 0xE0 SHL EQ DUP1 PUSH2 0x1078 JUMPI POP PUSH2 0x1078 DUP3 PUSH2 0x4D01 JUMP JUMPDEST PUSH2 0x48F7 DUP4 DUP4 PUSH2 0x4D50 JUMP JUMPDEST PUSH2 0x19F7 CALLER PUSH0 DUP6 DUP6 DUP6 PUSH2 0x3E58 JUMP JUMPDEST PUSH0 PUSH0 MLOAD PUSH1 0x20 PUSH2 0x574F PUSH0 CODECOPY PUSH0 MLOAD SWAP1 PUSH0 MSTORE DUP2 PUSH2 0x491D DUP6 PUSH2 0x3D31 JUMP JUMPDEST SWAP1 POP PUSH1 0x1 PUSH1 0x1 PUSH1 0xA0 SHL SUB DUP5 AND ISZERO PUSH2 0x4939 JUMPI PUSH2 0x4939 DUP2 DUP6 DUP8 PUSH2 0x4DB1 JUMP JUMPDEST PUSH1 0x1 PUSH1 0x1 PUSH1 0xA0 SHL SUB DUP2 AND ISZERO PUSH2 0x4975 JUMPI PUSH2 0x4954 PUSH0 DUP7 PUSH0 PUSH0 PUSH2 0x40C7 JUMP JUMPDEST PUSH1 0x1 PUSH1 0x1 PUSH1 0xA0 SHL SUB DUP2 AND PUSH0 SWAP1 DUP2 MSTORE PUSH1 0x3 DUP4 ADD PUSH1 0x20 MSTORE PUSH1 0x40 SWAP1 KECCAK256 DUP1 SLOAD PUSH0 NOT ADD SWAP1 SSTORE JUMPDEST PUSH1 0x1 PUSH1 0x1 PUSH1 0xA0 SHL SUB DUP7 AND ISZERO PUSH2 0x49A5 JUMPI PUSH1 0x1 PUSH1 0x1 PUSH1 0xA0 SHL SUB DUP7 AND PUSH0 SWAP1 DUP2 MSTORE PUSH1 0x3 DUP4 ADD PUSH1 0x20 MSTORE PUSH1 0x40 SWAP1 KECCAK256 DUP1 SLOAD PUSH1 0x1 ADD SWAP1 SSTORE JUMPDEST PUSH0 DUP6 DUP2 MSTORE PUSH1 0x2 DUP4 ADD PUSH1 0x20 MSTORE PUSH1 0x40 DUP1 DUP3 KECCAK256 DUP1 SLOAD PUSH1 0x1 PUSH1 0x1 PUSH1 0xA0 SHL SUB NOT AND PUSH1 0x1 PUSH1 0x1 PUSH1 0xA0 SHL SUB DUP11 DUP2 AND SWAP2 DUP3 OR SWAP1 SWAP3 SSTORE SWAP2 MLOAD DUP9 SWAP4 SWAP2 DUP6 AND SWAP2 PUSH32 0xDDF252AD1BE2C89B69C2B068FC378DAA952BA7F163C4A11628F55A4DF523B3EF SWAP2 LOG4 SWAP6 SWAP5 POP POP POP POP POP JUMP JUMPDEST PUSH0 MLOAD PUSH1 0x20 PUSH2 0x572F PUSH0 CODECOPY PUSH0 MLOAD SWAP1 PUSH0 MSTORE PUSH0 PUSH2 0x4A1E DUP5 PUSH2 0x23BE JUMP JUMPDEST PUSH0 DUP5 DUP2 MSTORE PUSH1 0x1 DUP5 ADD PUSH1 0x20 SWAP1 DUP2 MSTORE PUSH1 0x40 DUP1 DUP4 KECCAK256 SLOAD PUSH1 0x1 PUSH1 0x1 PUSH1 0xA0 SHL SUB DUP10 AND DUP5 MSTORE SWAP2 DUP7 SWAP1 MSTORE SWAP1 SWAP2 KECCAK256 SWAP2 SWAP3 POP SWAP1 DUP2 DUP4 EQ PUSH2 0x4A76 JUMPI PUSH0 DUP4 DUP2 MSTORE PUSH1 0x20 DUP3 DUP2 MSTORE PUSH1 0x40 DUP1 DUP4 KECCAK256 SLOAD DUP6 DUP5 MSTORE DUP2 DUP5 KECCAK256 DUP2 SWAP1 SSTORE DUP4 MSTORE PUSH1 0x1 DUP8 ADD SWAP1 SWAP2 MSTORE SWAP1 KECCAK256 DUP3 SWAP1 SSTORE JUMPDEST PUSH0 SWAP5 DUP6 MSTORE PUSH1 0x1 SWAP1 SWAP4 ADD PUSH1 0x20 SWAP1 DUP2 MSTORE PUSH1 0x40 DUP1 DUP7 KECCAK256 DUP7 SWAP1 SSTORE SWAP3 DUP6 MSTORE SWAP3 SWAP1 SWAP3 MSTORE DUP3 KECCAK256 SWAP2 SWAP1 SWAP2 SSTORE POP POP JUMP JUMPDEST PUSH0 MLOAD PUSH1 0x20 PUSH2 0x57AF PUSH0 CODECOPY PUSH0 MLOAD SWAP1 PUSH0 MSTORE SLOAD PUSH0 MLOAD PUSH1 0x20 PUSH2 0x572F PUSH0 CODECOPY PUSH0 MLOAD SWAP1 PUSH0 MSTORE SWAP1 PUSH0 SWAP1 PUSH2 0x4AC9 SWAP1 PUSH1 0x1 SWAP1 PUSH2 0x550C JUMP JUMPDEST PUSH0 DUP5 DUP2 MSTORE PUSH1 0x3 DUP5 ADD PUSH1 0x20 MSTORE PUSH1 0x40 DUP2 KECCAK256 SLOAD PUSH1 0x2 DUP6 ADD DUP1 SLOAD SWAP4 SWAP5 POP SWAP1 SWAP3 DUP5 SWAP1 DUP2 LT PUSH2 0x4AF4 JUMPI PUSH2 0x4AF4 PUSH2 0x53E5 JUMP JUMPDEST SWAP1 PUSH0 MSTORE PUSH1 0x20 PUSH0 KECCAK256 ADD SLOAD SWAP1 POP DUP1 DUP5 PUSH1 0x2 ADD DUP4 DUP2 SLOAD DUP2 LT PUSH2 0x4B15 JUMPI PUSH2 0x4B15 PUSH2 0x53E5 JUMP JUMPDEST PUSH0 SWAP2 DUP3 MSTORE PUSH1 0x20 DUP1 DUP4 KECCAK256 SWAP1 SWAP2 ADD SWAP3 SWAP1 SWAP3 SSTORE DUP3 DUP2 MSTORE PUSH1 0x3 DUP7 ADD SWAP1 SWAP2 MSTORE PUSH1 0x40 DUP1 DUP3 KECCAK256 DUP5 SWAP1 SSTORE DUP7 DUP3 MSTORE DUP2 KECCAK256 SSTORE PUSH1 0x2 DUP5 ADD DUP1 SLOAD DUP1 PUSH2 0x4B50 JUMPI PUSH2 0x4B50 PUSH2 0x553E JUMP JUMPDEST PUSH1 0x1 SWAP1 SUB DUP2 DUP2 SWAP1 PUSH0 MSTORE PUSH1 0x20 PUSH0 KECCAK256 ADD PUSH0 SWAP1 SSTORE SWAP1 SSTORE POP POP POP POP POP JUMP JUMPDEST PUSH0 MLOAD PUSH1 0x20 PUSH2 0x572F PUSH0 CODECOPY PUSH0 MLOAD SWAP1 PUSH0 MSTORE PUSH0 PUSH1 0x1 PUSH2 0x4B84 DUP6 PUSH2 0x23BE JUMP JUMPDEST PUSH2 0x4B8E SWAP2 SWAP1 PUSH2 0x550C JUMP JUMPDEST PUSH1 0x1 PUSH1 0x1 PUSH1 0xA0 SHL SUB SWAP1 SWAP5 AND PUSH0 SWAP1 DUP2 MSTORE PUSH1 0x20 DUP4 DUP2 MSTORE PUSH1 0x40 DUP1 DUP4 KECCAK256 DUP8 DUP5 MSTORE DUP3 MSTORE DUP1 DUP4 KECCAK256 DUP7 SWAP1 SSTORE SWAP5 DUP3 MSTORE PUSH1 0x1 SWAP1 SWAP4 ADD SWAP1 SWAP3 MSTORE POP KECCAK256 SSTORE JUMP JUMPDEST PUSH0 DUP2 DUP2 MSTORE PUSH1 0x1 DUP4 ADD PUSH1 0x20 MSTORE PUSH1 0x40 DUP2 KECCAK256 SLOAD PUSH2 0x4C07 JUMPI POP DUP2 SLOAD PUSH1 0x1 DUP2 DUP2 ADD DUP5 SSTORE PUSH0 DUP5 DUP2 MSTORE PUSH1 0x20 DUP1 DUP3 KECCAK256 SWAP1 SWAP4 ADD DUP5 SWAP1 SSTORE DUP5 SLOAD DUP5 DUP3 MSTORE DUP3 DUP7 ADD SWAP1 SWAP4 MSTORE PUSH1 0x40 SWAP1 KECCAK256 SWAP2 SWAP1 SWAP2 SSTORE PUSH2 0x1078 JUMP JUMPDEST POP PUSH0 PUSH2 0x1078 JUMP JUMPDEST PUSH0 DUP2 DUP2 MSTORE PUSH1 0x1 DUP4 ADD PUSH1 0x20 MSTORE PUSH1 0x40 DUP2 KECCAK256 SLOAD DUP1 ISZERO PUSH2 0x463D JUMPI PUSH0 PUSH2 0x4C30 PUSH1 0x1 DUP4 PUSH2 0x550C JUMP JUMPDEST DUP6 SLOAD SWAP1 SWAP2 POP PUSH0 SWAP1 PUSH2 0x4C43 SWAP1 PUSH1 0x1 SWAP1 PUSH2 0x550C JUMP JUMPDEST SWAP1 POP DUP1 DUP3 EQ PUSH2 0x4CA2 JUMPI PUSH0 DUP7 PUSH0 ADD DUP3 DUP2 SLOAD DUP2 LT PUSH2 0x4C61 JUMPI PUSH2 0x4C61 PUSH2 0x53E5 JUMP JUMPDEST SWAP1 PUSH0 MSTORE PUSH1 0x20 PUSH0 KECCAK256 ADD SLOAD SWAP1 POP DUP1 DUP8 PUSH0 ADD DUP5 DUP2 SLOAD DUP2 LT PUSH2 0x4C81 JUMPI PUSH2 0x4C81 PUSH2 0x53E5 JUMP JUMPDEST PUSH0 SWAP2 DUP3 MSTORE PUSH1 0x20 DUP1 DUP4 KECCAK256 SWAP1 SWAP2 ADD SWAP3 SWAP1 SWAP3 SSTORE SWAP2 DUP3 MSTORE PUSH1 0x1 DUP9 ADD SWAP1 MSTORE PUSH1 0x40 SWAP1 KECCAK256 DUP4 SWAP1 SSTORE JUMPDEST DUP6 SLOAD DUP7 SWAP1 DUP1 PUSH2 0x4CB3 JUMPI PUSH2 0x4CB3 PUSH2 0x553E JUMP JUMPDEST PUSH1 0x1 SWAP1 SUB DUP2 DUP2 SWAP1 PUSH0 MSTORE PUSH1 0x20 PUSH0 KECCAK256 ADD PUSH0 SWAP1 SSTORE SWAP1 SSTORE DUP6 PUSH1 0x1 ADD PUSH0 DUP7 DUP2 MSTORE PUSH1 0x20 ADD SWAP1 DUP2 MSTORE PUSH1 0x20 ADD PUSH0 KECCAK256 PUSH0 SWAP1 SSTORE PUSH1 0x1 SWAP4 POP POP POP POP PUSH2 0x1078 JUMP JUMPDEST PUSH0 PUSH2 0x4CF1 PUSH2 0x3F80 JUMP JUMPDEST SLOAD PUSH1 0x1 PUSH1 0x40 SHL SWAP1 DIV PUSH1 0xFF AND SWAP2 SWAP1 POP JUMP JUMPDEST PUSH0 PUSH1 0x1 PUSH1 0x1 PUSH1 0xE0 SHL SUB NOT DUP3 AND PUSH4 0x80AC58CD PUSH1 0xE0 SHL EQ DUP1 PUSH2 0x4D31 JUMPI POP PUSH1 0x1 PUSH1 0x1 PUSH1 0xE0 SHL SUB NOT DUP3 AND PUSH4 0x5B5E139F PUSH1 0xE0 SHL EQ JUMPDEST DUP1 PUSH2 0x1078 JUMPI POP PUSH4 0x1FFC9A7 PUSH1 0xE0 SHL PUSH1 0x1 PUSH1 0x1 PUSH1 0xE0 SHL SUB NOT DUP4 AND EQ PUSH2 0x1078 JUMP JUMPDEST PUSH1 0x1 PUSH1 0x1 PUSH1 0xA0 SHL SUB DUP3 AND PUSH2 0x4D79 JUMPI PUSH1 0x40 MLOAD PUSH4 0x32505749 PUSH1 0xE1 SHL DUP2 MSTORE PUSH0 PUSH1 0x4 DUP3 ADD MSTORE PUSH1 0x24 ADD PUSH2 0x10FD JUMP JUMPDEST PUSH0 PUSH2 0x4D85 DUP4 DUP4 PUSH0 PUSH2 0x3A56 JUMP JUMPDEST SWAP1 POP PUSH1 0x1 PUSH1 0x1 PUSH1 0xA0 SHL SUB DUP2 AND ISZERO PUSH2 0x19F7 JUMPI PUSH1 0x40 MLOAD PUSH4 0x39E35637 PUSH1 0xE1 SHL DUP2 MSTORE PUSH0 PUSH1 0x4 DUP3 ADD MSTORE PUSH1 0x24 ADD PUSH2 0x10FD JUMP JUMPDEST PUSH2 0x4DBC DUP4 DUP4 DUP4 PUSH2 0x4E15 JUMP JUMPDEST PUSH2 0x19F7 JUMPI PUSH1 0x1 PUSH1 0x1 PUSH1 0xA0 SHL SUB DUP4 AND PUSH2 0x4DEA JUMPI PUSH1 0x40 MLOAD PUSH4 0x7E273289 PUSH1 0xE0 SHL DUP2 MSTORE PUSH1 0x4 DUP2 ADD DUP3 SWAP1 MSTORE PUSH1 0x24 ADD PUSH2 0x10FD JUMP JUMPDEST PUSH1 0x40 MLOAD PUSH4 0x177E802F PUSH1 0xE0 SHL DUP2 MSTORE PUSH1 0x1 PUSH1 0x1 PUSH1 0xA0 SHL SUB DUP4 AND PUSH1 0x4 DUP3 ADD MSTORE PUSH1 0x24 DUP2 ADD DUP3 SWAP1 MSTORE PUSH1 0x44 ADD PUSH2 0x10FD JUMP JUMPDEST PUSH0 PUSH1 0x1 PUSH1 0x1 PUSH1 0xA0 SHL SUB DUP4 AND ISZERO DUP1 ISZERO SWAP1 PUSH2 0x2627 JUMPI POP DUP3 PUSH1 0x1 PUSH1 0x1 PUSH1 0xA0 SHL SUB AND DUP5 PUSH1 0x1 PUSH1 0x1 PUSH1 0xA0 SHL SUB AND EQ DUP1 PUSH2 0x4E4E JUMPI POP PUSH2 0x4E4E DUP5 DUP5 PUSH2 0x3498 JUMP JUMPDEST DUP1 PUSH2 0x2627 JUMPI POP DUP3 PUSH1 0x1 PUSH1 0x1 PUSH1 0xA0 SHL SUB AND PUSH2 0x4E67 DUP4 PUSH2 0x372F JUMP JUMPDEST PUSH1 0x1 PUSH1 0x1 PUSH1 0xA0 SHL SUB AND EQ SWAP5 SWAP4 POP POP POP POP JUMP JUMPDEST PUSH1 0x1 PUSH1 0x1 PUSH1 0xA0 SHL SUB DUP2 AND DUP2 EQ PUSH2 0x1846 JUMPI PUSH0 PUSH0 REVERT JUMPDEST PUSH0 PUSH1 0x20 DUP3 DUP5 SUB SLT ISZERO PUSH2 0x4E9D JUMPI PUSH0 PUSH0 REVERT JUMPDEST DUP2 CALLDATALOAD PUSH2 0x1587 DUP2 PUSH2 0x4E79 JUMP JUMPDEST PUSH1 0x1 PUSH1 0x1 PUSH1 0xE0 SHL SUB NOT DUP2 AND DUP2 EQ PUSH2 0x1846 JUMPI PUSH0 PUSH0 REVERT JUMPDEST PUSH0 PUSH1 0x20 DUP3 DUP5 SUB SLT ISZERO PUSH2 0x4ECD JUMPI PUSH0 PUSH0 REVERT JUMPDEST DUP2 CALLDATALOAD PUSH2 0x1587 DUP2 PUSH2 0x4EA8 JUMP JUMPDEST PUSH0 PUSH1 0x20 DUP3 DUP5 SUB SLT ISZERO PUSH2 0x4EE8 JUMPI PUSH0 PUSH0 REVERT JUMPDEST POP CALLDATALOAD SWAP2 SWAP1 POP JUMP JUMPDEST PUSH0 DUP2 MLOAD DUP1 DUP5 MSTORE DUP1 PUSH1 0x20 DUP5 ADD PUSH1 0x20 DUP7 ADD MCOPY PUSH0 PUSH1 0x20 DUP3 DUP7 ADD ADD MSTORE PUSH1 0x20 PUSH1 0x1F NOT PUSH1 0x1F DUP4 ADD AND DUP6 ADD ADD SWAP2 POP POP SWAP3 SWAP2 POP POP JUMP JUMPDEST PUSH1 0x20 DUP2 MSTORE PUSH0 PUSH2 0x1587 PUSH1 0x20 DUP4 ADD DUP5 PUSH2 0x4EEF JUMP JUMPDEST PUSH0 PUSH0 PUSH1 0x40 DUP4 DUP6 SUB SLT ISZERO PUSH2 0x4F40 JUMPI PUSH0 PUSH0 REVERT JUMPDEST DUP3 CALLDATALOAD PUSH2 0x4F4B DUP2 PUSH2 0x4E79 JUMP JUMPDEST SWAP5 PUSH1 0x20 SWAP4 SWAP1 SWAP4 ADD CALLDATALOAD SWAP4 POP POP POP JUMP JUMPDEST PUSH0 PUSH0 PUSH1 0x40 DUP4 DUP6 SUB SLT ISZERO PUSH2 0x4F6A JUMPI PUSH0 PUSH0 REVERT JUMPDEST DUP3 CALLDATALOAD PUSH2 0x4F75 DUP2 PUSH2 0x4E79 JUMP JUMPDEST SWAP2 POP PUSH1 0x20 DUP4 ADD CALLDATALOAD PUSH2 0x4F85 DUP2 PUSH2 0x4E79 JUMP JUMPDEST DUP1 SWAP2 POP POP SWAP3 POP SWAP3 SWAP1 POP JUMP JUMPDEST PUSH0 PUSH0 PUSH1 0x40 DUP4 DUP6 SUB SLT ISZERO PUSH2 0x4FA1 JUMPI PUSH0 PUSH0 REVERT JUMPDEST POP POP DUP1 CALLDATALOAD SWAP3 PUSH1 0x20 SWAP1 SWAP2 ADD CALLDATALOAD SWAP2 POP JUMP JUMPDEST PUSH0 PUSH0 PUSH0 PUSH1 0x60 DUP5 DUP7 SUB SLT ISZERO PUSH2 0x4FC2 JUMPI PUSH0 PUSH0 REVERT JUMPDEST DUP4 CALLDATALOAD PUSH2 0x4FCD DUP2 PUSH2 0x4E79 JUMP JUMPDEST SWAP3 POP PUSH1 0x20 DUP5 ADD CALLDATALOAD PUSH2 0x4FDD DUP2 PUSH2 0x4E79 JUMP JUMPDEST SWAP3 SWAP6 SWAP3 SWAP5 POP POP POP PUSH1 0x40 SWAP2 SWAP1 SWAP2 ADD CALLDATALOAD SWAP1 JUMP JUMPDEST PUSH0 PUSH0 PUSH1 0x40 DUP4 DUP6 SUB SLT ISZERO PUSH2 0x4FFF JUMPI PUSH0 PUSH0 REVERT JUMPDEST DUP3 CALLDATALOAD SWAP2 POP PUSH1 0x20 DUP4 ADD CALLDATALOAD PUSH2 0x4F85 DUP2 PUSH2 0x4E79 JUMP JUMPDEST PUSH0 DUP2 MLOAD DUP1 DUP5 MSTORE PUSH1 0x20 DUP5 ADD SWAP4 POP PUSH1 0x20 DUP4 ADD PUSH0 JUMPDEST DUP3 DUP2 LT ISZERO PUSH2 0x5041 JUMPI DUP2 MLOAD DUP7 MSTORE PUSH1 0x20 SWAP6 DUP7 ADD SWAP6 SWAP1 SWAP2 ADD SWAP1 PUSH1 0x1 ADD PUSH2 0x5023 JUMP JUMPDEST POP SWAP4 SWAP5 SWAP4 POP POP POP POP JUMP JUMPDEST PUSH1 0x20 DUP2 MSTORE PUSH0 PUSH2 0x1587 PUSH1 0x20 DUP4 ADD DUP5 PUSH2 0x5011 JUMP JUMPDEST PUSH1 0x20 DUP1 DUP3 MSTORE DUP3 MLOAD DUP3 DUP3 ADD DUP2 SWAP1 MSTORE PUSH0 SWAP2 DUP5 ADD SWAP1 PUSH1 0x40 DUP5 ADD SWAP1 DUP4 JUMPDEST DUP2 DUP2 LT ISZERO PUSH2 0x50CE JUMPI DUP4 MLOAD DUP1 MLOAD DUP5 MSTORE PUSH1 0x20 DUP2 ADD MLOAD PUSH1 0x20 DUP6 ADD MSTORE PUSH1 0x40 DUP2 ADD MLOAD PUSH1 0x40 DUP6 ADD MSTORE PUSH1 0x60 DUP2 ADD MLOAD PUSH1 0x60 DUP6 ADD MSTORE PUSH1 0x80 DUP2 ADD MLOAD PUSH1 0x80 DUP6 ADD MSTORE PUSH1 0xA0 DUP2 ADD MLOAD PUSH1 0xA0 DUP6 ADD MSTORE POP PUSH1 0xC0 DUP4 ADD SWAP3 POP PUSH1 0x20 DUP5 ADD SWAP4 POP PUSH1 0x1 DUP2 ADD SWAP1 POP PUSH2 0x5076 JUMP JUMPDEST POP SWAP1 SWAP6 SWAP5 POP POP POP POP POP JUMP JUMPDEST DUP2 MLOAD DUP2 MSTORE PUSH1 0x20 DUP1 DUP4 ADD MLOAD SWAP1 DUP3 ADD MSTORE PUSH1 0x40 DUP1 DUP4 ADD MLOAD SWAP1 DUP3 ADD MSTORE PUSH1 0x60 DUP1 DUP4 ADD MLOAD ISZERO ISZERO SWAP1 DUP3 ADD MSTORE PUSH1 0x80 DUP2 ADD PUSH2 0x1078 JUMP JUMPDEST PUSH0 DUP2 MLOAD DUP1 DUP5 MSTORE PUSH1 0x20 DUP5 ADD SWAP4 POP PUSH1 0x20 DUP4 ADD PUSH0 JUMPDEST DUP3 DUP2 LT ISZERO PUSH2 0x5041 JUMPI DUP2 MLOAD PUSH1 0x1 PUSH1 0x1 PUSH1 0xA0 SHL SUB AND DUP7 MSTORE PUSH1 0x20 SWAP6 DUP7 ADD SWAP6 SWAP1 SWAP2 ADD SWAP1 PUSH1 0x1 ADD PUSH2 0x5118 JUMP JUMPDEST PUSH1 0x40 DUP2 MSTORE PUSH0 PUSH2 0x5151 PUSH1 0x40 DUP4 ADD DUP6 PUSH2 0x5106 JUMP JUMPDEST DUP3 DUP2 SUB PUSH1 0x20 DUP5 ADD MSTORE PUSH2 0x3B6F DUP2 DUP6 PUSH2 0x5011 JUMP JUMPDEST PUSH0 PUSH0 PUSH1 0x40 DUP4 DUP6 SUB SLT ISZERO PUSH2 0x5174 JUMPI PUSH0 PUSH0 REVERT JUMPDEST DUP3 CALLDATALOAD PUSH2 0x517F DUP2 PUSH2 0x4E79 JUMP JUMPDEST SWAP2 POP PUSH1 0x20 DUP4 ADD CALLDATALOAD DUP1 ISZERO ISZERO DUP2 EQ PUSH2 0x4F85 JUMPI PUSH0 PUSH0 REVERT JUMPDEST PUSH1 0x20 DUP2 MSTORE PUSH0 PUSH2 0x1587 PUSH1 0x20 DUP4 ADD DUP5 PUSH2 0x5106 JUMP JUMPDEST PUSH0 PUSH0 PUSH0 PUSH1 0x60 DUP5 DUP7 SUB SLT ISZERO PUSH2 0x51B7 JUMPI PUSH0 PUSH0 REVERT JUMPDEST DUP4 CALLDATALOAD PUSH2 0x51C2 DUP2 PUSH2 0x4E79 JUMP JUMPDEST SWAP6 PUSH1 0x20 DUP6 ADD CALLDATALOAD SWAP6 POP PUSH1 0x40 SWAP1 SWAP5 ADD CALLDATALOAD SWAP4 SWAP3 POP POP POP JUMP JUMPDEST PUSH4 0x4E487B71 PUSH1 0xE0 SHL PUSH0 MSTORE PUSH1 0x41 PUSH1 0x4 MSTORE PUSH1 0x24 PUSH0 REVERT JUMPDEST PUSH0 PUSH0 PUSH0 PUSH0 PUSH1 0x80 DUP6 DUP8 SUB SLT ISZERO PUSH2 0x51FE JUMPI PUSH0 PUSH0 REVERT JUMPDEST DUP5 CALLDATALOAD PUSH2 0x5209 DUP2 PUSH2 0x4E79 JUMP JUMPDEST SWAP4 POP PUSH1 0x20 DUP6 ADD CALLDATALOAD PUSH2 0x5219 DUP2 PUSH2 0x4E79 JUMP JUMPDEST SWAP3 POP PUSH1 0x40 DUP6 ADD CALLDATALOAD SWAP2 POP PUSH1 0x60 DUP6 ADD CALLDATALOAD PUSH1 0x1 PUSH1 0x1 PUSH1 0x40 SHL SUB DUP2 GT ISZERO PUSH2 0x523A JUMPI PUSH0 PUSH0 REVERT JUMPDEST DUP6 ADD PUSH1 0x1F DUP2 ADD DUP8 SGT PUSH2 0x524A JUMPI PUSH0 PUSH0 REVERT JUMPDEST DUP1 CALLDATALOAD PUSH1 0x1 PUSH1 0x1 PUSH1 0x40 SHL SUB DUP2 GT ISZERO PUSH2 0x5263 JUMPI PUSH2 0x5263 PUSH2 0x51D7 JUMP JUMPDEST PUSH1 0x40 MLOAD PUSH1 0x1F DUP3 ADD PUSH1 0x1F NOT SWAP1 DUP2 AND PUSH1 0x3F ADD AND DUP2 ADD PUSH1 0x1 PUSH1 0x1 PUSH1 0x40 SHL SUB DUP2 GT DUP3 DUP3 LT OR ISZERO PUSH2 0x5291 JUMPI PUSH2 0x5291 PUSH2 0x51D7 JUMP JUMPDEST PUSH1 0x40 MSTORE DUP2 DUP2 MSTORE DUP3 DUP3 ADD PUSH1 0x20 ADD DUP10 LT ISZERO PUSH2 0x52A8 JUMPI PUSH0 PUSH0 REVERT JUMPDEST DUP2 PUSH1 0x20 DUP5 ADD PUSH1 0x20 DUP4 ADD CALLDATACOPY PUSH0 PUSH1 0x20 DUP4 DUP4 ADD ADD MSTORE DUP1 SWAP4 POP POP POP POP SWAP3 SWAP6 SWAP2 SWAP5 POP SWAP3 POP JUMP JUMPDEST PUSH0 PUSH0 PUSH0 PUSH1 0x60 DUP5 DUP7 SUB SLT ISZERO PUSH2 0x52DB JUMPI PUSH0 PUSH0 REVERT JUMPDEST DUP4 CALLDATALOAD PUSH2 0x52E6 DUP2 PUSH2 0x4E79 JUMP JUMPDEST SWAP3 POP PUSH1 0x20 DUP5 ADD CALLDATALOAD PUSH2 0x52F6 DUP2 PUSH2 0x4E79 JUMP JUMPDEST SWAP2 POP PUSH1 0x40 DUP5 ADD CALLDATALOAD PUSH2 0x5306 DUP2 PUSH2 0x4E79 JUMP JUMPDEST DUP1 SWAP2 POP POP SWAP3 POP SWAP3 POP SWAP3 JUMP JUMPDEST PUSH1 0x20 DUP1 DUP3 MSTORE DUP3 MLOAD DUP3 DUP3 ADD DUP2 SWAP1 MSTORE PUSH0 SWAP2 DUP5 ADD SWAP1 PUSH1 0x40 DUP5 ADD SWAP1 DUP4 JUMPDEST DUP2 DUP2 LT ISZERO PUSH2 0x50CE JUMPI PUSH2 0x5360 DUP4 DUP6 MLOAD DUP1 MLOAD DUP3 MSTORE PUSH1 0x20 DUP2 ADD MLOAD PUSH1 0x20 DUP4 ADD MSTORE PUSH1 0x40 DUP2 ADD MLOAD PUSH1 0x40 DUP4 ADD MSTORE PUSH1 0x60 DUP2 ADD MLOAD ISZERO ISZERO PUSH1 0x60 DUP4 ADD MSTORE POP POP JUMP JUMPDEST PUSH1 0x20 SWAP4 SWAP1 SWAP4 ADD SWAP3 PUSH1 0x80 SWAP3 SWAP1 SWAP3 ADD SWAP2 PUSH1 0x1 ADD PUSH2 0x532A JUMP JUMPDEST PUSH0 PUSH0 PUSH1 0x20 DUP4 DUP6 SUB SLT ISZERO PUSH2 0x5387 JUMPI PUSH0 PUSH0 REVERT JUMPDEST DUP3 CALLDATALOAD PUSH1 0x1 PUSH1 0x1 PUSH1 0x40 SHL SUB DUP2 GT ISZERO PUSH2 0x539C JUMPI PUSH0 PUSH0 REVERT JUMPDEST DUP4 ADD PUSH1 0x1F DUP2 ADD DUP6 SGT PUSH2 0x53AC JUMPI PUSH0 PUSH0 REVERT JUMPDEST DUP1 CALLDATALOAD PUSH1 0x1 PUSH1 0x1 PUSH1 0x40 SHL SUB DUP2 GT ISZERO PUSH2 0x53C1 JUMPI PUSH0 PUSH0 REVERT JUMPDEST DUP6 PUSH1 0x20 DUP3 PUSH1 0x5 SHL DUP5 ADD ADD GT ISZERO PUSH2 0x53D5 JUMPI PUSH0 PUSH0 REVERT JUMPDEST PUSH1 0x20 SWAP2 SWAP1 SWAP2 ADD SWAP6 SWAP1 SWAP5 POP SWAP3 POP POP POP JUMP JUMPDEST PUSH4 0x4E487B71 PUSH1 0xE0 SHL PUSH0 MSTORE PUSH1 0x32 PUSH1 0x4 MSTORE PUSH1 0x24 PUSH0 REVERT JUMPDEST PUSH1 0x1 DUP2 DUP2 SHR SWAP1 DUP3 AND DUP1 PUSH2 0x540D JUMPI PUSH1 0x7F DUP3 AND SWAP2 POP JUMPDEST PUSH1 0x20 DUP3 LT DUP2 SUB PUSH2 0x542B JUMPI PUSH4 0x4E487B71 PUSH1 0xE0 SHL PUSH0 MSTORE PUSH1 0x22 PUSH1 0x4 MSTORE PUSH1 0x24 PUSH0 REVERT JUMPDEST POP SWAP2 SWAP1 POP JUMP JUMPDEST PUSH4 0x4E487B71 PUSH1 0xE0 SHL PUSH0 MSTORE PUSH1 0x11 PUSH1 0x4 MSTORE PUSH1 0x24 PUSH0 REVERT JUMPDEST DUP1 DUP3 ADD DUP1 DUP3 GT ISZERO PUSH2 0x1078 JUMPI PUSH2 0x1078 PUSH2 0x5431 JUMP JUMPDEST PUSH1 0x1 PUSH1 0x1 PUSH1 0xA0 SHL SUB SWAP2 SWAP1 SWAP2 AND DUP2 MSTORE PUSH1 0x40 PUSH1 0x20 DUP3 ADD DUP2 SWAP1 MSTORE PUSH1 0x29 SWAP1 DUP3 ADD MSTORE PUSH32 0x4163636F756E742069732066726F7A656E20666F7220636F6D706C69616E6365 PUSH1 0x60 DUP3 ADD MSTORE PUSH9 0x20707572706F736573 PUSH1 0xB8 SHL PUSH1 0x80 DUP3 ADD MSTORE PUSH1 0xA0 ADD SWAP1 JUMP JUMPDEST PUSH1 0x1 PUSH1 0x1 PUSH1 0xA0 SHL SUB SWAP2 SWAP1 SWAP2 AND DUP2 MSTORE PUSH1 0x40 PUSH1 0x20 DUP3 ADD DUP2 SWAP1 MSTORE PUSH1 0x16 SWAP1 DUP3 ADD MSTORE PUSH22 0x1058D8DBDD5B9D081A5CC8189B1858DADB1A5CDD1959 PUSH1 0x52 SHL PUSH1 0x60 DUP3 ADD MSTORE PUSH1 0x80 ADD SWAP1 JUMP JUMPDEST DUP1 DUP3 MUL DUP2 ISZERO DUP3 DUP3 DIV DUP5 EQ OR PUSH2 0x1078 JUMPI PUSH2 0x1078 PUSH2 0x5431 JUMP JUMPDEST DUP2 DUP2 SUB DUP2 DUP2 GT ISZERO PUSH2 0x1078 JUMPI PUSH2 0x1078 PUSH2 0x5431 JUMP JUMPDEST PUSH0 DUP3 PUSH2 0x5539 JUMPI PUSH4 0x4E487B71 PUSH1 0xE0 SHL PUSH0 MSTORE PUSH1 0x12 PUSH1 0x4 MSTORE PUSH1 0x24 PUSH0 REVERT JUMPDEST POP DIV SWAP1 JUMP JUMPDEST PUSH4 0x4E487B71 PUSH1 0xE0 SHL PUSH0 MSTORE PUSH1 0x31 PUSH1 0x4 MSTORE PUSH1 0x24 PUSH0 REVERT JUMPDEST PUSH1 0x1 PUSH1 0x1 PUSH1 0xA0 SHL SUB SWAP4 DUP5 AND DUP2 MSTORE SWAP2 SWAP1 SWAP3 AND PUSH1 0x20 DUP3 ADD MSTORE PUSH1 0x40 DUP2 ADD SWAP2 SWAP1 SWAP2 MSTORE PUSH1 0x60 ADD SWAP1 JUMP JUMPDEST PUSH0 PUSH1 0x1 DUP3 ADD PUSH2 0x5587 JUMPI PUSH2 0x5587 PUSH2 0x5431 JUMP JUMPDEST POP PUSH1 0x1 ADD SWAP1 JUMP JUMPDEST PUSH0 DUP2 MLOAD DUP1 PUSH1 0x20 DUP5 ADD DUP6 MCOPY PUSH0 SWAP4 ADD SWAP3 DUP4 MSTORE POP SWAP1 SWAP2 SWAP1 POP JUMP JUMPDEST PUSH0 PUSH2 0x2627 PUSH2 0x55B3 DUP4 DUP7 PUSH2 0x558E JUMP JUMPDEST DUP5 PUSH2 0x558E JUMP JUMPDEST PUSH1 0x1 PUSH1 0x1 PUSH1 0xA0 SHL SUB DUP6 DUP2 AND DUP3 MSTORE DUP5 AND PUSH1 0x20 DUP3 ADD MSTORE PUSH1 0x40 DUP2 ADD DUP4 SWAP1 MSTORE PUSH1 0x80 PUSH1 0x60 DUP3 ADD DUP2 SWAP1 MSTORE PUSH0 SWAP1 PUSH2 0x55EB SWAP1 DUP4 ADD DUP5 PUSH2 0x4EEF JUMP JUMPDEST SWAP7 SWAP6 POP POP POP POP POP POP JUMP JUMPDEST PUSH0 PUSH1 0x20 DUP3 DUP5 SUB SLT ISZERO PUSH2 0x5605 JUMPI PUSH0 PUSH0 REVERT JUMPDEST DUP2 MLOAD PUSH2 0x1587 DUP2 PUSH2 0x4EA8 JUMP JUMPDEST PUSH1 0x1F DUP3 GT ISZERO PUSH2 0x19F7 JUMPI DUP1 PUSH0 MSTORE PUSH1 0x20 PUSH0 KECCAK256 PUSH1 0x1F DUP5 ADD PUSH1 0x5 SHR DUP2 ADD PUSH1 0x20 DUP6 LT ISZERO PUSH2 0x5635 JUMPI POP DUP1 JUMPDEST PUSH1 0x1F DUP5 ADD PUSH1 0x5 SHR DUP3 ADD SWAP2 POP JUMPDEST DUP2 DUP2 LT ISZERO PUSH2 0x3F79 JUMPI PUSH0 DUP2 SSTORE PUSH1 0x1 ADD PUSH2 0x5641 JUMP JUMPDEST DUP2 MLOAD PUSH1 0x1 PUSH1 0x1 PUSH1 0x40 SHL SUB DUP2 GT ISZERO PUSH2 0x566D JUMPI PUSH2 0x566D PUSH2 0x51D7 JUMP JUMPDEST PUSH2 0x5681 DUP2 PUSH2 0x567B DUP5 SLOAD PUSH2 0x53F9 JUMP JUMPDEST DUP5 PUSH2 0x5610 JUMP JUMPDEST PUSH1 0x20 PUSH1 0x1F DUP3 GT PUSH1 0x1 DUP2 EQ PUSH2 0x56B3 JUMPI PUSH0 DUP4 ISZERO PUSH2 0x569C JUMPI POP DUP5 DUP3 ADD MLOAD JUMPDEST PUSH0 NOT PUSH1 0x3 DUP6 SWAP1 SHL SHR NOT AND PUSH1 0x1 DUP5 SWAP1 SHL OR DUP5 SSTORE PUSH2 0x3F79 JUMP JUMPDEST PUSH0 DUP5 DUP2 MSTORE PUSH1 0x20 DUP2 KECCAK256 PUSH1 0x1F NOT DUP6 AND SWAP2 JUMPDEST DUP3 DUP2 LT ISZERO PUSH2 0x56E2 JUMPI DUP8 DUP6 ADD MLOAD DUP3 SSTORE PUSH1 0x20 SWAP5 DUP6 ADD SWAP5 PUSH1 0x1 SWAP1 SWAP3 ADD SWAP2 ADD PUSH2 0x56C2 JUMP JUMPDEST POP DUP5 DUP3 LT ISZERO PUSH2 0x56FF JUMPI DUP7 DUP5 ADD MLOAD PUSH0 NOT PUSH1 0x3 DUP8 SWAP1 SHL PUSH1 0xF8 AND SHR NOT AND DUP2 SSTORE JUMPDEST POP POP POP POP PUSH1 0x1 SWAP1 DUP2 SHL ADD SWAP1 SSTORE POP JUMP INVALID 0xC1 0xF6 INVALID 0x24 PUSH3 0x1CE81E 0xC5 DUP3 PUSH29 0xAF0253CADB74709B061630E6B55E82371705932000645E039705490088 0xDA 0xAD DUP10 0xBA 0xE2 POP BLOBHASH LOG3 0x4F BLOBBASEFEE SWAP1 PUSH19 0xD398537B1AB2425F24CBED0080BB2B638CC20B 0xC4 0xD0 0xA6 0xD PUSH7 0x940F3AB4A00C1D PUSH28 0x313497CA82FB0B4AB007930092DE27771F92D6942691D73358B3A467 RETURNDATACOPY BASEFEE DUP1 0xDE DUP4 JUMP EXTCALL CALLCODE 0xCF GASLIMIT 0x2B 0xE8 PUSH31 0x2D36365D7A28E3265B37A6474929F336521B332C1681B933F6CB9F3376673 PREVRANDAO 0xD DUP7 0x2A PUSH5 0x5E03970549 STOP DUP9 0xDA 0xAD DUP10 0xBA 0xE2 POP BLOBHASH LOG3 0x4F BLOBBASEFEE SWAP1 PUSH19 0xD398537B1AB2425F24CBED0202DD7BC7DEC4DC RETURNCONTRACT 0xDD 0xA7 PUSH22 0xE58DD541E08A116C6C53815C0BD028192F7B626800CD MCOPY DATALOADN 0x5C6E XOR PUSH31 0x77E9AEE88184C21F4F2182AB5827CB3B7E07FBEDCD63F033009B779B17422D 0xD EXTDELEGATECALL 0x22 0x23 ADD DUP12 ORIGIN 0xB4 DATALOADN 0xFA46 RJUMP 0x7172 RETURNDATASIZE PUSH9 0x17E2486D003BECC55F STOP LOG4 SWAP9 SMOD KECCAK256 TLOAD RETF 0xD3 SSTORE MULMOD 0x2E CREATE2 0xA8 LOG1 DUP16 JUMP 0xE8 SWAP2 EXTCODECOPY DELEGATECALL LOG2 ADD EXTSTATICCALL 0xE2 DUP8 DUP3 JUMPDEST MULMOD JUMP SWAP4 0xC2 OR PUSH22 0xA2646970667358221220C0BE95BA79EA060CFE73BB45 0xFC EOFCREATE 0xE3 SWAP4 SDIV ISZERO BALANCE MSTORE DUP1 0xB2 PUSH0 0xCC 0xCF 0xD4 MUL DUP14 GASPRICE SWAP11 PUSH15 0x1A64736F6C634300081D0033000000 "
		},
		"gasEstimates": {
			"creation": {
				"codeDepositCost": "4532000",
				"executionCost": "34908",
				"totalCost": "4566908"
			},
			"external": {
				"ADMIN_ROLE()": "infinite",
				"DEFAULT_ADMIN_ROLE()": "272",
				"FREEZER_ROLE()": "infinite",
				"PAUSER_ROLE()": "infinite",
				"addRewardToken(address)": "infinite",
				"approve(address,uint256)": "infinite",
				"balanceOf(address)": "infinite",
				"balanceOfStaked(address)": "infinite",
				"blacklist(address)": "2654",
				"blacklistWallet(address)": "infinite",
				"claimFeeETH()": "2373",
				"earned(address)": "infinite",
				"earned(address,address)": "infinite",
				"earnedAll(address)": "infinite",
				"emergencyWithdrawERC20(address,address,uint256)": "infinite",
				"emergencyWithdrawERC721(address,address,uint256)": "infinite",
				"emergencyWithdrawETH(address,uint256)": "infinite",
				"feeReceiver()": "2425",
				"freezeWallet(address)": "infinite",
				"frozen(address)": "2611",
				"getActiveRewardRate(address)": "infinite",
				"getAllRewards()": "infinite",
				"getApproved(uint256)": "infinite",
				"getLockedBalance(address)": "infinite",
				"getRewardForDuration()": "infinite",
				"getRewardForToken(address)": "infinite",
				"getRewardSchedules(address)": "infinite",
				"getRoleAdmin(bytes32)": "infinite",
				"getRoleMember(bytes32,uint256)": "infinite",
				"getRoleMemberCount(bytes32)": "infinite",
				"getRoleMembers(bytes32)": "infinite",
				"getStakePosition(uint256)": "11471",
				"getUnlockedBalance(address)": "infinite",
				"getUserStakeIds(address)": "infinite",
				"getUserStakePositions(address)": "infinite",
				"getWhitelistedRewardTokens()": "infinite",
				"grantRole(bytes32,address)": "infinite",
				"hasRole(bytes32,address)": "infinite",
				"initialize(address,address,address)": "infinite",
				"isApprovedForAll(address,address)": "infinite",
				"isBlacklisted(address)": "2716",
				"isFrozen(address)": "2629",
				"lastTotalSupplyZeroTime()": "2395",
				"lastUpdateTimePerToken(address)": "2611",
				"minimumLockDuration()": "2439",
				"name()": "infinite",
				"nextTokenId()": "2374",
				"ownerOf(uint256)": "infinite",
				"pause()": "infinite",
				"paused()": "infinite",
				"removeRewardToken(address)": "infinite",
				"renounceRole(bytes32,address)": "infinite",
				"revokeRole(bytes32,address)": "infinite",
				"rewardPerToken(address)": "infinite",
				"rewardPerTokenStoredPerToken(address)": "2656",
				"rewardSchedules(address,uint256)": "15542",
				"rewardTokensList(uint256)": "4678",
				"rewardsPerToken(address,address)": "infinite",
				"safeTransferFrom(address,address,uint256)": "infinite",
				"safeTransferFrom(address,address,uint256,bytes)": "infinite",
				"setApprovalForAll(address,bool)": "infinite",
				"setClaimFeeETH(uint256)": "infinite",
				"setFeeReceiver(address)": "infinite",
				"setMinimumLockDuration(uint256)": "infinite",
				"stakeTokens(uint256)": "infinite",
				"stakeWithBonus(uint256,uint256)": "infinite",
				"stakes(uint256)": "8982",
				"stakingToken()": "2512",
				"supplyRewards(address,uint256,uint256)": "infinite",
				"supportsInterface(bytes4)": "infinite",
				"symbol()": "infinite",
				"tokenByIndex(uint256)": "infinite",
				"tokenOfOwnerByIndex(address,uint256)": "infinite",
				"tokenURI(uint256)": "infinite",
				"totalStakedAmount()": "2373",
				"totalSupply()": "infinite",
				"transferFrom(address,address,uint256)": "infinite",
				"unblacklistWallet(address)": "infinite",
				"unfreezeWallet(address)": "infinite",
				"unpause()": "infinite",
				"userRewardPerTokenPaidPerToken(address,address)": "infinite",
				"vault()": "2490",
				"wasTotalSupplyZero()": "2466",
				"whitelistedRewardTokens(address)": "2678",
				"withdraw(uint256)": "infinite",
				"withdrawAllUnlocked()": "infinite",
				"withdrawMultiple(uint256[])": "infinite"
			},
			"internal": {
				"_handleSupplyChange()": "infinite",
				"_stakeWithLock(address,uint256,uint256)": "infinite",
				"_update(address,uint256,address)": "infinite",
				"_updateRewardForToken(address,address)": "infinite"
			}
		},
		"methodIdentifiers": {
			"ADMIN_ROLE()": "75b238fc",
			"DEFAULT_ADMIN_ROLE()": "a217fddf",
			"FREEZER_ROLE()": "06a85f0f",
			"PAUSER_ROLE()": "e63ab1e9",
			"addRewardToken(address)": "1c03e6cc",
			"approve(address,uint256)": "095ea7b3",
			"balanceOf(address)": "70a08231",
			"balanceOfStaked(address)": "3455f41e",
			"blacklist(address)": "f9f92be4",
			"blacklistWallet(address)": "62441bf6",
			"claimFeeETH()": "c423be25",
			"earned(address)": "008cc262",
			"earned(address,address)": "211dc32d",
			"earnedAll(address)": "9e88ec10",
			"emergencyWithdrawERC20(address,address,uint256)": "55b8fb81",
			"emergencyWithdrawERC721(address,address,uint256)": "b72b85a1",
			"emergencyWithdrawETH(address,uint256)": "d79e8567",
			"feeReceiver()": "b3f00674",
			"freezeWallet(address)": "9f001169",
			"frozen(address)": "d0516650",
			"getActiveRewardRate(address)": "ec35fde5",
			"getAllRewards()": "45b35f56",
			"getApproved(uint256)": "081812fc",
			"getLockedBalance(address)": "c4086893",
			"getRewardForDuration()": "1c1f78eb",
			"getRewardForToken(address)": "cc7045d7",
			"getRewardSchedules(address)": "5bfc82ad",
			"getRoleAdmin(bytes32)": "248a9ca3",
			"getRoleMember(bytes32,uint256)": "9010d07c",
			"getRoleMemberCount(bytes32)": "ca15c873",
			"getRoleMembers(bytes32)": "a3246ad3",
			"getStakePosition(uint256)": "89e63207",
			"getUnlockedBalance(address)": "129de5bf",
			"getUserStakeIds(address)": "313da78f",
			"getUserStakePositions(address)": "dc21fb76",
			"getWhitelistedRewardTokens()": "d8f67495",
			"grantRole(bytes32,address)": "2f2ff15d",
			"hasRole(bytes32,address)": "91d14854",
			"initialize(address,address,address)": "c0c53b8b",
			"isApprovedForAll(address,address)": "e985e9c5",
			"isBlacklisted(address)": "fe575a87",
			"isFrozen(address)": "e5839836",
			"lastTotalSupplyZeroTime()": "c6ddd3a0",
			"lastUpdateTimePerToken(address)": "28bcf07a",
			"minimumLockDuration()": "9d86b850",
			"name()": "06fdde03",
			"nextTokenId()": "75794a3c",
			"ownerOf(uint256)": "6352211e",
			"pause()": "8456cb59",
			"paused()": "5c975abb",
			"removeRewardToken(address)": "3d509c97",
			"renounceRole(bytes32,address)": "36568abe",
			"revokeRole(bytes32,address)": "d547741f",
			"rewardPerToken(address)": "f1229777",
			"rewardPerTokenStoredPerToken(address)": "14228806",
			"rewardSchedules(address,uint256)": "b80e6793",
			"rewardTokensList(uint256)": "5da9e169",
			"rewardsPerToken(address,address)": "78a2574b",
			"safeTransferFrom(address,address,uint256)": "42842e0e",
			"safeTransferFrom(address,address,uint256,bytes)": "b88d4fde",
			"setApprovalForAll(address,bool)": "a22cb465",
			"setClaimFeeETH(uint256)": "54fd83c1",
			"setFeeReceiver(address)": "efdcd974",
			"setMinimumLockDuration(uint256)": "04f6c0ef",
			"stakeTokens(uint256)": "7547c7a3",
			"stakeWithBonus(uint256,uint256)": "1b7447f1",
			"stakes(uint256)": "d5a44f86",
			"stakingToken()": "72f702f3",
			"supplyRewards(address,uint256,uint256)": "a6eec453",
			"supportsInterface(bytes4)": "01ffc9a7",
			"symbol()": "95d89b41",
			"tokenByIndex(uint256)": "4f6ccce7",
			"tokenOfOwnerByIndex(address,uint256)": "2f745c59",
			"tokenURI(uint256)": "c87b56dd",
			"totalStakedAmount()": "567e98f9",
			"totalSupply()": "18160ddd",
			"transferFrom(address,address,uint256)": "23b872dd",
			"unblacklistWallet(address)": "5b34bc41",
			"unfreezeWallet(address)": "60f588b7",
			"unpause()": "3f4ba83a",
			"userRewardPerTokenPaidPerToken(address,address)": "11b567b9",
			"vault()": "fbfa77cf",
			"wasTotalSupplyZero()": "3dd6aa42",
			"whitelistedRewardTokens(address)": "5225f987",
			"withdraw(uint256)": "2e1a7d4d",
			"withdrawAllUnlocked()": "a3d046a8",
			"withdrawMultiple(uint256[])": "e5b79106"
		}
	},
	"abi": [
		{
			"inputs": [],
			"stateMutability": "nonpayable",
			"type": "constructor"
		},
		{
			"inputs": [],
			"name": "AccessControlBadConfirmation",
			"type": "error"
		},
		{
			"inputs": [
				{
					"internalType": "address",
					"name": "account",
					"type": "address"
				},
				{
					"internalType": "bytes32",
					"name": "neededRole",
					"type": "bytes32"
				}
			],
			"name": "AccessControlUnauthorizedAccount",
			"type": "error"
		},
		{
			"inputs": [
				{
					"internalType": "uint256",
					"name": "currentTime",
					"type": "uint256"
				},
				{
					"internalType": "uint256",
					"name": "unlockTime",
					"type": "uint256"
				}
			],
			"name": "DepositStillLocked",
			"type": "error"
		},
		{
			"inputs": [],
			"name": "ERC721EnumerableForbiddenBatchMint",
			"type": "error"
		},
		{
			"inputs": [
				{
					"internalType": "address",
					"name": "sender",
					"type": "address"
				},
				{
					"internalType": "uint256",
					"name": "tokenId",
					"type": "uint256"
				},
				{
					"internalType": "address",
					"name": "owner",
					"type": "address"
				}
			],
			"name": "ERC721IncorrectOwner",
			"type": "error"
		},
		{
			"inputs": [
				{
					"internalType": "address",
					"name": "operator",
					"type": "address"
				},
				{
					"internalType": "uint256",
					"name": "tokenId",
					"type": "uint256"
				}
			],
			"name": "ERC721InsufficientApproval",
			"type": "error"
		},
		{
			"inputs": [
				{
					"internalType": "address",
					"name": "approver",
					"type": "address"
				}
			],
			"name": "ERC721InvalidApprover",
			"type": "error"
		},
		{
			"inputs": [
				{
					"internalType": "address",
					"name": "operator",
					"type": "address"
				}
			],
			"name": "ERC721InvalidOperator",
			"type": "error"
		},
		{
			"inputs": [
				{
					"internalType": "address",
					"name": "owner",
					"type": "address"
				}
			],
			"name": "ERC721InvalidOwner",
			"type": "error"
		},
		{
			"inputs": [
				{
					"internalType": "address",
					"name": "receiver",
					"type": "address"
				}
			],
			"name": "ERC721InvalidReceiver",
			"type": "error"
		},
		{
			"inputs": [
				{
					"internalType": "address",
					"name": "sender",
					"type": "address"
				}
			],
			"name": "ERC721InvalidSender",
			"type": "error"
		},
		{
			"inputs": [
				{
					"internalType": "uint256",
					"name": "tokenId",
					"type": "uint256"
				}
			],
			"name": "ERC721NonexistentToken",
			"type": "error"
		},
		{
			"inputs": [
				{
					"internalType": "address",
					"name": "owner",
					"type": "address"
				},
				{
					"internalType": "uint256",
					"name": "index",
					"type": "uint256"
				}
			],
			"name": "ERC721OutOfBoundsIndex",
			"type": "error"
		},
		{
			"inputs": [],
			"name": "EnforcedPause",
			"type": "error"
		},
		{
			"inputs": [],
			"name": "ExpectedPause",
			"type": "error"
		},
		{
			"inputs": [],
			"name": "InvalidInitialization",
			"type": "error"
		},
		{
			"inputs": [
				{
					"internalType": "address",
					"name": "account",
					"type": "address"
				},
				{
					"internalType": "string",
					"name": "reason",
					"type": "string"
				}
			],
			"name": "IsBlacklisted",
			"type": "error"
		},
		{
			"inputs": [
				{
					"internalType": "address",
					"name": "account",
					"type": "address"
				},
				{
					"internalType": "string",
					"name": "reason",
					"type": "string"
				}
			],
			"name": "IsFrozen",
			"type": "error"
		},
		{
			"inputs": [
				{
					"internalType": "uint256",
					"name": "provided",
					"type": "uint256"
				},
				{
					"internalType": "uint256",
					"name": "minimum",
					"type": "uint256"
				}
			],
			"name": "LockDurationTooShort",
			"type": "error"
		},
		{
			"inputs": [],
			"name": "NotInitializing",
			"type": "error"
		},
		{
			"inputs": [
				{
					"internalType": "uint256",
					"name": "tokenId",
					"type": "uint256"
				}
			],
			"name": "NotStakeOwner",
			"type": "error"
		},
		{
			"inputs": [],
			"name": "ReentrancyGuardReentrantCall",
			"type": "error"
		},
		{
			"inputs": [
				{
					"internalType": "address",
					"name": "token",
					"type": "address"
				}
			],
			"name": "SafeERC20FailedOperation",
			"type": "error"
		},
		{
			"inputs": [
				{
					"internalType": "uint256",
					"name": "tokenId",
					"type": "uint256"
				}
			],
			"name": "StakeAlreadyWithdrawn",
			"type": "error"
		},
		{
			"inputs": [
				{
					"internalType": "address",
					"name": "token",
					"type": "address"
				}
			],
			"name": "TokenAlreadyWhitelisted",
			"type": "error"
		},
		{
			"inputs": [
				{
					"internalType": "address",
					"name": "token",
					"type": "address"
				}
			],
			"name": "TokenNotWhitelisted",
			"type": "error"
		},
		{
			"anonymous": false,
			"inputs": [
				{
					"indexed": true,
					"internalType": "address",
					"name": "owner",
					"type": "address"
				},
				{
					"indexed": true,
					"internalType": "address",
					"name": "approved",
					"type": "address"
				},
				{
					"indexed": true,
					"internalType": "uint256",
					"name": "tokenId",
					"type": "uint256"
				}
			],
			"name": "Approval",
			"type": "event"
		},
		{
			"anonymous": false,
			"inputs": [
				{
					"indexed": true,
					"internalType": "address",
					"name": "owner",
					"type": "address"
				},
				{
					"indexed": true,
					"internalType": "address",
					"name": "operator",
					"type": "address"
				},
				{
					"indexed": false,
					"internalType": "bool",
					"name": "approved",
					"type": "bool"
				}
			],
			"name": "ApprovalForAll",
			"type": "event"
		},
		{
			"anonymous": false,
			"inputs": [
				{
					"indexed": true,
					"internalType": "address",
					"name": "account",
					"type": "address"
				}
			],
			"name": "BlacklistAdded",
			"type": "event"
		},
		{
			"anonymous": false,
			"inputs": [
				{
					"indexed": true,
					"internalType": "address",
					"name": "account",
					"type": "address"
				}
			],
			"name": "BlacklistRemoved",
			"type": "event"
		},
		{
			"anonymous": false,
			"inputs": [
				{
					"indexed": false,
					"internalType": "uint256",
					"name": "fee",
					"type": "uint256"
				}
			],
			"name": "ClaimFeeETHSet",
			"type": "event"
		},
		{
			"anonymous": false,
			"inputs": [
				{
					"indexed": true,
					"internalType": "address",
					"name": "caller",
					"type": "address"
				},
				{
					"indexed": true,
					"internalType": "address",
					"name": "token",
					"type": "address"
				},
				{
					"indexed": true,
					"internalType": "address",
					"name": "recipient",
					"type": "address"
				},
				{
					"indexed": false,
					"internalType": "uint256",
					"name": "amount",
					"type": "uint256"
				}
			],
			"name": "EmergencyWithdrawERC20",
			"type": "event"
		},
		{
			"anonymous": false,
			"inputs": [
				{
					"indexed": true,
					"internalType": "address",
					"name": "caller",
					"type": "address"
				},
				{
					"indexed": true,
					"internalType": "address",
					"name": "token",
					"type": "address"
				},
				{
					"indexed": true,
					"internalType": "address",
					"name": "recipient",
					"type": "address"
				},
				{
					"indexed": false,
					"internalType": "uint256",
					"name": "tokenId",
					"type": "uint256"
				}
			],
			"name": "EmergencyWithdrawERC721",
			"type": "event"
		},
		{
			"anonymous": false,
			"inputs": [
				{
					"indexed": true,
					"internalType": "address",
					"name": "caller",
					"type": "address"
				},
				{
					"indexed": true,
					"internalType": "address",
					"name": "recipient",
					"type": "address"
				},
				{
					"indexed": false,
					"internalType": "uint256",
					"name": "amount",
					"type": "uint256"
				}
			],
			"name": "EmergencyWithdrawETH",
			"type": "event"
		},
		{
			"anonymous": false,
			"inputs": [
				{
					"indexed": true,
					"internalType": "address",
					"name": "feeReceiver",
					"type": "address"
				}
			],
			"name": "FeeReceiverSet",
			"type": "event"
		},
		{
			"anonymous": false,
			"inputs": [
				{
					"indexed": false,
					"internalType": "uint64",
					"name": "version",
					"type": "uint64"
				}
			],
			"name": "Initialized",
			"type": "event"
		},
		{
			"anonymous": false,
			"inputs": [
				{
					"indexed": false,
					"internalType": "uint256",
					"name": "duration",
					"type": "uint256"
				}
			],
			"name": "MinimumLockDurationSet",
			"type": "event"
		},
		{
			"anonymous": false,
			"inputs": [
				{
					"indexed": false,
					"internalType": "address",
					"name": "account",
					"type": "address"
				}
			],
			"name": "Paused",
			"type": "event"
		},
		{
			"anonymous": false,
			"inputs": [
				{
					"indexed": true,
					"internalType": "address",
					"name": "token",
					"type": "address"
				},
				{
					"indexed": false,
					"internalType": "uint256",
					"name": "amount",
					"type": "uint256"
				},
				{
					"indexed": false,
					"internalType": "uint256",
					"name": "duration",
					"type": "uint256"
				},
				{
					"indexed": false,
					"internalType": "uint256",
					"name": "rewardRate",
					"type": "uint256"
				}
			],
			"name": "RewardAdded",
			"type": "event"
		},
		{
			"anonymous": false,
			"inputs": [
				{
					"indexed": true,
					"internalType": "address",
					"name": "user",
					"type": "address"
				},
				{
					"indexed": true,
					"internalType": "address",
					"name": "token",
					"type": "address"
				},
				{
					"indexed": false,
					"internalType": "uint256",
					"name": "reward",
					"type": "uint256"
				}
			],
			"name": "RewardPaid",
			"type": "event"
		},
		{
			"anonymous": false,
			"inputs": [
				{
					"indexed": true,
					"internalType": "address",
					"name": "token",
					"type": "address"
				}
			],
			"name": "RewardTokenAdded",
			"type": "event"
		},
		{
			"anonymous": false,
			"inputs": [
				{
					"indexed": true,
					"internalType": "address",
					"name": "token",
					"type": "address"
				}
			],
			"name": "RewardTokenRemoved",
			"type": "event"
		},
		{
			"anonymous": false,
			"inputs": [
				{
					"indexed": true,
					"internalType": "bytes32",
					"name": "role",
					"type": "bytes32"
				},
				{
					"indexed": true,
					"internalType": "bytes32",
					"name": "previousAdminRole",
					"type": "bytes32"
				},
				{
					"indexed": true,
					"internalType": "bytes32",
					"name": "newAdminRole",
					"type": "bytes32"
				}
			],
			"name": "RoleAdminChanged",
			"type": "event"
		},
		{
			"anonymous": false,
			"inputs": [
				{
					"indexed": true,
					"internalType": "bytes32",
					"name": "role",
					"type": "bytes32"
				},
				{
					"indexed": true,
					"internalType": "address",
					"name": "account",
					"type": "address"
				},
				{
					"indexed": true,
					"internalType": "address",
					"name": "sender",
					"type": "address"
				}
			],
			"name": "RoleGranted",
			"type": "event"
		},
		{
			"anonymous": false,
			"inputs": [
				{
					"indexed": true,
					"internalType": "bytes32",
					"name": "role",
					"type": "bytes32"
				},
				{
					"indexed": true,
					"internalType": "address",
					"name": "account",
					"type": "address"
				},
				{
					"indexed": true,
					"internalType": "address",
					"name": "sender",
					"type": "address"
				}
			],
			"name": "RoleRevoked",
			"type": "event"
		},
		{
			"anonymous": false,
			"inputs": [
				{
					"indexed": true,
					"internalType": "address",
					"name": "account",
					"type": "address"
				},
				{
					"indexed": false,
					"internalType": "uint256",
					"name": "amount",
					"type": "uint256"
				}
			],
			"name": "StakeReturnedDueToBlacklist",
			"type": "event"
		},
		{
			"anonymous": false,
			"inputs": [
				{
					"indexed": true,
					"internalType": "address",
					"name": "user",
					"type": "address"
				},
				{
					"indexed": true,
					"internalType": "uint256",
					"name": "tokenId",
					"type": "uint256"
				},
				{
					"indexed": false,
					"internalType": "uint256",
					"name": "amount",
					"type": "uint256"
				},
				{
					"indexed": false,
					"internalType": "uint256",
					"name": "lock",
					"type": "uint256"
				}
			],
			"name": "Staked",
			"type": "event"
		},
		{
			"anonymous": false,
			"inputs": [
				{
					"indexed": true,
					"internalType": "address",
					"name": "from",
					"type": "address"
				},
				{
					"indexed": true,
					"internalType": "address",
					"name": "to",
					"type": "address"
				},
				{
					"indexed": true,
					"internalType": "uint256",
					"name": "tokenId",
					"type": "uint256"
				}
			],
			"name": "Transfer",
			"type": "event"
		},
		{
			"anonymous": false,
			"inputs": [
				{
					"indexed": false,
					"internalType": "address",
					"name": "account",
					"type": "address"
				}
			],
			"name": "Unpaused",
			"type": "event"
		},
		{
			"anonymous": false,
			"inputs": [
				{
					"indexed": true,
					"internalType": "address",
					"name": "account",
					"type": "address"
				},
				{
					"indexed": false,
					"internalType": "uint256",
					"name": "timestamp",
					"type": "uint256"
				}
			],
			"name": "WalletFrozen",
			"type": "event"
		},
		{
			"anonymous": false,
			"inputs": [
				{
					"indexed": true,
					"internalType": "address",
					"name": "account",
					"type": "address"
				},
				{
					"indexed": false,
					"internalType": "uint256",
					"name": "timestamp",
					"type": "uint256"
				}
			],
			"name": "WalletUnfrozen",
			"type": "event"
		},
		{
			"anonymous": false,
			"inputs": [
				{
					"indexed": true,
					"internalType": "address",
					"name": "user",
					"type": "address"
				},
				{
					"indexed": true,
					"internalType": "uint256",
					"name": "tokenId",
					"type": "uint256"
				},
				{
					"indexed": false,
					"internalType": "uint256",
					"name": "amount",
					"type": "uint256"
				}
			],
			"name": "Withdrawn",
			"type": "event"
		},
		{
			"inputs": [],
			"name": "ADMIN_ROLE",
			"outputs": [
				{
					"internalType": "bytes32",
					"name": "",
					"type": "bytes32"
				}
			],
			"stateMutability": "view",
			"type": "function"
		},
		{
			"inputs": [],
			"name": "DEFAULT_ADMIN_ROLE",
			"outputs": [
				{
					"internalType": "bytes32",
					"name": "",
					"type": "bytes32"
				}
			],
			"stateMutability": "view",
			"type": "function"
		},
		{
			"inputs": [],
			"name": "FREEZER_ROLE",
			"outputs": [
				{
					"internalType": "bytes32",
					"name": "",
					"type": "bytes32"
				}
			],
			"stateMutability": "view",
			"type": "function"
		},
		{
			"inputs": [],
			"name": "PAUSER_ROLE",
			"outputs": [
				{
					"internalType": "bytes32",
					"name": "",
					"type": "bytes32"
				}
			],
			"stateMutability": "view",
			"type": "function"
		},
		{
			"inputs": [
				{
					"internalType": "address",
					"name": "token",
					"type": "address"
				}
			],
			"name": "addRewardToken",
			"outputs": [],
			"stateMutability": "nonpayable",
			"type": "function"
		},
		{
			"inputs": [
				{
					"internalType": "address",
					"name": "to",
					"type": "address"
				},
				{
					"internalType": "uint256",
					"name": "tokenId",
					"type": "uint256"
				}
			],
			"name": "approve",
			"outputs": [],
			"stateMutability": "nonpayable",
			"type": "function"
		},
		{
			"inputs": [
				{
					"internalType": "address",
					"name": "owner",
					"type": "address"
				}
			],
			"name": "balanceOf",
			"outputs": [
				{
					"internalType": "uint256",
					"name": "",
					"type": "uint256"
				}
			],
			"stateMutability": "view",
			"type": "function"
		},
		{
			"inputs": [
				{
					"internalType": "address",
					"name": "account",
					"type": "address"
				}
			],
			"name": "balanceOfStaked",
			"outputs": [
				{
					"internalType": "uint256",
					"name": "",
					"type": "uint256"
				}
			],
			"stateMutability": "view",
			"type": "function"
		},
		{
			"inputs": [
				{
					"internalType": "address",
					"name": "",
					"type": "address"
				}
			],
			"name": "blacklist",
			"outputs": [
				{
					"internalType": "bool",
					"name": "",
					"type": "bool"
				}
			],
			"stateMutability": "view",
			"type": "function"
		},
		{
			"inputs": [
				{
					"internalType": "address",
					"name": "account",
					"type": "address"
				}
			],
			"name": "blacklistWallet",
			"outputs": [],
			"stateMutability": "nonpayable",
			"type": "function"
		},
		{
			"inputs": [],
			"name": "claimFeeETH",
			"outputs": [
				{
					"internalType": "uint256",
					"name": "",
					"type": "uint256"
				}
			],
			"stateMutability": "view",
			"type": "function"
		},
		{
			"inputs": [
				{
					"internalType": "address",
					"name": "account",
					"type": "address"
				}
			],
			"name": "earned",
			"outputs": [
				{
					"internalType": "uint256",
					"name": "",
					"type": "uint256"
				}
			],
			"stateMutability": "view",
			"type": "function"
		},
		{
			"inputs": [
				{
					"internalType": "address",
					"name": "account",
					"type": "address"
				},
				{
					"internalType": "address",
					"name": "token",
					"type": "address"
				}
			],
			"name": "earned",
			"outputs": [
				{
					"internalType": "uint256",
					"name": "",
					"type": "uint256"
				}
			],
			"stateMutability": "view",
			"type": "function"
		},
		{
			"inputs": [
				{
					"internalType": "address",
					"name": "account",
					"type": "address"
				}
			],
			"name": "earnedAll",
			"outputs": [
				{
					"internalType": "address[]",
					"name": "tokens",
					"type": "address[]"
				},
				{
					"internalType": "uint256[]",
					"name": "amounts",
					"type": "uint256[]"
				}
			],
			"stateMutability": "view",
			"type": "function"
		},
		{
			"inputs": [
				{
					"internalType": "address",
					"name": "tokenAddress",
					"type": "address"
				},
				{
					"internalType": "address",
					"name": "recipient",
					"type": "address"
				},
				{
					"internalType": "uint256",
					"name": "amount",
					"type": "uint256"
				}
			],
			"name": "emergencyWithdrawERC20",
			"outputs": [],
			"stateMutability": "nonpayable",
			"type": "function"
		},
		{
			"inputs": [
				{
					"internalType": "address",
					"name": "tokenAddress",
					"type": "address"
				},
				{
					"internalType": "address",
					"name": "recipient",
					"type": "address"
				},
				{
					"internalType": "uint256",
					"name": "tokenId",
					"type": "uint256"
				}
			],
			"name": "emergencyWithdrawERC721",
			"outputs": [],
			"stateMutability": "nonpayable",
			"type": "function"
		},
		{
			"inputs": [
				{
					"internalType": "address payable",
					"name": "recipient",
					"type": "address"
				},
				{
					"internalType": "uint256",
					"name": "amount",
					"type": "uint256"
				}
			],
			"name": "emergencyWithdrawETH",
			"outputs": [],
			"stateMutability": "nonpayable",
			"type": "function"
		},
		{
			"inputs": [],
			"name": "feeReceiver",
			"outputs": [
				{
					"internalType": "address",
					"name": "",
					"type": "address"
				}
			],
			"stateMutability": "view",
			"type": "function"
		},
		{
			"inputs": [
				{
					"internalType": "address",
					"name": "account",
					"type": "address"
				}
			],
			"name": "freezeWallet",
			"outputs": [],
			"stateMutability": "nonpayable",
			"type": "function"
		},
		{
			"inputs": [
				{
					"internalType": "address",
					"name": "",
					"type": "address"
				}
			],
			"name": "frozen",
			"outputs": [
				{
					"internalType": "bool",
					"name": "",
					"type": "bool"
				}
			],
			"stateMutability": "view",
			"type": "function"
		},
		{
			"inputs": [
				{
					"internalType": "address",
					"name": "token",
					"type": "address"
				}
			],
			"name": "getActiveRewardRate",
			"outputs": [
				{
					"internalType": "uint256",
					"name": "",
					"type": "uint256"
				}
			],
			"stateMutability": "view",
			"type": "function"
		},
		{
			"inputs": [],
			"name": "getAllRewards",
			"outputs": [],
			"stateMutability": "payable",
			"type": "function"
		},
		{
			"inputs": [
				{
					"internalType": "uint256",
					"name": "tokenId",
					"type": "uint256"
				}
			],
			"name": "getApproved",
			"outputs": [
				{
					"internalType": "address",
					"name": "",
					"type": "address"
				}
			],
			"stateMutability": "view",
			"type": "function"
		},
		{
			"inputs": [
				{
					"internalType": "address",
					"name": "account",
					"type": "address"
				}
			],
			"name": "getLockedBalance",
			"outputs": [
				{
					"internalType": "uint256",
					"name": "",
					"type": "uint256"
				}
			],
			"stateMutability": "view",
			"type": "function"
		},
		{
			"inputs": [],
			"name": "getRewardForDuration",
			"outputs": [
				{
					"internalType": "uint256",
					"name": "",
					"type": "uint256"
				}
			],
			"stateMutability": "view",
			"type": "function"
		},
		{
			"inputs": [
				{
					"internalType": "address",
					"name": "token",
					"type": "address"
				}
			],
			"name": "getRewardForToken",
			"outputs": [],
			"stateMutability": "payable",
			"type": "function"
		},
		{
			"inputs": [
				{
					"internalType": "address",
					"name": "token",
					"type": "address"
				}
			],
			"name": "getRewardSchedules",
			"outputs": [
				{
					"components": [
						{
							"internalType": "uint256",
							"name": "rewardRate",
							"type": "uint256"
						},
						{
							"internalType": "uint256",
							"name": "startTime",
							"type": "uint256"
						},
						{
							"internalType": "uint256",
							"name": "endTime",
							"type": "uint256"
						},
						{
							"internalType": "uint256",
							"name": "totalSupplied",
							"type": "uint256"
						},
						{
							"internalType": "uint256",
							"name": "pausedAt",
							"type": "uint256"
						},
						{
							"internalType": "uint256",
							"name": "totalPausedTime",
							"type": "uint256"
						}
					],
					"internalType": "struct AviatorStakingPool.RewardSchedule[]",
					"name": "",
					"type": "tuple[]"
				}
			],
			"stateMutability": "view",
			"type": "function"
		},
		{
			"inputs": [
				{
					"internalType": "bytes32",
					"name": "role",
					"type": "bytes32"
				}
			],
			"name": "getRoleAdmin",
			"outputs": [
				{
					"internalType": "bytes32",
					"name": "",
					"type": "bytes32"
				}
			],
			"stateMutability": "view",
			"type": "function"
		},
		{
			"inputs": [
				{
					"internalType": "bytes32",
					"name": "role",
					"type": "bytes32"
				},
				{
					"internalType": "uint256",
					"name": "index",
					"type": "uint256"
				}
			],
			"name": "getRoleMember",
			"outputs": [
				{
					"internalType": "address",
					"name": "",
					"type": "address"
				}
			],
			"stateMutability": "view",
			"type": "function"
		},
		{
			"inputs": [
				{
					"internalType": "bytes32",
					"name": "role",
					"type": "bytes32"
				}
			],
			"name": "getRoleMemberCount",
			"outputs": [
				{
					"internalType": "uint256",
					"name": "",
					"type": "uint256"
				}
			],
			"stateMutability": "view",
			"type": "function"
		},
		{
			"inputs": [
				{
					"internalType": "bytes32",
					"name": "role",
					"type": "bytes32"
				}
			],
			"name": "getRoleMembers",
			"outputs": [
				{
					"internalType": "address[]",
					"name": "",
					"type": "address[]"
				}
			],
			"stateMutability": "view",
			"type": "function"
		},
		{
			"inputs": [
				{
					"internalType": "uint256",
					"name": "tokenId",
					"type": "uint256"
				}
			],
			"name": "getStakePosition",
			"outputs": [
				{
					"components": [
						{
							"internalType": "uint256",
							"name": "amount",
							"type": "uint256"
						},
						{
							"internalType": "uint256",
							"name": "unlockTime",
							"type": "uint256"
						},
						{
							"internalType": "uint256",
							"name": "stakeTime",
							"type": "uint256"
						},
						{
							"internalType": "bool",
							"name": "withdrawn",
							"type": "bool"
						}
					],
					"internalType": "struct AviatorStakingPool.StakeNFT",
					"name": "",
					"type": "tuple"
				}
			],
			"stateMutability": "view",
			"type": "function"
		},
		{
			"inputs": [
				{
					"internalType": "address",
					"name": "account",
					"type": "address"
				}
			],
			"name": "getUnlockedBalance",
			"outputs": [
				{
					"internalType": "uint256",
					"name": "",
					"type": "uint256"
				}
			],
			"stateMutability": "view",
			"type": "function"
		},
		{
			"inputs": [
				{
					"internalType": "address",
					"name": "account",
					"type": "address"
				}
			],
			"name": "getUserStakeIds",
			"outputs": [
				{
					"internalType": "uint256[]",
					"name": "",
					"type": "uint256[]"
				}
			],
			"stateMutability": "view",
			"type": "function"
		},
		{
			"inputs": [
				{
					"internalType": "address",
					"name": "account",
					"type": "address"
				}
			],
			"name": "getUserStakePositions",
			"outputs": [
				{
					"components": [
						{
							"internalType": "uint256",
							"name": "amount",
							"type": "uint256"
						},
						{
							"internalType": "uint256",
							"name": "unlockTime",
							"type": "uint256"
						},
						{
							"internalType": "uint256",
							"name": "stakeTime",
							"type": "uint256"
						},
						{
							"internalType": "bool",
							"name": "withdrawn",
							"type": "bool"
						}
					],
					"internalType": "struct AviatorStakingPool.StakeNFT[]",
					"name": "",
					"type": "tuple[]"
				}
			],
			"stateMutability": "view",
			"type": "function"
		},
		{
			"inputs": [],
			"name": "getWhitelistedRewardTokens",
			"outputs": [
				{
					"internalType": "address[]",
					"name": "",
					"type": "address[]"
				}
			],
			"stateMutability": "view",
			"type": "function"
		},
		{
			"inputs": [
				{
					"internalType": "bytes32",
					"name": "role",
					"type": "bytes32"
				},
				{
					"internalType": "address",
					"name": "account",
					"type": "address"
				}
			],
			"name": "grantRole",
			"outputs": [],
			"stateMutability": "nonpayable",
			"type": "function"
		},
		{
			"inputs": [
				{
					"internalType": "bytes32",
					"name": "role",
					"type": "bytes32"
				},
				{
					"internalType": "address",
					"name": "account",
					"type": "address"
				}
			],
			"name": "hasRole",
			"outputs": [
				{
					"internalType": "bool",
					"name": "",
					"type": "bool"
				}
			],
			"stateMutability": "view",
			"type": "function"
		},
		{
			"inputs": [
				{
					"internalType": "address",
					"name": "_admin",
					"type": "address"
				},
				{
					"internalType": "address",
					"name": "_stakingToken",
					"type": "address"
				},
				{
					"internalType": "address",
					"name": "_vault",
					"type": "address"
				}
			],
			"name": "initialize",
			"outputs": [],
			"stateMutability": "nonpayable",
			"type": "function"
		},
		{
			"inputs": [
				{
					"internalType": "address",
					"name": "owner",
					"type": "address"
				},
				{
					"internalType": "address",
					"name": "operator",
					"type": "address"
				}
			],
			"name": "isApprovedForAll",
			"outputs": [
				{
					"internalType": "bool",
					"name": "",
					"type": "bool"
				}
			],
			"stateMutability": "view",
			"type": "function"
		},
		{
			"inputs": [
				{
					"internalType": "address",
					"name": "account",
					"type": "address"
				}
			],
			"name": "isBlacklisted",
			"outputs": [
				{
					"internalType": "bool",
					"name": "",
					"type": "bool"
				}
			],
			"stateMutability": "view",
			"type": "function"
		},
		{
			"inputs": [
				{
					"internalType": "address",
					"name": "account",
					"type": "address"
				}
			],
			"name": "isFrozen",
			"outputs": [
				{
					"internalType": "bool",
					"name": "",
					"type": "bool"
				}
			],
			"stateMutability": "view",
			"type": "function"
		},
		{
			"inputs": [],
			"name": "lastTotalSupplyZeroTime",
			"outputs": [
				{
					"internalType": "uint256",
					"name": "",
					"type": "uint256"
				}
			],
			"stateMutability": "view",
			"type": "function"
		},
		{
			"inputs": [
				{
					"internalType": "address",
					"name": "",
					"type": "address"
				}
			],
			"name": "lastUpdateTimePerToken",
			"outputs": [
				{
					"internalType": "uint256",
					"name": "",
					"type": "uint256"
				}
			],
			"stateMutability": "view",
			"type": "function"
		},
		{
			"inputs": [],
			"name": "minimumLockDuration",
			"outputs": [
				{
					"internalType": "uint256",
					"name": "",
					"type": "uint256"
				}
			],
			"stateMutability": "view",
			"type": "function"
		},
		{
			"inputs": [],
			"name": "name",
			"outputs": [
				{
					"internalType": "string",
					"name": "",
					"type": "string"
				}
			],
			"stateMutability": "view",
			"type": "function"
		},
		{
			"inputs": [],
			"name": "nextTokenId",
			"outputs": [
				{
					"internalType": "uint256",
					"name": "",
					"type": "uint256"
				}
			],
			"stateMutability": "view",
			"type": "function"
		},
		{
			"inputs": [
				{
					"internalType": "uint256",
					"name": "tokenId",
					"type": "uint256"
				}
			],
			"name": "ownerOf",
			"outputs": [
				{
					"internalType": "address",
					"name": "",
					"type": "address"
				}
			],
			"stateMutability": "view",
			"type": "function"
		},
		{
			"inputs": [],
			"name": "pause",
			"outputs": [],
			"stateMutability": "nonpayable",
			"type": "function"
		},
		{
			"inputs": [],
			"name": "paused",
			"outputs": [
				{
					"internalType": "bool",
					"name": "",
					"type": "bool"
				}
			],
			"stateMutability": "view",
			"type": "function"
		},
		{
			"inputs": [
				{
					"internalType": "address",
					"name": "token",
					"type": "address"
				}
			],
			"name": "removeRewardToken",
			"outputs": [],
			"stateMutability": "nonpayable",
			"type": "function"
		},
		{
			"inputs": [
				{
					"internalType": "bytes32",
					"name": "role",
					"type": "bytes32"
				},
				{
					"internalType": "address",
					"name": "callerConfirmation",
					"type": "address"
				}
			],
			"name": "renounceRole",
			"outputs": [],
			"stateMutability": "nonpayable",
			"type": "function"
		},
		{
			"inputs": [
				{
					"internalType": "bytes32",
					"name": "role",
					"type": "bytes32"
				},
				{
					"internalType": "address",
					"name": "account",
					"type": "address"
				}
			],
			"name": "revokeRole",
			"outputs": [],
			"stateMutability": "nonpayable",
			"type": "function"
		},
		{
			"inputs": [
				{
					"internalType": "address",
					"name": "token",
					"type": "address"
				}
			],
			"name": "rewardPerToken",
			"outputs": [
				{
					"internalType": "uint256",
					"name": "",
					"type": "uint256"
				}
			],
			"stateMutability": "view",
			"type": "function"
		},
		{
			"inputs": [
				{
					"internalType": "address",
					"name": "",
					"type": "address"
				}
			],
			"name": "rewardPerTokenStoredPerToken",
			"outputs": [
				{
					"internalType": "uint256",
					"name": "",
					"type": "uint256"
				}
			],
			"stateMutability": "view",
			"type": "function"
		},
		{
			"inputs": [
				{
					"internalType": "address",
					"name": "",
					"type": "address"
				},
				{
					"internalType": "uint256",
					"name": "",
					"type": "uint256"
				}
			],
			"name": "rewardSchedules",
			"outputs": [
				{
					"internalType": "uint256",
					"name": "rewardRate",
					"type": "uint256"
				},
				{
					"internalType": "uint256",
					"name": "startTime",
					"type": "uint256"
				},
				{
					"internalType": "uint256",
					"name": "endTime",
					"type": "uint256"
				},
				{
					"internalType": "uint256",
					"name": "totalSupplied",
					"type": "uint256"
				},
				{
					"internalType": "uint256",
					"name": "pausedAt",
					"type": "uint256"
				},
				{
					"internalType": "uint256",
					"name": "totalPausedTime",
					"type": "uint256"
				}
			],
			"stateMutability": "view",
			"type": "function"
		},
		{
			"inputs": [
				{
					"internalType": "uint256",
					"name": "",
					"type": "uint256"
				}
			],
			"name": "rewardTokensList",
			"outputs": [
				{
					"internalType": "address",
					"name": "",
					"type": "address"
				}
			],
			"stateMutability": "view",
			"type": "function"
		},
		{
			"inputs": [
				{
					"internalType": "address",
					"name": "",
					"type": "address"
				},
				{
					"internalType": "address",
					"name": "",
					"type": "address"
				}
			],
			"name": "rewardsPerToken",
			"outputs": [
				{
					"internalType": "uint256",
					"name": "",
					"type": "uint256"
				}
			],
			"stateMutability": "view",
			"type": "function"
		},
		{
			"inputs": [
				{
					"internalType": "address",
					"name": "from",
					"type": "address"
				},
				{
					"internalType": "address",
					"name": "to",
					"type": "address"
				},
				{
					"internalType": "uint256",
					"name": "tokenId",
					"type": "uint256"
				}
			],
			"name": "safeTransferFrom",
			"outputs": [],
			"stateMutability": "nonpayable",
			"type": "function"
		},
		{
			"inputs": [
				{
					"internalType": "address",
					"name": "from",
					"type": "address"
				},
				{
					"internalType": "address",
					"name": "to",
					"type": "address"
				},
				{
					"internalType": "uint256",
					"name": "tokenId",
					"type": "uint256"
				},
				{
					"internalType": "bytes",
					"name": "data",
					"type": "bytes"
				}
			],
			"name": "safeTransferFrom",
			"outputs": [],
			"stateMutability": "nonpayable",
			"type": "function"
		},
		{
			"inputs": [
				{
					"internalType": "address",
					"name": "operator",
					"type": "address"
				},
				{
					"internalType": "bool",
					"name": "approved",
					"type": "bool"
				}
			],
			"name": "setApprovalForAll",
			"outputs": [],
			"stateMutability": "nonpayable",
			"type": "function"
		},
		{
			"inputs": [
				{
					"internalType": "uint256",
					"name": "_claimFeeETH",
					"type": "uint256"
				}
			],
			"name": "setClaimFeeETH",
			"outputs": [],
			"stateMutability": "nonpayable",
			"type": "function"
		},
		{
			"inputs": [
				{
					"internalType": "address",
					"name": "_feeReceiver",
					"type": "address"
				}
			],
			"name": "setFeeReceiver",
			"outputs": [],
			"stateMutability": "nonpayable",
			"type": "function"
		},
		{
			"inputs": [
				{
					"internalType": "uint256",
					"name": "_minimumLockDuration",
					"type": "uint256"
				}
			],
			"name": "setMinimumLockDuration",
			"outputs": [],
			"stateMutability": "nonpayable",
			"type": "function"
		},
		{
			"inputs": [
				{
					"internalType": "uint256",
					"name": "amount",
					"type": "uint256"
				}
			],
			"name": "stakeTokens",
			"outputs": [
				{
					"internalType": "uint256",
					"name": "",
					"type": "uint256"
				}
			],
			"stateMutability": "nonpayable",
			"type": "function"
		},
		{
			"inputs": [
				{
					"internalType": "uint256",
					"name": "amount",
					"type": "uint256"
				},
				{
					"internalType": "uint256",
					"name": "lock",
					"type": "uint256"
				}
			],
			"name": "stakeWithBonus",
			"outputs": [
				{
					"internalType": "uint256",
					"name": "",
					"type": "uint256"
				}
			],
			"stateMutability": "nonpayable",
			"type": "function"
		},
		{
			"inputs": [
				{
					"internalType": "uint256",
					"name": "",
					"type": "uint256"
				}
			],
			"name": "stakes",
			"outputs": [
				{
					"internalType": "uint256",
					"name": "amount",
					"type": "uint256"
				},
				{
					"internalType": "uint256",
					"name": "unlockTime",
					"type": "uint256"
				},
				{
					"internalType": "uint256",
					"name": "stakeTime",
					"type": "uint256"
				},
				{
					"internalType": "bool",
					"name": "withdrawn",
					"type": "bool"
				}
			],
			"stateMutability": "view",
			"type": "function"
		},
		{
			"inputs": [],
			"name": "stakingToken",
			"outputs": [
				{
					"internalType": "contract IERC20",
					"name": "",
					"type": "address"
				}
			],
			"stateMutability": "view",
			"type": "function"
		},
		{
			"inputs": [
				{
					"internalType": "address",
					"name": "token",
					"type": "address"
				},
				{
					"internalType": "uint256",
					"name": "amount",
					"type": "uint256"
				},
				{
					"internalType": "uint256",
					"name": "duration",
					"type": "uint256"
				}
			],
			"name": "supplyRewards",
			"outputs": [],
			"stateMutability": "nonpayable",
			"type": "function"
		},
		{
			"inputs": [
				{
					"internalType": "bytes4",
					"name": "interfaceId",
					"type": "bytes4"
				}
			],
			"name": "supportsInterface",
			"outputs": [
				{
					"internalType": "bool",
					"name": "",
					"type": "bool"
				}
			],
			"stateMutability": "view",
			"type": "function"
		},
		{
			"inputs": [],
			"name": "symbol",
			"outputs": [
				{
					"internalType": "string",
					"name": "",
					"type": "string"
				}
			],
			"stateMutability": "view",
			"type": "function"
		},
		{
			"inputs": [
				{
					"internalType": "uint256",
					"name": "index",
					"type": "uint256"
				}
			],
			"name": "tokenByIndex",
			"outputs": [
				{
					"internalType": "uint256",
					"name": "",
					"type": "uint256"
				}
			],
			"stateMutability": "view",
			"type": "function"
		},
		{
			"inputs": [
				{
					"internalType": "address",
					"name": "owner",
					"type": "address"
				},
				{
					"internalType": "uint256",
					"name": "index",
					"type": "uint256"
				}
			],
			"name": "tokenOfOwnerByIndex",
			"outputs": [
				{
					"internalType": "uint256",
					"name": "",
					"type": "uint256"
				}
			],
			"stateMutability": "view",
			"type": "function"
		},
		{
			"inputs": [
				{
					"internalType": "uint256",
					"name": "tokenId",
					"type": "uint256"
				}
			],
			"name": "tokenURI",
			"outputs": [
				{
					"internalType": "string",
					"name": "",
					"type": "string"
				}
			],
			"stateMutability": "view",
			"type": "function"
		},
		{
			"inputs": [],
			"name": "totalStakedAmount",
			"outputs": [
				{
					"internalType": "uint256",
					"name": "",
					"type": "uint256"
				}
			],
			"stateMutability": "view",
			"type": "function"
		},
		{
			"inputs": [],
			"name": "totalSupply",
			"outputs": [
				{
					"internalType": "uint256",
					"name": "",
					"type": "uint256"
				}
			],
			"stateMutability": "view",
			"type": "function"
		},
		{
			"inputs": [
				{
					"internalType": "address",
					"name": "from",
					"type": "address"
				},
				{
					"internalType": "address",
					"name": "to",
					"type": "address"
				},
				{
					"internalType": "uint256",
					"name": "tokenId",
					"type": "uint256"
				}
			],
			"name": "transferFrom",
			"outputs": [],
			"stateMutability": "nonpayable",
			"type": "function"
		},
		{
			"inputs": [
				{
					"internalType": "address",
					"name": "account",
					"type": "address"
				}
			],
			"name": "unblacklistWallet",
			"outputs": [],
			"stateMutability": "nonpayable",
			"type": "function"
		},
		{
			"inputs": [
				{
					"internalType": "address",
					"name": "account",
					"type": "address"
				}
			],
			"name": "unfreezeWallet",
			"outputs": [],
			"stateMutability": "nonpayable",
			"type": "function"
		},
		{
			"inputs": [],
			"name": "unpause",
			"outputs": [],
			"stateMutability": "nonpayable",
			"type": "function"
		},
		{
			"inputs": [
				{
					"internalType": "address",
					"name": "",
					"type": "address"
				},
				{
					"internalType": "address",
					"name": "",
					"type": "address"
				}
			],
			"name": "userRewardPerTokenPaidPerToken",
			"outputs": [
				{
					"internalType": "uint256",
					"name": "",
					"type": "uint256"
				}
			],
			"stateMutability": "view",
			"type": "function"
		},
		{
			"inputs": [],
			"name": "vault",
			"outputs": [
				{
					"internalType": "contract AviatorRewardsVault",
					"name": "",
					"type": "address"
				}
			],
			"stateMutability": "view",
			"type": "function"
		},
		{
			"inputs": [],
			"name": "wasTotalSupplyZero",
			"outputs": [
				{
					"internalType": "bool",
					"name": "",
					"type": "bool"
				}
			],
			"stateMutability": "view",
			"type": "function"
		},
		{
			"inputs": [
				{
					"internalType": "address",
					"name": "",
					"type": "address"
				}
			],
			"name": "whitelistedRewardTokens",
			"outputs": [
				{
					"internalType": "bool",
					"name": "",
					"type": "bool"
				}
			],
			"stateMutability": "view",
			"type": "function"
		},
		{
			"inputs": [
				{
					"internalType": "uint256",
					"name": "tokenId",
					"type": "uint256"
				}
			],
			"name": "withdraw",
			"outputs": [],
			"stateMutability": "nonpayable",
			"type": "function"
		},
		{
			"inputs": [],
			"name": "withdrawAllUnlocked",
			"outputs": [],
			"stateMutability": "nonpayable",
			"type": "function"
		},
		{
			"inputs": [
				{
					"internalType": "uint256[]",
					"name": "tokenIds",
					"type": "uint256[]"
				}
			],
			"name": "withdrawMultiple",
			"outputs": [],
			"stateMutability": "nonpayable",
			"type": "function"
		}
	]
}