{
	"data": {
		"bytecode": {
			"linkReferences": {},
			"object": "60c06040526001600e55348015610014575f5ffd5b50604051615668380380615668833981016040819052610033916102cf565b6040518060400160405280601681526020017f41766961746f72205374616b6520506f736974696f6e00000000000000000000815250604051806040016040528060098152602001681cdd1055924b53919560ba1b815250815f908161009991906103a7565b5060016100a682826103a7565b50506001600b55506001600160a01b0382811660805281811660a052626ebe006010556611c37937e08000601155601280546001600160a01b0319169185169190911790556100f55f8461017f565b506101207fa49807205ce4d355092ef5a8a18f56e8913cf4a201fbe287825b095693c217758461017f565b5061014b7f65d7a28e3265b37a6474929f336521b332c1681b933f6cb9f3376673440d862a8461017f565b506101767f92de27771f92d6942691d73358b3a4673e4880de8356f8f2cf452be87e02d3638461017f565b50505050610461565b5f8061018b84846101b5565b905080156101ac575f848152600d602052604090206101aa9084610260565b505b90505b92915050565b5f828152600c602090815260408083206001600160a01b038516845290915281205460ff16610259575f838152600c602090815260408083206001600160a01b03861684529091529020805460ff191660011790556102113390565b6001600160a01b0316826001600160a01b0316847f2f8788117e7eff1d82e926ec794901d17c78024a50270940304540a733656f0d60405160405180910390a45060016101af565b505f6101af565b5f6101ac836001600160a01b0384165f81815260018301602052604081205461025957508154600181810184555f8481526020808220909301849055845484825282860190935260409020919091556101af565b80516001600160a01b03811681146102ca575f5ffd5b919050565b5f5f5f606084860312156102e1575f5ffd5b6102ea846102b4565b92506102f8602085016102b4565b9150610306604085016102b4565b90509250925092565b634e487b7160e01b5f52604160045260245ffd5b600181811c9082168061033757607f821691505b60208210810361035557634e487b7160e01b5f52602260045260245ffd5b50919050565b601f8211156103a257805f5260205f20601f840160051c810160208510156103805750805b601f840160051c820191505b8181101561039f575f815560010161038c565b50505b505050565b81516001600160401b038111156103c0576103c061030f565b6103d4816103ce8454610323565b8461035b565b6020601f821160018114610406575f83156103ef5750848201515b5f19600385901b1c1916600184901b17845561039f565b5f84815260208120601f198516915b828110156104355787850151825560209485019460019092019101610415565b508482101561045257868401515f19600387901b60f8161c191681555b50505050600190811b01905550565b60805160a0516151bc6104ac5f395f818161100101528181611d6401528181612ad70152612f5801525f8181610a39015281816117df0152818161234a01526136e901526151bc5ff3fe6080604052600436106104a4575f3560e01c80637547c7a311610262578063c40868931161014a578063dc21fb76116100be578063ec35fde511610083578063ec35fde514610f65578063efdcd97414610f84578063f122977714610fa3578063f9f92be414610fc2578063fbfa77cf14610ff0578063fe575a8714611023575f5ffd5b8063dc21fb7614610e91578063e583983614610ebd578063e5b7910614610ef4578063e63ab1e914610f13578063e985e9c514610f46575f5ffd5b8063cc7045d71161010f578063cc7045d714610d99578063d051665014610dac578063d547741f14610dda578063d5a44f8614610df9578063d79e856714610e5e578063d8f6749514610e7d575f5ffd5b8063c408689314610d12578063c423be2514610d31578063c6ddd3a014610d46578063c87b56dd14610d5b578063ca15c87314610d7a575f5ffd5b80639e88ec10116101e1578063a3d046a8116101a6578063a3d046a814610c36578063a6eec45314610c4a578063b3f0067414610c69578063b72b85a114610c88578063b80e679314610ca7578063b88d4fde14610cf3575f5ffd5b80639e88ec1014610b8c5780639f00116914610bb9578063a217fddf14610bd8578063a22cb46514610beb578063a3246ad314610c0a575f5ffd5b806389e632071161022757806389e6320714610af95780639010d07c14610b2557806391d1485414610b4457806395d89b4114610b635780639d86b85014610b77575f5ffd5b80637547c7a314610a5b57806375794a3c14610a7a57806375b238fc14610a8f57806378a2574b14610aaf5780638456cb5914610ae5575f5ffd5b8063313da78f1161039057806355b8fb81116103045780635da9e169116102c95780635da9e1691461098d57806360f588b7146109ac57806362441bf6146109cb5780636352211e146109ea57806370a0823114610a0957806372f702f314610a28575f5ffd5b806355b8fb81146108f7578063567e98f9146109165780635b34bc411461092b5780635bfc82ad1461094a5780635c975abb14610976575f5ffd5b80633f4ba83a116103555780633f4ba83a1461085057806342842e0e1461086457806345b35f56146108835780634f6ccce71461088b5780635225f987146108aa57806354fd83c1146108d8575f5ffd5b8063313da78f146107ae5780633455f41e146107da57806336568abe146107f95780633d509c97146108185780633dd6aa4214610837575f5ffd5b806318160ddd1161042757806323b872dd116103ec57806323b872dd146106d9578063248a9ca3146106f857806328bcf07a146107265780632e1a7d4d146107515780632f2ff15d146107705780632f745c591461078f575f5ffd5b806318160ddd146106545780631b7447f1146106685780631c03e6cc146106875780631c1f78eb146106a6578063211dc32d146106ba575f5ffd5b8063081812fc1161046d578063081812fc1461057e578063095ea7b3146105b557806311b567b9146105d4578063129de5bf1461060a5780631422880614610629575f5ffd5b80628cc262146104a857806301ffc9a7146104da57806304f6c0ef1461050957806306a85f0f1461052a57806306fdde031461055d575b5f5ffd5b3480156104b3575f5ffd5b506104c76104c2366004614a26565b61105a565b6040519081526020015b60405180910390f35b3480156104e5575f5ffd5b506104f96104f4366004614a56565b6110a1565b60405190151581526020016104d1565b348015610514575f5ffd5b50610528610523366004614a71565b6110ab565b005b348015610535575f5ffd5b506104c77f92de27771f92d6942691d73358b3a4673e4880de8356f8f2cf452be87e02d36381565b348015610568575f5ffd5b5061057161115f565b6040516104d19190614ab6565b348015610589575f5ffd5b5061059d610598366004614a71565b6111ee565b6040516001600160a01b0390911681526020016104d1565b3480156105c0575f5ffd5b506105286105cf366004614ac8565b611215565b3480156105df575f5ffd5b506104c76105ee366004614af2565b601960209081525f928352604080842090915290825290205481565b348015610615575f5ffd5b506104c7610624366004614a26565b611224565b348015610634575f5ffd5b506104c7610643366004614a26565b60186020525f908152604090205481565b34801561065f575f5ffd5b506008546104c7565b348015610673575f5ffd5b506104c7610682366004614b29565b611297565b348015610692575f5ffd5b506105286106a1366004614a26565b611388565b3480156106b1575f5ffd5b506104c76114c8565b3480156106c5575f5ffd5b506104c76106d4366004614af2565b611518565b3480156106e4575f5ffd5b506105286106f3366004614b49565b61159f565b348015610703575f5ffd5b506104c7610712366004614a71565b5f908152600c602052604090206001015490565b348015610731575f5ffd5b506104c7610740366004614a26565b60176020525f908152604090205481565b34801561075c575f5ffd5b5061052861076b366004614a71565b611628565b34801561077b575f5ffd5b5061052861078a366004614b87565b61184d565b34801561079a575f5ffd5b506104c76107a9366004614ac8565b611871565b3480156107b9575f5ffd5b506107cd6107c8366004614a26565b6118d4565b6040516104d19190614be4565b3480156107e5575f5ffd5b506104c76107f4366004614a26565b611961565b348015610804575f5ffd5b50610528610813366004614b87565b6119c3565b348015610823575f5ffd5b50610528610832366004614a26565b6119fb565b348015610842575f5ffd5b50601e546104f99060ff1681565b34801561085b575f5ffd5b50610528611ba1565b34801561086f575f5ffd5b5061052861087e366004614b49565b611bd3565b610528611bed565b348015610896575f5ffd5b506104c76108a5366004614a71565b611e72565b3480156108b5575f5ffd5b506104f96108c4366004614a26565b60146020525f908152604090205460ff1681565b3480156108e3575f5ffd5b506105286108f2366004614a71565b611ec7565b348015610902575f5ffd5b50610528610911366004614b49565b611f13565b348015610921575f5ffd5b506104c7600f5481565b348015610936575f5ffd5b50610528610945366004614a26565b611f9b565b348015610955575f5ffd5b50610969610964366004614a26565b611ffb565b6040516104d19190614bf6565b348015610981575f5ffd5b50600a5460ff166104f9565b348015610998575f5ffd5b5061059d6109a7366004614a71565b6120a8565b3480156109b7575f5ffd5b506105286109c6366004614a26565b6120d0565b3480156109d6575f5ffd5b506105286109e5366004614a26565b6121ab565b3480156109f5575f5ffd5b5061059d610a04366004614a71565b6123ef565b348015610a14575f5ffd5b506104c7610a23366004614a26565b6123f9565b348015610a33575f5ffd5b5061059d7f000000000000000000000000000000000000000000000000000000000000000081565b348015610a66575f5ffd5b506104c7610a75366004614a71565b61243e565b348015610a85575f5ffd5b506104c7600e5481565b348015610a9a575f5ffd5b506104c75f5160206151675f395f51905f5281565b348015610aba575f5ffd5b506104c7610ac9366004614af2565b601a60209081525f928352604080842090915290825290205481565b348015610af0575f5ffd5b50610528612536565b348015610b04575f5ffd5b50610b18610b13366004614a71565b612568565b6040516104d19190614c72565b348015610b30575f5ffd5b5061059d610b3f366004614b29565b612634565b348015610b4f575f5ffd5b506104f9610b5e366004614b87565b61264b565b348015610b6e575f5ffd5b50610571612675565b348015610b82575f5ffd5b506104c760105481565b348015610b97575f5ffd5b50610bab610ba6366004614a26565b612684565b6040516104d1929190614cd8565b348015610bc4575f5ffd5b50610528610bd3366004614a26565b6127c6565b348015610be3575f5ffd5b506104c75f81565b348015610bf6575f5ffd5b50610528610c05366004614cfc565b61289d565b348015610c15575f5ffd5b50610c29610c24366004614a71565b6128a8565b6040516104d19190614d2c565b348015610c41575f5ffd5b506105286128c1565b348015610c55575f5ffd5b50610528610c64366004614d3e565b6129c3565b348015610c74575f5ffd5b5060125461059d906001600160a01b031681565b348015610c93575f5ffd5b50610528610ca2366004614b49565b612c03565b348015610cb2575f5ffd5b50610cc6610cc1366004614ac8565b612cd7565b604080519687526020870195909552938501929092526060840152608083015260a082015260c0016104d1565b348015610cfe575f5ffd5b50610528610d0d366004614d84565b612d27565b348015610d1d575f5ffd5b506104c7610d2c366004614a26565b612d3f565b348015610d3c575f5ffd5b506104c760115481565b348015610d51575f5ffd5b506104c7601d5481565b348015610d66575f5ffd5b50610571610d75366004614a71565b612da9565b348015610d85575f5ffd5b506104c7610d94366004614a71565b612e19565b610528610da7366004614a26565b612e2f565b348015610db7575f5ffd5b506104f9610dc6366004614a26565b601b6020525f908152604090205460ff1681565b348015610de5575f5ffd5b50610528610df4366004614b87565b61304b565b348015610e04575f5ffd5b50610e3c610e13366004614a71565b60136020525f908152604090208054600182015460028301546003909301549192909160ff1684565b60408051948552602085019390935291830152151560608201526080016104d1565b348015610e69575f5ffd5b50610528610e78366004614ac8565b61306f565b348015610e88575f5ffd5b50610c29613100565b348015610e9c575f5ffd5b50610eb0610eab366004614a26565b61315f565b6040516104d19190614e65565b348015610ec8575f5ffd5b506104f9610ed7366004614a26565b6001600160a01b03165f908152601b602052604090205460ff1690565b348015610eff575f5ffd5b50610528610f0e366004614eca565b61326a565b348015610f1e575f5ffd5b506104c77f65d7a28e3265b37a6474929f336521b332c1681b933f6cb9f3376673440d862a81565b348015610f51575f5ffd5b506104f9610f60366004614af2565b61329d565b348015610f70575f5ffd5b506104c7610f7f366004614a26565b6132ca565b348015610f8f575f5ffd5b50610528610f9e366004614a26565b613384565b348015610fae575f5ffd5b506104c7610fbd366004614a26565b61342d565b348015610fcd575f5ffd5b506104f9610fdc366004614a26565b601c6020525f908152604090205460ff1681565b348015610ffb575f5ffd5b5061059d7f000000000000000000000000000000000000000000000000000000000000000081565b34801561102e575f5ffd5b506104f961103d366004614a26565b6001600160a01b03165f908152601c602052604090205460ff1690565b6015545f901561109a576110948260155f8154811061107b5761107b614f3b565b5f918252602090912001546001600160a01b0316611518565b92915050565b505f919050565b5f611094826134b8565b5f5160206151675f395f51905f526110c2816134dc565b5f82116111225760405162461bcd60e51b8152602060048201526024808201527f4c6f636b206475726174696f6e206d75737420626520677265617465722074686044820152630616e20360e41b60648201526084015b60405180910390fd5b60108290556040518281527f0be752d502ead9f7f68ae425a37976abee08f7d72a78e613d13a0c1ac153915f906020015b60405180910390a15050565b60605f805461116d90614f4f565b80601f016020809104026020016040519081016040528092919081815260200182805461119990614f4f565b80156111e45780601f106111bb576101008083540402835291602001916111e4565b820191905f5260205f20905b8154815290600101906020018083116111c757829003601f168201915b5050505050905090565b5f6111f8826134e6565b505f828152600460205260409020546001600160a01b0316611094565b61122082823361351e565b5050565b5f5f61122f836123f9565b90505f805b8281101561128f575f6112478683611871565b5f81815260136020526040902060038101549192509060ff16158015611271575080600101544210155b156112855780546112829085614f9b565b93505b5050600101611234565b509392505050565b5f6112a061352b565b335f5b601554811015611303575f601582815481106112c1576112c1614f3b565b5f9182526020808320909101546001600160a01b0316808352601490915260409091205490915060ff16156112fa576112fa8184613555565b506001016112a3565b5061130c613646565b335f908152601b602052604090205460ff161561133e573360405163df681a9360e01b81526004016111199190614fae565b335f908152601c602052604090205460ff1615611370573360405163e34017e160e01b81526004016111199190615009565b61137b33858561366a565b9150506110946001600b55565b5f5160206151675f395f51905f5261139f816134dc565b6001600160a01b0382166113ed5760405162461bcd60e51b8152602060048201526015602482015274496e76616c696420746f6b656e206164647265737360581b6044820152606401611119565b6001600160a01b0382165f9081526014602052604090205460ff1615611431576040516301e2357560e01b81526001600160a01b0383166004820152602401611119565b6001600160a01b0382165f818152601460209081526040808320805460ff191660019081179091556015805491820190557f55f448fdea98c4d29eb340757ef0a66cd03dbb9538908a6a81d96026b71ec4750180546001600160a01b031916851790556017909152808220429055517ff3e4c2c64e71e6ba2eaab9a599bced62f9eb91d2cda610bf41aa8c80ff2cf8269190a25050565b6015545f90156115135761150160155f815481106114e8576114e8614f3b565b5f918252602090912001546001600160a01b03166132ca565b61150e906212750061504b565b905090565b505f90565b6001600160a01b038083165f818152601a60209081526040808320948616808452948252808320549383526019825280832094835293905291822054670de0b6b3a7640000906115678561342d565b6115719190615062565b61157a86611961565b611584919061504b565b61158e9190615075565b6115989190614f9b565b9392505050565b6001600160a01b0382166115c857604051633250574960e11b81525f6004820152602401611119565b5f6115d4838333613803565b9050836001600160a01b0316816001600160a01b031614611622576040516364283d7b60e01b81526001600160a01b0380861660048301526024820184905282166044820152606401611119565b50505050565b61163061352b565b335f5b601554811015611693575f6015828154811061165157611651614f3b565b5f9182526020808320909101546001600160a01b0316808352601490915260409091205490915060ff161561168a5761168a8184613555565b50600101611633565b5061169c613646565b335f908152601b602052604090205460ff16156116ce573360405163df681a9360e01b81526004016111199190614fae565b335f908152601c602052604090205460ff1615611700573360405163e34017e160e01b81526004016111199190615009565b3361170a836123ef565b6001600160a01b0316146117345760405163cda6dd4760e01b815260048101839052602401611119565b5f828152601360205260409020600381015460ff161561176a5760405163a810fad960e01b815260048101849052602401611119565b806001015442101561179e5760018101546040516310f2604160e01b81524260048201526024810191909152604401611119565b805460038201805460ff19166001179055600f80548291905f906117c3908490615062565b909155506117d2905084613926565b6118066001600160a01b037f000000000000000000000000000000000000000000000000000000000000000016338361395e565b604051818152849033907f92ccf450a286a957af52509bc1c9939d1a6a481783e142e41e2499f0bb66ebc69060200160405180910390a350505061184a6001600b55565b50565b5f828152600c6020526040902060010154611867816134dc565b61162283836139bd565b5f61187b836123f9565b82106118ac5760405163295f44f760e21b81526001600160a01b038416600482015260248101839052604401611119565b506001600160a01b03919091165f908152600660209081526040808320938352929052205490565b60605f6118e0836123f9565b90505f8167ffffffffffffffff8111156118fc576118fc614d70565b604051908082528060200260200182016040528015611925578160200160208202803683370190505b5090505f5b8281101561128f5761193c8582611871565b82828151811061194e5761194e614f3b565b602090810291909101015260010161192a565b5f5f61196c836123f9565b90505f805b8281101561128f575f6119848683611871565b5f8181526013602052604090206003015490915060ff166119ba575f818152601360205260409020546119b79084614f9b565b92505b50600101611971565b6001600160a01b03811633146119ec5760405163334bd91960e11b815260040160405180910390fd5b6119f682826139e8565b505050565b5f5160206151675f395f51905f52611a12816134dc565b6001600160a01b0382165f9081526014602052604090205460ff16611a555760405163751dff9760e11b81526001600160a01b0383166004820152602401611119565b6001600160a01b0382165f908152601460205260408120805460ff191690555b601554811015611b6957826001600160a01b031660158281548110611a9c57611a9c614f3b565b5f918252602090912001546001600160a01b031603611b615760158054611ac590600190615062565b81548110611ad557611ad5614f3b565b5f91825260209091200154601580546001600160a01b039092169183908110611b0057611b00614f3b565b905f5260205f20015f6101000a8154816001600160a01b0302191690836001600160a01b031602179055506015805480611b3c57611b3c615094565b5f8281526020902081015f1990810180546001600160a01b0319169055019055611b69565b600101611a75565b506040516001600160a01b038316907f66257bcef574219c04f7c05f7a1c78d599da10491294c92a5805c48b4cdf5009905f90a25050565b7f65d7a28e3265b37a6474929f336521b332c1681b933f6cb9f3376673440d862a611bcb816134dc565b61184a613a13565b6119f683838360405180602001604052805f815250612d27565b611bf561352b565b611bfd613646565b335f908152601b602052604090205460ff1615611c2f573360405163df681a9360e01b81526004016111199190614fae565b335f908152601c602052604090205460ff1615611c61573360405163e34017e160e01b81526004016111199190615009565b601154341015611cac5760405162461bcd60e51b8152602060048201526016602482015275496e73756666696369656e7420636c61696d2066656560501b6044820152606401611119565b5f805b601554811015611e1b575f60158281548110611ccd57611ccd614f3b565b5f9182526020808320909101546001600160a01b0316808352601490915260409091205490915060ff1615611e1257611d068133613555565b335f908152601a602090815260408083206001600160a01b03851684529091529020548015611e1057335f818152601a602090815260408083206001600160a01b038781168552925280832092909255905163cd8515cf60e01b81527f00000000000000000000000000000000000000000000000000000000000000009091169163cd8515cf91611d9e9190869086906004016150a8565b5f604051808303815f87803b158015611db5575f5ffd5b505af1158015611dc7573d5f5f3e3d5ffd5b50506040518381526001600160a01b03851692503391507f540798df468d7b23d11f156fdb954cb19ad414d150722a7b6d55ba369dea792e9060200160405180910390a3600193505b505b50600101611caf565b505f34118015611e285750805b15611e65576012546040516001600160a01b03909116903480156108fc02915f818181858888f19350505050158015611e63573d5f5f3e3d5ffd5b505b50611e706001600b55565b565b5f611e7c60085490565b8210611ea45760405163295f44f760e21b81525f600482015260248101839052604401611119565b60088281548110611eb757611eb7614f3b565b905f5260205f2001549050919050565b5f5160206151675f395f51905f52611ede816134dc565b60118290556040518281527fc4530a2c82a973da2165d940859f86f630ca14e4ea7679c03bed6a999d029bf190602001611153565b5f5160206151675f395f51905f52611f2a816134dc565b611f3e6001600160a01b038516848461395e565b826001600160a01b0316846001600160a01b0316336001600160a01b03167f2503bf16a63c716afc6165935443fdbfcda0bfae53b99ae0935bc46d1298bb8685604051611f8d91815260200190565b60405180910390a450505050565b5f5160206151675f395f51905f52611fb2816134dc565b6001600160a01b0382165f818152601c6020526040808220805460ff19169055517f1747ca720b1a174a464b6513ace29b1d3190b5f632b9f34147017c81425bfde89190a25050565b6001600160a01b0381165f908152601660209081526040808320805482518185028101850190935280835260609492939192909184015b8282101561209d578382905f5260205f2090600602016040518060c00160405290815f82015481526020016001820154815260200160028201548152602001600382015481526020016004820154815260200160058201548152505081526020019060010190612032565b505050509050919050565b601581815481106120b7575f80fd5b5f918252602090912001546001600160a01b0316905081565b7f92de27771f92d6942691d73358b3a4673e4880de8356f8f2cf452be87e02d3636120fa816134dc565b6001600160a01b0382165f908152601b602052604090205460ff1661214e5760405162461bcd60e51b815260206004820152600a6024820152692737ba10333937bd32b760b11b6044820152606401611119565b6001600160a01b0382165f818152601b602052604090819020805460ff19169055517fe9d414cb75f78aacbb354c06488f105d0c3f5461b45c70b59fc05b44844f264e9061219f9042815260200190565b60405180910390a25050565b5f5160206151675f395f51905f526121c2816134dc565b815f5b601554811015612225575f601582815481106121e3576121e3614f3b565b5f9182526020808320909101546001600160a01b0316808352601490915260409091205490915060ff161561221c5761221c8184613555565b506001016121c5565b506001600160a01b0383165f908152601c60205260408120805460ff19166001179055612251846123f9565b90505f81156123b5575f5b828110156122cf575f61226f8783611871565b5f81815260136020526040902060038101549192509060ff166122c55780546122989085614f9b565b60038201805460ff191660011790558154600f805492965090915f906122bf908490615062565b90915550505b505060010161225c565b505f5b601554811015612336576001600160a01b0386165f908152601a60205260408120601580548391908590811061230a5761230a614f3b565b5f9182526020808320909101546001600160a01b031683528201929092526040019020556001016122d2565b5080156123b5576123716001600160a01b037f000000000000000000000000000000000000000000000000000000000000000016868361395e565b846001600160a01b03167ff7d69068585ead05d609f5965c9147570964ea979546ee5b072f31b7c31a6ee5826040516123ac91815260200190565b60405180910390a25b6040516001600160a01b038616907f44d5fe68b00f68950fb9c1ff0a61ef7f747b1a36359a7e3a7f3324db4b878967905f90a25050505050565b5f611094826134e6565b5f6001600160a01b038216612423576040516322718ad960e21b81525f6004820152602401611119565b506001600160a01b03165f9081526003602052604090205490565b5f61244761352b565b335f5b6015548110156124aa575f6015828154811061246857612468614f3b565b5f9182526020808320909101546001600160a01b0316808352601490915260409091205490915060ff16156124a1576124a18184613555565b5060010161244a565b506124b3613646565b335f908152601b602052604090205460ff16156124e5573360405163df681a9360e01b81526004016111199190614fae565b335f908152601c602052604090205460ff1615612517573360405163e34017e160e01b81526004016111199190615009565b612524338460105461366a565b9150506125316001600b55565b919050565b7f65d7a28e3265b37a6474929f336521b332c1681b933f6cb9f3376673440d862a612560816134dc565b61184a613a65565b61259160405180608001604052805f81526020015f81526020015f81526020015f151581525090565b5f828152600260205260409020546001600160a01b03166125eb5760405162461bcd60e51b8152602060048201526014602482015273151bdad95b88191bd95cc81b9bdd08195e1a5cdd60621b6044820152606401611119565b505f9081526013602090815260409182902082516080810184528154815260018201549281019290925260028101549282019290925260039091015460ff161515606082015290565b5f828152600d602052604081206115989083613aa2565b5f918252600c602090815260408084206001600160a01b0393909316845291905290205460ff1690565b60606001805461116d90614f4f565b601554606090819067ffffffffffffffff8111156126a4576126a4614d70565b6040519080825280602002602001820160405280156126cd578160200160208202803683370190505b5060155490925067ffffffffffffffff8111156126ec576126ec614d70565b604051908082528060200260200182016040528015612715578160200160208202803683370190505b5090505f5b6015548110156127c0576015818154811061273757612737614f3b565b905f5260205f20015f9054906101000a90046001600160a01b031683828151811061276457612764614f3b565b60200260200101906001600160a01b031690816001600160a01b03168152505061279b846015838154811061107b5761107b614f3b565b8282815181106127ad576127ad614f3b565b602090810291909101015260010161271a565b50915091565b7f92de27771f92d6942691d73358b3a4673e4880de8356f8f2cf452be87e02d3636127f0816134dc565b6001600160a01b0382165f908152601b602052604090205460ff16156128495760405162461bcd60e51b815260206004820152600e60248201526d20b63932b0b23c90333937bd32b760911b6044820152606401611119565b6001600160a01b0382165f818152601b602052604090819020805460ff19166001179055517fb161c4aa40cd54b43336c4b57f33a7308a27aa65d081c1aafacc49b51002659d9061219f9042815260200190565b611220338383613aad565b5f818152600d6020526040902060609061109490613b43565b5f6128cb336123f9565b90505f8167ffffffffffffffff8111156128e7576128e7614d70565b604051908082528060200260200182016040528015612910578160200160208202803683370190505b5090505f805b8381101561298e575f6129293383611871565b5f81815260136020526040902060038101549192509060ff16158015612953575080600101544210155b15612984578185858151811061296b5761296b614f3b565b602090810291909101015283612980816150cc565b9450505b5050600101612916565b505f5b81811015611622576129bb8382815181106129ae576129ae614f3b565b6020026020010151611628565b600101612991565b5f5160206151675f395f51905f526129da816134dc565b835f6129e68282613555565b6001600160a01b0386165f9081526014602052604090205460ff16612a295760405163751dff9760e11b81526001600160a01b0387166004820152602401611119565b5f8511612a785760405162461bcd60e51b815260206004820152601760248201527f43616e6e6f7420737570706c79203020726577617264730000000000000000006044820152606401611119565b5f8411612ac75760405162461bcd60e51b815260206004820152601f60248201527f4475726174696f6e206d7573742062652067726561746572207468616e2030006044820152606401611119565b612afc6001600160a01b038716337f000000000000000000000000000000000000000000000000000000000000000088613b4f565b6001600160a01b0386165f9081526016602052604090819020815160c081019092529080612b2a8789615075565b81526020014281526020018642612b419190614f9b565b815260208082018990525f604080840182905260609384018290528554600181810188559683529183902085516006909302019182559184015194810194909455820151600284015581015160038301556080810151600483015560a001516005909101556001600160a01b0386167f0727302becd070529b3293f4ec8f553d9f6ae1773f638598db1205fbf89080838686612bdd8183615075565b6040805193845260208401929092529082015260600160405180910390a2505050505050565b5f5160206151675f395f51905f52612c1a816134dc565b6040516323b872dd60e01b815284906001600160a01b038216906323b872dd90612c4c903090889088906004016150a8565b5f604051808303815f87803b158015612c63575f5ffd5b505af1158015612c75573d5f5f3e3d5ffd5b50505050836001600160a01b0316856001600160a01b0316336001600160a01b03167f4744bb01c1ab0b5b28a5d0006a4318240b4e4243c572309d6814313ea8e0554986604051612cc891815260200190565b60405180910390a45050505050565b6016602052815f5260405f208181548110612cf0575f80fd5b5f91825260209091206006909102018054600182015460028301546003840154600485015460059095015493965091945092909186565b612d3284848461159f565b6116223385858585613b77565b5f5f612d4a836123f9565b90505f805b8281101561128f575f612d628683611871565b5f81815260136020526040902060038101549192509060ff16158015612d8b5750806001015442105b15612d9f578054612d9c9085614f9b565b93505b5050600101612d4f565b6060612db4826134e6565b505f612dca60408051602081019091525f815290565b90505f815111612de85760405180602001604052805f815250611598565b80612df284613c9f565b604051602001612e039291906150fb565b6040516020818303038152906040529392505050565b5f818152600d6020526040812061109490613d2f565b612e3761352b565b8033612e438282613555565b612e4b613646565b335f908152601b602052604090205460ff1615612e7d573360405163df681a9360e01b81526004016111199190614fae565b335f908152601c602052604090205460ff1615612eaf573360405163e34017e160e01b81526004016111199190615009565b601154341015612efa5760405162461bcd60e51b8152602060048201526016602482015275496e73756666696369656e7420636c61696d2066656560501b6044820152606401611119565b335f908152601a602090815260408083206001600160a01b0387168452909152902054801561300057335f818152601a602090815260408083206001600160a01b038981168552925280832092909255905163cd8515cf60e01b81527f00000000000000000000000000000000000000000000000000000000000000009091169163cd8515cf91612f929190889086906004016150a8565b5f604051808303815f87803b158015612fa9575f5ffd5b505af1158015612fbb573d5f5f3e3d5ffd5b50506040518381526001600160a01b03871692503391507f540798df468d7b23d11f156fdb954cb19ad414d150722a7b6d55ba369dea792e9060200160405180910390a35b341561303e576012546040516001600160a01b03909116903480156108fc02915f818181858888f1935050505015801561303c573d5f5f3e3d5ffd5b505b50505061184a6001600b55565b5f828152600c6020526040902060010154613065816134dc565b61162283836139e8565b5f5160206151675f395f51905f52613086816134dc565b6040516001600160a01b0384169083156108fc029084905f818181858888f193505050501580156130b9573d5f5f3e3d5ffd5b506040518281526001600160a01b0384169033907f51a3aef945b229f9f13f9c7411484fe8436ed204499a994908f9b913103928ba906020015b60405180910390a3505050565b606060158054806020026020016040519081016040528092919081815260200182805480156111e457602002820191905f5260205f20905b81546001600160a01b03168152600190910190602001808311613138575050505050905090565b60605f61316b836123f9565b90505f8167ffffffffffffffff81111561318757613187614d70565b6040519080825280602002602001820160405280156131e157816020015b6131ce60405180608001604052805f81526020015f81526020015f81526020015f151581525090565b8152602001906001900390816131a55790505b5090505f5b8281101561128f575f6131f98683611871565b5f8181526013602090815260409182902082516080810184528154815260018201549281019290925260028101549282019290925260039091015460ff161515606082015284519192509084908490811061325657613256614f3b565b6020908102919091010152506001016131e6565b5f5b818110156119f65761329583838381811061328957613289614f3b565b90506020020135611628565b60010161326c565b6001600160a01b039182165f90815260056020908152604080832093909416825291909152205460ff1690565b6001600160a01b0381165f9081526016602052604081208190815b815481101561337b5781818154811061330057613300614f3b565b905f5260205f20906006020160010154421015801561333f575081818154811061332c5761332c614f3b565b905f5260205f2090600602016002015442105b156133735781818154811061335657613356614f3b565b905f5260205f2090600602015f0154836133709190614f9b565b92505b6001016132e5565b50909392505050565b5f5160206151675f395f51905f5261339b816134dc565b6001600160a01b0382166133e35760405162461bcd60e51b815260206004820152600f60248201526e496e76616c6964206164647265737360881b6044820152606401611119565b601280546001600160a01b0319166001600160a01b0384169081179091556040517fbdf37c276f641820b141429d245add2552b4118c0866e5a78638e3de5ef18d9d905f90a25050565b5f600f545f0361345257506001600160a01b03165f9081526018602052604090205490565b5f61345c836132ca565b6001600160a01b0384165f90815260176020526040812054919250906134829042615062565b905061348e828261504b565b6001600160a01b0385165f908152601860205260409020546134b09190614f9b565b949350505050565b5f6001600160e01b03198216635a05180f60e01b1480611094575061109482613d38565b61184a8133613d5c565b5f818152600260205260408120546001600160a01b03168061109457604051637e27328960e01b815260048101849052602401611119565b6119f68383836001613d95565b6002600b540361354e57604051633ee5aeb560e01b815260040160405180910390fd5b6002600b55565b61355d613e99565b600f54156135d0575f61356f836132ca565b6001600160a01b0384165f90815260176020526040812054919250906135959042615062565b90506135a1828261504b565b6001600160a01b0385165f90815260186020526040812080549091906135c8908490614f9b565b909155505050505b6001600160a01b038083165f908152601760205260409020429055811615611220576135fc8183611518565b6001600160a01b039182165f818152601a60209081526040808320969095168083529581528482209390935560188352838120549181526019835283812094815293909152912055565b600a5460ff1615611e705760405163d93c066560e01b815260040160405180910390fd5b5f5f83116136ab5760405162461bcd60e51b815260206004820152600e60248201526d043616e6e6f74207374616b6520360941b6044820152606401611119565b6010548210156136dc5760105460405163102313b160e31b8152611119918491600401918252602082015260400190565b6137116001600160a01b037f000000000000000000000000000000000000000000000000000000000000000016853086613b4f565b600e80545f9182613721836150cc565b91905055905061373185826140e9565b6040518060800160405280858152602001844261374e9190614f9b565b8152426020808301919091525f604092830181905284815260138252828120845181559184015160018301559183015160028201556060909201516003909201805460ff191692151592909217909155600f80548692906137b0908490614f9b565b9091555050604080518581526020810185905282916001600160a01b038816917fb4caaf29adda3eefee3ad552a8e85058589bf834c7466cae4ee58787f70589ed910160405180910390a3949350505050565b5f828152600260205260408120546001600160a01b031680156138a5576001600160a01b0381165f908152601b602052604090205460ff16156138a5576040805163df681a9360e01b81526001600160a01b03831660048201526024810191909152602260448201527f43616e6e6f74207472616e736665723a206163636f756e742069732066726f7a60648201526132b760f11b608482015260a401611119565b5f5b601554811015613911575f601582815481106138c5576138c5614f3b565b5f9182526020808320909101546001600160a01b0316808352601490915260409091205490915060ff1615613908576138fe8184613555565b6139088188613555565b506001016138a7565b5061391d858585614102565b95945050505050565b5f6139325f835f613803565b90506001600160a01b03811661122057604051637e27328960e01b815260048101839052602401611119565b6040516001600160a01b038381166024830152604482018390526119f691859182169063a9059cbb906064015b604051602081830303815290604052915060e01b6020820180516001600160e01b0383818316178352505050506141cd565b5f5f6139c98484614239565b90508015611598575f848152600d6020526040902061128f90846142ca565b5f5f6139f484846142de565b90508015611598575f848152600d6020526040902061128f9084614349565b613a1b61435d565b600a805460ff191690557f5db9ee0a495bf2e6ff9c91a7834c1ba4fdd244a5e8aa4e537bd38aeae4b073aa335b6040516001600160a01b03909116815260200160405180910390a1565b613a6d613646565b600a805460ff191660011790557f62e78cea01bee320cd4e420270b5ea74000d11b0c9f74754ebdbfc544b05a258613a483390565b5f6115988383614380565b6001600160a01b038216613adf57604051630b61174360e31b81526001600160a01b0383166004820152602401611119565b6001600160a01b038381165f81815260056020908152604080832094871680845294825291829020805460ff191686151590811790915591519182527f17307eab39ab6107e8899845ad3d59bd9653f200f220920489ca2b5937696c3191016130f3565b60605f611598836143a6565b61162284856001600160a01b03166323b872dd86868660405160240161398b939291906150a8565b6001600160a01b0383163b15613c9857604051630a85bd0160e11b81526001600160a01b0384169063150b7a0290613bb990889088908790879060040161510f565b6020604051808303815f875af1925050508015613bf3575060408051601f3d908101601f19168201909252613bf09181019061514b565b60015b613c5a573d808015613c20576040519150601f19603f3d011682016040523d82523d5f602084013e613c25565b606091505b5080515f03613c5257604051633250574960e11b81526001600160a01b0385166004820152602401611119565b805160208201fd5b6001600160e01b03198116630a85bd0160e11b14613c9657604051633250574960e11b81526001600160a01b0385166004820152602401611119565b505b5050505050565b60605f613cab836143ff565b60010190505f8167ffffffffffffffff811115613cca57613cca614d70565b6040519080825280601f01601f191660200182016040528015613cf4576020820181803683370190505b5090508181016020015b5f19016f181899199a1a9b1b9c1cb0b131b232b360811b600a86061a8153600a8504945084613cfe57509392505050565b5f611094825490565b5f6001600160e01b03198216637965db0b60e01b14806110945750611094826144d6565b613d66828261264b565b6112205760405163e2517d3f60e01b81526001600160a01b038216600482015260248101839052604401611119565b8080613da957506001600160a01b03821615155b15613e6a575f613db8846134e6565b90506001600160a01b03831615801590613de45750826001600160a01b0316816001600160a01b031614155b8015613df75750613df5818461329d565b155b15613e205760405163a9fbf51f60e01b81526001600160a01b0384166004820152602401611119565b8115613e685783856001600160a01b0316826001600160a01b03167f8c5be1e5ebec7d5bd14f71427d1e84f3dd0314c0f7b2291e5b200ac8c7c3b92560405160405180910390a45b505b50505f90815260046020526040902080546001600160a01b0319166001600160a01b0392909216919091179055565b600f5415808015613ead5750601e5460ff16155b15613fcf5742601d55601e805460ff191660011790555f5b601554811015611220575f60158281548110613ee357613ee3614f3b565b5f9182526020808320909101546001600160a01b0316808352601690915260408220909250905b8154811015613fc457818181548110613f2557613f25614f3b565b905f5260205f209060060201600401545f148015613f645750818181548110613f5057613f50614f3b565b905f5260205f209060060201600101544210155b8015613f905750818181548110613f7d57613f7d614f3b565b905f5260205f2090600602016002015442105b15613fbc5742828281548110613fa857613fa8614f3b565b905f5260205f209060060201600401819055505b600101613f0a565b505050600101613ec5565b80158015613fdf5750601e5460ff165b1561184a575f601d5442613ff39190615062565b601e805460ff1916905590505f5b6015548110156119f6575f6015828154811061401f5761401f614f3b565b5f9182526020808320909101546001600160a01b0316808352601690915260408220909250905b81548110156140de575f82828154811061406257614062614f3b565b905f5260205f2090600602016004015411156140d6578482828154811061408b5761408b614f3b565b905f5260205f2090600602016005015f8282546140a89190614f9b565b925050819055505f8282815481106140c2576140c2614f3b565b905f5260205f209060060201600401819055505b600101614046565b505050600101614001565b611220828260405180602001604052805f8152506144fa565b5f5f61410f858585614511565b90506001600160a01b03811661416b5761416684600880545f838152600960205260408120829055600182018355919091527ff3f7a9fe364faab93b216da50a3214154f22a0a2b415b23a84c8169e8b636ee30155565b61418e565b846001600160a01b0316816001600160a01b03161461418e5761418e8185614603565b6001600160a01b0385166141aa576141a584614680565b6134b0565b846001600160a01b0316816001600160a01b0316146134b0576134b08585614727565b5f5f60205f8451602086015f885af1806141ec576040513d5f823e3d81fd5b50505f513d91508115614203578060011415614210565b6001600160a01b0384163b155b1561162257604051635274afe760e01b81526001600160a01b0385166004820152602401611119565b5f614244838361264b565b6142c3575f838152600c602090815260408083206001600160a01b03861684529091529020805460ff1916600117905561427b3390565b6001600160a01b0316826001600160a01b0316847f2f8788117e7eff1d82e926ec794901d17c78024a50270940304540a733656f0d60405160405180910390a4506001611094565b505f611094565b5f611598836001600160a01b038416614775565b5f6142e9838361264b565b156142c3575f838152600c602090815260408083206001600160a01b0386168085529252808320805460ff1916905551339286917ff6391f5c32d9c69d2a47ea670b442974b53935d1edc7fd64eb21e047a839171b9190a4506001611094565b5f611598836001600160a01b0384166147ba565b600a5460ff16611e7057604051638dfc202b60e01b815260040160405180910390fd5b5f825f01828154811061439557614395614f3b565b905f5260205f200154905092915050565b6060815f018054806020026020016040519081016040528092919081815260200182805480156143f357602002820191905f5260205f20905b8154815260200190600101908083116143df575b50505050509050919050565b5f8072184f03e93ff9f4daa797ed6e38ed64bf6a1f0160401b831061443d5772184f03e93ff9f4daa797ed6e38ed64bf6a1f0160401b830492506040015b6d04ee2d6d415b85acef81000000008310614469576d04ee2d6d415b85acef8100000000830492506020015b662386f26fc10000831061448757662386f26fc10000830492506010015b6305f5e100831061449f576305f5e100830492506008015b61271083106144b357612710830492506004015b606483106144c5576064830492506002015b600a83106110945760010192915050565b5f6001600160e01b0319821663780e9d6360e01b148061109457506110948261489d565b61450483836148ec565b6119f6335f858585613b77565b5f828152600260205260408120546001600160a01b039081169083161561453d5761453d81848661494d565b6001600160a01b03811615614577576145585f855f5f613d95565b6001600160a01b0381165f90815260036020526040902080545f190190555b6001600160a01b038516156145a5576001600160a01b0385165f908152600360205260409020805460010190555b5f8481526002602052604080822080546001600160a01b0319166001600160a01b0389811691821790925591518793918516917fddf252ad1be2c89b69c2b068fc378daa952ba7f163c4a11628f55a4df523b3ef91a4949350505050565b5f61460d836123f9565b5f838152600760209081526040808320546001600160a01b0388168452600690925290912091925090818314614662575f83815260208281526040808320548584528184208190558352600790915290208290555b5f938452600760209081526040808620869055938552525081205550565b6008545f9061469190600190615062565b5f83815260096020526040812054600880549394509092849081106146b8576146b8614f3b565b905f5260205f200154905080600883815481106146d7576146d7614f3b565b5f91825260208083209091019290925582815260099091526040808220849055858252812055600880548061470e5761470e615094565b600190038181905f5260205f20015f9055905550505050565b5f6001614733846123f9565b61473d9190615062565b6001600160a01b039093165f908152600660209081526040808320868452825280832085905593825260079052919091209190915550565b5f8181526001830160205260408120546142c357508154600181810184555f848152602080822090930184905584548482528286019093526040902091909155611094565b5f8181526001830160205260408120548015614894575f6147dc600183615062565b85549091505f906147ef90600190615062565b905080821461484e575f865f01828154811061480d5761480d614f3b565b905f5260205f200154905080875f01848154811061482d5761482d614f3b565b5f918252602080832090910192909255918252600188019052604090208390555b855486908061485f5761485f615094565b600190038181905f5260205f20015f90559055856001015f8681526020019081526020015f205f905560019350505050611094565b5f915050611094565b5f6001600160e01b031982166380ac58cd60e01b14806148cd57506001600160e01b03198216635b5e139f60e01b145b8061109457506301ffc9a760e01b6001600160e01b0319831614611094565b6001600160a01b03821661491557604051633250574960e11b81525f6004820152602401611119565b5f61492183835f613803565b90506001600160a01b038116156119f6576040516339e3563760e11b81525f6004820152602401611119565b6149588383836149b1565b6119f6576001600160a01b03831661498657604051637e27328960e01b815260048101829052602401611119565b60405163177e802f60e01b81526001600160a01b038316600482015260248101829052604401611119565b5f6001600160a01b038316158015906134b05750826001600160a01b0316846001600160a01b031614806149ea57506149ea848461329d565b806134b05750505f908152600460205260409020546001600160a01b03908116911614919050565b6001600160a01b038116811461184a575f5ffd5b5f60208284031215614a36575f5ffd5b813561159881614a12565b6001600160e01b03198116811461184a575f5ffd5b5f60208284031215614a66575f5ffd5b813561159881614a41565b5f60208284031215614a81575f5ffd5b5035919050565b5f81518084528060208401602086015e5f602082860101526020601f19601f83011685010191505092915050565b602081525f6115986020830184614a88565b5f5f60408385031215614ad9575f5ffd5b8235614ae481614a12565b946020939093013593505050565b5f5f60408385031215614b03575f5ffd5b8235614b0e81614a12565b91506020830135614b1e81614a12565b809150509250929050565b5f5f60408385031215614b3a575f5ffd5b50508035926020909101359150565b5f5f5f60608486031215614b5b575f5ffd5b8335614b6681614a12565b92506020840135614b7681614a12565b929592945050506040919091013590565b5f5f60408385031215614b98575f5ffd5b823591506020830135614b1e81614a12565b5f8151808452602084019350602083015f5b82811015614bda578151865260209586019590910190600101614bbc565b5093949350505050565b602081525f6115986020830184614baa565b602080825282518282018190525f918401906040840190835b81811015614c67578351805184526020810151602085015260408101516040850152606081015160608501526080810151608085015260a081015160a08501525060c083019250602084019350600181019050614c0f565b509095945050505050565b81518152602080830151908201526040808301519082015260608083015115159082015260808101611094565b5f8151808452602084019350602083015f5b82811015614bda5781516001600160a01b0316865260209586019590910190600101614cb1565b604081525f614cea6040830185614c9f565b828103602084015261391d8185614baa565b5f5f60408385031215614d0d575f5ffd5b8235614d1881614a12565b915060208301358015158114614b1e575f5ffd5b602081525f6115986020830184614c9f565b5f5f5f60608486031215614d50575f5ffd5b8335614d5b81614a12565b95602085013595506040909401359392505050565b634e487b7160e01b5f52604160045260245ffd5b5f5f5f5f60808587031215614d97575f5ffd5b8435614da281614a12565b93506020850135614db281614a12565b925060408501359150606085013567ffffffffffffffff811115614dd4575f5ffd5b8501601f81018713614de4575f5ffd5b803567ffffffffffffffff811115614dfe57614dfe614d70565b604051601f8201601f19908116603f0116810167ffffffffffffffff81118282101715614e2d57614e2d614d70565b604052818152828201602001891015614e44575f5ffd5b816020840160208301375f6020838301015280935050505092959194509250565b602080825282518282018190525f918401906040840190835b81811015614c6757614eb48385518051825260208101516020830152604081015160408301526060810151151560608301525050565b6020939093019260809290920191600101614e7e565b5f5f60208385031215614edb575f5ffd5b823567ffffffffffffffff811115614ef1575f5ffd5b8301601f81018513614f01575f5ffd5b803567ffffffffffffffff811115614f17575f5ffd5b8560208260051b8401011115614f2b575f5ffd5b6020919091019590945092505050565b634e487b7160e01b5f52603260045260245ffd5b600181811c90821680614f6357607f821691505b602082108103614f8157634e487b7160e01b5f52602260045260245ffd5b50919050565b634e487b7160e01b5f52601160045260245ffd5b8082018082111561109457611094614f87565b6001600160a01b039190911681526040602082018190526029908201527f4163636f756e742069732066726f7a656e20666f7220636f6d706c69616e636560608201526820707572706f73657360b81b608082015260a00190565b6001600160a01b03919091168152604060208201819052601690820152751058d8dbdd5b9d081a5cc8189b1858dadb1a5cdd195960521b606082015260800190565b808202811582820484141761109457611094614f87565b8181038181111561109457611094614f87565b5f8261508f57634e487b7160e01b5f52601260045260245ffd5b500490565b634e487b7160e01b5f52603160045260245ffd5b6001600160a01b039384168152919092166020820152604081019190915260600190565b5f600182016150dd576150dd614f87565b5060010190565b5f81518060208401855e5f93019283525090919050565b5f6134b061510983866150e4565b846150e4565b6001600160a01b03858116825284166020820152604081018390526080606082018190525f9061514190830184614a88565b9695505050505050565b5f6020828403121561515b575f5ffd5b815161159881614a4156fea49807205ce4d355092ef5a8a18f56e8913cf4a201fbe287825b095693c21775a2646970667358221220cf68bf4a2ec0459d845223cc5fea531ef13187f397722dd2da4aa98a903df92464736f6c634300081d0033",
			"opcodes": "PUSH1 0xC0 PUSH1 0x40 MSTORE PUSH1 0x1 PUSH1 0xE SSTORE CALLVALUE DUP1 ISZERO PUSH2 0x14 JUMPI PUSH0 PUSH0 REVERT JUMPDEST POP PUSH1 0x40 MLOAD PUSH2 0x5668 CODESIZE SUB DUP1 PUSH2 0x5668 DUP4 CODECOPY DUP2 ADD PUSH1 0x40 DUP2 SWAP1 MSTORE PUSH2 0x33 SWAP2 PUSH2 0x2CF JUMP JUMPDEST PUSH1 0x40 MLOAD DUP1 PUSH1 0x40 ADD PUSH1 0x40 MSTORE DUP1 PUSH1 0x16 DUP2 MSTORE PUSH1 0x20 ADD PUSH32 0x41766961746F72205374616B6520506F736974696F6E00000000000000000000 DUP2 MSTORE POP PUSH1 0x40 MLOAD DUP1 PUSH1 0x40 ADD PUSH1 0x40 MSTORE DUP1 PUSH1 0x9 DUP2 MSTORE PUSH1 0x20 ADD PUSH9 0x1CDD1055924B539195 PUSH1 0xBA SHL DUP2 MSTORE POP DUP2 PUSH0 SWAP1 DUP2 PUSH2 0x99 SWAP2 SWAP1 PUSH2 0x3A7 JUMP JUMPDEST POP PUSH1 0x1 PUSH2 0xA6 DUP3 DUP3 PUSH2 0x3A7 JUMP JUMPDEST POP POP PUSH1 0x1 PUSH1 0xB SSTORE POP PUSH1 0x1 PUSH1 0x1 PUSH1 0xA0 SHL SUB DUP3 DUP2 AND PUSH1 0x80 MSTORE DUP2 DUP2 AND PUSH1 0xA0 MSTORE PUSH3 0x6EBE00 PUSH1 0x10 SSTORE PUSH7 0x11C37937E08000 PUSH1 0x11 SSTORE PUSH1 0x12 DUP1 SLOAD PUSH1 0x1 PUSH1 0x1 PUSH1 0xA0 SHL SUB NOT AND SWAP2 DUP6 AND SWAP2 SWAP1 SWAP2 OR SWAP1 SSTORE PUSH2 0xF5 PUSH0 DUP5 PUSH2 0x17F JUMP JUMPDEST POP PUSH2 0x120 PUSH32 0xA49807205CE4D355092EF5A8A18F56E8913CF4A201FBE287825B095693C21775 DUP5 PUSH2 0x17F JUMP JUMPDEST POP PUSH2 0x14B PUSH32 0x65D7A28E3265B37A6474929F336521B332C1681B933F6CB9F3376673440D862A DUP5 PUSH2 0x17F JUMP JUMPDEST POP PUSH2 0x176 PUSH32 0x92DE27771F92D6942691D73358B3A4673E4880DE8356F8F2CF452BE87E02D363 DUP5 PUSH2 0x17F JUMP JUMPDEST POP POP POP POP PUSH2 0x461 JUMP JUMPDEST PUSH0 DUP1 PUSH2 0x18B DUP5 DUP5 PUSH2 0x1B5 JUMP JUMPDEST SWAP1 POP DUP1 ISZERO PUSH2 0x1AC JUMPI PUSH0 DUP5 DUP2 MSTORE PUSH1 0xD PUSH1 0x20 MSTORE PUSH1 0x40 SWAP1 KECCAK256 PUSH2 0x1AA SWAP1 DUP5 PUSH2 0x260 JUMP JUMPDEST POP JUMPDEST SWAP1 POP JUMPDEST SWAP3 SWAP2 POP POP JUMP JUMPDEST PUSH0 DUP3 DUP2 MSTORE PUSH1 0xC PUSH1 0x20 SWAP1 DUP2 MSTORE PUSH1 0x40 DUP1 DUP4 KECCAK256 PUSH1 0x1 PUSH1 0x1 PUSH1 0xA0 SHL SUB DUP6 AND DUP5 MSTORE SWAP1 SWAP2 MSTORE DUP2 KECCAK256 SLOAD PUSH1 0xFF AND PUSH2 0x259 JUMPI PUSH0 DUP4 DUP2 MSTORE PUSH1 0xC PUSH1 0x20 SWAP1 DUP2 MSTORE PUSH1 0x40 DUP1 DUP4 KECCAK256 PUSH1 0x1 PUSH1 0x1 PUSH1 0xA0 SHL SUB DUP7 AND DUP5 MSTORE SWAP1 SWAP2 MSTORE SWAP1 KECCAK256 DUP1 SLOAD PUSH1 0xFF NOT AND PUSH1 0x1 OR SWAP1 SSTORE PUSH2 0x211 CALLER SWAP1 JUMP JUMPDEST PUSH1 0x1 PUSH1 0x1 PUSH1 0xA0 SHL SUB AND DUP3 PUSH1 0x1 PUSH1 0x1 PUSH1 0xA0 SHL SUB AND DUP5 PUSH32 0x2F8788117E7EFF1D82E926EC794901D17C78024A50270940304540A733656F0D PUSH1 0x40 MLOAD PUSH1 0x40 MLOAD DUP1 SWAP2 SUB SWAP1 LOG4 POP PUSH1 0x1 PUSH2 0x1AF JUMP JUMPDEST POP PUSH0 PUSH2 0x1AF JUMP JUMPDEST PUSH0 PUSH2 0x1AC DUP4 PUSH1 0x1 PUSH1 0x1 PUSH1 0xA0 SHL SUB DUP5 AND PUSH0 DUP2 DUP2 MSTORE PUSH1 0x1 DUP4 ADD PUSH1 0x20 MSTORE PUSH1 0x40 DUP2 KECCAK256 SLOAD PUSH2 0x259 JUMPI POP DUP2 SLOAD PUSH1 0x1 DUP2 DUP2 ADD DUP5 SSTORE PUSH0 DUP5 DUP2 MSTORE PUSH1 0x20 DUP1 DUP3 KECCAK256 SWAP1 SWAP4 ADD DUP5 SWAP1 SSTORE DUP5 SLOAD DUP5 DUP3 MSTORE DUP3 DUP7 ADD SWAP1 SWAP4 MSTORE PUSH1 0x40 SWAP1 KECCAK256 SWAP2 SWAP1 SWAP2 SSTORE PUSH2 0x1AF JUMP JUMPDEST DUP1 MLOAD PUSH1 0x1 PUSH1 0x1 PUSH1 0xA0 SHL SUB DUP2 AND DUP2 EQ PUSH2 0x2CA JUMPI PUSH0 PUSH0 REVERT JUMPDEST SWAP2 SWAP1 POP JUMP JUMPDEST PUSH0 PUSH0 PUSH0 PUSH1 0x60 DUP5 DUP7 SUB SLT ISZERO PUSH2 0x2E1 JUMPI PUSH0 PUSH0 REVERT JUMPDEST PUSH2 0x2EA DUP5 PUSH2 0x2B4 JUMP JUMPDEST SWAP3 POP PUSH2 0x2F8 PUSH1 0x20 DUP6 ADD PUSH2 0x2B4 JUMP JUMPDEST SWAP2 POP PUSH2 0x306 PUSH1 0x40 DUP6 ADD PUSH2 0x2B4 JUMP JUMPDEST SWAP1 POP SWAP3 POP SWAP3 POP SWAP3 JUMP JUMPDEST PUSH4 0x4E487B71 PUSH1 0xE0 SHL PUSH0 MSTORE PUSH1 0x41 PUSH1 0x4 MSTORE PUSH1 0x24 PUSH0 REVERT JUMPDEST PUSH1 0x1 DUP2 DUP2 SHR SWAP1 DUP3 AND DUP1 PUSH2 0x337 JUMPI PUSH1 0x7F DUP3 AND SWAP2 POP JUMPDEST PUSH1 0x20 DUP3 LT DUP2 SUB PUSH2 0x355 JUMPI PUSH4 0x4E487B71 PUSH1 0xE0 SHL PUSH0 MSTORE PUSH1 0x22 PUSH1 0x4 MSTORE PUSH1 0x24 PUSH0 REVERT JUMPDEST POP SWAP2 SWAP1 POP JUMP JUMPDEST PUSH1 0x1F DUP3 GT ISZERO PUSH2 0x3A2 JUMPI DUP1 PUSH0 MSTORE PUSH1 0x20 PUSH0 KECCAK256 PUSH1 0x1F DUP5 ADD PUSH1 0x5 SHR DUP2 ADD PUSH1 0x20 DUP6 LT ISZERO PUSH2 0x380 JUMPI POP DUP1 JUMPDEST PUSH1 0x1F DUP5 ADD PUSH1 0x5 SHR DUP3 ADD SWAP2 POP JUMPDEST DUP2 DUP2 LT ISZERO PUSH2 0x39F JUMPI PUSH0 DUP2 SSTORE PUSH1 0x1 ADD PUSH2 0x38C JUMP JUMPDEST POP POP JUMPDEST POP POP POP JUMP JUMPDEST DUP2 MLOAD PUSH1 0x1 PUSH1 0x1 PUSH1 0x40 SHL SUB DUP2 GT ISZERO PUSH2 0x3C0 JUMPI PUSH2 0x3C0 PUSH2 0x30F JUMP JUMPDEST PUSH2 0x3D4 DUP2 PUSH2 0x3CE DUP5 SLOAD PUSH2 0x323 JUMP JUMPDEST DUP5 PUSH2 0x35B JUMP JUMPDEST PUSH1 0x20 PUSH1 0x1F DUP3 GT PUSH1 0x1 DUP2 EQ PUSH2 0x406 JUMPI PUSH0 DUP4 ISZERO PUSH2 0x3EF JUMPI POP DUP5 DUP3 ADD MLOAD JUMPDEST PUSH0 NOT PUSH1 0x3 DUP6 SWAP1 SHL SHR NOT AND PUSH1 0x1 DUP5 SWAP1 SHL OR DUP5 SSTORE PUSH2 0x39F JUMP JUMPDEST PUSH0 DUP5 DUP2 MSTORE PUSH1 0x20 DUP2 KECCAK256 PUSH1 0x1F NOT DUP6 AND SWAP2 JUMPDEST DUP3 DUP2 LT ISZERO PUSH2 0x435 JUMPI DUP8 DUP6 ADD MLOAD DUP3 SSTORE PUSH1 0x20 SWAP5 DUP6 ADD SWAP5 PUSH1 0x1 SWAP1 SWAP3 ADD SWAP2 ADD PUSH2 0x415 JUMP JUMPDEST POP DUP5 DUP3 LT ISZERO PUSH2 0x452 JUMPI DUP7 DUP5 ADD MLOAD PUSH0 NOT PUSH1 0x3 DUP8 SWAP1 SHL PUSH1 0xF8 AND SHR NOT AND DUP2 SSTORE JUMPDEST POP POP POP POP PUSH1 0x1 SWAP1 DUP2 SHL ADD SWAP1 SSTORE POP JUMP JUMPDEST PUSH1 0x80 MLOAD PUSH1 0xA0 MLOAD PUSH2 0x51BC PUSH2 0x4AC PUSH0 CODECOPY PUSH0 DUP2 DUP2 PUSH2 0x1001 ADD MSTORE DUP2 DUP2 PUSH2 0x1D64 ADD MSTORE DUP2 DUP2 PUSH2 0x2AD7 ADD MSTORE PUSH2 0x2F58 ADD MSTORE PUSH0 DUP2 DUP2 PUSH2 0xA39 ADD MSTORE DUP2 DUP2 PUSH2 0x17DF ADD MSTORE DUP2 DUP2 PUSH2 0x234A ADD MSTORE PUSH2 0x36E9 ADD MSTORE PUSH2 0x51BC PUSH0 RETURN INVALID PUSH1 0x80 PUSH1 0x40 MSTORE PUSH1 0x4 CALLDATASIZE LT PUSH2 0x4A4 JUMPI PUSH0 CALLDATALOAD PUSH1 0xE0 SHR DUP1 PUSH4 0x7547C7A3 GT PUSH2 0x262 JUMPI DUP1 PUSH4 0xC4086893 GT PUSH2 0x14A JUMPI DUP1 PUSH4 0xDC21FB76 GT PUSH2 0xBE JUMPI DUP1 PUSH4 0xEC35FDE5 GT PUSH2 0x83 JUMPI DUP1 PUSH4 0xEC35FDE5 EQ PUSH2 0xF65 JUMPI DUP1 PUSH4 0xEFDCD974 EQ PUSH2 0xF84 JUMPI DUP1 PUSH4 0xF1229777 EQ PUSH2 0xFA3 JUMPI DUP1 PUSH4 0xF9F92BE4 EQ PUSH2 0xFC2 JUMPI DUP1 PUSH4 0xFBFA77CF EQ PUSH2 0xFF0 JUMPI DUP1 PUSH4 0xFE575A87 EQ PUSH2 0x1023 JUMPI PUSH0 PUSH0 REVERT JUMPDEST DUP1 PUSH4 0xDC21FB76 EQ PUSH2 0xE91 JUMPI DUP1 PUSH4 0xE5839836 EQ PUSH2 0xEBD JUMPI DUP1 PUSH4 0xE5B79106 EQ PUSH2 0xEF4 JUMPI DUP1 PUSH4 0xE63AB1E9 EQ PUSH2 0xF13 JUMPI DUP1 PUSH4 0xE985E9C5 EQ PUSH2 0xF46 JUMPI PUSH0 PUSH0 REVERT JUMPDEST DUP1 PUSH4 0xCC7045D7 GT PUSH2 0x10F JUMPI DUP1 PUSH4 0xCC7045D7 EQ PUSH2 0xD99 JUMPI DUP1 PUSH4 0xD0516650 EQ PUSH2 0xDAC JUMPI DUP1 PUSH4 0xD547741F EQ PUSH2 0xDDA JUMPI DUP1 PUSH4 0xD5A44F86 EQ PUSH2 0xDF9 JUMPI DUP1 PUSH4 0xD79E8567 EQ PUSH2 0xE5E JUMPI DUP1 PUSH4 0xD8F67495 EQ PUSH2 0xE7D JUMPI PUSH0 PUSH0 REVERT JUMPDEST DUP1 PUSH4 0xC4086893 EQ PUSH2 0xD12 JUMPI DUP1 PUSH4 0xC423BE25 EQ PUSH2 0xD31 JUMPI DUP1 PUSH4 0xC6DDD3A0 EQ PUSH2 0xD46 JUMPI DUP1 PUSH4 0xC87B56DD EQ PUSH2 0xD5B JUMPI DUP1 PUSH4 0xCA15C873 EQ PUSH2 0xD7A JUMPI PUSH0 PUSH0 REVERT JUMPDEST DUP1 PUSH4 0x9E88EC10 GT PUSH2 0x1E1 JUMPI DUP1 PUSH4 0xA3D046A8 GT PUSH2 0x1A6 JUMPI DUP1 PUSH4 0xA3D046A8 EQ PUSH2 0xC36 JUMPI DUP1 PUSH4 0xA6EEC453 EQ PUSH2 0xC4A JUMPI DUP1 PUSH4 0xB3F00674 EQ PUSH2 0xC69 JUMPI DUP1 PUSH4 0xB72B85A1 EQ PUSH2 0xC88 JUMPI DUP1 PUSH4 0xB80E6793 EQ PUSH2 0xCA7 JUMPI DUP1 PUSH4 0xB88D4FDE EQ PUSH2 0xCF3 JUMPI PUSH0 PUSH0 REVERT JUMPDEST DUP1 PUSH4 0x9E88EC10 EQ PUSH2 0xB8C JUMPI DUP1 PUSH4 0x9F001169 EQ PUSH2 0xBB9 JUMPI DUP1 PUSH4 0xA217FDDF EQ PUSH2 0xBD8 JUMPI DUP1 PUSH4 0xA22CB465 EQ PUSH2 0xBEB JUMPI DUP1 PUSH4 0xA3246AD3 EQ PUSH2 0xC0A JUMPI PUSH0 PUSH0 REVERT JUMPDEST DUP1 PUSH4 0x89E63207 GT PUSH2 0x227 JUMPI DUP1 PUSH4 0x89E63207 EQ PUSH2 0xAF9 JUMPI DUP1 PUSH4 0x9010D07C EQ PUSH2 0xB25 JUMPI DUP1 PUSH4 0x91D14854 EQ PUSH2 0xB44 JUMPI DUP1 PUSH4 0x95D89B41 EQ PUSH2 0xB63 JUMPI DUP1 PUSH4 0x9D86B850 EQ PUSH2 0xB77 JUMPI PUSH0 PUSH0 REVERT JUMPDEST DUP1 PUSH4 0x7547C7A3 EQ PUSH2 0xA5B JUMPI DUP1 PUSH4 0x75794A3C EQ PUSH2 0xA7A JUMPI DUP1 PUSH4 0x75B238FC EQ PUSH2 0xA8F JUMPI DUP1 PUSH4 0x78A2574B EQ PUSH2 0xAAF JUMPI DUP1 PUSH4 0x8456CB59 EQ PUSH2 0xAE5 JUMPI PUSH0 PUSH0 REVERT JUMPDEST DUP1 PUSH4 0x313DA78F GT PUSH2 0x390 JUMPI DUP1 PUSH4 0x55B8FB81 GT PUSH2 0x304 JUMPI DUP1 PUSH4 0x5DA9E169 GT PUSH2 0x2C9 JUMPI DUP1 PUSH4 0x5DA9E169 EQ PUSH2 0x98D JUMPI DUP1 PUSH4 0x60F588B7 EQ PUSH2 0x9AC JUMPI DUP1 PUSH4 0x62441BF6 EQ PUSH2 0x9CB JUMPI DUP1 PUSH4 0x6352211E EQ PUSH2 0x9EA JUMPI DUP1 PUSH4 0x70A08231 EQ PUSH2 0xA09 JUMPI DUP1 PUSH4 0x72F702F3 EQ PUSH2 0xA28 JUMPI PUSH0 PUSH0 REVERT JUMPDEST DUP1 PUSH4 0x55B8FB81 EQ PUSH2 0x8F7 JUMPI DUP1 PUSH4 0x567E98F9 EQ PUSH2 0x916 JUMPI DUP1 PUSH4 0x5B34BC41 EQ PUSH2 0x92B JUMPI DUP1 PUSH4 0x5BFC82AD EQ PUSH2 0x94A JUMPI DUP1 PUSH4 0x5C975ABB EQ PUSH2 0x976 JUMPI PUSH0 PUSH0 REVERT JUMPDEST DUP1 PUSH4 0x3F4BA83A GT PUSH2 0x355 JUMPI DUP1 PUSH4 0x3F4BA83A EQ PUSH2 0x850 JUMPI DUP1 PUSH4 0x42842E0E EQ PUSH2 0x864 JUMPI DUP1 PUSH4 0x45B35F56 EQ PUSH2 0x883 JUMPI DUP1 PUSH4 0x4F6CCCE7 EQ PUSH2 0x88B JUMPI DUP1 PUSH4 0x5225F987 EQ PUSH2 0x8AA JUMPI DUP1 PUSH4 0x54FD83C1 EQ PUSH2 0x8D8 JUMPI PUSH0 PUSH0 REVERT JUMPDEST DUP1 PUSH4 0x313DA78F EQ PUSH2 0x7AE JUMPI DUP1 PUSH4 0x3455F41E EQ PUSH2 0x7DA JUMPI DUP1 PUSH4 0x36568ABE EQ PUSH2 0x7F9 JUMPI DUP1 PUSH4 0x3D509C97 EQ PUSH2 0x818 JUMPI DUP1 PUSH4 0x3DD6AA42 EQ PUSH2 0x837 JUMPI PUSH0 PUSH0 REVERT JUMPDEST DUP1 PUSH4 0x18160DDD GT PUSH2 0x427 JUMPI DUP1 PUSH4 0x23B872DD GT PUSH2 0x3EC JUMPI DUP1 PUSH4 0x23B872DD EQ PUSH2 0x6D9 JUMPI DUP1 PUSH4 0x248A9CA3 EQ PUSH2 0x6F8 JUMPI DUP1 PUSH4 0x28BCF07A EQ PUSH2 0x726 JUMPI DUP1 PUSH4 0x2E1A7D4D EQ PUSH2 0x751 JUMPI DUP1 PUSH4 0x2F2FF15D EQ PUSH2 0x770 JUMPI DUP1 PUSH4 0x2F745C59 EQ PUSH2 0x78F JUMPI PUSH0 PUSH0 REVERT JUMPDEST DUP1 PUSH4 0x18160DDD EQ PUSH2 0x654 JUMPI DUP1 PUSH4 0x1B7447F1 EQ PUSH2 0x668 JUMPI DUP1 PUSH4 0x1C03E6CC EQ PUSH2 0x687 JUMPI DUP1 PUSH4 0x1C1F78EB EQ PUSH2 0x6A6 JUMPI DUP1 PUSH4 0x211DC32D EQ PUSH2 0x6BA JUMPI PUSH0 PUSH0 REVERT JUMPDEST DUP1 PUSH4 0x81812FC GT PUSH2 0x46D JUMPI DUP1 PUSH4 0x81812FC EQ PUSH2 0x57E JUMPI DUP1 PUSH4 0x95EA7B3 EQ PUSH2 0x5B5 JUMPI DUP1 PUSH4 0x11B567B9 EQ PUSH2 0x5D4 JUMPI DUP1 PUSH4 0x129DE5BF EQ PUSH2 0x60A JUMPI DUP1 PUSH4 0x14228806 EQ PUSH2 0x629 JUMPI PUSH0 PUSH0 REVERT JUMPDEST DUP1 PUSH3 0x8CC262 EQ PUSH2 0x4A8 JUMPI DUP1 PUSH4 0x1FFC9A7 EQ PUSH2 0x4DA JUMPI DUP1 PUSH4 0x4F6C0EF EQ PUSH2 0x509 JUMPI DUP1 PUSH4 0x6A85F0F EQ PUSH2 0x52A JUMPI DUP1 PUSH4 0x6FDDE03 EQ PUSH2 0x55D JUMPI JUMPDEST PUSH0 PUSH0 REVERT JUMPDEST CALLVALUE DUP1 ISZERO PUSH2 0x4B3 JUMPI PUSH0 PUSH0 REVERT JUMPDEST POP PUSH2 0x4C7 PUSH2 0x4C2 CALLDATASIZE PUSH1 0x4 PUSH2 0x4A26 JUMP JUMPDEST PUSH2 0x105A JUMP JUMPDEST PUSH1 0x40 MLOAD SWAP1 DUP2 MSTORE PUSH1 0x20 ADD JUMPDEST PUSH1 0x40 MLOAD DUP1 SWAP2 SUB SWAP1 RETURN JUMPDEST CALLVALUE DUP1 ISZERO PUSH2 0x4E5 JUMPI PUSH0 PUSH0 REVERT JUMPDEST POP PUSH2 0x4F9 PUSH2 0x4F4 CALLDATASIZE PUSH1 0x4 PUSH2 0x4A56 JUMP JUMPDEST PUSH2 0x10A1 JUMP JUMPDEST PUSH1 0x40 MLOAD SWAP1 ISZERO ISZERO DUP2 MSTORE PUSH1 0x20 ADD PUSH2 0x4D1 JUMP JUMPDEST CALLVALUE DUP1 ISZERO PUSH2 0x514 JUMPI PUSH0 PUSH0 REVERT JUMPDEST POP PUSH2 0x528 PUSH2 0x523 CALLDATASIZE PUSH1 0x4 PUSH2 0x4A71 JUMP JUMPDEST PUSH2 0x10AB JUMP JUMPDEST STOP JUMPDEST CALLVALUE DUP1 ISZERO PUSH2 0x535 JUMPI PUSH0 PUSH0 REVERT JUMPDEST POP PUSH2 0x4C7 PUSH32 0x92DE27771F92D6942691D73358B3A4673E4880DE8356F8F2CF452BE87E02D363 DUP2 JUMP JUMPDEST CALLVALUE DUP1 ISZERO PUSH2 0x568 JUMPI PUSH0 PUSH0 REVERT JUMPDEST POP PUSH2 0x571 PUSH2 0x115F JUMP JUMPDEST PUSH1 0x40 MLOAD PUSH2 0x4D1 SWAP2 SWAP1 PUSH2 0x4AB6 JUMP JUMPDEST CALLVALUE DUP1 ISZERO PUSH2 0x589 JUMPI PUSH0 PUSH0 REVERT JUMPDEST POP PUSH2 0x59D PUSH2 0x598 CALLDATASIZE PUSH1 0x4 PUSH2 0x4A71 JUMP JUMPDEST PUSH2 0x11EE JUMP JUMPDEST PUSH1 0x40 MLOAD PUSH1 0x1 PUSH1 0x1 PUSH1 0xA0 SHL SUB SWAP1 SWAP2 AND DUP2 MSTORE PUSH1 0x20 ADD PUSH2 0x4D1 JUMP JUMPDEST CALLVALUE DUP1 ISZERO PUSH2 0x5C0 JUMPI PUSH0 PUSH0 REVERT JUMPDEST POP PUSH2 0x528 PUSH2 0x5CF CALLDATASIZE PUSH1 0x4 PUSH2 0x4AC8 JUMP JUMPDEST PUSH2 0x1215 JUMP JUMPDEST CALLVALUE DUP1 ISZERO PUSH2 0x5DF JUMPI PUSH0 PUSH0 REVERT JUMPDEST POP PUSH2 0x4C7 PUSH2 0x5EE CALLDATASIZE PUSH1 0x4 PUSH2 0x4AF2 JUMP JUMPDEST PUSH1 0x19 PUSH1 0x20 SWAP1 DUP2 MSTORE PUSH0 SWAP3 DUP4 MSTORE PUSH1 0x40 DUP1 DUP5 KECCAK256 SWAP1 SWAP2 MSTORE SWAP1 DUP3 MSTORE SWAP1 KECCAK256 SLOAD DUP2 JUMP JUMPDEST CALLVALUE DUP1 ISZERO PUSH2 0x615 JUMPI PUSH0 PUSH0 REVERT JUMPDEST POP PUSH2 0x4C7 PUSH2 0x624 CALLDATASIZE PUSH1 0x4 PUSH2 0x4A26 JUMP JUMPDEST PUSH2 0x1224 JUMP JUMPDEST CALLVALUE DUP1 ISZERO PUSH2 0x634 JUMPI PUSH0 PUSH0 REVERT JUMPDEST POP PUSH2 0x4C7 PUSH2 0x643 CALLDATASIZE PUSH1 0x4 PUSH2 0x4A26 JUMP JUMPDEST PUSH1 0x18 PUSH1 0x20 MSTORE PUSH0 SWAP1 DUP2 MSTORE PUSH1 0x40 SWAP1 KECCAK256 SLOAD DUP2 JUMP JUMPDEST CALLVALUE DUP1 ISZERO PUSH2 0x65F JUMPI PUSH0 PUSH0 REVERT JUMPDEST POP PUSH1 0x8 SLOAD PUSH2 0x4C7 JUMP JUMPDEST CALLVALUE DUP1 ISZERO PUSH2 0x673 JUMPI PUSH0 PUSH0 REVERT JUMPDEST POP PUSH2 0x4C7 PUSH2 0x682 CALLDATASIZE PUSH1 0x4 PUSH2 0x4B29 JUMP JUMPDEST PUSH2 0x1297 JUMP JUMPDEST CALLVALUE DUP1 ISZERO PUSH2 0x692 JUMPI PUSH0 PUSH0 REVERT JUMPDEST POP PUSH2 0x528 PUSH2 0x6A1 CALLDATASIZE PUSH1 0x4 PUSH2 0x4A26 JUMP JUMPDEST PUSH2 0x1388 JUMP JUMPDEST CALLVALUE DUP1 ISZERO PUSH2 0x6B1 JUMPI PUSH0 PUSH0 REVERT JUMPDEST POP PUSH2 0x4C7 PUSH2 0x14C8 JUMP JUMPDEST CALLVALUE DUP1 ISZERO PUSH2 0x6C5 JUMPI PUSH0 PUSH0 REVERT JUMPDEST POP PUSH2 0x4C7 PUSH2 0x6D4 CALLDATASIZE PUSH1 0x4 PUSH2 0x4AF2 JUMP JUMPDEST PUSH2 0x1518 JUMP JUMPDEST CALLVALUE DUP1 ISZERO PUSH2 0x6E4 JUMPI PUSH0 PUSH0 REVERT JUMPDEST POP PUSH2 0x528 PUSH2 0x6F3 CALLDATASIZE PUSH1 0x4 PUSH2 0x4B49 JUMP JUMPDEST PUSH2 0x159F JUMP JUMPDEST CALLVALUE DUP1 ISZERO PUSH2 0x703 JUMPI PUSH0 PUSH0 REVERT JUMPDEST POP PUSH2 0x4C7 PUSH2 0x712 CALLDATASIZE PUSH1 0x4 PUSH2 0x4A71 JUMP JUMPDEST PUSH0 SWAP1 DUP2 MSTORE PUSH1 0xC PUSH1 0x20 MSTORE PUSH1 0x40 SWAP1 KECCAK256 PUSH1 0x1 ADD SLOAD SWAP1 JUMP JUMPDEST CALLVALUE DUP1 ISZERO PUSH2 0x731 JUMPI PUSH0 PUSH0 REVERT JUMPDEST POP PUSH2 0x4C7 PUSH2 0x740 CALLDATASIZE PUSH1 0x4 PUSH2 0x4A26 JUMP JUMPDEST PUSH1 0x17 PUSH1 0x20 MSTORE PUSH0 SWAP1 DUP2 MSTORE PUSH1 0x40 SWAP1 KECCAK256 SLOAD DUP2 JUMP JUMPDEST CALLVALUE DUP1 ISZERO PUSH2 0x75C JUMPI PUSH0 PUSH0 REVERT JUMPDEST POP PUSH2 0x528 PUSH2 0x76B CALLDATASIZE PUSH1 0x4 PUSH2 0x4A71 JUMP JUMPDEST PUSH2 0x1628 JUMP JUMPDEST CALLVALUE DUP1 ISZERO PUSH2 0x77B JUMPI PUSH0 PUSH0 REVERT JUMPDEST POP PUSH2 0x528 PUSH2 0x78A CALLDATASIZE PUSH1 0x4 PUSH2 0x4B87 JUMP JUMPDEST PUSH2 0x184D JUMP JUMPDEST CALLVALUE DUP1 ISZERO PUSH2 0x79A JUMPI PUSH0 PUSH0 REVERT JUMPDEST POP PUSH2 0x4C7 PUSH2 0x7A9 CALLDATASIZE PUSH1 0x4 PUSH2 0x4AC8 JUMP JUMPDEST PUSH2 0x1871 JUMP JUMPDEST CALLVALUE DUP1 ISZERO PUSH2 0x7B9 JUMPI PUSH0 PUSH0 REVERT JUMPDEST POP PUSH2 0x7CD PUSH2 0x7C8 CALLDATASIZE PUSH1 0x4 PUSH2 0x4A26 JUMP JUMPDEST PUSH2 0x18D4 JUMP JUMPDEST PUSH1 0x40 MLOAD PUSH2 0x4D1 SWAP2 SWAP1 PUSH2 0x4BE4 JUMP JUMPDEST CALLVALUE DUP1 ISZERO PUSH2 0x7E5 JUMPI PUSH0 PUSH0 REVERT JUMPDEST POP PUSH2 0x4C7 PUSH2 0x7F4 CALLDATASIZE PUSH1 0x4 PUSH2 0x4A26 JUMP JUMPDEST PUSH2 0x1961 JUMP JUMPDEST CALLVALUE DUP1 ISZERO PUSH2 0x804 JUMPI PUSH0 PUSH0 REVERT JUMPDEST POP PUSH2 0x528 PUSH2 0x813 CALLDATASIZE PUSH1 0x4 PUSH2 0x4B87 JUMP JUMPDEST PUSH2 0x19C3 JUMP JUMPDEST CALLVALUE DUP1 ISZERO PUSH2 0x823 JUMPI PUSH0 PUSH0 REVERT JUMPDEST POP PUSH2 0x528 PUSH2 0x832 CALLDATASIZE PUSH1 0x4 PUSH2 0x4A26 JUMP JUMPDEST PUSH2 0x19FB JUMP JUMPDEST CALLVALUE DUP1 ISZERO PUSH2 0x842 JUMPI PUSH0 PUSH0 REVERT JUMPDEST POP PUSH1 0x1E SLOAD PUSH2 0x4F9 SWAP1 PUSH1 0xFF AND DUP2 JUMP JUMPDEST CALLVALUE DUP1 ISZERO PUSH2 0x85B JUMPI PUSH0 PUSH0 REVERT JUMPDEST POP PUSH2 0x528 PUSH2 0x1BA1 JUMP JUMPDEST CALLVALUE DUP1 ISZERO PUSH2 0x86F JUMPI PUSH0 PUSH0 REVERT JUMPDEST POP PUSH2 0x528 PUSH2 0x87E CALLDATASIZE PUSH1 0x4 PUSH2 0x4B49 JUMP JUMPDEST PUSH2 0x1BD3 JUMP JUMPDEST PUSH2 0x528 PUSH2 0x1BED JUMP JUMPDEST CALLVALUE DUP1 ISZERO PUSH2 0x896 JUMPI PUSH0 PUSH0 REVERT JUMPDEST POP PUSH2 0x4C7 PUSH2 0x8A5 CALLDATASIZE PUSH1 0x4 PUSH2 0x4A71 JUMP JUMPDEST PUSH2 0x1E72 JUMP JUMPDEST CALLVALUE DUP1 ISZERO PUSH2 0x8B5 JUMPI PUSH0 PUSH0 REVERT JUMPDEST POP PUSH2 0x4F9 PUSH2 0x8C4 CALLDATASIZE PUSH1 0x4 PUSH2 0x4A26 JUMP JUMPDEST PUSH1 0x14 PUSH1 0x20 MSTORE PUSH0 SWAP1 DUP2 MSTORE PUSH1 0x40 SWAP1 KECCAK256 SLOAD PUSH1 0xFF AND DUP2 JUMP JUMPDEST CALLVALUE DUP1 ISZERO PUSH2 0x8E3 JUMPI PUSH0 PUSH0 REVERT JUMPDEST POP PUSH2 0x528 PUSH2 0x8F2 CALLDATASIZE PUSH1 0x4 PUSH2 0x4A71 JUMP JUMPDEST PUSH2 0x1EC7 JUMP JUMPDEST CALLVALUE DUP1 ISZERO PUSH2 0x902 JUMPI PUSH0 PUSH0 REVERT JUMPDEST POP PUSH2 0x528 PUSH2 0x911 CALLDATASIZE PUSH1 0x4 PUSH2 0x4B49 JUMP JUMPDEST PUSH2 0x1F13 JUMP JUMPDEST CALLVALUE DUP1 ISZERO PUSH2 0x921 JUMPI PUSH0 PUSH0 REVERT JUMPDEST POP PUSH2 0x4C7 PUSH1 0xF SLOAD DUP2 JUMP JUMPDEST CALLVALUE DUP1 ISZERO PUSH2 0x936 JUMPI PUSH0 PUSH0 REVERT JUMPDEST POP PUSH2 0x528 PUSH2 0x945 CALLDATASIZE PUSH1 0x4 PUSH2 0x4A26 JUMP JUMPDEST PUSH2 0x1F9B JUMP JUMPDEST CALLVALUE DUP1 ISZERO PUSH2 0x955 JUMPI PUSH0 PUSH0 REVERT JUMPDEST POP PUSH2 0x969 PUSH2 0x964 CALLDATASIZE PUSH1 0x4 PUSH2 0x4A26 JUMP JUMPDEST PUSH2 0x1FFB JUMP JUMPDEST PUSH1 0x40 MLOAD PUSH2 0x4D1 SWAP2 SWAP1 PUSH2 0x4BF6 JUMP JUMPDEST CALLVALUE DUP1 ISZERO PUSH2 0x981 JUMPI PUSH0 PUSH0 REVERT JUMPDEST POP PUSH1 0xA SLOAD PUSH1 0xFF AND PUSH2 0x4F9 JUMP JUMPDEST CALLVALUE DUP1 ISZERO PUSH2 0x998 JUMPI PUSH0 PUSH0 REVERT JUMPDEST POP PUSH2 0x59D PUSH2 0x9A7 CALLDATASIZE PUSH1 0x4 PUSH2 0x4A71 JUMP JUMPDEST PUSH2 0x20A8 JUMP JUMPDEST CALLVALUE DUP1 ISZERO PUSH2 0x9B7 JUMPI PUSH0 PUSH0 REVERT JUMPDEST POP PUSH2 0x528 PUSH2 0x9C6 CALLDATASIZE PUSH1 0x4 PUSH2 0x4A26 JUMP JUMPDEST PUSH2 0x20D0 JUMP JUMPDEST CALLVALUE DUP1 ISZERO PUSH2 0x9D6 JUMPI PUSH0 PUSH0 REVERT JUMPDEST POP PUSH2 0x528 PUSH2 0x9E5 CALLDATASIZE PUSH1 0x4 PUSH2 0x4A26 JUMP JUMPDEST PUSH2 0x21AB JUMP JUMPDEST CALLVALUE DUP1 ISZERO PUSH2 0x9F5 JUMPI PUSH0 PUSH0 REVERT JUMPDEST POP PUSH2 0x59D PUSH2 0xA04 CALLDATASIZE PUSH1 0x4 PUSH2 0x4A71 JUMP JUMPDEST PUSH2 0x23EF JUMP JUMPDEST CALLVALUE DUP1 ISZERO PUSH2 0xA14 JUMPI PUSH0 PUSH0 REVERT JUMPDEST POP PUSH2 0x4C7 PUSH2 0xA23 CALLDATASIZE PUSH1 0x4 PUSH2 0x4A26 JUMP JUMPDEST PUSH2 0x23F9 JUMP JUMPDEST CALLVALUE DUP1 ISZERO PUSH2 0xA33 JUMPI PUSH0 PUSH0 REVERT JUMPDEST POP PUSH2 0x59D PUSH32 0x0 DUP2 JUMP JUMPDEST CALLVALUE DUP1 ISZERO PUSH2 0xA66 JUMPI PUSH0 PUSH0 REVERT JUMPDEST POP PUSH2 0x4C7 PUSH2 0xA75 CALLDATASIZE PUSH1 0x4 PUSH2 0x4A71 JUMP JUMPDEST PUSH2 0x243E JUMP JUMPDEST CALLVALUE DUP1 ISZERO PUSH2 0xA85 JUMPI PUSH0 PUSH0 REVERT JUMPDEST POP PUSH2 0x4C7 PUSH1 0xE SLOAD DUP2 JUMP JUMPDEST CALLVALUE DUP1 ISZERO PUSH2 0xA9A JUMPI PUSH0 PUSH0 REVERT JUMPDEST POP PUSH2 0x4C7 PUSH0 MLOAD PUSH1 0x20 PUSH2 0x5167 PUSH0 CODECOPY PUSH0 MLOAD SWAP1 PUSH0 MSTORE DUP2 JUMP JUMPDEST CALLVALUE DUP1 ISZERO PUSH2 0xABA JUMPI PUSH0 PUSH0 REVERT JUMPDEST POP PUSH2 0x4C7 PUSH2 0xAC9 CALLDATASIZE PUSH1 0x4 PUSH2 0x4AF2 JUMP JUMPDEST PUSH1 0x1A PUSH1 0x20 SWAP1 DUP2 MSTORE PUSH0 SWAP3 DUP4 MSTORE PUSH1 0x40 DUP1 DUP5 KECCAK256 SWAP1 SWAP2 MSTORE SWAP1 DUP3 MSTORE SWAP1 KECCAK256 SLOAD DUP2 JUMP JUMPDEST CALLVALUE DUP1 ISZERO PUSH2 0xAF0 JUMPI PUSH0 PUSH0 REVERT JUMPDEST POP PUSH2 0x528 PUSH2 0x2536 JUMP JUMPDEST CALLVALUE DUP1 ISZERO PUSH2 0xB04 JUMPI PUSH0 PUSH0 REVERT JUMPDEST POP PUSH2 0xB18 PUSH2 0xB13 CALLDATASIZE PUSH1 0x4 PUSH2 0x4A71 JUMP JUMPDEST PUSH2 0x2568 JUMP JUMPDEST PUSH1 0x40 MLOAD PUSH2 0x4D1 SWAP2 SWAP1 PUSH2 0x4C72 JUMP JUMPDEST CALLVALUE DUP1 ISZERO PUSH2 0xB30 JUMPI PUSH0 PUSH0 REVERT JUMPDEST POP PUSH2 0x59D PUSH2 0xB3F CALLDATASIZE PUSH1 0x4 PUSH2 0x4B29 JUMP JUMPDEST PUSH2 0x2634 JUMP JUMPDEST CALLVALUE DUP1 ISZERO PUSH2 0xB4F JUMPI PUSH0 PUSH0 REVERT JUMPDEST POP PUSH2 0x4F9 PUSH2 0xB5E CALLDATASIZE PUSH1 0x4 PUSH2 0x4B87 JUMP JUMPDEST PUSH2 0x264B JUMP JUMPDEST CALLVALUE DUP1 ISZERO PUSH2 0xB6E JUMPI PUSH0 PUSH0 REVERT JUMPDEST POP PUSH2 0x571 PUSH2 0x2675 JUMP JUMPDEST CALLVALUE DUP1 ISZERO PUSH2 0xB82 JUMPI PUSH0 PUSH0 REVERT JUMPDEST POP PUSH2 0x4C7 PUSH1 0x10 SLOAD DUP2 JUMP JUMPDEST CALLVALUE DUP1 ISZERO PUSH2 0xB97 JUMPI PUSH0 PUSH0 REVERT JUMPDEST POP PUSH2 0xBAB PUSH2 0xBA6 CALLDATASIZE PUSH1 0x4 PUSH2 0x4A26 JUMP JUMPDEST PUSH2 0x2684 JUMP JUMPDEST PUSH1 0x40 MLOAD PUSH2 0x4D1 SWAP3 SWAP2 SWAP1 PUSH2 0x4CD8 JUMP JUMPDEST CALLVALUE DUP1 ISZERO PUSH2 0xBC4 JUMPI PUSH0 PUSH0 REVERT JUMPDEST POP PUSH2 0x528 PUSH2 0xBD3 CALLDATASIZE PUSH1 0x4 PUSH2 0x4A26 JUMP JUMPDEST PUSH2 0x27C6 JUMP JUMPDEST CALLVALUE DUP1 ISZERO PUSH2 0xBE3 JUMPI PUSH0 PUSH0 REVERT JUMPDEST POP PUSH2 0x4C7 PUSH0 DUP2 JUMP JUMPDEST CALLVALUE DUP1 ISZERO PUSH2 0xBF6 JUMPI PUSH0 PUSH0 REVERT JUMPDEST POP PUSH2 0x528 PUSH2 0xC05 CALLDATASIZE PUSH1 0x4 PUSH2 0x4CFC JUMP JUMPDEST PUSH2 0x289D JUMP JUMPDEST CALLVALUE DUP1 ISZERO PUSH2 0xC15 JUMPI PUSH0 PUSH0 REVERT JUMPDEST POP PUSH2 0xC29 PUSH2 0xC24 CALLDATASIZE PUSH1 0x4 PUSH2 0x4A71 JUMP JUMPDEST PUSH2 0x28A8 JUMP JUMPDEST PUSH1 0x40 MLOAD PUSH2 0x4D1 SWAP2 SWAP1 PUSH2 0x4D2C JUMP JUMPDEST CALLVALUE DUP1 ISZERO PUSH2 0xC41 JUMPI PUSH0 PUSH0 REVERT JUMPDEST POP PUSH2 0x528 PUSH2 0x28C1 JUMP JUMPDEST CALLVALUE DUP1 ISZERO PUSH2 0xC55 JUMPI PUSH0 PUSH0 REVERT JUMPDEST POP PUSH2 0x528 PUSH2 0xC64 CALLDATASIZE PUSH1 0x4 PUSH2 0x4D3E JUMP JUMPDEST PUSH2 0x29C3 JUMP JUMPDEST CALLVALUE DUP1 ISZERO PUSH2 0xC74 JUMPI PUSH0 PUSH0 REVERT JUMPDEST POP PUSH1 0x12 SLOAD PUSH2 0x59D SWAP1 PUSH1 0x1 PUSH1 0x1 PUSH1 0xA0 SHL SUB AND DUP2 JUMP JUMPDEST CALLVALUE DUP1 ISZERO PUSH2 0xC93 JUMPI PUSH0 PUSH0 REVERT JUMPDEST POP PUSH2 0x528 PUSH2 0xCA2 CALLDATASIZE PUSH1 0x4 PUSH2 0x4B49 JUMP JUMPDEST PUSH2 0x2C03 JUMP JUMPDEST CALLVALUE DUP1 ISZERO PUSH2 0xCB2 JUMPI PUSH0 PUSH0 REVERT JUMPDEST POP PUSH2 0xCC6 PUSH2 0xCC1 CALLDATASIZE PUSH1 0x4 PUSH2 0x4AC8 JUMP JUMPDEST PUSH2 0x2CD7 JUMP JUMPDEST PUSH1 0x40 DUP1 MLOAD SWAP7 DUP8 MSTORE PUSH1 0x20 DUP8 ADD SWAP6 SWAP1 SWAP6 MSTORE SWAP4 DUP6 ADD SWAP3 SWAP1 SWAP3 MSTORE PUSH1 0x60 DUP5 ADD MSTORE PUSH1 0x80 DUP4 ADD MSTORE PUSH1 0xA0 DUP3 ADD MSTORE PUSH1 0xC0 ADD PUSH2 0x4D1 JUMP JUMPDEST CALLVALUE DUP1 ISZERO PUSH2 0xCFE JUMPI PUSH0 PUSH0 REVERT JUMPDEST POP PUSH2 0x528 PUSH2 0xD0D CALLDATASIZE PUSH1 0x4 PUSH2 0x4D84 JUMP JUMPDEST PUSH2 0x2D27 JUMP JUMPDEST CALLVALUE DUP1 ISZERO PUSH2 0xD1D JUMPI PUSH0 PUSH0 REVERT JUMPDEST POP PUSH2 0x4C7 PUSH2 0xD2C CALLDATASIZE PUSH1 0x4 PUSH2 0x4A26 JUMP JUMPDEST PUSH2 0x2D3F JUMP JUMPDEST CALLVALUE DUP1 ISZERO PUSH2 0xD3C JUMPI PUSH0 PUSH0 REVERT JUMPDEST POP PUSH2 0x4C7 PUSH1 0x11 SLOAD DUP2 JUMP JUMPDEST CALLVALUE DUP1 ISZERO PUSH2 0xD51 JUMPI PUSH0 PUSH0 REVERT JUMPDEST POP PUSH2 0x4C7 PUSH1 0x1D SLOAD DUP2 JUMP JUMPDEST CALLVALUE DUP1 ISZERO PUSH2 0xD66 JUMPI PUSH0 PUSH0 REVERT JUMPDEST POP PUSH2 0x571 PUSH2 0xD75 CALLDATASIZE PUSH1 0x4 PUSH2 0x4A71 JUMP JUMPDEST PUSH2 0x2DA9 JUMP JUMPDEST CALLVALUE DUP1 ISZERO PUSH2 0xD85 JUMPI PUSH0 PUSH0 REVERT JUMPDEST POP PUSH2 0x4C7 PUSH2 0xD94 CALLDATASIZE PUSH1 0x4 PUSH2 0x4A71 JUMP JUMPDEST PUSH2 0x2E19 JUMP JUMPDEST PUSH2 0x528 PUSH2 0xDA7 CALLDATASIZE PUSH1 0x4 PUSH2 0x4A26 JUMP JUMPDEST PUSH2 0x2E2F JUMP JUMPDEST CALLVALUE DUP1 ISZERO PUSH2 0xDB7 JUMPI PUSH0 PUSH0 REVERT JUMPDEST POP PUSH2 0x4F9 PUSH2 0xDC6 CALLDATASIZE PUSH1 0x4 PUSH2 0x4A26 JUMP JUMPDEST PUSH1 0x1B PUSH1 0x20 MSTORE PUSH0 SWAP1 DUP2 MSTORE PUSH1 0x40 SWAP1 KECCAK256 SLOAD PUSH1 0xFF AND DUP2 JUMP JUMPDEST CALLVALUE DUP1 ISZERO PUSH2 0xDE5 JUMPI PUSH0 PUSH0 REVERT JUMPDEST POP PUSH2 0x528 PUSH2 0xDF4 CALLDATASIZE PUSH1 0x4 PUSH2 0x4B87 JUMP JUMPDEST PUSH2 0x304B JUMP JUMPDEST CALLVALUE DUP1 ISZERO PUSH2 0xE04 JUMPI PUSH0 PUSH0 REVERT JUMPDEST POP PUSH2 0xE3C PUSH2 0xE13 CALLDATASIZE PUSH1 0x4 PUSH2 0x4A71 JUMP JUMPDEST PUSH1 0x13 PUSH1 0x20 MSTORE PUSH0 SWAP1 DUP2 MSTORE PUSH1 0x40 SWAP1 KECCAK256 DUP1 SLOAD PUSH1 0x1 DUP3 ADD SLOAD PUSH1 0x2 DUP4 ADD SLOAD PUSH1 0x3 SWAP1 SWAP4 ADD SLOAD SWAP2 SWAP3 SWAP1 SWAP2 PUSH1 0xFF AND DUP5 JUMP JUMPDEST PUSH1 0x40 DUP1 MLOAD SWAP5 DUP6 MSTORE PUSH1 0x20 DUP6 ADD SWAP4 SWAP1 SWAP4 MSTORE SWAP2 DUP4 ADD MSTORE ISZERO ISZERO PUSH1 0x60 DUP3 ADD MSTORE PUSH1 0x80 ADD PUSH2 0x4D1 JUMP JUMPDEST CALLVALUE DUP1 ISZERO PUSH2 0xE69 JUMPI PUSH0 PUSH0 REVERT JUMPDEST POP PUSH2 0x528 PUSH2 0xE78 CALLDATASIZE PUSH1 0x4 PUSH2 0x4AC8 JUMP JUMPDEST PUSH2 0x306F JUMP JUMPDEST CALLVALUE DUP1 ISZERO PUSH2 0xE88 JUMPI PUSH0 PUSH0 REVERT JUMPDEST POP PUSH2 0xC29 PUSH2 0x3100 JUMP JUMPDEST CALLVALUE DUP1 ISZERO PUSH2 0xE9C JUMPI PUSH0 PUSH0 REVERT JUMPDEST POP PUSH2 0xEB0 PUSH2 0xEAB CALLDATASIZE PUSH1 0x4 PUSH2 0x4A26 JUMP JUMPDEST PUSH2 0x315F JUMP JUMPDEST PUSH1 0x40 MLOAD PUSH2 0x4D1 SWAP2 SWAP1 PUSH2 0x4E65 JUMP JUMPDEST CALLVALUE DUP1 ISZERO PUSH2 0xEC8 JUMPI PUSH0 PUSH0 REVERT JUMPDEST POP PUSH2 0x4F9 PUSH2 0xED7 CALLDATASIZE PUSH1 0x4 PUSH2 0x4A26 JUMP JUMPDEST PUSH1 0x1 PUSH1 0x1 PUSH1 0xA0 SHL SUB AND PUSH0 SWAP1 DUP2 MSTORE PUSH1 0x1B PUSH1 0x20 MSTORE PUSH1 0x40 SWAP1 KECCAK256 SLOAD PUSH1 0xFF AND SWAP1 JUMP JUMPDEST CALLVALUE DUP1 ISZERO PUSH2 0xEFF JUMPI PUSH0 PUSH0 REVERT JUMPDEST POP PUSH2 0x528 PUSH2 0xF0E CALLDATASIZE PUSH1 0x4 PUSH2 0x4ECA JUMP JUMPDEST PUSH2 0x326A JUMP JUMPDEST CALLVALUE DUP1 ISZERO PUSH2 0xF1E JUMPI PUSH0 PUSH0 REVERT JUMPDEST POP PUSH2 0x4C7 PUSH32 0x65D7A28E3265B37A6474929F336521B332C1681B933F6CB9F3376673440D862A DUP2 JUMP JUMPDEST CALLVALUE DUP1 ISZERO PUSH2 0xF51 JUMPI PUSH0 PUSH0 REVERT JUMPDEST POP PUSH2 0x4F9 PUSH2 0xF60 CALLDATASIZE PUSH1 0x4 PUSH2 0x4AF2 JUMP JUMPDEST PUSH2 0x329D JUMP JUMPDEST CALLVALUE DUP1 ISZERO PUSH2 0xF70 JUMPI PUSH0 PUSH0 REVERT JUMPDEST POP PUSH2 0x4C7 PUSH2 0xF7F CALLDATASIZE PUSH1 0x4 PUSH2 0x4A26 JUMP JUMPDEST PUSH2 0x32CA JUMP JUMPDEST CALLVALUE DUP1 ISZERO PUSH2 0xF8F JUMPI PUSH0 PUSH0 REVERT JUMPDEST POP PUSH2 0x528 PUSH2 0xF9E CALLDATASIZE PUSH1 0x4 PUSH2 0x4A26 JUMP JUMPDEST PUSH2 0x3384 JUMP JUMPDEST CALLVALUE DUP1 ISZERO PUSH2 0xFAE JUMPI PUSH0 PUSH0 REVERT JUMPDEST POP PUSH2 0x4C7 PUSH2 0xFBD CALLDATASIZE PUSH1 0x4 PUSH2 0x4A26 JUMP JUMPDEST PUSH2 0x342D JUMP JUMPDEST CALLVALUE DUP1 ISZERO PUSH2 0xFCD JUMPI PUSH0 PUSH0 REVERT JUMPDEST POP PUSH2 0x4F9 PUSH2 0xFDC CALLDATASIZE PUSH1 0x4 PUSH2 0x4A26 JUMP JUMPDEST PUSH1 0x1C PUSH1 0x20 MSTORE PUSH0 SWAP1 DUP2 MSTORE PUSH1 0x40 SWAP1 KECCAK256 SLOAD PUSH1 0xFF AND DUP2 JUMP JUMPDEST CALLVALUE DUP1 ISZERO PUSH2 0xFFB JUMPI PUSH0 PUSH0 REVERT JUMPDEST POP PUSH2 0x59D PUSH32 0x0 DUP2 JUMP JUMPDEST CALLVALUE DUP1 ISZERO PUSH2 0x102E JUMPI PUSH0 PUSH0 REVERT JUMPDEST POP PUSH2 0x4F9 PUSH2 0x103D CALLDATASIZE PUSH1 0x4 PUSH2 0x4A26 JUMP JUMPDEST PUSH1 0x1 PUSH1 0x1 PUSH1 0xA0 SHL SUB AND PUSH0 SWAP1 DUP2 MSTORE PUSH1 0x1C PUSH1 0x20 MSTORE PUSH1 0x40 SWAP1 KECCAK256 SLOAD PUSH1 0xFF AND SWAP1 JUMP JUMPDEST PUSH1 0x15 SLOAD PUSH0 SWAP1 ISZERO PUSH2 0x109A JUMPI PUSH2 0x1094 DUP3 PUSH1 0x15 PUSH0 DUP2 SLOAD DUP2 LT PUSH2 0x107B JUMPI PUSH2 0x107B PUSH2 0x4F3B JUMP JUMPDEST PUSH0 SWAP2 DUP3 MSTORE PUSH1 0x20 SWAP1 SWAP2 KECCAK256 ADD SLOAD PUSH1 0x1 PUSH1 0x1 PUSH1 0xA0 SHL SUB AND PUSH2 0x1518 JUMP JUMPDEST SWAP3 SWAP2 POP POP JUMP JUMPDEST POP PUSH0 SWAP2 SWAP1 POP JUMP JUMPDEST PUSH0 PUSH2 0x1094 DUP3 PUSH2 0x34B8 JUMP JUMPDEST PUSH0 MLOAD PUSH1 0x20 PUSH2 0x5167 PUSH0 CODECOPY PUSH0 MLOAD SWAP1 PUSH0 MSTORE PUSH2 0x10C2 DUP2 PUSH2 0x34DC JUMP JUMPDEST PUSH0 DUP3 GT PUSH2 0x1122 JUMPI PUSH1 0x40 MLOAD PUSH3 0x461BCD PUSH1 0xE5 SHL DUP2 MSTORE PUSH1 0x20 PUSH1 0x4 DUP3 ADD MSTORE PUSH1 0x24 DUP1 DUP3 ADD MSTORE PUSH32 0x4C6F636B206475726174696F6E206D7573742062652067726561746572207468 PUSH1 0x44 DUP3 ADD MSTORE PUSH4 0x616E203 PUSH1 0xE4 SHL PUSH1 0x64 DUP3 ADD MSTORE PUSH1 0x84 ADD JUMPDEST PUSH1 0x40 MLOAD DUP1 SWAP2 SUB SWAP1 REVERT JUMPDEST PUSH1 0x10 DUP3 SWAP1 SSTORE PUSH1 0x40 MLOAD DUP3 DUP2 MSTORE PUSH32 0xBE752D502EAD9F7F68AE425A37976ABEE08F7D72A78E613D13A0C1AC153915F SWAP1 PUSH1 0x20 ADD JUMPDEST PUSH1 0x40 MLOAD DUP1 SWAP2 SUB SWAP1 LOG1 POP POP JUMP JUMPDEST PUSH1 0x60 PUSH0 DUP1 SLOAD PUSH2 0x116D SWAP1 PUSH2 0x4F4F JUMP JUMPDEST DUP1 PUSH1 0x1F ADD PUSH1 0x20 DUP1 SWAP2 DIV MUL PUSH1 0x20 ADD PUSH1 0x40 MLOAD SWAP1 DUP2 ADD PUSH1 0x40 MSTORE DUP1 SWAP3 SWAP2 SWAP1 DUP2 DUP2 MSTORE PUSH1 0x20 ADD DUP3 DUP1 SLOAD PUSH2 0x1199 SWAP1 PUSH2 0x4F4F JUMP JUMPDEST DUP1 ISZERO PUSH2 0x11E4 JUMPI DUP1 PUSH1 0x1F LT PUSH2 0x11BB JUMPI PUSH2 0x100 DUP1 DUP4 SLOAD DIV MUL DUP4 MSTORE SWAP2 PUSH1 0x20 ADD SWAP2 PUSH2 0x11E4 JUMP JUMPDEST DUP3 ADD SWAP2 SWAP1 PUSH0 MSTORE PUSH1 0x20 PUSH0 KECCAK256 SWAP1 JUMPDEST DUP2 SLOAD DUP2 MSTORE SWAP1 PUSH1 0x1 ADD SWAP1 PUSH1 0x20 ADD DUP1 DUP4 GT PUSH2 0x11C7 JUMPI DUP3 SWAP1 SUB PUSH1 0x1F AND DUP3 ADD SWAP2 JUMPDEST POP POP POP POP POP SWAP1 POP SWAP1 JUMP JUMPDEST PUSH0 PUSH2 0x11F8 DUP3 PUSH2 0x34E6 JUMP JUMPDEST POP PUSH0 DUP3 DUP2 MSTORE PUSH1 0x4 PUSH1 0x20 MSTORE PUSH1 0x40 SWAP1 KECCAK256 SLOAD PUSH1 0x1 PUSH1 0x1 PUSH1 0xA0 SHL SUB AND PUSH2 0x1094 JUMP JUMPDEST PUSH2 0x1220 DUP3 DUP3 CALLER PUSH2 0x351E JUMP JUMPDEST POP POP JUMP JUMPDEST PUSH0 PUSH0 PUSH2 0x122F DUP4 PUSH2 0x23F9 JUMP JUMPDEST SWAP1 POP PUSH0 DUP1 JUMPDEST DUP3 DUP2 LT ISZERO PUSH2 0x128F JUMPI PUSH0 PUSH2 0x1247 DUP7 DUP4 PUSH2 0x1871 JUMP JUMPDEST PUSH0 DUP2 DUP2 MSTORE PUSH1 0x13 PUSH1 0x20 MSTORE PUSH1 0x40 SWAP1 KECCAK256 PUSH1 0x3 DUP2 ADD SLOAD SWAP2 SWAP3 POP SWAP1 PUSH1 0xFF AND ISZERO DUP1 ISZERO PUSH2 0x1271 JUMPI POP DUP1 PUSH1 0x1 ADD SLOAD TIMESTAMP LT ISZERO JUMPDEST ISZERO PUSH2 0x1285 JUMPI DUP1 SLOAD PUSH2 0x1282 SWAP1 DUP6 PUSH2 0x4F9B JUMP JUMPDEST SWAP4 POP JUMPDEST POP POP PUSH1 0x1 ADD PUSH2 0x1234 JUMP JUMPDEST POP SWAP4 SWAP3 POP POP POP JUMP JUMPDEST PUSH0 PUSH2 0x12A0 PUSH2 0x352B JUMP JUMPDEST CALLER PUSH0 JUMPDEST PUSH1 0x15 SLOAD DUP2 LT ISZERO PUSH2 0x1303 JUMPI PUSH0 PUSH1 0x15 DUP3 DUP2 SLOAD DUP2 LT PUSH2 0x12C1 JUMPI PUSH2 0x12C1 PUSH2 0x4F3B JUMP JUMPDEST PUSH0 SWAP2 DUP3 MSTORE PUSH1 0x20 DUP1 DUP4 KECCAK256 SWAP1 SWAP2 ADD SLOAD PUSH1 0x1 PUSH1 0x1 PUSH1 0xA0 SHL SUB AND DUP1 DUP4 MSTORE PUSH1 0x14 SWAP1 SWAP2 MSTORE PUSH1 0x40 SWAP1 SWAP2 KECCAK256 SLOAD SWAP1 SWAP2 POP PUSH1 0xFF AND ISZERO PUSH2 0x12FA JUMPI PUSH2 0x12FA DUP2 DUP5 PUSH2 0x3555 JUMP JUMPDEST POP PUSH1 0x1 ADD PUSH2 0x12A3 JUMP JUMPDEST POP PUSH2 0x130C PUSH2 0x3646 JUMP JUMPDEST CALLER PUSH0 SWAP1 DUP2 MSTORE PUSH1 0x1B PUSH1 0x20 MSTORE PUSH1 0x40 SWAP1 KECCAK256 SLOAD PUSH1 0xFF AND ISZERO PUSH2 0x133E JUMPI CALLER PUSH1 0x40 MLOAD PUSH4 0xDF681A93 PUSH1 0xE0 SHL DUP2 MSTORE PUSH1 0x4 ADD PUSH2 0x1119 SWAP2 SWAP1 PUSH2 0x4FAE JUMP JUMPDEST CALLER PUSH0 SWAP1 DUP2 MSTORE PUSH1 0x1C PUSH1 0x20 MSTORE PUSH1 0x40 SWAP1 KECCAK256 SLOAD PUSH1 0xFF AND ISZERO PUSH2 0x1370 JUMPI CALLER PUSH1 0x40 MLOAD PUSH4 0xE34017E1 PUSH1 0xE0 SHL DUP2 MSTORE PUSH1 0x4 ADD PUSH2 0x1119 SWAP2 SWAP1 PUSH2 0x5009 JUMP JUMPDEST PUSH2 0x137B CALLER DUP6 DUP6 PUSH2 0x366A JUMP JUMPDEST SWAP2 POP POP PUSH2 0x1094 PUSH1 0x1 PUSH1 0xB SSTORE JUMP JUMPDEST PUSH0 MLOAD PUSH1 0x20 PUSH2 0x5167 PUSH0 CODECOPY PUSH0 MLOAD SWAP1 PUSH0 MSTORE PUSH2 0x139F DUP2 PUSH2 0x34DC JUMP JUMPDEST PUSH1 0x1 PUSH1 0x1 PUSH1 0xA0 SHL SUB DUP3 AND PUSH2 0x13ED JUMPI PUSH1 0x40 MLOAD PUSH3 0x461BCD PUSH1 0xE5 SHL DUP2 MSTORE PUSH1 0x20 PUSH1 0x4 DUP3 ADD MSTORE PUSH1 0x15 PUSH1 0x24 DUP3 ADD MSTORE PUSH21 0x496E76616C696420746F6B656E2061646472657373 PUSH1 0x58 SHL PUSH1 0x44 DUP3 ADD MSTORE PUSH1 0x64 ADD PUSH2 0x1119 JUMP JUMPDEST PUSH1 0x1 PUSH1 0x1 PUSH1 0xA0 SHL SUB DUP3 AND PUSH0 SWAP1 DUP2 MSTORE PUSH1 0x14 PUSH1 0x20 MSTORE PUSH1 0x40 SWAP1 KECCAK256 SLOAD PUSH1 0xFF AND ISZERO PUSH2 0x1431 JUMPI PUSH1 0x40 MLOAD PUSH4 0x1E23575 PUSH1 0xE0 SHL DUP2 MSTORE PUSH1 0x1 PUSH1 0x1 PUSH1 0xA0 SHL SUB DUP4 AND PUSH1 0x4 DUP3 ADD MSTORE PUSH1 0x24 ADD PUSH2 0x1119 JUMP JUMPDEST PUSH1 0x1 PUSH1 0x1 PUSH1 0xA0 SHL SUB DUP3 AND PUSH0 DUP2 DUP2 MSTORE PUSH1 0x14 PUSH1 0x20 SWAP1 DUP2 MSTORE PUSH1 0x40 DUP1 DUP4 KECCAK256 DUP1 SLOAD PUSH1 0xFF NOT AND PUSH1 0x1 SWAP1 DUP2 OR SWAP1 SWAP2 SSTORE PUSH1 0x15 DUP1 SLOAD SWAP2 DUP3 ADD SWAP1 SSTORE PUSH32 0x55F448FDEA98C4D29EB340757EF0A66CD03DBB9538908A6A81D96026B71EC475 ADD DUP1 SLOAD PUSH1 0x1 PUSH1 0x1 PUSH1 0xA0 SHL SUB NOT AND DUP6 OR SWAP1 SSTORE PUSH1 0x17 SWAP1 SWAP2 MSTORE DUP1 DUP3 KECCAK256 TIMESTAMP SWAP1 SSTORE MLOAD PUSH32 0xF3E4C2C64E71E6BA2EAAB9A599BCED62F9EB91D2CDA610BF41AA8C80FF2CF826 SWAP2 SWAP1 LOG2 POP POP JUMP JUMPDEST PUSH1 0x15 SLOAD PUSH0 SWAP1 ISZERO PUSH2 0x1513 JUMPI PUSH2 0x1501 PUSH1 0x15 PUSH0 DUP2 SLOAD DUP2 LT PUSH2 0x14E8 JUMPI PUSH2 0x14E8 PUSH2 0x4F3B JUMP JUMPDEST PUSH0 SWAP2 DUP3 MSTORE PUSH1 0x20 SWAP1 SWAP2 KECCAK256 ADD SLOAD PUSH1 0x1 PUSH1 0x1 PUSH1 0xA0 SHL SUB AND PUSH2 0x32CA JUMP JUMPDEST PUSH2 0x150E SWAP1 PUSH3 0x127500 PUSH2 0x504B JUMP JUMPDEST SWAP1 POP SWAP1 JUMP JUMPDEST POP PUSH0 SWAP1 JUMP JUMPDEST PUSH1 0x1 PUSH1 0x1 PUSH1 0xA0 SHL SUB DUP1 DUP4 AND PUSH0 DUP2 DUP2 MSTORE PUSH1 0x1A PUSH1 0x20 SWAP1 DUP2 MSTORE PUSH1 0x40 DUP1 DUP4 KECCAK256 SWAP5 DUP7 AND DUP1 DUP5 MSTORE SWAP5 DUP3 MSTORE DUP1 DUP4 KECCAK256 SLOAD SWAP4 DUP4 MSTORE PUSH1 0x19 DUP3 MSTORE DUP1 DUP4 KECCAK256 SWAP5 DUP4 MSTORE SWAP4 SWAP1 MSTORE SWAP2 DUP3 KECCAK256 SLOAD PUSH8 0xDE0B6B3A7640000 SWAP1 PUSH2 0x1567 DUP6 PUSH2 0x342D JUMP JUMPDEST PUSH2 0x1571 SWAP2 SWAP1 PUSH2 0x5062 JUMP JUMPDEST PUSH2 0x157A DUP7 PUSH2 0x1961 JUMP JUMPDEST PUSH2 0x1584 SWAP2 SWAP1 PUSH2 0x504B JUMP JUMPDEST PUSH2 0x158E SWAP2 SWAP1 PUSH2 0x5075 JUMP JUMPDEST PUSH2 0x1598 SWAP2 SWAP1 PUSH2 0x4F9B JUMP JUMPDEST SWAP4 SWAP3 POP POP POP JUMP JUMPDEST PUSH1 0x1 PUSH1 0x1 PUSH1 0xA0 SHL SUB DUP3 AND PUSH2 0x15C8 JUMPI PUSH1 0x40 MLOAD PUSH4 0x32505749 PUSH1 0xE1 SHL DUP2 MSTORE PUSH0 PUSH1 0x4 DUP3 ADD MSTORE PUSH1 0x24 ADD PUSH2 0x1119 JUMP JUMPDEST PUSH0 PUSH2 0x15D4 DUP4 DUP4 CALLER PUSH2 0x3803 JUMP JUMPDEST SWAP1 POP DUP4 PUSH1 0x1 PUSH1 0x1 PUSH1 0xA0 SHL SUB AND DUP2 PUSH1 0x1 PUSH1 0x1 PUSH1 0xA0 SHL SUB AND EQ PUSH2 0x1622 JUMPI PUSH1 0x40 MLOAD PUSH4 0x64283D7B PUSH1 0xE0 SHL DUP2 MSTORE PUSH1 0x1 PUSH1 0x1 PUSH1 0xA0 SHL SUB DUP1 DUP7 AND PUSH1 0x4 DUP4 ADD MSTORE PUSH1 0x24 DUP3 ADD DUP5 SWAP1 MSTORE DUP3 AND PUSH1 0x44 DUP3 ADD MSTORE PUSH1 0x64 ADD PUSH2 0x1119 JUMP JUMPDEST POP POP POP POP JUMP JUMPDEST PUSH2 0x1630 PUSH2 0x352B JUMP JUMPDEST CALLER PUSH0 JUMPDEST PUSH1 0x15 SLOAD DUP2 LT ISZERO PUSH2 0x1693 JUMPI PUSH0 PUSH1 0x15 DUP3 DUP2 SLOAD DUP2 LT PUSH2 0x1651 JUMPI PUSH2 0x1651 PUSH2 0x4F3B JUMP JUMPDEST PUSH0 SWAP2 DUP3 MSTORE PUSH1 0x20 DUP1 DUP4 KECCAK256 SWAP1 SWAP2 ADD SLOAD PUSH1 0x1 PUSH1 0x1 PUSH1 0xA0 SHL SUB AND DUP1 DUP4 MSTORE PUSH1 0x14 SWAP1 SWAP2 MSTORE PUSH1 0x40 SWAP1 SWAP2 KECCAK256 SLOAD SWAP1 SWAP2 POP PUSH1 0xFF AND ISZERO PUSH2 0x168A JUMPI PUSH2 0x168A DUP2 DUP5 PUSH2 0x3555 JUMP JUMPDEST POP PUSH1 0x1 ADD PUSH2 0x1633 JUMP JUMPDEST POP PUSH2 0x169C PUSH2 0x3646 JUMP JUMPDEST CALLER PUSH0 SWAP1 DUP2 MSTORE PUSH1 0x1B PUSH1 0x20 MSTORE PUSH1 0x40 SWAP1 KECCAK256 SLOAD PUSH1 0xFF AND ISZERO PUSH2 0x16CE JUMPI CALLER PUSH1 0x40 MLOAD PUSH4 0xDF681A93 PUSH1 0xE0 SHL DUP2 MSTORE PUSH1 0x4 ADD PUSH2 0x1119 SWAP2 SWAP1 PUSH2 0x4FAE JUMP JUMPDEST CALLER PUSH0 SWAP1 DUP2 MSTORE PUSH1 0x1C PUSH1 0x20 MSTORE PUSH1 0x40 SWAP1 KECCAK256 SLOAD PUSH1 0xFF AND ISZERO PUSH2 0x1700 JUMPI CALLER PUSH1 0x40 MLOAD PUSH4 0xE34017E1 PUSH1 0xE0 SHL DUP2 MSTORE PUSH1 0x4 ADD PUSH2 0x1119 SWAP2 SWAP1 PUSH2 0x5009 JUMP JUMPDEST CALLER PUSH2 0x170A DUP4 PUSH2 0x23EF JUMP JUMPDEST PUSH1 0x1 PUSH1 0x1 PUSH1 0xA0 SHL SUB AND EQ PUSH2 0x1734 JUMPI PUSH1 0x40 MLOAD PUSH4 0xCDA6DD47 PUSH1 0xE0 SHL DUP2 MSTORE PUSH1 0x4 DUP2 ADD DUP4 SWAP1 MSTORE PUSH1 0x24 ADD PUSH2 0x1119 JUMP JUMPDEST PUSH0 DUP3 DUP2 MSTORE PUSH1 0x13 PUSH1 0x20 MSTORE PUSH1 0x40 SWAP1 KECCAK256 PUSH1 0x3 DUP2 ADD SLOAD PUSH1 0xFF AND ISZERO PUSH2 0x176A JUMPI PUSH1 0x40 MLOAD PUSH4 0xA810FAD9 PUSH1 0xE0 SHL DUP2 MSTORE PUSH1 0x4 DUP2 ADD DUP5 SWAP1 MSTORE PUSH1 0x24 ADD PUSH2 0x1119 JUMP JUMPDEST DUP1 PUSH1 0x1 ADD SLOAD TIMESTAMP LT ISZERO PUSH2 0x179E JUMPI PUSH1 0x1 DUP2 ADD SLOAD PUSH1 0x40 MLOAD PUSH4 0x10F26041 PUSH1 0xE0 SHL DUP2 MSTORE TIMESTAMP PUSH1 0x4 DUP3 ADD MSTORE PUSH1 0x24 DUP2 ADD SWAP2 SWAP1 SWAP2 MSTORE PUSH1 0x44 ADD PUSH2 0x1119 JUMP JUMPDEST DUP1 SLOAD PUSH1 0x3 DUP3 ADD DUP1 SLOAD PUSH1 0xFF NOT AND PUSH1 0x1 OR SWAP1 SSTORE PUSH1 0xF DUP1 SLOAD DUP3 SWAP2 SWAP1 PUSH0 SWAP1 PUSH2 0x17C3 SWAP1 DUP5 SWAP1 PUSH2 0x5062 JUMP JUMPDEST SWAP1 SWAP2 SSTORE POP PUSH2 0x17D2 SWAP1 POP DUP5 PUSH2 0x3926 JUMP JUMPDEST PUSH2 0x1806 PUSH1 0x1 PUSH1 0x1 PUSH1 0xA0 SHL SUB PUSH32 0x0 AND CALLER DUP4 PUSH2 0x395E JUMP JUMPDEST PUSH1 0x40 MLOAD DUP2 DUP2 MSTORE DUP5 SWAP1 CALLER SWAP1 PUSH32 0x92CCF450A286A957AF52509BC1C9939D1A6A481783E142E41E2499F0BB66EBC6 SWAP1 PUSH1 0x20 ADD PUSH1 0x40 MLOAD DUP1 SWAP2 SUB SWAP1 LOG3 POP POP POP PUSH2 0x184A PUSH1 0x1 PUSH1 0xB SSTORE JUMP JUMPDEST POP JUMP JUMPDEST PUSH0 DUP3 DUP2 MSTORE PUSH1 0xC PUSH1 0x20 MSTORE PUSH1 0x40 SWAP1 KECCAK256 PUSH1 0x1 ADD SLOAD PUSH2 0x1867 DUP2 PUSH2 0x34DC JUMP JUMPDEST PUSH2 0x1622 DUP4 DUP4 PUSH2 0x39BD JUMP JUMPDEST PUSH0 PUSH2 0x187B DUP4 PUSH2 0x23F9 JUMP JUMPDEST DUP3 LT PUSH2 0x18AC JUMPI PUSH1 0x40 MLOAD PUSH4 0x295F44F7 PUSH1 0xE2 SHL DUP2 MSTORE PUSH1 0x1 PUSH1 0x1 PUSH1 0xA0 SHL SUB DUP5 AND PUSH1 0x4 DUP3 ADD MSTORE PUSH1 0x24 DUP2 ADD DUP4 SWAP1 MSTORE PUSH1 0x44 ADD PUSH2 0x1119 JUMP JUMPDEST POP PUSH1 0x1 PUSH1 0x1 PUSH1 0xA0 SHL SUB SWAP2 SWAP1 SWAP2 AND PUSH0 SWAP1 DUP2 MSTORE PUSH1 0x6 PUSH1 0x20 SWAP1 DUP2 MSTORE PUSH1 0x40 DUP1 DUP4 KECCAK256 SWAP4 DUP4 MSTORE SWAP3 SWAP1 MSTORE KECCAK256 SLOAD SWAP1 JUMP JUMPDEST PUSH1 0x60 PUSH0 PUSH2 0x18E0 DUP4 PUSH2 0x23F9 JUMP JUMPDEST SWAP1 POP PUSH0 DUP2 PUSH8 0xFFFFFFFFFFFFFFFF DUP2 GT ISZERO PUSH2 0x18FC JUMPI PUSH2 0x18FC PUSH2 0x4D70 JUMP JUMPDEST PUSH1 0x40 MLOAD SWAP1 DUP1 DUP3 MSTORE DUP1 PUSH1 0x20 MUL PUSH1 0x20 ADD DUP3 ADD PUSH1 0x40 MSTORE DUP1 ISZERO PUSH2 0x1925 JUMPI DUP2 PUSH1 0x20 ADD PUSH1 0x20 DUP3 MUL DUP1 CALLDATASIZE DUP4 CALLDATACOPY ADD SWAP1 POP JUMPDEST POP SWAP1 POP PUSH0 JUMPDEST DUP3 DUP2 LT ISZERO PUSH2 0x128F JUMPI PUSH2 0x193C DUP6 DUP3 PUSH2 0x1871 JUMP JUMPDEST DUP3 DUP3 DUP2 MLOAD DUP2 LT PUSH2 0x194E JUMPI PUSH2 0x194E PUSH2 0x4F3B JUMP JUMPDEST PUSH1 0x20 SWAP1 DUP2 MUL SWAP2 SWAP1 SWAP2 ADD ADD MSTORE PUSH1 0x1 ADD PUSH2 0x192A JUMP JUMPDEST PUSH0 PUSH0 PUSH2 0x196C DUP4 PUSH2 0x23F9 JUMP JUMPDEST SWAP1 POP PUSH0 DUP1 JUMPDEST DUP3 DUP2 LT ISZERO PUSH2 0x128F JUMPI PUSH0 PUSH2 0x1984 DUP7 DUP4 PUSH2 0x1871 JUMP JUMPDEST PUSH0 DUP2 DUP2 MSTORE PUSH1 0x13 PUSH1 0x20 MSTORE PUSH1 0x40 SWAP1 KECCAK256 PUSH1 0x3 ADD SLOAD SWAP1 SWAP2 POP PUSH1 0xFF AND PUSH2 0x19BA JUMPI PUSH0 DUP2 DUP2 MSTORE PUSH1 0x13 PUSH1 0x20 MSTORE PUSH1 0x40 SWAP1 KECCAK256 SLOAD PUSH2 0x19B7 SWAP1 DUP5 PUSH2 0x4F9B JUMP JUMPDEST SWAP3 POP JUMPDEST POP PUSH1 0x1 ADD PUSH2 0x1971 JUMP JUMPDEST PUSH1 0x1 PUSH1 0x1 PUSH1 0xA0 SHL SUB DUP2 AND CALLER EQ PUSH2 0x19EC JUMPI PUSH1 0x40 MLOAD PUSH4 0x334BD919 PUSH1 0xE1 SHL DUP2 MSTORE PUSH1 0x4 ADD PUSH1 0x40 MLOAD DUP1 SWAP2 SUB SWAP1 REVERT JUMPDEST PUSH2 0x19F6 DUP3 DUP3 PUSH2 0x39E8 JUMP JUMPDEST POP POP POP JUMP JUMPDEST PUSH0 MLOAD PUSH1 0x20 PUSH2 0x5167 PUSH0 CODECOPY PUSH0 MLOAD SWAP1 PUSH0 MSTORE PUSH2 0x1A12 DUP2 PUSH2 0x34DC JUMP JUMPDEST PUSH1 0x1 PUSH1 0x1 PUSH1 0xA0 SHL SUB DUP3 AND PUSH0 SWAP1 DUP2 MSTORE PUSH1 0x14 PUSH1 0x20 MSTORE PUSH1 0x40 SWAP1 KECCAK256 SLOAD PUSH1 0xFF AND PUSH2 0x1A55 JUMPI PUSH1 0x40 MLOAD PUSH4 0x751DFF97 PUSH1 0xE1 SHL DUP2 MSTORE PUSH1 0x1 PUSH1 0x1 PUSH1 0xA0 SHL SUB DUP4 AND PUSH1 0x4 DUP3 ADD MSTORE PUSH1 0x24 ADD PUSH2 0x1119 JUMP JUMPDEST PUSH1 0x1 PUSH1 0x1 PUSH1 0xA0 SHL SUB DUP3 AND PUSH0 SWAP1 DUP2 MSTORE PUSH1 0x14 PUSH1 0x20 MSTORE PUSH1 0x40 DUP2 KECCAK256 DUP1 SLOAD PUSH1 0xFF NOT AND SWAP1 SSTORE JUMPDEST PUSH1 0x15 SLOAD DUP2 LT ISZERO PUSH2 0x1B69 JUMPI DUP3 PUSH1 0x1 PUSH1 0x1 PUSH1 0xA0 SHL SUB AND PUSH1 0x15 DUP3 DUP2 SLOAD DUP2 LT PUSH2 0x1A9C JUMPI PUSH2 0x1A9C PUSH2 0x4F3B JUMP JUMPDEST PUSH0 SWAP2 DUP3 MSTORE PUSH1 0x20 SWAP1 SWAP2 KECCAK256 ADD SLOAD PUSH1 0x1 PUSH1 0x1 PUSH1 0xA0 SHL SUB AND SUB PUSH2 0x1B61 JUMPI PUSH1 0x15 DUP1 SLOAD PUSH2 0x1AC5 SWAP1 PUSH1 0x1 SWAP1 PUSH2 0x5062 JUMP JUMPDEST DUP2 SLOAD DUP2 LT PUSH2 0x1AD5 JUMPI PUSH2 0x1AD5 PUSH2 0x4F3B JUMP JUMPDEST PUSH0 SWAP2 DUP3 MSTORE PUSH1 0x20 SWAP1 SWAP2 KECCAK256 ADD SLOAD PUSH1 0x15 DUP1 SLOAD PUSH1 0x1 PUSH1 0x1 PUSH1 0xA0 SHL SUB SWAP1 SWAP3 AND SWAP2 DUP4 SWAP1 DUP2 LT PUSH2 0x1B00 JUMPI PUSH2 0x1B00 PUSH2 0x4F3B JUMP JUMPDEST SWAP1 PUSH0 MSTORE PUSH1 0x20 PUSH0 KECCAK256 ADD PUSH0 PUSH2 0x100 EXP DUP2 SLOAD DUP2 PUSH1 0x1 PUSH1 0x1 PUSH1 0xA0 SHL SUB MUL NOT AND SWAP1 DUP4 PUSH1 0x1 PUSH1 0x1 PUSH1 0xA0 SHL SUB AND MUL OR SWAP1 SSTORE POP PUSH1 0x15 DUP1 SLOAD DUP1 PUSH2 0x1B3C JUMPI PUSH2 0x1B3C PUSH2 0x5094 JUMP JUMPDEST PUSH0 DUP3 DUP2 MSTORE PUSH1 0x20 SWAP1 KECCAK256 DUP2 ADD PUSH0 NOT SWAP1 DUP2 ADD DUP1 SLOAD PUSH1 0x1 PUSH1 0x1 PUSH1 0xA0 SHL SUB NOT AND SWAP1 SSTORE ADD SWAP1 SSTORE PUSH2 0x1B69 JUMP JUMPDEST PUSH1 0x1 ADD PUSH2 0x1A75 JUMP JUMPDEST POP PUSH1 0x40 MLOAD PUSH1 0x1 PUSH1 0x1 PUSH1 0xA0 SHL SUB DUP4 AND SWAP1 PUSH32 0x66257BCEF574219C04F7C05F7A1C78D599DA10491294C92A5805C48B4CDF5009 SWAP1 PUSH0 SWAP1 LOG2 POP POP JUMP JUMPDEST PUSH32 0x65D7A28E3265B37A6474929F336521B332C1681B933F6CB9F3376673440D862A PUSH2 0x1BCB DUP2 PUSH2 0x34DC JUMP JUMPDEST PUSH2 0x184A PUSH2 0x3A13 JUMP JUMPDEST PUSH2 0x19F6 DUP4 DUP4 DUP4 PUSH1 0x40 MLOAD DUP1 PUSH1 0x20 ADD PUSH1 0x40 MSTORE DUP1 PUSH0 DUP2 MSTORE POP PUSH2 0x2D27 JUMP JUMPDEST PUSH2 0x1BF5 PUSH2 0x352B JUMP JUMPDEST PUSH2 0x1BFD PUSH2 0x3646 JUMP JUMPDEST CALLER PUSH0 SWAP1 DUP2 MSTORE PUSH1 0x1B PUSH1 0x20 MSTORE PUSH1 0x40 SWAP1 KECCAK256 SLOAD PUSH1 0xFF AND ISZERO PUSH2 0x1C2F JUMPI CALLER PUSH1 0x40 MLOAD PUSH4 0xDF681A93 PUSH1 0xE0 SHL DUP2 MSTORE PUSH1 0x4 ADD PUSH2 0x1119 SWAP2 SWAP1 PUSH2 0x4FAE JUMP JUMPDEST CALLER PUSH0 SWAP1 DUP2 MSTORE PUSH1 0x1C PUSH1 0x20 MSTORE PUSH1 0x40 SWAP1 KECCAK256 SLOAD PUSH1 0xFF AND ISZERO PUSH2 0x1C61 JUMPI CALLER PUSH1 0x40 MLOAD PUSH4 0xE34017E1 PUSH1 0xE0 SHL DUP2 MSTORE PUSH1 0x4 ADD PUSH2 0x1119 SWAP2 SWAP1 PUSH2 0x5009 JUMP JUMPDEST PUSH1 0x11 SLOAD CALLVALUE LT ISZERO PUSH2 0x1CAC JUMPI PUSH1 0x40 MLOAD PUSH3 0x461BCD PUSH1 0xE5 SHL DUP2 MSTORE PUSH1 0x20 PUSH1 0x4 DUP3 ADD MSTORE PUSH1 0x16 PUSH1 0x24 DUP3 ADD MSTORE PUSH22 0x496E73756666696369656E7420636C61696D20666565 PUSH1 0x50 SHL PUSH1 0x44 DUP3 ADD MSTORE PUSH1 0x64 ADD PUSH2 0x1119 JUMP JUMPDEST PUSH0 DUP1 JUMPDEST PUSH1 0x15 SLOAD DUP2 LT ISZERO PUSH2 0x1E1B JUMPI PUSH0 PUSH1 0x15 DUP3 DUP2 SLOAD DUP2 LT PUSH2 0x1CCD JUMPI PUSH2 0x1CCD PUSH2 0x4F3B JUMP JUMPDEST PUSH0 SWAP2 DUP3 MSTORE PUSH1 0x20 DUP1 DUP4 KECCAK256 SWAP1 SWAP2 ADD SLOAD PUSH1 0x1 PUSH1 0x1 PUSH1 0xA0 SHL SUB AND DUP1 DUP4 MSTORE PUSH1 0x14 SWAP1 SWAP2 MSTORE PUSH1 0x40 SWAP1 SWAP2 KECCAK256 SLOAD SWAP1 SWAP2 POP PUSH1 0xFF AND ISZERO PUSH2 0x1E12 JUMPI PUSH2 0x1D06 DUP2 CALLER PUSH2 0x3555 JUMP JUMPDEST CALLER PUSH0 SWAP1 DUP2 MSTORE PUSH1 0x1A PUSH1 0x20 SWAP1 DUP2 MSTORE PUSH1 0x40 DUP1 DUP4 KECCAK256 PUSH1 0x1 PUSH1 0x1 PUSH1 0xA0 SHL SUB DUP6 AND DUP5 MSTORE SWAP1 SWAP2 MSTORE SWAP1 KECCAK256 SLOAD DUP1 ISZERO PUSH2 0x1E10 JUMPI CALLER PUSH0 DUP2 DUP2 MSTORE PUSH1 0x1A PUSH1 0x20 SWAP1 DUP2 MSTORE PUSH1 0x40 DUP1 DUP4 KECCAK256 PUSH1 0x1 PUSH1 0x1 PUSH1 0xA0 SHL SUB DUP8 DUP2 AND DUP6 MSTORE SWAP3 MSTORE DUP1 DUP4 KECCAK256 SWAP3 SWAP1 SWAP3 SSTORE SWAP1 MLOAD PUSH4 0xCD8515CF PUSH1 0xE0 SHL DUP2 MSTORE PUSH32 0x0 SWAP1 SWAP2 AND SWAP2 PUSH4 0xCD8515CF SWAP2 PUSH2 0x1D9E SWAP2 SWAP1 DUP7 SWAP1 DUP7 SWAP1 PUSH1 0x4 ADD PUSH2 0x50A8 JUMP JUMPDEST PUSH0 PUSH1 0x40 MLOAD DUP1 DUP4 SUB DUP2 PUSH0 DUP8 DUP1 EXTCODESIZE ISZERO DUP1 ISZERO PUSH2 0x1DB5 JUMPI PUSH0 PUSH0 REVERT JUMPDEST POP GAS CALL ISZERO DUP1 ISZERO PUSH2 0x1DC7 JUMPI RETURNDATASIZE PUSH0 PUSH0 RETURNDATACOPY RETURNDATASIZE PUSH0 REVERT JUMPDEST POP POP PUSH1 0x40 MLOAD DUP4 DUP2 MSTORE PUSH1 0x1 PUSH1 0x1 PUSH1 0xA0 SHL SUB DUP6 AND SWAP3 POP CALLER SWAP2 POP PUSH32 0x540798DF468D7B23D11F156FDB954CB19AD414D150722A7B6D55BA369DEA792E SWAP1 PUSH1 0x20 ADD PUSH1 0x40 MLOAD DUP1 SWAP2 SUB SWAP1 LOG3 PUSH1 0x1 SWAP4 POP JUMPDEST POP JUMPDEST POP PUSH1 0x1 ADD PUSH2 0x1CAF JUMP JUMPDEST POP PUSH0 CALLVALUE GT DUP1 ISZERO PUSH2 0x1E28 JUMPI POP DUP1 JUMPDEST ISZERO PUSH2 0x1E65 JUMPI PUSH1 0x12 SLOAD PUSH1 0x40 MLOAD PUSH1 0x1 PUSH1 0x1 PUSH1 0xA0 SHL SUB SWAP1 SWAP2 AND SWAP1 CALLVALUE DUP1 ISZERO PUSH2 0x8FC MUL SWAP2 PUSH0 DUP2 DUP2 DUP2 DUP6 DUP9 DUP9 CALL SWAP4 POP POP POP POP ISZERO DUP1 ISZERO PUSH2 0x1E63 JUMPI RETURNDATASIZE PUSH0 PUSH0 RETURNDATACOPY RETURNDATASIZE PUSH0 REVERT JUMPDEST POP JUMPDEST POP PUSH2 0x1E70 PUSH1 0x1 PUSH1 0xB SSTORE JUMP JUMPDEST JUMP JUMPDEST PUSH0 PUSH2 0x1E7C PUSH1 0x8 SLOAD SWAP1 JUMP JUMPDEST DUP3 LT PUSH2 0x1EA4 JUMPI PUSH1 0x40 MLOAD PUSH4 0x295F44F7 PUSH1 0xE2 SHL DUP2 MSTORE PUSH0 PUSH1 0x4 DUP3 ADD MSTORE PUSH1 0x24 DUP2 ADD DUP4 SWAP1 MSTORE PUSH1 0x44 ADD PUSH2 0x1119 JUMP JUMPDEST PUSH1 0x8 DUP3 DUP2 SLOAD DUP2 LT PUSH2 0x1EB7 JUMPI PUSH2 0x1EB7 PUSH2 0x4F3B JUMP JUMPDEST SWAP1 PUSH0 MSTORE PUSH1 0x20 PUSH0 KECCAK256 ADD SLOAD SWAP1 POP SWAP2 SWAP1 POP JUMP JUMPDEST PUSH0 MLOAD PUSH1 0x20 PUSH2 0x5167 PUSH0 CODECOPY PUSH0 MLOAD SWAP1 PUSH0 MSTORE PUSH2 0x1EDE DUP2 PUSH2 0x34DC JUMP JUMPDEST PUSH1 0x11 DUP3 SWAP1 SSTORE PUSH1 0x40 MLOAD DUP3 DUP2 MSTORE PUSH32 0xC4530A2C82A973DA2165D940859F86F630CA14E4EA7679C03BED6A999D029BF1 SWAP1 PUSH1 0x20 ADD PUSH2 0x1153 JUMP JUMPDEST PUSH0 MLOAD PUSH1 0x20 PUSH2 0x5167 PUSH0 CODECOPY PUSH0 MLOAD SWAP1 PUSH0 MSTORE PUSH2 0x1F2A DUP2 PUSH2 0x34DC JUMP JUMPDEST PUSH2 0x1F3E PUSH1 0x1 PUSH1 0x1 PUSH1 0xA0 SHL SUB DUP6 AND DUP5 DUP5 PUSH2 0x395E JUMP JUMPDEST DUP3 PUSH1 0x1 PUSH1 0x1 PUSH1 0xA0 SHL SUB AND DUP5 PUSH1 0x1 PUSH1 0x1 PUSH1 0xA0 SHL SUB AND CALLER PUSH1 0x1 PUSH1 0x1 PUSH1 0xA0 SHL SUB AND PUSH32 0x2503BF16A63C716AFC6165935443FDBFCDA0BFAE53B99AE0935BC46D1298BB86 DUP6 PUSH1 0x40 MLOAD PUSH2 0x1F8D SWAP2 DUP2 MSTORE PUSH1 0x20 ADD SWAP1 JUMP JUMPDEST PUSH1 0x40 MLOAD DUP1 SWAP2 SUB SWAP1 LOG4 POP POP POP POP JUMP JUMPDEST PUSH0 MLOAD PUSH1 0x20 PUSH2 0x5167 PUSH0 CODECOPY PUSH0 MLOAD SWAP1 PUSH0 MSTORE PUSH2 0x1FB2 DUP2 PUSH2 0x34DC JUMP JUMPDEST PUSH1 0x1 PUSH1 0x1 PUSH1 0xA0 SHL SUB DUP3 AND PUSH0 DUP2 DUP2 MSTORE PUSH1 0x1C PUSH1 0x20 MSTORE PUSH1 0x40 DUP1 DUP3 KECCAK256 DUP1 SLOAD PUSH1 0xFF NOT AND SWAP1 SSTORE MLOAD PUSH32 0x1747CA720B1A174A464B6513ACE29B1D3190B5F632B9F34147017C81425BFDE8 SWAP2 SWAP1 LOG2 POP POP JUMP JUMPDEST PUSH1 0x1 PUSH1 0x1 PUSH1 0xA0 SHL SUB DUP2 AND PUSH0 SWAP1 DUP2 MSTORE PUSH1 0x16 PUSH1 0x20 SWAP1 DUP2 MSTORE PUSH1 0x40 DUP1 DUP4 KECCAK256 DUP1 SLOAD DUP3 MLOAD DUP2 DUP6 MUL DUP2 ADD DUP6 ADD SWAP1 SWAP4 MSTORE DUP1 DUP4 MSTORE PUSH1 0x60 SWAP5 SWAP3 SWAP4 SWAP2 SWAP3 SWAP1 SWAP2 DUP5 ADD JUMPDEST DUP3 DUP3 LT ISZERO PUSH2 0x209D JUMPI DUP4 DUP3 SWAP1 PUSH0 MSTORE PUSH1 0x20 PUSH0 KECCAK256 SWAP1 PUSH1 0x6 MUL ADD PUSH1 0x40 MLOAD DUP1 PUSH1 0xC0 ADD PUSH1 0x40 MSTORE SWAP1 DUP2 PUSH0 DUP3 ADD SLOAD DUP2 MSTORE PUSH1 0x20 ADD PUSH1 0x1 DUP3 ADD SLOAD DUP2 MSTORE PUSH1 0x20 ADD PUSH1 0x2 DUP3 ADD SLOAD DUP2 MSTORE PUSH1 0x20 ADD PUSH1 0x3 DUP3 ADD SLOAD DUP2 MSTORE PUSH1 0x20 ADD PUSH1 0x4 DUP3 ADD SLOAD DUP2 MSTORE PUSH1 0x20 ADD PUSH1 0x5 DUP3 ADD SLOAD DUP2 MSTORE POP POP DUP2 MSTORE PUSH1 0x20 ADD SWAP1 PUSH1 0x1 ADD SWAP1 PUSH2 0x2032 JUMP JUMPDEST POP POP POP POP SWAP1 POP SWAP2 SWAP1 POP JUMP JUMPDEST PUSH1 0x15 DUP2 DUP2 SLOAD DUP2 LT PUSH2 0x20B7 JUMPI PUSH0 DUP1 REVERT JUMPDEST PUSH0 SWAP2 DUP3 MSTORE PUSH1 0x20 SWAP1 SWAP2 KECCAK256 ADD SLOAD PUSH1 0x1 PUSH1 0x1 PUSH1 0xA0 SHL SUB AND SWAP1 POP DUP2 JUMP JUMPDEST PUSH32 0x92DE27771F92D6942691D73358B3A4673E4880DE8356F8F2CF452BE87E02D363 PUSH2 0x20FA DUP2 PUSH2 0x34DC JUMP JUMPDEST PUSH1 0x1 PUSH1 0x1 PUSH1 0xA0 SHL SUB DUP3 AND PUSH0 SWAP1 DUP2 MSTORE PUSH1 0x1B PUSH1 0x20 MSTORE PUSH1 0x40 SWAP1 KECCAK256 SLOAD PUSH1 0xFF AND PUSH2 0x214E JUMPI PUSH1 0x40 MLOAD PUSH3 0x461BCD PUSH1 0xE5 SHL DUP2 MSTORE PUSH1 0x20 PUSH1 0x4 DUP3 ADD MSTORE PUSH1 0xA PUSH1 0x24 DUP3 ADD MSTORE PUSH10 0x2737BA10333937BD32B7 PUSH1 0xB1 SHL PUSH1 0x44 DUP3 ADD MSTORE PUSH1 0x64 ADD PUSH2 0x1119 JUMP JUMPDEST PUSH1 0x1 PUSH1 0x1 PUSH1 0xA0 SHL SUB DUP3 AND PUSH0 DUP2 DUP2 MSTORE PUSH1 0x1B PUSH1 0x20 MSTORE PUSH1 0x40 SWAP1 DUP2 SWAP1 KECCAK256 DUP1 SLOAD PUSH1 0xFF NOT AND SWAP1 SSTORE MLOAD PUSH32 0xE9D414CB75F78AACBB354C06488F105D0C3F5461B45C70B59FC05B44844F264E SWAP1 PUSH2 0x219F SWAP1 TIMESTAMP DUP2 MSTORE PUSH1 0x20 ADD SWAP1 JUMP JUMPDEST PUSH1 0x40 MLOAD DUP1 SWAP2 SUB SWAP1 LOG2 POP POP JUMP JUMPDEST PUSH0 MLOAD PUSH1 0x20 PUSH2 0x5167 PUSH0 CODECOPY PUSH0 MLOAD SWAP1 PUSH0 MSTORE PUSH2 0x21C2 DUP2 PUSH2 0x34DC JUMP JUMPDEST DUP2 PUSH0 JUMPDEST PUSH1 0x15 SLOAD DUP2 LT ISZERO PUSH2 0x2225 JUMPI PUSH0 PUSH1 0x15 DUP3 DUP2 SLOAD DUP2 LT PUSH2 0x21E3 JUMPI PUSH2 0x21E3 PUSH2 0x4F3B JUMP JUMPDEST PUSH0 SWAP2 DUP3 MSTORE PUSH1 0x20 DUP1 DUP4 KECCAK256 SWAP1 SWAP2 ADD SLOAD PUSH1 0x1 PUSH1 0x1 PUSH1 0xA0 SHL SUB AND DUP1 DUP4 MSTORE PUSH1 0x14 SWAP1 SWAP2 MSTORE PUSH1 0x40 SWAP1 SWAP2 KECCAK256 SLOAD SWAP1 SWAP2 POP PUSH1 0xFF AND ISZERO PUSH2 0x221C JUMPI PUSH2 0x221C DUP2 DUP5 PUSH2 0x3555 JUMP JUMPDEST POP PUSH1 0x1 ADD PUSH2 0x21C5 JUMP JUMPDEST POP PUSH1 0x1 PUSH1 0x1 PUSH1 0xA0 SHL SUB DUP4 AND PUSH0 SWAP1 DUP2 MSTORE PUSH1 0x1C PUSH1 0x20 MSTORE PUSH1 0x40 DUP2 KECCAK256 DUP1 SLOAD PUSH1 0xFF NOT AND PUSH1 0x1 OR SWAP1 SSTORE PUSH2 0x2251 DUP5 PUSH2 0x23F9 JUMP JUMPDEST SWAP1 POP PUSH0 DUP2 ISZERO PUSH2 0x23B5 JUMPI PUSH0 JUMPDEST DUP3 DUP2 LT ISZERO PUSH2 0x22CF JUMPI PUSH0 PUSH2 0x226F DUP8 DUP4 PUSH2 0x1871 JUMP JUMPDEST PUSH0 DUP2 DUP2 MSTORE PUSH1 0x13 PUSH1 0x20 MSTORE PUSH1 0x40 SWAP1 KECCAK256 PUSH1 0x3 DUP2 ADD SLOAD SWAP2 SWAP3 POP SWAP1 PUSH1 0xFF AND PUSH2 0x22C5 JUMPI DUP1 SLOAD PUSH2 0x2298 SWAP1 DUP6 PUSH2 0x4F9B JUMP JUMPDEST PUSH1 0x3 DUP3 ADD DUP1 SLOAD PUSH1 0xFF NOT AND PUSH1 0x1 OR SWAP1 SSTORE DUP2 SLOAD PUSH1 0xF DUP1 SLOAD SWAP3 SWAP7 POP SWAP1 SWAP2 PUSH0 SWAP1 PUSH2 0x22BF SWAP1 DUP5 SWAP1 PUSH2 0x5062 JUMP JUMPDEST SWAP1 SWAP2 SSTORE POP POP JUMPDEST POP POP PUSH1 0x1 ADD PUSH2 0x225C JUMP JUMPDEST POP PUSH0 JUMPDEST PUSH1 0x15 SLOAD DUP2 LT ISZERO PUSH2 0x2336 JUMPI PUSH1 0x1 PUSH1 0x1 PUSH1 0xA0 SHL SUB DUP7 AND PUSH0 SWAP1 DUP2 MSTORE PUSH1 0x1A PUSH1 0x20 MSTORE PUSH1 0x40 DUP2 KECCAK256 PUSH1 0x15 DUP1 SLOAD DUP4 SWAP2 SWAP1 DUP6 SWAP1 DUP2 LT PUSH2 0x230A JUMPI PUSH2 0x230A PUSH2 0x4F3B JUMP JUMPDEST PUSH0 SWAP2 DUP3 MSTORE PUSH1 0x20 DUP1 DUP4 KECCAK256 SWAP1 SWAP2 ADD SLOAD PUSH1 0x1 PUSH1 0x1 PUSH1 0xA0 SHL SUB AND DUP4 MSTORE DUP3 ADD SWAP3 SWAP1 SWAP3 MSTORE PUSH1 0x40 ADD SWAP1 KECCAK256 SSTORE PUSH1 0x1 ADD PUSH2 0x22D2 JUMP JUMPDEST POP DUP1 ISZERO PUSH2 0x23B5 JUMPI PUSH2 0x2371 PUSH1 0x1 PUSH1 0x1 PUSH1 0xA0 SHL SUB PUSH32 0x0 AND DUP7 DUP4 PUSH2 0x395E JUMP JUMPDEST DUP5 PUSH1 0x1 PUSH1 0x1 PUSH1 0xA0 SHL SUB AND PUSH32 0xF7D69068585EAD05D609F5965C9147570964EA979546EE5B072F31B7C31A6EE5 DUP3 PUSH1 0x40 MLOAD PUSH2 0x23AC SWAP2 DUP2 MSTORE PUSH1 0x20 ADD SWAP1 JUMP JUMPDEST PUSH1 0x40 MLOAD DUP1 SWAP2 SUB SWAP1 LOG2 JUMPDEST PUSH1 0x40 MLOAD PUSH1 0x1 PUSH1 0x1 PUSH1 0xA0 SHL SUB DUP7 AND SWAP1 PUSH32 0x44D5FE68B00F68950FB9C1FF0A61EF7F747B1A36359A7E3A7F3324DB4B878967 SWAP1 PUSH0 SWAP1 LOG2 POP POP POP POP POP JUMP JUMPDEST PUSH0 PUSH2 0x1094 DUP3 PUSH2 0x34E6 JUMP JUMPDEST PUSH0 PUSH1 0x1 PUSH1 0x1 PUSH1 0xA0 SHL SUB DUP3 AND PUSH2 0x2423 JUMPI PUSH1 0x40 MLOAD PUSH4 0x22718AD9 PUSH1 0xE2 SHL DUP2 MSTORE PUSH0 PUSH1 0x4 DUP3 ADD MSTORE PUSH1 0x24 ADD PUSH2 0x1119 JUMP JUMPDEST POP PUSH1 0x1 PUSH1 0x1 PUSH1 0xA0 SHL SUB AND PUSH0 SWAP1 DUP2 MSTORE PUSH1 0x3 PUSH1 0x20 MSTORE PUSH1 0x40 SWAP1 KECCAK256 SLOAD SWAP1 JUMP JUMPDEST PUSH0 PUSH2 0x2447 PUSH2 0x352B JUMP JUMPDEST CALLER PUSH0 JUMPDEST PUSH1 0x15 SLOAD DUP2 LT ISZERO PUSH2 0x24AA JUMPI PUSH0 PUSH1 0x15 DUP3 DUP2 SLOAD DUP2 LT PUSH2 0x2468 JUMPI PUSH2 0x2468 PUSH2 0x4F3B JUMP JUMPDEST PUSH0 SWAP2 DUP3 MSTORE PUSH1 0x20 DUP1 DUP4 KECCAK256 SWAP1 SWAP2 ADD SLOAD PUSH1 0x1 PUSH1 0x1 PUSH1 0xA0 SHL SUB AND DUP1 DUP4 MSTORE PUSH1 0x14 SWAP1 SWAP2 MSTORE PUSH1 0x40 SWAP1 SWAP2 KECCAK256 SLOAD SWAP1 SWAP2 POP PUSH1 0xFF AND ISZERO PUSH2 0x24A1 JUMPI PUSH2 0x24A1 DUP2 DUP5 PUSH2 0x3555 JUMP JUMPDEST POP PUSH1 0x1 ADD PUSH2 0x244A JUMP JUMPDEST POP PUSH2 0x24B3 PUSH2 0x3646 JUMP JUMPDEST CALLER PUSH0 SWAP1 DUP2 MSTORE PUSH1 0x1B PUSH1 0x20 MSTORE PUSH1 0x40 SWAP1 KECCAK256 SLOAD PUSH1 0xFF AND ISZERO PUSH2 0x24E5 JUMPI CALLER PUSH1 0x40 MLOAD PUSH4 0xDF681A93 PUSH1 0xE0 SHL DUP2 MSTORE PUSH1 0x4 ADD PUSH2 0x1119 SWAP2 SWAP1 PUSH2 0x4FAE JUMP JUMPDEST CALLER PUSH0 SWAP1 DUP2 MSTORE PUSH1 0x1C PUSH1 0x20 MSTORE PUSH1 0x40 SWAP1 KECCAK256 SLOAD PUSH1 0xFF AND ISZERO PUSH2 0x2517 JUMPI CALLER PUSH1 0x40 MLOAD PUSH4 0xE34017E1 PUSH1 0xE0 SHL DUP2 MSTORE PUSH1 0x4 ADD PUSH2 0x1119 SWAP2 SWAP1 PUSH2 0x5009 JUMP JUMPDEST PUSH2 0x2524 CALLER DUP5 PUSH1 0x10 SLOAD PUSH2 0x366A JUMP JUMPDEST SWAP2 POP POP PUSH2 0x2531 PUSH1 0x1 PUSH1 0xB SSTORE JUMP JUMPDEST SWAP2 SWAP1 POP JUMP JUMPDEST PUSH32 0x65D7A28E3265B37A6474929F336521B332C1681B933F6CB9F3376673440D862A PUSH2 0x2560 DUP2 PUSH2 0x34DC JUMP JUMPDEST PUSH2 0x184A PUSH2 0x3A65 JUMP JUMPDEST PUSH2 0x2591 PUSH1 0x40 MLOAD DUP1 PUSH1 0x80 ADD PUSH1 0x40 MSTORE DUP1 PUSH0 DUP2 MSTORE PUSH1 0x20 ADD PUSH0 DUP2 MSTORE PUSH1 0x20 ADD PUSH0 DUP2 MSTORE PUSH1 0x20 ADD PUSH0 ISZERO ISZERO DUP2 MSTORE POP SWAP1 JUMP JUMPDEST PUSH0 DUP3 DUP2 MSTORE PUSH1 0x2 PUSH1 0x20 MSTORE PUSH1 0x40 SWAP1 KECCAK256 SLOAD PUSH1 0x1 PUSH1 0x1 PUSH1 0xA0 SHL SUB AND PUSH2 0x25EB JUMPI PUSH1 0x40 MLOAD PUSH3 0x461BCD PUSH1 0xE5 SHL DUP2 MSTORE PUSH1 0x20 PUSH1 0x4 DUP3 ADD MSTORE PUSH1 0x14 PUSH1 0x24 DUP3 ADD MSTORE PUSH20 0x151BDAD95B88191BD95CC81B9BDD08195E1A5CDD PUSH1 0x62 SHL PUSH1 0x44 DUP3 ADD MSTORE PUSH1 0x64 ADD PUSH2 0x1119 JUMP JUMPDEST POP PUSH0 SWAP1 DUP2 MSTORE PUSH1 0x13 PUSH1 0x20 SWAP1 DUP2 MSTORE PUSH1 0x40 SWAP2 DUP3 SWAP1 KECCAK256 DUP3 MLOAD PUSH1 0x80 DUP2 ADD DUP5 MSTORE DUP2 SLOAD DUP2 MSTORE PUSH1 0x1 DUP3 ADD SLOAD SWAP3 DUP2 ADD SWAP3 SWAP1 SWAP3 MSTORE PUSH1 0x2 DUP2 ADD SLOAD SWAP3 DUP3 ADD SWAP3 SWAP1 SWAP3 MSTORE PUSH1 0x3 SWAP1 SWAP2 ADD SLOAD PUSH1 0xFF AND ISZERO ISZERO PUSH1 0x60 DUP3 ADD MSTORE SWAP1 JUMP JUMPDEST PUSH0 DUP3 DUP2 MSTORE PUSH1 0xD PUSH1 0x20 MSTORE PUSH1 0x40 DUP2 KECCAK256 PUSH2 0x1598 SWAP1 DUP4 PUSH2 0x3AA2 JUMP JUMPDEST PUSH0 SWAP2 DUP3 MSTORE PUSH1 0xC PUSH1 0x20 SWAP1 DUP2 MSTORE PUSH1 0x40 DUP1 DUP5 KECCAK256 PUSH1 0x1 PUSH1 0x1 PUSH1 0xA0 SHL SUB SWAP4 SWAP1 SWAP4 AND DUP5 MSTORE SWAP2 SWAP1 MSTORE SWAP1 KECCAK256 SLOAD PUSH1 0xFF AND SWAP1 JUMP JUMPDEST PUSH1 0x60 PUSH1 0x1 DUP1 SLOAD PUSH2 0x116D SWAP1 PUSH2 0x4F4F JUMP JUMPDEST PUSH1 0x15 SLOAD PUSH1 0x60 SWAP1 DUP2 SWAP1 PUSH8 0xFFFFFFFFFFFFFFFF DUP2 GT ISZERO PUSH2 0x26A4 JUMPI PUSH2 0x26A4 PUSH2 0x4D70 JUMP JUMPDEST PUSH1 0x40 MLOAD SWAP1 DUP1 DUP3 MSTORE DUP1 PUSH1 0x20 MUL PUSH1 0x20 ADD DUP3 ADD PUSH1 0x40 MSTORE DUP1 ISZERO PUSH2 0x26CD JUMPI DUP2 PUSH1 0x20 ADD PUSH1 0x20 DUP3 MUL DUP1 CALLDATASIZE DUP4 CALLDATACOPY ADD SWAP1 POP JUMPDEST POP PUSH1 0x15 SLOAD SWAP1 SWAP3 POP PUSH8 0xFFFFFFFFFFFFFFFF DUP2 GT ISZERO PUSH2 0x26EC JUMPI PUSH2 0x26EC PUSH2 0x4D70 JUMP JUMPDEST PUSH1 0x40 MLOAD SWAP1 DUP1 DUP3 MSTORE DUP1 PUSH1 0x20 MUL PUSH1 0x20 ADD DUP3 ADD PUSH1 0x40 MSTORE DUP1 ISZERO PUSH2 0x2715 JUMPI DUP2 PUSH1 0x20 ADD PUSH1 0x20 DUP3 MUL DUP1 CALLDATASIZE DUP4 CALLDATACOPY ADD SWAP1 POP JUMPDEST POP SWAP1 POP PUSH0 JUMPDEST PUSH1 0x15 SLOAD DUP2 LT ISZERO PUSH2 0x27C0 JUMPI PUSH1 0x15 DUP2 DUP2 SLOAD DUP2 LT PUSH2 0x2737 JUMPI PUSH2 0x2737 PUSH2 0x4F3B JUMP JUMPDEST SWAP1 PUSH0 MSTORE PUSH1 0x20 PUSH0 KECCAK256 ADD PUSH0 SWAP1 SLOAD SWAP1 PUSH2 0x100 EXP SWAP1 DIV PUSH1 0x1 PUSH1 0x1 PUSH1 0xA0 SHL SUB AND DUP4 DUP3 DUP2 MLOAD DUP2 LT PUSH2 0x2764 JUMPI PUSH2 0x2764 PUSH2 0x4F3B JUMP JUMPDEST PUSH1 0x20 MUL PUSH1 0x20 ADD ADD SWAP1 PUSH1 0x1 PUSH1 0x1 PUSH1 0xA0 SHL SUB AND SWAP1 DUP2 PUSH1 0x1 PUSH1 0x1 PUSH1 0xA0 SHL SUB AND DUP2 MSTORE POP POP PUSH2 0x279B DUP5 PUSH1 0x15 DUP4 DUP2 SLOAD DUP2 LT PUSH2 0x107B JUMPI PUSH2 0x107B PUSH2 0x4F3B JUMP JUMPDEST DUP3 DUP3 DUP2 MLOAD DUP2 LT PUSH2 0x27AD JUMPI PUSH2 0x27AD PUSH2 0x4F3B JUMP JUMPDEST PUSH1 0x20 SWAP1 DUP2 MUL SWAP2 SWAP1 SWAP2 ADD ADD MSTORE PUSH1 0x1 ADD PUSH2 0x271A JUMP JUMPDEST POP SWAP2 POP SWAP2 JUMP JUMPDEST PUSH32 0x92DE27771F92D6942691D73358B3A4673E4880DE8356F8F2CF452BE87E02D363 PUSH2 0x27F0 DUP2 PUSH2 0x34DC JUMP JUMPDEST PUSH1 0x1 PUSH1 0x1 PUSH1 0xA0 SHL SUB DUP3 AND PUSH0 SWAP1 DUP2 MSTORE PUSH1 0x1B PUSH1 0x20 MSTORE PUSH1 0x40 SWAP1 KECCAK256 SLOAD PUSH1 0xFF AND ISZERO PUSH2 0x2849 JUMPI PUSH1 0x40 MLOAD PUSH3 0x461BCD PUSH1 0xE5 SHL DUP2 MSTORE PUSH1 0x20 PUSH1 0x4 DUP3 ADD MSTORE PUSH1 0xE PUSH1 0x24 DUP3 ADD MSTORE PUSH14 0x20B63932B0B23C90333937BD32B7 PUSH1 0x91 SHL PUSH1 0x44 DUP3 ADD MSTORE PUSH1 0x64 ADD PUSH2 0x1119 JUMP JUMPDEST PUSH1 0x1 PUSH1 0x1 PUSH1 0xA0 SHL SUB DUP3 AND PUSH0 DUP2 DUP2 MSTORE PUSH1 0x1B PUSH1 0x20 MSTORE PUSH1 0x40 SWAP1 DUP2 SWAP1 KECCAK256 DUP1 SLOAD PUSH1 0xFF NOT AND PUSH1 0x1 OR SWAP1 SSTORE MLOAD PUSH32 0xB161C4AA40CD54B43336C4B57F33A7308A27AA65D081C1AAFACC49B51002659D SWAP1 PUSH2 0x219F SWAP1 TIMESTAMP DUP2 MSTORE PUSH1 0x20 ADD SWAP1 JUMP JUMPDEST PUSH2 0x1220 CALLER DUP4 DUP4 PUSH2 0x3AAD JUMP JUMPDEST PUSH0 DUP2 DUP2 MSTORE PUSH1 0xD PUSH1 0x20 MSTORE PUSH1 0x40 SWAP1 KECCAK256 PUSH1 0x60 SWAP1 PUSH2 0x1094 SWAP1 PUSH2 0x3B43 JUMP JUMPDEST PUSH0 PUSH2 0x28CB CALLER PUSH2 0x23F9 JUMP JUMPDEST SWAP1 POP PUSH0 DUP2 PUSH8 0xFFFFFFFFFFFFFFFF DUP2 GT ISZERO PUSH2 0x28E7 JUMPI PUSH2 0x28E7 PUSH2 0x4D70 JUMP JUMPDEST PUSH1 0x40 MLOAD SWAP1 DUP1 DUP3 MSTORE DUP1 PUSH1 0x20 MUL PUSH1 0x20 ADD DUP3 ADD PUSH1 0x40 MSTORE DUP1 ISZERO PUSH2 0x2910 JUMPI DUP2 PUSH1 0x20 ADD PUSH1 0x20 DUP3 MUL DUP1 CALLDATASIZE DUP4 CALLDATACOPY ADD SWAP1 POP JUMPDEST POP SWAP1 POP PUSH0 DUP1 JUMPDEST DUP4 DUP2 LT ISZERO PUSH2 0x298E JUMPI PUSH0 PUSH2 0x2929 CALLER DUP4 PUSH2 0x1871 JUMP JUMPDEST PUSH0 DUP2 DUP2 MSTORE PUSH1 0x13 PUSH1 0x20 MSTORE PUSH1 0x40 SWAP1 KECCAK256 PUSH1 0x3 DUP2 ADD SLOAD SWAP2 SWAP3 POP SWAP1 PUSH1 0xFF AND ISZERO DUP1 ISZERO PUSH2 0x2953 JUMPI POP DUP1 PUSH1 0x1 ADD SLOAD TIMESTAMP LT ISZERO JUMPDEST ISZERO PUSH2 0x2984 JUMPI DUP2 DUP6 DUP6 DUP2 MLOAD DUP2 LT PUSH2 0x296B JUMPI PUSH2 0x296B PUSH2 0x4F3B JUMP JUMPDEST PUSH1 0x20 SWAP1 DUP2 MUL SWAP2 SWAP1 SWAP2 ADD ADD MSTORE DUP4 PUSH2 0x2980 DUP2 PUSH2 0x50CC JUMP JUMPDEST SWAP5 POP POP JUMPDEST POP POP PUSH1 0x1 ADD PUSH2 0x2916 JUMP JUMPDEST POP PUSH0 JUMPDEST DUP2 DUP2 LT ISZERO PUSH2 0x1622 JUMPI PUSH2 0x29BB DUP4 DUP3 DUP2 MLOAD DUP2 LT PUSH2 0x29AE JUMPI PUSH2 0x29AE PUSH2 0x4F3B JUMP JUMPDEST PUSH1 0x20 MUL PUSH1 0x20 ADD ADD MLOAD PUSH2 0x1628 JUMP JUMPDEST PUSH1 0x1 ADD PUSH2 0x2991 JUMP JUMPDEST PUSH0 MLOAD PUSH1 0x20 PUSH2 0x5167 PUSH0 CODECOPY PUSH0 MLOAD SWAP1 PUSH0 MSTORE PUSH2 0x29DA DUP2 PUSH2 0x34DC JUMP JUMPDEST DUP4 PUSH0 PUSH2 0x29E6 DUP3 DUP3 PUSH2 0x3555 JUMP JUMPDEST PUSH1 0x1 PUSH1 0x1 PUSH1 0xA0 SHL SUB DUP7 AND PUSH0 SWAP1 DUP2 MSTORE PUSH1 0x14 PUSH1 0x20 MSTORE PUSH1 0x40 SWAP1 KECCAK256 SLOAD PUSH1 0xFF AND PUSH2 0x2A29 JUMPI PUSH1 0x40 MLOAD PUSH4 0x751DFF97 PUSH1 0xE1 SHL DUP2 MSTORE PUSH1 0x1 PUSH1 0x1 PUSH1 0xA0 SHL SUB DUP8 AND PUSH1 0x4 DUP3 ADD MSTORE PUSH1 0x24 ADD PUSH2 0x1119 JUMP JUMPDEST PUSH0 DUP6 GT PUSH2 0x2A78 JUMPI PUSH1 0x40 MLOAD PUSH3 0x461BCD PUSH1 0xE5 SHL DUP2 MSTORE PUSH1 0x20 PUSH1 0x4 DUP3 ADD MSTORE PUSH1 0x17 PUSH1 0x24 DUP3 ADD MSTORE PUSH32 0x43616E6E6F7420737570706C7920302072657761726473000000000000000000 PUSH1 0x44 DUP3 ADD MSTORE PUSH1 0x64 ADD PUSH2 0x1119 JUMP JUMPDEST PUSH0 DUP5 GT PUSH2 0x2AC7 JUMPI PUSH1 0x40 MLOAD PUSH3 0x461BCD PUSH1 0xE5 SHL DUP2 MSTORE PUSH1 0x20 PUSH1 0x4 DUP3 ADD MSTORE PUSH1 0x1F PUSH1 0x24 DUP3 ADD MSTORE PUSH32 0x4475726174696F6E206D7573742062652067726561746572207468616E203000 PUSH1 0x44 DUP3 ADD MSTORE PUSH1 0x64 ADD PUSH2 0x1119 JUMP JUMPDEST PUSH2 0x2AFC PUSH1 0x1 PUSH1 0x1 PUSH1 0xA0 SHL SUB DUP8 AND CALLER PUSH32 0x0 DUP9 PUSH2 0x3B4F JUMP JUMPDEST PUSH1 0x1 PUSH1 0x1 PUSH1 0xA0 SHL SUB DUP7 AND PUSH0 SWAP1 DUP2 MSTORE PUSH1 0x16 PUSH1 0x20 MSTORE PUSH1 0x40 SWAP1 DUP2 SWAP1 KECCAK256 DUP2 MLOAD PUSH1 0xC0 DUP2 ADD SWAP1 SWAP3 MSTORE SWAP1 DUP1 PUSH2 0x2B2A DUP8 DUP10 PUSH2 0x5075 JUMP JUMPDEST DUP2 MSTORE PUSH1 0x20 ADD TIMESTAMP DUP2 MSTORE PUSH1 0x20 ADD DUP7 TIMESTAMP PUSH2 0x2B41 SWAP2 SWAP1 PUSH2 0x4F9B JUMP JUMPDEST DUP2 MSTORE PUSH1 0x20 DUP1 DUP3 ADD DUP10 SWAP1 MSTORE PUSH0 PUSH1 0x40 DUP1 DUP5 ADD DUP3 SWAP1 MSTORE PUSH1 0x60 SWAP4 DUP5 ADD DUP3 SWAP1 MSTORE DUP6 SLOAD PUSH1 0x1 DUP2 DUP2 ADD DUP9 SSTORE SWAP7 DUP4 MSTORE SWAP2 DUP4 SWAP1 KECCAK256 DUP6 MLOAD PUSH1 0x6 SWAP1 SWAP4 MUL ADD SWAP2 DUP3 SSTORE SWAP2 DUP5 ADD MLOAD SWAP5 DUP2 ADD SWAP5 SWAP1 SWAP5 SSTORE DUP3 ADD MLOAD PUSH1 0x2 DUP5 ADD SSTORE DUP2 ADD MLOAD PUSH1 0x3 DUP4 ADD SSTORE PUSH1 0x80 DUP2 ADD MLOAD PUSH1 0x4 DUP4 ADD SSTORE PUSH1 0xA0 ADD MLOAD PUSH1 0x5 SWAP1 SWAP2 ADD SSTORE PUSH1 0x1 PUSH1 0x1 PUSH1 0xA0 SHL SUB DUP7 AND PUSH32 0x727302BECD070529B3293F4EC8F553D9F6AE1773F638598DB1205FBF8908083 DUP7 DUP7 PUSH2 0x2BDD DUP2 DUP4 PUSH2 0x5075 JUMP JUMPDEST PUSH1 0x40 DUP1 MLOAD SWAP4 DUP5 MSTORE PUSH1 0x20 DUP5 ADD SWAP3 SWAP1 SWAP3 MSTORE SWAP1 DUP3 ADD MSTORE PUSH1 0x60 ADD PUSH1 0x40 MLOAD DUP1 SWAP2 SUB SWAP1 LOG2 POP POP POP POP POP POP JUMP JUMPDEST PUSH0 MLOAD PUSH1 0x20 PUSH2 0x5167 PUSH0 CODECOPY PUSH0 MLOAD SWAP1 PUSH0 MSTORE PUSH2 0x2C1A DUP2 PUSH2 0x34DC JUMP JUMPDEST PUSH1 0x40 MLOAD PUSH4 0x23B872DD PUSH1 0xE0 SHL DUP2 MSTORE DUP5 SWAP1 PUSH1 0x1 PUSH1 0x1 PUSH1 0xA0 SHL SUB DUP3 AND SWAP1 PUSH4 0x23B872DD SWAP1 PUSH2 0x2C4C SWAP1 ADDRESS SWAP1 DUP9 SWAP1 DUP9 SWAP1 PUSH1 0x4 ADD PUSH2 0x50A8 JUMP JUMPDEST PUSH0 PUSH1 0x40 MLOAD DUP1 DUP4 SUB DUP2 PUSH0 DUP8 DUP1 EXTCODESIZE ISZERO DUP1 ISZERO PUSH2 0x2C63 JUMPI PUSH0 PUSH0 REVERT JUMPDEST POP GAS CALL ISZERO DUP1 ISZERO PUSH2 0x2C75 JUMPI RETURNDATASIZE PUSH0 PUSH0 RETURNDATACOPY RETURNDATASIZE PUSH0 REVERT JUMPDEST POP POP POP POP DUP4 PUSH1 0x1 PUSH1 0x1 PUSH1 0xA0 SHL SUB AND DUP6 PUSH1 0x1 PUSH1 0x1 PUSH1 0xA0 SHL SUB AND CALLER PUSH1 0x1 PUSH1 0x1 PUSH1 0xA0 SHL SUB AND PUSH32 0x4744BB01C1AB0B5B28A5D0006A4318240B4E4243C572309D6814313EA8E05549 DUP7 PUSH1 0x40 MLOAD PUSH2 0x2CC8 SWAP2 DUP2 MSTORE PUSH1 0x20 ADD SWAP1 JUMP JUMPDEST PUSH1 0x40 MLOAD DUP1 SWAP2 SUB SWAP1 LOG4 POP POP POP POP POP JUMP JUMPDEST PUSH1 0x16 PUSH1 0x20 MSTORE DUP2 PUSH0 MSTORE PUSH1 0x40 PUSH0 KECCAK256 DUP2 DUP2 SLOAD DUP2 LT PUSH2 0x2CF0 JUMPI PUSH0 DUP1 REVERT JUMPDEST PUSH0 SWAP2 DUP3 MSTORE PUSH1 0x20 SWAP1 SWAP2 KECCAK256 PUSH1 0x6 SWAP1 SWAP2 MUL ADD DUP1 SLOAD PUSH1 0x1 DUP3 ADD SLOAD PUSH1 0x2 DUP4 ADD SLOAD PUSH1 0x3 DUP5 ADD SLOAD PUSH1 0x4 DUP6 ADD SLOAD PUSH1 0x5 SWAP1 SWAP6 ADD SLOAD SWAP4 SWAP7 POP SWAP2 SWAP5 POP SWAP3 SWAP1 SWAP2 DUP7 JUMP JUMPDEST PUSH2 0x2D32 DUP5 DUP5 DUP5 PUSH2 0x159F JUMP JUMPDEST PUSH2 0x1622 CALLER DUP6 DUP6 DUP6 DUP6 PUSH2 0x3B77 JUMP JUMPDEST PUSH0 PUSH0 PUSH2 0x2D4A DUP4 PUSH2 0x23F9 JUMP JUMPDEST SWAP1 POP PUSH0 DUP1 JUMPDEST DUP3 DUP2 LT ISZERO PUSH2 0x128F JUMPI PUSH0 PUSH2 0x2D62 DUP7 DUP4 PUSH2 0x1871 JUMP JUMPDEST PUSH0 DUP2 DUP2 MSTORE PUSH1 0x13 PUSH1 0x20 MSTORE PUSH1 0x40 SWAP1 KECCAK256 PUSH1 0x3 DUP2 ADD SLOAD SWAP2 SWAP3 POP SWAP1 PUSH1 0xFF AND ISZERO DUP1 ISZERO PUSH2 0x2D8B JUMPI POP DUP1 PUSH1 0x1 ADD SLOAD TIMESTAMP LT JUMPDEST ISZERO PUSH2 0x2D9F JUMPI DUP1 SLOAD PUSH2 0x2D9C SWAP1 DUP6 PUSH2 0x4F9B JUMP JUMPDEST SWAP4 POP JUMPDEST POP POP PUSH1 0x1 ADD PUSH2 0x2D4F JUMP JUMPDEST PUSH1 0x60 PUSH2 0x2DB4 DUP3 PUSH2 0x34E6 JUMP JUMPDEST POP PUSH0 PUSH2 0x2DCA PUSH1 0x40 DUP1 MLOAD PUSH1 0x20 DUP2 ADD SWAP1 SWAP2 MSTORE PUSH0 DUP2 MSTORE SWAP1 JUMP JUMPDEST SWAP1 POP PUSH0 DUP2 MLOAD GT PUSH2 0x2DE8 JUMPI PUSH1 0x40 MLOAD DUP1 PUSH1 0x20 ADD PUSH1 0x40 MSTORE DUP1 PUSH0 DUP2 MSTORE POP PUSH2 0x1598 JUMP JUMPDEST DUP1 PUSH2 0x2DF2 DUP5 PUSH2 0x3C9F JUMP JUMPDEST PUSH1 0x40 MLOAD PUSH1 0x20 ADD PUSH2 0x2E03 SWAP3 SWAP2 SWAP1 PUSH2 0x50FB JUMP JUMPDEST PUSH1 0x40 MLOAD PUSH1 0x20 DUP2 DUP4 SUB SUB DUP2 MSTORE SWAP1 PUSH1 0x40 MSTORE SWAP4 SWAP3 POP POP POP JUMP JUMPDEST PUSH0 DUP2 DUP2 MSTORE PUSH1 0xD PUSH1 0x20 MSTORE PUSH1 0x40 DUP2 KECCAK256 PUSH2 0x1094 SWAP1 PUSH2 0x3D2F JUMP JUMPDEST PUSH2 0x2E37 PUSH2 0x352B JUMP JUMPDEST DUP1 CALLER PUSH2 0x2E43 DUP3 DUP3 PUSH2 0x3555 JUMP JUMPDEST PUSH2 0x2E4B PUSH2 0x3646 JUMP JUMPDEST CALLER PUSH0 SWAP1 DUP2 MSTORE PUSH1 0x1B PUSH1 0x20 MSTORE PUSH1 0x40 SWAP1 KECCAK256 SLOAD PUSH1 0xFF AND ISZERO PUSH2 0x2E7D JUMPI CALLER PUSH1 0x40 MLOAD PUSH4 0xDF681A93 PUSH1 0xE0 SHL DUP2 MSTORE PUSH1 0x4 ADD PUSH2 0x1119 SWAP2 SWAP1 PUSH2 0x4FAE JUMP JUMPDEST CALLER PUSH0 SWAP1 DUP2 MSTORE PUSH1 0x1C PUSH1 0x20 MSTORE PUSH1 0x40 SWAP1 KECCAK256 SLOAD PUSH1 0xFF AND ISZERO PUSH2 0x2EAF JUMPI CALLER PUSH1 0x40 MLOAD PUSH4 0xE34017E1 PUSH1 0xE0 SHL DUP2 MSTORE PUSH1 0x4 ADD PUSH2 0x1119 SWAP2 SWAP1 PUSH2 0x5009 JUMP JUMPDEST PUSH1 0x11 SLOAD CALLVALUE LT ISZERO PUSH2 0x2EFA JUMPI PUSH1 0x40 MLOAD PUSH3 0x461BCD PUSH1 0xE5 SHL DUP2 MSTORE PUSH1 0x20 PUSH1 0x4 DUP3 ADD MSTORE PUSH1 0x16 PUSH1 0x24 DUP3 ADD MSTORE PUSH22 0x496E73756666696369656E7420636C61696D20666565 PUSH1 0x50 SHL PUSH1 0x44 DUP3 ADD MSTORE PUSH1 0x64 ADD PUSH2 0x1119 JUMP JUMPDEST CALLER PUSH0 SWAP1 DUP2 MSTORE PUSH1 0x1A PUSH1 0x20 SWAP1 DUP2 MSTORE PUSH1 0x40 DUP1 DUP4 KECCAK256 PUSH1 0x1 PUSH1 0x1 PUSH1 0xA0 SHL SUB DUP8 AND DUP5 MSTORE SWAP1 SWAP2 MSTORE SWAP1 KECCAK256 SLOAD DUP1 ISZERO PUSH2 0x3000 JUMPI CALLER PUSH0 DUP2 DUP2 MSTORE PUSH1 0x1A PUSH1 0x20 SWAP1 DUP2 MSTORE PUSH1 0x40 DUP1 DUP4 KECCAK256 PUSH1 0x1 PUSH1 0x1 PUSH1 0xA0 SHL SUB DUP10 DUP2 AND DUP6 MSTORE SWAP3 MSTORE DUP1 DUP4 KECCAK256 SWAP3 SWAP1 SWAP3 SSTORE SWAP1 MLOAD PUSH4 0xCD8515CF PUSH1 0xE0 SHL DUP2 MSTORE PUSH32 0x0 SWAP1 SWAP2 AND SWAP2 PUSH4 0xCD8515CF SWAP2 PUSH2 0x2F92 SWAP2 SWAP1 DUP9 SWAP1 DUP7 SWAP1 PUSH1 0x4 ADD PUSH2 0x50A8 JUMP JUMPDEST PUSH0 PUSH1 0x40 MLOAD DUP1 DUP4 SUB DUP2 PUSH0 DUP8 DUP1 EXTCODESIZE ISZERO DUP1 ISZERO PUSH2 0x2FA9 JUMPI PUSH0 PUSH0 REVERT JUMPDEST POP GAS CALL ISZERO DUP1 ISZERO PUSH2 0x2FBB JUMPI RETURNDATASIZE PUSH0 PUSH0 RETURNDATACOPY RETURNDATASIZE PUSH0 REVERT JUMPDEST POP POP PUSH1 0x40 MLOAD DUP4 DUP2 MSTORE PUSH1 0x1 PUSH1 0x1 PUSH1 0xA0 SHL SUB DUP8 AND SWAP3 POP CALLER SWAP2 POP PUSH32 0x540798DF468D7B23D11F156FDB954CB19AD414D150722A7B6D55BA369DEA792E SWAP1 PUSH1 0x20 ADD PUSH1 0x40 MLOAD DUP1 SWAP2 SUB SWAP1 LOG3 JUMPDEST CALLVALUE ISZERO PUSH2 0x303E JUMPI PUSH1 0x12 SLOAD PUSH1 0x40 MLOAD PUSH1 0x1 PUSH1 0x1 PUSH1 0xA0 SHL SUB SWAP1 SWAP2 AND SWAP1 CALLVALUE DUP1 ISZERO PUSH2 0x8FC MUL SWAP2 PUSH0 DUP2 DUP2 DUP2 DUP6 DUP9 DUP9 CALL SWAP4 POP POP POP POP ISZERO DUP1 ISZERO PUSH2 0x303C JUMPI RETURNDATASIZE PUSH0 PUSH0 RETURNDATACOPY RETURNDATASIZE PUSH0 REVERT JUMPDEST POP JUMPDEST POP POP POP PUSH2 0x184A PUSH1 0x1 PUSH1 0xB SSTORE JUMP JUMPDEST PUSH0 DUP3 DUP2 MSTORE PUSH1 0xC PUSH1 0x20 MSTORE PUSH1 0x40 SWAP1 KECCAK256 PUSH1 0x1 ADD SLOAD PUSH2 0x3065 DUP2 PUSH2 0x34DC JUMP JUMPDEST PUSH2 0x1622 DUP4 DUP4 PUSH2 0x39E8 JUMP JUMPDEST PUSH0 MLOAD PUSH1 0x20 PUSH2 0x5167 PUSH0 CODECOPY PUSH0 MLOAD SWAP1 PUSH0 MSTORE PUSH2 0x3086 DUP2 PUSH2 0x34DC JUMP JUMPDEST PUSH1 0x40 MLOAD PUSH1 0x1 PUSH1 0x1 PUSH1 0xA0 SHL SUB DUP5 AND SWAP1 DUP4 ISZERO PUSH2 0x8FC MUL SWAP1 DUP5 SWAP1 PUSH0 DUP2 DUP2 DUP2 DUP6 DUP9 DUP9 CALL SWAP4 POP POP POP POP ISZERO DUP1 ISZERO PUSH2 0x30B9 JUMPI RETURNDATASIZE PUSH0 PUSH0 RETURNDATACOPY RETURNDATASIZE PUSH0 REVERT JUMPDEST POP PUSH1 0x40 MLOAD DUP3 DUP2 MSTORE PUSH1 0x1 PUSH1 0x1 PUSH1 0xA0 SHL SUB DUP5 AND SWAP1 CALLER SWAP1 PUSH32 0x51A3AEF945B229F9F13F9C7411484FE8436ED204499A994908F9B913103928BA SWAP1 PUSH1 0x20 ADD JUMPDEST PUSH1 0x40 MLOAD DUP1 SWAP2 SUB SWAP1 LOG3 POP POP POP JUMP JUMPDEST PUSH1 0x60 PUSH1 0x15 DUP1 SLOAD DUP1 PUSH1 0x20 MUL PUSH1 0x20 ADD PUSH1 0x40 MLOAD SWAP1 DUP2 ADD PUSH1 0x40 MSTORE DUP1 SWAP3 SWAP2 SWAP1 DUP2 DUP2 MSTORE PUSH1 0x20 ADD DUP3 DUP1 SLOAD DUP1 ISZERO PUSH2 0x11E4 JUMPI PUSH1 0x20 MUL DUP3 ADD SWAP2 SWAP1 PUSH0 MSTORE PUSH1 0x20 PUSH0 KECCAK256 SWAP1 JUMPDEST DUP2 SLOAD PUSH1 0x1 PUSH1 0x1 PUSH1 0xA0 SHL SUB AND DUP2 MSTORE PUSH1 0x1 SWAP1 SWAP2 ADD SWAP1 PUSH1 0x20 ADD DUP1 DUP4 GT PUSH2 0x3138 JUMPI POP POP POP POP POP SWAP1 POP SWAP1 JUMP JUMPDEST PUSH1 0x60 PUSH0 PUSH2 0x316B DUP4 PUSH2 0x23F9 JUMP JUMPDEST SWAP1 POP PUSH0 DUP2 PUSH8 0xFFFFFFFFFFFFFFFF DUP2 GT ISZERO PUSH2 0x3187 JUMPI PUSH2 0x3187 PUSH2 0x4D70 JUMP JUMPDEST PUSH1 0x40 MLOAD SWAP1 DUP1 DUP3 MSTORE DUP1 PUSH1 0x20 MUL PUSH1 0x20 ADD DUP3 ADD PUSH1 0x40 MSTORE DUP1 ISZERO PUSH2 0x31E1 JUMPI DUP2 PUSH1 0x20 ADD JUMPDEST PUSH2 0x31CE PUSH1 0x40 MLOAD DUP1 PUSH1 0x80 ADD PUSH1 0x40 MSTORE DUP1 PUSH0 DUP2 MSTORE PUSH1 0x20 ADD PUSH0 DUP2 MSTORE PUSH1 0x20 ADD PUSH0 DUP2 MSTORE PUSH1 0x20 ADD PUSH0 ISZERO ISZERO DUP2 MSTORE POP SWAP1 JUMP JUMPDEST DUP2 MSTORE PUSH1 0x20 ADD SWAP1 PUSH1 0x1 SWAP1 SUB SWAP1 DUP2 PUSH2 0x31A5 JUMPI SWAP1 POP JUMPDEST POP SWAP1 POP PUSH0 JUMPDEST DUP3 DUP2 LT ISZERO PUSH2 0x128F JUMPI PUSH0 PUSH2 0x31F9 DUP7 DUP4 PUSH2 0x1871 JUMP JUMPDEST PUSH0 DUP2 DUP2 MSTORE PUSH1 0x13 PUSH1 0x20 SWAP1 DUP2 MSTORE PUSH1 0x40 SWAP2 DUP3 SWAP1 KECCAK256 DUP3 MLOAD PUSH1 0x80 DUP2 ADD DUP5 MSTORE DUP2 SLOAD DUP2 MSTORE PUSH1 0x1 DUP3 ADD SLOAD SWAP3 DUP2 ADD SWAP3 SWAP1 SWAP3 MSTORE PUSH1 0x2 DUP2 ADD SLOAD SWAP3 DUP3 ADD SWAP3 SWAP1 SWAP3 MSTORE PUSH1 0x3 SWAP1 SWAP2 ADD SLOAD PUSH1 0xFF AND ISZERO ISZERO PUSH1 0x60 DUP3 ADD MSTORE DUP5 MLOAD SWAP2 SWAP3 POP SWAP1 DUP5 SWAP1 DUP5 SWAP1 DUP2 LT PUSH2 0x3256 JUMPI PUSH2 0x3256 PUSH2 0x4F3B JUMP JUMPDEST PUSH1 0x20 SWAP1 DUP2 MUL SWAP2 SWAP1 SWAP2 ADD ADD MSTORE POP PUSH1 0x1 ADD PUSH2 0x31E6 JUMP JUMPDEST PUSH0 JUMPDEST DUP2 DUP2 LT ISZERO PUSH2 0x19F6 JUMPI PUSH2 0x3295 DUP4 DUP4 DUP4 DUP2 DUP2 LT PUSH2 0x3289 JUMPI PUSH2 0x3289 PUSH2 0x4F3B JUMP JUMPDEST SWAP1 POP PUSH1 0x20 MUL ADD CALLDATALOAD PUSH2 0x1628 JUMP JUMPDEST PUSH1 0x1 ADD PUSH2 0x326C JUMP JUMPDEST PUSH1 0x1 PUSH1 0x1 PUSH1 0xA0 SHL SUB SWAP2 DUP3 AND PUSH0 SWAP1 DUP2 MSTORE PUSH1 0x5 PUSH1 0x20 SWAP1 DUP2 MSTORE PUSH1 0x40 DUP1 DUP4 KECCAK256 SWAP4 SWAP1 SWAP5 AND DUP3 MSTORE SWAP2 SWAP1 SWAP2 MSTORE KECCAK256 SLOAD PUSH1 0xFF AND SWAP1 JUMP JUMPDEST PUSH1 0x1 PUSH1 0x1 PUSH1 0xA0 SHL SUB DUP2 AND PUSH0 SWAP1 DUP2 MSTORE PUSH1 0x16 PUSH1 0x20 MSTORE PUSH1 0x40 DUP2 KECCAK256 DUP2 SWAP1 DUP2 JUMPDEST DUP2 SLOAD DUP2 LT ISZERO PUSH2 0x337B JUMPI DUP2 DUP2 DUP2 SLOAD DUP2 LT PUSH2 0x3300 JUMPI PUSH2 0x3300 PUSH2 0x4F3B JUMP JUMPDEST SWAP1 PUSH0 MSTORE PUSH1 0x20 PUSH0 KECCAK256 SWAP1 PUSH1 0x6 MUL ADD PUSH1 0x1 ADD SLOAD TIMESTAMP LT ISZERO DUP1 ISZERO PUSH2 0x333F JUMPI POP DUP2 DUP2 DUP2 SLOAD DUP2 LT PUSH2 0x332C JUMPI PUSH2 0x332C PUSH2 0x4F3B JUMP JUMPDEST SWAP1 PUSH0 MSTORE PUSH1 0x20 PUSH0 KECCAK256 SWAP1 PUSH1 0x6 MUL ADD PUSH1 0x2 ADD SLOAD TIMESTAMP LT JUMPDEST ISZERO PUSH2 0x3373 JUMPI DUP2 DUP2 DUP2 SLOAD DUP2 LT PUSH2 0x3356 JUMPI PUSH2 0x3356 PUSH2 0x4F3B JUMP JUMPDEST SWAP1 PUSH0 MSTORE PUSH1 0x20 PUSH0 KECCAK256 SWAP1 PUSH1 0x6 MUL ADD PUSH0 ADD SLOAD DUP4 PUSH2 0x3370 SWAP2 SWAP1 PUSH2 0x4F9B JUMP JUMPDEST SWAP3 POP JUMPDEST PUSH1 0x1 ADD PUSH2 0x32E5 JUMP JUMPDEST POP SWAP1 SWAP4 SWAP3 POP POP POP JUMP JUMPDEST PUSH0 MLOAD PUSH1 0x20 PUSH2 0x5167 PUSH0 CODECOPY PUSH0 MLOAD SWAP1 PUSH0 MSTORE PUSH2 0x339B DUP2 PUSH2 0x34DC JUMP JUMPDEST PUSH1 0x1 PUSH1 0x1 PUSH1 0xA0 SHL SUB DUP3 AND PUSH2 0x33E3 JUMPI PUSH1 0x40 MLOAD PUSH3 0x461BCD PUSH1 0xE5 SHL DUP2 MSTORE PUSH1 0x20 PUSH1 0x4 DUP3 ADD MSTORE PUSH1 0xF PUSH1 0x24 DUP3 ADD MSTORE PUSH15 0x496E76616C69642061646472657373 PUSH1 0x88 SHL PUSH1 0x44 DUP3 ADD MSTORE PUSH1 0x64 ADD PUSH2 0x1119 JUMP JUMPDEST PUSH1 0x12 DUP1 SLOAD PUSH1 0x1 PUSH1 0x1 PUSH1 0xA0 SHL SUB NOT AND PUSH1 0x1 PUSH1 0x1 PUSH1 0xA0 SHL SUB DUP5 AND SWAP1 DUP2 OR SWAP1 SWAP2 SSTORE PUSH1 0x40 MLOAD PUSH32 0xBDF37C276F641820B141429D245ADD2552B4118C0866E5A78638E3DE5EF18D9D SWAP1 PUSH0 SWAP1 LOG2 POP POP JUMP JUMPDEST PUSH0 PUSH1 0xF SLOAD PUSH0 SUB PUSH2 0x3452 JUMPI POP PUSH1 0x1 PUSH1 0x1 PUSH1 0xA0 SHL SUB AND PUSH0 SWAP1 DUP2 MSTORE PUSH1 0x18 PUSH1 0x20 MSTORE PUSH1 0x40 SWAP1 KECCAK256 SLOAD SWAP1 JUMP JUMPDEST PUSH0 PUSH2 0x345C DUP4 PUSH2 0x32CA JUMP JUMPDEST PUSH1 0x1 PUSH1 0x1 PUSH1 0xA0 SHL SUB DUP5 AND PUSH0 SWAP1 DUP2 MSTORE PUSH1 0x17 PUSH1 0x20 MSTORE PUSH1 0x40 DUP2 KECCAK256 SLOAD SWAP2 SWAP3 POP SWAP1 PUSH2 0x3482 SWAP1 TIMESTAMP PUSH2 0x5062 JUMP JUMPDEST SWAP1 POP PUSH2 0x348E DUP3 DUP3 PUSH2 0x504B JUMP JUMPDEST PUSH1 0x1 PUSH1 0x1 PUSH1 0xA0 SHL SUB DUP6 AND PUSH0 SWAP1 DUP2 MSTORE PUSH1 0x18 PUSH1 0x20 MSTORE PUSH1 0x40 SWAP1 KECCAK256 SLOAD PUSH2 0x34B0 SWAP2 SWAP1 PUSH2 0x4F9B JUMP JUMPDEST SWAP5 SWAP4 POP POP POP POP JUMP JUMPDEST PUSH0 PUSH1 0x1 PUSH1 0x1 PUSH1 0xE0 SHL SUB NOT DUP3 AND PUSH4 0x5A05180F PUSH1 0xE0 SHL EQ DUP1 PUSH2 0x1094 JUMPI POP PUSH2 0x1094 DUP3 PUSH2 0x3D38 JUMP JUMPDEST PUSH2 0x184A DUP2 CALLER PUSH2 0x3D5C JUMP JUMPDEST PUSH0 DUP2 DUP2 MSTORE PUSH1 0x2 PUSH1 0x20 MSTORE PUSH1 0x40 DUP2 KECCAK256 SLOAD PUSH1 0x1 PUSH1 0x1 PUSH1 0xA0 SHL SUB AND DUP1 PUSH2 0x1094 JUMPI PUSH1 0x40 MLOAD PUSH4 0x7E273289 PUSH1 0xE0 SHL DUP2 MSTORE PUSH1 0x4 DUP2 ADD DUP5 SWAP1 MSTORE PUSH1 0x24 ADD PUSH2 0x1119 JUMP JUMPDEST PUSH2 0x19F6 DUP4 DUP4 DUP4 PUSH1 0x1 PUSH2 0x3D95 JUMP JUMPDEST PUSH1 0x2 PUSH1 0xB SLOAD SUB PUSH2 0x354E JUMPI PUSH1 0x40 MLOAD PUSH4 0x3EE5AEB5 PUSH1 0xE0 SHL DUP2 MSTORE PUSH1 0x4 ADD PUSH1 0x40 MLOAD DUP1 SWAP2 SUB SWAP1 REVERT JUMPDEST PUSH1 0x2 PUSH1 0xB SSTORE JUMP JUMPDEST PUSH2 0x355D PUSH2 0x3E99 JUMP JUMPDEST PUSH1 0xF SLOAD ISZERO PUSH2 0x35D0 JUMPI PUSH0 PUSH2 0x356F DUP4 PUSH2 0x32CA JUMP JUMPDEST PUSH1 0x1 PUSH1 0x1 PUSH1 0xA0 SHL SUB DUP5 AND PUSH0 SWAP1 DUP2 MSTORE PUSH1 0x17 PUSH1 0x20 MSTORE PUSH1 0x40 DUP2 KECCAK256 SLOAD SWAP2 SWAP3 POP SWAP1 PUSH2 0x3595 SWAP1 TIMESTAMP PUSH2 0x5062 JUMP JUMPDEST SWAP1 POP PUSH2 0x35A1 DUP3 DUP3 PUSH2 0x504B JUMP JUMPDEST PUSH1 0x1 PUSH1 0x1 PUSH1 0xA0 SHL SUB DUP6 AND PUSH0 SWAP1 DUP2 MSTORE PUSH1 0x18 PUSH1 0x20 MSTORE PUSH1 0x40 DUP2 KECCAK256 DUP1 SLOAD SWAP1 SWAP2 SWAP1 PUSH2 0x35C8 SWAP1 DUP5 SWAP1 PUSH2 0x4F9B JUMP JUMPDEST SWAP1 SWAP2 SSTORE POP POP POP POP JUMPDEST PUSH1 0x1 PUSH1 0x1 PUSH1 0xA0 SHL SUB DUP1 DUP4 AND PUSH0 SWAP1 DUP2 MSTORE PUSH1 0x17 PUSH1 0x20 MSTORE PUSH1 0x40 SWAP1 KECCAK256 TIMESTAMP SWAP1 SSTORE DUP2 AND ISZERO PUSH2 0x1220 JUMPI PUSH2 0x35FC DUP2 DUP4 PUSH2 0x1518 JUMP JUMPDEST PUSH1 0x1 PUSH1 0x1 PUSH1 0xA0 SHL SUB SWAP2 DUP3 AND PUSH0 DUP2 DUP2 MSTORE PUSH1 0x1A PUSH1 0x20 SWAP1 DUP2 MSTORE PUSH1 0x40 DUP1 DUP4 KECCAK256 SWAP7 SWAP1 SWAP6 AND DUP1 DUP4 MSTORE SWAP6 DUP2 MSTORE DUP5 DUP3 KECCAK256 SWAP4 SWAP1 SWAP4 SSTORE PUSH1 0x18 DUP4 MSTORE DUP4 DUP2 KECCAK256 SLOAD SWAP2 DUP2 MSTORE PUSH1 0x19 DUP4 MSTORE DUP4 DUP2 KECCAK256 SWAP5 DUP2 MSTORE SWAP4 SWAP1 SWAP2 MSTORE SWAP2 KECCAK256 SSTORE JUMP JUMPDEST PUSH1 0xA SLOAD PUSH1 0xFF AND ISZERO PUSH2 0x1E70 JUMPI PUSH1 0x40 MLOAD PUSH4 0xD93C0665 PUSH1 0xE0 SHL DUP2 MSTORE PUSH1 0x4 ADD PUSH1 0x40 MLOAD DUP1 SWAP2 SUB SWAP1 REVERT JUMPDEST PUSH0 PUSH0 DUP4 GT PUSH2 0x36AB JUMPI PUSH1 0x40 MLOAD PUSH3 0x461BCD PUSH1 0xE5 SHL DUP2 MSTORE PUSH1 0x20 PUSH1 0x4 DUP3 ADD MSTORE PUSH1 0xE PUSH1 0x24 DUP3 ADD MSTORE PUSH14 0x43616E6E6F74207374616B65203 PUSH1 0x94 SHL PUSH1 0x44 DUP3 ADD MSTORE PUSH1 0x64 ADD PUSH2 0x1119 JUMP JUMPDEST PUSH1 0x10 SLOAD DUP3 LT ISZERO PUSH2 0x36DC JUMPI PUSH1 0x10 SLOAD PUSH1 0x40 MLOAD PUSH4 0x102313B1 PUSH1 0xE3 SHL DUP2 MSTORE PUSH2 0x1119 SWAP2 DUP5 SWAP2 PUSH1 0x4 ADD SWAP2 DUP3 MSTORE PUSH1 0x20 DUP3 ADD MSTORE PUSH1 0x40 ADD SWAP1 JUMP JUMPDEST PUSH2 0x3711 PUSH1 0x1 PUSH1 0x1 PUSH1 0xA0 SHL SUB PUSH32 0x0 AND DUP6 ADDRESS DUP7 PUSH2 0x3B4F JUMP JUMPDEST PUSH1 0xE DUP1 SLOAD PUSH0 SWAP2 DUP3 PUSH2 0x3721 DUP4 PUSH2 0x50CC JUMP JUMPDEST SWAP2 SWAP1 POP SSTORE SWAP1 POP PUSH2 0x3731 DUP6 DUP3 PUSH2 0x40E9 JUMP JUMPDEST PUSH1 0x40 MLOAD DUP1 PUSH1 0x80 ADD PUSH1 0x40 MSTORE DUP1 DUP6 DUP2 MSTORE PUSH1 0x20 ADD DUP5 TIMESTAMP PUSH2 0x374E SWAP2 SWAP1 PUSH2 0x4F9B JUMP JUMPDEST DUP2 MSTORE TIMESTAMP PUSH1 0x20 DUP1 DUP4 ADD SWAP2 SWAP1 SWAP2 MSTORE PUSH0 PUSH1 0x40 SWAP3 DUP4 ADD DUP2 SWAP1 MSTORE DUP5 DUP2 MSTORE PUSH1 0x13 DUP3 MSTORE DUP3 DUP2 KECCAK256 DUP5 MLOAD DUP2 SSTORE SWAP2 DUP5 ADD MLOAD PUSH1 0x1 DUP4 ADD SSTORE SWAP2 DUP4 ADD MLOAD PUSH1 0x2 DUP3 ADD SSTORE PUSH1 0x60 SWAP1 SWAP3 ADD MLOAD PUSH1 0x3 SWAP1 SWAP3 ADD DUP1 SLOAD PUSH1 0xFF NOT AND SWAP3 ISZERO ISZERO SWAP3 SWAP1 SWAP3 OR SWAP1 SWAP2 SSTORE PUSH1 0xF DUP1 SLOAD DUP7 SWAP3 SWAP1 PUSH2 0x37B0 SWAP1 DUP5 SWAP1 PUSH2 0x4F9B JUMP JUMPDEST SWAP1 SWAP2 SSTORE POP POP PUSH1 0x40 DUP1 MLOAD DUP6 DUP2 MSTORE PUSH1 0x20 DUP2 ADD DUP6 SWAP1 MSTORE DUP3 SWAP2 PUSH1 0x1 PUSH1 0x1 PUSH1 0xA0 SHL SUB DUP9 AND SWAP2 PUSH32 0xB4CAAF29ADDA3EEFEE3AD552A8E85058589BF834C7466CAE4EE58787F70589ED SWAP2 ADD PUSH1 0x40 MLOAD DUP1 SWAP2 SUB SWAP1 LOG3 SWAP5 SWAP4 POP POP POP POP JUMP JUMPDEST PUSH0 DUP3 DUP2 MSTORE PUSH1 0x2 PUSH1 0x20 MSTORE PUSH1 0x40 DUP2 KECCAK256 SLOAD PUSH1 0x1 PUSH1 0x1 PUSH1 0xA0 SHL SUB AND DUP1 ISZERO PUSH2 0x38A5 JUMPI PUSH1 0x1 PUSH1 0x1 PUSH1 0xA0 SHL SUB DUP2 AND PUSH0 SWAP1 DUP2 MSTORE PUSH1 0x1B PUSH1 0x20 MSTORE PUSH1 0x40 SWAP1 KECCAK256 SLOAD PUSH1 0xFF AND ISZERO PUSH2 0x38A5 JUMPI PUSH1 0x40 DUP1 MLOAD PUSH4 0xDF681A93 PUSH1 0xE0 SHL DUP2 MSTORE PUSH1 0x1 PUSH1 0x1 PUSH1 0xA0 SHL SUB DUP4 AND PUSH1 0x4 DUP3 ADD MSTORE PUSH1 0x24 DUP2 ADD SWAP2 SWAP1 SWAP2 MSTORE PUSH1 0x22 PUSH1 0x44 DUP3 ADD MSTORE PUSH32 0x43616E6E6F74207472616E736665723A206163636F756E742069732066726F7A PUSH1 0x64 DUP3 ADD MSTORE PUSH2 0x32B7 PUSH1 0xF1 SHL PUSH1 0x84 DUP3 ADD MSTORE PUSH1 0xA4 ADD PUSH2 0x1119 JUMP JUMPDEST PUSH0 JUMPDEST PUSH1 0x15 SLOAD DUP2 LT ISZERO PUSH2 0x3911 JUMPI PUSH0 PUSH1 0x15 DUP3 DUP2 SLOAD DUP2 LT PUSH2 0x38C5 JUMPI PUSH2 0x38C5 PUSH2 0x4F3B JUMP JUMPDEST PUSH0 SWAP2 DUP3 MSTORE PUSH1 0x20 DUP1 DUP4 KECCAK256 SWAP1 SWAP2 ADD SLOAD PUSH1 0x1 PUSH1 0x1 PUSH1 0xA0 SHL SUB AND DUP1 DUP4 MSTORE PUSH1 0x14 SWAP1 SWAP2 MSTORE PUSH1 0x40 SWAP1 SWAP2 KECCAK256 SLOAD SWAP1 SWAP2 POP PUSH1 0xFF AND ISZERO PUSH2 0x3908 JUMPI PUSH2 0x38FE DUP2 DUP5 PUSH2 0x3555 JUMP JUMPDEST PUSH2 0x3908 DUP2 DUP9 PUSH2 0x3555 JUMP JUMPDEST POP PUSH1 0x1 ADD PUSH2 0x38A7 JUMP JUMPDEST POP PUSH2 0x391D DUP6 DUP6 DUP6 PUSH2 0x4102 JUMP JUMPDEST SWAP6 SWAP5 POP POP POP POP POP JUMP JUMPDEST PUSH0 PUSH2 0x3932 PUSH0 DUP4 PUSH0 PUSH2 0x3803 JUMP JUMPDEST SWAP1 POP PUSH1 0x1 PUSH1 0x1 PUSH1 0xA0 SHL SUB DUP2 AND PUSH2 0x1220 JUMPI PUSH1 0x40 MLOAD PUSH4 0x7E273289 PUSH1 0xE0 SHL DUP2 MSTORE PUSH1 0x4 DUP2 ADD DUP4 SWAP1 MSTORE PUSH1 0x24 ADD PUSH2 0x1119 JUMP JUMPDEST PUSH1 0x40 MLOAD PUSH1 0x1 PUSH1 0x1 PUSH1 0xA0 SHL SUB DUP4 DUP2 AND PUSH1 0x24 DUP4 ADD MSTORE PUSH1 0x44 DUP3 ADD DUP4 SWAP1 MSTORE PUSH2 0x19F6 SWAP2 DUP6 SWAP2 DUP3 AND SWAP1 PUSH4 0xA9059CBB SWAP1 PUSH1 0x64 ADD JUMPDEST PUSH1 0x40 MLOAD PUSH1 0x20 DUP2 DUP4 SUB SUB DUP2 MSTORE SWAP1 PUSH1 0x40 MSTORE SWAP2 POP PUSH1 0xE0 SHL PUSH1 0x20 DUP3 ADD DUP1 MLOAD PUSH1 0x1 PUSH1 0x1 PUSH1 0xE0 SHL SUB DUP4 DUP2 DUP4 AND OR DUP4 MSTORE POP POP POP POP PUSH2 0x41CD JUMP JUMPDEST PUSH0 PUSH0 PUSH2 0x39C9 DUP5 DUP5 PUSH2 0x4239 JUMP JUMPDEST SWAP1 POP DUP1 ISZERO PUSH2 0x1598 JUMPI PUSH0 DUP5 DUP2 MSTORE PUSH1 0xD PUSH1 0x20 MSTORE PUSH1 0x40 SWAP1 KECCAK256 PUSH2 0x128F SWAP1 DUP5 PUSH2 0x42CA JUMP JUMPDEST PUSH0 PUSH0 PUSH2 0x39F4 DUP5 DUP5 PUSH2 0x42DE JUMP JUMPDEST SWAP1 POP DUP1 ISZERO PUSH2 0x1598 JUMPI PUSH0 DUP5 DUP2 MSTORE PUSH1 0xD PUSH1 0x20 MSTORE PUSH1 0x40 SWAP1 KECCAK256 PUSH2 0x128F SWAP1 DUP5 PUSH2 0x4349 JUMP JUMPDEST PUSH2 0x3A1B PUSH2 0x435D JUMP JUMPDEST PUSH1 0xA DUP1 SLOAD PUSH1 0xFF NOT AND SWAP1 SSTORE PUSH32 0x5DB9EE0A495BF2E6FF9C91A7834C1BA4FDD244A5E8AA4E537BD38AEAE4B073AA CALLER JUMPDEST PUSH1 0x40 MLOAD PUSH1 0x1 PUSH1 0x1 PUSH1 0xA0 SHL SUB SWAP1 SWAP2 AND DUP2 MSTORE PUSH1 0x20 ADD PUSH1 0x40 MLOAD DUP1 SWAP2 SUB SWAP1 LOG1 JUMP JUMPDEST PUSH2 0x3A6D PUSH2 0x3646 JUMP JUMPDEST PUSH1 0xA DUP1 SLOAD PUSH1 0xFF NOT AND PUSH1 0x1 OR SWAP1 SSTORE PUSH32 0x62E78CEA01BEE320CD4E420270B5EA74000D11B0C9F74754EBDBFC544B05A258 PUSH2 0x3A48 CALLER SWAP1 JUMP JUMPDEST PUSH0 PUSH2 0x1598 DUP4 DUP4 PUSH2 0x4380 JUMP JUMPDEST PUSH1 0x1 PUSH1 0x1 PUSH1 0xA0 SHL SUB DUP3 AND PUSH2 0x3ADF JUMPI PUSH1 0x40 MLOAD PUSH4 0xB611743 PUSH1 0xE3 SHL DUP2 MSTORE PUSH1 0x1 PUSH1 0x1 PUSH1 0xA0 SHL SUB DUP4 AND PUSH1 0x4 DUP3 ADD MSTORE PUSH1 0x24 ADD PUSH2 0x1119 JUMP JUMPDEST PUSH1 0x1 PUSH1 0x1 PUSH1 0xA0 SHL SUB DUP4 DUP2 AND PUSH0 DUP2 DUP2 MSTORE PUSH1 0x5 PUSH1 0x20 SWAP1 DUP2 MSTORE PUSH1 0x40 DUP1 DUP4 KECCAK256 SWAP5 DUP8 AND DUP1 DUP5 MSTORE SWAP5 DUP3 MSTORE SWAP2 DUP3 SWAP1 KECCAK256 DUP1 SLOAD PUSH1 0xFF NOT AND DUP7 ISZERO ISZERO SWAP1 DUP2 OR SWAP1 SWAP2 SSTORE SWAP2 MLOAD SWAP2 DUP3 MSTORE PUSH32 0x17307EAB39AB6107E8899845AD3D59BD9653F200F220920489CA2B5937696C31 SWAP2 ADD PUSH2 0x30F3 JUMP JUMPDEST PUSH1 0x60 PUSH0 PUSH2 0x1598 DUP4 PUSH2 0x43A6 JUMP JUMPDEST PUSH2 0x1622 DUP5 DUP6 PUSH1 0x1 PUSH1 0x1 PUSH1 0xA0 SHL SUB AND PUSH4 0x23B872DD DUP7 DUP7 DUP7 PUSH1 0x40 MLOAD PUSH1 0x24 ADD PUSH2 0x398B SWAP4 SWAP3 SWAP2 SWAP1 PUSH2 0x50A8 JUMP JUMPDEST PUSH1 0x1 PUSH1 0x1 PUSH1 0xA0 SHL SUB DUP4 AND EXTCODESIZE ISZERO PUSH2 0x3C98 JUMPI PUSH1 0x40 MLOAD PUSH4 0xA85BD01 PUSH1 0xE1 SHL DUP2 MSTORE PUSH1 0x1 PUSH1 0x1 PUSH1 0xA0 SHL SUB DUP5 AND SWAP1 PUSH4 0x150B7A02 SWAP1 PUSH2 0x3BB9 SWAP1 DUP9 SWAP1 DUP9 SWAP1 DUP8 SWAP1 DUP8 SWAP1 PUSH1 0x4 ADD PUSH2 0x510F JUMP JUMPDEST PUSH1 0x20 PUSH1 0x40 MLOAD DUP1 DUP4 SUB DUP2 PUSH0 DUP8 GAS CALL SWAP3 POP POP POP DUP1 ISZERO PUSH2 0x3BF3 JUMPI POP PUSH1 0x40 DUP1 MLOAD PUSH1 0x1F RETURNDATASIZE SWAP1 DUP2 ADD PUSH1 0x1F NOT AND DUP3 ADD SWAP1 SWAP3 MSTORE PUSH2 0x3BF0 SWAP2 DUP2 ADD SWAP1 PUSH2 0x514B JUMP JUMPDEST PUSH1 0x1 JUMPDEST PUSH2 0x3C5A JUMPI RETURNDATASIZE DUP1 DUP1 ISZERO PUSH2 0x3C20 JUMPI PUSH1 0x40 MLOAD SWAP2 POP PUSH1 0x1F NOT PUSH1 0x3F RETURNDATASIZE ADD AND DUP3 ADD PUSH1 0x40 MSTORE RETURNDATASIZE DUP3 MSTORE RETURNDATASIZE PUSH0 PUSH1 0x20 DUP5 ADD RETURNDATACOPY PUSH2 0x3C25 JUMP JUMPDEST PUSH1 0x60 SWAP2 POP JUMPDEST POP DUP1 MLOAD PUSH0 SUB PUSH2 0x3C52 JUMPI PUSH1 0x40 MLOAD PUSH4 0x32505749 PUSH1 0xE1 SHL DUP2 MSTORE PUSH1 0x1 PUSH1 0x1 PUSH1 0xA0 SHL SUB DUP6 AND PUSH1 0x4 DUP3 ADD MSTORE PUSH1 0x24 ADD PUSH2 0x1119 JUMP JUMPDEST DUP1 MLOAD PUSH1 0x20 DUP3 ADD REVERT JUMPDEST PUSH1 0x1 PUSH1 0x1 PUSH1 0xE0 SHL SUB NOT DUP2 AND PUSH4 0xA85BD01 PUSH1 0xE1 SHL EQ PUSH2 0x3C96 JUMPI PUSH1 0x40 MLOAD PUSH4 0x32505749 PUSH1 0xE1 SHL DUP2 MSTORE PUSH1 0x1 PUSH1 0x1 PUSH1 0xA0 SHL SUB DUP6 AND PUSH1 0x4 DUP3 ADD MSTORE PUSH1 0x24 ADD PUSH2 0x1119 JUMP JUMPDEST POP JUMPDEST POP POP POP POP POP JUMP JUMPDEST PUSH1 0x60 PUSH0 PUSH2 0x3CAB DUP4 PUSH2 0x43FF JUMP JUMPDEST PUSH1 0x1 ADD SWAP1 POP PUSH0 DUP2 PUSH8 0xFFFFFFFFFFFFFFFF DUP2 GT ISZERO PUSH2 0x3CCA JUMPI PUSH2 0x3CCA PUSH2 0x4D70 JUMP JUMPDEST PUSH1 0x40 MLOAD SWAP1 DUP1 DUP3 MSTORE DUP1 PUSH1 0x1F ADD PUSH1 0x1F NOT AND PUSH1 0x20 ADD DUP3 ADD PUSH1 0x40 MSTORE DUP1 ISZERO PUSH2 0x3CF4 JUMPI PUSH1 0x20 DUP3 ADD DUP2 DUP1 CALLDATASIZE DUP4 CALLDATACOPY ADD SWAP1 POP JUMPDEST POP SWAP1 POP DUP2 DUP2 ADD PUSH1 0x20 ADD JUMPDEST PUSH0 NOT ADD PUSH16 0x181899199A1A9B1B9C1CB0B131B232B3 PUSH1 0x81 SHL PUSH1 0xA DUP7 MOD BYTE DUP2 MSTORE8 PUSH1 0xA DUP6 DIV SWAP5 POP DUP5 PUSH2 0x3CFE JUMPI POP SWAP4 SWAP3 POP POP POP JUMP JUMPDEST PUSH0 PUSH2 0x1094 DUP3 SLOAD SWAP1 JUMP JUMPDEST PUSH0 PUSH1 0x1 PUSH1 0x1 PUSH1 0xE0 SHL SUB NOT DUP3 AND PUSH4 0x7965DB0B PUSH1 0xE0 SHL EQ DUP1 PUSH2 0x1094 JUMPI POP PUSH2 0x1094 DUP3 PUSH2 0x44D6 JUMP JUMPDEST PUSH2 0x3D66 DUP3 DUP3 PUSH2 0x264B JUMP JUMPDEST PUSH2 0x1220 JUMPI PUSH1 0x40 MLOAD PUSH4 0xE2517D3F PUSH1 0xE0 SHL DUP2 MSTORE PUSH1 0x1 PUSH1 0x1 PUSH1 0xA0 SHL SUB DUP3 AND PUSH1 0x4 DUP3 ADD MSTORE PUSH1 0x24 DUP2 ADD DUP4 SWAP1 MSTORE PUSH1 0x44 ADD PUSH2 0x1119 JUMP JUMPDEST DUP1 DUP1 PUSH2 0x3DA9 JUMPI POP PUSH1 0x1 PUSH1 0x1 PUSH1 0xA0 SHL SUB DUP3 AND ISZERO ISZERO JUMPDEST ISZERO PUSH2 0x3E6A JUMPI PUSH0 PUSH2 0x3DB8 DUP5 PUSH2 0x34E6 JUMP JUMPDEST SWAP1 POP PUSH1 0x1 PUSH1 0x1 PUSH1 0xA0 SHL SUB DUP4 AND ISZERO DUP1 ISZERO SWAP1 PUSH2 0x3DE4 JUMPI POP DUP3 PUSH1 0x1 PUSH1 0x1 PUSH1 0xA0 SHL SUB AND DUP2 PUSH1 0x1 PUSH1 0x1 PUSH1 0xA0 SHL SUB AND EQ ISZERO JUMPDEST DUP1 ISZERO PUSH2 0x3DF7 JUMPI POP PUSH2 0x3DF5 DUP2 DUP5 PUSH2 0x329D JUMP JUMPDEST ISZERO JUMPDEST ISZERO PUSH2 0x3E20 JUMPI PUSH1 0x40 MLOAD PUSH4 0xA9FBF51F PUSH1 0xE0 SHL DUP2 MSTORE PUSH1 0x1 PUSH1 0x1 PUSH1 0xA0 SHL SUB DUP5 AND PUSH1 0x4 DUP3 ADD MSTORE PUSH1 0x24 ADD PUSH2 0x1119 JUMP JUMPDEST DUP2 ISZERO PUSH2 0x3E68 JUMPI DUP4 DUP6 PUSH1 0x1 PUSH1 0x1 PUSH1 0xA0 SHL SUB AND DUP3 PUSH1 0x1 PUSH1 0x1 PUSH1 0xA0 SHL SUB AND PUSH32 0x8C5BE1E5EBEC7D5BD14F71427D1E84F3DD0314C0F7B2291E5B200AC8C7C3B925 PUSH1 0x40 MLOAD PUSH1 0x40 MLOAD DUP1 SWAP2 SUB SWAP1 LOG4 JUMPDEST POP JUMPDEST POP POP PUSH0 SWAP1 DUP2 MSTORE PUSH1 0x4 PUSH1 0x20 MSTORE PUSH1 0x40 SWAP1 KECCAK256 DUP1 SLOAD PUSH1 0x1 PUSH1 0x1 PUSH1 0xA0 SHL SUB NOT AND PUSH1 0x1 PUSH1 0x1 PUSH1 0xA0 SHL SUB SWAP3 SWAP1 SWAP3 AND SWAP2 SWAP1 SWAP2 OR SWAP1 SSTORE JUMP JUMPDEST PUSH1 0xF SLOAD ISZERO DUP1 DUP1 ISZERO PUSH2 0x3EAD JUMPI POP PUSH1 0x1E SLOAD PUSH1 0xFF AND ISZERO JUMPDEST ISZERO PUSH2 0x3FCF JUMPI TIMESTAMP PUSH1 0x1D SSTORE PUSH1 0x1E DUP1 SLOAD PUSH1 0xFF NOT AND PUSH1 0x1 OR SWAP1 SSTORE PUSH0 JUMPDEST PUSH1 0x15 SLOAD DUP2 LT ISZERO PUSH2 0x1220 JUMPI PUSH0 PUSH1 0x15 DUP3 DUP2 SLOAD DUP2 LT PUSH2 0x3EE3 JUMPI PUSH2 0x3EE3 PUSH2 0x4F3B JUMP JUMPDEST PUSH0 SWAP2 DUP3 MSTORE PUSH1 0x20 DUP1 DUP4 KECCAK256 SWAP1 SWAP2 ADD SLOAD PUSH1 0x1 PUSH1 0x1 PUSH1 0xA0 SHL SUB AND DUP1 DUP4 MSTORE PUSH1 0x16 SWAP1 SWAP2 MSTORE PUSH1 0x40 DUP3 KECCAK256 SWAP1 SWAP3 POP SWAP1 JUMPDEST DUP2 SLOAD DUP2 LT ISZERO PUSH2 0x3FC4 JUMPI DUP2 DUP2 DUP2 SLOAD DUP2 LT PUSH2 0x3F25 JUMPI PUSH2 0x3F25 PUSH2 0x4F3B JUMP JUMPDEST SWAP1 PUSH0 MSTORE PUSH1 0x20 PUSH0 KECCAK256 SWAP1 PUSH1 0x6 MUL ADD PUSH1 0x4 ADD SLOAD PUSH0 EQ DUP1 ISZERO PUSH2 0x3F64 JUMPI POP DUP2 DUP2 DUP2 SLOAD DUP2 LT PUSH2 0x3F50 JUMPI PUSH2 0x3F50 PUSH2 0x4F3B JUMP JUMPDEST SWAP1 PUSH0 MSTORE PUSH1 0x20 PUSH0 KECCAK256 SWAP1 PUSH1 0x6 MUL ADD PUSH1 0x1 ADD SLOAD TIMESTAMP LT ISZERO JUMPDEST DUP1 ISZERO PUSH2 0x3F90 JUMPI POP DUP2 DUP2 DUP2 SLOAD DUP2 LT PUSH2 0x3F7D JUMPI PUSH2 0x3F7D PUSH2 0x4F3B JUMP JUMPDEST SWAP1 PUSH0 MSTORE PUSH1 0x20 PUSH0 KECCAK256 SWAP1 PUSH1 0x6 MUL ADD PUSH1 0x2 ADD SLOAD TIMESTAMP LT JUMPDEST ISZERO PUSH2 0x3FBC JUMPI TIMESTAMP DUP3 DUP3 DUP2 SLOAD DUP2 LT PUSH2 0x3FA8 JUMPI PUSH2 0x3FA8 PUSH2 0x4F3B JUMP JUMPDEST SWAP1 PUSH0 MSTORE PUSH1 0x20 PUSH0 KECCAK256 SWAP1 PUSH1 0x6 MUL ADD PUSH1 0x4 ADD DUP2 SWAP1 SSTORE POP JUMPDEST PUSH1 0x1 ADD PUSH2 0x3F0A JUMP JUMPDEST POP POP POP PUSH1 0x1 ADD PUSH2 0x3EC5 JUMP JUMPDEST DUP1 ISZERO DUP1 ISZERO PUSH2 0x3FDF JUMPI POP PUSH1 0x1E SLOAD PUSH1 0xFF AND JUMPDEST ISZERO PUSH2 0x184A JUMPI PUSH0 PUSH1 0x1D SLOAD TIMESTAMP PUSH2 0x3FF3 SWAP2 SWAP1 PUSH2 0x5062 JUMP JUMPDEST PUSH1 0x1E DUP1 SLOAD PUSH1 0xFF NOT AND SWAP1 SSTORE SWAP1 POP PUSH0 JUMPDEST PUSH1 0x15 SLOAD DUP2 LT ISZERO PUSH2 0x19F6 JUMPI PUSH0 PUSH1 0x15 DUP3 DUP2 SLOAD DUP2 LT PUSH2 0x401F JUMPI PUSH2 0x401F PUSH2 0x4F3B JUMP JUMPDEST PUSH0 SWAP2 DUP3 MSTORE PUSH1 0x20 DUP1 DUP4 KECCAK256 SWAP1 SWAP2 ADD SLOAD PUSH1 0x1 PUSH1 0x1 PUSH1 0xA0 SHL SUB AND DUP1 DUP4 MSTORE PUSH1 0x16 SWAP1 SWAP2 MSTORE PUSH1 0x40 DUP3 KECCAK256 SWAP1 SWAP3 POP SWAP1 JUMPDEST DUP2 SLOAD DUP2 LT ISZERO PUSH2 0x40DE JUMPI PUSH0 DUP3 DUP3 DUP2 SLOAD DUP2 LT PUSH2 0x4062 JUMPI PUSH2 0x4062 PUSH2 0x4F3B JUMP JUMPDEST SWAP1 PUSH0 MSTORE PUSH1 0x20 PUSH0 KECCAK256 SWAP1 PUSH1 0x6 MUL ADD PUSH1 0x4 ADD SLOAD GT ISZERO PUSH2 0x40D6 JUMPI DUP5 DUP3 DUP3 DUP2 SLOAD DUP2 LT PUSH2 0x408B JUMPI PUSH2 0x408B PUSH2 0x4F3B JUMP JUMPDEST SWAP1 PUSH0 MSTORE PUSH1 0x20 PUSH0 KECCAK256 SWAP1 PUSH1 0x6 MUL ADD PUSH1 0x5 ADD PUSH0 DUP3 DUP3 SLOAD PUSH2 0x40A8 SWAP2 SWAP1 PUSH2 0x4F9B JUMP JUMPDEST SWAP3 POP POP DUP2 SWAP1 SSTORE POP PUSH0 DUP3 DUP3 DUP2 SLOAD DUP2 LT PUSH2 0x40C2 JUMPI PUSH2 0x40C2 PUSH2 0x4F3B JUMP JUMPDEST SWAP1 PUSH0 MSTORE PUSH1 0x20 PUSH0 KECCAK256 SWAP1 PUSH1 0x6 MUL ADD PUSH1 0x4 ADD DUP2 SWAP1 SSTORE POP JUMPDEST PUSH1 0x1 ADD PUSH2 0x4046 JUMP JUMPDEST POP POP POP PUSH1 0x1 ADD PUSH2 0x4001 JUMP JUMPDEST PUSH2 0x1220 DUP3 DUP3 PUSH1 0x40 MLOAD DUP1 PUSH1 0x20 ADD PUSH1 0x40 MSTORE DUP1 PUSH0 DUP2 MSTORE POP PUSH2 0x44FA JUMP JUMPDEST PUSH0 PUSH0 PUSH2 0x410F DUP6 DUP6 DUP6 PUSH2 0x4511 JUMP JUMPDEST SWAP1 POP PUSH1 0x1 PUSH1 0x1 PUSH1 0xA0 SHL SUB DUP2 AND PUSH2 0x416B JUMPI PUSH2 0x4166 DUP5 PUSH1 0x8 DUP1 SLOAD PUSH0 DUP4 DUP2 MSTORE PUSH1 0x9 PUSH1 0x20 MSTORE PUSH1 0x40 DUP2 KECCAK256 DUP3 SWAP1 SSTORE PUSH1 0x1 DUP3 ADD DUP4 SSTORE SWAP2 SWAP1 SWAP2 MSTORE PUSH32 0xF3F7A9FE364FAAB93B216DA50A3214154F22A0A2B415B23A84C8169E8B636EE3 ADD SSTORE JUMP JUMPDEST PUSH2 0x418E JUMP JUMPDEST DUP5 PUSH1 0x1 PUSH1 0x1 PUSH1 0xA0 SHL SUB AND DUP2 PUSH1 0x1 PUSH1 0x1 PUSH1 0xA0 SHL SUB AND EQ PUSH2 0x418E JUMPI PUSH2 0x418E DUP2 DUP6 PUSH2 0x4603 JUMP JUMPDEST PUSH1 0x1 PUSH1 0x1 PUSH1 0xA0 SHL SUB DUP6 AND PUSH2 0x41AA JUMPI PUSH2 0x41A5 DUP5 PUSH2 0x4680 JUMP JUMPDEST PUSH2 0x34B0 JUMP JUMPDEST DUP5 PUSH1 0x1 PUSH1 0x1 PUSH1 0xA0 SHL SUB AND DUP2 PUSH1 0x1 PUSH1 0x1 PUSH1 0xA0 SHL SUB AND EQ PUSH2 0x34B0 JUMPI PUSH2 0x34B0 DUP6 DUP6 PUSH2 0x4727 JUMP JUMPDEST PUSH0 PUSH0 PUSH1 0x20 PUSH0 DUP5 MLOAD PUSH1 0x20 DUP7 ADD PUSH0 DUP9 GAS CALL DUP1 PUSH2 0x41EC JUMPI PUSH1 0x40 MLOAD RETURNDATASIZE PUSH0 DUP3 RETURNDATACOPY RETURNDATASIZE DUP2 REVERT JUMPDEST POP POP PUSH0 MLOAD RETURNDATASIZE SWAP2 POP DUP2 ISZERO PUSH2 0x4203 JUMPI DUP1 PUSH1 0x1 EQ ISZERO PUSH2 0x4210 JUMP JUMPDEST PUSH1 0x1 PUSH1 0x1 PUSH1 0xA0 SHL SUB DUP5 AND EXTCODESIZE ISZERO JUMPDEST ISZERO PUSH2 0x1622 JUMPI PUSH1 0x40 MLOAD PUSH4 0x5274AFE7 PUSH1 0xE0 SHL DUP2 MSTORE PUSH1 0x1 PUSH1 0x1 PUSH1 0xA0 SHL SUB DUP6 AND PUSH1 0x4 DUP3 ADD MSTORE PUSH1 0x24 ADD PUSH2 0x1119 JUMP JUMPDEST PUSH0 PUSH2 0x4244 DUP4 DUP4 PUSH2 0x264B JUMP JUMPDEST PUSH2 0x42C3 JUMPI PUSH0 DUP4 DUP2 MSTORE PUSH1 0xC PUSH1 0x20 SWAP1 DUP2 MSTORE PUSH1 0x40 DUP1 DUP4 KECCAK256 PUSH1 0x1 PUSH1 0x1 PUSH1 0xA0 SHL SUB DUP7 AND DUP5 MSTORE SWAP1 SWAP2 MSTORE SWAP1 KECCAK256 DUP1 SLOAD PUSH1 0xFF NOT AND PUSH1 0x1 OR SWAP1 SSTORE PUSH2 0x427B CALLER SWAP1 JUMP JUMPDEST PUSH1 0x1 PUSH1 0x1 PUSH1 0xA0 SHL SUB AND DUP3 PUSH1 0x1 PUSH1 0x1 PUSH1 0xA0 SHL SUB AND DUP5 PUSH32 0x2F8788117E7EFF1D82E926EC794901D17C78024A50270940304540A733656F0D PUSH1 0x40 MLOAD PUSH1 0x40 MLOAD DUP1 SWAP2 SUB SWAP1 LOG4 POP PUSH1 0x1 PUSH2 0x1094 JUMP JUMPDEST POP PUSH0 PUSH2 0x1094 JUMP JUMPDEST PUSH0 PUSH2 0x1598 DUP4 PUSH1 0x1 PUSH1 0x1 PUSH1 0xA0 SHL SUB DUP5 AND PUSH2 0x4775 JUMP JUMPDEST PUSH0 PUSH2 0x42E9 DUP4 DUP4 PUSH2 0x264B JUMP JUMPDEST ISZERO PUSH2 0x42C3 JUMPI PUSH0 DUP4 DUP2 MSTORE PUSH1 0xC PUSH1 0x20 SWAP1 DUP2 MSTORE PUSH1 0x40 DUP1 DUP4 KECCAK256 PUSH1 0x1 PUSH1 0x1 PUSH1 0xA0 SHL SUB DUP7 AND DUP1 DUP6 MSTORE SWAP3 MSTORE DUP1 DUP4 KECCAK256 DUP1 SLOAD PUSH1 0xFF NOT AND SWAP1 SSTORE MLOAD CALLER SWAP3 DUP7 SWAP2 PUSH32 0xF6391F5C32D9C69D2A47EA670B442974B53935D1EDC7FD64EB21E047A839171B SWAP2 SWAP1 LOG4 POP PUSH1 0x1 PUSH2 0x1094 JUMP JUMPDEST PUSH0 PUSH2 0x1598 DUP4 PUSH1 0x1 PUSH1 0x1 PUSH1 0xA0 SHL SUB DUP5 AND PUSH2 0x47BA JUMP JUMPDEST PUSH1 0xA SLOAD PUSH1 0xFF AND PUSH2 0x1E70 JUMPI PUSH1 0x40 MLOAD PUSH4 0x8DFC202B PUSH1 0xE0 SHL DUP2 MSTORE PUSH1 0x4 ADD PUSH1 0x40 MLOAD DUP1 SWAP2 SUB SWAP1 REVERT JUMPDEST PUSH0 DUP3 PUSH0 ADD DUP3 DUP2 SLOAD DUP2 LT PUSH2 0x4395 JUMPI PUSH2 0x4395 PUSH2 0x4F3B JUMP JUMPDEST SWAP1 PUSH0 MSTORE PUSH1 0x20 PUSH0 KECCAK256 ADD SLOAD SWAP1 POP SWAP3 SWAP2 POP POP JUMP JUMPDEST PUSH1 0x60 DUP2 PUSH0 ADD DUP1 SLOAD DUP1 PUSH1 0x20 MUL PUSH1 0x20 ADD PUSH1 0x40 MLOAD SWAP1 DUP2 ADD PUSH1 0x40 MSTORE DUP1 SWAP3 SWAP2 SWAP1 DUP2 DUP2 MSTORE PUSH1 0x20 ADD DUP3 DUP1 SLOAD DUP1 ISZERO PUSH2 0x43F3 JUMPI PUSH1 0x20 MUL DUP3 ADD SWAP2 SWAP1 PUSH0 MSTORE PUSH1 0x20 PUSH0 KECCAK256 SWAP1 JUMPDEST DUP2 SLOAD DUP2 MSTORE PUSH1 0x20 ADD SWAP1 PUSH1 0x1 ADD SWAP1 DUP1 DUP4 GT PUSH2 0x43DF JUMPI JUMPDEST POP POP POP POP POP SWAP1 POP SWAP2 SWAP1 POP JUMP JUMPDEST PUSH0 DUP1 PUSH19 0x184F03E93FF9F4DAA797ED6E38ED64BF6A1F01 PUSH1 0x40 SHL DUP4 LT PUSH2 0x443D JUMPI PUSH19 0x184F03E93FF9F4DAA797ED6E38ED64BF6A1F01 PUSH1 0x40 SHL DUP4 DIV SWAP3 POP PUSH1 0x40 ADD JUMPDEST PUSH14 0x4EE2D6D415B85ACEF8100000000 DUP4 LT PUSH2 0x4469 JUMPI PUSH14 0x4EE2D6D415B85ACEF8100000000 DUP4 DIV SWAP3 POP PUSH1 0x20 ADD JUMPDEST PUSH7 0x2386F26FC10000 DUP4 LT PUSH2 0x4487 JUMPI PUSH7 0x2386F26FC10000 DUP4 DIV SWAP3 POP PUSH1 0x10 ADD JUMPDEST PUSH4 0x5F5E100 DUP4 LT PUSH2 0x449F JUMPI PUSH4 0x5F5E100 DUP4 DIV SWAP3 POP PUSH1 0x8 ADD JUMPDEST PUSH2 0x2710 DUP4 LT PUSH2 0x44B3 JUMPI PUSH2 0x2710 DUP4 DIV SWAP3 POP PUSH1 0x4 ADD JUMPDEST PUSH1 0x64 DUP4 LT PUSH2 0x44C5 JUMPI PUSH1 0x64 DUP4 DIV SWAP3 POP PUSH1 0x2 ADD JUMPDEST PUSH1 0xA DUP4 LT PUSH2 0x1094 JUMPI PUSH1 0x1 ADD SWAP3 SWAP2 POP POP JUMP JUMPDEST PUSH0 PUSH1 0x1 PUSH1 0x1 PUSH1 0xE0 SHL SUB NOT DUP3 AND PUSH4 0x780E9D63 PUSH1 0xE0 SHL EQ DUP1 PUSH2 0x1094 JUMPI POP PUSH2 0x1094 DUP3 PUSH2 0x489D JUMP JUMPDEST PUSH2 0x4504 DUP4 DUP4 PUSH2 0x48EC JUMP JUMPDEST PUSH2 0x19F6 CALLER PUSH0 DUP6 DUP6 DUP6 PUSH2 0x3B77 JUMP JUMPDEST PUSH0 DUP3 DUP2 MSTORE PUSH1 0x2 PUSH1 0x20 MSTORE PUSH1 0x40 DUP2 KECCAK256 SLOAD PUSH1 0x1 PUSH1 0x1 PUSH1 0xA0 SHL SUB SWAP1 DUP2 AND SWAP1 DUP4 AND ISZERO PUSH2 0x453D JUMPI PUSH2 0x453D DUP2 DUP5 DUP7 PUSH2 0x494D JUMP JUMPDEST PUSH1 0x1 PUSH1 0x1 PUSH1 0xA0 SHL SUB DUP2 AND ISZERO PUSH2 0x4577 JUMPI PUSH2 0x4558 PUSH0 DUP6 PUSH0 PUSH0 PUSH2 0x3D95 JUMP JUMPDEST PUSH1 0x1 PUSH1 0x1 PUSH1 0xA0 SHL SUB DUP2 AND PUSH0 SWAP1 DUP2 MSTORE PUSH1 0x3 PUSH1 0x20 MSTORE PUSH1 0x40 SWAP1 KECCAK256 DUP1 SLOAD PUSH0 NOT ADD SWAP1 SSTORE JUMPDEST PUSH1 0x1 PUSH1 0x1 PUSH1 0xA0 SHL SUB DUP6 AND ISZERO PUSH2 0x45A5 JUMPI PUSH1 0x1 PUSH1 0x1 PUSH1 0xA0 SHL SUB DUP6 AND PUSH0 SWAP1 DUP2 MSTORE PUSH1 0x3 PUSH1 0x20 MSTORE PUSH1 0x40 SWAP1 KECCAK256 DUP1 SLOAD PUSH1 0x1 ADD SWAP1 SSTORE JUMPDEST PUSH0 DUP5 DUP2 MSTORE PUSH1 0x2 PUSH1 0x20 MSTORE PUSH1 0x40 DUP1 DUP3 KECCAK256 DUP1 SLOAD PUSH1 0x1 PUSH1 0x1 PUSH1 0xA0 SHL SUB NOT AND PUSH1 0x1 PUSH1 0x1 PUSH1 0xA0 SHL SUB DUP10 DUP2 AND SWAP2 DUP3 OR SWAP1 SWAP3 SSTORE SWAP2 MLOAD DUP8 SWAP4 SWAP2 DUP6 AND SWAP2 PUSH32 0xDDF252AD1BE2C89B69C2B068FC378DAA952BA7F163C4A11628F55A4DF523B3EF SWAP2 LOG4 SWAP5 SWAP4 POP POP POP POP JUMP JUMPDEST PUSH0 PUSH2 0x460D DUP4 PUSH2 0x23F9 JUMP JUMPDEST PUSH0 DUP4 DUP2 MSTORE PUSH1 0x7 PUSH1 0x20 SWAP1 DUP2 MSTORE PUSH1 0x40 DUP1 DUP4 KECCAK256 SLOAD PUSH1 0x1 PUSH1 0x1 PUSH1 0xA0 SHL SUB DUP9 AND DUP5 MSTORE PUSH1 0x6 SWAP1 SWAP3 MSTORE SWAP1 SWAP2 KECCAK256 SWAP2 SWAP3 POP SWAP1 DUP2 DUP4 EQ PUSH2 0x4662 JUMPI PUSH0 DUP4 DUP2 MSTORE PUSH1 0x20 DUP3 DUP2 MSTORE PUSH1 0x40 DUP1 DUP4 KECCAK256 SLOAD DUP6 DUP5 MSTORE DUP2 DUP5 KECCAK256 DUP2 SWAP1 SSTORE DUP4 MSTORE PUSH1 0x7 SWAP1 SWAP2 MSTORE SWAP1 KECCAK256 DUP3 SWAP1 SSTORE JUMPDEST PUSH0 SWAP4 DUP5 MSTORE PUSH1 0x7 PUSH1 0x20 SWAP1 DUP2 MSTORE PUSH1 0x40 DUP1 DUP7 KECCAK256 DUP7 SWAP1 SSTORE SWAP4 DUP6 MSTORE MSTORE POP DUP2 KECCAK256 SSTORE POP JUMP JUMPDEST PUSH1 0x8 SLOAD PUSH0 SWAP1 PUSH2 0x4691 SWAP1 PUSH1 0x1 SWAP1 PUSH2 0x5062 JUMP JUMPDEST PUSH0 DUP4 DUP2 MSTORE PUSH1 0x9 PUSH1 0x20 MSTORE PUSH1 0x40 DUP2 KECCAK256 SLOAD PUSH1 0x8 DUP1 SLOAD SWAP4 SWAP5 POP SWAP1 SWAP3 DUP5 SWAP1 DUP2 LT PUSH2 0x46B8 JUMPI PUSH2 0x46B8 PUSH2 0x4F3B JUMP JUMPDEST SWAP1 PUSH0 MSTORE PUSH1 0x20 PUSH0 KECCAK256 ADD SLOAD SWAP1 POP DUP1 PUSH1 0x8 DUP4 DUP2 SLOAD DUP2 LT PUSH2 0x46D7 JUMPI PUSH2 0x46D7 PUSH2 0x4F3B JUMP JUMPDEST PUSH0 SWAP2 DUP3 MSTORE PUSH1 0x20 DUP1 DUP4 KECCAK256 SWAP1 SWAP2 ADD SWAP3 SWAP1 SWAP3 SSTORE DUP3 DUP2 MSTORE PUSH1 0x9 SWAP1 SWAP2 MSTORE PUSH1 0x40 DUP1 DUP3 KECCAK256 DUP5 SWAP1 SSTORE DUP6 DUP3 MSTORE DUP2 KECCAK256 SSTORE PUSH1 0x8 DUP1 SLOAD DUP1 PUSH2 0x470E JUMPI PUSH2 0x470E PUSH2 0x5094 JUMP JUMPDEST PUSH1 0x1 SWAP1 SUB DUP2 DUP2 SWAP1 PUSH0 MSTORE PUSH1 0x20 PUSH0 KECCAK256 ADD PUSH0 SWAP1 SSTORE SWAP1 SSTORE POP POP POP POP JUMP JUMPDEST PUSH0 PUSH1 0x1 PUSH2 0x4733 DUP5 PUSH2 0x23F9 JUMP JUMPDEST PUSH2 0x473D SWAP2 SWAP1 PUSH2 0x5062 JUMP JUMPDEST PUSH1 0x1 PUSH1 0x1 PUSH1 0xA0 SHL SUB SWAP1 SWAP4 AND PUSH0 SWAP1 DUP2 MSTORE PUSH1 0x6 PUSH1 0x20 SWAP1 DUP2 MSTORE PUSH1 0x40 DUP1 DUP4 KECCAK256 DUP7 DUP5 MSTORE DUP3 MSTORE DUP1 DUP4 KECCAK256 DUP6 SWAP1 SSTORE SWAP4 DUP3 MSTORE PUSH1 0x7 SWAP1 MSTORE SWAP2 SWAP1 SWAP2 KECCAK256 SWAP2 SWAP1 SWAP2 SSTORE POP JUMP JUMPDEST PUSH0 DUP2 DUP2 MSTORE PUSH1 0x1 DUP4 ADD PUSH1 0x20 MSTORE PUSH1 0x40 DUP2 KECCAK256 SLOAD PUSH2 0x42C3 JUMPI POP DUP2 SLOAD PUSH1 0x1 DUP2 DUP2 ADD DUP5 SSTORE PUSH0 DUP5 DUP2 MSTORE PUSH1 0x20 DUP1 DUP3 KECCAK256 SWAP1 SWAP4 ADD DUP5 SWAP1 SSTORE DUP5 SLOAD DUP5 DUP3 MSTORE DUP3 DUP7 ADD SWAP1 SWAP4 MSTORE PUSH1 0x40 SWAP1 KECCAK256 SWAP2 SWAP1 SWAP2 SSTORE PUSH2 0x1094 JUMP JUMPDEST PUSH0 DUP2 DUP2 MSTORE PUSH1 0x1 DUP4 ADD PUSH1 0x20 MSTORE PUSH1 0x40 DUP2 KECCAK256 SLOAD DUP1 ISZERO PUSH2 0x4894 JUMPI PUSH0 PUSH2 0x47DC PUSH1 0x1 DUP4 PUSH2 0x5062 JUMP JUMPDEST DUP6 SLOAD SWAP1 SWAP2 POP PUSH0 SWAP1 PUSH2 0x47EF SWAP1 PUSH1 0x1 SWAP1 PUSH2 0x5062 JUMP JUMPDEST SWAP1 POP DUP1 DUP3 EQ PUSH2 0x484E JUMPI PUSH0 DUP7 PUSH0 ADD DUP3 DUP2 SLOAD DUP2 LT PUSH2 0x480D JUMPI PUSH2 0x480D PUSH2 0x4F3B JUMP JUMPDEST SWAP1 PUSH0 MSTORE PUSH1 0x20 PUSH0 KECCAK256 ADD SLOAD SWAP1 POP DUP1 DUP8 PUSH0 ADD DUP5 DUP2 SLOAD DUP2 LT PUSH2 0x482D JUMPI PUSH2 0x482D PUSH2 0x4F3B JUMP JUMPDEST PUSH0 SWAP2 DUP3 MSTORE PUSH1 0x20 DUP1 DUP4 KECCAK256 SWAP1 SWAP2 ADD SWAP3 SWAP1 SWAP3 SSTORE SWAP2 DUP3 MSTORE PUSH1 0x1 DUP9 ADD SWAP1 MSTORE PUSH1 0x40 SWAP1 KECCAK256 DUP4 SWAP1 SSTORE JUMPDEST DUP6 SLOAD DUP7 SWAP1 DUP1 PUSH2 0x485F JUMPI PUSH2 0x485F PUSH2 0x5094 JUMP JUMPDEST PUSH1 0x1 SWAP1 SUB DUP2 DUP2 SWAP1 PUSH0 MSTORE PUSH1 0x20 PUSH0 KECCAK256 ADD PUSH0 SWAP1 SSTORE SWAP1 SSTORE DUP6 PUSH1 0x1 ADD PUSH0 DUP7 DUP2 MSTORE PUSH1 0x20 ADD SWAP1 DUP2 MSTORE PUSH1 0x20 ADD PUSH0 KECCAK256 PUSH0 SWAP1 SSTORE PUSH1 0x1 SWAP4 POP POP POP POP PUSH2 0x1094 JUMP JUMPDEST PUSH0 SWAP2 POP POP PUSH2 0x1094 JUMP JUMPDEST PUSH0 PUSH1 0x1 PUSH1 0x1 PUSH1 0xE0 SHL SUB NOT DUP3 AND PUSH4 0x80AC58CD PUSH1 0xE0 SHL EQ DUP1 PUSH2 0x48CD JUMPI POP PUSH1 0x1 PUSH1 0x1 PUSH1 0xE0 SHL SUB NOT DUP3 AND PUSH4 0x5B5E139F PUSH1 0xE0 SHL EQ JUMPDEST DUP1 PUSH2 0x1094 JUMPI POP PUSH4 0x1FFC9A7 PUSH1 0xE0 SHL PUSH1 0x1 PUSH1 0x1 PUSH1 0xE0 SHL SUB NOT DUP4 AND EQ PUSH2 0x1094 JUMP JUMPDEST PUSH1 0x1 PUSH1 0x1 PUSH1 0xA0 SHL SUB DUP3 AND PUSH2 0x4915 JUMPI PUSH1 0x40 MLOAD PUSH4 0x32505749 PUSH1 0xE1 SHL DUP2 MSTORE PUSH0 PUSH1 0x4 DUP3 ADD MSTORE PUSH1 0x24 ADD PUSH2 0x1119 JUMP JUMPDEST PUSH0 PUSH2 0x4921 DUP4 DUP4 PUSH0 PUSH2 0x3803 JUMP JUMPDEST SWAP1 POP PUSH1 0x1 PUSH1 0x1 PUSH1 0xA0 SHL SUB DUP2 AND ISZERO PUSH2 0x19F6 JUMPI PUSH1 0x40 MLOAD PUSH4 0x39E35637 PUSH1 0xE1 SHL DUP2 MSTORE PUSH0 PUSH1 0x4 DUP3 ADD MSTORE PUSH1 0x24 ADD PUSH2 0x1119 JUMP JUMPDEST PUSH2 0x4958 DUP4 DUP4 DUP4 PUSH2 0x49B1 JUMP JUMPDEST PUSH2 0x19F6 JUMPI PUSH1 0x1 PUSH1 0x1 PUSH1 0xA0 SHL SUB DUP4 AND PUSH2 0x4986 JUMPI PUSH1 0x40 MLOAD PUSH4 0x7E273289 PUSH1 0xE0 SHL DUP2 MSTORE PUSH1 0x4 DUP2 ADD DUP3 SWAP1 MSTORE PUSH1 0x24 ADD PUSH2 0x1119 JUMP JUMPDEST PUSH1 0x40 MLOAD PUSH4 0x177E802F PUSH1 0xE0 SHL DUP2 MSTORE PUSH1 0x1 PUSH1 0x1 PUSH1 0xA0 SHL SUB DUP4 AND PUSH1 0x4 DUP3 ADD MSTORE PUSH1 0x24 DUP2 ADD DUP3 SWAP1 MSTORE PUSH1 0x44 ADD PUSH2 0x1119 JUMP JUMPDEST PUSH0 PUSH1 0x1 PUSH1 0x1 PUSH1 0xA0 SHL SUB DUP4 AND ISZERO DUP1 ISZERO SWAP1 PUSH2 0x34B0 JUMPI POP DUP3 PUSH1 0x1 PUSH1 0x1 PUSH1 0xA0 SHL SUB AND DUP5 PUSH1 0x1 PUSH1 0x1 PUSH1 0xA0 SHL SUB AND EQ DUP1 PUSH2 0x49EA JUMPI POP PUSH2 0x49EA DUP5 DUP5 PUSH2 0x329D JUMP JUMPDEST DUP1 PUSH2 0x34B0 JUMPI POP POP PUSH0 SWAP1 DUP2 MSTORE PUSH1 0x4 PUSH1 0x20 MSTORE PUSH1 0x40 SWAP1 KECCAK256 SLOAD PUSH1 0x1 PUSH1 0x1 PUSH1 0xA0 SHL SUB SWAP1 DUP2 AND SWAP2 AND EQ SWAP2 SWAP1 POP JUMP JUMPDEST PUSH1 0x1 PUSH1 0x1 PUSH1 0xA0 SHL SUB DUP2 AND DUP2 EQ PUSH2 0x184A JUMPI PUSH0 PUSH0 REVERT JUMPDEST PUSH0 PUSH1 0x20 DUP3 DUP5 SUB SLT ISZERO PUSH2 0x4A36 JUMPI PUSH0 PUSH0 REVERT JUMPDEST DUP2 CALLDATALOAD PUSH2 0x1598 DUP2 PUSH2 0x4A12 JUMP JUMPDEST PUSH1 0x1 PUSH1 0x1 PUSH1 0xE0 SHL SUB NOT DUP2 AND DUP2 EQ PUSH2 0x184A JUMPI PUSH0 PUSH0 REVERT JUMPDEST PUSH0 PUSH1 0x20 DUP3 DUP5 SUB SLT ISZERO PUSH2 0x4A66 JUMPI PUSH0 PUSH0 REVERT JUMPDEST DUP2 CALLDATALOAD PUSH2 0x1598 DUP2 PUSH2 0x4A41 JUMP JUMPDEST PUSH0 PUSH1 0x20 DUP3 DUP5 SUB SLT ISZERO PUSH2 0x4A81 JUMPI PUSH0 PUSH0 REVERT JUMPDEST POP CALLDATALOAD SWAP2 SWAP1 POP JUMP JUMPDEST PUSH0 DUP2 MLOAD DUP1 DUP5 MSTORE DUP1 PUSH1 0x20 DUP5 ADD PUSH1 0x20 DUP7 ADD MCOPY PUSH0 PUSH1 0x20 DUP3 DUP7 ADD ADD MSTORE PUSH1 0x20 PUSH1 0x1F NOT PUSH1 0x1F DUP4 ADD AND DUP6 ADD ADD SWAP2 POP POP SWAP3 SWAP2 POP POP JUMP JUMPDEST PUSH1 0x20 DUP2 MSTORE PUSH0 PUSH2 0x1598 PUSH1 0x20 DUP4 ADD DUP5 PUSH2 0x4A88 JUMP JUMPDEST PUSH0 PUSH0 PUSH1 0x40 DUP4 DUP6 SUB SLT ISZERO PUSH2 0x4AD9 JUMPI PUSH0 PUSH0 REVERT JUMPDEST DUP3 CALLDATALOAD PUSH2 0x4AE4 DUP2 PUSH2 0x4A12 JUMP JUMPDEST SWAP5 PUSH1 0x20 SWAP4 SWAP1 SWAP4 ADD CALLDATALOAD SWAP4 POP POP POP JUMP JUMPDEST PUSH0 PUSH0 PUSH1 0x40 DUP4 DUP6 SUB SLT ISZERO PUSH2 0x4B03 JUMPI PUSH0 PUSH0 REVERT JUMPDEST DUP3 CALLDATALOAD PUSH2 0x4B0E DUP2 PUSH2 0x4A12 JUMP JUMPDEST SWAP2 POP PUSH1 0x20 DUP4 ADD CALLDATALOAD PUSH2 0x4B1E DUP2 PUSH2 0x4A12 JUMP JUMPDEST DUP1 SWAP2 POP POP SWAP3 POP SWAP3 SWAP1 POP JUMP JUMPDEST PUSH0 PUSH0 PUSH1 0x40 DUP4 DUP6 SUB SLT ISZERO PUSH2 0x4B3A JUMPI PUSH0 PUSH0 REVERT JUMPDEST POP POP DUP1 CALLDATALOAD SWAP3 PUSH1 0x20 SWAP1 SWAP2 ADD CALLDATALOAD SWAP2 POP JUMP JUMPDEST PUSH0 PUSH0 PUSH0 PUSH1 0x60 DUP5 DUP7 SUB SLT ISZERO PUSH2 0x4B5B JUMPI PUSH0 PUSH0 REVERT JUMPDEST DUP4 CALLDATALOAD PUSH2 0x4B66 DUP2 PUSH2 0x4A12 JUMP JUMPDEST SWAP3 POP PUSH1 0x20 DUP5 ADD CALLDATALOAD PUSH2 0x4B76 DUP2 PUSH2 0x4A12 JUMP JUMPDEST SWAP3 SWAP6 SWAP3 SWAP5 POP POP POP PUSH1 0x40 SWAP2 SWAP1 SWAP2 ADD CALLDATALOAD SWAP1 JUMP JUMPDEST PUSH0 PUSH0 PUSH1 0x40 DUP4 DUP6 SUB SLT ISZERO PUSH2 0x4B98 JUMPI PUSH0 PUSH0 REVERT JUMPDEST DUP3 CALLDATALOAD SWAP2 POP PUSH1 0x20 DUP4 ADD CALLDATALOAD PUSH2 0x4B1E DUP2 PUSH2 0x4A12 JUMP JUMPDEST PUSH0 DUP2 MLOAD DUP1 DUP5 MSTORE PUSH1 0x20 DUP5 ADD SWAP4 POP PUSH1 0x20 DUP4 ADD PUSH0 JUMPDEST DUP3 DUP2 LT ISZERO PUSH2 0x4BDA JUMPI DUP2 MLOAD DUP7 MSTORE PUSH1 0x20 SWAP6 DUP7 ADD SWAP6 SWAP1 SWAP2 ADD SWAP1 PUSH1 0x1 ADD PUSH2 0x4BBC JUMP JUMPDEST POP SWAP4 SWAP5 SWAP4 POP POP POP POP JUMP JUMPDEST PUSH1 0x20 DUP2 MSTORE PUSH0 PUSH2 0x1598 PUSH1 0x20 DUP4 ADD DUP5 PUSH2 0x4BAA JUMP JUMPDEST PUSH1 0x20 DUP1 DUP3 MSTORE DUP3 MLOAD DUP3 DUP3 ADD DUP2 SWAP1 MSTORE PUSH0 SWAP2 DUP5 ADD SWAP1 PUSH1 0x40 DUP5 ADD SWAP1 DUP4 JUMPDEST DUP2 DUP2 LT ISZERO PUSH2 0x4C67 JUMPI DUP4 MLOAD DUP1 MLOAD DUP5 MSTORE PUSH1 0x20 DUP2 ADD MLOAD PUSH1 0x20 DUP6 ADD MSTORE PUSH1 0x40 DUP2 ADD MLOAD PUSH1 0x40 DUP6 ADD MSTORE PUSH1 0x60 DUP2 ADD MLOAD PUSH1 0x60 DUP6 ADD MSTORE PUSH1 0x80 DUP2 ADD MLOAD PUSH1 0x80 DUP6 ADD MSTORE PUSH1 0xA0 DUP2 ADD MLOAD PUSH1 0xA0 DUP6 ADD MSTORE POP PUSH1 0xC0 DUP4 ADD SWAP3 POP PUSH1 0x20 DUP5 ADD SWAP4 POP PUSH1 0x1 DUP2 ADD SWAP1 POP PUSH2 0x4C0F JUMP JUMPDEST POP SWAP1 SWAP6 SWAP5 POP POP POP POP POP JUMP JUMPDEST DUP2 MLOAD DUP2 MSTORE PUSH1 0x20 DUP1 DUP4 ADD MLOAD SWAP1 DUP3 ADD MSTORE PUSH1 0x40 DUP1 DUP4 ADD MLOAD SWAP1 DUP3 ADD MSTORE PUSH1 0x60 DUP1 DUP4 ADD MLOAD ISZERO ISZERO SWAP1 DUP3 ADD MSTORE PUSH1 0x80 DUP2 ADD PUSH2 0x1094 JUMP JUMPDEST PUSH0 DUP2 MLOAD DUP1 DUP5 MSTORE PUSH1 0x20 DUP5 ADD SWAP4 POP PUSH1 0x20 DUP4 ADD PUSH0 JUMPDEST DUP3 DUP2 LT ISZERO PUSH2 0x4BDA JUMPI DUP2 MLOAD PUSH1 0x1 PUSH1 0x1 PUSH1 0xA0 SHL SUB AND DUP7 MSTORE PUSH1 0x20 SWAP6 DUP7 ADD SWAP6 SWAP1 SWAP2 ADD SWAP1 PUSH1 0x1 ADD PUSH2 0x4CB1 JUMP JUMPDEST PUSH1 0x40 DUP2 MSTORE PUSH0 PUSH2 0x4CEA PUSH1 0x40 DUP4 ADD DUP6 PUSH2 0x4C9F JUMP JUMPDEST DUP3 DUP2 SUB PUSH1 0x20 DUP5 ADD MSTORE PUSH2 0x391D DUP2 DUP6 PUSH2 0x4BAA JUMP JUMPDEST PUSH0 PUSH0 PUSH1 0x40 DUP4 DUP6 SUB SLT ISZERO PUSH2 0x4D0D JUMPI PUSH0 PUSH0 REVERT JUMPDEST DUP3 CALLDATALOAD PUSH2 0x4D18 DUP2 PUSH2 0x4A12 JUMP JUMPDEST SWAP2 POP PUSH1 0x20 DUP4 ADD CALLDATALOAD DUP1 ISZERO ISZERO DUP2 EQ PUSH2 0x4B1E JUMPI PUSH0 PUSH0 REVERT JUMPDEST PUSH1 0x20 DUP2 MSTORE PUSH0 PUSH2 0x1598 PUSH1 0x20 DUP4 ADD DUP5 PUSH2 0x4C9F JUMP JUMPDEST PUSH0 PUSH0 PUSH0 PUSH1 0x60 DUP5 DUP7 SUB SLT ISZERO PUSH2 0x4D50 JUMPI PUSH0 PUSH0 REVERT JUMPDEST DUP4 CALLDATALOAD PUSH2 0x4D5B DUP2 PUSH2 0x4A12 JUMP JUMPDEST SWAP6 PUSH1 0x20 DUP6 ADD CALLDATALOAD SWAP6 POP PUSH1 0x40 SWAP1 SWAP5 ADD CALLDATALOAD SWAP4 SWAP3 POP POP POP JUMP JUMPDEST PUSH4 0x4E487B71 PUSH1 0xE0 SHL PUSH0 MSTORE PUSH1 0x41 PUSH1 0x4 MSTORE PUSH1 0x24 PUSH0 REVERT JUMPDEST PUSH0 PUSH0 PUSH0 PUSH0 PUSH1 0x80 DUP6 DUP8 SUB SLT ISZERO PUSH2 0x4D97 JUMPI PUSH0 PUSH0 REVERT JUMPDEST DUP5 CALLDATALOAD PUSH2 0x4DA2 DUP2 PUSH2 0x4A12 JUMP JUMPDEST SWAP4 POP PUSH1 0x20 DUP6 ADD CALLDATALOAD PUSH2 0x4DB2 DUP2 PUSH2 0x4A12 JUMP JUMPDEST SWAP3 POP PUSH1 0x40 DUP6 ADD CALLDATALOAD SWAP2 POP PUSH1 0x60 DUP6 ADD CALLDATALOAD PUSH8 0xFFFFFFFFFFFFFFFF DUP2 GT ISZERO PUSH2 0x4DD4 JUMPI PUSH0 PUSH0 REVERT JUMPDEST DUP6 ADD PUSH1 0x1F DUP2 ADD DUP8 SGT PUSH2 0x4DE4 JUMPI PUSH0 PUSH0 REVERT JUMPDEST DUP1 CALLDATALOAD PUSH8 0xFFFFFFFFFFFFFFFF DUP2 GT ISZERO PUSH2 0x4DFE JUMPI PUSH2 0x4DFE PUSH2 0x4D70 JUMP JUMPDEST PUSH1 0x40 MLOAD PUSH1 0x1F DUP3 ADD PUSH1 0x1F NOT SWAP1 DUP2 AND PUSH1 0x3F ADD AND DUP2 ADD PUSH8 0xFFFFFFFFFFFFFFFF DUP2 GT DUP3 DUP3 LT OR ISZERO PUSH2 0x4E2D JUMPI PUSH2 0x4E2D PUSH2 0x4D70 JUMP JUMPDEST PUSH1 0x40 MSTORE DUP2 DUP2 MSTORE DUP3 DUP3 ADD PUSH1 0x20 ADD DUP10 LT ISZERO PUSH2 0x4E44 JUMPI PUSH0 PUSH0 REVERT JUMPDEST DUP2 PUSH1 0x20 DUP5 ADD PUSH1 0x20 DUP4 ADD CALLDATACOPY PUSH0 PUSH1 0x20 DUP4 DUP4 ADD ADD MSTORE DUP1 SWAP4 POP POP POP POP SWAP3 SWAP6 SWAP2 SWAP5 POP SWAP3 POP JUMP JUMPDEST PUSH1 0x20 DUP1 DUP3 MSTORE DUP3 MLOAD DUP3 DUP3 ADD DUP2 SWAP1 MSTORE PUSH0 SWAP2 DUP5 ADD SWAP1 PUSH1 0x40 DUP5 ADD SWAP1 DUP4 JUMPDEST DUP2 DUP2 LT ISZERO PUSH2 0x4C67 JUMPI PUSH2 0x4EB4 DUP4 DUP6 MLOAD DUP1 MLOAD DUP3 MSTORE PUSH1 0x20 DUP2 ADD MLOAD PUSH1 0x20 DUP4 ADD MSTORE PUSH1 0x40 DUP2 ADD MLOAD PUSH1 0x40 DUP4 ADD MSTORE PUSH1 0x60 DUP2 ADD MLOAD ISZERO ISZERO PUSH1 0x60 DUP4 ADD MSTORE POP POP JUMP JUMPDEST PUSH1 0x20 SWAP4 SWAP1 SWAP4 ADD SWAP3 PUSH1 0x80 SWAP3 SWAP1 SWAP3 ADD SWAP2 PUSH1 0x1 ADD PUSH2 0x4E7E JUMP JUMPDEST PUSH0 PUSH0 PUSH1 0x20 DUP4 DUP6 SUB SLT ISZERO PUSH2 0x4EDB JUMPI PUSH0 PUSH0 REVERT JUMPDEST DUP3 CALLDATALOAD PUSH8 0xFFFFFFFFFFFFFFFF DUP2 GT ISZERO PUSH2 0x4EF1 JUMPI PUSH0 PUSH0 REVERT JUMPDEST DUP4 ADD PUSH1 0x1F DUP2 ADD DUP6 SGT PUSH2 0x4F01 JUMPI PUSH0 PUSH0 REVERT JUMPDEST DUP1 CALLDATALOAD PUSH8 0xFFFFFFFFFFFFFFFF DUP2 GT ISZERO PUSH2 0x4F17 JUMPI PUSH0 PUSH0 REVERT JUMPDEST DUP6 PUSH1 0x20 DUP3 PUSH1 0x5 SHL DUP5 ADD ADD GT ISZERO PUSH2 0x4F2B JUMPI PUSH0 PUSH0 REVERT JUMPDEST PUSH1 0x20 SWAP2 SWAP1 SWAP2 ADD SWAP6 SWAP1 SWAP5 POP SWAP3 POP POP POP JUMP JUMPDEST PUSH4 0x4E487B71 PUSH1 0xE0 SHL PUSH0 MSTORE PUSH1 0x32 PUSH1 0x4 MSTORE PUSH1 0x24 PUSH0 REVERT JUMPDEST PUSH1 0x1 DUP2 DUP2 SHR SWAP1 DUP3 AND DUP1 PUSH2 0x4F63 JUMPI PUSH1 0x7F DUP3 AND SWAP2 POP JUMPDEST PUSH1 0x20 DUP3 LT DUP2 SUB PUSH2 0x4F81 JUMPI PUSH4 0x4E487B71 PUSH1 0xE0 SHL PUSH0 MSTORE PUSH1 0x22 PUSH1 0x4 MSTORE PUSH1 0x24 PUSH0 REVERT JUMPDEST POP SWAP2 SWAP1 POP JUMP JUMPDEST PUSH4 0x4E487B71 PUSH1 0xE0 SHL PUSH0 MSTORE PUSH1 0x11 PUSH1 0x4 MSTORE PUSH1 0x24 PUSH0 REVERT JUMPDEST DUP1 DUP3 ADD DUP1 DUP3 GT ISZERO PUSH2 0x1094 JUMPI PUSH2 0x1094 PUSH2 0x4F87 JUMP JUMPDEST PUSH1 0x1 PUSH1 0x1 PUSH1 0xA0 SHL SUB SWAP2 SWAP1 SWAP2 AND DUP2 MSTORE PUSH1 0x40 PUSH1 0x20 DUP3 ADD DUP2 SWAP1 MSTORE PUSH1 0x29 SWAP1 DUP3 ADD MSTORE PUSH32 0x4163636F756E742069732066726F7A656E20666F7220636F6D706C69616E6365 PUSH1 0x60 DUP3 ADD MSTORE PUSH9 0x20707572706F736573 PUSH1 0xB8 SHL PUSH1 0x80 DUP3 ADD MSTORE PUSH1 0xA0 ADD SWAP1 JUMP JUMPDEST PUSH1 0x1 PUSH1 0x1 PUSH1 0xA0 SHL SUB SWAP2 SWAP1 SWAP2 AND DUP2 MSTORE PUSH1 0x40 PUSH1 0x20 DUP3 ADD DUP2 SWAP1 MSTORE PUSH1 0x16 SWAP1 DUP3 ADD MSTORE PUSH22 0x1058D8DBDD5B9D081A5CC8189B1858DADB1A5CDD1959 PUSH1 0x52 SHL PUSH1 0x60 DUP3 ADD MSTORE PUSH1 0x80 ADD SWAP1 JUMP JUMPDEST DUP1 DUP3 MUL DUP2 ISZERO DUP3 DUP3 DIV DUP5 EQ OR PUSH2 0x1094 JUMPI PUSH2 0x1094 PUSH2 0x4F87 JUMP JUMPDEST DUP2 DUP2 SUB DUP2 DUP2 GT ISZERO PUSH2 0x1094 JUMPI PUSH2 0x1094 PUSH2 0x4F87 JUMP JUMPDEST PUSH0 DUP3 PUSH2 0x508F JUMPI PUSH4 0x4E487B71 PUSH1 0xE0 SHL PUSH0 MSTORE PUSH1 0x12 PUSH1 0x4 MSTORE PUSH1 0x24 PUSH0 REVERT JUMPDEST POP DIV SWAP1 JUMP JUMPDEST PUSH4 0x4E487B71 PUSH1 0xE0 SHL PUSH0 MSTORE PUSH1 0x31 PUSH1 0x4 MSTORE PUSH1 0x24 PUSH0 REVERT JUMPDEST PUSH1 0x1 PUSH1 0x1 PUSH1 0xA0 SHL SUB SWAP4 DUP5 AND DUP2 MSTORE SWAP2 SWAP1 SWAP3 AND PUSH1 0x20 DUP3 ADD MSTORE PUSH1 0x40 DUP2 ADD SWAP2 SWAP1 SWAP2 MSTORE PUSH1 0x60 ADD SWAP1 JUMP JUMPDEST PUSH0 PUSH1 0x1 DUP3 ADD PUSH2 0x50DD JUMPI PUSH2 0x50DD PUSH2 0x4F87 JUMP JUMPDEST POP PUSH1 0x1 ADD SWAP1 JUMP JUMPDEST PUSH0 DUP2 MLOAD DUP1 PUSH1 0x20 DUP5 ADD DUP6 MCOPY PUSH0 SWAP4 ADD SWAP3 DUP4 MSTORE POP SWAP1 SWAP2 SWAP1 POP JUMP JUMPDEST PUSH0 PUSH2 0x34B0 PUSH2 0x5109 DUP4 DUP7 PUSH2 0x50E4 JUMP JUMPDEST DUP5 PUSH2 0x50E4 JUMP JUMPDEST PUSH1 0x1 PUSH1 0x1 PUSH1 0xA0 SHL SUB DUP6 DUP2 AND DUP3 MSTORE DUP5 AND PUSH1 0x20 DUP3 ADD MSTORE PUSH1 0x40 DUP2 ADD DUP4 SWAP1 MSTORE PUSH1 0x80 PUSH1 0x60 DUP3 ADD DUP2 SWAP1 MSTORE PUSH0 SWAP1 PUSH2 0x5141 SWAP1 DUP4 ADD DUP5 PUSH2 0x4A88 JUMP JUMPDEST SWAP7 SWAP6 POP POP POP POP POP POP JUMP JUMPDEST PUSH0 PUSH1 0x20 DUP3 DUP5 SUB SLT ISZERO PUSH2 0x515B JUMPI PUSH0 PUSH0 REVERT JUMPDEST DUP2 MLOAD PUSH2 0x1598 DUP2 PUSH2 0x4A41 JUMP INVALID LOG4 SWAP9 SMOD KECCAK256 TLOAD RETF 0xD3 SSTORE MULMOD 0x2E CREATE2 0xA8 LOG1 DUP16 JUMP 0xE8 SWAP2 EXTCODECOPY DELEGATECALL LOG2 ADD EXTSTATICCALL 0xE2 DUP8 DUP3 JUMPDEST MULMOD JUMP SWAP4 0xC2 OR PUSH22 0xA2646970667358221220CF68BF4A2EC0459D845223CC PUSH0 0xEA MSTORE8 0x1E CALL BALANCE DUP8 RETURN SWAP8 PUSH19 0x2DD2DA4AA98A903DF92464736F6C634300081D STOP CALLER "
		},
		"gasEstimates": {
			"creation": {
				"codeDepositCost": "4184800",
				"executionCost": "infinite",
				"totalCost": "infinite"
			},
			"external": {
				"ADMIN_ROLE()": "infinite",
				"DEFAULT_ADMIN_ROLE()": "294",
				"FREEZER_ROLE()": "319",
				"PAUSER_ROLE()": "316",
				"addRewardToken(address)": "infinite",
				"approve(address,uint256)": "31525",
				"balanceOf(address)": "2723",
				"balanceOfStaked(address)": "infinite",
				"blacklist(address)": "2654",
				"blacklistWallet(address)": "infinite",
				"claimFeeETH()": "2373",
				"earned(address)": "infinite",
				"earned(address,address)": "infinite",
				"earnedAll(address)": "infinite",
				"emergencyWithdrawERC20(address,address,uint256)": "infinite",
				"emergencyWithdrawERC721(address,address,uint256)": "infinite",
				"emergencyWithdrawETH(address,uint256)": "infinite",
				"feeReceiver()": "2447",
				"freezeWallet(address)": "infinite",
				"frozen(address)": "2611",
				"getActiveRewardRate(address)": "infinite",
				"getAllRewards()": "infinite",
				"getApproved(uint256)": "infinite",
				"getLockedBalance(address)": "infinite",
				"getRewardForDuration()": "infinite",
				"getRewardForToken(address)": "infinite",
				"getRewardSchedules(address)": "infinite",
				"getRoleAdmin(bytes32)": "2520",
				"getRoleMember(bytes32,uint256)": "infinite",
				"getRoleMemberCount(bytes32)": "infinite",
				"getRoleMembers(bytes32)": "infinite",
				"getStakePosition(uint256)": "11418",
				"getUnlockedBalance(address)": "infinite",
				"getUserStakeIds(address)": "infinite",
				"getUserStakePositions(address)": "infinite",
				"getWhitelistedRewardTokens()": "infinite",
				"grantRole(bytes32,address)": "infinite",
				"hasRole(bytes32,address)": "2772",
				"isApprovedForAll(address,address)": "infinite",
				"isBlacklisted(address)": "2716",
				"isFrozen(address)": "2629",
				"lastTotalSupplyZeroTime()": "2395",
				"lastUpdateTimePerToken(address)": "2611",
				"minimumLockDuration()": "2439",
				"name()": "infinite",
				"nextTokenId()": "2374",
				"ownerOf(uint256)": "infinite",
				"pause()": "infinite",
				"paused()": "2459",
				"removeRewardToken(address)": "infinite",
				"renounceRole(bytes32,address)": "infinite",
				"revokeRole(bytes32,address)": "infinite",
				"rewardPerToken(address)": "infinite",
				"rewardPerTokenStoredPerToken(address)": "2656",
				"rewardSchedules(address,uint256)": "15564",
				"rewardTokensList(uint256)": "4678",
				"rewardsPerToken(address,address)": "infinite",
				"safeTransferFrom(address,address,uint256)": "infinite",
				"safeTransferFrom(address,address,uint256,bytes)": "infinite",
				"setApprovalForAll(address,bool)": "26795",
				"setClaimFeeETH(uint256)": "infinite",
				"setFeeReceiver(address)": "infinite",
				"setMinimumLockDuration(uint256)": "infinite",
				"stakeTokens(uint256)": "infinite",
				"stakeWithBonus(uint256,uint256)": "infinite",
				"stakes(uint256)": "8982",
				"stakingToken()": "infinite",
				"supplyRewards(address,uint256,uint256)": "infinite",
				"supportsInterface(bytes4)": "infinite",
				"symbol()": "infinite",
				"tokenByIndex(uint256)": "6833",
				"tokenOfOwnerByIndex(address,uint256)": "5084",
				"tokenURI(uint256)": "infinite",
				"totalStakedAmount()": "2373",
				"totalSupply()": "2349",
				"transferFrom(address,address,uint256)": "infinite",
				"unblacklistWallet(address)": "infinite",
				"unfreezeWallet(address)": "infinite",
				"unpause()": "infinite",
				"userRewardPerTokenPaidPerToken(address,address)": "infinite",
				"vault()": "infinite",
				"wasTotalSupplyZero()": "2466",
				"whitelistedRewardTokens(address)": "2678",
				"withdraw(uint256)": "infinite",
				"withdrawAllUnlocked()": "infinite",
				"withdrawMultiple(uint256[])": "infinite"
			},
			"internal": {
				"_handleSupplyChange()": "infinite",
				"_stakeWithLock(address,uint256,uint256)": "infinite",
				"_update(address,uint256,address)": "infinite",
				"_updateRewardForToken(address,address)": "infinite"
			}
		},
		"methodIdentifiers": {
			"ADMIN_ROLE()": "75b238fc",
			"DEFAULT_ADMIN_ROLE()": "a217fddf",
			"FREEZER_ROLE()": "06a85f0f",
			"PAUSER_ROLE()": "e63ab1e9",
			"addRewardToken(address)": "1c03e6cc",
			"approve(address,uint256)": "095ea7b3",
			"balanceOf(address)": "70a08231",
			"balanceOfStaked(address)": "3455f41e",
			"blacklist(address)": "f9f92be4",
			"blacklistWallet(address)": "62441bf6",
			"claimFeeETH()": "c423be25",
			"earned(address)": "008cc262",
			"earned(address,address)": "211dc32d",
			"earnedAll(address)": "9e88ec10",
			"emergencyWithdrawERC20(address,address,uint256)": "55b8fb81",
			"emergencyWithdrawERC721(address,address,uint256)": "b72b85a1",
			"emergencyWithdrawETH(address,uint256)": "d79e8567",
			"feeReceiver()": "b3f00674",
			"freezeWallet(address)": "9f001169",
			"frozen(address)": "d0516650",
			"getActiveRewardRate(address)": "ec35fde5",
			"getAllRewards()": "45b35f56",
			"getApproved(uint256)": "081812fc",
			"getLockedBalance(address)": "c4086893",
			"getRewardForDuration()": "1c1f78eb",
			"getRewardForToken(address)": "cc7045d7",
			"getRewardSchedules(address)": "5bfc82ad",
			"getRoleAdmin(bytes32)": "248a9ca3",
			"getRoleMember(bytes32,uint256)": "9010d07c",
			"getRoleMemberCount(bytes32)": "ca15c873",
			"getRoleMembers(bytes32)": "a3246ad3",
			"getStakePosition(uint256)": "89e63207",
			"getUnlockedBalance(address)": "129de5bf",
			"getUserStakeIds(address)": "313da78f",
			"getUserStakePositions(address)": "dc21fb76",
			"getWhitelistedRewardTokens()": "d8f67495",
			"grantRole(bytes32,address)": "2f2ff15d",
			"hasRole(bytes32,address)": "91d14854",
			"isApprovedForAll(address,address)": "e985e9c5",
			"isBlacklisted(address)": "fe575a87",
			"isFrozen(address)": "e5839836",
			"lastTotalSupplyZeroTime()": "c6ddd3a0",
			"lastUpdateTimePerToken(address)": "28bcf07a",
			"minimumLockDuration()": "9d86b850",
			"name()": "06fdde03",
			"nextTokenId()": "75794a3c",
			"ownerOf(uint256)": "6352211e",
			"pause()": "8456cb59",
			"paused()": "5c975abb",
			"removeRewardToken(address)": "3d509c97",
			"renounceRole(bytes32,address)": "36568abe",
			"revokeRole(bytes32,address)": "d547741f",
			"rewardPerToken(address)": "f1229777",
			"rewardPerTokenStoredPerToken(address)": "14228806",
			"rewardSchedules(address,uint256)": "b80e6793",
			"rewardTokensList(uint256)": "5da9e169",
			"rewardsPerToken(address,address)": "78a2574b",
			"safeTransferFrom(address,address,uint256)": "42842e0e",
			"safeTransferFrom(address,address,uint256,bytes)": "b88d4fde",
			"setApprovalForAll(address,bool)": "a22cb465",
			"setClaimFeeETH(uint256)": "54fd83c1",
			"setFeeReceiver(address)": "efdcd974",
			"setMinimumLockDuration(uint256)": "04f6c0ef",
			"stakeTokens(uint256)": "7547c7a3",
			"stakeWithBonus(uint256,uint256)": "1b7447f1",
			"stakes(uint256)": "d5a44f86",
			"stakingToken()": "72f702f3",
			"supplyRewards(address,uint256,uint256)": "a6eec453",
			"supportsInterface(bytes4)": "01ffc9a7",
			"symbol()": "95d89b41",
			"tokenByIndex(uint256)": "4f6ccce7",
			"tokenOfOwnerByIndex(address,uint256)": "2f745c59",
			"tokenURI(uint256)": "c87b56dd",
			"totalStakedAmount()": "567e98f9",
			"totalSupply()": "18160ddd",
			"transferFrom(address,address,uint256)": "23b872dd",
			"unblacklistWallet(address)": "5b34bc41",
			"unfreezeWallet(address)": "60f588b7",
			"unpause()": "3f4ba83a",
			"userRewardPerTokenPaidPerToken(address,address)": "11b567b9",
			"vault()": "fbfa77cf",
			"wasTotalSupplyZero()": "3dd6aa42",
			"whitelistedRewardTokens(address)": "5225f987",
			"withdraw(uint256)": "2e1a7d4d",
			"withdrawAllUnlocked()": "a3d046a8",
			"withdrawMultiple(uint256[])": "e5b79106"
		}
	},
	"abi": [
		{
			"inputs": [
				{
					"internalType": "address",
					"name": "_admin",
					"type": "address"
				},
				{
					"internalType": "address",
					"name": "_stakingToken",
					"type": "address"
				},
				{
					"internalType": "address",
					"name": "_vault",
					"type": "address"
				}
			],
			"stateMutability": "nonpayable",
			"type": "constructor"
		},
		{
			"inputs": [],
			"name": "AccessControlBadConfirmation",
			"type": "error"
		},
		{
			"inputs": [
				{
					"internalType": "address",
					"name": "account",
					"type": "address"
				},
				{
					"internalType": "bytes32",
					"name": "neededRole",
					"type": "bytes32"
				}
			],
			"name": "AccessControlUnauthorizedAccount",
			"type": "error"
		},
		{
			"inputs": [
				{
					"internalType": "uint256",
					"name": "currentTime",
					"type": "uint256"
				},
				{
					"internalType": "uint256",
					"name": "unlockTime",
					"type": "uint256"
				}
			],
			"name": "DepositStillLocked",
			"type": "error"
		},
		{
			"inputs": [],
			"name": "ERC721EnumerableForbiddenBatchMint",
			"type": "error"
		},
		{
			"inputs": [
				{
					"internalType": "address",
					"name": "sender",
					"type": "address"
				},
				{
					"internalType": "uint256",
					"name": "tokenId",
					"type": "uint256"
				},
				{
					"internalType": "address",
					"name": "owner",
					"type": "address"
				}
			],
			"name": "ERC721IncorrectOwner",
			"type": "error"
		},
		{
			"inputs": [
				{
					"internalType": "address",
					"name": "operator",
					"type": "address"
				},
				{
					"internalType": "uint256",
					"name": "tokenId",
					"type": "uint256"
				}
			],
			"name": "ERC721InsufficientApproval",
			"type": "error"
		},
		{
			"inputs": [
				{
					"internalType": "address",
					"name": "approver",
					"type": "address"
				}
			],
			"name": "ERC721InvalidApprover",
			"type": "error"
		},
		{
			"inputs": [
				{
					"internalType": "address",
					"name": "operator",
					"type": "address"
				}
			],
			"name": "ERC721InvalidOperator",
			"type": "error"
		},
		{
			"inputs": [
				{
					"internalType": "address",
					"name": "owner",
					"type": "address"
				}
			],
			"name": "ERC721InvalidOwner",
			"type": "error"
		},
		{
			"inputs": [
				{
					"internalType": "address",
					"name": "receiver",
					"type": "address"
				}
			],
			"name": "ERC721InvalidReceiver",
			"type": "error"
		},
		{
			"inputs": [
				{
					"internalType": "address",
					"name": "sender",
					"type": "address"
				}
			],
			"name": "ERC721InvalidSender",
			"type": "error"
		},
		{
			"inputs": [
				{
					"internalType": "uint256",
					"name": "tokenId",
					"type": "uint256"
				}
			],
			"name": "ERC721NonexistentToken",
			"type": "error"
		},
		{
			"inputs": [
				{
					"internalType": "address",
					"name": "owner",
					"type": "address"
				},
				{
					"internalType": "uint256",
					"name": "index",
					"type": "uint256"
				}
			],
			"name": "ERC721OutOfBoundsIndex",
			"type": "error"
		},
		{
			"inputs": [],
			"name": "EnforcedPause",
			"type": "error"
		},
		{
			"inputs": [],
			"name": "ExpectedPause",
			"type": "error"
		},
		{
			"inputs": [
				{
					"internalType": "address",
					"name": "account",
					"type": "address"
				},
				{
					"internalType": "string",
					"name": "reason",
					"type": "string"
				}
			],
			"name": "IsBlacklisted",
			"type": "error"
		},
		{
			"inputs": [
				{
					"internalType": "address",
					"name": "account",
					"type": "address"
				},
				{
					"internalType": "string",
					"name": "reason",
					"type": "string"
				}
			],
			"name": "IsFrozen",
			"type": "error"
		},
		{
			"inputs": [
				{
					"internalType": "uint256",
					"name": "provided",
					"type": "uint256"
				},
				{
					"internalType": "uint256",
					"name": "minimum",
					"type": "uint256"
				}
			],
			"name": "LockDurationTooShort",
			"type": "error"
		},
		{
			"inputs": [
				{
					"internalType": "uint256",
					"name": "tokenId",
					"type": "uint256"
				}
			],
			"name": "NotStakeOwner",
			"type": "error"
		},
		{
			"inputs": [],
			"name": "ReentrancyGuardReentrantCall",
			"type": "error"
		},
		{
			"inputs": [
				{
					"internalType": "address",
					"name": "token",
					"type": "address"
				}
			],
			"name": "SafeERC20FailedOperation",
			"type": "error"
		},
		{
			"inputs": [
				{
					"internalType": "uint256",
					"name": "tokenId",
					"type": "uint256"
				}
			],
			"name": "StakeAlreadyWithdrawn",
			"type": "error"
		},
		{
			"inputs": [
				{
					"internalType": "address",
					"name": "token",
					"type": "address"
				}
			],
			"name": "TokenAlreadyWhitelisted",
			"type": "error"
		},
		{
			"inputs": [
				{
					"internalType": "address",
					"name": "token",
					"type": "address"
				}
			],
			"name": "TokenNotWhitelisted",
			"type": "error"
		},
		{
			"anonymous": false,
			"inputs": [
				{
					"indexed": true,
					"internalType": "address",
					"name": "owner",
					"type": "address"
				},
				{
					"indexed": true,
					"internalType": "address",
					"name": "approved",
					"type": "address"
				},
				{
					"indexed": true,
					"internalType": "uint256",
					"name": "tokenId",
					"type": "uint256"
				}
			],
			"name": "Approval",
			"type": "event"
		},
		{
			"anonymous": false,
			"inputs": [
				{
					"indexed": true,
					"internalType": "address",
					"name": "owner",
					"type": "address"
				},
				{
					"indexed": true,
					"internalType": "address",
					"name": "operator",
					"type": "address"
				},
				{
					"indexed": false,
					"internalType": "bool",
					"name": "approved",
					"type": "bool"
				}
			],
			"name": "ApprovalForAll",
			"type": "event"
		},
		{
			"anonymous": false,
			"inputs": [
				{
					"indexed": true,
					"internalType": "address",
					"name": "account",
					"type": "address"
				}
			],
			"name": "BlacklistAdded",
			"type": "event"
		},
		{
			"anonymous": false,
			"inputs": [
				{
					"indexed": true,
					"internalType": "address",
					"name": "account",
					"type": "address"
				}
			],
			"name": "BlacklistRemoved",
			"type": "event"
		},
		{
			"anonymous": false,
			"inputs": [
				{
					"indexed": false,
					"internalType": "uint256",
					"name": "fee",
					"type": "uint256"
				}
			],
			"name": "ClaimFeeETHSet",
			"type": "event"
		},
		{
			"anonymous": false,
			"inputs": [
				{
					"indexed": true,
					"internalType": "address",
					"name": "caller",
					"type": "address"
				},
				{
					"indexed": true,
					"internalType": "address",
					"name": "token",
					"type": "address"
				},
				{
					"indexed": true,
					"internalType": "address",
					"name": "recipient",
					"type": "address"
				},
				{
					"indexed": false,
					"internalType": "uint256",
					"name": "amount",
					"type": "uint256"
				}
			],
			"name": "EmergencyWithdrawERC20",
			"type": "event"
		},
		{
			"anonymous": false,
			"inputs": [
				{
					"indexed": true,
					"internalType": "address",
					"name": "caller",
					"type": "address"
				},
				{
					"indexed": true,
					"internalType": "address",
					"name": "token",
					"type": "address"
				},
				{
					"indexed": true,
					"internalType": "address",
					"name": "recipient",
					"type": "address"
				},
				{
					"indexed": false,
					"internalType": "uint256",
					"name": "tokenId",
					"type": "uint256"
				}
			],
			"name": "EmergencyWithdrawERC721",
			"type": "event"
		},
		{
			"anonymous": false,
			"inputs": [
				{
					"indexed": true,
					"internalType": "address",
					"name": "caller",
					"type": "address"
				},
				{
					"indexed": true,
					"internalType": "address",
					"name": "recipient",
					"type": "address"
				},
				{
					"indexed": false,
					"internalType": "uint256",
					"name": "amount",
					"type": "uint256"
				}
			],
			"name": "EmergencyWithdrawETH",
			"type": "event"
		},
		{
			"anonymous": false,
			"inputs": [
				{
					"indexed": true,
					"internalType": "address",
					"name": "feeReceiver",
					"type": "address"
				}
			],
			"name": "FeeReceiverSet",
			"type": "event"
		},
		{
			"anonymous": false,
			"inputs": [
				{
					"indexed": false,
					"internalType": "uint256",
					"name": "duration",
					"type": "uint256"
				}
			],
			"name": "MinimumLockDurationSet",
			"type": "event"
		},
		{
			"anonymous": false,
			"inputs": [
				{
					"indexed": false,
					"internalType": "address",
					"name": "account",
					"type": "address"
				}
			],
			"name": "Paused",
			"type": "event"
		},
		{
			"anonymous": false,
			"inputs": [
				{
					"indexed": true,
					"internalType": "address",
					"name": "token",
					"type": "address"
				},
				{
					"indexed": false,
					"internalType": "uint256",
					"name": "amount",
					"type": "uint256"
				},
				{
					"indexed": false,
					"internalType": "uint256",
					"name": "duration",
					"type": "uint256"
				},
				{
					"indexed": false,
					"internalType": "uint256",
					"name": "rewardRate",
					"type": "uint256"
				}
			],
			"name": "RewardAdded",
			"type": "event"
		},
		{
			"anonymous": false,
			"inputs": [
				{
					"indexed": true,
					"internalType": "address",
					"name": "user",
					"type": "address"
				},
				{
					"indexed": true,
					"internalType": "address",
					"name": "token",
					"type": "address"
				},
				{
					"indexed": false,
					"internalType": "uint256",
					"name": "reward",
					"type": "uint256"
				}
			],
			"name": "RewardPaid",
			"type": "event"
		},
		{
			"anonymous": false,
			"inputs": [
				{
					"indexed": true,
					"internalType": "address",
					"name": "token",
					"type": "address"
				}
			],
			"name": "RewardTokenAdded",
			"type": "event"
		},
		{
			"anonymous": false,
			"inputs": [
				{
					"indexed": true,
					"internalType": "address",
					"name": "token",
					"type": "address"
				}
			],
			"name": "RewardTokenRemoved",
			"type": "event"
		},
		{
			"anonymous": false,
			"inputs": [
				{
					"indexed": true,
					"internalType": "bytes32",
					"name": "role",
					"type": "bytes32"
				},
				{
					"indexed": true,
					"internalType": "bytes32",
					"name": "previousAdminRole",
					"type": "bytes32"
				},
				{
					"indexed": true,
					"internalType": "bytes32",
					"name": "newAdminRole",
					"type": "bytes32"
				}
			],
			"name": "RoleAdminChanged",
			"type": "event"
		},
		{
			"anonymous": false,
			"inputs": [
				{
					"indexed": true,
					"internalType": "bytes32",
					"name": "role",
					"type": "bytes32"
				},
				{
					"indexed": true,
					"internalType": "address",
					"name": "account",
					"type": "address"
				},
				{
					"indexed": true,
					"internalType": "address",
					"name": "sender",
					"type": "address"
				}
			],
			"name": "RoleGranted",
			"type": "event"
		},
		{
			"anonymous": false,
			"inputs": [
				{
					"indexed": true,
					"internalType": "bytes32",
					"name": "role",
					"type": "bytes32"
				},
				{
					"indexed": true,
					"internalType": "address",
					"name": "account",
					"type": "address"
				},
				{
					"indexed": true,
					"internalType": "address",
					"name": "sender",
					"type": "address"
				}
			],
			"name": "RoleRevoked",
			"type": "event"
		},
		{
			"anonymous": false,
			"inputs": [
				{
					"indexed": true,
					"internalType": "address",
					"name": "account",
					"type": "address"
				},
				{
					"indexed": false,
					"internalType": "uint256",
					"name": "amount",
					"type": "uint256"
				}
			],
			"name": "StakeReturnedDueToBlacklist",
			"type": "event"
		},
		{
			"anonymous": false,
			"inputs": [
				{
					"indexed": true,
					"internalType": "address",
					"name": "user",
					"type": "address"
				},
				{
					"indexed": true,
					"internalType": "uint256",
					"name": "tokenId",
					"type": "uint256"
				},
				{
					"indexed": false,
					"internalType": "uint256",
					"name": "amount",
					"type": "uint256"
				},
				{
					"indexed": false,
					"internalType": "uint256",
					"name": "lock",
					"type": "uint256"
				}
			],
			"name": "Staked",
			"type": "event"
		},
		{
			"anonymous": false,
			"inputs": [
				{
					"indexed": true,
					"internalType": "address",
					"name": "from",
					"type": "address"
				},
				{
					"indexed": true,
					"internalType": "address",
					"name": "to",
					"type": "address"
				},
				{
					"indexed": true,
					"internalType": "uint256",
					"name": "tokenId",
					"type": "uint256"
				}
			],
			"name": "Transfer",
			"type": "event"
		},
		{
			"anonymous": false,
			"inputs": [
				{
					"indexed": false,
					"internalType": "address",
					"name": "account",
					"type": "address"
				}
			],
			"name": "Unpaused",
			"type": "event"
		},
		{
			"anonymous": false,
			"inputs": [
				{
					"indexed": true,
					"internalType": "address",
					"name": "account",
					"type": "address"
				},
				{
					"indexed": false,
					"internalType": "uint256",
					"name": "timestamp",
					"type": "uint256"
				}
			],
			"name": "WalletFrozen",
			"type": "event"
		},
		{
			"anonymous": false,
			"inputs": [
				{
					"indexed": true,
					"internalType": "address",
					"name": "account",
					"type": "address"
				},
				{
					"indexed": false,
					"internalType": "uint256",
					"name": "timestamp",
					"type": "uint256"
				}
			],
			"name": "WalletUnfrozen",
			"type": "event"
		},
		{
			"anonymous": false,
			"inputs": [
				{
					"indexed": true,
					"internalType": "address",
					"name": "user",
					"type": "address"
				},
				{
					"indexed": true,
					"internalType": "uint256",
					"name": "tokenId",
					"type": "uint256"
				},
				{
					"indexed": false,
					"internalType": "uint256",
					"name": "amount",
					"type": "uint256"
				}
			],
			"name": "Withdrawn",
			"type": "event"
		},
		{
			"inputs": [],
			"name": "ADMIN_ROLE",
			"outputs": [
				{
					"internalType": "bytes32",
					"name": "",
					"type": "bytes32"
				}
			],
			"stateMutability": "view",
			"type": "function"
		},
		{
			"inputs": [],
			"name": "DEFAULT_ADMIN_ROLE",
			"outputs": [
				{
					"internalType": "bytes32",
					"name": "",
					"type": "bytes32"
				}
			],
			"stateMutability": "view",
			"type": "function"
		},
		{
			"inputs": [],
			"name": "FREEZER_ROLE",
			"outputs": [
				{
					"internalType": "bytes32",
					"name": "",
					"type": "bytes32"
				}
			],
			"stateMutability": "view",
			"type": "function"
		},
		{
			"inputs": [],
			"name": "PAUSER_ROLE",
			"outputs": [
				{
					"internalType": "bytes32",
					"name": "",
					"type": "bytes32"
				}
			],
			"stateMutability": "view",
			"type": "function"
		},
		{
			"inputs": [
				{
					"internalType": "address",
					"name": "token",
					"type": "address"
				}
			],
			"name": "addRewardToken",
			"outputs": [],
			"stateMutability": "nonpayable",
			"type": "function"
		},
		{
			"inputs": [
				{
					"internalType": "address",
					"name": "to",
					"type": "address"
				},
				{
					"internalType": "uint256",
					"name": "tokenId",
					"type": "uint256"
				}
			],
			"name": "approve",
			"outputs": [],
			"stateMutability": "nonpayable",
			"type": "function"
		},
		{
			"inputs": [
				{
					"internalType": "address",
					"name": "owner",
					"type": "address"
				}
			],
			"name": "balanceOf",
			"outputs": [
				{
					"internalType": "uint256",
					"name": "",
					"type": "uint256"
				}
			],
			"stateMutability": "view",
			"type": "function"
		},
		{
			"inputs": [
				{
					"internalType": "address",
					"name": "account",
					"type": "address"
				}
			],
			"name": "balanceOfStaked",
			"outputs": [
				{
					"internalType": "uint256",
					"name": "",
					"type": "uint256"
				}
			],
			"stateMutability": "view",
			"type": "function"
		},
		{
			"inputs": [
				{
					"internalType": "address",
					"name": "",
					"type": "address"
				}
			],
			"name": "blacklist",
			"outputs": [
				{
					"internalType": "bool",
					"name": "",
					"type": "bool"
				}
			],
			"stateMutability": "view",
			"type": "function"
		},
		{
			"inputs": [
				{
					"internalType": "address",
					"name": "account",
					"type": "address"
				}
			],
			"name": "blacklistWallet",
			"outputs": [],
			"stateMutability": "nonpayable",
			"type": "function"
		},
		{
			"inputs": [],
			"name": "claimFeeETH",
			"outputs": [
				{
					"internalType": "uint256",
					"name": "",
					"type": "uint256"
				}
			],
			"stateMutability": "view",
			"type": "function"
		},
		{
			"inputs": [
				{
					"internalType": "address",
					"name": "account",
					"type": "address"
				}
			],
			"name": "earned",
			"outputs": [
				{
					"internalType": "uint256",
					"name": "",
					"type": "uint256"
				}
			],
			"stateMutability": "view",
			"type": "function"
		},
		{
			"inputs": [
				{
					"internalType": "address",
					"name": "account",
					"type": "address"
				},
				{
					"internalType": "address",
					"name": "token",
					"type": "address"
				}
			],
			"name": "earned",
			"outputs": [
				{
					"internalType": "uint256",
					"name": "",
					"type": "uint256"
				}
			],
			"stateMutability": "view",
			"type": "function"
		},
		{
			"inputs": [
				{
					"internalType": "address",
					"name": "account",
					"type": "address"
				}
			],
			"name": "earnedAll",
			"outputs": [
				{
					"internalType": "address[]",
					"name": "tokens",
					"type": "address[]"
				},
				{
					"internalType": "uint256[]",
					"name": "amounts",
					"type": "uint256[]"
				}
			],
			"stateMutability": "view",
			"type": "function"
		},
		{
			"inputs": [
				{
					"internalType": "address",
					"name": "tokenAddress",
					"type": "address"
				},
				{
					"internalType": "address",
					"name": "recipient",
					"type": "address"
				},
				{
					"internalType": "uint256",
					"name": "amount",
					"type": "uint256"
				}
			],
			"name": "emergencyWithdrawERC20",
			"outputs": [],
			"stateMutability": "nonpayable",
			"type": "function"
		},
		{
			"inputs": [
				{
					"internalType": "address",
					"name": "tokenAddress",
					"type": "address"
				},
				{
					"internalType": "address",
					"name": "recipient",
					"type": "address"
				},
				{
					"internalType": "uint256",
					"name": "tokenId",
					"type": "uint256"
				}
			],
			"name": "emergencyWithdrawERC721",
			"outputs": [],
			"stateMutability": "nonpayable",
			"type": "function"
		},
		{
			"inputs": [
				{
					"internalType": "address payable",
					"name": "recipient",
					"type": "address"
				},
				{
					"internalType": "uint256",
					"name": "amount",
					"type": "uint256"
				}
			],
			"name": "emergencyWithdrawETH",
			"outputs": [],
			"stateMutability": "nonpayable",
			"type": "function"
		},
		{
			"inputs": [],
			"name": "feeReceiver",
			"outputs": [
				{
					"internalType": "address",
					"name": "",
					"type": "address"
				}
			],
			"stateMutability": "view",
			"type": "function"
		},
		{
			"inputs": [
				{
					"internalType": "address",
					"name": "account",
					"type": "address"
				}
			],
			"name": "freezeWallet",
			"outputs": [],
			"stateMutability": "nonpayable",
			"type": "function"
		},
		{
			"inputs": [
				{
					"internalType": "address",
					"name": "",
					"type": "address"
				}
			],
			"name": "frozen",
			"outputs": [
				{
					"internalType": "bool",
					"name": "",
					"type": "bool"
				}
			],
			"stateMutability": "view",
			"type": "function"
		},
		{
			"inputs": [
				{
					"internalType": "address",
					"name": "token",
					"type": "address"
				}
			],
			"name": "getActiveRewardRate",
			"outputs": [
				{
					"internalType": "uint256",
					"name": "",
					"type": "uint256"
				}
			],
			"stateMutability": "view",
			"type": "function"
		},
		{
			"inputs": [],
			"name": "getAllRewards",
			"outputs": [],
			"stateMutability": "payable",
			"type": "function"
		},
		{
			"inputs": [
				{
					"internalType": "uint256",
					"name": "tokenId",
					"type": "uint256"
				}
			],
			"name": "getApproved",
			"outputs": [
				{
					"internalType": "address",
					"name": "",
					"type": "address"
				}
			],
			"stateMutability": "view",
			"type": "function"
		},
		{
			"inputs": [
				{
					"internalType": "address",
					"name": "account",
					"type": "address"
				}
			],
			"name": "getLockedBalance",
			"outputs": [
				{
					"internalType": "uint256",
					"name": "",
					"type": "uint256"
				}
			],
			"stateMutability": "view",
			"type": "function"
		},
		{
			"inputs": [],
			"name": "getRewardForDuration",
			"outputs": [
				{
					"internalType": "uint256",
					"name": "",
					"type": "uint256"
				}
			],
			"stateMutability": "view",
			"type": "function"
		},
		{
			"inputs": [
				{
					"internalType": "address",
					"name": "token",
					"type": "address"
				}
			],
			"name": "getRewardForToken",
			"outputs": [],
			"stateMutability": "payable",
			"type": "function"
		},
		{
			"inputs": [
				{
					"internalType": "address",
					"name": "token",
					"type": "address"
				}
			],
			"name": "getRewardSchedules",
			"outputs": [
				{
					"components": [
						{
							"internalType": "uint256",
							"name": "rewardRate",
							"type": "uint256"
						},
						{
							"internalType": "uint256",
							"name": "startTime",
							"type": "uint256"
						},
						{
							"internalType": "uint256",
							"name": "endTime",
							"type": "uint256"
						},
						{
							"internalType": "uint256",
							"name": "totalSupplied",
							"type": "uint256"
						},
						{
							"internalType": "uint256",
							"name": "pausedAt",
							"type": "uint256"
						},
						{
							"internalType": "uint256",
							"name": "totalPausedTime",
							"type": "uint256"
						}
					],
					"internalType": "struct AviatorStakingPool.RewardSchedule[]",
					"name": "",
					"type": "tuple[]"
				}
			],
			"stateMutability": "view",
			"type": "function"
		},
		{
			"inputs": [
				{
					"internalType": "bytes32",
					"name": "role",
					"type": "bytes32"
				}
			],
			"name": "getRoleAdmin",
			"outputs": [
				{
					"internalType": "bytes32",
					"name": "",
					"type": "bytes32"
				}
			],
			"stateMutability": "view",
			"type": "function"
		},
		{
			"inputs": [
				{
					"internalType": "bytes32",
					"name": "role",
					"type": "bytes32"
				},
				{
					"internalType": "uint256",
					"name": "index",
					"type": "uint256"
				}
			],
			"name": "getRoleMember",
			"outputs": [
				{
					"internalType": "address",
					"name": "",
					"type": "address"
				}
			],
			"stateMutability": "view",
			"type": "function"
		},
		{
			"inputs": [
				{
					"internalType": "bytes32",
					"name": "role",
					"type": "bytes32"
				}
			],
			"name": "getRoleMemberCount",
			"outputs": [
				{
					"internalType": "uint256",
					"name": "",
					"type": "uint256"
				}
			],
			"stateMutability": "view",
			"type": "function"
		},
		{
			"inputs": [
				{
					"internalType": "bytes32",
					"name": "role",
					"type": "bytes32"
				}
			],
			"name": "getRoleMembers",
			"outputs": [
				{
					"internalType": "address[]",
					"name": "",
					"type": "address[]"
				}
			],
			"stateMutability": "view",
			"type": "function"
		},
		{
			"inputs": [
				{
					"internalType": "uint256",
					"name": "tokenId",
					"type": "uint256"
				}
			],
			"name": "getStakePosition",
			"outputs": [
				{
					"components": [
						{
							"internalType": "uint256",
							"name": "amount",
							"type": "uint256"
						},
						{
							"internalType": "uint256",
							"name": "unlockTime",
							"type": "uint256"
						},
						{
							"internalType": "uint256",
							"name": "stakeTime",
							"type": "uint256"
						},
						{
							"internalType": "bool",
							"name": "withdrawn",
							"type": "bool"
						}
					],
					"internalType": "struct AviatorStakingPool.StakeNFT",
					"name": "",
					"type": "tuple"
				}
			],
			"stateMutability": "view",
			"type": "function"
		},
		{
			"inputs": [
				{
					"internalType": "address",
					"name": "account",
					"type": "address"
				}
			],
			"name": "getUnlockedBalance",
			"outputs": [
				{
					"internalType": "uint256",
					"name": "",
					"type": "uint256"
				}
			],
			"stateMutability": "view",
			"type": "function"
		},
		{
			"inputs": [
				{
					"internalType": "address",
					"name": "account",
					"type": "address"
				}
			],
			"name": "getUserStakeIds",
			"outputs": [
				{
					"internalType": "uint256[]",
					"name": "",
					"type": "uint256[]"
				}
			],
			"stateMutability": "view",
			"type": "function"
		},
		{
			"inputs": [
				{
					"internalType": "address",
					"name": "account",
					"type": "address"
				}
			],
			"name": "getUserStakePositions",
			"outputs": [
				{
					"components": [
						{
							"internalType": "uint256",
							"name": "amount",
							"type": "uint256"
						},
						{
							"internalType": "uint256",
							"name": "unlockTime",
							"type": "uint256"
						},
						{
							"internalType": "uint256",
							"name": "stakeTime",
							"type": "uint256"
						},
						{
							"internalType": "bool",
							"name": "withdrawn",
							"type": "bool"
						}
					],
					"internalType": "struct AviatorStakingPool.StakeNFT[]",
					"name": "",
					"type": "tuple[]"
				}
			],
			"stateMutability": "view",
			"type": "function"
		},
		{
			"inputs": [],
			"name": "getWhitelistedRewardTokens",
			"outputs": [
				{
					"internalType": "address[]",
					"name": "",
					"type": "address[]"
				}
			],
			"stateMutability": "view",
			"type": "function"
		},
		{
			"inputs": [
				{
					"internalType": "bytes32",
					"name": "role",
					"type": "bytes32"
				},
				{
					"internalType": "address",
					"name": "account",
					"type": "address"
				}
			],
			"name": "grantRole",
			"outputs": [],
			"stateMutability": "nonpayable",
			"type": "function"
		},
		{
			"inputs": [
				{
					"internalType": "bytes32",
					"name": "role",
					"type": "bytes32"
				},
				{
					"internalType": "address",
					"name": "account",
					"type": "address"
				}
			],
			"name": "hasRole",
			"outputs": [
				{
					"internalType": "bool",
					"name": "",
					"type": "bool"
				}
			],
			"stateMutability": "view",
			"type": "function"
		},
		{
			"inputs": [
				{
					"internalType": "address",
					"name": "owner",
					"type": "address"
				},
				{
					"internalType": "address",
					"name": "operator",
					"type": "address"
				}
			],
			"name": "isApprovedForAll",
			"outputs": [
				{
					"internalType": "bool",
					"name": "",
					"type": "bool"
				}
			],
			"stateMutability": "view",
			"type": "function"
		},
		{
			"inputs": [
				{
					"internalType": "address",
					"name": "account",
					"type": "address"
				}
			],
			"name": "isBlacklisted",
			"outputs": [
				{
					"internalType": "bool",
					"name": "",
					"type": "bool"
				}
			],
			"stateMutability": "view",
			"type": "function"
		},
		{
			"inputs": [
				{
					"internalType": "address",
					"name": "account",
					"type": "address"
				}
			],
			"name": "isFrozen",
			"outputs": [
				{
					"internalType": "bool",
					"name": "",
					"type": "bool"
				}
			],
			"stateMutability": "view",
			"type": "function"
		},
		{
			"inputs": [],
			"name": "lastTotalSupplyZeroTime",
			"outputs": [
				{
					"internalType": "uint256",
					"name": "",
					"type": "uint256"
				}
			],
			"stateMutability": "view",
			"type": "function"
		},
		{
			"inputs": [
				{
					"internalType": "address",
					"name": "",
					"type": "address"
				}
			],
			"name": "lastUpdateTimePerToken",
			"outputs": [
				{
					"internalType": "uint256",
					"name": "",
					"type": "uint256"
				}
			],
			"stateMutability": "view",
			"type": "function"
		},
		{
			"inputs": [],
			"name": "minimumLockDuration",
			"outputs": [
				{
					"internalType": "uint256",
					"name": "",
					"type": "uint256"
				}
			],
			"stateMutability": "view",
			"type": "function"
		},
		{
			"inputs": [],
			"name": "name",
			"outputs": [
				{
					"internalType": "string",
					"name": "",
					"type": "string"
				}
			],
			"stateMutability": "view",
			"type": "function"
		},
		{
			"inputs": [],
			"name": "nextTokenId",
			"outputs": [
				{
					"internalType": "uint256",
					"name": "",
					"type": "uint256"
				}
			],
			"stateMutability": "view",
			"type": "function"
		},
		{
			"inputs": [
				{
					"internalType": "uint256",
					"name": "tokenId",
					"type": "uint256"
				}
			],
			"name": "ownerOf",
			"outputs": [
				{
					"internalType": "address",
					"name": "",
					"type": "address"
				}
			],
			"stateMutability": "view",
			"type": "function"
		},
		{
			"inputs": [],
			"name": "pause",
			"outputs": [],
			"stateMutability": "nonpayable",
			"type": "function"
		},
		{
			"inputs": [],
			"name": "paused",
			"outputs": [
				{
					"internalType": "bool",
					"name": "",
					"type": "bool"
				}
			],
			"stateMutability": "view",
			"type": "function"
		},
		{
			"inputs": [
				{
					"internalType": "address",
					"name": "token",
					"type": "address"
				}
			],
			"name": "removeRewardToken",
			"outputs": [],
			"stateMutability": "nonpayable",
			"type": "function"
		},
		{
			"inputs": [
				{
					"internalType": "bytes32",
					"name": "role",
					"type": "bytes32"
				},
				{
					"internalType": "address",
					"name": "callerConfirmation",
					"type": "address"
				}
			],
			"name": "renounceRole",
			"outputs": [],
			"stateMutability": "nonpayable",
			"type": "function"
		},
		{
			"inputs": [
				{
					"internalType": "bytes32",
					"name": "role",
					"type": "bytes32"
				},
				{
					"internalType": "address",
					"name": "account",
					"type": "address"
				}
			],
			"name": "revokeRole",
			"outputs": [],
			"stateMutability": "nonpayable",
			"type": "function"
		},
		{
			"inputs": [
				{
					"internalType": "address",
					"name": "token",
					"type": "address"
				}
			],
			"name": "rewardPerToken",
			"outputs": [
				{
					"internalType": "uint256",
					"name": "",
					"type": "uint256"
				}
			],
			"stateMutability": "view",
			"type": "function"
		},
		{
			"inputs": [
				{
					"internalType": "address",
					"name": "",
					"type": "address"
				}
			],
			"name": "rewardPerTokenStoredPerToken",
			"outputs": [
				{
					"internalType": "uint256",
					"name": "",
					"type": "uint256"
				}
			],
			"stateMutability": "view",
			"type": "function"
		},
		{
			"inputs": [
				{
					"internalType": "address",
					"name": "",
					"type": "address"
				},
				{
					"internalType": "uint256",
					"name": "",
					"type": "uint256"
				}
			],
			"name": "rewardSchedules",
			"outputs": [
				{
					"internalType": "uint256",
					"name": "rewardRate",
					"type": "uint256"
				},
				{
					"internalType": "uint256",
					"name": "startTime",
					"type": "uint256"
				},
				{
					"internalType": "uint256",
					"name": "endTime",
					"type": "uint256"
				},
				{
					"internalType": "uint256",
					"name": "totalSupplied",
					"type": "uint256"
				},
				{
					"internalType": "uint256",
					"name": "pausedAt",
					"type": "uint256"
				},
				{
					"internalType": "uint256",
					"name": "totalPausedTime",
					"type": "uint256"
				}
			],
			"stateMutability": "view",
			"type": "function"
		},
		{
			"inputs": [
				{
					"internalType": "uint256",
					"name": "",
					"type": "uint256"
				}
			],
			"name": "rewardTokensList",
			"outputs": [
				{
					"internalType": "address",
					"name": "",
					"type": "address"
				}
			],
			"stateMutability": "view",
			"type": "function"
		},
		{
			"inputs": [
				{
					"internalType": "address",
					"name": "",
					"type": "address"
				},
				{
					"internalType": "address",
					"name": "",
					"type": "address"
				}
			],
			"name": "rewardsPerToken",
			"outputs": [
				{
					"internalType": "uint256",
					"name": "",
					"type": "uint256"
				}
			],
			"stateMutability": "view",
			"type": "function"
		},
		{
			"inputs": [
				{
					"internalType": "address",
					"name": "from",
					"type": "address"
				},
				{
					"internalType": "address",
					"name": "to",
					"type": "address"
				},
				{
					"internalType": "uint256",
					"name": "tokenId",
					"type": "uint256"
				}
			],
			"name": "safeTransferFrom",
			"outputs": [],
			"stateMutability": "nonpayable",
			"type": "function"
		},
		{
			"inputs": [
				{
					"internalType": "address",
					"name": "from",
					"type": "address"
				},
				{
					"internalType": "address",
					"name": "to",
					"type": "address"
				},
				{
					"internalType": "uint256",
					"name": "tokenId",
					"type": "uint256"
				},
				{
					"internalType": "bytes",
					"name": "data",
					"type": "bytes"
				}
			],
			"name": "safeTransferFrom",
			"outputs": [],
			"stateMutability": "nonpayable",
			"type": "function"
		},
		{
			"inputs": [
				{
					"internalType": "address",
					"name": "operator",
					"type": "address"
				},
				{
					"internalType": "bool",
					"name": "approved",
					"type": "bool"
				}
			],
			"name": "setApprovalForAll",
			"outputs": [],
			"stateMutability": "nonpayable",
			"type": "function"
		},
		{
			"inputs": [
				{
					"internalType": "uint256",
					"name": "_claimFeeETH",
					"type": "uint256"
				}
			],
			"name": "setClaimFeeETH",
			"outputs": [],
			"stateMutability": "nonpayable",
			"type": "function"
		},
		{
			"inputs": [
				{
					"internalType": "address",
					"name": "_feeReceiver",
					"type": "address"
				}
			],
			"name": "setFeeReceiver",
			"outputs": [],
			"stateMutability": "nonpayable",
			"type": "function"
		},
		{
			"inputs": [
				{
					"internalType": "uint256",
					"name": "_minimumLockDuration",
					"type": "uint256"
				}
			],
			"name": "setMinimumLockDuration",
			"outputs": [],
			"stateMutability": "nonpayable",
			"type": "function"
		},
		{
			"inputs": [
				{
					"internalType": "uint256",
					"name": "amount",
					"type": "uint256"
				}
			],
			"name": "stakeTokens",
			"outputs": [
				{
					"internalType": "uint256",
					"name": "",
					"type": "uint256"
				}
			],
			"stateMutability": "nonpayable",
			"type": "function"
		},
		{
			"inputs": [
				{
					"internalType": "uint256",
					"name": "amount",
					"type": "uint256"
				},
				{
					"internalType": "uint256",
					"name": "lock",
					"type": "uint256"
				}
			],
			"name": "stakeWithBonus",
			"outputs": [
				{
					"internalType": "uint256",
					"name": "",
					"type": "uint256"
				}
			],
			"stateMutability": "nonpayable",
			"type": "function"
		},
		{
			"inputs": [
				{
					"internalType": "uint256",
					"name": "",
					"type": "uint256"
				}
			],
			"name": "stakes",
			"outputs": [
				{
					"internalType": "uint256",
					"name": "amount",
					"type": "uint256"
				},
				{
					"internalType": "uint256",
					"name": "unlockTime",
					"type": "uint256"
				},
				{
					"internalType": "uint256",
					"name": "stakeTime",
					"type": "uint256"
				},
				{
					"internalType": "bool",
					"name": "withdrawn",
					"type": "bool"
				}
			],
			"stateMutability": "view",
			"type": "function"
		},
		{
			"inputs": [],
			"name": "stakingToken",
			"outputs": [
				{
					"internalType": "contract IERC20",
					"name": "",
					"type": "address"
				}
			],
			"stateMutability": "view",
			"type": "function"
		},
		{
			"inputs": [
				{
					"internalType": "address",
					"name": "token",
					"type": "address"
				},
				{
					"internalType": "uint256",
					"name": "amount",
					"type": "uint256"
				},
				{
					"internalType": "uint256",
					"name": "duration",
					"type": "uint256"
				}
			],
			"name": "supplyRewards",
			"outputs": [],
			"stateMutability": "nonpayable",
			"type": "function"
		},
		{
			"inputs": [
				{
					"internalType": "bytes4",
					"name": "interfaceId",
					"type": "bytes4"
				}
			],
			"name": "supportsInterface",
			"outputs": [
				{
					"internalType": "bool",
					"name": "",
					"type": "bool"
				}
			],
			"stateMutability": "view",
			"type": "function"
		},
		{
			"inputs": [],
			"name": "symbol",
			"outputs": [
				{
					"internalType": "string",
					"name": "",
					"type": "string"
				}
			],
			"stateMutability": "view",
			"type": "function"
		},
		{
			"inputs": [
				{
					"internalType": "uint256",
					"name": "index",
					"type": "uint256"
				}
			],
			"name": "tokenByIndex",
			"outputs": [
				{
					"internalType": "uint256",
					"name": "",
					"type": "uint256"
				}
			],
			"stateMutability": "view",
			"type": "function"
		},
		{
			"inputs": [
				{
					"internalType": "address",
					"name": "owner",
					"type": "address"
				},
				{
					"internalType": "uint256",
					"name": "index",
					"type": "uint256"
				}
			],
			"name": "tokenOfOwnerByIndex",
			"outputs": [
				{
					"internalType": "uint256",
					"name": "",
					"type": "uint256"
				}
			],
			"stateMutability": "view",
			"type": "function"
		},
		{
			"inputs": [
				{
					"internalType": "uint256",
					"name": "tokenId",
					"type": "uint256"
				}
			],
			"name": "tokenURI",
			"outputs": [
				{
					"internalType": "string",
					"name": "",
					"type": "string"
				}
			],
			"stateMutability": "view",
			"type": "function"
		},
		{
			"inputs": [],
			"name": "totalStakedAmount",
			"outputs": [
				{
					"internalType": "uint256",
					"name": "",
					"type": "uint256"
				}
			],
			"stateMutability": "view",
			"type": "function"
		},
		{
			"inputs": [],
			"name": "totalSupply",
			"outputs": [
				{
					"internalType": "uint256",
					"name": "",
					"type": "uint256"
				}
			],
			"stateMutability": "view",
			"type": "function"
		},
		{
			"inputs": [
				{
					"internalType": "address",
					"name": "from",
					"type": "address"
				},
				{
					"internalType": "address",
					"name": "to",
					"type": "address"
				},
				{
					"internalType": "uint256",
					"name": "tokenId",
					"type": "uint256"
				}
			],
			"name": "transferFrom",
			"outputs": [],
			"stateMutability": "nonpayable",
			"type": "function"
		},
		{
			"inputs": [
				{
					"internalType": "address",
					"name": "account",
					"type": "address"
				}
			],
			"name": "unblacklistWallet",
			"outputs": [],
			"stateMutability": "nonpayable",
			"type": "function"
		},
		{
			"inputs": [
				{
					"internalType": "address",
					"name": "account",
					"type": "address"
				}
			],
			"name": "unfreezeWallet",
			"outputs": [],
			"stateMutability": "nonpayable",
			"type": "function"
		},
		{
			"inputs": [],
			"name": "unpause",
			"outputs": [],
			"stateMutability": "nonpayable",
			"type": "function"
		},
		{
			"inputs": [
				{
					"internalType": "address",
					"name": "",
					"type": "address"
				},
				{
					"internalType": "address",
					"name": "",
					"type": "address"
				}
			],
			"name": "userRewardPerTokenPaidPerToken",
			"outputs": [
				{
					"internalType": "uint256",
					"name": "",
					"type": "uint256"
				}
			],
			"stateMutability": "view",
			"type": "function"
		},
		{
			"inputs": [],
			"name": "vault",
			"outputs": [
				{
					"internalType": "contract AviatorRewardsVault",
					"name": "",
					"type": "address"
				}
			],
			"stateMutability": "view",
			"type": "function"
		},
		{
			"inputs": [],
			"name": "wasTotalSupplyZero",
			"outputs": [
				{
					"internalType": "bool",
					"name": "",
					"type": "bool"
				}
			],
			"stateMutability": "view",
			"type": "function"
		},
		{
			"inputs": [
				{
					"internalType": "address",
					"name": "",
					"type": "address"
				}
			],
			"name": "whitelistedRewardTokens",
			"outputs": [
				{
					"internalType": "bool",
					"name": "",
					"type": "bool"
				}
			],
			"stateMutability": "view",
			"type": "function"
		},
		{
			"inputs": [
				{
					"internalType": "uint256",
					"name": "tokenId",
					"type": "uint256"
				}
			],
			"name": "withdraw",
			"outputs": [],
			"stateMutability": "nonpayable",
			"type": "function"
		},
		{
			"inputs": [],
			"name": "withdrawAllUnlocked",
			"outputs": [],
			"stateMutability": "nonpayable",
			"type": "function"
		},
		{
			"inputs": [
				{
					"internalType": "uint256[]",
					"name": "tokenIds",
					"type": "uint256[]"
				}
			],
			"name": "withdrawMultiple",
			"outputs": [],
			"stateMutability": "nonpayable",
			"type": "function"
		}
	]
}