{
	"data": {
		"bytecode": {
			"linkReferences": {},
			"object": "6080604052348015600e575f5ffd5b5060156019565b60c9565b7ff0c57e16840df040f15088dc2f81fe391c3923bec73e23a9662efc9c229c6a00805468010000000000000000900460ff161560685760405163f92ee8a960e01b815260040160405180910390fd5b80546001600160401b039081161460c65780546001600160401b0319166001600160401b0390811782556040519081527fc7f505b2f371ae2175ee4913f4499e1f2633a7b5936321eed1cdaeb6115181d29060200160405180910390a15b50565b611126806100d65f395ff3fe608060405234801561000f575f5ffd5b5060043610610127575f3560e01c8063a217fddf116100a9578063cd8515cf1161006e578063cd8515cf14610287578063d547741f1461029a578063d79e8567146102ad578063ee99205c146102c0578063f8b2cb4f146102d2575f5ffd5b8063a217fddf14610227578063a3246ad31461022e578063b72b85a11461024e578063c4d66de814610261578063ca15c87314610274575f5ffd5b806355b8fb81116100ef57806355b8fb81146101b057806388671eb0146101c35780639010d07c146101d657806391d14854146102015780639dd373b914610214575f5ffd5b806301ffc9a71461012b578063248a9ca3146101535780632d2c5565146101745780632f2ff15d1461018857806336568abe1461019d575b5f5ffd5b61013e610139366004610ec4565b6102e5565b60405190151581526020015b60405180910390f35b610166610161366004610eeb565b6102f5565b60405190815260200161014a565b6101665f5160206110d15f395f51905f5281565b61019b610196366004610f16565b610315565b005b61019b6101ab366004610f16565b610337565b61019b6101be366004610f44565b61036f565b5f5461013e90600160a01b900460ff1681565b6101e96101e4366004610f82565b6103f7565b6040516001600160a01b03909116815260200161014a565b61013e61020f366004610f16565b610424565b61019b610222366004610fa2565b61045a565b6101665f81565b61024161023c366004610eeb565b610565565b60405161014a9190610fbd565b61019b61025c366004610f44565b610595565b61019b61026f366004610fa2565b610670565b610166610282366004610eeb565b61078b565b61019b610295366004610f44565b6107af565b61019b6102a8366004610f16565b610866565b61019b6102bb366004611008565b610882565b5f546101e9906001600160a01b031681565b6101666102e0366004610fa2565b61090a565b5f6102ef82610972565b92915050565b5f9081525f5160206110b15f395f51905f52602052604090206001015490565b61031e826102f5565b61032781610996565b61033183836109a3565b50505050565b6001600160a01b03811633146103605760405163334bd91960e11b815260040160405180910390fd5b61036a82826109e5565b505050565b5f5160206110d15f395f51905f5261038681610996565b61039a6001600160a01b0385168484610a1e565b826001600160a01b0316846001600160a01b0316336001600160a01b03167f2503bf16a63c716afc6165935443fdbfcda0bfae53b99ae0935bc46d1298bb86856040516103e991815260200190565b60405180910390a450505050565b5f8281525f5160206110915f395f51905f5260208190526040822061041c9084610a70565b949350505050565b5f9182525f5160206110b15f395f51905f52602090815260408084206001600160a01b0393909316845291905290205460ff1690565b5f5160206110d15f395f51905f5261047181610996565b5f54600160a01b900460ff16156104cf5760405162461bcd60e51b815260206004820152601c60248201527f5374616b696e6720636f6e747261637420616c7265616479207365740000000060448201526064015b60405180910390fd5b6001600160a01b0382166105175760405162461bcd60e51b815260206004820152600f60248201526e496e76616c6964206164647265737360881b60448201526064016104c6565b5f80546001600160a81b0319166001600160a01b038416908117600160a01b17825560405190917f1253844b0fff3da7dd2829de816c9b4f94c238cf2bf6eb72c02c7d6f2b53beac91a25050565b5f8181525f5160206110915f395f51905f52602081905260409091206060919061058e90610a7b565b9392505050565b5f5160206110d15f395f51905f526105ac81610996565b6040516323b872dd60e01b81523060048201526001600160a01b038481166024830152604482018490528591908216906323b872dd906064015f604051808303815f87803b1580156105fc575f5ffd5b505af115801561060e573d5f5f3e3d5ffd5b50505050836001600160a01b0316856001600160a01b0316336001600160a01b03167f4744bb01c1ab0b5b28a5d0006a4318240b4e4243c572309d6814313ea8e055498660405161066191815260200190565b60405180910390a45050505050565b5f610679610a87565b805490915060ff600160401b820416159067ffffffffffffffff165f811580156106a05750825b90505f8267ffffffffffffffff1660011480156106bc5750303b155b9050811580156106ca575080155b156106e85760405163f92ee8a960e01b815260040160405180910390fd5b845467ffffffffffffffff19166001178555831561071257845460ff60401b1916600160401b1785555b61071a610aaf565b6107245f876109a3565b5061073c5f5160206110d15f395f51905f52876109a3565b50831561078357845460ff60401b19168555604051600181527fc7f505b2f371ae2175ee4913f4499e1f2633a7b5936321eed1cdaeb6115181d29060200160405180910390a15b505050505050565b5f8181525f5160206110915f395f51905f5260208190526040822061058e90610ab9565b5f546001600160a01b031633146108005760405162461bcd60e51b815260206004820152601560248201527413db9b1e481cdd185ada5b99c818dbdb9d1c9858dd605a1b60448201526064016104c6565b6108146001600160a01b0383168483610a1e565b816001600160a01b0316836001600160a01b03167f540798df468d7b23d11f156fdb954cb19ad414d150722a7b6d55ba369dea792e8360405161085991815260200190565b60405180910390a3505050565b61086f826102f5565b61087881610996565b61033183836109e5565b5f5160206110d15f395f51905f5261089981610996565b6040516001600160a01b0384169083156108fc029084905f818181858888f193505050501580156108cc573d5f5f3e3d5ffd5b506040518281526001600160a01b0384169033907f51a3aef945b229f9f13f9c7411484fe8436ed204499a994908f9b913103928ba90602001610859565b6040516370a0823160e01b81523060048201525f906001600160a01b038316906370a0823190602401602060405180830381865afa15801561094e573d5f5f3e3d5ffd5b505050506040513d601f19601f820116820180604052508101906102ef9190611032565b5f6001600160e01b03198216635a05180f60e01b14806102ef57506102ef82610ac2565b6109a08133610af6565b50565b5f5f5160206110915f395f51905f52816109bd8585610b33565b9050801561041c575f8581526020839052604090206109dc9085610bd4565b50949350505050565b5f5f5160206110915f395f51905f52816109ff8585610be8565b9050801561041c575f8581526020839052604090206109dc9085610c61565b604080516001600160a01b038416602482015260448082018490528251808303909101815260649091019091526020810180516001600160e01b031663a9059cbb60e01b17905261036a908490610c75565b5f61058e8383610ce1565b60605f61058e83610d07565b5f807ff0c57e16840df040f15088dc2f81fe391c3923bec73e23a9662efc9c229c6a006102ef565b610ab7610d60565b565b5f6102ef825490565b5f6001600160e01b03198216637965db0b60e01b14806102ef57506301ffc9a760e01b6001600160e01b03198316146102ef565b610b008282610424565b610b2f5760405163e2517d3f60e01b81526001600160a01b0382166004820152602481018390526044016104c6565b5050565b5f5f5160206110b15f395f51905f52610b4c8484610424565b610bcb575f848152602082815260408083206001600160a01b03871684529091529020805460ff19166001179055610b813390565b6001600160a01b0316836001600160a01b0316857f2f8788117e7eff1d82e926ec794901d17c78024a50270940304540a733656f0d60405160405180910390a460019150506102ef565b5f9150506102ef565b5f61058e836001600160a01b038416610d85565b5f5f5160206110b15f395f51905f52610c018484610424565b15610bcb575f848152602082815260408083206001600160a01b0387168085529252808320805460ff1916905551339287917ff6391f5c32d9c69d2a47ea670b442974b53935d1edc7fd64eb21e047a839171b9190a460019150506102ef565b5f61058e836001600160a01b038416610dd1565b5f5f60205f8451602086015f885af180610c94576040513d5f823e3d81fd5b50505f513d91508115610cab578060011415610cb8565b6001600160a01b0384163b155b1561033157604051635274afe760e01b81526001600160a01b03851660048201526024016104c6565b5f825f018281548110610cf657610cf6611049565b905f5260205f200154905092915050565b6060815f01805480602002602001604051908101604052809291908181526020018280548015610d5457602002820191905f5260205f20905b815481526020019060010190808311610d40575b50505050509050919050565b610d68610eab565b610ab757604051631afcd79f60e31b815260040160405180910390fd5b5f818152600183016020526040812054610dca57508154600181810184555f8481526020808220909301849055845484825282860190935260409020919091556102ef565b505f6102ef565b5f8181526001830160205260408120548015610bcb575f610df360018361105d565b85549091505f90610e069060019061105d565b9050808214610e65575f865f018281548110610e2457610e24611049565b905f5260205f200154905080875f018481548110610e4457610e44611049565b5f918252602080832090910192909255918252600188019052604090208390555b8554869080610e7657610e7661107c565b600190038181905f5260205f20015f90559055856001015f8681526020019081526020015f205f9055600193505050506102ef565b5f610eb4610a87565b54600160401b900460ff16919050565b5f60208284031215610ed4575f5ffd5b81356001600160e01b03198116811461058e575f5ffd5b5f60208284031215610efb575f5ffd5b5035919050565b6001600160a01b03811681146109a0575f5ffd5b5f5f60408385031215610f27575f5ffd5b823591506020830135610f3981610f02565b809150509250929050565b5f5f5f60608486031215610f56575f5ffd5b8335610f6181610f02565b92506020840135610f7181610f02565b929592945050506040919091013590565b5f5f60408385031215610f93575f5ffd5b50508035926020909101359150565b5f60208284031215610fb2575f5ffd5b813561058e81610f02565b602080825282518282018190525f918401906040840190835b81811015610ffd5783516001600160a01b0316835260209384019390920191600101610fd6565b509095945050505050565b5f5f60408385031215611019575f5ffd5b823561102481610f02565b946020939093013593505050565b5f60208284031215611042575f5ffd5b5051919050565b634e487b7160e01b5f52603260045260245ffd5b818103818111156102ef57634e487b7160e01b5f52601160045260245ffd5b634e487b7160e01b5f52603160045260245ffdfec1f6fe24621ce81ec5827caf0253cadb74709b061630e6b55e8237170593200002dd7bc7dec4dceedda775e58dd541e08a116c6c53815c0bd028192f7b62680006aa03964db1f7257357ef09714a5f0ca3633723df419e97015e0c7a3e83edb7a2646970667358221220b74940f54192652187c78b6edd20ccad1b4bde14ccdadb6cdffd251c17655aa664736f6c634300081d0033",
			"opcodes": "PUSH1 0x80 PUSH1 0x40 MSTORE CALLVALUE DUP1 ISZERO PUSH1 0xE JUMPI PUSH0 PUSH0 REVERT JUMPDEST POP PUSH1 0x15 PUSH1 0x19 JUMP JUMPDEST PUSH1 0xC9 JUMP JUMPDEST PUSH32 0xF0C57E16840DF040F15088DC2F81FE391C3923BEC73E23A9662EFC9C229C6A00 DUP1 SLOAD PUSH9 0x10000000000000000 SWAP1 DIV PUSH1 0xFF AND ISZERO PUSH1 0x68 JUMPI PUSH1 0x40 MLOAD PUSH4 0xF92EE8A9 PUSH1 0xE0 SHL DUP2 MSTORE PUSH1 0x4 ADD PUSH1 0x40 MLOAD DUP1 SWAP2 SUB SWAP1 REVERT JUMPDEST DUP1 SLOAD PUSH1 0x1 PUSH1 0x1 PUSH1 0x40 SHL SUB SWAP1 DUP2 AND EQ PUSH1 0xC6 JUMPI DUP1 SLOAD PUSH1 0x1 PUSH1 0x1 PUSH1 0x40 SHL SUB NOT AND PUSH1 0x1 PUSH1 0x1 PUSH1 0x40 SHL SUB SWAP1 DUP2 OR DUP3 SSTORE PUSH1 0x40 MLOAD SWAP1 DUP2 MSTORE PUSH32 0xC7F505B2F371AE2175EE4913F4499E1F2633A7B5936321EED1CDAEB6115181D2 SWAP1 PUSH1 0x20 ADD PUSH1 0x40 MLOAD DUP1 SWAP2 SUB SWAP1 LOG1 JUMPDEST POP JUMP JUMPDEST PUSH2 0x1126 DUP1 PUSH2 0xD6 PUSH0 CODECOPY PUSH0 RETURN INVALID PUSH1 0x80 PUSH1 0x40 MSTORE CALLVALUE DUP1 ISZERO PUSH2 0xF JUMPI PUSH0 PUSH0 REVERT JUMPDEST POP PUSH1 0x4 CALLDATASIZE LT PUSH2 0x127 JUMPI PUSH0 CALLDATALOAD PUSH1 0xE0 SHR DUP1 PUSH4 0xA217FDDF GT PUSH2 0xA9 JUMPI DUP1 PUSH4 0xCD8515CF GT PUSH2 0x6E JUMPI DUP1 PUSH4 0xCD8515CF EQ PUSH2 0x287 JUMPI DUP1 PUSH4 0xD547741F EQ PUSH2 0x29A JUMPI DUP1 PUSH4 0xD79E8567 EQ PUSH2 0x2AD JUMPI DUP1 PUSH4 0xEE99205C EQ PUSH2 0x2C0 JUMPI DUP1 PUSH4 0xF8B2CB4F EQ PUSH2 0x2D2 JUMPI PUSH0 PUSH0 REVERT JUMPDEST DUP1 PUSH4 0xA217FDDF EQ PUSH2 0x227 JUMPI DUP1 PUSH4 0xA3246AD3 EQ PUSH2 0x22E JUMPI DUP1 PUSH4 0xB72B85A1 EQ PUSH2 0x24E JUMPI DUP1 PUSH4 0xC4D66DE8 EQ PUSH2 0x261 JUMPI DUP1 PUSH4 0xCA15C873 EQ PUSH2 0x274 JUMPI PUSH0 PUSH0 REVERT JUMPDEST DUP1 PUSH4 0x55B8FB81 GT PUSH2 0xEF JUMPI DUP1 PUSH4 0x55B8FB81 EQ PUSH2 0x1B0 JUMPI DUP1 PUSH4 0x88671EB0 EQ PUSH2 0x1C3 JUMPI DUP1 PUSH4 0x9010D07C EQ PUSH2 0x1D6 JUMPI DUP1 PUSH4 0x91D14854 EQ PUSH2 0x201 JUMPI DUP1 PUSH4 0x9DD373B9 EQ PUSH2 0x214 JUMPI PUSH0 PUSH0 REVERT JUMPDEST DUP1 PUSH4 0x1FFC9A7 EQ PUSH2 0x12B JUMPI DUP1 PUSH4 0x248A9CA3 EQ PUSH2 0x153 JUMPI DUP1 PUSH4 0x2D2C5565 EQ PUSH2 0x174 JUMPI DUP1 PUSH4 0x2F2FF15D EQ PUSH2 0x188 JUMPI DUP1 PUSH4 0x36568ABE EQ PUSH2 0x19D JUMPI JUMPDEST PUSH0 PUSH0 REVERT JUMPDEST PUSH2 0x13E PUSH2 0x139 CALLDATASIZE PUSH1 0x4 PUSH2 0xEC4 JUMP JUMPDEST PUSH2 0x2E5 JUMP JUMPDEST PUSH1 0x40 MLOAD SWAP1 ISZERO ISZERO DUP2 MSTORE PUSH1 0x20 ADD JUMPDEST PUSH1 0x40 MLOAD DUP1 SWAP2 SUB SWAP1 RETURN JUMPDEST PUSH2 0x166 PUSH2 0x161 CALLDATASIZE PUSH1 0x4 PUSH2 0xEEB JUMP JUMPDEST PUSH2 0x2F5 JUMP JUMPDEST PUSH1 0x40 MLOAD SWAP1 DUP2 MSTORE PUSH1 0x20 ADD PUSH2 0x14A JUMP JUMPDEST PUSH2 0x166 PUSH0 MLOAD PUSH1 0x20 PUSH2 0x10D1 PUSH0 CODECOPY PUSH0 MLOAD SWAP1 PUSH0 MSTORE DUP2 JUMP JUMPDEST PUSH2 0x19B PUSH2 0x196 CALLDATASIZE PUSH1 0x4 PUSH2 0xF16 JUMP JUMPDEST PUSH2 0x315 JUMP JUMPDEST STOP JUMPDEST PUSH2 0x19B PUSH2 0x1AB CALLDATASIZE PUSH1 0x4 PUSH2 0xF16 JUMP JUMPDEST PUSH2 0x337 JUMP JUMPDEST PUSH2 0x19B PUSH2 0x1BE CALLDATASIZE PUSH1 0x4 PUSH2 0xF44 JUMP JUMPDEST PUSH2 0x36F JUMP JUMPDEST PUSH0 SLOAD PUSH2 0x13E SWAP1 PUSH1 0x1 PUSH1 0xA0 SHL SWAP1 DIV PUSH1 0xFF AND DUP2 JUMP JUMPDEST PUSH2 0x1E9 PUSH2 0x1E4 CALLDATASIZE PUSH1 0x4 PUSH2 0xF82 JUMP JUMPDEST PUSH2 0x3F7 JUMP JUMPDEST PUSH1 0x40 MLOAD PUSH1 0x1 PUSH1 0x1 PUSH1 0xA0 SHL SUB SWAP1 SWAP2 AND DUP2 MSTORE PUSH1 0x20 ADD PUSH2 0x14A JUMP JUMPDEST PUSH2 0x13E PUSH2 0x20F CALLDATASIZE PUSH1 0x4 PUSH2 0xF16 JUMP JUMPDEST PUSH2 0x424 JUMP JUMPDEST PUSH2 0x19B PUSH2 0x222 CALLDATASIZE PUSH1 0x4 PUSH2 0xFA2 JUMP JUMPDEST PUSH2 0x45A JUMP JUMPDEST PUSH2 0x166 PUSH0 DUP2 JUMP JUMPDEST PUSH2 0x241 PUSH2 0x23C CALLDATASIZE PUSH1 0x4 PUSH2 0xEEB JUMP JUMPDEST PUSH2 0x565 JUMP JUMPDEST PUSH1 0x40 MLOAD PUSH2 0x14A SWAP2 SWAP1 PUSH2 0xFBD JUMP JUMPDEST PUSH2 0x19B PUSH2 0x25C CALLDATASIZE PUSH1 0x4 PUSH2 0xF44 JUMP JUMPDEST PUSH2 0x595 JUMP JUMPDEST PUSH2 0x19B PUSH2 0x26F CALLDATASIZE PUSH1 0x4 PUSH2 0xFA2 JUMP JUMPDEST PUSH2 0x670 JUMP JUMPDEST PUSH2 0x166 PUSH2 0x282 CALLDATASIZE PUSH1 0x4 PUSH2 0xEEB JUMP JUMPDEST PUSH2 0x78B JUMP JUMPDEST PUSH2 0x19B PUSH2 0x295 CALLDATASIZE PUSH1 0x4 PUSH2 0xF44 JUMP JUMPDEST PUSH2 0x7AF JUMP JUMPDEST PUSH2 0x19B PUSH2 0x2A8 CALLDATASIZE PUSH1 0x4 PUSH2 0xF16 JUMP JUMPDEST PUSH2 0x866 JUMP JUMPDEST PUSH2 0x19B PUSH2 0x2BB CALLDATASIZE PUSH1 0x4 PUSH2 0x1008 JUMP JUMPDEST PUSH2 0x882 JUMP JUMPDEST PUSH0 SLOAD PUSH2 0x1E9 SWAP1 PUSH1 0x1 PUSH1 0x1 PUSH1 0xA0 SHL SUB AND DUP2 JUMP JUMPDEST PUSH2 0x166 PUSH2 0x2E0 CALLDATASIZE PUSH1 0x4 PUSH2 0xFA2 JUMP JUMPDEST PUSH2 0x90A JUMP JUMPDEST PUSH0 PUSH2 0x2EF DUP3 PUSH2 0x972 JUMP JUMPDEST SWAP3 SWAP2 POP POP JUMP JUMPDEST PUSH0 SWAP1 DUP2 MSTORE PUSH0 MLOAD PUSH1 0x20 PUSH2 0x10B1 PUSH0 CODECOPY PUSH0 MLOAD SWAP1 PUSH0 MSTORE PUSH1 0x20 MSTORE PUSH1 0x40 SWAP1 KECCAK256 PUSH1 0x1 ADD SLOAD SWAP1 JUMP JUMPDEST PUSH2 0x31E DUP3 PUSH2 0x2F5 JUMP JUMPDEST PUSH2 0x327 DUP2 PUSH2 0x996 JUMP JUMPDEST PUSH2 0x331 DUP4 DUP4 PUSH2 0x9A3 JUMP JUMPDEST POP POP POP POP JUMP JUMPDEST PUSH1 0x1 PUSH1 0x1 PUSH1 0xA0 SHL SUB DUP2 AND CALLER EQ PUSH2 0x360 JUMPI PUSH1 0x40 MLOAD PUSH4 0x334BD919 PUSH1 0xE1 SHL DUP2 MSTORE PUSH1 0x4 ADD PUSH1 0x40 MLOAD DUP1 SWAP2 SUB SWAP1 REVERT JUMPDEST PUSH2 0x36A DUP3 DUP3 PUSH2 0x9E5 JUMP JUMPDEST POP POP POP JUMP JUMPDEST PUSH0 MLOAD PUSH1 0x20 PUSH2 0x10D1 PUSH0 CODECOPY PUSH0 MLOAD SWAP1 PUSH0 MSTORE PUSH2 0x386 DUP2 PUSH2 0x996 JUMP JUMPDEST PUSH2 0x39A PUSH1 0x1 PUSH1 0x1 PUSH1 0xA0 SHL SUB DUP6 AND DUP5 DUP5 PUSH2 0xA1E JUMP JUMPDEST DUP3 PUSH1 0x1 PUSH1 0x1 PUSH1 0xA0 SHL SUB AND DUP5 PUSH1 0x1 PUSH1 0x1 PUSH1 0xA0 SHL SUB AND CALLER PUSH1 0x1 PUSH1 0x1 PUSH1 0xA0 SHL SUB AND PUSH32 0x2503BF16A63C716AFC6165935443FDBFCDA0BFAE53B99AE0935BC46D1298BB86 DUP6 PUSH1 0x40 MLOAD PUSH2 0x3E9 SWAP2 DUP2 MSTORE PUSH1 0x20 ADD SWAP1 JUMP JUMPDEST PUSH1 0x40 MLOAD DUP1 SWAP2 SUB SWAP1 LOG4 POP POP POP POP JUMP JUMPDEST PUSH0 DUP3 DUP2 MSTORE PUSH0 MLOAD PUSH1 0x20 PUSH2 0x1091 PUSH0 CODECOPY PUSH0 MLOAD SWAP1 PUSH0 MSTORE PUSH1 0x20 DUP2 SWAP1 MSTORE PUSH1 0x40 DUP3 KECCAK256 PUSH2 0x41C SWAP1 DUP5 PUSH2 0xA70 JUMP JUMPDEST SWAP5 SWAP4 POP POP POP POP JUMP JUMPDEST PUSH0 SWAP2 DUP3 MSTORE PUSH0 MLOAD PUSH1 0x20 PUSH2 0x10B1 PUSH0 CODECOPY PUSH0 MLOAD SWAP1 PUSH0 MSTORE PUSH1 0x20 SWAP1 DUP2 MSTORE PUSH1 0x40 DUP1 DUP5 KECCAK256 PUSH1 0x1 PUSH1 0x1 PUSH1 0xA0 SHL SUB SWAP4 SWAP1 SWAP4 AND DUP5 MSTORE SWAP2 SWAP1 MSTORE SWAP1 KECCAK256 SLOAD PUSH1 0xFF AND SWAP1 JUMP JUMPDEST PUSH0 MLOAD PUSH1 0x20 PUSH2 0x10D1 PUSH0 CODECOPY PUSH0 MLOAD SWAP1 PUSH0 MSTORE PUSH2 0x471 DUP2 PUSH2 0x996 JUMP JUMPDEST PUSH0 SLOAD PUSH1 0x1 PUSH1 0xA0 SHL SWAP1 DIV PUSH1 0xFF AND ISZERO PUSH2 0x4CF JUMPI PUSH1 0x40 MLOAD PUSH3 0x461BCD PUSH1 0xE5 SHL DUP2 MSTORE PUSH1 0x20 PUSH1 0x4 DUP3 ADD MSTORE PUSH1 0x1C PUSH1 0x24 DUP3 ADD MSTORE PUSH32 0x5374616B696E6720636F6E747261637420616C72656164792073657400000000 PUSH1 0x44 DUP3 ADD MSTORE PUSH1 0x64 ADD JUMPDEST PUSH1 0x40 MLOAD DUP1 SWAP2 SUB SWAP1 REVERT JUMPDEST PUSH1 0x1 PUSH1 0x1 PUSH1 0xA0 SHL SUB DUP3 AND PUSH2 0x517 JUMPI PUSH1 0x40 MLOAD PUSH3 0x461BCD PUSH1 0xE5 SHL DUP2 MSTORE PUSH1 0x20 PUSH1 0x4 DUP3 ADD MSTORE PUSH1 0xF PUSH1 0x24 DUP3 ADD MSTORE PUSH15 0x496E76616C69642061646472657373 PUSH1 0x88 SHL PUSH1 0x44 DUP3 ADD MSTORE PUSH1 0x64 ADD PUSH2 0x4C6 JUMP JUMPDEST PUSH0 DUP1 SLOAD PUSH1 0x1 PUSH1 0x1 PUSH1 0xA8 SHL SUB NOT AND PUSH1 0x1 PUSH1 0x1 PUSH1 0xA0 SHL SUB DUP5 AND SWAP1 DUP2 OR PUSH1 0x1 PUSH1 0xA0 SHL OR DUP3 SSTORE PUSH1 0x40 MLOAD SWAP1 SWAP2 PUSH32 0x1253844B0FFF3DA7DD2829DE816C9B4F94C238CF2BF6EB72C02C7D6F2B53BEAC SWAP2 LOG2 POP POP JUMP JUMPDEST PUSH0 DUP2 DUP2 MSTORE PUSH0 MLOAD PUSH1 0x20 PUSH2 0x1091 PUSH0 CODECOPY PUSH0 MLOAD SWAP1 PUSH0 MSTORE PUSH1 0x20 DUP2 SWAP1 MSTORE PUSH1 0x40 SWAP1 SWAP2 KECCAK256 PUSH1 0x60 SWAP2 SWAP1 PUSH2 0x58E SWAP1 PUSH2 0xA7B JUMP JUMPDEST SWAP4 SWAP3 POP POP POP JUMP JUMPDEST PUSH0 MLOAD PUSH1 0x20 PUSH2 0x10D1 PUSH0 CODECOPY PUSH0 MLOAD SWAP1 PUSH0 MSTORE PUSH2 0x5AC DUP2 PUSH2 0x996 JUMP JUMPDEST PUSH1 0x40 MLOAD PUSH4 0x23B872DD PUSH1 0xE0 SHL DUP2 MSTORE ADDRESS PUSH1 0x4 DUP3 ADD MSTORE PUSH1 0x1 PUSH1 0x1 PUSH1 0xA0 SHL SUB DUP5 DUP2 AND PUSH1 0x24 DUP4 ADD MSTORE PUSH1 0x44 DUP3 ADD DUP5 SWAP1 MSTORE DUP6 SWAP2 SWAP1 DUP3 AND SWAP1 PUSH4 0x23B872DD SWAP1 PUSH1 0x64 ADD PUSH0 PUSH1 0x40 MLOAD DUP1 DUP4 SUB DUP2 PUSH0 DUP8 DUP1 EXTCODESIZE ISZERO DUP1 ISZERO PUSH2 0x5FC JUMPI PUSH0 PUSH0 REVERT JUMPDEST POP GAS CALL ISZERO DUP1 ISZERO PUSH2 0x60E JUMPI RETURNDATASIZE PUSH0 PUSH0 RETURNDATACOPY RETURNDATASIZE PUSH0 REVERT JUMPDEST POP POP POP POP DUP4 PUSH1 0x1 PUSH1 0x1 PUSH1 0xA0 SHL SUB AND DUP6 PUSH1 0x1 PUSH1 0x1 PUSH1 0xA0 SHL SUB AND CALLER PUSH1 0x1 PUSH1 0x1 PUSH1 0xA0 SHL SUB AND PUSH32 0x4744BB01C1AB0B5B28A5D0006A4318240B4E4243C572309D6814313EA8E05549 DUP7 PUSH1 0x40 MLOAD PUSH2 0x661 SWAP2 DUP2 MSTORE PUSH1 0x20 ADD SWAP1 JUMP JUMPDEST PUSH1 0x40 MLOAD DUP1 SWAP2 SUB SWAP1 LOG4 POP POP POP POP POP JUMP JUMPDEST PUSH0 PUSH2 0x679 PUSH2 0xA87 JUMP JUMPDEST DUP1 SLOAD SWAP1 SWAP2 POP PUSH1 0xFF PUSH1 0x1 PUSH1 0x40 SHL DUP3 DIV AND ISZERO SWAP1 PUSH8 0xFFFFFFFFFFFFFFFF AND PUSH0 DUP2 ISZERO DUP1 ISZERO PUSH2 0x6A0 JUMPI POP DUP3 JUMPDEST SWAP1 POP PUSH0 DUP3 PUSH8 0xFFFFFFFFFFFFFFFF AND PUSH1 0x1 EQ DUP1 ISZERO PUSH2 0x6BC JUMPI POP ADDRESS EXTCODESIZE ISZERO JUMPDEST SWAP1 POP DUP2 ISZERO DUP1 ISZERO PUSH2 0x6CA JUMPI POP DUP1 ISZERO JUMPDEST ISZERO PUSH2 0x6E8 JUMPI PUSH1 0x40 MLOAD PUSH4 0xF92EE8A9 PUSH1 0xE0 SHL DUP2 MSTORE PUSH1 0x4 ADD PUSH1 0x40 MLOAD DUP1 SWAP2 SUB SWAP1 REVERT JUMPDEST DUP5 SLOAD PUSH8 0xFFFFFFFFFFFFFFFF NOT AND PUSH1 0x1 OR DUP6 SSTORE DUP4 ISZERO PUSH2 0x712 JUMPI DUP5 SLOAD PUSH1 0xFF PUSH1 0x40 SHL NOT AND PUSH1 0x1 PUSH1 0x40 SHL OR DUP6 SSTORE JUMPDEST PUSH2 0x71A PUSH2 0xAAF JUMP JUMPDEST PUSH2 0x724 PUSH0 DUP8 PUSH2 0x9A3 JUMP JUMPDEST POP PUSH2 0x73C PUSH0 MLOAD PUSH1 0x20 PUSH2 0x10D1 PUSH0 CODECOPY PUSH0 MLOAD SWAP1 PUSH0 MSTORE DUP8 PUSH2 0x9A3 JUMP JUMPDEST POP DUP4 ISZERO PUSH2 0x783 JUMPI DUP5 SLOAD PUSH1 0xFF PUSH1 0x40 SHL NOT AND DUP6 SSTORE PUSH1 0x40 MLOAD PUSH1 0x1 DUP2 MSTORE PUSH32 0xC7F505B2F371AE2175EE4913F4499E1F2633A7B5936321EED1CDAEB6115181D2 SWAP1 PUSH1 0x20 ADD PUSH1 0x40 MLOAD DUP1 SWAP2 SUB SWAP1 LOG1 JUMPDEST POP POP POP POP POP POP JUMP JUMPDEST PUSH0 DUP2 DUP2 MSTORE PUSH0 MLOAD PUSH1 0x20 PUSH2 0x1091 PUSH0 CODECOPY PUSH0 MLOAD SWAP1 PUSH0 MSTORE PUSH1 0x20 DUP2 SWAP1 MSTORE PUSH1 0x40 DUP3 KECCAK256 PUSH2 0x58E SWAP1 PUSH2 0xAB9 JUMP JUMPDEST PUSH0 SLOAD PUSH1 0x1 PUSH1 0x1 PUSH1 0xA0 SHL SUB AND CALLER EQ PUSH2 0x800 JUMPI PUSH1 0x40 MLOAD PUSH3 0x461BCD PUSH1 0xE5 SHL DUP2 MSTORE PUSH1 0x20 PUSH1 0x4 DUP3 ADD MSTORE PUSH1 0x15 PUSH1 0x24 DUP3 ADD MSTORE PUSH21 0x13DB9B1E481CDD185ADA5B99C818DBDB9D1C9858DD PUSH1 0x5A SHL PUSH1 0x44 DUP3 ADD MSTORE PUSH1 0x64 ADD PUSH2 0x4C6 JUMP JUMPDEST PUSH2 0x814 PUSH1 0x1 PUSH1 0x1 PUSH1 0xA0 SHL SUB DUP4 AND DUP5 DUP4 PUSH2 0xA1E JUMP JUMPDEST DUP2 PUSH1 0x1 PUSH1 0x1 PUSH1 0xA0 SHL SUB AND DUP4 PUSH1 0x1 PUSH1 0x1 PUSH1 0xA0 SHL SUB AND PUSH32 0x540798DF468D7B23D11F156FDB954CB19AD414D150722A7B6D55BA369DEA792E DUP4 PUSH1 0x40 MLOAD PUSH2 0x859 SWAP2 DUP2 MSTORE PUSH1 0x20 ADD SWAP1 JUMP JUMPDEST PUSH1 0x40 MLOAD DUP1 SWAP2 SUB SWAP1 LOG3 POP POP POP JUMP JUMPDEST PUSH2 0x86F DUP3 PUSH2 0x2F5 JUMP JUMPDEST PUSH2 0x878 DUP2 PUSH2 0x996 JUMP JUMPDEST PUSH2 0x331 DUP4 DUP4 PUSH2 0x9E5 JUMP JUMPDEST PUSH0 MLOAD PUSH1 0x20 PUSH2 0x10D1 PUSH0 CODECOPY PUSH0 MLOAD SWAP1 PUSH0 MSTORE PUSH2 0x899 DUP2 PUSH2 0x996 JUMP JUMPDEST PUSH1 0x40 MLOAD PUSH1 0x1 PUSH1 0x1 PUSH1 0xA0 SHL SUB DUP5 AND SWAP1 DUP4 ISZERO PUSH2 0x8FC MUL SWAP1 DUP5 SWAP1 PUSH0 DUP2 DUP2 DUP2 DUP6 DUP9 DUP9 CALL SWAP4 POP POP POP POP ISZERO DUP1 ISZERO PUSH2 0x8CC JUMPI RETURNDATASIZE PUSH0 PUSH0 RETURNDATACOPY RETURNDATASIZE PUSH0 REVERT JUMPDEST POP PUSH1 0x40 MLOAD DUP3 DUP2 MSTORE PUSH1 0x1 PUSH1 0x1 PUSH1 0xA0 SHL SUB DUP5 AND SWAP1 CALLER SWAP1 PUSH32 0x51A3AEF945B229F9F13F9C7411484FE8436ED204499A994908F9B913103928BA SWAP1 PUSH1 0x20 ADD PUSH2 0x859 JUMP JUMPDEST PUSH1 0x40 MLOAD PUSH4 0x70A08231 PUSH1 0xE0 SHL DUP2 MSTORE ADDRESS PUSH1 0x4 DUP3 ADD MSTORE PUSH0 SWAP1 PUSH1 0x1 PUSH1 0x1 PUSH1 0xA0 SHL SUB DUP4 AND SWAP1 PUSH4 0x70A08231 SWAP1 PUSH1 0x24 ADD PUSH1 0x20 PUSH1 0x40 MLOAD DUP1 DUP4 SUB DUP2 DUP7 GAS STATICCALL ISZERO DUP1 ISZERO PUSH2 0x94E JUMPI RETURNDATASIZE PUSH0 PUSH0 RETURNDATACOPY RETURNDATASIZE PUSH0 REVERT JUMPDEST POP POP POP POP PUSH1 0x40 MLOAD RETURNDATASIZE PUSH1 0x1F NOT PUSH1 0x1F DUP3 ADD AND DUP3 ADD DUP1 PUSH1 0x40 MSTORE POP DUP2 ADD SWAP1 PUSH2 0x2EF SWAP2 SWAP1 PUSH2 0x1032 JUMP JUMPDEST PUSH0 PUSH1 0x1 PUSH1 0x1 PUSH1 0xE0 SHL SUB NOT DUP3 AND PUSH4 0x5A05180F PUSH1 0xE0 SHL EQ DUP1 PUSH2 0x2EF JUMPI POP PUSH2 0x2EF DUP3 PUSH2 0xAC2 JUMP JUMPDEST PUSH2 0x9A0 DUP2 CALLER PUSH2 0xAF6 JUMP JUMPDEST POP JUMP JUMPDEST PUSH0 PUSH0 MLOAD PUSH1 0x20 PUSH2 0x1091 PUSH0 CODECOPY PUSH0 MLOAD SWAP1 PUSH0 MSTORE DUP2 PUSH2 0x9BD DUP6 DUP6 PUSH2 0xB33 JUMP JUMPDEST SWAP1 POP DUP1 ISZERO PUSH2 0x41C JUMPI PUSH0 DUP6 DUP2 MSTORE PUSH1 0x20 DUP4 SWAP1 MSTORE PUSH1 0x40 SWAP1 KECCAK256 PUSH2 0x9DC SWAP1 DUP6 PUSH2 0xBD4 JUMP JUMPDEST POP SWAP5 SWAP4 POP POP POP POP JUMP JUMPDEST PUSH0 PUSH0 MLOAD PUSH1 0x20 PUSH2 0x1091 PUSH0 CODECOPY PUSH0 MLOAD SWAP1 PUSH0 MSTORE DUP2 PUSH2 0x9FF DUP6 DUP6 PUSH2 0xBE8 JUMP JUMPDEST SWAP1 POP DUP1 ISZERO PUSH2 0x41C JUMPI PUSH0 DUP6 DUP2 MSTORE PUSH1 0x20 DUP4 SWAP1 MSTORE PUSH1 0x40 SWAP1 KECCAK256 PUSH2 0x9DC SWAP1 DUP6 PUSH2 0xC61 JUMP JUMPDEST PUSH1 0x40 DUP1 MLOAD PUSH1 0x1 PUSH1 0x1 PUSH1 0xA0 SHL SUB DUP5 AND PUSH1 0x24 DUP3 ADD MSTORE PUSH1 0x44 DUP1 DUP3 ADD DUP5 SWAP1 MSTORE DUP3 MLOAD DUP1 DUP4 SUB SWAP1 SWAP2 ADD DUP2 MSTORE PUSH1 0x64 SWAP1 SWAP2 ADD SWAP1 SWAP2 MSTORE PUSH1 0x20 DUP2 ADD DUP1 MLOAD PUSH1 0x1 PUSH1 0x1 PUSH1 0xE0 SHL SUB AND PUSH4 0xA9059CBB PUSH1 0xE0 SHL OR SWAP1 MSTORE PUSH2 0x36A SWAP1 DUP5 SWAP1 PUSH2 0xC75 JUMP JUMPDEST PUSH0 PUSH2 0x58E DUP4 DUP4 PUSH2 0xCE1 JUMP JUMPDEST PUSH1 0x60 PUSH0 PUSH2 0x58E DUP4 PUSH2 0xD07 JUMP JUMPDEST PUSH0 DUP1 PUSH32 0xF0C57E16840DF040F15088DC2F81FE391C3923BEC73E23A9662EFC9C229C6A00 PUSH2 0x2EF JUMP JUMPDEST PUSH2 0xAB7 PUSH2 0xD60 JUMP JUMPDEST JUMP JUMPDEST PUSH0 PUSH2 0x2EF DUP3 SLOAD SWAP1 JUMP JUMPDEST PUSH0 PUSH1 0x1 PUSH1 0x1 PUSH1 0xE0 SHL SUB NOT DUP3 AND PUSH4 0x7965DB0B PUSH1 0xE0 SHL EQ DUP1 PUSH2 0x2EF JUMPI POP PUSH4 0x1FFC9A7 PUSH1 0xE0 SHL PUSH1 0x1 PUSH1 0x1 PUSH1 0xE0 SHL SUB NOT DUP4 AND EQ PUSH2 0x2EF JUMP JUMPDEST PUSH2 0xB00 DUP3 DUP3 PUSH2 0x424 JUMP JUMPDEST PUSH2 0xB2F JUMPI PUSH1 0x40 MLOAD PUSH4 0xE2517D3F PUSH1 0xE0 SHL DUP2 MSTORE PUSH1 0x1 PUSH1 0x1 PUSH1 0xA0 SHL SUB DUP3 AND PUSH1 0x4 DUP3 ADD MSTORE PUSH1 0x24 DUP2 ADD DUP4 SWAP1 MSTORE PUSH1 0x44 ADD PUSH2 0x4C6 JUMP JUMPDEST POP POP JUMP JUMPDEST PUSH0 PUSH0 MLOAD PUSH1 0x20 PUSH2 0x10B1 PUSH0 CODECOPY PUSH0 MLOAD SWAP1 PUSH0 MSTORE PUSH2 0xB4C DUP5 DUP5 PUSH2 0x424 JUMP JUMPDEST PUSH2 0xBCB JUMPI PUSH0 DUP5 DUP2 MSTORE PUSH1 0x20 DUP3 DUP2 MSTORE PUSH1 0x40 DUP1 DUP4 KECCAK256 PUSH1 0x1 PUSH1 0x1 PUSH1 0xA0 SHL SUB DUP8 AND DUP5 MSTORE SWAP1 SWAP2 MSTORE SWAP1 KECCAK256 DUP1 SLOAD PUSH1 0xFF NOT AND PUSH1 0x1 OR SWAP1 SSTORE PUSH2 0xB81 CALLER SWAP1 JUMP JUMPDEST PUSH1 0x1 PUSH1 0x1 PUSH1 0xA0 SHL SUB AND DUP4 PUSH1 0x1 PUSH1 0x1 PUSH1 0xA0 SHL SUB AND DUP6 PUSH32 0x2F8788117E7EFF1D82E926EC794901D17C78024A50270940304540A733656F0D PUSH1 0x40 MLOAD PUSH1 0x40 MLOAD DUP1 SWAP2 SUB SWAP1 LOG4 PUSH1 0x1 SWAP2 POP POP PUSH2 0x2EF JUMP JUMPDEST PUSH0 SWAP2 POP POP PUSH2 0x2EF JUMP JUMPDEST PUSH0 PUSH2 0x58E DUP4 PUSH1 0x1 PUSH1 0x1 PUSH1 0xA0 SHL SUB DUP5 AND PUSH2 0xD85 JUMP JUMPDEST PUSH0 PUSH0 MLOAD PUSH1 0x20 PUSH2 0x10B1 PUSH0 CODECOPY PUSH0 MLOAD SWAP1 PUSH0 MSTORE PUSH2 0xC01 DUP5 DUP5 PUSH2 0x424 JUMP JUMPDEST ISZERO PUSH2 0xBCB JUMPI PUSH0 DUP5 DUP2 MSTORE PUSH1 0x20 DUP3 DUP2 MSTORE PUSH1 0x40 DUP1 DUP4 KECCAK256 PUSH1 0x1 PUSH1 0x1 PUSH1 0xA0 SHL SUB DUP8 AND DUP1 DUP6 MSTORE SWAP3 MSTORE DUP1 DUP4 KECCAK256 DUP1 SLOAD PUSH1 0xFF NOT AND SWAP1 SSTORE MLOAD CALLER SWAP3 DUP8 SWAP2 PUSH32 0xF6391F5C32D9C69D2A47EA670B442974B53935D1EDC7FD64EB21E047A839171B SWAP2 SWAP1 LOG4 PUSH1 0x1 SWAP2 POP POP PUSH2 0x2EF JUMP JUMPDEST PUSH0 PUSH2 0x58E DUP4 PUSH1 0x1 PUSH1 0x1 PUSH1 0xA0 SHL SUB DUP5 AND PUSH2 0xDD1 JUMP JUMPDEST PUSH0 PUSH0 PUSH1 0x20 PUSH0 DUP5 MLOAD PUSH1 0x20 DUP7 ADD PUSH0 DUP9 GAS CALL DUP1 PUSH2 0xC94 JUMPI PUSH1 0x40 MLOAD RETURNDATASIZE PUSH0 DUP3 RETURNDATACOPY RETURNDATASIZE DUP2 REVERT JUMPDEST POP POP PUSH0 MLOAD RETURNDATASIZE SWAP2 POP DUP2 ISZERO PUSH2 0xCAB JUMPI DUP1 PUSH1 0x1 EQ ISZERO PUSH2 0xCB8 JUMP JUMPDEST PUSH1 0x1 PUSH1 0x1 PUSH1 0xA0 SHL SUB DUP5 AND EXTCODESIZE ISZERO JUMPDEST ISZERO PUSH2 0x331 JUMPI PUSH1 0x40 MLOAD PUSH4 0x5274AFE7 PUSH1 0xE0 SHL DUP2 MSTORE PUSH1 0x1 PUSH1 0x1 PUSH1 0xA0 SHL SUB DUP6 AND PUSH1 0x4 DUP3 ADD MSTORE PUSH1 0x24 ADD PUSH2 0x4C6 JUMP JUMPDEST PUSH0 DUP3 PUSH0 ADD DUP3 DUP2 SLOAD DUP2 LT PUSH2 0xCF6 JUMPI PUSH2 0xCF6 PUSH2 0x1049 JUMP JUMPDEST SWAP1 PUSH0 MSTORE PUSH1 0x20 PUSH0 KECCAK256 ADD SLOAD SWAP1 POP SWAP3 SWAP2 POP POP JUMP JUMPDEST PUSH1 0x60 DUP2 PUSH0 ADD DUP1 SLOAD DUP1 PUSH1 0x20 MUL PUSH1 0x20 ADD PUSH1 0x40 MLOAD SWAP1 DUP2 ADD PUSH1 0x40 MSTORE DUP1 SWAP3 SWAP2 SWAP1 DUP2 DUP2 MSTORE PUSH1 0x20 ADD DUP3 DUP1 SLOAD DUP1 ISZERO PUSH2 0xD54 JUMPI PUSH1 0x20 MUL DUP3 ADD SWAP2 SWAP1 PUSH0 MSTORE PUSH1 0x20 PUSH0 KECCAK256 SWAP1 JUMPDEST DUP2 SLOAD DUP2 MSTORE PUSH1 0x20 ADD SWAP1 PUSH1 0x1 ADD SWAP1 DUP1 DUP4 GT PUSH2 0xD40 JUMPI JUMPDEST POP POP POP POP POP SWAP1 POP SWAP2 SWAP1 POP JUMP JUMPDEST PUSH2 0xD68 PUSH2 0xEAB JUMP JUMPDEST PUSH2 0xAB7 JUMPI PUSH1 0x40 MLOAD PUSH4 0x1AFCD79F PUSH1 0xE3 SHL DUP2 MSTORE PUSH1 0x4 ADD PUSH1 0x40 MLOAD DUP1 SWAP2 SUB SWAP1 REVERT JUMPDEST PUSH0 DUP2 DUP2 MSTORE PUSH1 0x1 DUP4 ADD PUSH1 0x20 MSTORE PUSH1 0x40 DUP2 KECCAK256 SLOAD PUSH2 0xDCA JUMPI POP DUP2 SLOAD PUSH1 0x1 DUP2 DUP2 ADD DUP5 SSTORE PUSH0 DUP5 DUP2 MSTORE PUSH1 0x20 DUP1 DUP3 KECCAK256 SWAP1 SWAP4 ADD DUP5 SWAP1 SSTORE DUP5 SLOAD DUP5 DUP3 MSTORE DUP3 DUP7 ADD SWAP1 SWAP4 MSTORE PUSH1 0x40 SWAP1 KECCAK256 SWAP2 SWAP1 SWAP2 SSTORE PUSH2 0x2EF JUMP JUMPDEST POP PUSH0 PUSH2 0x2EF JUMP JUMPDEST PUSH0 DUP2 DUP2 MSTORE PUSH1 0x1 DUP4 ADD PUSH1 0x20 MSTORE PUSH1 0x40 DUP2 KECCAK256 SLOAD DUP1 ISZERO PUSH2 0xBCB JUMPI PUSH0 PUSH2 0xDF3 PUSH1 0x1 DUP4 PUSH2 0x105D JUMP JUMPDEST DUP6 SLOAD SWAP1 SWAP2 POP PUSH0 SWAP1 PUSH2 0xE06 SWAP1 PUSH1 0x1 SWAP1 PUSH2 0x105D JUMP JUMPDEST SWAP1 POP DUP1 DUP3 EQ PUSH2 0xE65 JUMPI PUSH0 DUP7 PUSH0 ADD DUP3 DUP2 SLOAD DUP2 LT PUSH2 0xE24 JUMPI PUSH2 0xE24 PUSH2 0x1049 JUMP JUMPDEST SWAP1 PUSH0 MSTORE PUSH1 0x20 PUSH0 KECCAK256 ADD SLOAD SWAP1 POP DUP1 DUP8 PUSH0 ADD DUP5 DUP2 SLOAD DUP2 LT PUSH2 0xE44 JUMPI PUSH2 0xE44 PUSH2 0x1049 JUMP JUMPDEST PUSH0 SWAP2 DUP3 MSTORE PUSH1 0x20 DUP1 DUP4 KECCAK256 SWAP1 SWAP2 ADD SWAP3 SWAP1 SWAP3 SSTORE SWAP2 DUP3 MSTORE PUSH1 0x1 DUP9 ADD SWAP1 MSTORE PUSH1 0x40 SWAP1 KECCAK256 DUP4 SWAP1 SSTORE JUMPDEST DUP6 SLOAD DUP7 SWAP1 DUP1 PUSH2 0xE76 JUMPI PUSH2 0xE76 PUSH2 0x107C JUMP JUMPDEST PUSH1 0x1 SWAP1 SUB DUP2 DUP2 SWAP1 PUSH0 MSTORE PUSH1 0x20 PUSH0 KECCAK256 ADD PUSH0 SWAP1 SSTORE SWAP1 SSTORE DUP6 PUSH1 0x1 ADD PUSH0 DUP7 DUP2 MSTORE PUSH1 0x20 ADD SWAP1 DUP2 MSTORE PUSH1 0x20 ADD PUSH0 KECCAK256 PUSH0 SWAP1 SSTORE PUSH1 0x1 SWAP4 POP POP POP POP PUSH2 0x2EF JUMP JUMPDEST PUSH0 PUSH2 0xEB4 PUSH2 0xA87 JUMP JUMPDEST SLOAD PUSH1 0x1 PUSH1 0x40 SHL SWAP1 DIV PUSH1 0xFF AND SWAP2 SWAP1 POP JUMP JUMPDEST PUSH0 PUSH1 0x20 DUP3 DUP5 SUB SLT ISZERO PUSH2 0xED4 JUMPI PUSH0 PUSH0 REVERT JUMPDEST DUP2 CALLDATALOAD PUSH1 0x1 PUSH1 0x1 PUSH1 0xE0 SHL SUB NOT DUP2 AND DUP2 EQ PUSH2 0x58E JUMPI PUSH0 PUSH0 REVERT JUMPDEST PUSH0 PUSH1 0x20 DUP3 DUP5 SUB SLT ISZERO PUSH2 0xEFB JUMPI PUSH0 PUSH0 REVERT JUMPDEST POP CALLDATALOAD SWAP2 SWAP1 POP JUMP JUMPDEST PUSH1 0x1 PUSH1 0x1 PUSH1 0xA0 SHL SUB DUP2 AND DUP2 EQ PUSH2 0x9A0 JUMPI PUSH0 PUSH0 REVERT JUMPDEST PUSH0 PUSH0 PUSH1 0x40 DUP4 DUP6 SUB SLT ISZERO PUSH2 0xF27 JUMPI PUSH0 PUSH0 REVERT JUMPDEST DUP3 CALLDATALOAD SWAP2 POP PUSH1 0x20 DUP4 ADD CALLDATALOAD PUSH2 0xF39 DUP2 PUSH2 0xF02 JUMP JUMPDEST DUP1 SWAP2 POP POP SWAP3 POP SWAP3 SWAP1 POP JUMP JUMPDEST PUSH0 PUSH0 PUSH0 PUSH1 0x60 DUP5 DUP7 SUB SLT ISZERO PUSH2 0xF56 JUMPI PUSH0 PUSH0 REVERT JUMPDEST DUP4 CALLDATALOAD PUSH2 0xF61 DUP2 PUSH2 0xF02 JUMP JUMPDEST SWAP3 POP PUSH1 0x20 DUP5 ADD CALLDATALOAD PUSH2 0xF71 DUP2 PUSH2 0xF02 JUMP JUMPDEST SWAP3 SWAP6 SWAP3 SWAP5 POP POP POP PUSH1 0x40 SWAP2 SWAP1 SWAP2 ADD CALLDATALOAD SWAP1 JUMP JUMPDEST PUSH0 PUSH0 PUSH1 0x40 DUP4 DUP6 SUB SLT ISZERO PUSH2 0xF93 JUMPI PUSH0 PUSH0 REVERT JUMPDEST POP POP DUP1 CALLDATALOAD SWAP3 PUSH1 0x20 SWAP1 SWAP2 ADD CALLDATALOAD SWAP2 POP JUMP JUMPDEST PUSH0 PUSH1 0x20 DUP3 DUP5 SUB SLT ISZERO PUSH2 0xFB2 JUMPI PUSH0 PUSH0 REVERT JUMPDEST DUP2 CALLDATALOAD PUSH2 0x58E DUP2 PUSH2 0xF02 JUMP JUMPDEST PUSH1 0x20 DUP1 DUP3 MSTORE DUP3 MLOAD DUP3 DUP3 ADD DUP2 SWAP1 MSTORE PUSH0 SWAP2 DUP5 ADD SWAP1 PUSH1 0x40 DUP5 ADD SWAP1 DUP4 JUMPDEST DUP2 DUP2 LT ISZERO PUSH2 0xFFD JUMPI DUP4 MLOAD PUSH1 0x1 PUSH1 0x1 PUSH1 0xA0 SHL SUB AND DUP4 MSTORE PUSH1 0x20 SWAP4 DUP5 ADD SWAP4 SWAP1 SWAP3 ADD SWAP2 PUSH1 0x1 ADD PUSH2 0xFD6 JUMP JUMPDEST POP SWAP1 SWAP6 SWAP5 POP POP POP POP POP JUMP JUMPDEST PUSH0 PUSH0 PUSH1 0x40 DUP4 DUP6 SUB SLT ISZERO PUSH2 0x1019 JUMPI PUSH0 PUSH0 REVERT JUMPDEST DUP3 CALLDATALOAD PUSH2 0x1024 DUP2 PUSH2 0xF02 JUMP JUMPDEST SWAP5 PUSH1 0x20 SWAP4 SWAP1 SWAP4 ADD CALLDATALOAD SWAP4 POP POP POP JUMP JUMPDEST PUSH0 PUSH1 0x20 DUP3 DUP5 SUB SLT ISZERO PUSH2 0x1042 JUMPI PUSH0 PUSH0 REVERT JUMPDEST POP MLOAD SWAP2 SWAP1 POP JUMP JUMPDEST PUSH4 0x4E487B71 PUSH1 0xE0 SHL PUSH0 MSTORE PUSH1 0x32 PUSH1 0x4 MSTORE PUSH1 0x24 PUSH0 REVERT JUMPDEST DUP2 DUP2 SUB DUP2 DUP2 GT ISZERO PUSH2 0x2EF JUMPI PUSH4 0x4E487B71 PUSH1 0xE0 SHL PUSH0 MSTORE PUSH1 0x11 PUSH1 0x4 MSTORE PUSH1 0x24 PUSH0 REVERT JUMPDEST PUSH4 0x4E487B71 PUSH1 0xE0 SHL PUSH0 MSTORE PUSH1 0x31 PUSH1 0x4 MSTORE PUSH1 0x24 PUSH0 REVERT INVALID 0xC1 0xF6 INVALID 0x24 PUSH3 0x1CE81E 0xC5 DUP3 PUSH29 0xAF0253CADB74709B061630E6B55E8237170593200002DD7BC7DEC4DCEE 0xDD 0xA7 PUSH22 0xE58DD541E08A116C6C53815C0BD028192F7B62680006 0xAA SUB SWAP7 0x4D 0xB1 0xF7 0x25 PUSH20 0x57EF09714A5F0CA3633723DF419E97015E0C7A3E DUP4 0xED 0xB7 LOG2 PUSH5 0x6970667358 0x22 SLT KECCAK256 0xB7 BLOBHASH BLOCKHASH CREATE2 COINBASE SWAP3 PUSH6 0x2187C78B6EDD KECCAK256 0xCC 0xAD SHL 0x4B 0xDE EQ 0xCC 0xDA 0xDB PUSH13 0xDFFD251C17655AA664736F6C63 NUMBER STOP ADDMOD SAR STOP CALLER "
		},
		"gasEstimates": {
			"creation": {
				"codeDepositCost": "878000",
				"executionCost": "30538",
				"totalCost": "908538"
			},
			"external": {
				"DEFAULT_ADMIN_ROLE()": "216",
				"TREASURY()": "infinite",
				"emergencyWithdrawERC20(address,address,uint256)": "infinite",
				"emergencyWithdrawERC721(address,address,uint256)": "infinite",
				"emergencyWithdrawETH(address,uint256)": "infinite",
				"getBalance(address)": "infinite",
				"getRoleAdmin(bytes32)": "infinite",
				"getRoleMember(bytes32,uint256)": "infinite",
				"getRoleMemberCount(bytes32)": "infinite",
				"getRoleMembers(bytes32)": "infinite",
				"grantRole(bytes32,address)": "infinite",
				"hasRole(bytes32,address)": "infinite",
				"initialize(address)": "infinite",
				"payReward(address,address,uint256)": "infinite",
				"renounceRole(bytes32,address)": "infinite",
				"revokeRole(bytes32,address)": "infinite",
				"setStakingContract(address)": "infinite",
				"stakingContract()": "2423",
				"stakingContractSet()": "2359",
				"supportsInterface(bytes4)": "infinite"
			}
		},
		"methodIdentifiers": {
			"DEFAULT_ADMIN_ROLE()": "a217fddf",
			"TREASURY()": "2d2c5565",
			"emergencyWithdrawERC20(address,address,uint256)": "55b8fb81",
			"emergencyWithdrawERC721(address,address,uint256)": "b72b85a1",
			"emergencyWithdrawETH(address,uint256)": "d79e8567",
			"getBalance(address)": "f8b2cb4f",
			"getRoleAdmin(bytes32)": "248a9ca3",
			"getRoleMember(bytes32,uint256)": "9010d07c",
			"getRoleMemberCount(bytes32)": "ca15c873",
			"getRoleMembers(bytes32)": "a3246ad3",
			"grantRole(bytes32,address)": "2f2ff15d",
			"hasRole(bytes32,address)": "91d14854",
			"initialize(address)": "c4d66de8",
			"payReward(address,address,uint256)": "cd8515cf",
			"renounceRole(bytes32,address)": "36568abe",
			"revokeRole(bytes32,address)": "d547741f",
			"setStakingContract(address)": "9dd373b9",
			"stakingContract()": "ee99205c",
			"stakingContractSet()": "88671eb0",
			"supportsInterface(bytes4)": "01ffc9a7"
		}
	},
	"abi": [
		{
			"inputs": [],
			"stateMutability": "nonpayable",
			"type": "constructor"
		},
		{
			"inputs": [],
			"name": "AccessControlBadConfirmation",
			"type": "error"
		},
		{
			"inputs": [
				{
					"internalType": "address",
					"name": "account",
					"type": "address"
				},
				{
					"internalType": "bytes32",
					"name": "neededRole",
					"type": "bytes32"
				}
			],
			"name": "AccessControlUnauthorizedAccount",
			"type": "error"
		},
		{
			"inputs": [],
			"name": "InvalidInitialization",
			"type": "error"
		},
		{
			"inputs": [],
			"name": "NotInitializing",
			"type": "error"
		},
		{
			"inputs": [
				{
					"internalType": "address",
					"name": "token",
					"type": "address"
				}
			],
			"name": "SafeERC20FailedOperation",
			"type": "error"
		},
		{
			"anonymous": false,
			"inputs": [
				{
					"indexed": true,
					"internalType": "address",
					"name": "caller",
					"type": "address"
				},
				{
					"indexed": true,
					"internalType": "address",
					"name": "token",
					"type": "address"
				},
				{
					"indexed": true,
					"internalType": "address",
					"name": "recipient",
					"type": "address"
				},
				{
					"indexed": false,
					"internalType": "uint256",
					"name": "amount",
					"type": "uint256"
				}
			],
			"name": "EmergencyWithdrawERC20",
			"type": "event"
		},
		{
			"anonymous": false,
			"inputs": [
				{
					"indexed": true,
					"internalType": "address",
					"name": "caller",
					"type": "address"
				},
				{
					"indexed": true,
					"internalType": "address",
					"name": "token",
					"type": "address"
				},
				{
					"indexed": true,
					"internalType": "address",
					"name": "recipient",
					"type": "address"
				},
				{
					"indexed": false,
					"internalType": "uint256",
					"name": "tokenId",
					"type": "uint256"
				}
			],
			"name": "EmergencyWithdrawERC721",
			"type": "event"
		},
		{
			"anonymous": false,
			"inputs": [
				{
					"indexed": true,
					"internalType": "address",
					"name": "caller",
					"type": "address"
				},
				{
					"indexed": true,
					"internalType": "address",
					"name": "recipient",
					"type": "address"
				},
				{
					"indexed": false,
					"internalType": "uint256",
					"name": "amount",
					"type": "uint256"
				}
			],
			"name": "EmergencyWithdrawETH",
			"type": "event"
		},
		{
			"anonymous": false,
			"inputs": [
				{
					"indexed": false,
					"internalType": "uint64",
					"name": "version",
					"type": "uint64"
				}
			],
			"name": "Initialized",
			"type": "event"
		},
		{
			"anonymous": false,
			"inputs": [
				{
					"indexed": true,
					"internalType": "address",
					"name": "user",
					"type": "address"
				},
				{
					"indexed": true,
					"internalType": "address",
					"name": "token",
					"type": "address"
				},
				{
					"indexed": false,
					"internalType": "uint256",
					"name": "amount",
					"type": "uint256"
				}
			],
			"name": "RewardPaid",
			"type": "event"
		},
		{
			"anonymous": false,
			"inputs": [
				{
					"indexed": true,
					"internalType": "bytes32",
					"name": "role",
					"type": "bytes32"
				},
				{
					"indexed": true,
					"internalType": "bytes32",
					"name": "previousAdminRole",
					"type": "bytes32"
				},
				{
					"indexed": true,
					"internalType": "bytes32",
					"name": "newAdminRole",
					"type": "bytes32"
				}
			],
			"name": "RoleAdminChanged",
			"type": "event"
		},
		{
			"anonymous": false,
			"inputs": [
				{
					"indexed": true,
					"internalType": "bytes32",
					"name": "role",
					"type": "bytes32"
				},
				{
					"indexed": true,
					"internalType": "address",
					"name": "account",
					"type": "address"
				},
				{
					"indexed": true,
					"internalType": "address",
					"name": "sender",
					"type": "address"
				}
			],
			"name": "RoleGranted",
			"type": "event"
		},
		{
			"anonymous": false,
			"inputs": [
				{
					"indexed": true,
					"internalType": "bytes32",
					"name": "role",
					"type": "bytes32"
				},
				{
					"indexed": true,
					"internalType": "address",
					"name": "account",
					"type": "address"
				},
				{
					"indexed": true,
					"internalType": "address",
					"name": "sender",
					"type": "address"
				}
			],
			"name": "RoleRevoked",
			"type": "event"
		},
		{
			"anonymous": false,
			"inputs": [
				{
					"indexed": true,
					"internalType": "address",
					"name": "stakingContract",
					"type": "address"
				}
			],
			"name": "StakingContractSet",
			"type": "event"
		},
		{
			"inputs": [],
			"name": "DEFAULT_ADMIN_ROLE",
			"outputs": [
				{
					"internalType": "bytes32",
					"name": "",
					"type": "bytes32"
				}
			],
			"stateMutability": "view",
			"type": "function"
		},
		{
			"inputs": [],
			"name": "TREASURY",
			"outputs": [
				{
					"internalType": "bytes32",
					"name": "",
					"type": "bytes32"
				}
			],
			"stateMutability": "view",
			"type": "function"
		},
		{
			"inputs": [
				{
					"internalType": "address",
					"name": "tokenAddress",
					"type": "address"
				},
				{
					"internalType": "address",
					"name": "recipient",
					"type": "address"
				},
				{
					"internalType": "uint256",
					"name": "amount",
					"type": "uint256"
				}
			],
			"name": "emergencyWithdrawERC20",
			"outputs": [],
			"stateMutability": "nonpayable",
			"type": "function"
		},
		{
			"inputs": [
				{
					"internalType": "address",
					"name": "tokenAddress",
					"type": "address"
				},
				{
					"internalType": "address",
					"name": "recipient",
					"type": "address"
				},
				{
					"internalType": "uint256",
					"name": "tokenId",
					"type": "uint256"
				}
			],
			"name": "emergencyWithdrawERC721",
			"outputs": [],
			"stateMutability": "nonpayable",
			"type": "function"
		},
		{
			"inputs": [
				{
					"internalType": "address payable",
					"name": "recipient",
					"type": "address"
				},
				{
					"internalType": "uint256",
					"name": "amount",
					"type": "uint256"
				}
			],
			"name": "emergencyWithdrawETH",
			"outputs": [],
			"stateMutability": "nonpayable",
			"type": "function"
		},
		{
			"inputs": [
				{
					"internalType": "address",
					"name": "token",
					"type": "address"
				}
			],
			"name": "getBalance",
			"outputs": [
				{
					"internalType": "uint256",
					"name": "",
					"type": "uint256"
				}
			],
			"stateMutability": "view",
			"type": "function"
		},
		{
			"inputs": [
				{
					"internalType": "bytes32",
					"name": "role",
					"type": "bytes32"
				}
			],
			"name": "getRoleAdmin",
			"outputs": [
				{
					"internalType": "bytes32",
					"name": "",
					"type": "bytes32"
				}
			],
			"stateMutability": "view",
			"type": "function"
		},
		{
			"inputs": [
				{
					"internalType": "bytes32",
					"name": "role",
					"type": "bytes32"
				},
				{
					"internalType": "uint256",
					"name": "index",
					"type": "uint256"
				}
			],
			"name": "getRoleMember",
			"outputs": [
				{
					"internalType": "address",
					"name": "",
					"type": "address"
				}
			],
			"stateMutability": "view",
			"type": "function"
		},
		{
			"inputs": [
				{
					"internalType": "bytes32",
					"name": "role",
					"type": "bytes32"
				}
			],
			"name": "getRoleMemberCount",
			"outputs": [
				{
					"internalType": "uint256",
					"name": "",
					"type": "uint256"
				}
			],
			"stateMutability": "view",
			"type": "function"
		},
		{
			"inputs": [
				{
					"internalType": "bytes32",
					"name": "role",
					"type": "bytes32"
				}
			],
			"name": "getRoleMembers",
			"outputs": [
				{
					"internalType": "address[]",
					"name": "",
					"type": "address[]"
				}
			],
			"stateMutability": "view",
			"type": "function"
		},
		{
			"inputs": [
				{
					"internalType": "bytes32",
					"name": "role",
					"type": "bytes32"
				},
				{
					"internalType": "address",
					"name": "account",
					"type": "address"
				}
			],
			"name": "grantRole",
			"outputs": [],
			"stateMutability": "nonpayable",
			"type": "function"
		},
		{
			"inputs": [
				{
					"internalType": "bytes32",
					"name": "role",
					"type": "bytes32"
				},
				{
					"internalType": "address",
					"name": "account",
					"type": "address"
				}
			],
			"name": "hasRole",
			"outputs": [
				{
					"internalType": "bool",
					"name": "",
					"type": "bool"
				}
			],
			"stateMutability": "view",
			"type": "function"
		},
		{
			"inputs": [
				{
					"internalType": "address",
					"name": "_admin",
					"type": "address"
				}
			],
			"name": "initialize",
			"outputs": [],
			"stateMutability": "nonpayable",
			"type": "function"
		},
		{
			"inputs": [
				{
					"internalType": "address",
					"name": "user",
					"type": "address"
				},
				{
					"internalType": "address",
					"name": "token",
					"type": "address"
				},
				{
					"internalType": "uint256",
					"name": "amount",
					"type": "uint256"
				}
			],
			"name": "payReward",
			"outputs": [],
			"stateMutability": "nonpayable",
			"type": "function"
		},
		{
			"inputs": [
				{
					"internalType": "bytes32",
					"name": "role",
					"type": "bytes32"
				},
				{
					"internalType": "address",
					"name": "callerConfirmation",
					"type": "address"
				}
			],
			"name": "renounceRole",
			"outputs": [],
			"stateMutability": "nonpayable",
			"type": "function"
		},
		{
			"inputs": [
				{
					"internalType": "bytes32",
					"name": "role",
					"type": "bytes32"
				},
				{
					"internalType": "address",
					"name": "account",
					"type": "address"
				}
			],
			"name": "revokeRole",
			"outputs": [],
			"stateMutability": "nonpayable",
			"type": "function"
		},
		{
			"inputs": [
				{
					"internalType": "address",
					"name": "_stakingContract",
					"type": "address"
				}
			],
			"name": "setStakingContract",
			"outputs": [],
			"stateMutability": "nonpayable",
			"type": "function"
		},
		{
			"inputs": [],
			"name": "stakingContract",
			"outputs": [
				{
					"internalType": "address",
					"name": "",
					"type": "address"
				}
			],
			"stateMutability": "view",
			"type": "function"
		},
		{
			"inputs": [],
			"name": "stakingContractSet",
			"outputs": [
				{
					"internalType": "bool",
					"name": "",
					"type": "bool"
				}
			],
			"stateMutability": "view",
			"type": "function"
		},
		{
			"inputs": [
				{
					"internalType": "bytes4",
					"name": "interfaceId",
					"type": "bytes4"
				}
			],
			"name": "supportsInterface",
			"outputs": [
				{
					"internalType": "bool",
					"name": "",
					"type": "bool"
				}
			],
			"stateMutability": "view",
			"type": "function"
		}
	]
}