{
	"data": {
		"bytecode": {
			"linkReferences": {},
			"object": "60c06040525f600955348015610013575f5ffd5b506040516135e43803806135e483398101604081905261003291610285565b6040518060400160405280601081526020016f526577617264735374616b656441564960801b81525060405180604001604052806005815260200164737441564960d81b8152508160039081610088919061035d565b506004610095828261035d565b50506001600655506001600160a01b03808316608052811660a0526100be426301e13380610417565b600c55626ebe00600e5542600a556100d65f84610135565b506101017fa49807205ce4d355092ef5a8a18f56e8913cf4a201fbe287825b095693c2177584610135565b5061012c7f65d7a28e3265b37a6474929f336521b332c1681b933f6cb9f3376673440d862a84610135565b50505050610436565b5f80610141848461016b565b90508015610162575f8481526008602052604090206101609084610216565b505b90505b92915050565b5f8281526007602090815260408083206001600160a01b038516845290915281205460ff1661020f575f8381526007602090815260408083206001600160a01b03861684529091529020805460ff191660011790556101c73390565b6001600160a01b0316826001600160a01b0316847f2f8788117e7eff1d82e926ec794901d17c78024a50270940304540a733656f0d60405160405180910390a4506001610165565b505f610165565b5f610162836001600160a01b0384165f81815260018301602052604081205461020f57508154600181810184555f848152602080822090930184905584548482528286019093526040902091909155610165565b80516001600160a01b0381168114610280575f5ffd5b919050565b5f5f5f60608486031215610297575f5ffd5b6102a08461026a565b92506102ae6020850161026a565b91506102bc6040850161026a565b90509250925092565b634e487b7160e01b5f52604160045260245ffd5b600181811c908216806102ed57607f821691505b60208210810361030b57634e487b7160e01b5f52602260045260245ffd5b50919050565b601f82111561035857805f5260205f20601f840160051c810160208510156103365750805b601f840160051c820191505b81811015610355575f8155600101610342565b50505b505050565b81516001600160401b03811115610376576103766102c5565b61038a8161038484546102d9565b84610311565b6020601f8211600181146103bc575f83156103a55750848201515b5f19600385901b1c1916600184901b178455610355565b5f84815260208120601f198516915b828110156103eb57878501518255602094850194600190920191016103cb565b508482101561040857868401515f19600387901b60f8161c191681555b50505050600190811b01905550565b8082018082111561016557634e487b7160e01b5f52601160045260245ffd5b60805160a05161314e6104965f395f818161063b015281816110560152818161177601528181611945015261227201525f818161084501528181610d370152818161138a015281816113c001528181611a3b0152611aae015261314e5ff3fe608060405234801561000f575f5ffd5b50600436106103d4575f3560e01c806380e9071b11610200578063b8c6a9291161011f578063d79e8567116100b4578063e4bd248e11610084578063e4bd248e146108ee578063e63ab1e9146108f6578063e9fad8ee1461091d578063f9f92be414610925578063fe575a8714610947575f5ffd5b8063d79e85671461087a578063dc21fb761461088d578063dd62ed3e146108ad578063df136d65146108e5575f5ffd5b8063cd3daf9d116100ef578063cd3daf9d14610830578063d0fab3ca14610838578063d1af0c7d14610840578063d547741f14610867575f5ffd5b8063b8c6a929146107d1578063c408689314610801578063c8f33c9114610814578063ca15c8731461081d575f5ffd5b80639e447fc611610195578063a9059cbb11610165578063a9059cbb1461076d578063acc3a93914610780578063b02e64a91461079f578063b72b85a1146107be575f5ffd5b80639e447fc614610720578063a217fddf14610733578063a3246ad31461073a578063a694fc3a1461075a575f5ffd5b806391d14854116101d057806391d14854146106f357806395d89b411461070657806399d32fc41461070e5780639d86b85014610717575f5ffd5b806380e9071b146106b15780638456cb59146106b95780638b876347146106c15780639010d07c146106e0575f5ffd5b80632e569eff116102f75780635b34bc411161028c57806370a082311161025c57806370a082311461060e57806372f702f31461063657806375b238fc146106755780637b0a47ee146106895780637bb1ca1914610692575f5ffd5b80635b34bc41146105ca5780635bdeab61146105dd5780635c975abb146105f057806362441bf6146105fb575f5ffd5b806336568abe116102c757806336568abe146105945780633d18b912146105a75780633f4ba83a146105af57806355b8fb81146105b7575f5ffd5b80632e569eff1461053f5780632e75ab501461055f5780632f2ff15d14610572578063313ce56714610585575f5ffd5b806318160ddd1161036d5780632377b2a81161033d5780632377b2a8146104e457806323b872dd146104f7578063248a9ca31461050a5780632e1a7d4d1461052c575f5ffd5b806318160ddd146104995780631935ffec146104a15780631b7447f1146104c95780631c1f78eb146104dc575f5ffd5b806306fdde03116103a857806306fdde031461043f5780630700037d14610454578063095ea7b314610473578063129de5bf14610486575f5ffd5b80628cc262146103d8578063013e9dd4146103fe57806301ffc9a71461040757806304f6c0ef1461042a575b5f5ffd5b6103eb6103e6366004612d43565b610972565b6040519081526020015b60405180910390f35b6103eb600c5481565b61041a610415366004612d5e565b6109ed565b60405190151581526020016103f5565b61043d610438366004612d85565b6109f7565b005b610447610aab565b6040516103f59190612d9c565b6103eb610462366004612d43565b60106020525f908152604090205481565b61041a610481366004612dd1565b610b3b565b6103eb610494366004612d43565b610b52565b6002546103eb565b6103eb6104af366004612d43565b6001600160a01b03165f9081526014602052604090205490565b61043d6104d7366004612dfb565b610c11565b6103eb610cc0565b61043d6104f2366004612d85565b610cd7565b61041a610505366004612e1b565b610d8f565b6103eb610518366004612d85565b5f9081526007602052604090206001015490565b61043d61053a366004612d85565b610db2565b61055261054d366004612dd1565b6110c3565b6040516103f59190612e59565b61043d61056d366004612d85565b61118f565b61043d610580366004612e7c565b611224565b604051601281526020016103f5565b61043d6105a2366004612e7c565b61124e565b61043d611286565b61043d61142d565b61043d6105c5366004612e1b565b61145f565b61043d6105d8366004612d43565b611549565b61043d6105eb366004612d85565b6115a9565b60055460ff1661041a565b61043d610609366004612d43565b6117df565b6103eb61061c366004612d43565b6001600160a01b03165f9081526020819052604090205490565b61065d7f000000000000000000000000000000000000000000000000000000000000000081565b6040516001600160a01b0390911681526020016103f5565b6103eb5f5160206130f95f395f51905f5281565b6103eb60095481565b6103eb6106a0366004612d43565b60136020525f908152604090205481565b61043d6119ea565b61043d611ad5565b6103eb6106cf366004612d43565b600f6020525f908152604090205481565b61065d6106ee366004612dfb565b611b07565b61041a610701366004612e7c565b611b25565b610447611b4f565b6103eb600d5481565b6103eb600e5481565b61043d61072e366004612d85565b611b5e565b6103eb5f81565b61074d610748366004612d85565b611c05565b6040516103f59190612eaa565b61043d610768366004612d85565b611c1e565b61041a61077b366004612dd1565b611ccb565b6103eb61078e366004612d43565b60126020525f908152604090205481565b6103eb6107ad366004612d43565b60156020525f908152604090205481565b61043d6107cc366004612e1b565b611cd8565b6107e46107df366004612dd1565b611e0f565b6040805193845260208401929092521515908201526060016103f5565b6103eb61080f366004612d43565b611e50565b6103eb600a5481565b6103eb61082b366004612d85565b611f05565b6103eb611f1b565b61043d611f59565b61065d7f000000000000000000000000000000000000000000000000000000000000000081565b61043d610875366004612e7c565b611fac565b61043d610888366004612dd1565b611fd0565b6108a061089b366004612d43565b61206a565b6040516103f59190612ef5565b6103eb6108bb366004612f4d565b6001600160a01b039182165f90815260016020908152604080832093909416825291909152205490565b6103eb600b5481565b6103eb6120fc565b6103eb7f65d7a28e3265b37a6474929f336521b332c1681b933f6cb9f3376673440d862a81565b61043d61210e565b61041a610933366004612d43565b60116020525f908152604090205460ff1681565b61041a610955366004612d43565b6001600160a01b03165f9081526011602052604090205460ff1690565b6001600160a01b0381165f90815260106020908152604080832054600f909252822054670de0b6b3a7640000906109a7611f1b565b6109b19190612f8d565b6001600160a01b0385165f908152602081905260409020546109d39190612fa0565b6109dd9190612fb7565b6109e79190612fd6565b92915050565b5f6109e78261216b565b5f5160206130f95f395f51905f52610a0e8161218f565b5f8211610a6e5760405162461bcd60e51b8152602060048201526024808201527f4c6f636b206475726174696f6e206d75737420626520677265617465722074686044820152630616e20360e41b60648201526084015b60405180910390fd5b600e8290556040518281527f0be752d502ead9f7f68ae425a37976abee08f7d72a78e613d13a0c1ac153915f906020015b60405180910390a15050565b606060038054610aba90612fe9565b80601f0160208091040260200160405190810160405280929190818152602001828054610ae690612fe9565b8015610b315780601f10610b0857610100808354040283529160200191610b31565b820191905f5260205f20905b815481529060010190602001808311610b1457829003601f168201915b5050505050905090565b5f33610b48818585612199565b5060019392505050565b6001600160a01b0381165f9081526014602052604081208190815b8154811015610c0857818181548110610b8857610b88613021565b5f91825260209091206002600390920201015460ff16158015610bcc5750818181548110610bb857610bb8613021565b905f5260205f209060030201600101544210155b15610c0057818181548110610be357610be3613021565b905f5260205f2090600302015f015483610bfd9190612fd6565b92505b600101610b6d565b50909392505050565b610c196121a6565b33610c22611f1b565b600b5542600a556001600160a01b03811615610c6c57610c4181610972565b6001600160a01b0382165f90815260106020908152604080832093909355600b54600f909152919020555b610c746121d0565b335f9081526011602052604090205460ff1615610ca6573360405163e34017e160e01b8152600401610a659190613035565b610cb13384846121f4565b50610cbc6001600655565b5050565b5f60095462127500610cd29190612fa0565b905090565b5f610ce0611f1b565b600b5542600a556001600160a01b03811615610d2a57610cff81610972565b6001600160a01b0382165f90815260106020908152604080832093909355600b54600f909152919020555b610d5f6001600160a01b037f0000000000000000000000000000000000000000000000000000000000000000163330856123cc565b6040518281527fde88a922e0d3b88b24e9623efeb464919c6bf9f66857a65e2bfcf2ce87a9433d90602001610a9f565b5f33610d9c858285612433565b610da78585856124a9565b506001949350505050565b610dba6121a6565b33610dc3611f1b565b600b5542600a556001600160a01b03811615610e0d57610de281610972565b6001600160a01b0382165f90815260106020908152604080832093909355600b54600f909152919020555b610e156121d0565b335f9081526011602052604090205460ff1615610e47573360405163e34017e160e01b8152600401610a659190613035565b5f8211610e8a5760405162461bcd60e51b8152602060048201526011602482015270043616e6e6f74207769746864726177203607c1b6044820152606401610a65565b5f610e9433610b52565b905080831115610ec15760405163edf89e3d60e01b81526004810184905260248101829052604401610a65565b335f90815260146020526040812084915b815481108015610ee157505f83115b1561101a57818181548110610ef857610ef8613021565b5f91825260209091206002600390920201015460ff16158015610f3c5750818181548110610f2857610f28613021565b905f5260205f209060030201600101544210155b156110085782828281548110610f5457610f54613021565b905f5260205f2090600302015f015411610fd057818181548110610f7a57610f7a613021565b905f5260205f2090600302015f015483610f949190612f8d565b92506001828281548110610faa57610faa613021565b5f9182526020909120600390910201600201805460ff1916911515919091179055611008565b82828281548110610fe357610fe3613021565b905f5260205f2090600302015f015f828254610fff9190612f8d565b909155505f9350505b806110128161309a565b915050610ed2565b50335f9081526012602052604081208054879290611039908490612f8d565b9091555061104990503386612506565b61107d6001600160a01b037f000000000000000000000000000000000000000000000000000000000000000016338761253a565b60405185815233907f7084f5476618d8e60b11ef0d7d3f06914655adb8793e28ff7f018d4c76d505d59060200160405180910390a2505050506110c06001600655565b50565b6110e660405180606001604052805f81526020015f81526020015f151581525090565b6001600160a01b0383165f908152601460205260409020548210611120576040516333200a8b60e11b815260048101839052602401610a65565b6001600160a01b0383165f90815260146020526040902080548390811061114957611149613021565b5f9182526020918290206040805160608101825260039093029091018054835260018101549383019390935260029092015460ff16151591810191909152905092915050565b5f5160206130f95f395f51905f526111a68161218f565b60648211156111ef5760405162461bcd60e51b81526020600482015260156024820152744665652063616e6e6f74206578636565642031302560581b6044820152606401610a65565b600d8290556040518281527fbd1ed2c0bf13d96f257f1cc47b9d825e8e016b72e4581b06b517d295f04c7e2f90602001610a9f565b5f8281526007602052604090206001015461123e8161218f565b611248838361256b565b50505050565b6001600160a01b03811633146112775760405163334bd91960e11b815260040160405180910390fd5b611281828261259e565b505050565b61128e6121a6565b33611297611f1b565b600b5542600a556001600160a01b038116156112e1576112b681610972565b6001600160a01b0382165f90815260106020908152604080832093909355600b54600f909152919020555b6112e96121d0565b335f9081526011602052604090205460ff161561131b573360405163e34017e160e01b8152600401610a659190613035565b335f90815260106020526040902054801561141f575f6103e8600d54836113429190612fa0565b61134c9190612fb7565b90505f6113598284612f8d565b335f90815260106020526040812055905081156113b3575f61137b8180611b07565b90506113b16001600160a01b037f000000000000000000000000000000000000000000000000000000000000000016828561253a565b505b6113e76001600160a01b037f000000000000000000000000000000000000000000000000000000000000000016338361253a565b60405181815233907fe2403640ba68fed3a2f88b7557551d1993f84b99bb10ff833f0cf8db0c5e04869060200160405180910390a250505b505061142b6001600655565b565b7f65d7a28e3265b37a6474929f336521b332c1681b933f6cb9f3376673440d862a6114578161218f565b6110c06125c9565b5f5160206130f95f395f51905f526114768161218f565b6040516370a0823160e01b8152306004820152849083906001600160a01b038316906370a0823190602401602060405180830381865afa1580156114bc573d5f5f3e3d5ffd5b505050506040513d601f19601f820116820180604052508101906114e091906130b2565b101561152e5760405162461bcd60e51b815260206004820152601a60248201527f496e73756666696369656e7420746f6b656e2062616c616e63650000000000006044820152606401610a65565b6115426001600160a01b038216858561253a565b5050505050565b5f5160206130f95f395f51905f526115608161218f565b6001600160a01b0382165f81815260116020526040808220805460ff19169055517f1747ca720b1a174a464b6513ace29b1d3190b5f632b9f34147017c81425bfde89190a25050565b6115b16121a6565b336115ba611f1b565b600b5542600a556001600160a01b03811615611604576115d981610972565b6001600160a01b0382165f90815260106020908152604080832093909355600b54600f909152919020555b61160c6121d0565b335f9081526011602052604090205460ff161561163e573360405163e34017e160e01b8152600401610a659190613035565b335f90815260146020526040902054821061166f576040516333200a8b60e11b815260048101839052602401610a65565b335f90815260146020526040812080548490811061168f5761168f613021565b5f9182526020909120600390910201600281015490915060ff16156116f65760405162461bcd60e51b815260206004820152601a60248201527f506f736974696f6e20616c72656164792077697468647261776e0000000000006044820152606401610a65565b806001015442101561172a5760018101546040516310f2604160e01b81524260048201526024810191909152604401610a65565b805460028201805460ff19166001179055335f9081526012602052604081208054839290611759908490612f8d565b9091555061176990503382612506565b61179d6001600160a01b037f000000000000000000000000000000000000000000000000000000000000000016338361253a565b60405181815233907f7084f5476618d8e60b11ef0d7d3f06914655adb8793e28ff7f018d4c76d505d59060200160405180910390a25050506110c06001600655565b5f5160206130f95f395f51905f526117f68161218f565b816117ff611f1b565b600b5542600a556001600160a01b038116156118495761181e81610972565b6001600160a01b0382165f90815260106020908152604080832093909355600b54600f909152919020555b6001600160a01b0383165f908152601160209081526040808320805460ff19166001179055601290915290205480156119b1576001600160a01b0384165f908152601460205260408120905b8154811015611908578181815481106118b0576118b0613021565b5f91825260209091206002600390920201015460ff166119005760018282815481106118de576118de613021565b5f9182526020909120600390910201600201805460ff19169115159190911790555b600101611895565b506001600160a01b0385165f90815260126020908152604080832083905560109091528120556119388583612506565b61196c6001600160a01b037f000000000000000000000000000000000000000000000000000000000000000016868461253a565b846001600160a01b03167ff7d69068585ead05d609f5965c9147570964ea979546ee5b072f31b7c31a6ee5836040516119a791815260200190565b60405180910390a2505b6040516001600160a01b038516907f44d5fe68b00f68950fb9c1ff0a61ef7f747b1a36359a7e3a7f3324db4b878967905f90a250505050565b5f5160206130f95f395f51905f52611a018161218f565b42600c555f6009819055611a158180611b07565b6040516370a0823160e01b8152306004820152909150610cbc9082906001600160a01b037f000000000000000000000000000000000000000000000000000000000000000016906370a0823190602401602060405180830381865afa158015611a80573d5f5f3e3d5ffd5b505050506040513d601f19601f82011682018060405250810190611aa491906130b2565b6001600160a01b037f000000000000000000000000000000000000000000000000000000000000000016919061253a565b7f65d7a28e3265b37a6474929f336521b332c1681b933f6cb9f3376673440d862a611aff8161218f565b6110c061261b565b5f828152600860205260408120611b1e9083612658565b9392505050565b5f9182526007602090815260408084206001600160a01b0393909316845291905290205460ff1690565b606060048054610aba90612fe9565b5f5160206130f95f395f51905f52611b758161218f565b5f611b7e611f1b565b600b5542600a556001600160a01b03811615611bc857611b9d81610972565b6001600160a01b0382165f90815260106020908152604080832093909355600b54600f909152919020555b60098390556040518381527f8cbfafc8e0d9c5c81401c4b9c6e7d201198adc7eb8f8f1556c195ecd4c0a0e7b9060200160405180910390a1505050565b5f8181526008602052604090206060906109e790612663565b611c266121a6565b33611c2f611f1b565b600b5542600a556001600160a01b03811615611c7957611c4e81610972565b6001600160a01b0382165f90815260106020908152604080832093909355600b54600f909152919020555b611c816121d0565b335f9081526011602052604090205460ff1615611cb3573360405163e34017e160e01b8152600401610a659190613035565b611cc03383600e546121f4565b506110c06001600655565b5f33610b488185856124a9565b5f5160206130f95f395f51905f52611cef8161218f565b6040516331a9108f60e11b815260048101839052849030906001600160a01b03831690636352211e90602401602060405180830381865afa158015611d36573d5f5f3e3d5ffd5b505050506040513d601f19601f82011682018060405250810190611d5a91906130c9565b6001600160a01b031614611da55760405162461bcd60e51b81526020600482015260126024820152712737ba1037bbb732b91037b3103a37b5b2b760711b6044820152606401610a65565b6040516323b872dd60e01b81523060048201526001600160a01b038581166024830152604482018590528216906323b872dd906064015f604051808303815f87803b158015611df2575f5ffd5b505af1158015611e04573d5f5f3e3d5ffd5b505050505050505050565b6014602052815f5260405f208181548110611e28575f80fd5b5f91825260209091206003909102018054600182015460029092015490935090915060ff1683565b6001600160a01b0381165f9081526014602052604081208190815b8154811015610c0857818181548110611e8657611e86613021565b5f91825260209091206002600390920201015460ff16158015611ec95750818181548110611eb657611eb6613021565b905f5260205f2090600302016001015442105b15611efd57818181548110611ee057611ee0613021565b905f5260205f2090600302015f015483611efa9190612fd6565b92505b600101611e6b565b5f8181526008602052604081206109e79061266f565b5f611f2560025490565b5f03611f325750600b5490565b600954600a54611f429042612f8d565b611f4c9190612fa0565b600b54610cd29190612fd6565b5f5160206130f95f395f51905f52611f708161218f565b42600c8190556040519081527fb1f66464dbcdff719b019d202c2f522fe22df6b88ad534b702917f06890713849060200160405180910390a150565b5f82815260076020526040902060010154611fc68161218f565b611248838361259e565b5f5160206130f95f395f51905f52611fe78161218f565b814710156120375760405162461bcd60e51b815260206004820152601860248201527f496e73756666696369656e74204554482062616c616e636500000000000000006044820152606401610a65565b6040516001600160a01b0384169083156108fc029084905f818181858888f19350505050158015611248573d5f5f3e3d5ffd5b6001600160a01b0381165f908152601460209081526040808320805482518185028101850190935280835260609492939192909184015b828210156120f1575f8481526020908190206040805160608101825260038602909201805483526001808201548486015260029091015460ff1615159183019190915290835290920191016120a1565b505050509050919050565b5f60095462015180610cd29190612fa0565b6121166121d0565b335f9081526011602052604090205460ff1615612148573360405163e34017e160e01b8152600401610a659190613035565b5f61215233610b52565b905080156121635761216381610db2565b6110c0611286565b5f6001600160e01b03198216635a05180f60e01b14806109e757506109e782612678565b6110c081336126ac565b61128183838360016126e5565b6002600654036121c957604051633ee5aeb560e01b815260040160405180910390fd5b6002600655565b60055460ff161561142b5760405163d93c066560e01b815260040160405180910390fd5b5f82116122345760405162461bcd60e51b815260206004820152600e60248201526d043616e6e6f74207374616b6520360941b6044820152606401610a65565b600e5481101561226557600e5460405163102313b160e31b8152610a65918391600401918252602082015260400190565b61229a6001600160a01b037f0000000000000000000000000000000000000000000000000000000000000000168430856123cc565b6122a483836127b7565b6001600160a01b0383165f90815260146020908152604091829020825160608101909352848352919081016122d98442612fd6565b81525f6020918201819052835460018082018655948252828220845160039092020190815583830151948101949094556040928301516002909401805460ff1916941515949094179093556001600160a01b03861683526012905281208054849290612346908490612fd6565b90915550506001600160a01b0383165f90815260156020526040812080549161236e8361309a565b90915550506001600160a01b0383165f8181526013602090815260409182902042905581518581529081018490527f1449c6dd7851abc30abf37f57715f492010519147cc2652fbc38202c18a6ee90910160405180910390a2505050565b6040516001600160a01b0384811660248301528381166044830152606482018390526112489186918216906323b872dd906084015b604051602081830303815290604052915060e01b6020820180516001600160e01b0383818316178352505050506127eb565b6001600160a01b038381165f908152600160209081526040808320938616835292905220545f19811015611248578181101561249b57604051637dc7a0d960e11b81526001600160a01b03841660048201526024810182905260448101839052606401610a65565b61124884848484035f6126e5565b6001600160a01b0383166124d257604051634b637e8f60e11b81525f6004820152602401610a65565b6001600160a01b0382166124fb5760405163ec442f0560e01b81525f6004820152602401610a65565b611281838383612857565b6001600160a01b03821661252f57604051634b637e8f60e11b81525f6004820152602401610a65565b610cbc825f83612857565b6040516001600160a01b0383811660248301526044820183905261128191859182169063a9059cbb90606401612401565b5f5f6125778484612908565b90508015611b1e575f8481526008602052604090206125969084612999565b509392505050565b5f5f6125aa84846129ad565b90508015611b1e575f8481526008602052604090206125969084612a18565b6125d1612a2c565b6005805460ff191690557f5db9ee0a495bf2e6ff9c91a7834c1ba4fdd244a5e8aa4e537bd38aeae4b073aa335b6040516001600160a01b03909116815260200160405180910390a1565b6126236121d0565b6005805460ff191660011790557f62e78cea01bee320cd4e420270b5ea74000d11b0c9f74754ebdbfc544b05a2586125fe3390565b5f611b1e8383612a4f565b60605f611b1e83612a75565b5f6109e7825490565b5f6001600160e01b03198216637965db0b60e01b14806109e757506301ffc9a760e01b6001600160e01b03198316146109e7565b6126b68282611b25565b610cbc5760405163e2517d3f60e01b81526001600160a01b038216600482015260248101839052604401610a65565b6001600160a01b03841661270e5760405163e602df0560e01b81525f6004820152602401610a65565b6001600160a01b03831661273757604051634a1406b160e11b81525f6004820152602401610a65565b6001600160a01b038085165f908152600160209081526040808320938716835292905220829055801561124857826001600160a01b0316846001600160a01b03167f8c5be1e5ebec7d5bd14f71427d1e84f3dd0314c0f7b2291e5b200ac8c7c3b925846040516127a991815260200190565b60405180910390a350505050565b6001600160a01b0382166127e05760405163ec442f0560e01b81525f6004820152602401610a65565b610cbc5f8383612857565b5f5f60205f8451602086015f885af18061280a576040513d5f823e3d81fd5b50505f513d9150811561282157806001141561282e565b6001600160a01b0384163b155b1561124857604051635274afe760e01b81526001600160a01b0385166004820152602401610a65565b82612860611f1b565b600b5542600a556001600160a01b038116156128aa5761287f81610972565b6001600160a01b0382165f90815260106020908152604080832093909355600b54600f909152919020555b826128b3611f1b565b600b5542600a556001600160a01b038116156128fd576128d281610972565b6001600160a01b0382165f90815260106020908152604080832093909355600b54600f909152919020555b611542858585612ace565b5f6129138383611b25565b612992575f8381526007602090815260408083206001600160a01b03861684529091529020805460ff1916600117905561294a3390565b6001600160a01b0316826001600160a01b0316847f2f8788117e7eff1d82e926ec794901d17c78024a50270940304540a733656f0d60405160405180910390a45060016109e7565b505f6109e7565b5f611b1e836001600160a01b038416612ae1565b5f6129b88383611b25565b15612992575f8381526007602090815260408083206001600160a01b0386168085529252808320805460ff1916905551339286917ff6391f5c32d9c69d2a47ea670b442974b53935d1edc7fd64eb21e047a839171b9190a45060016109e7565b5f611b1e836001600160a01b038416612b26565b60055460ff1661142b57604051638dfc202b60e01b815260040160405180910390fd5b5f825f018281548110612a6457612a64613021565b905f5260205f200154905092915050565b6060815f01805480602002602001604051908101604052809291908181526020018280548015612ac257602002820191905f5260205f20905b815481526020019060010190808311612aae575b50505050509050919050565b612ad66121d0565b611281838383612c09565b5f81815260018301602052604081205461299257508154600181810184555f8481526020808220909301849055845484825282860190935260409020919091556109e7565b5f8181526001830160205260408120548015612c00575f612b48600183612f8d565b85549091505f90612b5b90600190612f8d565b9050808214612bba575f865f018281548110612b7957612b79613021565b905f5260205f200154905080875f018481548110612b9957612b99613021565b5f918252602080832090910192909255918252600188019052604090208390555b8554869080612bcb57612bcb6130e4565b600190038181905f5260205f20015f90559055856001015f8681526020019081526020015f205f9055600193505050506109e7565b5f9150506109e7565b6001600160a01b038316612c33578060025f828254612c289190612fd6565b90915550612ca39050565b6001600160a01b0383165f9081526020819052604090205481811015612c855760405163391434e360e21b81526001600160a01b03851660048201526024810182905260448101839052606401610a65565b6001600160a01b0384165f9081526020819052604090209082900390555b6001600160a01b038216612cbf57600280548290039055612cdd565b6001600160a01b0382165f9081526020819052604090208054820190555b816001600160a01b0316836001600160a01b03167fddf252ad1be2c89b69c2b068fc378daa952ba7f163c4a11628f55a4df523b3ef83604051612d2291815260200190565b60405180910390a3505050565b6001600160a01b03811681146110c0575f5ffd5b5f60208284031215612d53575f5ffd5b8135611b1e81612d2f565b5f60208284031215612d6e575f5ffd5b81356001600160e01b031981168114611b1e575f5ffd5b5f60208284031215612d95575f5ffd5b5035919050565b602081525f82518060208401528060208501604085015e5f604082850101526040601f19601f83011684010191505092915050565b5f5f60408385031215612de2575f5ffd5b8235612ded81612d2f565b946020939093013593505050565b5f5f60408385031215612e0c575f5ffd5b50508035926020909101359150565b5f5f5f60608486031215612e2d575f5ffd5b8335612e3881612d2f565b92506020840135612e4881612d2f565b929592945050506040919091013590565b8151815260208083015190820152604080830151151590820152606081016109e7565b5f5f60408385031215612e8d575f5ffd5b823591506020830135612e9f81612d2f565b809150509250929050565b602080825282518282018190525f918401906040840190835b81811015612eea5783516001600160a01b0316835260209384019390920191600101612ec3565b509095945050505050565b602080825282518282018190525f918401906040840190835b81811015612eea57612f3783855180518252602080820151908301526040908101511515910152565b6020939093019260609290920191600101612f0e565b5f5f60408385031215612f5e575f5ffd5b8235612f6981612d2f565b91506020830135612e9f81612d2f565b634e487b7160e01b5f52601160045260245ffd5b818103818111156109e7576109e7612f79565b80820281158282048414176109e7576109e7612f79565b5f82612fd157634e487b7160e01b5f52601260045260245ffd5b500490565b808201808211156109e7576109e7612f79565b600181811c90821680612ffd57607f821691505b60208210810361301b57634e487b7160e01b5f52602260045260245ffd5b50919050565b634e487b7160e01b5f52603260045260245ffd5b6001600160a01b039190911681526040602082018190526033908201527f596f7520617265206e6f7420616c6c6f77656420746f20696e746572616374206060820152723bb4ba34103a3434b99031b7b73a3930b1ba1760691b608082015260a00190565b5f600182016130ab576130ab612f79565b5060010190565b5f602082840312156130c2575f5ffd5b5051919050565b5f602082840312156130d9575f5ffd5b8151611b1e81612d2f565b634e487b7160e01b5f52603160045260245ffdfea49807205ce4d355092ef5a8a18f56e8913cf4a201fbe287825b095693c21775a2646970667358221220c4fd6ed9fc91218b681624cb0ff4fbb31f0bae0048f83b395571958db8d4935764736f6c634300081d0033",
			"opcodes": "PUSH1 0xC0 PUSH1 0x40 MSTORE PUSH0 PUSH1 0x9 SSTORE CALLVALUE DUP1 ISZERO PUSH2 0x13 JUMPI PUSH0 PUSH0 REVERT JUMPDEST POP PUSH1 0x40 MLOAD PUSH2 0x35E4 CODESIZE SUB DUP1 PUSH2 0x35E4 DUP4 CODECOPY DUP2 ADD PUSH1 0x40 DUP2 SWAP1 MSTORE PUSH2 0x32 SWAP2 PUSH2 0x285 JUMP JUMPDEST PUSH1 0x40 MLOAD DUP1 PUSH1 0x40 ADD PUSH1 0x40 MSTORE DUP1 PUSH1 0x10 DUP2 MSTORE PUSH1 0x20 ADD PUSH16 0x526577617264735374616B6564415649 PUSH1 0x80 SHL DUP2 MSTORE POP PUSH1 0x40 MLOAD DUP1 PUSH1 0x40 ADD PUSH1 0x40 MSTORE DUP1 PUSH1 0x5 DUP2 MSTORE PUSH1 0x20 ADD PUSH5 0x7374415649 PUSH1 0xD8 SHL DUP2 MSTORE POP DUP2 PUSH1 0x3 SWAP1 DUP2 PUSH2 0x88 SWAP2 SWAP1 PUSH2 0x35D JUMP JUMPDEST POP PUSH1 0x4 PUSH2 0x95 DUP3 DUP3 PUSH2 0x35D JUMP JUMPDEST POP POP PUSH1 0x1 PUSH1 0x6 SSTORE POP PUSH1 0x1 PUSH1 0x1 PUSH1 0xA0 SHL SUB DUP1 DUP4 AND PUSH1 0x80 MSTORE DUP2 AND PUSH1 0xA0 MSTORE PUSH2 0xBE TIMESTAMP PUSH4 0x1E13380 PUSH2 0x417 JUMP JUMPDEST PUSH1 0xC SSTORE PUSH3 0x6EBE00 PUSH1 0xE SSTORE TIMESTAMP PUSH1 0xA SSTORE PUSH2 0xD6 PUSH0 DUP5 PUSH2 0x135 JUMP JUMPDEST POP PUSH2 0x101 PUSH32 0xA49807205CE4D355092EF5A8A18F56E8913CF4A201FBE287825B095693C21775 DUP5 PUSH2 0x135 JUMP JUMPDEST POP PUSH2 0x12C PUSH32 0x65D7A28E3265B37A6474929F336521B332C1681B933F6CB9F3376673440D862A DUP5 PUSH2 0x135 JUMP JUMPDEST POP POP POP POP PUSH2 0x436 JUMP JUMPDEST PUSH0 DUP1 PUSH2 0x141 DUP5 DUP5 PUSH2 0x16B JUMP JUMPDEST SWAP1 POP DUP1 ISZERO PUSH2 0x162 JUMPI PUSH0 DUP5 DUP2 MSTORE PUSH1 0x8 PUSH1 0x20 MSTORE PUSH1 0x40 SWAP1 KECCAK256 PUSH2 0x160 SWAP1 DUP5 PUSH2 0x216 JUMP JUMPDEST POP JUMPDEST SWAP1 POP JUMPDEST SWAP3 SWAP2 POP POP JUMP JUMPDEST PUSH0 DUP3 DUP2 MSTORE PUSH1 0x7 PUSH1 0x20 SWAP1 DUP2 MSTORE PUSH1 0x40 DUP1 DUP4 KECCAK256 PUSH1 0x1 PUSH1 0x1 PUSH1 0xA0 SHL SUB DUP6 AND DUP5 MSTORE SWAP1 SWAP2 MSTORE DUP2 KECCAK256 SLOAD PUSH1 0xFF AND PUSH2 0x20F JUMPI PUSH0 DUP4 DUP2 MSTORE PUSH1 0x7 PUSH1 0x20 SWAP1 DUP2 MSTORE PUSH1 0x40 DUP1 DUP4 KECCAK256 PUSH1 0x1 PUSH1 0x1 PUSH1 0xA0 SHL SUB DUP7 AND DUP5 MSTORE SWAP1 SWAP2 MSTORE SWAP1 KECCAK256 DUP1 SLOAD PUSH1 0xFF NOT AND PUSH1 0x1 OR SWAP1 SSTORE PUSH2 0x1C7 CALLER SWAP1 JUMP JUMPDEST PUSH1 0x1 PUSH1 0x1 PUSH1 0xA0 SHL SUB AND DUP3 PUSH1 0x1 PUSH1 0x1 PUSH1 0xA0 SHL SUB AND DUP5 PUSH32 0x2F8788117E7EFF1D82E926EC794901D17C78024A50270940304540A733656F0D PUSH1 0x40 MLOAD PUSH1 0x40 MLOAD DUP1 SWAP2 SUB SWAP1 LOG4 POP PUSH1 0x1 PUSH2 0x165 JUMP JUMPDEST POP PUSH0 PUSH2 0x165 JUMP JUMPDEST PUSH0 PUSH2 0x162 DUP4 PUSH1 0x1 PUSH1 0x1 PUSH1 0xA0 SHL SUB DUP5 AND PUSH0 DUP2 DUP2 MSTORE PUSH1 0x1 DUP4 ADD PUSH1 0x20 MSTORE PUSH1 0x40 DUP2 KECCAK256 SLOAD PUSH2 0x20F JUMPI POP DUP2 SLOAD PUSH1 0x1 DUP2 DUP2 ADD DUP5 SSTORE PUSH0 DUP5 DUP2 MSTORE PUSH1 0x20 DUP1 DUP3 KECCAK256 SWAP1 SWAP4 ADD DUP5 SWAP1 SSTORE DUP5 SLOAD DUP5 DUP3 MSTORE DUP3 DUP7 ADD SWAP1 SWAP4 MSTORE PUSH1 0x40 SWAP1 KECCAK256 SWAP2 SWAP1 SWAP2 SSTORE PUSH2 0x165 JUMP JUMPDEST DUP1 MLOAD PUSH1 0x1 PUSH1 0x1 PUSH1 0xA0 SHL SUB DUP2 AND DUP2 EQ PUSH2 0x280 JUMPI PUSH0 PUSH0 REVERT JUMPDEST SWAP2 SWAP1 POP JUMP JUMPDEST PUSH0 PUSH0 PUSH0 PUSH1 0x60 DUP5 DUP7 SUB SLT ISZERO PUSH2 0x297 JUMPI PUSH0 PUSH0 REVERT JUMPDEST PUSH2 0x2A0 DUP5 PUSH2 0x26A JUMP JUMPDEST SWAP3 POP PUSH2 0x2AE PUSH1 0x20 DUP6 ADD PUSH2 0x26A JUMP JUMPDEST SWAP2 POP PUSH2 0x2BC PUSH1 0x40 DUP6 ADD PUSH2 0x26A JUMP JUMPDEST SWAP1 POP SWAP3 POP SWAP3 POP SWAP3 JUMP JUMPDEST PUSH4 0x4E487B71 PUSH1 0xE0 SHL PUSH0 MSTORE PUSH1 0x41 PUSH1 0x4 MSTORE PUSH1 0x24 PUSH0 REVERT JUMPDEST PUSH1 0x1 DUP2 DUP2 SHR SWAP1 DUP3 AND DUP1 PUSH2 0x2ED JUMPI PUSH1 0x7F DUP3 AND SWAP2 POP JUMPDEST PUSH1 0x20 DUP3 LT DUP2 SUB PUSH2 0x30B JUMPI PUSH4 0x4E487B71 PUSH1 0xE0 SHL PUSH0 MSTORE PUSH1 0x22 PUSH1 0x4 MSTORE PUSH1 0x24 PUSH0 REVERT JUMPDEST POP SWAP2 SWAP1 POP JUMP JUMPDEST PUSH1 0x1F DUP3 GT ISZERO PUSH2 0x358 JUMPI DUP1 PUSH0 MSTORE PUSH1 0x20 PUSH0 KECCAK256 PUSH1 0x1F DUP5 ADD PUSH1 0x5 SHR DUP2 ADD PUSH1 0x20 DUP6 LT ISZERO PUSH2 0x336 JUMPI POP DUP1 JUMPDEST PUSH1 0x1F DUP5 ADD PUSH1 0x5 SHR DUP3 ADD SWAP2 POP JUMPDEST DUP2 DUP2 LT ISZERO PUSH2 0x355 JUMPI PUSH0 DUP2 SSTORE PUSH1 0x1 ADD PUSH2 0x342 JUMP JUMPDEST POP POP JUMPDEST POP POP POP JUMP JUMPDEST DUP2 MLOAD PUSH1 0x1 PUSH1 0x1 PUSH1 0x40 SHL SUB DUP2 GT ISZERO PUSH2 0x376 JUMPI PUSH2 0x376 PUSH2 0x2C5 JUMP JUMPDEST PUSH2 0x38A DUP2 PUSH2 0x384 DUP5 SLOAD PUSH2 0x2D9 JUMP JUMPDEST DUP5 PUSH2 0x311 JUMP JUMPDEST PUSH1 0x20 PUSH1 0x1F DUP3 GT PUSH1 0x1 DUP2 EQ PUSH2 0x3BC JUMPI PUSH0 DUP4 ISZERO PUSH2 0x3A5 JUMPI POP DUP5 DUP3 ADD MLOAD JUMPDEST PUSH0 NOT PUSH1 0x3 DUP6 SWAP1 SHL SHR NOT AND PUSH1 0x1 DUP5 SWAP1 SHL OR DUP5 SSTORE PUSH2 0x355 JUMP JUMPDEST PUSH0 DUP5 DUP2 MSTORE PUSH1 0x20 DUP2 KECCAK256 PUSH1 0x1F NOT DUP6 AND SWAP2 JUMPDEST DUP3 DUP2 LT ISZERO PUSH2 0x3EB JUMPI DUP8 DUP6 ADD MLOAD DUP3 SSTORE PUSH1 0x20 SWAP5 DUP6 ADD SWAP5 PUSH1 0x1 SWAP1 SWAP3 ADD SWAP2 ADD PUSH2 0x3CB JUMP JUMPDEST POP DUP5 DUP3 LT ISZERO PUSH2 0x408 JUMPI DUP7 DUP5 ADD MLOAD PUSH0 NOT PUSH1 0x3 DUP8 SWAP1 SHL PUSH1 0xF8 AND SHR NOT AND DUP2 SSTORE JUMPDEST POP POP POP POP PUSH1 0x1 SWAP1 DUP2 SHL ADD SWAP1 SSTORE POP JUMP JUMPDEST DUP1 DUP3 ADD DUP1 DUP3 GT ISZERO PUSH2 0x165 JUMPI PUSH4 0x4E487B71 PUSH1 0xE0 SHL PUSH0 MSTORE PUSH1 0x11 PUSH1 0x4 MSTORE PUSH1 0x24 PUSH0 REVERT JUMPDEST PUSH1 0x80 MLOAD PUSH1 0xA0 MLOAD PUSH2 0x314E PUSH2 0x496 PUSH0 CODECOPY PUSH0 DUP2 DUP2 PUSH2 0x63B ADD MSTORE DUP2 DUP2 PUSH2 0x1056 ADD MSTORE DUP2 DUP2 PUSH2 0x1776 ADD MSTORE DUP2 DUP2 PUSH2 0x1945 ADD MSTORE PUSH2 0x2272 ADD MSTORE PUSH0 DUP2 DUP2 PUSH2 0x845 ADD MSTORE DUP2 DUP2 PUSH2 0xD37 ADD MSTORE DUP2 DUP2 PUSH2 0x138A ADD MSTORE DUP2 DUP2 PUSH2 0x13C0 ADD MSTORE DUP2 DUP2 PUSH2 0x1A3B ADD MSTORE PUSH2 0x1AAE ADD MSTORE PUSH2 0x314E PUSH0 RETURN INVALID PUSH1 0x80 PUSH1 0x40 MSTORE CALLVALUE DUP1 ISZERO PUSH2 0xF JUMPI PUSH0 PUSH0 REVERT JUMPDEST POP PUSH1 0x4 CALLDATASIZE LT PUSH2 0x3D4 JUMPI PUSH0 CALLDATALOAD PUSH1 0xE0 SHR DUP1 PUSH4 0x80E9071B GT PUSH2 0x200 JUMPI DUP1 PUSH4 0xB8C6A929 GT PUSH2 0x11F JUMPI DUP1 PUSH4 0xD79E8567 GT PUSH2 0xB4 JUMPI DUP1 PUSH4 0xE4BD248E GT PUSH2 0x84 JUMPI DUP1 PUSH4 0xE4BD248E EQ PUSH2 0x8EE JUMPI DUP1 PUSH4 0xE63AB1E9 EQ PUSH2 0x8F6 JUMPI DUP1 PUSH4 0xE9FAD8EE EQ PUSH2 0x91D JUMPI DUP1 PUSH4 0xF9F92BE4 EQ PUSH2 0x925 JUMPI DUP1 PUSH4 0xFE575A87 EQ PUSH2 0x947 JUMPI PUSH0 PUSH0 REVERT JUMPDEST DUP1 PUSH4 0xD79E8567 EQ PUSH2 0x87A JUMPI DUP1 PUSH4 0xDC21FB76 EQ PUSH2 0x88D JUMPI DUP1 PUSH4 0xDD62ED3E EQ PUSH2 0x8AD JUMPI DUP1 PUSH4 0xDF136D65 EQ PUSH2 0x8E5 JUMPI PUSH0 PUSH0 REVERT JUMPDEST DUP1 PUSH4 0xCD3DAF9D GT PUSH2 0xEF JUMPI DUP1 PUSH4 0xCD3DAF9D EQ PUSH2 0x830 JUMPI DUP1 PUSH4 0xD0FAB3CA EQ PUSH2 0x838 JUMPI DUP1 PUSH4 0xD1AF0C7D EQ PUSH2 0x840 JUMPI DUP1 PUSH4 0xD547741F EQ PUSH2 0x867 JUMPI PUSH0 PUSH0 REVERT JUMPDEST DUP1 PUSH4 0xB8C6A929 EQ PUSH2 0x7D1 JUMPI DUP1 PUSH4 0xC4086893 EQ PUSH2 0x801 JUMPI DUP1 PUSH4 0xC8F33C91 EQ PUSH2 0x814 JUMPI DUP1 PUSH4 0xCA15C873 EQ PUSH2 0x81D JUMPI PUSH0 PUSH0 REVERT JUMPDEST DUP1 PUSH4 0x9E447FC6 GT PUSH2 0x195 JUMPI DUP1 PUSH4 0xA9059CBB GT PUSH2 0x165 JUMPI DUP1 PUSH4 0xA9059CBB EQ PUSH2 0x76D JUMPI DUP1 PUSH4 0xACC3A939 EQ PUSH2 0x780 JUMPI DUP1 PUSH4 0xB02E64A9 EQ PUSH2 0x79F JUMPI DUP1 PUSH4 0xB72B85A1 EQ PUSH2 0x7BE JUMPI PUSH0 PUSH0 REVERT JUMPDEST DUP1 PUSH4 0x9E447FC6 EQ PUSH2 0x720 JUMPI DUP1 PUSH4 0xA217FDDF EQ PUSH2 0x733 JUMPI DUP1 PUSH4 0xA3246AD3 EQ PUSH2 0x73A JUMPI DUP1 PUSH4 0xA694FC3A EQ PUSH2 0x75A JUMPI PUSH0 PUSH0 REVERT JUMPDEST DUP1 PUSH4 0x91D14854 GT PUSH2 0x1D0 JUMPI DUP1 PUSH4 0x91D14854 EQ PUSH2 0x6F3 JUMPI DUP1 PUSH4 0x95D89B41 EQ PUSH2 0x706 JUMPI DUP1 PUSH4 0x99D32FC4 EQ PUSH2 0x70E JUMPI DUP1 PUSH4 0x9D86B850 EQ PUSH2 0x717 JUMPI PUSH0 PUSH0 REVERT JUMPDEST DUP1 PUSH4 0x80E9071B EQ PUSH2 0x6B1 JUMPI DUP1 PUSH4 0x8456CB59 EQ PUSH2 0x6B9 JUMPI DUP1 PUSH4 0x8B876347 EQ PUSH2 0x6C1 JUMPI DUP1 PUSH4 0x9010D07C EQ PUSH2 0x6E0 JUMPI PUSH0 PUSH0 REVERT JUMPDEST DUP1 PUSH4 0x2E569EFF GT PUSH2 0x2F7 JUMPI DUP1 PUSH4 0x5B34BC41 GT PUSH2 0x28C JUMPI DUP1 PUSH4 0x70A08231 GT PUSH2 0x25C JUMPI DUP1 PUSH4 0x70A08231 EQ PUSH2 0x60E JUMPI DUP1 PUSH4 0x72F702F3 EQ PUSH2 0x636 JUMPI DUP1 PUSH4 0x75B238FC EQ PUSH2 0x675 JUMPI DUP1 PUSH4 0x7B0A47EE EQ PUSH2 0x689 JUMPI DUP1 PUSH4 0x7BB1CA19 EQ PUSH2 0x692 JUMPI PUSH0 PUSH0 REVERT JUMPDEST DUP1 PUSH4 0x5B34BC41 EQ PUSH2 0x5CA JUMPI DUP1 PUSH4 0x5BDEAB61 EQ PUSH2 0x5DD JUMPI DUP1 PUSH4 0x5C975ABB EQ PUSH2 0x5F0 JUMPI DUP1 PUSH4 0x62441BF6 EQ PUSH2 0x5FB JUMPI PUSH0 PUSH0 REVERT JUMPDEST DUP1 PUSH4 0x36568ABE GT PUSH2 0x2C7 JUMPI DUP1 PUSH4 0x36568ABE EQ PUSH2 0x594 JUMPI DUP1 PUSH4 0x3D18B912 EQ PUSH2 0x5A7 JUMPI DUP1 PUSH4 0x3F4BA83A EQ PUSH2 0x5AF JUMPI DUP1 PUSH4 0x55B8FB81 EQ PUSH2 0x5B7 JUMPI PUSH0 PUSH0 REVERT JUMPDEST DUP1 PUSH4 0x2E569EFF EQ PUSH2 0x53F JUMPI DUP1 PUSH4 0x2E75AB50 EQ PUSH2 0x55F JUMPI DUP1 PUSH4 0x2F2FF15D EQ PUSH2 0x572 JUMPI DUP1 PUSH4 0x313CE567 EQ PUSH2 0x585 JUMPI PUSH0 PUSH0 REVERT JUMPDEST DUP1 PUSH4 0x18160DDD GT PUSH2 0x36D JUMPI DUP1 PUSH4 0x2377B2A8 GT PUSH2 0x33D JUMPI DUP1 PUSH4 0x2377B2A8 EQ PUSH2 0x4E4 JUMPI DUP1 PUSH4 0x23B872DD EQ PUSH2 0x4F7 JUMPI DUP1 PUSH4 0x248A9CA3 EQ PUSH2 0x50A JUMPI DUP1 PUSH4 0x2E1A7D4D EQ PUSH2 0x52C JUMPI PUSH0 PUSH0 REVERT JUMPDEST DUP1 PUSH4 0x18160DDD EQ PUSH2 0x499 JUMPI DUP1 PUSH4 0x1935FFEC EQ PUSH2 0x4A1 JUMPI DUP1 PUSH4 0x1B7447F1 EQ PUSH2 0x4C9 JUMPI DUP1 PUSH4 0x1C1F78EB EQ PUSH2 0x4DC JUMPI PUSH0 PUSH0 REVERT JUMPDEST DUP1 PUSH4 0x6FDDE03 GT PUSH2 0x3A8 JUMPI DUP1 PUSH4 0x6FDDE03 EQ PUSH2 0x43F JUMPI DUP1 PUSH4 0x700037D EQ PUSH2 0x454 JUMPI DUP1 PUSH4 0x95EA7B3 EQ PUSH2 0x473 JUMPI DUP1 PUSH4 0x129DE5BF EQ PUSH2 0x486 JUMPI PUSH0 PUSH0 REVERT JUMPDEST DUP1 PUSH3 0x8CC262 EQ PUSH2 0x3D8 JUMPI DUP1 PUSH4 0x13E9DD4 EQ PUSH2 0x3FE JUMPI DUP1 PUSH4 0x1FFC9A7 EQ PUSH2 0x407 JUMPI DUP1 PUSH4 0x4F6C0EF EQ PUSH2 0x42A JUMPI JUMPDEST PUSH0 PUSH0 REVERT JUMPDEST PUSH2 0x3EB PUSH2 0x3E6 CALLDATASIZE PUSH1 0x4 PUSH2 0x2D43 JUMP JUMPDEST PUSH2 0x972 JUMP JUMPDEST PUSH1 0x40 MLOAD SWAP1 DUP2 MSTORE PUSH1 0x20 ADD JUMPDEST PUSH1 0x40 MLOAD DUP1 SWAP2 SUB SWAP1 RETURN JUMPDEST PUSH2 0x3EB PUSH1 0xC SLOAD DUP2 JUMP JUMPDEST PUSH2 0x41A PUSH2 0x415 CALLDATASIZE PUSH1 0x4 PUSH2 0x2D5E JUMP JUMPDEST PUSH2 0x9ED JUMP JUMPDEST PUSH1 0x40 MLOAD SWAP1 ISZERO ISZERO DUP2 MSTORE PUSH1 0x20 ADD PUSH2 0x3F5 JUMP JUMPDEST PUSH2 0x43D PUSH2 0x438 CALLDATASIZE PUSH1 0x4 PUSH2 0x2D85 JUMP JUMPDEST PUSH2 0x9F7 JUMP JUMPDEST STOP JUMPDEST PUSH2 0x447 PUSH2 0xAAB JUMP JUMPDEST PUSH1 0x40 MLOAD PUSH2 0x3F5 SWAP2 SWAP1 PUSH2 0x2D9C JUMP JUMPDEST PUSH2 0x3EB PUSH2 0x462 CALLDATASIZE PUSH1 0x4 PUSH2 0x2D43 JUMP JUMPDEST PUSH1 0x10 PUSH1 0x20 MSTORE PUSH0 SWAP1 DUP2 MSTORE PUSH1 0x40 SWAP1 KECCAK256 SLOAD DUP2 JUMP JUMPDEST PUSH2 0x41A PUSH2 0x481 CALLDATASIZE PUSH1 0x4 PUSH2 0x2DD1 JUMP JUMPDEST PUSH2 0xB3B JUMP JUMPDEST PUSH2 0x3EB PUSH2 0x494 CALLDATASIZE PUSH1 0x4 PUSH2 0x2D43 JUMP JUMPDEST PUSH2 0xB52 JUMP JUMPDEST PUSH1 0x2 SLOAD PUSH2 0x3EB JUMP JUMPDEST PUSH2 0x3EB PUSH2 0x4AF CALLDATASIZE PUSH1 0x4 PUSH2 0x2D43 JUMP JUMPDEST PUSH1 0x1 PUSH1 0x1 PUSH1 0xA0 SHL SUB AND PUSH0 SWAP1 DUP2 MSTORE PUSH1 0x14 PUSH1 0x20 MSTORE PUSH1 0x40 SWAP1 KECCAK256 SLOAD SWAP1 JUMP JUMPDEST PUSH2 0x43D PUSH2 0x4D7 CALLDATASIZE PUSH1 0x4 PUSH2 0x2DFB JUMP JUMPDEST PUSH2 0xC11 JUMP JUMPDEST PUSH2 0x3EB PUSH2 0xCC0 JUMP JUMPDEST PUSH2 0x43D PUSH2 0x4F2 CALLDATASIZE PUSH1 0x4 PUSH2 0x2D85 JUMP JUMPDEST PUSH2 0xCD7 JUMP JUMPDEST PUSH2 0x41A PUSH2 0x505 CALLDATASIZE PUSH1 0x4 PUSH2 0x2E1B JUMP JUMPDEST PUSH2 0xD8F JUMP JUMPDEST PUSH2 0x3EB PUSH2 0x518 CALLDATASIZE PUSH1 0x4 PUSH2 0x2D85 JUMP JUMPDEST PUSH0 SWAP1 DUP2 MSTORE PUSH1 0x7 PUSH1 0x20 MSTORE PUSH1 0x40 SWAP1 KECCAK256 PUSH1 0x1 ADD SLOAD SWAP1 JUMP JUMPDEST PUSH2 0x43D PUSH2 0x53A CALLDATASIZE PUSH1 0x4 PUSH2 0x2D85 JUMP JUMPDEST PUSH2 0xDB2 JUMP JUMPDEST PUSH2 0x552 PUSH2 0x54D CALLDATASIZE PUSH1 0x4 PUSH2 0x2DD1 JUMP JUMPDEST PUSH2 0x10C3 JUMP JUMPDEST PUSH1 0x40 MLOAD PUSH2 0x3F5 SWAP2 SWAP1 PUSH2 0x2E59 JUMP JUMPDEST PUSH2 0x43D PUSH2 0x56D CALLDATASIZE PUSH1 0x4 PUSH2 0x2D85 JUMP JUMPDEST PUSH2 0x118F JUMP JUMPDEST PUSH2 0x43D PUSH2 0x580 CALLDATASIZE PUSH1 0x4 PUSH2 0x2E7C JUMP JUMPDEST PUSH2 0x1224 JUMP JUMPDEST PUSH1 0x40 MLOAD PUSH1 0x12 DUP2 MSTORE PUSH1 0x20 ADD PUSH2 0x3F5 JUMP JUMPDEST PUSH2 0x43D PUSH2 0x5A2 CALLDATASIZE PUSH1 0x4 PUSH2 0x2E7C JUMP JUMPDEST PUSH2 0x124E JUMP JUMPDEST PUSH2 0x43D PUSH2 0x1286 JUMP JUMPDEST PUSH2 0x43D PUSH2 0x142D JUMP JUMPDEST PUSH2 0x43D PUSH2 0x5C5 CALLDATASIZE PUSH1 0x4 PUSH2 0x2E1B JUMP JUMPDEST PUSH2 0x145F JUMP JUMPDEST PUSH2 0x43D PUSH2 0x5D8 CALLDATASIZE PUSH1 0x4 PUSH2 0x2D43 JUMP JUMPDEST PUSH2 0x1549 JUMP JUMPDEST PUSH2 0x43D PUSH2 0x5EB CALLDATASIZE PUSH1 0x4 PUSH2 0x2D85 JUMP JUMPDEST PUSH2 0x15A9 JUMP JUMPDEST PUSH1 0x5 SLOAD PUSH1 0xFF AND PUSH2 0x41A JUMP JUMPDEST PUSH2 0x43D PUSH2 0x609 CALLDATASIZE PUSH1 0x4 PUSH2 0x2D43 JUMP JUMPDEST PUSH2 0x17DF JUMP JUMPDEST PUSH2 0x3EB PUSH2 0x61C CALLDATASIZE PUSH1 0x4 PUSH2 0x2D43 JUMP JUMPDEST PUSH1 0x1 PUSH1 0x1 PUSH1 0xA0 SHL SUB AND PUSH0 SWAP1 DUP2 MSTORE PUSH1 0x20 DUP2 SWAP1 MSTORE PUSH1 0x40 SWAP1 KECCAK256 SLOAD SWAP1 JUMP JUMPDEST PUSH2 0x65D PUSH32 0x0 DUP2 JUMP JUMPDEST PUSH1 0x40 MLOAD PUSH1 0x1 PUSH1 0x1 PUSH1 0xA0 SHL SUB SWAP1 SWAP2 AND DUP2 MSTORE PUSH1 0x20 ADD PUSH2 0x3F5 JUMP JUMPDEST PUSH2 0x3EB PUSH0 MLOAD PUSH1 0x20 PUSH2 0x30F9 PUSH0 CODECOPY PUSH0 MLOAD SWAP1 PUSH0 MSTORE DUP2 JUMP JUMPDEST PUSH2 0x3EB PUSH1 0x9 SLOAD DUP2 JUMP JUMPDEST PUSH2 0x3EB PUSH2 0x6A0 CALLDATASIZE PUSH1 0x4 PUSH2 0x2D43 JUMP JUMPDEST PUSH1 0x13 PUSH1 0x20 MSTORE PUSH0 SWAP1 DUP2 MSTORE PUSH1 0x40 SWAP1 KECCAK256 SLOAD DUP2 JUMP JUMPDEST PUSH2 0x43D PUSH2 0x19EA JUMP JUMPDEST PUSH2 0x43D PUSH2 0x1AD5 JUMP JUMPDEST PUSH2 0x3EB PUSH2 0x6CF CALLDATASIZE PUSH1 0x4 PUSH2 0x2D43 JUMP JUMPDEST PUSH1 0xF PUSH1 0x20 MSTORE PUSH0 SWAP1 DUP2 MSTORE PUSH1 0x40 SWAP1 KECCAK256 SLOAD DUP2 JUMP JUMPDEST PUSH2 0x65D PUSH2 0x6EE CALLDATASIZE PUSH1 0x4 PUSH2 0x2DFB JUMP JUMPDEST PUSH2 0x1B07 JUMP JUMPDEST PUSH2 0x41A PUSH2 0x701 CALLDATASIZE PUSH1 0x4 PUSH2 0x2E7C JUMP JUMPDEST PUSH2 0x1B25 JUMP JUMPDEST PUSH2 0x447 PUSH2 0x1B4F JUMP JUMPDEST PUSH2 0x3EB PUSH1 0xD SLOAD DUP2 JUMP JUMPDEST PUSH2 0x3EB PUSH1 0xE SLOAD DUP2 JUMP JUMPDEST PUSH2 0x43D PUSH2 0x72E CALLDATASIZE PUSH1 0x4 PUSH2 0x2D85 JUMP JUMPDEST PUSH2 0x1B5E JUMP JUMPDEST PUSH2 0x3EB PUSH0 DUP2 JUMP JUMPDEST PUSH2 0x74D PUSH2 0x748 CALLDATASIZE PUSH1 0x4 PUSH2 0x2D85 JUMP JUMPDEST PUSH2 0x1C05 JUMP JUMPDEST PUSH1 0x40 MLOAD PUSH2 0x3F5 SWAP2 SWAP1 PUSH2 0x2EAA JUMP JUMPDEST PUSH2 0x43D PUSH2 0x768 CALLDATASIZE PUSH1 0x4 PUSH2 0x2D85 JUMP JUMPDEST PUSH2 0x1C1E JUMP JUMPDEST PUSH2 0x41A PUSH2 0x77B CALLDATASIZE PUSH1 0x4 PUSH2 0x2DD1 JUMP JUMPDEST PUSH2 0x1CCB JUMP JUMPDEST PUSH2 0x3EB PUSH2 0x78E CALLDATASIZE PUSH1 0x4 PUSH2 0x2D43 JUMP JUMPDEST PUSH1 0x12 PUSH1 0x20 MSTORE PUSH0 SWAP1 DUP2 MSTORE PUSH1 0x40 SWAP1 KECCAK256 SLOAD DUP2 JUMP JUMPDEST PUSH2 0x3EB PUSH2 0x7AD CALLDATASIZE PUSH1 0x4 PUSH2 0x2D43 JUMP JUMPDEST PUSH1 0x15 PUSH1 0x20 MSTORE PUSH0 SWAP1 DUP2 MSTORE PUSH1 0x40 SWAP1 KECCAK256 SLOAD DUP2 JUMP JUMPDEST PUSH2 0x43D PUSH2 0x7CC CALLDATASIZE PUSH1 0x4 PUSH2 0x2E1B JUMP JUMPDEST PUSH2 0x1CD8 JUMP JUMPDEST PUSH2 0x7E4 PUSH2 0x7DF CALLDATASIZE PUSH1 0x4 PUSH2 0x2DD1 JUMP JUMPDEST PUSH2 0x1E0F JUMP JUMPDEST PUSH1 0x40 DUP1 MLOAD SWAP4 DUP5 MSTORE PUSH1 0x20 DUP5 ADD SWAP3 SWAP1 SWAP3 MSTORE ISZERO ISZERO SWAP1 DUP3 ADD MSTORE PUSH1 0x60 ADD PUSH2 0x3F5 JUMP JUMPDEST PUSH2 0x3EB PUSH2 0x80F CALLDATASIZE PUSH1 0x4 PUSH2 0x2D43 JUMP JUMPDEST PUSH2 0x1E50 JUMP JUMPDEST PUSH2 0x3EB PUSH1 0xA SLOAD DUP2 JUMP JUMPDEST PUSH2 0x3EB PUSH2 0x82B CALLDATASIZE PUSH1 0x4 PUSH2 0x2D85 JUMP JUMPDEST PUSH2 0x1F05 JUMP JUMPDEST PUSH2 0x3EB PUSH2 0x1F1B JUMP JUMPDEST PUSH2 0x43D PUSH2 0x1F59 JUMP JUMPDEST PUSH2 0x65D PUSH32 0x0 DUP2 JUMP JUMPDEST PUSH2 0x43D PUSH2 0x875 CALLDATASIZE PUSH1 0x4 PUSH2 0x2E7C JUMP JUMPDEST PUSH2 0x1FAC JUMP JUMPDEST PUSH2 0x43D PUSH2 0x888 CALLDATASIZE PUSH1 0x4 PUSH2 0x2DD1 JUMP JUMPDEST PUSH2 0x1FD0 JUMP JUMPDEST PUSH2 0x8A0 PUSH2 0x89B CALLDATASIZE PUSH1 0x4 PUSH2 0x2D43 JUMP JUMPDEST PUSH2 0x206A JUMP JUMPDEST PUSH1 0x40 MLOAD PUSH2 0x3F5 SWAP2 SWAP1 PUSH2 0x2EF5 JUMP JUMPDEST PUSH2 0x3EB PUSH2 0x8BB CALLDATASIZE PUSH1 0x4 PUSH2 0x2F4D JUMP JUMPDEST PUSH1 0x1 PUSH1 0x1 PUSH1 0xA0 SHL SUB SWAP2 DUP3 AND PUSH0 SWAP1 DUP2 MSTORE PUSH1 0x1 PUSH1 0x20 SWAP1 DUP2 MSTORE PUSH1 0x40 DUP1 DUP4 KECCAK256 SWAP4 SWAP1 SWAP5 AND DUP3 MSTORE SWAP2 SWAP1 SWAP2 MSTORE KECCAK256 SLOAD SWAP1 JUMP JUMPDEST PUSH2 0x3EB PUSH1 0xB SLOAD DUP2 JUMP JUMPDEST PUSH2 0x3EB PUSH2 0x20FC JUMP JUMPDEST PUSH2 0x3EB PUSH32 0x65D7A28E3265B37A6474929F336521B332C1681B933F6CB9F3376673440D862A DUP2 JUMP JUMPDEST PUSH2 0x43D PUSH2 0x210E JUMP JUMPDEST PUSH2 0x41A PUSH2 0x933 CALLDATASIZE PUSH1 0x4 PUSH2 0x2D43 JUMP JUMPDEST PUSH1 0x11 PUSH1 0x20 MSTORE PUSH0 SWAP1 DUP2 MSTORE PUSH1 0x40 SWAP1 KECCAK256 SLOAD PUSH1 0xFF AND DUP2 JUMP JUMPDEST PUSH2 0x41A PUSH2 0x955 CALLDATASIZE PUSH1 0x4 PUSH2 0x2D43 JUMP JUMPDEST PUSH1 0x1 PUSH1 0x1 PUSH1 0xA0 SHL SUB AND PUSH0 SWAP1 DUP2 MSTORE PUSH1 0x11 PUSH1 0x20 MSTORE PUSH1 0x40 SWAP1 KECCAK256 SLOAD PUSH1 0xFF AND SWAP1 JUMP JUMPDEST PUSH1 0x1 PUSH1 0x1 PUSH1 0xA0 SHL SUB DUP2 AND PUSH0 SWAP1 DUP2 MSTORE PUSH1 0x10 PUSH1 0x20 SWAP1 DUP2 MSTORE PUSH1 0x40 DUP1 DUP4 KECCAK256 SLOAD PUSH1 0xF SWAP1 SWAP3 MSTORE DUP3 KECCAK256 SLOAD PUSH8 0xDE0B6B3A7640000 SWAP1 PUSH2 0x9A7 PUSH2 0x1F1B JUMP JUMPDEST PUSH2 0x9B1 SWAP2 SWAP1 PUSH2 0x2F8D JUMP JUMPDEST PUSH1 0x1 PUSH1 0x1 PUSH1 0xA0 SHL SUB DUP6 AND PUSH0 SWAP1 DUP2 MSTORE PUSH1 0x20 DUP2 SWAP1 MSTORE PUSH1 0x40 SWAP1 KECCAK256 SLOAD PUSH2 0x9D3 SWAP2 SWAP1 PUSH2 0x2FA0 JUMP JUMPDEST PUSH2 0x9DD SWAP2 SWAP1 PUSH2 0x2FB7 JUMP JUMPDEST PUSH2 0x9E7 SWAP2 SWAP1 PUSH2 0x2FD6 JUMP JUMPDEST SWAP3 SWAP2 POP POP JUMP JUMPDEST PUSH0 PUSH2 0x9E7 DUP3 PUSH2 0x216B JUMP JUMPDEST PUSH0 MLOAD PUSH1 0x20 PUSH2 0x30F9 PUSH0 CODECOPY PUSH0 MLOAD SWAP1 PUSH0 MSTORE PUSH2 0xA0E DUP2 PUSH2 0x218F JUMP JUMPDEST PUSH0 DUP3 GT PUSH2 0xA6E JUMPI PUSH1 0x40 MLOAD PUSH3 0x461BCD PUSH1 0xE5 SHL DUP2 MSTORE PUSH1 0x20 PUSH1 0x4 DUP3 ADD MSTORE PUSH1 0x24 DUP1 DUP3 ADD MSTORE PUSH32 0x4C6F636B206475726174696F6E206D7573742062652067726561746572207468 PUSH1 0x44 DUP3 ADD MSTORE PUSH4 0x616E203 PUSH1 0xE4 SHL PUSH1 0x64 DUP3 ADD MSTORE PUSH1 0x84 ADD JUMPDEST PUSH1 0x40 MLOAD DUP1 SWAP2 SUB SWAP1 REVERT JUMPDEST PUSH1 0xE DUP3 SWAP1 SSTORE PUSH1 0x40 MLOAD DUP3 DUP2 MSTORE PUSH32 0xBE752D502EAD9F7F68AE425A37976ABEE08F7D72A78E613D13A0C1AC153915F SWAP1 PUSH1 0x20 ADD JUMPDEST PUSH1 0x40 MLOAD DUP1 SWAP2 SUB SWAP1 LOG1 POP POP JUMP JUMPDEST PUSH1 0x60 PUSH1 0x3 DUP1 SLOAD PUSH2 0xABA SWAP1 PUSH2 0x2FE9 JUMP JUMPDEST DUP1 PUSH1 0x1F ADD PUSH1 0x20 DUP1 SWAP2 DIV MUL PUSH1 0x20 ADD PUSH1 0x40 MLOAD SWAP1 DUP2 ADD PUSH1 0x40 MSTORE DUP1 SWAP3 SWAP2 SWAP1 DUP2 DUP2 MSTORE PUSH1 0x20 ADD DUP3 DUP1 SLOAD PUSH2 0xAE6 SWAP1 PUSH2 0x2FE9 JUMP JUMPDEST DUP1 ISZERO PUSH2 0xB31 JUMPI DUP1 PUSH1 0x1F LT PUSH2 0xB08 JUMPI PUSH2 0x100 DUP1 DUP4 SLOAD DIV MUL DUP4 MSTORE SWAP2 PUSH1 0x20 ADD SWAP2 PUSH2 0xB31 JUMP JUMPDEST DUP3 ADD SWAP2 SWAP1 PUSH0 MSTORE PUSH1 0x20 PUSH0 KECCAK256 SWAP1 JUMPDEST DUP2 SLOAD DUP2 MSTORE SWAP1 PUSH1 0x1 ADD SWAP1 PUSH1 0x20 ADD DUP1 DUP4 GT PUSH2 0xB14 JUMPI DUP3 SWAP1 SUB PUSH1 0x1F AND DUP3 ADD SWAP2 JUMPDEST POP POP POP POP POP SWAP1 POP SWAP1 JUMP JUMPDEST PUSH0 CALLER PUSH2 0xB48 DUP2 DUP6 DUP6 PUSH2 0x2199 JUMP JUMPDEST POP PUSH1 0x1 SWAP4 SWAP3 POP POP POP JUMP JUMPDEST PUSH1 0x1 PUSH1 0x1 PUSH1 0xA0 SHL SUB DUP2 AND PUSH0 SWAP1 DUP2 MSTORE PUSH1 0x14 PUSH1 0x20 MSTORE PUSH1 0x40 DUP2 KECCAK256 DUP2 SWAP1 DUP2 JUMPDEST DUP2 SLOAD DUP2 LT ISZERO PUSH2 0xC08 JUMPI DUP2 DUP2 DUP2 SLOAD DUP2 LT PUSH2 0xB88 JUMPI PUSH2 0xB88 PUSH2 0x3021 JUMP JUMPDEST PUSH0 SWAP2 DUP3 MSTORE PUSH1 0x20 SWAP1 SWAP2 KECCAK256 PUSH1 0x2 PUSH1 0x3 SWAP1 SWAP3 MUL ADD ADD SLOAD PUSH1 0xFF AND ISZERO DUP1 ISZERO PUSH2 0xBCC JUMPI POP DUP2 DUP2 DUP2 SLOAD DUP2 LT PUSH2 0xBB8 JUMPI PUSH2 0xBB8 PUSH2 0x3021 JUMP JUMPDEST SWAP1 PUSH0 MSTORE PUSH1 0x20 PUSH0 KECCAK256 SWAP1 PUSH1 0x3 MUL ADD PUSH1 0x1 ADD SLOAD TIMESTAMP LT ISZERO JUMPDEST ISZERO PUSH2 0xC00 JUMPI DUP2 DUP2 DUP2 SLOAD DUP2 LT PUSH2 0xBE3 JUMPI PUSH2 0xBE3 PUSH2 0x3021 JUMP JUMPDEST SWAP1 PUSH0 MSTORE PUSH1 0x20 PUSH0 KECCAK256 SWAP1 PUSH1 0x3 MUL ADD PUSH0 ADD SLOAD DUP4 PUSH2 0xBFD SWAP2 SWAP1 PUSH2 0x2FD6 JUMP JUMPDEST SWAP3 POP JUMPDEST PUSH1 0x1 ADD PUSH2 0xB6D JUMP JUMPDEST POP SWAP1 SWAP4 SWAP3 POP POP POP JUMP JUMPDEST PUSH2 0xC19 PUSH2 0x21A6 JUMP JUMPDEST CALLER PUSH2 0xC22 PUSH2 0x1F1B JUMP JUMPDEST PUSH1 0xB SSTORE TIMESTAMP PUSH1 0xA SSTORE PUSH1 0x1 PUSH1 0x1 PUSH1 0xA0 SHL SUB DUP2 AND ISZERO PUSH2 0xC6C JUMPI PUSH2 0xC41 DUP2 PUSH2 0x972 JUMP JUMPDEST PUSH1 0x1 PUSH1 0x1 PUSH1 0xA0 SHL SUB DUP3 AND PUSH0 SWAP1 DUP2 MSTORE PUSH1 0x10 PUSH1 0x20 SWAP1 DUP2 MSTORE PUSH1 0x40 DUP1 DUP4 KECCAK256 SWAP4 SWAP1 SWAP4 SSTORE PUSH1 0xB SLOAD PUSH1 0xF SWAP1 SWAP2 MSTORE SWAP2 SWAP1 KECCAK256 SSTORE JUMPDEST PUSH2 0xC74 PUSH2 0x21D0 JUMP JUMPDEST CALLER PUSH0 SWAP1 DUP2 MSTORE PUSH1 0x11 PUSH1 0x20 MSTORE PUSH1 0x40 SWAP1 KECCAK256 SLOAD PUSH1 0xFF AND ISZERO PUSH2 0xCA6 JUMPI CALLER PUSH1 0x40 MLOAD PUSH4 0xE34017E1 PUSH1 0xE0 SHL DUP2 MSTORE PUSH1 0x4 ADD PUSH2 0xA65 SWAP2 SWAP1 PUSH2 0x3035 JUMP JUMPDEST PUSH2 0xCB1 CALLER DUP5 DUP5 PUSH2 0x21F4 JUMP JUMPDEST POP PUSH2 0xCBC PUSH1 0x1 PUSH1 0x6 SSTORE JUMP JUMPDEST POP POP JUMP JUMPDEST PUSH0 PUSH1 0x9 SLOAD PUSH3 0x127500 PUSH2 0xCD2 SWAP2 SWAP1 PUSH2 0x2FA0 JUMP JUMPDEST SWAP1 POP SWAP1 JUMP JUMPDEST PUSH0 PUSH2 0xCE0 PUSH2 0x1F1B JUMP JUMPDEST PUSH1 0xB SSTORE TIMESTAMP PUSH1 0xA SSTORE PUSH1 0x1 PUSH1 0x1 PUSH1 0xA0 SHL SUB DUP2 AND ISZERO PUSH2 0xD2A JUMPI PUSH2 0xCFF DUP2 PUSH2 0x972 JUMP JUMPDEST PUSH1 0x1 PUSH1 0x1 PUSH1 0xA0 SHL SUB DUP3 AND PUSH0 SWAP1 DUP2 MSTORE PUSH1 0x10 PUSH1 0x20 SWAP1 DUP2 MSTORE PUSH1 0x40 DUP1 DUP4 KECCAK256 SWAP4 SWAP1 SWAP4 SSTORE PUSH1 0xB SLOAD PUSH1 0xF SWAP1 SWAP2 MSTORE SWAP2 SWAP1 KECCAK256 SSTORE JUMPDEST PUSH2 0xD5F PUSH1 0x1 PUSH1 0x1 PUSH1 0xA0 SHL SUB PUSH32 0x0 AND CALLER ADDRESS DUP6 PUSH2 0x23CC JUMP JUMPDEST PUSH1 0x40 MLOAD DUP3 DUP2 MSTORE PUSH32 0xDE88A922E0D3B88B24E9623EFEB464919C6BF9F66857A65E2BFCF2CE87A9433D SWAP1 PUSH1 0x20 ADD PUSH2 0xA9F JUMP JUMPDEST PUSH0 CALLER PUSH2 0xD9C DUP6 DUP3 DUP6 PUSH2 0x2433 JUMP JUMPDEST PUSH2 0xDA7 DUP6 DUP6 DUP6 PUSH2 0x24A9 JUMP JUMPDEST POP PUSH1 0x1 SWAP5 SWAP4 POP POP POP POP JUMP JUMPDEST PUSH2 0xDBA PUSH2 0x21A6 JUMP JUMPDEST CALLER PUSH2 0xDC3 PUSH2 0x1F1B JUMP JUMPDEST PUSH1 0xB SSTORE TIMESTAMP PUSH1 0xA SSTORE PUSH1 0x1 PUSH1 0x1 PUSH1 0xA0 SHL SUB DUP2 AND ISZERO PUSH2 0xE0D JUMPI PUSH2 0xDE2 DUP2 PUSH2 0x972 JUMP JUMPDEST PUSH1 0x1 PUSH1 0x1 PUSH1 0xA0 SHL SUB DUP3 AND PUSH0 SWAP1 DUP2 MSTORE PUSH1 0x10 PUSH1 0x20 SWAP1 DUP2 MSTORE PUSH1 0x40 DUP1 DUP4 KECCAK256 SWAP4 SWAP1 SWAP4 SSTORE PUSH1 0xB SLOAD PUSH1 0xF SWAP1 SWAP2 MSTORE SWAP2 SWAP1 KECCAK256 SSTORE JUMPDEST PUSH2 0xE15 PUSH2 0x21D0 JUMP JUMPDEST CALLER PUSH0 SWAP1 DUP2 MSTORE PUSH1 0x11 PUSH1 0x20 MSTORE PUSH1 0x40 SWAP1 KECCAK256 SLOAD PUSH1 0xFF AND ISZERO PUSH2 0xE47 JUMPI CALLER PUSH1 0x40 MLOAD PUSH4 0xE34017E1 PUSH1 0xE0 SHL DUP2 MSTORE PUSH1 0x4 ADD PUSH2 0xA65 SWAP2 SWAP1 PUSH2 0x3035 JUMP JUMPDEST PUSH0 DUP3 GT PUSH2 0xE8A JUMPI PUSH1 0x40 MLOAD PUSH3 0x461BCD PUSH1 0xE5 SHL DUP2 MSTORE PUSH1 0x20 PUSH1 0x4 DUP3 ADD MSTORE PUSH1 0x11 PUSH1 0x24 DUP3 ADD MSTORE PUSH17 0x43616E6E6F74207769746864726177203 PUSH1 0x7C SHL PUSH1 0x44 DUP3 ADD MSTORE PUSH1 0x64 ADD PUSH2 0xA65 JUMP JUMPDEST PUSH0 PUSH2 0xE94 CALLER PUSH2 0xB52 JUMP JUMPDEST SWAP1 POP DUP1 DUP4 GT ISZERO PUSH2 0xEC1 JUMPI PUSH1 0x40 MLOAD PUSH4 0xEDF89E3D PUSH1 0xE0 SHL DUP2 MSTORE PUSH1 0x4 DUP2 ADD DUP5 SWAP1 MSTORE PUSH1 0x24 DUP2 ADD DUP3 SWAP1 MSTORE PUSH1 0x44 ADD PUSH2 0xA65 JUMP JUMPDEST CALLER PUSH0 SWAP1 DUP2 MSTORE PUSH1 0x14 PUSH1 0x20 MSTORE PUSH1 0x40 DUP2 KECCAK256 DUP5 SWAP2 JUMPDEST DUP2 SLOAD DUP2 LT DUP1 ISZERO PUSH2 0xEE1 JUMPI POP PUSH0 DUP4 GT JUMPDEST ISZERO PUSH2 0x101A JUMPI DUP2 DUP2 DUP2 SLOAD DUP2 LT PUSH2 0xEF8 JUMPI PUSH2 0xEF8 PUSH2 0x3021 JUMP JUMPDEST PUSH0 SWAP2 DUP3 MSTORE PUSH1 0x20 SWAP1 SWAP2 KECCAK256 PUSH1 0x2 PUSH1 0x3 SWAP1 SWAP3 MUL ADD ADD SLOAD PUSH1 0xFF AND ISZERO DUP1 ISZERO PUSH2 0xF3C JUMPI POP DUP2 DUP2 DUP2 SLOAD DUP2 LT PUSH2 0xF28 JUMPI PUSH2 0xF28 PUSH2 0x3021 JUMP JUMPDEST SWAP1 PUSH0 MSTORE PUSH1 0x20 PUSH0 KECCAK256 SWAP1 PUSH1 0x3 MUL ADD PUSH1 0x1 ADD SLOAD TIMESTAMP LT ISZERO JUMPDEST ISZERO PUSH2 0x1008 JUMPI DUP3 DUP3 DUP3 DUP2 SLOAD DUP2 LT PUSH2 0xF54 JUMPI PUSH2 0xF54 PUSH2 0x3021 JUMP JUMPDEST SWAP1 PUSH0 MSTORE PUSH1 0x20 PUSH0 KECCAK256 SWAP1 PUSH1 0x3 MUL ADD PUSH0 ADD SLOAD GT PUSH2 0xFD0 JUMPI DUP2 DUP2 DUP2 SLOAD DUP2 LT PUSH2 0xF7A JUMPI PUSH2 0xF7A PUSH2 0x3021 JUMP JUMPDEST SWAP1 PUSH0 MSTORE PUSH1 0x20 PUSH0 KECCAK256 SWAP1 PUSH1 0x3 MUL ADD PUSH0 ADD SLOAD DUP4 PUSH2 0xF94 SWAP2 SWAP1 PUSH2 0x2F8D JUMP JUMPDEST SWAP3 POP PUSH1 0x1 DUP3 DUP3 DUP2 SLOAD DUP2 LT PUSH2 0xFAA JUMPI PUSH2 0xFAA PUSH2 0x3021 JUMP JUMPDEST PUSH0 SWAP2 DUP3 MSTORE PUSH1 0x20 SWAP1 SWAP2 KECCAK256 PUSH1 0x3 SWAP1 SWAP2 MUL ADD PUSH1 0x2 ADD DUP1 SLOAD PUSH1 0xFF NOT AND SWAP2 ISZERO ISZERO SWAP2 SWAP1 SWAP2 OR SWAP1 SSTORE PUSH2 0x1008 JUMP JUMPDEST DUP3 DUP3 DUP3 DUP2 SLOAD DUP2 LT PUSH2 0xFE3 JUMPI PUSH2 0xFE3 PUSH2 0x3021 JUMP JUMPDEST SWAP1 PUSH0 MSTORE PUSH1 0x20 PUSH0 KECCAK256 SWAP1 PUSH1 0x3 MUL ADD PUSH0 ADD PUSH0 DUP3 DUP3 SLOAD PUSH2 0xFFF SWAP2 SWAP1 PUSH2 0x2F8D JUMP JUMPDEST SWAP1 SWAP2 SSTORE POP PUSH0 SWAP4 POP POP JUMPDEST DUP1 PUSH2 0x1012 DUP2 PUSH2 0x309A JUMP JUMPDEST SWAP2 POP POP PUSH2 0xED2 JUMP JUMPDEST POP CALLER PUSH0 SWAP1 DUP2 MSTORE PUSH1 0x12 PUSH1 0x20 MSTORE PUSH1 0x40 DUP2 KECCAK256 DUP1 SLOAD DUP8 SWAP3 SWAP1 PUSH2 0x1039 SWAP1 DUP5 SWAP1 PUSH2 0x2F8D JUMP JUMPDEST SWAP1 SWAP2 SSTORE POP PUSH2 0x1049 SWAP1 POP CALLER DUP7 PUSH2 0x2506 JUMP JUMPDEST PUSH2 0x107D PUSH1 0x1 PUSH1 0x1 PUSH1 0xA0 SHL SUB PUSH32 0x0 AND CALLER DUP8 PUSH2 0x253A JUMP JUMPDEST PUSH1 0x40 MLOAD DUP6 DUP2 MSTORE CALLER SWAP1 PUSH32 0x7084F5476618D8E60B11EF0D7D3F06914655ADB8793E28FF7F018D4C76D505D5 SWAP1 PUSH1 0x20 ADD PUSH1 0x40 MLOAD DUP1 SWAP2 SUB SWAP1 LOG2 POP POP POP POP PUSH2 0x10C0 PUSH1 0x1 PUSH1 0x6 SSTORE JUMP JUMPDEST POP JUMP JUMPDEST PUSH2 0x10E6 PUSH1 0x40 MLOAD DUP1 PUSH1 0x60 ADD PUSH1 0x40 MSTORE DUP1 PUSH0 DUP2 MSTORE PUSH1 0x20 ADD PUSH0 DUP2 MSTORE PUSH1 0x20 ADD PUSH0 ISZERO ISZERO DUP2 MSTORE POP SWAP1 JUMP JUMPDEST PUSH1 0x1 PUSH1 0x1 PUSH1 0xA0 SHL SUB DUP4 AND PUSH0 SWAP1 DUP2 MSTORE PUSH1 0x14 PUSH1 0x20 MSTORE PUSH1 0x40 SWAP1 KECCAK256 SLOAD DUP3 LT PUSH2 0x1120 JUMPI PUSH1 0x40 MLOAD PUSH4 0x33200A8B PUSH1 0xE1 SHL DUP2 MSTORE PUSH1 0x4 DUP2 ADD DUP4 SWAP1 MSTORE PUSH1 0x24 ADD PUSH2 0xA65 JUMP JUMPDEST PUSH1 0x1 PUSH1 0x1 PUSH1 0xA0 SHL SUB DUP4 AND PUSH0 SWAP1 DUP2 MSTORE PUSH1 0x14 PUSH1 0x20 MSTORE PUSH1 0x40 SWAP1 KECCAK256 DUP1 SLOAD DUP4 SWAP1 DUP2 LT PUSH2 0x1149 JUMPI PUSH2 0x1149 PUSH2 0x3021 JUMP JUMPDEST PUSH0 SWAP2 DUP3 MSTORE PUSH1 0x20 SWAP2 DUP3 SWAP1 KECCAK256 PUSH1 0x40 DUP1 MLOAD PUSH1 0x60 DUP2 ADD DUP3 MSTORE PUSH1 0x3 SWAP1 SWAP4 MUL SWAP1 SWAP2 ADD DUP1 SLOAD DUP4 MSTORE PUSH1 0x1 DUP2 ADD SLOAD SWAP4 DUP4 ADD SWAP4 SWAP1 SWAP4 MSTORE PUSH1 0x2 SWAP1 SWAP3 ADD SLOAD PUSH1 0xFF AND ISZERO ISZERO SWAP2 DUP2 ADD SWAP2 SWAP1 SWAP2 MSTORE SWAP1 POP SWAP3 SWAP2 POP POP JUMP JUMPDEST PUSH0 MLOAD PUSH1 0x20 PUSH2 0x30F9 PUSH0 CODECOPY PUSH0 MLOAD SWAP1 PUSH0 MSTORE PUSH2 0x11A6 DUP2 PUSH2 0x218F JUMP JUMPDEST PUSH1 0x64 DUP3 GT ISZERO PUSH2 0x11EF JUMPI PUSH1 0x40 MLOAD PUSH3 0x461BCD PUSH1 0xE5 SHL DUP2 MSTORE PUSH1 0x20 PUSH1 0x4 DUP3 ADD MSTORE PUSH1 0x15 PUSH1 0x24 DUP3 ADD MSTORE PUSH21 0x4665652063616E6E6F742065786365656420313025 PUSH1 0x58 SHL PUSH1 0x44 DUP3 ADD MSTORE PUSH1 0x64 ADD PUSH2 0xA65 JUMP JUMPDEST PUSH1 0xD DUP3 SWAP1 SSTORE PUSH1 0x40 MLOAD DUP3 DUP2 MSTORE PUSH32 0xBD1ED2C0BF13D96F257F1CC47B9D825E8E016B72E4581B06B517D295F04C7E2F SWAP1 PUSH1 0x20 ADD PUSH2 0xA9F JUMP JUMPDEST PUSH0 DUP3 DUP2 MSTORE PUSH1 0x7 PUSH1 0x20 MSTORE PUSH1 0x40 SWAP1 KECCAK256 PUSH1 0x1 ADD SLOAD PUSH2 0x123E DUP2 PUSH2 0x218F JUMP JUMPDEST PUSH2 0x1248 DUP4 DUP4 PUSH2 0x256B JUMP JUMPDEST POP POP POP POP JUMP JUMPDEST PUSH1 0x1 PUSH1 0x1 PUSH1 0xA0 SHL SUB DUP2 AND CALLER EQ PUSH2 0x1277 JUMPI PUSH1 0x40 MLOAD PUSH4 0x334BD919 PUSH1 0xE1 SHL DUP2 MSTORE PUSH1 0x4 ADD PUSH1 0x40 MLOAD DUP1 SWAP2 SUB SWAP1 REVERT JUMPDEST PUSH2 0x1281 DUP3 DUP3 PUSH2 0x259E JUMP JUMPDEST POP POP POP JUMP JUMPDEST PUSH2 0x128E PUSH2 0x21A6 JUMP JUMPDEST CALLER PUSH2 0x1297 PUSH2 0x1F1B JUMP JUMPDEST PUSH1 0xB SSTORE TIMESTAMP PUSH1 0xA SSTORE PUSH1 0x1 PUSH1 0x1 PUSH1 0xA0 SHL SUB DUP2 AND ISZERO PUSH2 0x12E1 JUMPI PUSH2 0x12B6 DUP2 PUSH2 0x972 JUMP JUMPDEST PUSH1 0x1 PUSH1 0x1 PUSH1 0xA0 SHL SUB DUP3 AND PUSH0 SWAP1 DUP2 MSTORE PUSH1 0x10 PUSH1 0x20 SWAP1 DUP2 MSTORE PUSH1 0x40 DUP1 DUP4 KECCAK256 SWAP4 SWAP1 SWAP4 SSTORE PUSH1 0xB SLOAD PUSH1 0xF SWAP1 SWAP2 MSTORE SWAP2 SWAP1 KECCAK256 SSTORE JUMPDEST PUSH2 0x12E9 PUSH2 0x21D0 JUMP JUMPDEST CALLER PUSH0 SWAP1 DUP2 MSTORE PUSH1 0x11 PUSH1 0x20 MSTORE PUSH1 0x40 SWAP1 KECCAK256 SLOAD PUSH1 0xFF AND ISZERO PUSH2 0x131B JUMPI CALLER PUSH1 0x40 MLOAD PUSH4 0xE34017E1 PUSH1 0xE0 SHL DUP2 MSTORE PUSH1 0x4 ADD PUSH2 0xA65 SWAP2 SWAP1 PUSH2 0x3035 JUMP JUMPDEST CALLER PUSH0 SWAP1 DUP2 MSTORE PUSH1 0x10 PUSH1 0x20 MSTORE PUSH1 0x40 SWAP1 KECCAK256 SLOAD DUP1 ISZERO PUSH2 0x141F JUMPI PUSH0 PUSH2 0x3E8 PUSH1 0xD SLOAD DUP4 PUSH2 0x1342 SWAP2 SWAP1 PUSH2 0x2FA0 JUMP JUMPDEST PUSH2 0x134C SWAP2 SWAP1 PUSH2 0x2FB7 JUMP JUMPDEST SWAP1 POP PUSH0 PUSH2 0x1359 DUP3 DUP5 PUSH2 0x2F8D JUMP JUMPDEST CALLER PUSH0 SWAP1 DUP2 MSTORE PUSH1 0x10 PUSH1 0x20 MSTORE PUSH1 0x40 DUP2 KECCAK256 SSTORE SWAP1 POP DUP2 ISZERO PUSH2 0x13B3 JUMPI PUSH0 PUSH2 0x137B DUP2 DUP1 PUSH2 0x1B07 JUMP JUMPDEST SWAP1 POP PUSH2 0x13B1 PUSH1 0x1 PUSH1 0x1 PUSH1 0xA0 SHL SUB PUSH32 0x0 AND DUP3 DUP6 PUSH2 0x253A JUMP JUMPDEST POP JUMPDEST PUSH2 0x13E7 PUSH1 0x1 PUSH1 0x1 PUSH1 0xA0 SHL SUB PUSH32 0x0 AND CALLER DUP4 PUSH2 0x253A JUMP JUMPDEST PUSH1 0x40 MLOAD DUP2 DUP2 MSTORE CALLER SWAP1 PUSH32 0xE2403640BA68FED3A2F88B7557551D1993F84B99BB10FF833F0CF8DB0C5E0486 SWAP1 PUSH1 0x20 ADD PUSH1 0x40 MLOAD DUP1 SWAP2 SUB SWAP1 LOG2 POP POP JUMPDEST POP POP PUSH2 0x142B PUSH1 0x1 PUSH1 0x6 SSTORE JUMP JUMPDEST JUMP JUMPDEST PUSH32 0x65D7A28E3265B37A6474929F336521B332C1681B933F6CB9F3376673440D862A PUSH2 0x1457 DUP2 PUSH2 0x218F JUMP JUMPDEST PUSH2 0x10C0 PUSH2 0x25C9 JUMP JUMPDEST PUSH0 MLOAD PUSH1 0x20 PUSH2 0x30F9 PUSH0 CODECOPY PUSH0 MLOAD SWAP1 PUSH0 MSTORE PUSH2 0x1476 DUP2 PUSH2 0x218F JUMP JUMPDEST PUSH1 0x40 MLOAD PUSH4 0x70A08231 PUSH1 0xE0 SHL DUP2 MSTORE ADDRESS PUSH1 0x4 DUP3 ADD MSTORE DUP5 SWAP1 DUP4 SWAP1 PUSH1 0x1 PUSH1 0x1 PUSH1 0xA0 SHL SUB DUP4 AND SWAP1 PUSH4 0x70A08231 SWAP1 PUSH1 0x24 ADD PUSH1 0x20 PUSH1 0x40 MLOAD DUP1 DUP4 SUB DUP2 DUP7 GAS STATICCALL ISZERO DUP1 ISZERO PUSH2 0x14BC JUMPI RETURNDATASIZE PUSH0 PUSH0 RETURNDATACOPY RETURNDATASIZE PUSH0 REVERT JUMPDEST POP POP POP POP PUSH1 0x40 MLOAD RETURNDATASIZE PUSH1 0x1F NOT PUSH1 0x1F DUP3 ADD AND DUP3 ADD DUP1 PUSH1 0x40 MSTORE POP DUP2 ADD SWAP1 PUSH2 0x14E0 SWAP2 SWAP1 PUSH2 0x30B2 JUMP JUMPDEST LT ISZERO PUSH2 0x152E JUMPI PUSH1 0x40 MLOAD PUSH3 0x461BCD PUSH1 0xE5 SHL DUP2 MSTORE PUSH1 0x20 PUSH1 0x4 DUP3 ADD MSTORE PUSH1 0x1A PUSH1 0x24 DUP3 ADD MSTORE PUSH32 0x496E73756666696369656E7420746F6B656E2062616C616E6365000000000000 PUSH1 0x44 DUP3 ADD MSTORE PUSH1 0x64 ADD PUSH2 0xA65 JUMP JUMPDEST PUSH2 0x1542 PUSH1 0x1 PUSH1 0x1 PUSH1 0xA0 SHL SUB DUP3 AND DUP6 DUP6 PUSH2 0x253A JUMP JUMPDEST POP POP POP POP POP JUMP JUMPDEST PUSH0 MLOAD PUSH1 0x20 PUSH2 0x30F9 PUSH0 CODECOPY PUSH0 MLOAD SWAP1 PUSH0 MSTORE PUSH2 0x1560 DUP2 PUSH2 0x218F JUMP JUMPDEST PUSH1 0x1 PUSH1 0x1 PUSH1 0xA0 SHL SUB DUP3 AND PUSH0 DUP2 DUP2 MSTORE PUSH1 0x11 PUSH1 0x20 MSTORE PUSH1 0x40 DUP1 DUP3 KECCAK256 DUP1 SLOAD PUSH1 0xFF NOT AND SWAP1 SSTORE MLOAD PUSH32 0x1747CA720B1A174A464B6513ACE29B1D3190B5F632B9F34147017C81425BFDE8 SWAP2 SWAP1 LOG2 POP POP JUMP JUMPDEST PUSH2 0x15B1 PUSH2 0x21A6 JUMP JUMPDEST CALLER PUSH2 0x15BA PUSH2 0x1F1B JUMP JUMPDEST PUSH1 0xB SSTORE TIMESTAMP PUSH1 0xA SSTORE PUSH1 0x1 PUSH1 0x1 PUSH1 0xA0 SHL SUB DUP2 AND ISZERO PUSH2 0x1604 JUMPI PUSH2 0x15D9 DUP2 PUSH2 0x972 JUMP JUMPDEST PUSH1 0x1 PUSH1 0x1 PUSH1 0xA0 SHL SUB DUP3 AND PUSH0 SWAP1 DUP2 MSTORE PUSH1 0x10 PUSH1 0x20 SWAP1 DUP2 MSTORE PUSH1 0x40 DUP1 DUP4 KECCAK256 SWAP4 SWAP1 SWAP4 SSTORE PUSH1 0xB SLOAD PUSH1 0xF SWAP1 SWAP2 MSTORE SWAP2 SWAP1 KECCAK256 SSTORE JUMPDEST PUSH2 0x160C PUSH2 0x21D0 JUMP JUMPDEST CALLER PUSH0 SWAP1 DUP2 MSTORE PUSH1 0x11 PUSH1 0x20 MSTORE PUSH1 0x40 SWAP1 KECCAK256 SLOAD PUSH1 0xFF AND ISZERO PUSH2 0x163E JUMPI CALLER PUSH1 0x40 MLOAD PUSH4 0xE34017E1 PUSH1 0xE0 SHL DUP2 MSTORE PUSH1 0x4 ADD PUSH2 0xA65 SWAP2 SWAP1 PUSH2 0x3035 JUMP JUMPDEST CALLER PUSH0 SWAP1 DUP2 MSTORE PUSH1 0x14 PUSH1 0x20 MSTORE PUSH1 0x40 SWAP1 KECCAK256 SLOAD DUP3 LT PUSH2 0x166F JUMPI PUSH1 0x40 MLOAD PUSH4 0x33200A8B PUSH1 0xE1 SHL DUP2 MSTORE PUSH1 0x4 DUP2 ADD DUP4 SWAP1 MSTORE PUSH1 0x24 ADD PUSH2 0xA65 JUMP JUMPDEST CALLER PUSH0 SWAP1 DUP2 MSTORE PUSH1 0x14 PUSH1 0x20 MSTORE PUSH1 0x40 DUP2 KECCAK256 DUP1 SLOAD DUP5 SWAP1 DUP2 LT PUSH2 0x168F JUMPI PUSH2 0x168F PUSH2 0x3021 JUMP JUMPDEST PUSH0 SWAP2 DUP3 MSTORE PUSH1 0x20 SWAP1 SWAP2 KECCAK256 PUSH1 0x3 SWAP1 SWAP2 MUL ADD PUSH1 0x2 DUP2 ADD SLOAD SWAP1 SWAP2 POP PUSH1 0xFF AND ISZERO PUSH2 0x16F6 JUMPI PUSH1 0x40 MLOAD PUSH3 0x461BCD PUSH1 0xE5 SHL DUP2 MSTORE PUSH1 0x20 PUSH1 0x4 DUP3 ADD MSTORE PUSH1 0x1A PUSH1 0x24 DUP3 ADD MSTORE PUSH32 0x506F736974696F6E20616C72656164792077697468647261776E000000000000 PUSH1 0x44 DUP3 ADD MSTORE PUSH1 0x64 ADD PUSH2 0xA65 JUMP JUMPDEST DUP1 PUSH1 0x1 ADD SLOAD TIMESTAMP LT ISZERO PUSH2 0x172A JUMPI PUSH1 0x1 DUP2 ADD SLOAD PUSH1 0x40 MLOAD PUSH4 0x10F26041 PUSH1 0xE0 SHL DUP2 MSTORE TIMESTAMP PUSH1 0x4 DUP3 ADD MSTORE PUSH1 0x24 DUP2 ADD SWAP2 SWAP1 SWAP2 MSTORE PUSH1 0x44 ADD PUSH2 0xA65 JUMP JUMPDEST DUP1 SLOAD PUSH1 0x2 DUP3 ADD DUP1 SLOAD PUSH1 0xFF NOT AND PUSH1 0x1 OR SWAP1 SSTORE CALLER PUSH0 SWAP1 DUP2 MSTORE PUSH1 0x12 PUSH1 0x20 MSTORE PUSH1 0x40 DUP2 KECCAK256 DUP1 SLOAD DUP4 SWAP3 SWAP1 PUSH2 0x1759 SWAP1 DUP5 SWAP1 PUSH2 0x2F8D JUMP JUMPDEST SWAP1 SWAP2 SSTORE POP PUSH2 0x1769 SWAP1 POP CALLER DUP3 PUSH2 0x2506 JUMP JUMPDEST PUSH2 0x179D PUSH1 0x1 PUSH1 0x1 PUSH1 0xA0 SHL SUB PUSH32 0x0 AND CALLER DUP4 PUSH2 0x253A JUMP JUMPDEST PUSH1 0x40 MLOAD DUP2 DUP2 MSTORE CALLER SWAP1 PUSH32 0x7084F5476618D8E60B11EF0D7D3F06914655ADB8793E28FF7F018D4C76D505D5 SWAP1 PUSH1 0x20 ADD PUSH1 0x40 MLOAD DUP1 SWAP2 SUB SWAP1 LOG2 POP POP POP PUSH2 0x10C0 PUSH1 0x1 PUSH1 0x6 SSTORE JUMP JUMPDEST PUSH0 MLOAD PUSH1 0x20 PUSH2 0x30F9 PUSH0 CODECOPY PUSH0 MLOAD SWAP1 PUSH0 MSTORE PUSH2 0x17F6 DUP2 PUSH2 0x218F JUMP JUMPDEST DUP2 PUSH2 0x17FF PUSH2 0x1F1B JUMP JUMPDEST PUSH1 0xB SSTORE TIMESTAMP PUSH1 0xA SSTORE PUSH1 0x1 PUSH1 0x1 PUSH1 0xA0 SHL SUB DUP2 AND ISZERO PUSH2 0x1849 JUMPI PUSH2 0x181E DUP2 PUSH2 0x972 JUMP JUMPDEST PUSH1 0x1 PUSH1 0x1 PUSH1 0xA0 SHL SUB DUP3 AND PUSH0 SWAP1 DUP2 MSTORE PUSH1 0x10 PUSH1 0x20 SWAP1 DUP2 MSTORE PUSH1 0x40 DUP1 DUP4 KECCAK256 SWAP4 SWAP1 SWAP4 SSTORE PUSH1 0xB SLOAD PUSH1 0xF SWAP1 SWAP2 MSTORE SWAP2 SWAP1 KECCAK256 SSTORE JUMPDEST PUSH1 0x1 PUSH1 0x1 PUSH1 0xA0 SHL SUB DUP4 AND PUSH0 SWAP1 DUP2 MSTORE PUSH1 0x11 PUSH1 0x20 SWAP1 DUP2 MSTORE PUSH1 0x40 DUP1 DUP4 KECCAK256 DUP1 SLOAD PUSH1 0xFF NOT AND PUSH1 0x1 OR SWAP1 SSTORE PUSH1 0x12 SWAP1 SWAP2 MSTORE SWAP1 KECCAK256 SLOAD DUP1 ISZERO PUSH2 0x19B1 JUMPI PUSH1 0x1 PUSH1 0x1 PUSH1 0xA0 SHL SUB DUP5 AND PUSH0 SWAP1 DUP2 MSTORE PUSH1 0x14 PUSH1 0x20 MSTORE PUSH1 0x40 DUP2 KECCAK256 SWAP1 JUMPDEST DUP2 SLOAD DUP2 LT ISZERO PUSH2 0x1908 JUMPI DUP2 DUP2 DUP2 SLOAD DUP2 LT PUSH2 0x18B0 JUMPI PUSH2 0x18B0 PUSH2 0x3021 JUMP JUMPDEST PUSH0 SWAP2 DUP3 MSTORE PUSH1 0x20 SWAP1 SWAP2 KECCAK256 PUSH1 0x2 PUSH1 0x3 SWAP1 SWAP3 MUL ADD ADD SLOAD PUSH1 0xFF AND PUSH2 0x1900 JUMPI PUSH1 0x1 DUP3 DUP3 DUP2 SLOAD DUP2 LT PUSH2 0x18DE JUMPI PUSH2 0x18DE PUSH2 0x3021 JUMP JUMPDEST PUSH0 SWAP2 DUP3 MSTORE PUSH1 0x20 SWAP1 SWAP2 KECCAK256 PUSH1 0x3 SWAP1 SWAP2 MUL ADD PUSH1 0x2 ADD DUP1 SLOAD PUSH1 0xFF NOT AND SWAP2 ISZERO ISZERO SWAP2 SWAP1 SWAP2 OR SWAP1 SSTORE JUMPDEST PUSH1 0x1 ADD PUSH2 0x1895 JUMP JUMPDEST POP PUSH1 0x1 PUSH1 0x1 PUSH1 0xA0 SHL SUB DUP6 AND PUSH0 SWAP1 DUP2 MSTORE PUSH1 0x12 PUSH1 0x20 SWAP1 DUP2 MSTORE PUSH1 0x40 DUP1 DUP4 KECCAK256 DUP4 SWAP1 SSTORE PUSH1 0x10 SWAP1 SWAP2 MSTORE DUP2 KECCAK256 SSTORE PUSH2 0x1938 DUP6 DUP4 PUSH2 0x2506 JUMP JUMPDEST PUSH2 0x196C PUSH1 0x1 PUSH1 0x1 PUSH1 0xA0 SHL SUB PUSH32 0x0 AND DUP7 DUP5 PUSH2 0x253A JUMP JUMPDEST DUP5 PUSH1 0x1 PUSH1 0x1 PUSH1 0xA0 SHL SUB AND PUSH32 0xF7D69068585EAD05D609F5965C9147570964EA979546EE5B072F31B7C31A6EE5 DUP4 PUSH1 0x40 MLOAD PUSH2 0x19A7 SWAP2 DUP2 MSTORE PUSH1 0x20 ADD SWAP1 JUMP JUMPDEST PUSH1 0x40 MLOAD DUP1 SWAP2 SUB SWAP1 LOG2 POP JUMPDEST PUSH1 0x40 MLOAD PUSH1 0x1 PUSH1 0x1 PUSH1 0xA0 SHL SUB DUP6 AND SWAP1 PUSH32 0x44D5FE68B00F68950FB9C1FF0A61EF7F747B1A36359A7E3A7F3324DB4B878967 SWAP1 PUSH0 SWAP1 LOG2 POP POP POP POP JUMP JUMPDEST PUSH0 MLOAD PUSH1 0x20 PUSH2 0x30F9 PUSH0 CODECOPY PUSH0 MLOAD SWAP1 PUSH0 MSTORE PUSH2 0x1A01 DUP2 PUSH2 0x218F JUMP JUMPDEST TIMESTAMP PUSH1 0xC SSTORE PUSH0 PUSH1 0x9 DUP2 SWAP1 SSTORE PUSH2 0x1A15 DUP2 DUP1 PUSH2 0x1B07 JUMP JUMPDEST PUSH1 0x40 MLOAD PUSH4 0x70A08231 PUSH1 0xE0 SHL DUP2 MSTORE ADDRESS PUSH1 0x4 DUP3 ADD MSTORE SWAP1 SWAP2 POP PUSH2 0xCBC SWAP1 DUP3 SWAP1 PUSH1 0x1 PUSH1 0x1 PUSH1 0xA0 SHL SUB PUSH32 0x0 AND SWAP1 PUSH4 0x70A08231 SWAP1 PUSH1 0x24 ADD PUSH1 0x20 PUSH1 0x40 MLOAD DUP1 DUP4 SUB DUP2 DUP7 GAS STATICCALL ISZERO DUP1 ISZERO PUSH2 0x1A80 JUMPI RETURNDATASIZE PUSH0 PUSH0 RETURNDATACOPY RETURNDATASIZE PUSH0 REVERT JUMPDEST POP POP POP POP PUSH1 0x40 MLOAD RETURNDATASIZE PUSH1 0x1F NOT PUSH1 0x1F DUP3 ADD AND DUP3 ADD DUP1 PUSH1 0x40 MSTORE POP DUP2 ADD SWAP1 PUSH2 0x1AA4 SWAP2 SWAP1 PUSH2 0x30B2 JUMP JUMPDEST PUSH1 0x1 PUSH1 0x1 PUSH1 0xA0 SHL SUB PUSH32 0x0 AND SWAP2 SWAP1 PUSH2 0x253A JUMP JUMPDEST PUSH32 0x65D7A28E3265B37A6474929F336521B332C1681B933F6CB9F3376673440D862A PUSH2 0x1AFF DUP2 PUSH2 0x218F JUMP JUMPDEST PUSH2 0x10C0 PUSH2 0x261B JUMP JUMPDEST PUSH0 DUP3 DUP2 MSTORE PUSH1 0x8 PUSH1 0x20 MSTORE PUSH1 0x40 DUP2 KECCAK256 PUSH2 0x1B1E SWAP1 DUP4 PUSH2 0x2658 JUMP JUMPDEST SWAP4 SWAP3 POP POP POP JUMP JUMPDEST PUSH0 SWAP2 DUP3 MSTORE PUSH1 0x7 PUSH1 0x20 SWAP1 DUP2 MSTORE PUSH1 0x40 DUP1 DUP5 KECCAK256 PUSH1 0x1 PUSH1 0x1 PUSH1 0xA0 SHL SUB SWAP4 SWAP1 SWAP4 AND DUP5 MSTORE SWAP2 SWAP1 MSTORE SWAP1 KECCAK256 SLOAD PUSH1 0xFF AND SWAP1 JUMP JUMPDEST PUSH1 0x60 PUSH1 0x4 DUP1 SLOAD PUSH2 0xABA SWAP1 PUSH2 0x2FE9 JUMP JUMPDEST PUSH0 MLOAD PUSH1 0x20 PUSH2 0x30F9 PUSH0 CODECOPY PUSH0 MLOAD SWAP1 PUSH0 MSTORE PUSH2 0x1B75 DUP2 PUSH2 0x218F JUMP JUMPDEST PUSH0 PUSH2 0x1B7E PUSH2 0x1F1B JUMP JUMPDEST PUSH1 0xB SSTORE TIMESTAMP PUSH1 0xA SSTORE PUSH1 0x1 PUSH1 0x1 PUSH1 0xA0 SHL SUB DUP2 AND ISZERO PUSH2 0x1BC8 JUMPI PUSH2 0x1B9D DUP2 PUSH2 0x972 JUMP JUMPDEST PUSH1 0x1 PUSH1 0x1 PUSH1 0xA0 SHL SUB DUP3 AND PUSH0 SWAP1 DUP2 MSTORE PUSH1 0x10 PUSH1 0x20 SWAP1 DUP2 MSTORE PUSH1 0x40 DUP1 DUP4 KECCAK256 SWAP4 SWAP1 SWAP4 SSTORE PUSH1 0xB SLOAD PUSH1 0xF SWAP1 SWAP2 MSTORE SWAP2 SWAP1 KECCAK256 SSTORE JUMPDEST PUSH1 0x9 DUP4 SWAP1 SSTORE PUSH1 0x40 MLOAD DUP4 DUP2 MSTORE PUSH32 0x8CBFAFC8E0D9C5C81401C4B9C6E7D201198ADC7EB8F8F1556C195ECD4C0A0E7B SWAP1 PUSH1 0x20 ADD PUSH1 0x40 MLOAD DUP1 SWAP2 SUB SWAP1 LOG1 POP POP POP JUMP JUMPDEST PUSH0 DUP2 DUP2 MSTORE PUSH1 0x8 PUSH1 0x20 MSTORE PUSH1 0x40 SWAP1 KECCAK256 PUSH1 0x60 SWAP1 PUSH2 0x9E7 SWAP1 PUSH2 0x2663 JUMP JUMPDEST PUSH2 0x1C26 PUSH2 0x21A6 JUMP JUMPDEST CALLER PUSH2 0x1C2F PUSH2 0x1F1B JUMP JUMPDEST PUSH1 0xB SSTORE TIMESTAMP PUSH1 0xA SSTORE PUSH1 0x1 PUSH1 0x1 PUSH1 0xA0 SHL SUB DUP2 AND ISZERO PUSH2 0x1C79 JUMPI PUSH2 0x1C4E DUP2 PUSH2 0x972 JUMP JUMPDEST PUSH1 0x1 PUSH1 0x1 PUSH1 0xA0 SHL SUB DUP3 AND PUSH0 SWAP1 DUP2 MSTORE PUSH1 0x10 PUSH1 0x20 SWAP1 DUP2 MSTORE PUSH1 0x40 DUP1 DUP4 KECCAK256 SWAP4 SWAP1 SWAP4 SSTORE PUSH1 0xB SLOAD PUSH1 0xF SWAP1 SWAP2 MSTORE SWAP2 SWAP1 KECCAK256 SSTORE JUMPDEST PUSH2 0x1C81 PUSH2 0x21D0 JUMP JUMPDEST CALLER PUSH0 SWAP1 DUP2 MSTORE PUSH1 0x11 PUSH1 0x20 MSTORE PUSH1 0x40 SWAP1 KECCAK256 SLOAD PUSH1 0xFF AND ISZERO PUSH2 0x1CB3 JUMPI CALLER PUSH1 0x40 MLOAD PUSH4 0xE34017E1 PUSH1 0xE0 SHL DUP2 MSTORE PUSH1 0x4 ADD PUSH2 0xA65 SWAP2 SWAP1 PUSH2 0x3035 JUMP JUMPDEST PUSH2 0x1CC0 CALLER DUP4 PUSH1 0xE SLOAD PUSH2 0x21F4 JUMP JUMPDEST POP PUSH2 0x10C0 PUSH1 0x1 PUSH1 0x6 SSTORE JUMP JUMPDEST PUSH0 CALLER PUSH2 0xB48 DUP2 DUP6 DUP6 PUSH2 0x24A9 JUMP JUMPDEST PUSH0 MLOAD PUSH1 0x20 PUSH2 0x30F9 PUSH0 CODECOPY PUSH0 MLOAD SWAP1 PUSH0 MSTORE PUSH2 0x1CEF DUP2 PUSH2 0x218F JUMP JUMPDEST PUSH1 0x40 MLOAD PUSH4 0x31A9108F PUSH1 0xE1 SHL DUP2 MSTORE PUSH1 0x4 DUP2 ADD DUP4 SWAP1 MSTORE DUP5 SWAP1 ADDRESS SWAP1 PUSH1 0x1 PUSH1 0x1 PUSH1 0xA0 SHL SUB DUP4 AND SWAP1 PUSH4 0x6352211E SWAP1 PUSH1 0x24 ADD PUSH1 0x20 PUSH1 0x40 MLOAD DUP1 DUP4 SUB DUP2 DUP7 GAS STATICCALL ISZERO DUP1 ISZERO PUSH2 0x1D36 JUMPI RETURNDATASIZE PUSH0 PUSH0 RETURNDATACOPY RETURNDATASIZE PUSH0 REVERT JUMPDEST POP POP POP POP PUSH1 0x40 MLOAD RETURNDATASIZE PUSH1 0x1F NOT PUSH1 0x1F DUP3 ADD AND DUP3 ADD DUP1 PUSH1 0x40 MSTORE POP DUP2 ADD SWAP1 PUSH2 0x1D5A SWAP2 SWAP1 PUSH2 0x30C9 JUMP JUMPDEST PUSH1 0x1 PUSH1 0x1 PUSH1 0xA0 SHL SUB AND EQ PUSH2 0x1DA5 JUMPI PUSH1 0x40 MLOAD PUSH3 0x461BCD PUSH1 0xE5 SHL DUP2 MSTORE PUSH1 0x20 PUSH1 0x4 DUP3 ADD MSTORE PUSH1 0x12 PUSH1 0x24 DUP3 ADD MSTORE PUSH18 0x2737BA1037BBB732B91037B3103A37B5B2B7 PUSH1 0x71 SHL PUSH1 0x44 DUP3 ADD MSTORE PUSH1 0x64 ADD PUSH2 0xA65 JUMP JUMPDEST PUSH1 0x40 MLOAD PUSH4 0x23B872DD PUSH1 0xE0 SHL DUP2 MSTORE ADDRESS PUSH1 0x4 DUP3 ADD MSTORE PUSH1 0x1 PUSH1 0x1 PUSH1 0xA0 SHL SUB DUP6 DUP2 AND PUSH1 0x24 DUP4 ADD MSTORE PUSH1 0x44 DUP3 ADD DUP6 SWAP1 MSTORE DUP3 AND SWAP1 PUSH4 0x23B872DD SWAP1 PUSH1 0x64 ADD PUSH0 PUSH1 0x40 MLOAD DUP1 DUP4 SUB DUP2 PUSH0 DUP8 DUP1 EXTCODESIZE ISZERO DUP1 ISZERO PUSH2 0x1DF2 JUMPI PUSH0 PUSH0 REVERT JUMPDEST POP GAS CALL ISZERO DUP1 ISZERO PUSH2 0x1E04 JUMPI RETURNDATASIZE PUSH0 PUSH0 RETURNDATACOPY RETURNDATASIZE PUSH0 REVERT JUMPDEST POP POP POP POP POP POP POP POP POP JUMP JUMPDEST PUSH1 0x14 PUSH1 0x20 MSTORE DUP2 PUSH0 MSTORE PUSH1 0x40 PUSH0 KECCAK256 DUP2 DUP2 SLOAD DUP2 LT PUSH2 0x1E28 JUMPI PUSH0 DUP1 REVERT JUMPDEST PUSH0 SWAP2 DUP3 MSTORE PUSH1 0x20 SWAP1 SWAP2 KECCAK256 PUSH1 0x3 SWAP1 SWAP2 MUL ADD DUP1 SLOAD PUSH1 0x1 DUP3 ADD SLOAD PUSH1 0x2 SWAP1 SWAP3 ADD SLOAD SWAP1 SWAP4 POP SWAP1 SWAP2 POP PUSH1 0xFF AND DUP4 JUMP JUMPDEST PUSH1 0x1 PUSH1 0x1 PUSH1 0xA0 SHL SUB DUP2 AND PUSH0 SWAP1 DUP2 MSTORE PUSH1 0x14 PUSH1 0x20 MSTORE PUSH1 0x40 DUP2 KECCAK256 DUP2 SWAP1 DUP2 JUMPDEST DUP2 SLOAD DUP2 LT ISZERO PUSH2 0xC08 JUMPI DUP2 DUP2 DUP2 SLOAD DUP2 LT PUSH2 0x1E86 JUMPI PUSH2 0x1E86 PUSH2 0x3021 JUMP JUMPDEST PUSH0 SWAP2 DUP3 MSTORE PUSH1 0x20 SWAP1 SWAP2 KECCAK256 PUSH1 0x2 PUSH1 0x3 SWAP1 SWAP3 MUL ADD ADD SLOAD PUSH1 0xFF AND ISZERO DUP1 ISZERO PUSH2 0x1EC9 JUMPI POP DUP2 DUP2 DUP2 SLOAD DUP2 LT PUSH2 0x1EB6 JUMPI PUSH2 0x1EB6 PUSH2 0x3021 JUMP JUMPDEST SWAP1 PUSH0 MSTORE PUSH1 0x20 PUSH0 KECCAK256 SWAP1 PUSH1 0x3 MUL ADD PUSH1 0x1 ADD SLOAD TIMESTAMP LT JUMPDEST ISZERO PUSH2 0x1EFD JUMPI DUP2 DUP2 DUP2 SLOAD DUP2 LT PUSH2 0x1EE0 JUMPI PUSH2 0x1EE0 PUSH2 0x3021 JUMP JUMPDEST SWAP1 PUSH0 MSTORE PUSH1 0x20 PUSH0 KECCAK256 SWAP1 PUSH1 0x3 MUL ADD PUSH0 ADD SLOAD DUP4 PUSH2 0x1EFA SWAP2 SWAP1 PUSH2 0x2FD6 JUMP JUMPDEST SWAP3 POP JUMPDEST PUSH1 0x1 ADD PUSH2 0x1E6B JUMP JUMPDEST PUSH0 DUP2 DUP2 MSTORE PUSH1 0x8 PUSH1 0x20 MSTORE PUSH1 0x40 DUP2 KECCAK256 PUSH2 0x9E7 SWAP1 PUSH2 0x266F JUMP JUMPDEST PUSH0 PUSH2 0x1F25 PUSH1 0x2 SLOAD SWAP1 JUMP JUMPDEST PUSH0 SUB PUSH2 0x1F32 JUMPI POP PUSH1 0xB SLOAD SWAP1 JUMP JUMPDEST PUSH1 0x9 SLOAD PUSH1 0xA SLOAD PUSH2 0x1F42 SWAP1 TIMESTAMP PUSH2 0x2F8D JUMP JUMPDEST PUSH2 0x1F4C SWAP2 SWAP1 PUSH2 0x2FA0 JUMP JUMPDEST PUSH1 0xB SLOAD PUSH2 0xCD2 SWAP2 SWAP1 PUSH2 0x2FD6 JUMP JUMPDEST PUSH0 MLOAD PUSH1 0x20 PUSH2 0x30F9 PUSH0 CODECOPY PUSH0 MLOAD SWAP1 PUSH0 MSTORE PUSH2 0x1F70 DUP2 PUSH2 0x218F JUMP JUMPDEST TIMESTAMP PUSH1 0xC DUP2 SWAP1 SSTORE PUSH1 0x40 MLOAD SWAP1 DUP2 MSTORE PUSH32 0xB1F66464DBCDFF719B019D202C2F522FE22DF6B88AD534B702917F0689071384 SWAP1 PUSH1 0x20 ADD PUSH1 0x40 MLOAD DUP1 SWAP2 SUB SWAP1 LOG1 POP JUMP JUMPDEST PUSH0 DUP3 DUP2 MSTORE PUSH1 0x7 PUSH1 0x20 MSTORE PUSH1 0x40 SWAP1 KECCAK256 PUSH1 0x1 ADD SLOAD PUSH2 0x1FC6 DUP2 PUSH2 0x218F JUMP JUMPDEST PUSH2 0x1248 DUP4 DUP4 PUSH2 0x259E JUMP JUMPDEST PUSH0 MLOAD PUSH1 0x20 PUSH2 0x30F9 PUSH0 CODECOPY PUSH0 MLOAD SWAP1 PUSH0 MSTORE PUSH2 0x1FE7 DUP2 PUSH2 0x218F JUMP JUMPDEST DUP2 SELFBALANCE LT ISZERO PUSH2 0x2037 JUMPI PUSH1 0x40 MLOAD PUSH3 0x461BCD PUSH1 0xE5 SHL DUP2 MSTORE PUSH1 0x20 PUSH1 0x4 DUP3 ADD MSTORE PUSH1 0x18 PUSH1 0x24 DUP3 ADD MSTORE PUSH32 0x496E73756666696369656E74204554482062616C616E63650000000000000000 PUSH1 0x44 DUP3 ADD MSTORE PUSH1 0x64 ADD PUSH2 0xA65 JUMP JUMPDEST PUSH1 0x40 MLOAD PUSH1 0x1 PUSH1 0x1 PUSH1 0xA0 SHL SUB DUP5 AND SWAP1 DUP4 ISZERO PUSH2 0x8FC MUL SWAP1 DUP5 SWAP1 PUSH0 DUP2 DUP2 DUP2 DUP6 DUP9 DUP9 CALL SWAP4 POP POP POP POP ISZERO DUP1 ISZERO PUSH2 0x1248 JUMPI RETURNDATASIZE PUSH0 PUSH0 RETURNDATACOPY RETURNDATASIZE PUSH0 REVERT JUMPDEST PUSH1 0x1 PUSH1 0x1 PUSH1 0xA0 SHL SUB DUP2 AND PUSH0 SWAP1 DUP2 MSTORE PUSH1 0x14 PUSH1 0x20 SWAP1 DUP2 MSTORE PUSH1 0x40 DUP1 DUP4 KECCAK256 DUP1 SLOAD DUP3 MLOAD DUP2 DUP6 MUL DUP2 ADD DUP6 ADD SWAP1 SWAP4 MSTORE DUP1 DUP4 MSTORE PUSH1 0x60 SWAP5 SWAP3 SWAP4 SWAP2 SWAP3 SWAP1 SWAP2 DUP5 ADD JUMPDEST DUP3 DUP3 LT ISZERO PUSH2 0x20F1 JUMPI PUSH0 DUP5 DUP2 MSTORE PUSH1 0x20 SWAP1 DUP2 SWAP1 KECCAK256 PUSH1 0x40 DUP1 MLOAD PUSH1 0x60 DUP2 ADD DUP3 MSTORE PUSH1 0x3 DUP7 MUL SWAP1 SWAP3 ADD DUP1 SLOAD DUP4 MSTORE PUSH1 0x1 DUP1 DUP3 ADD SLOAD DUP5 DUP7 ADD MSTORE PUSH1 0x2 SWAP1 SWAP2 ADD SLOAD PUSH1 0xFF AND ISZERO ISZERO SWAP2 DUP4 ADD SWAP2 SWAP1 SWAP2 MSTORE SWAP1 DUP4 MSTORE SWAP1 SWAP3 ADD SWAP2 ADD PUSH2 0x20A1 JUMP JUMPDEST POP POP POP POP SWAP1 POP SWAP2 SWAP1 POP JUMP JUMPDEST PUSH0 PUSH1 0x9 SLOAD PUSH3 0x15180 PUSH2 0xCD2 SWAP2 SWAP1 PUSH2 0x2FA0 JUMP JUMPDEST PUSH2 0x2116 PUSH2 0x21D0 JUMP JUMPDEST CALLER PUSH0 SWAP1 DUP2 MSTORE PUSH1 0x11 PUSH1 0x20 MSTORE PUSH1 0x40 SWAP1 KECCAK256 SLOAD PUSH1 0xFF AND ISZERO PUSH2 0x2148 JUMPI CALLER PUSH1 0x40 MLOAD PUSH4 0xE34017E1 PUSH1 0xE0 SHL DUP2 MSTORE PUSH1 0x4 ADD PUSH2 0xA65 SWAP2 SWAP1 PUSH2 0x3035 JUMP JUMPDEST PUSH0 PUSH2 0x2152 CALLER PUSH2 0xB52 JUMP JUMPDEST SWAP1 POP DUP1 ISZERO PUSH2 0x2163 JUMPI PUSH2 0x2163 DUP2 PUSH2 0xDB2 JUMP JUMPDEST PUSH2 0x10C0 PUSH2 0x1286 JUMP JUMPDEST PUSH0 PUSH1 0x1 PUSH1 0x1 PUSH1 0xE0 SHL SUB NOT DUP3 AND PUSH4 0x5A05180F PUSH1 0xE0 SHL EQ DUP1 PUSH2 0x9E7 JUMPI POP PUSH2 0x9E7 DUP3 PUSH2 0x2678 JUMP JUMPDEST PUSH2 0x10C0 DUP2 CALLER PUSH2 0x26AC JUMP JUMPDEST PUSH2 0x1281 DUP4 DUP4 DUP4 PUSH1 0x1 PUSH2 0x26E5 JUMP JUMPDEST PUSH1 0x2 PUSH1 0x6 SLOAD SUB PUSH2 0x21C9 JUMPI PUSH1 0x40 MLOAD PUSH4 0x3EE5AEB5 PUSH1 0xE0 SHL DUP2 MSTORE PUSH1 0x4 ADD PUSH1 0x40 MLOAD DUP1 SWAP2 SUB SWAP1 REVERT JUMPDEST PUSH1 0x2 PUSH1 0x6 SSTORE JUMP JUMPDEST PUSH1 0x5 SLOAD PUSH1 0xFF AND ISZERO PUSH2 0x142B JUMPI PUSH1 0x40 MLOAD PUSH4 0xD93C0665 PUSH1 0xE0 SHL DUP2 MSTORE PUSH1 0x4 ADD PUSH1 0x40 MLOAD DUP1 SWAP2 SUB SWAP1 REVERT JUMPDEST PUSH0 DUP3 GT PUSH2 0x2234 JUMPI PUSH1 0x40 MLOAD PUSH3 0x461BCD PUSH1 0xE5 SHL DUP2 MSTORE PUSH1 0x20 PUSH1 0x4 DUP3 ADD MSTORE PUSH1 0xE PUSH1 0x24 DUP3 ADD MSTORE PUSH14 0x43616E6E6F74207374616B65203 PUSH1 0x94 SHL PUSH1 0x44 DUP3 ADD MSTORE PUSH1 0x64 ADD PUSH2 0xA65 JUMP JUMPDEST PUSH1 0xE SLOAD DUP2 LT ISZERO PUSH2 0x2265 JUMPI PUSH1 0xE SLOAD PUSH1 0x40 MLOAD PUSH4 0x102313B1 PUSH1 0xE3 SHL DUP2 MSTORE PUSH2 0xA65 SWAP2 DUP4 SWAP2 PUSH1 0x4 ADD SWAP2 DUP3 MSTORE PUSH1 0x20 DUP3 ADD MSTORE PUSH1 0x40 ADD SWAP1 JUMP JUMPDEST PUSH2 0x229A PUSH1 0x1 PUSH1 0x1 PUSH1 0xA0 SHL SUB PUSH32 0x0 AND DUP5 ADDRESS DUP6 PUSH2 0x23CC JUMP JUMPDEST PUSH2 0x22A4 DUP4 DUP4 PUSH2 0x27B7 JUMP JUMPDEST PUSH1 0x1 PUSH1 0x1 PUSH1 0xA0 SHL SUB DUP4 AND PUSH0 SWAP1 DUP2 MSTORE PUSH1 0x14 PUSH1 0x20 SWAP1 DUP2 MSTORE PUSH1 0x40 SWAP2 DUP3 SWAP1 KECCAK256 DUP3 MLOAD PUSH1 0x60 DUP2 ADD SWAP1 SWAP4 MSTORE DUP5 DUP4 MSTORE SWAP2 SWAP1 DUP2 ADD PUSH2 0x22D9 DUP5 TIMESTAMP PUSH2 0x2FD6 JUMP JUMPDEST DUP2 MSTORE PUSH0 PUSH1 0x20 SWAP2 DUP3 ADD DUP2 SWAP1 MSTORE DUP4 SLOAD PUSH1 0x1 DUP1 DUP3 ADD DUP7 SSTORE SWAP5 DUP3 MSTORE DUP3 DUP3 KECCAK256 DUP5 MLOAD PUSH1 0x3 SWAP1 SWAP3 MUL ADD SWAP1 DUP2 SSTORE DUP4 DUP4 ADD MLOAD SWAP5 DUP2 ADD SWAP5 SWAP1 SWAP5 SSTORE PUSH1 0x40 SWAP3 DUP4 ADD MLOAD PUSH1 0x2 SWAP1 SWAP5 ADD DUP1 SLOAD PUSH1 0xFF NOT AND SWAP5 ISZERO ISZERO SWAP5 SWAP1 SWAP5 OR SWAP1 SWAP4 SSTORE PUSH1 0x1 PUSH1 0x1 PUSH1 0xA0 SHL SUB DUP7 AND DUP4 MSTORE PUSH1 0x12 SWAP1 MSTORE DUP2 KECCAK256 DUP1 SLOAD DUP5 SWAP3 SWAP1 PUSH2 0x2346 SWAP1 DUP5 SWAP1 PUSH2 0x2FD6 JUMP JUMPDEST SWAP1 SWAP2 SSTORE POP POP PUSH1 0x1 PUSH1 0x1 PUSH1 0xA0 SHL SUB DUP4 AND PUSH0 SWAP1 DUP2 MSTORE PUSH1 0x15 PUSH1 0x20 MSTORE PUSH1 0x40 DUP2 KECCAK256 DUP1 SLOAD SWAP2 PUSH2 0x236E DUP4 PUSH2 0x309A JUMP JUMPDEST SWAP1 SWAP2 SSTORE POP POP PUSH1 0x1 PUSH1 0x1 PUSH1 0xA0 SHL SUB DUP4 AND PUSH0 DUP2 DUP2 MSTORE PUSH1 0x13 PUSH1 0x20 SWAP1 DUP2 MSTORE PUSH1 0x40 SWAP2 DUP3 SWAP1 KECCAK256 TIMESTAMP SWAP1 SSTORE DUP2 MLOAD DUP6 DUP2 MSTORE SWAP1 DUP2 ADD DUP5 SWAP1 MSTORE PUSH32 0x1449C6DD7851ABC30ABF37F57715F492010519147CC2652FBC38202C18A6EE90 SWAP2 ADD PUSH1 0x40 MLOAD DUP1 SWAP2 SUB SWAP1 LOG2 POP POP POP JUMP JUMPDEST PUSH1 0x40 MLOAD PUSH1 0x1 PUSH1 0x1 PUSH1 0xA0 SHL SUB DUP5 DUP2 AND PUSH1 0x24 DUP4 ADD MSTORE DUP4 DUP2 AND PUSH1 0x44 DUP4 ADD MSTORE PUSH1 0x64 DUP3 ADD DUP4 SWAP1 MSTORE PUSH2 0x1248 SWAP2 DUP7 SWAP2 DUP3 AND SWAP1 PUSH4 0x23B872DD SWAP1 PUSH1 0x84 ADD JUMPDEST PUSH1 0x40 MLOAD PUSH1 0x20 DUP2 DUP4 SUB SUB DUP2 MSTORE SWAP1 PUSH1 0x40 MSTORE SWAP2 POP PUSH1 0xE0 SHL PUSH1 0x20 DUP3 ADD DUP1 MLOAD PUSH1 0x1 PUSH1 0x1 PUSH1 0xE0 SHL SUB DUP4 DUP2 DUP4 AND OR DUP4 MSTORE POP POP POP POP PUSH2 0x27EB JUMP JUMPDEST PUSH1 0x1 PUSH1 0x1 PUSH1 0xA0 SHL SUB DUP4 DUP2 AND PUSH0 SWAP1 DUP2 MSTORE PUSH1 0x1 PUSH1 0x20 SWAP1 DUP2 MSTORE PUSH1 0x40 DUP1 DUP4 KECCAK256 SWAP4 DUP7 AND DUP4 MSTORE SWAP3 SWAP1 MSTORE KECCAK256 SLOAD PUSH0 NOT DUP2 LT ISZERO PUSH2 0x1248 JUMPI DUP2 DUP2 LT ISZERO PUSH2 0x249B JUMPI PUSH1 0x40 MLOAD PUSH4 0x7DC7A0D9 PUSH1 0xE1 SHL DUP2 MSTORE PUSH1 0x1 PUSH1 0x1 PUSH1 0xA0 SHL SUB DUP5 AND PUSH1 0x4 DUP3 ADD MSTORE PUSH1 0x24 DUP2 ADD DUP3 SWAP1 MSTORE PUSH1 0x44 DUP2 ADD DUP4 SWAP1 MSTORE PUSH1 0x64 ADD PUSH2 0xA65 JUMP JUMPDEST PUSH2 0x1248 DUP5 DUP5 DUP5 DUP5 SUB PUSH0 PUSH2 0x26E5 JUMP JUMPDEST PUSH1 0x1 PUSH1 0x1 PUSH1 0xA0 SHL SUB DUP4 AND PUSH2 0x24D2 JUMPI PUSH1 0x40 MLOAD PUSH4 0x4B637E8F PUSH1 0xE1 SHL DUP2 MSTORE PUSH0 PUSH1 0x4 DUP3 ADD MSTORE PUSH1 0x24 ADD PUSH2 0xA65 JUMP JUMPDEST PUSH1 0x1 PUSH1 0x1 PUSH1 0xA0 SHL SUB DUP3 AND PUSH2 0x24FB JUMPI PUSH1 0x40 MLOAD PUSH4 0xEC442F05 PUSH1 0xE0 SHL DUP2 MSTORE PUSH0 PUSH1 0x4 DUP3 ADD MSTORE PUSH1 0x24 ADD PUSH2 0xA65 JUMP JUMPDEST PUSH2 0x1281 DUP4 DUP4 DUP4 PUSH2 0x2857 JUMP JUMPDEST PUSH1 0x1 PUSH1 0x1 PUSH1 0xA0 SHL SUB DUP3 AND PUSH2 0x252F JUMPI PUSH1 0x40 MLOAD PUSH4 0x4B637E8F PUSH1 0xE1 SHL DUP2 MSTORE PUSH0 PUSH1 0x4 DUP3 ADD MSTORE PUSH1 0x24 ADD PUSH2 0xA65 JUMP JUMPDEST PUSH2 0xCBC DUP3 PUSH0 DUP4 PUSH2 0x2857 JUMP JUMPDEST PUSH1 0x40 MLOAD PUSH1 0x1 PUSH1 0x1 PUSH1 0xA0 SHL SUB DUP4 DUP2 AND PUSH1 0x24 DUP4 ADD MSTORE PUSH1 0x44 DUP3 ADD DUP4 SWAP1 MSTORE PUSH2 0x1281 SWAP2 DUP6 SWAP2 DUP3 AND SWAP1 PUSH4 0xA9059CBB SWAP1 PUSH1 0x64 ADD PUSH2 0x2401 JUMP JUMPDEST PUSH0 PUSH0 PUSH2 0x2577 DUP5 DUP5 PUSH2 0x2908 JUMP JUMPDEST SWAP1 POP DUP1 ISZERO PUSH2 0x1B1E JUMPI PUSH0 DUP5 DUP2 MSTORE PUSH1 0x8 PUSH1 0x20 MSTORE PUSH1 0x40 SWAP1 KECCAK256 PUSH2 0x2596 SWAP1 DUP5 PUSH2 0x2999 JUMP JUMPDEST POP SWAP4 SWAP3 POP POP POP JUMP JUMPDEST PUSH0 PUSH0 PUSH2 0x25AA DUP5 DUP5 PUSH2 0x29AD JUMP JUMPDEST SWAP1 POP DUP1 ISZERO PUSH2 0x1B1E JUMPI PUSH0 DUP5 DUP2 MSTORE PUSH1 0x8 PUSH1 0x20 MSTORE PUSH1 0x40 SWAP1 KECCAK256 PUSH2 0x2596 SWAP1 DUP5 PUSH2 0x2A18 JUMP JUMPDEST PUSH2 0x25D1 PUSH2 0x2A2C JUMP JUMPDEST PUSH1 0x5 DUP1 SLOAD PUSH1 0xFF NOT AND SWAP1 SSTORE PUSH32 0x5DB9EE0A495BF2E6FF9C91A7834C1BA4FDD244A5E8AA4E537BD38AEAE4B073AA CALLER JUMPDEST PUSH1 0x40 MLOAD PUSH1 0x1 PUSH1 0x1 PUSH1 0xA0 SHL SUB SWAP1 SWAP2 AND DUP2 MSTORE PUSH1 0x20 ADD PUSH1 0x40 MLOAD DUP1 SWAP2 SUB SWAP1 LOG1 JUMP JUMPDEST PUSH2 0x2623 PUSH2 0x21D0 JUMP JUMPDEST PUSH1 0x5 DUP1 SLOAD PUSH1 0xFF NOT AND PUSH1 0x1 OR SWAP1 SSTORE PUSH32 0x62E78CEA01BEE320CD4E420270B5EA74000D11B0C9F74754EBDBFC544B05A258 PUSH2 0x25FE CALLER SWAP1 JUMP JUMPDEST PUSH0 PUSH2 0x1B1E DUP4 DUP4 PUSH2 0x2A4F JUMP JUMPDEST PUSH1 0x60 PUSH0 PUSH2 0x1B1E DUP4 PUSH2 0x2A75 JUMP JUMPDEST PUSH0 PUSH2 0x9E7 DUP3 SLOAD SWAP1 JUMP JUMPDEST PUSH0 PUSH1 0x1 PUSH1 0x1 PUSH1 0xE0 SHL SUB NOT DUP3 AND PUSH4 0x7965DB0B PUSH1 0xE0 SHL EQ DUP1 PUSH2 0x9E7 JUMPI POP PUSH4 0x1FFC9A7 PUSH1 0xE0 SHL PUSH1 0x1 PUSH1 0x1 PUSH1 0xE0 SHL SUB NOT DUP4 AND EQ PUSH2 0x9E7 JUMP JUMPDEST PUSH2 0x26B6 DUP3 DUP3 PUSH2 0x1B25 JUMP JUMPDEST PUSH2 0xCBC JUMPI PUSH1 0x40 MLOAD PUSH4 0xE2517D3F PUSH1 0xE0 SHL DUP2 MSTORE PUSH1 0x1 PUSH1 0x1 PUSH1 0xA0 SHL SUB DUP3 AND PUSH1 0x4 DUP3 ADD MSTORE PUSH1 0x24 DUP2 ADD DUP4 SWAP1 MSTORE PUSH1 0x44 ADD PUSH2 0xA65 JUMP JUMPDEST PUSH1 0x1 PUSH1 0x1 PUSH1 0xA0 SHL SUB DUP5 AND PUSH2 0x270E JUMPI PUSH1 0x40 MLOAD PUSH4 0xE602DF05 PUSH1 0xE0 SHL DUP2 MSTORE PUSH0 PUSH1 0x4 DUP3 ADD MSTORE PUSH1 0x24 ADD PUSH2 0xA65 JUMP JUMPDEST PUSH1 0x1 PUSH1 0x1 PUSH1 0xA0 SHL SUB DUP4 AND PUSH2 0x2737 JUMPI PUSH1 0x40 MLOAD PUSH4 0x4A1406B1 PUSH1 0xE1 SHL DUP2 MSTORE PUSH0 PUSH1 0x4 DUP3 ADD MSTORE PUSH1 0x24 ADD PUSH2 0xA65 JUMP JUMPDEST PUSH1 0x1 PUSH1 0x1 PUSH1 0xA0 SHL SUB DUP1 DUP6 AND PUSH0 SWAP1 DUP2 MSTORE PUSH1 0x1 PUSH1 0x20 SWAP1 DUP2 MSTORE PUSH1 0x40 DUP1 DUP4 KECCAK256 SWAP4 DUP8 AND DUP4 MSTORE SWAP3 SWAP1 MSTORE KECCAK256 DUP3 SWAP1 SSTORE DUP1 ISZERO PUSH2 0x1248 JUMPI DUP3 PUSH1 0x1 PUSH1 0x1 PUSH1 0xA0 SHL SUB AND DUP5 PUSH1 0x1 PUSH1 0x1 PUSH1 0xA0 SHL SUB AND PUSH32 0x8C5BE1E5EBEC7D5BD14F71427D1E84F3DD0314C0F7B2291E5B200AC8C7C3B925 DUP5 PUSH1 0x40 MLOAD PUSH2 0x27A9 SWAP2 DUP2 MSTORE PUSH1 0x20 ADD SWAP1 JUMP JUMPDEST PUSH1 0x40 MLOAD DUP1 SWAP2 SUB SWAP1 LOG3 POP POP POP POP JUMP JUMPDEST PUSH1 0x1 PUSH1 0x1 PUSH1 0xA0 SHL SUB DUP3 AND PUSH2 0x27E0 JUMPI PUSH1 0x40 MLOAD PUSH4 0xEC442F05 PUSH1 0xE0 SHL DUP2 MSTORE PUSH0 PUSH1 0x4 DUP3 ADD MSTORE PUSH1 0x24 ADD PUSH2 0xA65 JUMP JUMPDEST PUSH2 0xCBC PUSH0 DUP4 DUP4 PUSH2 0x2857 JUMP JUMPDEST PUSH0 PUSH0 PUSH1 0x20 PUSH0 DUP5 MLOAD PUSH1 0x20 DUP7 ADD PUSH0 DUP9 GAS CALL DUP1 PUSH2 0x280A JUMPI PUSH1 0x40 MLOAD RETURNDATASIZE PUSH0 DUP3 RETURNDATACOPY RETURNDATASIZE DUP2 REVERT JUMPDEST POP POP PUSH0 MLOAD RETURNDATASIZE SWAP2 POP DUP2 ISZERO PUSH2 0x2821 JUMPI DUP1 PUSH1 0x1 EQ ISZERO PUSH2 0x282E JUMP JUMPDEST PUSH1 0x1 PUSH1 0x1 PUSH1 0xA0 SHL SUB DUP5 AND EXTCODESIZE ISZERO JUMPDEST ISZERO PUSH2 0x1248 JUMPI PUSH1 0x40 MLOAD PUSH4 0x5274AFE7 PUSH1 0xE0 SHL DUP2 MSTORE PUSH1 0x1 PUSH1 0x1 PUSH1 0xA0 SHL SUB DUP6 AND PUSH1 0x4 DUP3 ADD MSTORE PUSH1 0x24 ADD PUSH2 0xA65 JUMP JUMPDEST DUP3 PUSH2 0x2860 PUSH2 0x1F1B JUMP JUMPDEST PUSH1 0xB SSTORE TIMESTAMP PUSH1 0xA SSTORE PUSH1 0x1 PUSH1 0x1 PUSH1 0xA0 SHL SUB DUP2 AND ISZERO PUSH2 0x28AA JUMPI PUSH2 0x287F DUP2 PUSH2 0x972 JUMP JUMPDEST PUSH1 0x1 PUSH1 0x1 PUSH1 0xA0 SHL SUB DUP3 AND PUSH0 SWAP1 DUP2 MSTORE PUSH1 0x10 PUSH1 0x20 SWAP1 DUP2 MSTORE PUSH1 0x40 DUP1 DUP4 KECCAK256 SWAP4 SWAP1 SWAP4 SSTORE PUSH1 0xB SLOAD PUSH1 0xF SWAP1 SWAP2 MSTORE SWAP2 SWAP1 KECCAK256 SSTORE JUMPDEST DUP3 PUSH2 0x28B3 PUSH2 0x1F1B JUMP JUMPDEST PUSH1 0xB SSTORE TIMESTAMP PUSH1 0xA SSTORE PUSH1 0x1 PUSH1 0x1 PUSH1 0xA0 SHL SUB DUP2 AND ISZERO PUSH2 0x28FD JUMPI PUSH2 0x28D2 DUP2 PUSH2 0x972 JUMP JUMPDEST PUSH1 0x1 PUSH1 0x1 PUSH1 0xA0 SHL SUB DUP3 AND PUSH0 SWAP1 DUP2 MSTORE PUSH1 0x10 PUSH1 0x20 SWAP1 DUP2 MSTORE PUSH1 0x40 DUP1 DUP4 KECCAK256 SWAP4 SWAP1 SWAP4 SSTORE PUSH1 0xB SLOAD PUSH1 0xF SWAP1 SWAP2 MSTORE SWAP2 SWAP1 KECCAK256 SSTORE JUMPDEST PUSH2 0x1542 DUP6 DUP6 DUP6 PUSH2 0x2ACE JUMP JUMPDEST PUSH0 PUSH2 0x2913 DUP4 DUP4 PUSH2 0x1B25 JUMP JUMPDEST PUSH2 0x2992 JUMPI PUSH0 DUP4 DUP2 MSTORE PUSH1 0x7 PUSH1 0x20 SWAP1 DUP2 MSTORE PUSH1 0x40 DUP1 DUP4 KECCAK256 PUSH1 0x1 PUSH1 0x1 PUSH1 0xA0 SHL SUB DUP7 AND DUP5 MSTORE SWAP1 SWAP2 MSTORE SWAP1 KECCAK256 DUP1 SLOAD PUSH1 0xFF NOT AND PUSH1 0x1 OR SWAP1 SSTORE PUSH2 0x294A CALLER SWAP1 JUMP JUMPDEST PUSH1 0x1 PUSH1 0x1 PUSH1 0xA0 SHL SUB AND DUP3 PUSH1 0x1 PUSH1 0x1 PUSH1 0xA0 SHL SUB AND DUP5 PUSH32 0x2F8788117E7EFF1D82E926EC794901D17C78024A50270940304540A733656F0D PUSH1 0x40 MLOAD PUSH1 0x40 MLOAD DUP1 SWAP2 SUB SWAP1 LOG4 POP PUSH1 0x1 PUSH2 0x9E7 JUMP JUMPDEST POP PUSH0 PUSH2 0x9E7 JUMP JUMPDEST PUSH0 PUSH2 0x1B1E DUP4 PUSH1 0x1 PUSH1 0x1 PUSH1 0xA0 SHL SUB DUP5 AND PUSH2 0x2AE1 JUMP JUMPDEST PUSH0 PUSH2 0x29B8 DUP4 DUP4 PUSH2 0x1B25 JUMP JUMPDEST ISZERO PUSH2 0x2992 JUMPI PUSH0 DUP4 DUP2 MSTORE PUSH1 0x7 PUSH1 0x20 SWAP1 DUP2 MSTORE PUSH1 0x40 DUP1 DUP4 KECCAK256 PUSH1 0x1 PUSH1 0x1 PUSH1 0xA0 SHL SUB DUP7 AND DUP1 DUP6 MSTORE SWAP3 MSTORE DUP1 DUP4 KECCAK256 DUP1 SLOAD PUSH1 0xFF NOT AND SWAP1 SSTORE MLOAD CALLER SWAP3 DUP7 SWAP2 PUSH32 0xF6391F5C32D9C69D2A47EA670B442974B53935D1EDC7FD64EB21E047A839171B SWAP2 SWAP1 LOG4 POP PUSH1 0x1 PUSH2 0x9E7 JUMP JUMPDEST PUSH0 PUSH2 0x1B1E DUP4 PUSH1 0x1 PUSH1 0x1 PUSH1 0xA0 SHL SUB DUP5 AND PUSH2 0x2B26 JUMP JUMPDEST PUSH1 0x5 SLOAD PUSH1 0xFF AND PUSH2 0x142B JUMPI PUSH1 0x40 MLOAD PUSH4 0x8DFC202B PUSH1 0xE0 SHL DUP2 MSTORE PUSH1 0x4 ADD PUSH1 0x40 MLOAD DUP1 SWAP2 SUB SWAP1 REVERT JUMPDEST PUSH0 DUP3 PUSH0 ADD DUP3 DUP2 SLOAD DUP2 LT PUSH2 0x2A64 JUMPI PUSH2 0x2A64 PUSH2 0x3021 JUMP JUMPDEST SWAP1 PUSH0 MSTORE PUSH1 0x20 PUSH0 KECCAK256 ADD SLOAD SWAP1 POP SWAP3 SWAP2 POP POP JUMP JUMPDEST PUSH1 0x60 DUP2 PUSH0 ADD DUP1 SLOAD DUP1 PUSH1 0x20 MUL PUSH1 0x20 ADD PUSH1 0x40 MLOAD SWAP1 DUP2 ADD PUSH1 0x40 MSTORE DUP1 SWAP3 SWAP2 SWAP1 DUP2 DUP2 MSTORE PUSH1 0x20 ADD DUP3 DUP1 SLOAD DUP1 ISZERO PUSH2 0x2AC2 JUMPI PUSH1 0x20 MUL DUP3 ADD SWAP2 SWAP1 PUSH0 MSTORE PUSH1 0x20 PUSH0 KECCAK256 SWAP1 JUMPDEST DUP2 SLOAD DUP2 MSTORE PUSH1 0x20 ADD SWAP1 PUSH1 0x1 ADD SWAP1 DUP1 DUP4 GT PUSH2 0x2AAE JUMPI JUMPDEST POP POP POP POP POP SWAP1 POP SWAP2 SWAP1 POP JUMP JUMPDEST PUSH2 0x2AD6 PUSH2 0x21D0 JUMP JUMPDEST PUSH2 0x1281 DUP4 DUP4 DUP4 PUSH2 0x2C09 JUMP JUMPDEST PUSH0 DUP2 DUP2 MSTORE PUSH1 0x1 DUP4 ADD PUSH1 0x20 MSTORE PUSH1 0x40 DUP2 KECCAK256 SLOAD PUSH2 0x2992 JUMPI POP DUP2 SLOAD PUSH1 0x1 DUP2 DUP2 ADD DUP5 SSTORE PUSH0 DUP5 DUP2 MSTORE PUSH1 0x20 DUP1 DUP3 KECCAK256 SWAP1 SWAP4 ADD DUP5 SWAP1 SSTORE DUP5 SLOAD DUP5 DUP3 MSTORE DUP3 DUP7 ADD SWAP1 SWAP4 MSTORE PUSH1 0x40 SWAP1 KECCAK256 SWAP2 SWAP1 SWAP2 SSTORE PUSH2 0x9E7 JUMP JUMPDEST PUSH0 DUP2 DUP2 MSTORE PUSH1 0x1 DUP4 ADD PUSH1 0x20 MSTORE PUSH1 0x40 DUP2 KECCAK256 SLOAD DUP1 ISZERO PUSH2 0x2C00 JUMPI PUSH0 PUSH2 0x2B48 PUSH1 0x1 DUP4 PUSH2 0x2F8D JUMP JUMPDEST DUP6 SLOAD SWAP1 SWAP2 POP PUSH0 SWAP1 PUSH2 0x2B5B SWAP1 PUSH1 0x1 SWAP1 PUSH2 0x2F8D JUMP JUMPDEST SWAP1 POP DUP1 DUP3 EQ PUSH2 0x2BBA JUMPI PUSH0 DUP7 PUSH0 ADD DUP3 DUP2 SLOAD DUP2 LT PUSH2 0x2B79 JUMPI PUSH2 0x2B79 PUSH2 0x3021 JUMP JUMPDEST SWAP1 PUSH0 MSTORE PUSH1 0x20 PUSH0 KECCAK256 ADD SLOAD SWAP1 POP DUP1 DUP8 PUSH0 ADD DUP5 DUP2 SLOAD DUP2 LT PUSH2 0x2B99 JUMPI PUSH2 0x2B99 PUSH2 0x3021 JUMP JUMPDEST PUSH0 SWAP2 DUP3 MSTORE PUSH1 0x20 DUP1 DUP4 KECCAK256 SWAP1 SWAP2 ADD SWAP3 SWAP1 SWAP3 SSTORE SWAP2 DUP3 MSTORE PUSH1 0x1 DUP9 ADD SWAP1 MSTORE PUSH1 0x40 SWAP1 KECCAK256 DUP4 SWAP1 SSTORE JUMPDEST DUP6 SLOAD DUP7 SWAP1 DUP1 PUSH2 0x2BCB JUMPI PUSH2 0x2BCB PUSH2 0x30E4 JUMP JUMPDEST PUSH1 0x1 SWAP1 SUB DUP2 DUP2 SWAP1 PUSH0 MSTORE PUSH1 0x20 PUSH0 KECCAK256 ADD PUSH0 SWAP1 SSTORE SWAP1 SSTORE DUP6 PUSH1 0x1 ADD PUSH0 DUP7 DUP2 MSTORE PUSH1 0x20 ADD SWAP1 DUP2 MSTORE PUSH1 0x20 ADD PUSH0 KECCAK256 PUSH0 SWAP1 SSTORE PUSH1 0x1 SWAP4 POP POP POP POP PUSH2 0x9E7 JUMP JUMPDEST PUSH0 SWAP2 POP POP PUSH2 0x9E7 JUMP JUMPDEST PUSH1 0x1 PUSH1 0x1 PUSH1 0xA0 SHL SUB DUP4 AND PUSH2 0x2C33 JUMPI DUP1 PUSH1 0x2 PUSH0 DUP3 DUP3 SLOAD PUSH2 0x2C28 SWAP2 SWAP1 PUSH2 0x2FD6 JUMP JUMPDEST SWAP1 SWAP2 SSTORE POP PUSH2 0x2CA3 SWAP1 POP JUMP JUMPDEST PUSH1 0x1 PUSH1 0x1 PUSH1 0xA0 SHL SUB DUP4 AND PUSH0 SWAP1 DUP2 MSTORE PUSH1 0x20 DUP2 SWAP1 MSTORE PUSH1 0x40 SWAP1 KECCAK256 SLOAD DUP2 DUP2 LT ISZERO PUSH2 0x2C85 JUMPI PUSH1 0x40 MLOAD PUSH4 0x391434E3 PUSH1 0xE2 SHL DUP2 MSTORE PUSH1 0x1 PUSH1 0x1 PUSH1 0xA0 SHL SUB DUP6 AND PUSH1 0x4 DUP3 ADD MSTORE PUSH1 0x24 DUP2 ADD DUP3 SWAP1 MSTORE PUSH1 0x44 DUP2 ADD DUP4 SWAP1 MSTORE PUSH1 0x64 ADD PUSH2 0xA65 JUMP JUMPDEST PUSH1 0x1 PUSH1 0x1 PUSH1 0xA0 SHL SUB DUP5 AND PUSH0 SWAP1 DUP2 MSTORE PUSH1 0x20 DUP2 SWAP1 MSTORE PUSH1 0x40 SWAP1 KECCAK256 SWAP1 DUP3 SWAP1 SUB SWAP1 SSTORE JUMPDEST PUSH1 0x1 PUSH1 0x1 PUSH1 0xA0 SHL SUB DUP3 AND PUSH2 0x2CBF JUMPI PUSH1 0x2 DUP1 SLOAD DUP3 SWAP1 SUB SWAP1 SSTORE PUSH2 0x2CDD JUMP JUMPDEST PUSH1 0x1 PUSH1 0x1 PUSH1 0xA0 SHL SUB DUP3 AND PUSH0 SWAP1 DUP2 MSTORE PUSH1 0x20 DUP2 SWAP1 MSTORE PUSH1 0x40 SWAP1 KECCAK256 DUP1 SLOAD DUP3 ADD SWAP1 SSTORE JUMPDEST DUP2 PUSH1 0x1 PUSH1 0x1 PUSH1 0xA0 SHL SUB AND DUP4 PUSH1 0x1 PUSH1 0x1 PUSH1 0xA0 SHL SUB AND PUSH32 0xDDF252AD1BE2C89B69C2B068FC378DAA952BA7F163C4A11628F55A4DF523B3EF DUP4 PUSH1 0x40 MLOAD PUSH2 0x2D22 SWAP2 DUP2 MSTORE PUSH1 0x20 ADD SWAP1 JUMP JUMPDEST PUSH1 0x40 MLOAD DUP1 SWAP2 SUB SWAP1 LOG3 POP POP POP JUMP JUMPDEST PUSH1 0x1 PUSH1 0x1 PUSH1 0xA0 SHL SUB DUP2 AND DUP2 EQ PUSH2 0x10C0 JUMPI PUSH0 PUSH0 REVERT JUMPDEST PUSH0 PUSH1 0x20 DUP3 DUP5 SUB SLT ISZERO PUSH2 0x2D53 JUMPI PUSH0 PUSH0 REVERT JUMPDEST DUP2 CALLDATALOAD PUSH2 0x1B1E DUP2 PUSH2 0x2D2F JUMP JUMPDEST PUSH0 PUSH1 0x20 DUP3 DUP5 SUB SLT ISZERO PUSH2 0x2D6E JUMPI PUSH0 PUSH0 REVERT JUMPDEST DUP2 CALLDATALOAD PUSH1 0x1 PUSH1 0x1 PUSH1 0xE0 SHL SUB NOT DUP2 AND DUP2 EQ PUSH2 0x1B1E JUMPI PUSH0 PUSH0 REVERT JUMPDEST PUSH0 PUSH1 0x20 DUP3 DUP5 SUB SLT ISZERO PUSH2 0x2D95 JUMPI PUSH0 PUSH0 REVERT JUMPDEST POP CALLDATALOAD SWAP2 SWAP1 POP JUMP JUMPDEST PUSH1 0x20 DUP2 MSTORE PUSH0 DUP3 MLOAD DUP1 PUSH1 0x20 DUP5 ADD MSTORE DUP1 PUSH1 0x20 DUP6 ADD PUSH1 0x40 DUP6 ADD MCOPY PUSH0 PUSH1 0x40 DUP3 DUP6 ADD ADD MSTORE PUSH1 0x40 PUSH1 0x1F NOT PUSH1 0x1F DUP4 ADD AND DUP5 ADD ADD SWAP2 POP POP SWAP3 SWAP2 POP POP JUMP JUMPDEST PUSH0 PUSH0 PUSH1 0x40 DUP4 DUP6 SUB SLT ISZERO PUSH2 0x2DE2 JUMPI PUSH0 PUSH0 REVERT JUMPDEST DUP3 CALLDATALOAD PUSH2 0x2DED DUP2 PUSH2 0x2D2F JUMP JUMPDEST SWAP5 PUSH1 0x20 SWAP4 SWAP1 SWAP4 ADD CALLDATALOAD SWAP4 POP POP POP JUMP JUMPDEST PUSH0 PUSH0 PUSH1 0x40 DUP4 DUP6 SUB SLT ISZERO PUSH2 0x2E0C JUMPI PUSH0 PUSH0 REVERT JUMPDEST POP POP DUP1 CALLDATALOAD SWAP3 PUSH1 0x20 SWAP1 SWAP2 ADD CALLDATALOAD SWAP2 POP JUMP JUMPDEST PUSH0 PUSH0 PUSH0 PUSH1 0x60 DUP5 DUP7 SUB SLT ISZERO PUSH2 0x2E2D JUMPI PUSH0 PUSH0 REVERT JUMPDEST DUP4 CALLDATALOAD PUSH2 0x2E38 DUP2 PUSH2 0x2D2F JUMP JUMPDEST SWAP3 POP PUSH1 0x20 DUP5 ADD CALLDATALOAD PUSH2 0x2E48 DUP2 PUSH2 0x2D2F JUMP JUMPDEST SWAP3 SWAP6 SWAP3 SWAP5 POP POP POP PUSH1 0x40 SWAP2 SWAP1 SWAP2 ADD CALLDATALOAD SWAP1 JUMP JUMPDEST DUP2 MLOAD DUP2 MSTORE PUSH1 0x20 DUP1 DUP4 ADD MLOAD SWAP1 DUP3 ADD MSTORE PUSH1 0x40 DUP1 DUP4 ADD MLOAD ISZERO ISZERO SWAP1 DUP3 ADD MSTORE PUSH1 0x60 DUP2 ADD PUSH2 0x9E7 JUMP JUMPDEST PUSH0 PUSH0 PUSH1 0x40 DUP4 DUP6 SUB SLT ISZERO PUSH2 0x2E8D JUMPI PUSH0 PUSH0 REVERT JUMPDEST DUP3 CALLDATALOAD SWAP2 POP PUSH1 0x20 DUP4 ADD CALLDATALOAD PUSH2 0x2E9F DUP2 PUSH2 0x2D2F JUMP JUMPDEST DUP1 SWAP2 POP POP SWAP3 POP SWAP3 SWAP1 POP JUMP JUMPDEST PUSH1 0x20 DUP1 DUP3 MSTORE DUP3 MLOAD DUP3 DUP3 ADD DUP2 SWAP1 MSTORE PUSH0 SWAP2 DUP5 ADD SWAP1 PUSH1 0x40 DUP5 ADD SWAP1 DUP4 JUMPDEST DUP2 DUP2 LT ISZERO PUSH2 0x2EEA JUMPI DUP4 MLOAD PUSH1 0x1 PUSH1 0x1 PUSH1 0xA0 SHL SUB AND DUP4 MSTORE PUSH1 0x20 SWAP4 DUP5 ADD SWAP4 SWAP1 SWAP3 ADD SWAP2 PUSH1 0x1 ADD PUSH2 0x2EC3 JUMP JUMPDEST POP SWAP1 SWAP6 SWAP5 POP POP POP POP POP JUMP JUMPDEST PUSH1 0x20 DUP1 DUP3 MSTORE DUP3 MLOAD DUP3 DUP3 ADD DUP2 SWAP1 MSTORE PUSH0 SWAP2 DUP5 ADD SWAP1 PUSH1 0x40 DUP5 ADD SWAP1 DUP4 JUMPDEST DUP2 DUP2 LT ISZERO PUSH2 0x2EEA JUMPI PUSH2 0x2F37 DUP4 DUP6 MLOAD DUP1 MLOAD DUP3 MSTORE PUSH1 0x20 DUP1 DUP3 ADD MLOAD SWAP1 DUP4 ADD MSTORE PUSH1 0x40 SWAP1 DUP2 ADD MLOAD ISZERO ISZERO SWAP2 ADD MSTORE JUMP JUMPDEST PUSH1 0x20 SWAP4 SWAP1 SWAP4 ADD SWAP3 PUSH1 0x60 SWAP3 SWAP1 SWAP3 ADD SWAP2 PUSH1 0x1 ADD PUSH2 0x2F0E JUMP JUMPDEST PUSH0 PUSH0 PUSH1 0x40 DUP4 DUP6 SUB SLT ISZERO PUSH2 0x2F5E JUMPI PUSH0 PUSH0 REVERT JUMPDEST DUP3 CALLDATALOAD PUSH2 0x2F69 DUP2 PUSH2 0x2D2F JUMP JUMPDEST SWAP2 POP PUSH1 0x20 DUP4 ADD CALLDATALOAD PUSH2 0x2E9F DUP2 PUSH2 0x2D2F JUMP JUMPDEST PUSH4 0x4E487B71 PUSH1 0xE0 SHL PUSH0 MSTORE PUSH1 0x11 PUSH1 0x4 MSTORE PUSH1 0x24 PUSH0 REVERT JUMPDEST DUP2 DUP2 SUB DUP2 DUP2 GT ISZERO PUSH2 0x9E7 JUMPI PUSH2 0x9E7 PUSH2 0x2F79 JUMP JUMPDEST DUP1 DUP3 MUL DUP2 ISZERO DUP3 DUP3 DIV DUP5 EQ OR PUSH2 0x9E7 JUMPI PUSH2 0x9E7 PUSH2 0x2F79 JUMP JUMPDEST PUSH0 DUP3 PUSH2 0x2FD1 JUMPI PUSH4 0x4E487B71 PUSH1 0xE0 SHL PUSH0 MSTORE PUSH1 0x12 PUSH1 0x4 MSTORE PUSH1 0x24 PUSH0 REVERT JUMPDEST POP DIV SWAP1 JUMP JUMPDEST DUP1 DUP3 ADD DUP1 DUP3 GT ISZERO PUSH2 0x9E7 JUMPI PUSH2 0x9E7 PUSH2 0x2F79 JUMP JUMPDEST PUSH1 0x1 DUP2 DUP2 SHR SWAP1 DUP3 AND DUP1 PUSH2 0x2FFD JUMPI PUSH1 0x7F DUP3 AND SWAP2 POP JUMPDEST PUSH1 0x20 DUP3 LT DUP2 SUB PUSH2 0x301B JUMPI PUSH4 0x4E487B71 PUSH1 0xE0 SHL PUSH0 MSTORE PUSH1 0x22 PUSH1 0x4 MSTORE PUSH1 0x24 PUSH0 REVERT JUMPDEST POP SWAP2 SWAP1 POP JUMP JUMPDEST PUSH4 0x4E487B71 PUSH1 0xE0 SHL PUSH0 MSTORE PUSH1 0x32 PUSH1 0x4 MSTORE PUSH1 0x24 PUSH0 REVERT JUMPDEST PUSH1 0x1 PUSH1 0x1 PUSH1 0xA0 SHL SUB SWAP2 SWAP1 SWAP2 AND DUP2 MSTORE PUSH1 0x40 PUSH1 0x20 DUP3 ADD DUP2 SWAP1 MSTORE PUSH1 0x33 SWAP1 DUP3 ADD MSTORE PUSH32 0x596F7520617265206E6F7420616C6C6F77656420746F20696E74657261637420 PUSH1 0x60 DUP3 ADD MSTORE PUSH19 0x3BB4BA34103A3434B99031B7B73A3930B1BA17 PUSH1 0x69 SHL PUSH1 0x80 DUP3 ADD MSTORE PUSH1 0xA0 ADD SWAP1 JUMP JUMPDEST PUSH0 PUSH1 0x1 DUP3 ADD PUSH2 0x30AB JUMPI PUSH2 0x30AB PUSH2 0x2F79 JUMP JUMPDEST POP PUSH1 0x1 ADD SWAP1 JUMP JUMPDEST PUSH0 PUSH1 0x20 DUP3 DUP5 SUB SLT ISZERO PUSH2 0x30C2 JUMPI PUSH0 PUSH0 REVERT JUMPDEST POP MLOAD SWAP2 SWAP1 POP JUMP JUMPDEST PUSH0 PUSH1 0x20 DUP3 DUP5 SUB SLT ISZERO PUSH2 0x30D9 JUMPI PUSH0 PUSH0 REVERT JUMPDEST DUP2 MLOAD PUSH2 0x1B1E DUP2 PUSH2 0x2D2F JUMP JUMPDEST PUSH4 0x4E487B71 PUSH1 0xE0 SHL PUSH0 MSTORE PUSH1 0x31 PUSH1 0x4 MSTORE PUSH1 0x24 PUSH0 REVERT INVALID LOG4 SWAP9 SMOD KECCAK256 TLOAD RETF 0xD3 SSTORE MULMOD 0x2E CREATE2 0xA8 LOG1 DUP16 JUMP 0xE8 SWAP2 EXTCODECOPY DELEGATECALL LOG2 ADD EXTSTATICCALL 0xE2 DUP8 DUP3 JUMPDEST MULMOD JUMP SWAP4 0xC2 OR PUSH22 0xA2646970667358221220C4FD6ED9FC91218B681624CB 0xF DELEGATECALL EXTSTATICCALL 0xB3 0x1F SIGNEXTEND 0xAE STOP BASEFEE EXTCALL EXTCODESIZE CODECOPY SSTORE PUSH18 0x958DB8D4935764736F6C634300081D003300 "
		},
		"gasEstimates": {
			"creation": {
				"codeDepositCost": "2524400",
				"executionCost": "infinite",
				"totalCost": "infinite"
			},
			"external": {
				"ADMIN_ROLE()": "infinite",
				"DEFAULT_ADMIN_ROLE()": "272",
				"PAUSER_ROLE()": "271",
				"allowance(address,address)": "infinite",
				"approve(address,uint256)": "24814",
				"balanceOf(address)": "2587",
				"blacklist(address)": "2654",
				"blacklistWallet(address)": "infinite",
				"claimFee()": "2395",
				"decimals()": "311",
				"earned(address)": "infinite",
				"emergencyWithdrawERC20(address,address,uint256)": "infinite",
				"emergencyWithdrawERC721(address,address,uint256)": "infinite",
				"emergencyWithdrawETH(address,uint256)": "infinite",
				"exit()": "infinite",
				"getLockedBalance(address)": "infinite",
				"getReward()": "infinite",
				"getRewardForDuration()": "2531",
				"getRewardsPerDay()": "2462",
				"getRoleAdmin(bytes32)": "2542",
				"getRoleMember(bytes32,uint256)": "infinite",
				"getRoleMemberCount(bytes32)": "infinite",
				"getRoleMembers(bytes32)": "infinite",
				"getStakePosition(address,uint256)": "11585",
				"getUnlockedBalance(address)": "infinite",
				"getUserStakePositionCount(address)": "2608",
				"getUserStakePositions(address)": "infinite",
				"grantRole(bytes32,address)": "infinite",
				"hasRole(bytes32,address)": "2728",
				"isBlacklisted(address)": "2694",
				"lastStakeTime(address)": "2654",
				"lastUpdateTime()": "2395",
				"minimumLockDuration()": "2417",
				"name()": "infinite",
				"pause()": "infinite",
				"paused()": "2415",
				"reclaim()": "infinite",
				"releaseRewards()": "infinite",
				"renounceRole(bytes32,address)": "infinite",
				"revokeRole(bytes32,address)": "infinite",
				"rewardPerToken()": "infinite",
				"rewardPerTokenStored()": "2416",
				"rewardRate()": "2416",
				"rewards(address)": "2590",
				"rewardsAvailableDate()": "2375",
				"rewardsToken()": "infinite",
				"setClaimFee(uint256)": "infinite",
				"setMinimumLockDuration(uint256)": "infinite",
				"setRewardRate(uint256)": "infinite",
				"stake(uint256)": "infinite",
				"stakeWithBonus(uint256,uint256)": "infinite",
				"stakingToken()": "infinite",
				"supplyRewards(uint256)": "infinite",
				"supportsInterface(bytes4)": "infinite",
				"symbol()": "infinite",
				"totalSupply()": "2349",
				"transfer(address,uint256)": "infinite",
				"transferFrom(address,address,uint256)": "infinite",
				"unblacklistWallet(address)": "infinite",
				"unpause()": "infinite",
				"userRewardPerTokenPaid(address)": "2612",
				"userStakeCount(address)": "2610",
				"userStakePositions(address,uint256)": "9099",
				"userStaked(address)": "2588",
				"withdraw(uint256)": "infinite",
				"withdrawStakePosition(uint256)": "infinite"
			},
			"internal": {
				"_stakeWithLock(address,uint256,uint256)": "infinite",
				"_update(address,address,uint256)": "infinite"
			}
		},
		"methodIdentifiers": {
			"ADMIN_ROLE()": "75b238fc",
			"DEFAULT_ADMIN_ROLE()": "a217fddf",
			"PAUSER_ROLE()": "e63ab1e9",
			"allowance(address,address)": "dd62ed3e",
			"approve(address,uint256)": "095ea7b3",
			"balanceOf(address)": "70a08231",
			"blacklist(address)": "f9f92be4",
			"blacklistWallet(address)": "62441bf6",
			"claimFee()": "99d32fc4",
			"decimals()": "313ce567",
			"earned(address)": "008cc262",
			"emergencyWithdrawERC20(address,address,uint256)": "55b8fb81",
			"emergencyWithdrawERC721(address,address,uint256)": "b72b85a1",
			"emergencyWithdrawETH(address,uint256)": "d79e8567",
			"exit()": "e9fad8ee",
			"getLockedBalance(address)": "c4086893",
			"getReward()": "3d18b912",
			"getRewardForDuration()": "1c1f78eb",
			"getRewardsPerDay()": "e4bd248e",
			"getRoleAdmin(bytes32)": "248a9ca3",
			"getRoleMember(bytes32,uint256)": "9010d07c",
			"getRoleMemberCount(bytes32)": "ca15c873",
			"getRoleMembers(bytes32)": "a3246ad3",
			"getStakePosition(address,uint256)": "2e569eff",
			"getUnlockedBalance(address)": "129de5bf",
			"getUserStakePositionCount(address)": "1935ffec",
			"getUserStakePositions(address)": "dc21fb76",
			"grantRole(bytes32,address)": "2f2ff15d",
			"hasRole(bytes32,address)": "91d14854",
			"isBlacklisted(address)": "fe575a87",
			"lastStakeTime(address)": "7bb1ca19",
			"lastUpdateTime()": "c8f33c91",
			"minimumLockDuration()": "9d86b850",
			"name()": "06fdde03",
			"pause()": "8456cb59",
			"paused()": "5c975abb",
			"reclaim()": "80e9071b",
			"releaseRewards()": "d0fab3ca",
			"renounceRole(bytes32,address)": "36568abe",
			"revokeRole(bytes32,address)": "d547741f",
			"rewardPerToken()": "cd3daf9d",
			"rewardPerTokenStored()": "df136d65",
			"rewardRate()": "7b0a47ee",
			"rewards(address)": "0700037d",
			"rewardsAvailableDate()": "013e9dd4",
			"rewardsToken()": "d1af0c7d",
			"setClaimFee(uint256)": "2e75ab50",
			"setMinimumLockDuration(uint256)": "04f6c0ef",
			"setRewardRate(uint256)": "9e447fc6",
			"stake(uint256)": "a694fc3a",
			"stakeWithBonus(uint256,uint256)": "1b7447f1",
			"stakingToken()": "72f702f3",
			"supplyRewards(uint256)": "2377b2a8",
			"supportsInterface(bytes4)": "01ffc9a7",
			"symbol()": "95d89b41",
			"totalSupply()": "18160ddd",
			"transfer(address,uint256)": "a9059cbb",
			"transferFrom(address,address,uint256)": "23b872dd",
			"unblacklistWallet(address)": "5b34bc41",
			"unpause()": "3f4ba83a",
			"userRewardPerTokenPaid(address)": "8b876347",
			"userStakeCount(address)": "b02e64a9",
			"userStakePositions(address,uint256)": "b8c6a929",
			"userStaked(address)": "acc3a939",
			"withdraw(uint256)": "2e1a7d4d",
			"withdrawStakePosition(uint256)": "5bdeab61"
		}
	},
	"abi": [
		{
			"inputs": [
				{
					"internalType": "address",
					"name": "_admin",
					"type": "address"
				},
				{
					"internalType": "address",
					"name": "_rewardsToken",
					"type": "address"
				},
				{
					"internalType": "address",
					"name": "_stakingToken",
					"type": "address"
				}
			],
			"stateMutability": "nonpayable",
			"type": "constructor"
		},
		{
			"inputs": [],
			"name": "AccessControlBadConfirmation",
			"type": "error"
		},
		{
			"inputs": [
				{
					"internalType": "address",
					"name": "account",
					"type": "address"
				},
				{
					"internalType": "bytes32",
					"name": "neededRole",
					"type": "bytes32"
				}
			],
			"name": "AccessControlUnauthorizedAccount",
			"type": "error"
		},
		{
			"inputs": [
				{
					"internalType": "uint256",
					"name": "currentTime",
					"type": "uint256"
				},
				{
					"internalType": "uint256",
					"name": "unlockTime",
					"type": "uint256"
				}
			],
			"name": "DepositStillLocked",
			"type": "error"
		},
		{
			"inputs": [
				{
					"internalType": "address",
					"name": "spender",
					"type": "address"
				},
				{
					"internalType": "uint256",
					"name": "allowance",
					"type": "uint256"
				},
				{
					"internalType": "uint256",
					"name": "needed",
					"type": "uint256"
				}
			],
			"name": "ERC20InsufficientAllowance",
			"type": "error"
		},
		{
			"inputs": [
				{
					"internalType": "address",
					"name": "sender",
					"type": "address"
				},
				{
					"internalType": "uint256",
					"name": "balance",
					"type": "uint256"
				},
				{
					"internalType": "uint256",
					"name": "needed",
					"type": "uint256"
				}
			],
			"name": "ERC20InsufficientBalance",
			"type": "error"
		},
		{
			"inputs": [
				{
					"internalType": "address",
					"name": "approver",
					"type": "address"
				}
			],
			"name": "ERC20InvalidApprover",
			"type": "error"
		},
		{
			"inputs": [
				{
					"internalType": "address",
					"name": "receiver",
					"type": "address"
				}
			],
			"name": "ERC20InvalidReceiver",
			"type": "error"
		},
		{
			"inputs": [
				{
					"internalType": "address",
					"name": "sender",
					"type": "address"
				}
			],
			"name": "ERC20InvalidSender",
			"type": "error"
		},
		{
			"inputs": [
				{
					"internalType": "address",
					"name": "spender",
					"type": "address"
				}
			],
			"name": "ERC20InvalidSpender",
			"type": "error"
		},
		{
			"inputs": [],
			"name": "EnforcedPause",
			"type": "error"
		},
		{
			"inputs": [],
			"name": "ExpectedPause",
			"type": "error"
		},
		{
			"inputs": [
				{
					"internalType": "uint256",
					"name": "requested",
					"type": "uint256"
				},
				{
					"internalType": "uint256",
					"name": "available",
					"type": "uint256"
				}
			],
			"name": "InsufficientUnlockedBalance",
			"type": "error"
		},
		{
			"inputs": [
				{
					"internalType": "uint256",
					"name": "stakeId",
					"type": "uint256"
				}
			],
			"name": "InvalidStakeId",
			"type": "error"
		},
		{
			"inputs": [
				{
					"internalType": "address",
					"name": "account",
					"type": "address"
				},
				{
					"internalType": "string",
					"name": "reason",
					"type": "string"
				}
			],
			"name": "IsBlacklisted",
			"type": "error"
		},
		{
			"inputs": [
				{
					"internalType": "uint256",
					"name": "provided",
					"type": "uint256"
				},
				{
					"internalType": "uint256",
					"name": "minimum",
					"type": "uint256"
				}
			],
			"name": "LockDurationTooShort",
			"type": "error"
		},
		{
			"inputs": [],
			"name": "ReentrancyGuardReentrantCall",
			"type": "error"
		},
		{
			"inputs": [
				{
					"internalType": "address",
					"name": "token",
					"type": "address"
				}
			],
			"name": "SafeERC20FailedOperation",
			"type": "error"
		},
		{
			"anonymous": false,
			"inputs": [
				{
					"indexed": true,
					"internalType": "address",
					"name": "owner",
					"type": "address"
				},
				{
					"indexed": true,
					"internalType": "address",
					"name": "spender",
					"type": "address"
				},
				{
					"indexed": false,
					"internalType": "uint256",
					"name": "value",
					"type": "uint256"
				}
			],
			"name": "Approval",
			"type": "event"
		},
		{
			"anonymous": false,
			"inputs": [
				{
					"indexed": true,
					"internalType": "address",
					"name": "account",
					"type": "address"
				}
			],
			"name": "BlacklistAdded",
			"type": "event"
		},
		{
			"anonymous": false,
			"inputs": [
				{
					"indexed": true,
					"internalType": "address",
					"name": "account",
					"type": "address"
				}
			],
			"name": "BlacklistRemoved",
			"type": "event"
		},
		{
			"anonymous": false,
			"inputs": [
				{
					"indexed": false,
					"internalType": "uint256",
					"name": "fee",
					"type": "uint256"
				}
			],
			"name": "ClaimFeeSet",
			"type": "event"
		},
		{
			"anonymous": false,
			"inputs": [
				{
					"indexed": false,
					"internalType": "uint256",
					"name": "duration",
					"type": "uint256"
				}
			],
			"name": "MinimumLockDurationSet",
			"type": "event"
		},
		{
			"anonymous": false,
			"inputs": [
				{
					"indexed": false,
					"internalType": "address",
					"name": "account",
					"type": "address"
				}
			],
			"name": "Paused",
			"type": "event"
		},
		{
			"anonymous": false,
			"inputs": [
				{
					"indexed": false,
					"internalType": "uint256",
					"name": "reward",
					"type": "uint256"
				}
			],
			"name": "RewardAdded",
			"type": "event"
		},
		{
			"anonymous": false,
			"inputs": [
				{
					"indexed": true,
					"internalType": "address",
					"name": "user",
					"type": "address"
				},
				{
					"indexed": false,
					"internalType": "uint256",
					"name": "reward",
					"type": "uint256"
				}
			],
			"name": "RewardPaid",
			"type": "event"
		},
		{
			"anonymous": false,
			"inputs": [
				{
					"indexed": false,
					"internalType": "uint256",
					"name": "rewardRate",
					"type": "uint256"
				}
			],
			"name": "RewardRateSet",
			"type": "event"
		},
		{
			"anonymous": false,
			"inputs": [
				{
					"indexed": false,
					"internalType": "uint256",
					"name": "timestampAvailable",
					"type": "uint256"
				}
			],
			"name": "RewardsMadeAvailable",
			"type": "event"
		},
		{
			"anonymous": false,
			"inputs": [
				{
					"indexed": true,
					"internalType": "bytes32",
					"name": "role",
					"type": "bytes32"
				},
				{
					"indexed": true,
					"internalType": "bytes32",
					"name": "previousAdminRole",
					"type": "bytes32"
				},
				{
					"indexed": true,
					"internalType": "bytes32",
					"name": "newAdminRole",
					"type": "bytes32"
				}
			],
			"name": "RoleAdminChanged",
			"type": "event"
		},
		{
			"anonymous": false,
			"inputs": [
				{
					"indexed": true,
					"internalType": "bytes32",
					"name": "role",
					"type": "bytes32"
				},
				{
					"indexed": true,
					"internalType": "address",
					"name": "account",
					"type": "address"
				},
				{
					"indexed": true,
					"internalType": "address",
					"name": "sender",
					"type": "address"
				}
			],
			"name": "RoleGranted",
			"type": "event"
		},
		{
			"anonymous": false,
			"inputs": [
				{
					"indexed": true,
					"internalType": "bytes32",
					"name": "role",
					"type": "bytes32"
				},
				{
					"indexed": true,
					"internalType": "address",
					"name": "account",
					"type": "address"
				},
				{
					"indexed": true,
					"internalType": "address",
					"name": "sender",
					"type": "address"
				}
			],
			"name": "RoleRevoked",
			"type": "event"
		},
		{
			"anonymous": false,
			"inputs": [
				{
					"indexed": true,
					"internalType": "address",
					"name": "account",
					"type": "address"
				},
				{
					"indexed": false,
					"internalType": "uint256",
					"name": "amount",
					"type": "uint256"
				}
			],
			"name": "StakeReturnedDueToBlacklist",
			"type": "event"
		},
		{
			"anonymous": false,
			"inputs": [
				{
					"indexed": true,
					"internalType": "address",
					"name": "user",
					"type": "address"
				},
				{
					"indexed": false,
					"internalType": "uint256",
					"name": "amount",
					"type": "uint256"
				},
				{
					"indexed": false,
					"internalType": "uint256",
					"name": "lock",
					"type": "uint256"
				}
			],
			"name": "Staked",
			"type": "event"
		},
		{
			"anonymous": false,
			"inputs": [
				{
					"indexed": true,
					"internalType": "address",
					"name": "from",
					"type": "address"
				},
				{
					"indexed": true,
					"internalType": "address",
					"name": "to",
					"type": "address"
				},
				{
					"indexed": false,
					"internalType": "uint256",
					"name": "value",
					"type": "uint256"
				}
			],
			"name": "Transfer",
			"type": "event"
		},
		{
			"anonymous": false,
			"inputs": [
				{
					"indexed": false,
					"internalType": "address",
					"name": "account",
					"type": "address"
				}
			],
			"name": "Unpaused",
			"type": "event"
		},
		{
			"anonymous": false,
			"inputs": [
				{
					"indexed": true,
					"internalType": "address",
					"name": "user",
					"type": "address"
				},
				{
					"indexed": false,
					"internalType": "uint256",
					"name": "amount",
					"type": "uint256"
				}
			],
			"name": "Withdrawn",
			"type": "event"
		},
		{
			"inputs": [],
			"name": "ADMIN_ROLE",
			"outputs": [
				{
					"internalType": "bytes32",
					"name": "",
					"type": "bytes32"
				}
			],
			"stateMutability": "view",
			"type": "function"
		},
		{
			"inputs": [],
			"name": "DEFAULT_ADMIN_ROLE",
			"outputs": [
				{
					"internalType": "bytes32",
					"name": "",
					"type": "bytes32"
				}
			],
			"stateMutability": "view",
			"type": "function"
		},
		{
			"inputs": [],
			"name": "PAUSER_ROLE",
			"outputs": [
				{
					"internalType": "bytes32",
					"name": "",
					"type": "bytes32"
				}
			],
			"stateMutability": "view",
			"type": "function"
		},
		{
			"inputs": [
				{
					"internalType": "address",
					"name": "owner",
					"type": "address"
				},
				{
					"internalType": "address",
					"name": "spender",
					"type": "address"
				}
			],
			"name": "allowance",
			"outputs": [
				{
					"internalType": "uint256",
					"name": "",
					"type": "uint256"
				}
			],
			"stateMutability": "view",
			"type": "function"
		},
		{
			"inputs": [
				{
					"internalType": "address",
					"name": "spender",
					"type": "address"
				},
				{
					"internalType": "uint256",
					"name": "value",
					"type": "uint256"
				}
			],
			"name": "approve",
			"outputs": [
				{
					"internalType": "bool",
					"name": "",
					"type": "bool"
				}
			],
			"stateMutability": "nonpayable",
			"type": "function"
		},
		{
			"inputs": [
				{
					"internalType": "address",
					"name": "account",
					"type": "address"
				}
			],
			"name": "balanceOf",
			"outputs": [
				{
					"internalType": "uint256",
					"name": "",
					"type": "uint256"
				}
			],
			"stateMutability": "view",
			"type": "function"
		},
		{
			"inputs": [
				{
					"internalType": "address",
					"name": "",
					"type": "address"
				}
			],
			"name": "blacklist",
			"outputs": [
				{
					"internalType": "bool",
					"name": "",
					"type": "bool"
				}
			],
			"stateMutability": "view",
			"type": "function"
		},
		{
			"inputs": [
				{
					"internalType": "address",
					"name": "account",
					"type": "address"
				}
			],
			"name": "blacklistWallet",
			"outputs": [],
			"stateMutability": "nonpayable",
			"type": "function"
		},
		{
			"inputs": [],
			"name": "claimFee",
			"outputs": [
				{
					"internalType": "uint256",
					"name": "",
					"type": "uint256"
				}
			],
			"stateMutability": "view",
			"type": "function"
		},
		{
			"inputs": [],
			"name": "decimals",
			"outputs": [
				{
					"internalType": "uint8",
					"name": "",
					"type": "uint8"
				}
			],
			"stateMutability": "view",
			"type": "function"
		},
		{
			"inputs": [
				{
					"internalType": "address",
					"name": "account",
					"type": "address"
				}
			],
			"name": "earned",
			"outputs": [
				{
					"internalType": "uint256",
					"name": "",
					"type": "uint256"
				}
			],
			"stateMutability": "view",
			"type": "function"
		},
		{
			"inputs": [
				{
					"internalType": "address",
					"name": "tokenAddress",
					"type": "address"
				},
				{
					"internalType": "address",
					"name": "recipient",
					"type": "address"
				},
				{
					"internalType": "uint256",
					"name": "amount",
					"type": "uint256"
				}
			],
			"name": "emergencyWithdrawERC20",
			"outputs": [],
			"stateMutability": "nonpayable",
			"type": "function"
		},
		{
			"inputs": [
				{
					"internalType": "address",
					"name": "tokenAddress",
					"type": "address"
				},
				{
					"internalType": "address",
					"name": "recipient",
					"type": "address"
				},
				{
					"internalType": "uint256",
					"name": "tokenId",
					"type": "uint256"
				}
			],
			"name": "emergencyWithdrawERC721",
			"outputs": [],
			"stateMutability": "nonpayable",
			"type": "function"
		},
		{
			"inputs": [
				{
					"internalType": "address payable",
					"name": "recipient",
					"type": "address"
				},
				{
					"internalType": "uint256",
					"name": "amount",
					"type": "uint256"
				}
			],
			"name": "emergencyWithdrawETH",
			"outputs": [],
			"stateMutability": "nonpayable",
			"type": "function"
		},
		{
			"inputs": [],
			"name": "exit",
			"outputs": [],
			"stateMutability": "nonpayable",
			"type": "function"
		},
		{
			"inputs": [
				{
					"internalType": "address",
					"name": "account",
					"type": "address"
				}
			],
			"name": "getLockedBalance",
			"outputs": [
				{
					"internalType": "uint256",
					"name": "",
					"type": "uint256"
				}
			],
			"stateMutability": "view",
			"type": "function"
		},
		{
			"inputs": [],
			"name": "getReward",
			"outputs": [],
			"stateMutability": "nonpayable",
			"type": "function"
		},
		{
			"inputs": [],
			"name": "getRewardForDuration",
			"outputs": [
				{
					"internalType": "uint256",
					"name": "",
					"type": "uint256"
				}
			],
			"stateMutability": "view",
			"type": "function"
		},
		{
			"inputs": [],
			"name": "getRewardsPerDay",
			"outputs": [
				{
					"internalType": "uint256",
					"name": "rewardsPerDay",
					"type": "uint256"
				}
			],
			"stateMutability": "view",
			"type": "function"
		},
		{
			"inputs": [
				{
					"internalType": "bytes32",
					"name": "role",
					"type": "bytes32"
				}
			],
			"name": "getRoleAdmin",
			"outputs": [
				{
					"internalType": "bytes32",
					"name": "",
					"type": "bytes32"
				}
			],
			"stateMutability": "view",
			"type": "function"
		},
		{
			"inputs": [
				{
					"internalType": "bytes32",
					"name": "role",
					"type": "bytes32"
				},
				{
					"internalType": "uint256",
					"name": "index",
					"type": "uint256"
				}
			],
			"name": "getRoleMember",
			"outputs": [
				{
					"internalType": "address",
					"name": "",
					"type": "address"
				}
			],
			"stateMutability": "view",
			"type": "function"
		},
		{
			"inputs": [
				{
					"internalType": "bytes32",
					"name": "role",
					"type": "bytes32"
				}
			],
			"name": "getRoleMemberCount",
			"outputs": [
				{
					"internalType": "uint256",
					"name": "",
					"type": "uint256"
				}
			],
			"stateMutability": "view",
			"type": "function"
		},
		{
			"inputs": [
				{
					"internalType": "bytes32",
					"name": "role",
					"type": "bytes32"
				}
			],
			"name": "getRoleMembers",
			"outputs": [
				{
					"internalType": "address[]",
					"name": "",
					"type": "address[]"
				}
			],
			"stateMutability": "view",
			"type": "function"
		},
		{
			"inputs": [
				{
					"internalType": "address",
					"name": "account",
					"type": "address"
				},
				{
					"internalType": "uint256",
					"name": "stakeId",
					"type": "uint256"
				}
			],
			"name": "getStakePosition",
			"outputs": [
				{
					"components": [
						{
							"internalType": "uint256",
							"name": "amount",
							"type": "uint256"
						},
						{
							"internalType": "uint256",
							"name": "unlockTime",
							"type": "uint256"
						},
						{
							"internalType": "bool",
							"name": "withdrawn",
							"type": "bool"
						}
					],
					"internalType": "struct FixedStakingRewards.StakePosition",
					"name": "",
					"type": "tuple"
				}
			],
			"stateMutability": "view",
			"type": "function"
		},
		{
			"inputs": [
				{
					"internalType": "address",
					"name": "account",
					"type": "address"
				}
			],
			"name": "getUnlockedBalance",
			"outputs": [
				{
					"internalType": "uint256",
					"name": "",
					"type": "uint256"
				}
			],
			"stateMutability": "view",
			"type": "function"
		},
		{
			"inputs": [
				{
					"internalType": "address",
					"name": "account",
					"type": "address"
				}
			],
			"name": "getUserStakePositionCount",
			"outputs": [
				{
					"internalType": "uint256",
					"name": "",
					"type": "uint256"
				}
			],
			"stateMutability": "view",
			"type": "function"
		},
		{
			"inputs": [
				{
					"internalType": "address",
					"name": "account",
					"type": "address"
				}
			],
			"name": "getUserStakePositions",
			"outputs": [
				{
					"components": [
						{
							"internalType": "uint256",
							"name": "amount",
							"type": "uint256"
						},
						{
							"internalType": "uint256",
							"name": "unlockTime",
							"type": "uint256"
						},
						{
							"internalType": "bool",
							"name": "withdrawn",
							"type": "bool"
						}
					],
					"internalType": "struct FixedStakingRewards.StakePosition[]",
					"name": "",
					"type": "tuple[]"
				}
			],
			"stateMutability": "view",
			"type": "function"
		},
		{
			"inputs": [
				{
					"internalType": "bytes32",
					"name": "role",
					"type": "bytes32"
				},
				{
					"internalType": "address",
					"name": "account",
					"type": "address"
				}
			],
			"name": "grantRole",
			"outputs": [],
			"stateMutability": "nonpayable",
			"type": "function"
		},
		{
			"inputs": [
				{
					"internalType": "bytes32",
					"name": "role",
					"type": "bytes32"
				},
				{
					"internalType": "address",
					"name": "account",
					"type": "address"
				}
			],
			"name": "hasRole",
			"outputs": [
				{
					"internalType": "bool",
					"name": "",
					"type": "bool"
				}
			],
			"stateMutability": "view",
			"type": "function"
		},
		{
			"inputs": [
				{
					"internalType": "address",
					"name": "account",
					"type": "address"
				}
			],
			"name": "isBlacklisted",
			"outputs": [
				{
					"internalType": "bool",
					"name": "",
					"type": "bool"
				}
			],
			"stateMutability": "view",
			"type": "function"
		},
		{
			"inputs": [
				{
					"internalType": "address",
					"name": "",
					"type": "address"
				}
			],
			"name": "lastStakeTime",
			"outputs": [
				{
					"internalType": "uint256",
					"name": "",
					"type": "uint256"
				}
			],
			"stateMutability": "view",
			"type": "function"
		},
		{
			"inputs": [],
			"name": "lastUpdateTime",
			"outputs": [
				{
					"internalType": "uint256",
					"name": "",
					"type": "uint256"
				}
			],
			"stateMutability": "view",
			"type": "function"
		},
		{
			"inputs": [],
			"name": "minimumLockDuration",
			"outputs": [
				{
					"internalType": "uint256",
					"name": "",
					"type": "uint256"
				}
			],
			"stateMutability": "view",
			"type": "function"
		},
		{
			"inputs": [],
			"name": "name",
			"outputs": [
				{
					"internalType": "string",
					"name": "",
					"type": "string"
				}
			],
			"stateMutability": "view",
			"type": "function"
		},
		{
			"inputs": [],
			"name": "pause",
			"outputs": [],
			"stateMutability": "nonpayable",
			"type": "function"
		},
		{
			"inputs": [],
			"name": "paused",
			"outputs": [
				{
					"internalType": "bool",
					"name": "",
					"type": "bool"
				}
			],
			"stateMutability": "view",
			"type": "function"
		},
		{
			"inputs": [],
			"name": "reclaim",
			"outputs": [],
			"stateMutability": "nonpayable",
			"type": "function"
		},
		{
			"inputs": [],
			"name": "releaseRewards",
			"outputs": [],
			"stateMutability": "nonpayable",
			"type": "function"
		},
		{
			"inputs": [
				{
					"internalType": "bytes32",
					"name": "role",
					"type": "bytes32"
				},
				{
					"internalType": "address",
					"name": "callerConfirmation",
					"type": "address"
				}
			],
			"name": "renounceRole",
			"outputs": [],
			"stateMutability": "nonpayable",
			"type": "function"
		},
		{
			"inputs": [
				{
					"internalType": "bytes32",
					"name": "role",
					"type": "bytes32"
				},
				{
					"internalType": "address",
					"name": "account",
					"type": "address"
				}
			],
			"name": "revokeRole",
			"outputs": [],
			"stateMutability": "nonpayable",
			"type": "function"
		},
		{
			"inputs": [],
			"name": "rewardPerToken",
			"outputs": [
				{
					"internalType": "uint256",
					"name": "",
					"type": "uint256"
				}
			],
			"stateMutability": "view",
			"type": "function"
		},
		{
			"inputs": [],
			"name": "rewardPerTokenStored",
			"outputs": [
				{
					"internalType": "uint256",
					"name": "",
					"type": "uint256"
				}
			],
			"stateMutability": "view",
			"type": "function"
		},
		{
			"inputs": [],
			"name": "rewardRate",
			"outputs": [
				{
					"internalType": "uint256",
					"name": "",
					"type": "uint256"
				}
			],
			"stateMutability": "view",
			"type": "function"
		},
		{
			"inputs": [
				{
					"internalType": "address",
					"name": "",
					"type": "address"
				}
			],
			"name": "rewards",
			"outputs": [
				{
					"internalType": "uint256",
					"name": "",
					"type": "uint256"
				}
			],
			"stateMutability": "view",
			"type": "function"
		},
		{
			"inputs": [],
			"name": "rewardsAvailableDate",
			"outputs": [
				{
					"internalType": "uint256",
					"name": "",
					"type": "uint256"
				}
			],
			"stateMutability": "view",
			"type": "function"
		},
		{
			"inputs": [],
			"name": "rewardsToken",
			"outputs": [
				{
					"internalType": "contract IERC20",
					"name": "",
					"type": "address"
				}
			],
			"stateMutability": "view",
			"type": "function"
		},
		{
			"inputs": [
				{
					"internalType": "uint256",
					"name": "_fee",
					"type": "uint256"
				}
			],
			"name": "setClaimFee",
			"outputs": [],
			"stateMutability": "nonpayable",
			"type": "function"
		},
		{
			"inputs": [
				{
					"internalType": "uint256",
					"name": "_minimumLockDuration",
					"type": "uint256"
				}
			],
			"name": "setMinimumLockDuration",
			"outputs": [],
			"stateMutability": "nonpayable",
			"type": "function"
		},
		{
			"inputs": [
				{
					"internalType": "uint256",
					"name": "_rewardRate",
					"type": "uint256"
				}
			],
			"name": "setRewardRate",
			"outputs": [],
			"stateMutability": "nonpayable",
			"type": "function"
		},
		{
			"inputs": [
				{
					"internalType": "uint256",
					"name": "amount",
					"type": "uint256"
				}
			],
			"name": "stake",
			"outputs": [],
			"stateMutability": "nonpayable",
			"type": "function"
		},
		{
			"inputs": [
				{
					"internalType": "uint256",
					"name": "amount",
					"type": "uint256"
				},
				{
					"internalType": "uint256",
					"name": "lock",
					"type": "uint256"
				}
			],
			"name": "stakeWithBonus",
			"outputs": [],
			"stateMutability": "nonpayable",
			"type": "function"
		},
		{
			"inputs": [],
			"name": "stakingToken",
			"outputs": [
				{
					"internalType": "contract IERC20",
					"name": "",
					"type": "address"
				}
			],
			"stateMutability": "view",
			"type": "function"
		},
		{
			"inputs": [
				{
					"internalType": "uint256",
					"name": "amount",
					"type": "uint256"
				}
			],
			"name": "supplyRewards",
			"outputs": [],
			"stateMutability": "nonpayable",
			"type": "function"
		},
		{
			"inputs": [
				{
					"internalType": "bytes4",
					"name": "interfaceId",
					"type": "bytes4"
				}
			],
			"name": "supportsInterface",
			"outputs": [
				{
					"internalType": "bool",
					"name": "",
					"type": "bool"
				}
			],
			"stateMutability": "view",
			"type": "function"
		},
		{
			"inputs": [],
			"name": "symbol",
			"outputs": [
				{
					"internalType": "string",
					"name": "",
					"type": "string"
				}
			],
			"stateMutability": "view",
			"type": "function"
		},
		{
			"inputs": [],
			"name": "totalSupply",
			"outputs": [
				{
					"internalType": "uint256",
					"name": "",
					"type": "uint256"
				}
			],
			"stateMutability": "view",
			"type": "function"
		},
		{
			"inputs": [
				{
					"internalType": "address",
					"name": "to",
					"type": "address"
				},
				{
					"internalType": "uint256",
					"name": "value",
					"type": "uint256"
				}
			],
			"name": "transfer",
			"outputs": [
				{
					"internalType": "bool",
					"name": "",
					"type": "bool"
				}
			],
			"stateMutability": "nonpayable",
			"type": "function"
		},
		{
			"inputs": [
				{
					"internalType": "address",
					"name": "from",
					"type": "address"
				},
				{
					"internalType": "address",
					"name": "to",
					"type": "address"
				},
				{
					"internalType": "uint256",
					"name": "value",
					"type": "uint256"
				}
			],
			"name": "transferFrom",
			"outputs": [
				{
					"internalType": "bool",
					"name": "",
					"type": "bool"
				}
			],
			"stateMutability": "nonpayable",
			"type": "function"
		},
		{
			"inputs": [
				{
					"internalType": "address",
					"name": "account",
					"type": "address"
				}
			],
			"name": "unblacklistWallet",
			"outputs": [],
			"stateMutability": "nonpayable",
			"type": "function"
		},
		{
			"inputs": [],
			"name": "unpause",
			"outputs": [],
			"stateMutability": "nonpayable",
			"type": "function"
		},
		{
			"inputs": [
				{
					"internalType": "address",
					"name": "",
					"type": "address"
				}
			],
			"name": "userRewardPerTokenPaid",
			"outputs": [
				{
					"internalType": "uint256",
					"name": "",
					"type": "uint256"
				}
			],
			"stateMutability": "view",
			"type": "function"
		},
		{
			"inputs": [
				{
					"internalType": "address",
					"name": "",
					"type": "address"
				}
			],
			"name": "userStakeCount",
			"outputs": [
				{
					"internalType": "uint256",
					"name": "",
					"type": "uint256"
				}
			],
			"stateMutability": "view",
			"type": "function"
		},
		{
			"inputs": [
				{
					"internalType": "address",
					"name": "",
					"type": "address"
				},
				{
					"internalType": "uint256",
					"name": "",
					"type": "uint256"
				}
			],
			"name": "userStakePositions",
			"outputs": [
				{
					"internalType": "uint256",
					"name": "amount",
					"type": "uint256"
				},
				{
					"internalType": "uint256",
					"name": "unlockTime",
					"type": "uint256"
				},
				{
					"internalType": "bool",
					"name": "withdrawn",
					"type": "bool"
				}
			],
			"stateMutability": "view",
			"type": "function"
		},
		{
			"inputs": [
				{
					"internalType": "address",
					"name": "",
					"type": "address"
				}
			],
			"name": "userStaked",
			"outputs": [
				{
					"internalType": "uint256",
					"name": "",
					"type": "uint256"
				}
			],
			"stateMutability": "view",
			"type": "function"
		},
		{
			"inputs": [
				{
					"internalType": "uint256",
					"name": "amount",
					"type": "uint256"
				}
			],
			"name": "withdraw",
			"outputs": [],
			"stateMutability": "nonpayable",
			"type": "function"
		},
		{
			"inputs": [
				{
					"internalType": "uint256",
					"name": "stakeId",
					"type": "uint256"
				}
			],
			"name": "withdrawStakePosition",
			"outputs": [],
			"stateMutability": "nonpayable",
			"type": "function"
		}
	]
}