{
	"data": {
		"bytecode": {
			"linkReferences": {},
			"object": "608060405234801561000f575f5ffd5b50604051610ed4380380610ed483398101604081905261002e9161019b565b6100385f8261006a565b506100637fa49807205ce4d355092ef5a8a18f56e8913cf4a201fbe287825b095693c217758261006a565b50506101c1565b5f8061007684846100a0565b90508015610097575f8481526001602052604090206100959084610147565b505b90505b92915050565b5f828152602081815260408083206001600160a01b038516845290915281205460ff16610140575f838152602081815260408083206001600160a01b03861684529091529020805460ff191660011790556100f83390565b6001600160a01b0316826001600160a01b0316847f2f8788117e7eff1d82e926ec794901d17c78024a50270940304540a733656f0d60405160405180910390a450600161009a565b505f61009a565b5f610097836001600160a01b0384165f81815260018301602052604081205461014057508154600181810184555f84815260208082209093018490558454848252828601909352604090209190915561009a565b5f602082840312156101ab575f5ffd5b81516001600160a01b0381168114610097575f5ffd5b610d06806101ce5f395ff3fe608060405234801561000f575f5ffd5b5060043610610106575f3560e01c80639dd373b91161009e578063cd8515cf1161006e578063cd8515cf14610250578063d547741f14610263578063e63ea40814610276578063ee99205c14610289578063f8b2cb4f1461029c575f5ffd5b80639dd373b914610203578063a217fddf14610216578063a3246ad31461021d578063ca15c8731461023d575f5ffd5b806375b238fc116100d957806375b238fc1461018a57806388671eb0146101b15780639010d07c146101c557806391d14854146101f0575f5ffd5b806301ffc9a71461010a578063248a9ca3146101325780632f2ff15d1461016257806336568abe14610177575b5f5ffd5b61011d610118366004610b31565b6102af565b60405190151581526020015b60405180910390f35b610154610140366004610b58565b5f9081526020819052604090206001015490565b604051908152602001610129565b610175610170366004610b8a565b6102bf565b005b610175610185366004610b8a565b6102e9565b6101547fa49807205ce4d355092ef5a8a18f56e8913cf4a201fbe287825b095693c2177581565b60025461011d90600160a01b900460ff1681565b6101d86101d3366004610bb4565b610321565b6040516001600160a01b039091168152602001610129565b61011d6101fe366004610b8a565b61033f565b610175610211366004610bd4565b610367565b6101545f81565b61023061022b366004610b58565b610488565b6040516101299190610bed565b61015461024b366004610b58565b6104a1565b61017561025e366004610c38565b6104b7565b610175610271366004610b8a565b61056f565b610175610284366004610c38565b610593565b6002546101d8906001600160a01b031681565b6101546102aa366004610bd4565b610624565b5f6102b98261068c565b92915050565b5f828152602081905260409020600101546102d9816106b0565b6102e383836106bd565b50505050565b6001600160a01b03811633146103125760405163334bd91960e11b815260040160405180910390fd5b61031c82826106f0565b505050565b5f828152600160205260408120610338908361071b565b9392505050565b5f918252602082815260408084206001600160a01b0393909316845291905290205460ff1690565b7fa49807205ce4d355092ef5a8a18f56e8913cf4a201fbe287825b095693c21775610391816106b0565b600254600160a01b900460ff16156103f05760405162461bcd60e51b815260206004820152601c60248201527f5374616b696e6720636f6e747261637420616c7265616479207365740000000060448201526064015b60405180910390fd5b6001600160a01b0382166104385760405162461bcd60e51b815260206004820152600f60248201526e496e76616c6964206164647265737360881b60448201526064016103e7565b600280546001600160a81b0319166001600160a01b038416908117600160a01b179091556040517f1253844b0fff3da7dd2829de816c9b4f94c238cf2bf6eb72c02c7d6f2b53beac905f90a25050565b5f8181526001602052604090206060906102b990610726565b5f8181526001602052604081206102b990610732565b6002546001600160a01b031633146105095760405162461bcd60e51b815260206004820152601560248201527413db9b1e481cdd185ada5b99c818dbdb9d1c9858dd605a1b60448201526064016103e7565b61051d6001600160a01b038316848361073b565b816001600160a01b0316836001600160a01b03167f540798df468d7b23d11f156fdb954cb19ad414d150722a7b6d55ba369dea792e8360405161056291815260200190565b60405180910390a3505050565b5f82815260208190526040902060010154610589816106b0565b6102e383836106f0565b7fa49807205ce4d355092ef5a8a18f56e8913cf4a201fbe287825b095693c217756105bd816106b0565b6105d16001600160a01b038516848461073b565b826001600160a01b0316846001600160a01b03167ff24ef89f38eadc1bde50701ad6e4d6d11a2dc24f7cf834a486991f38833285048460405161061691815260200190565b60405180910390a350505050565b6040516370a0823160e01b81523060048201525f906001600160a01b038316906370a0823190602401602060405180830381865afa158015610668573d5f5f3e3d5ffd5b505050506040513d601f19601f820116820180604052508101906102b99190610c72565b5f6001600160e01b03198216635a05180f60e01b14806102b957506102b98261078d565b6106ba81336107c1565b50565b5f5f6106c984846107fe565b90508015610338575f8481526001602052604090206106e8908461088d565b509392505050565b5f5f6106fc84846108a1565b90508015610338575f8481526001602052604090206106e8908461090a565b5f610338838361091e565b60605f61033883610944565b5f6102b9825490565b604080516001600160a01b038416602482015260448082018490528251808303909101815260649091019091526020810180516001600160e01b031663a9059cbb60e01b17905261031c90849061099d565b5f6001600160e01b03198216637965db0b60e01b14806102b957506301ffc9a760e01b6001600160e01b03198316146102b9565b6107cb828261033f565b6107fa5760405163e2517d3f60e01b81526001600160a01b0382166004820152602481018390526044016103e7565b5050565b5f610809838361033f565b610886575f838152602081815260408083206001600160a01b03861684529091529020805460ff1916600117905561083e3390565b6001600160a01b0316826001600160a01b0316847f2f8788117e7eff1d82e926ec794901d17c78024a50270940304540a733656f0d60405160405180910390a45060016102b9565b505f6102b9565b5f610338836001600160a01b038416610a09565b5f6108ac838361033f565b15610886575f838152602081815260408083206001600160a01b0386168085529252808320805460ff1916905551339286917ff6391f5c32d9c69d2a47ea670b442974b53935d1edc7fd64eb21e047a839171b9190a45060016102b9565b5f610338836001600160a01b038416610a4e565b5f825f01828154811061093357610933610c89565b905f5260205f200154905092915050565b6060815f0180548060200260200160405190810160405280929190818152602001828054801561099157602002820191905f5260205f20905b81548152602001906001019080831161097d575b50505050509050919050565b5f5f60205f8451602086015f885af1806109bc576040513d5f823e3d81fd5b50505f513d915081156109d35780600114156109e0565b6001600160a01b0384163b155b156102e357604051635274afe760e01b81526001600160a01b03851660048201526024016103e7565b5f81815260018301602052604081205461088657508154600181810184555f8481526020808220909301849055845484825282860190935260409020919091556102b9565b5f8181526001830160205260408120548015610b28575f610a70600183610c9d565b85549091505f90610a8390600190610c9d565b9050808214610ae2575f865f018281548110610aa157610aa1610c89565b905f5260205f200154905080875f018481548110610ac157610ac1610c89565b5f918252602080832090910192909255918252600188019052604090208390555b8554869080610af357610af3610cbc565b600190038181905f5260205f20015f90559055856001015f8681526020019081526020015f205f9055600193505050506102b9565b5f9150506102b9565b5f60208284031215610b41575f5ffd5b81356001600160e01b031981168114610338575f5ffd5b5f60208284031215610b68575f5ffd5b5035919050565b80356001600160a01b0381168114610b85575f5ffd5b919050565b5f5f60408385031215610b9b575f5ffd5b82359150610bab60208401610b6f565b90509250929050565b5f5f60408385031215610bc5575f5ffd5b50508035926020909101359150565b5f60208284031215610be4575f5ffd5b61033882610b6f565b602080825282518282018190525f918401906040840190835b81811015610c2d5783516001600160a01b0316835260209384019390920191600101610c06565b509095945050505050565b5f5f5f60608486031215610c4a575f5ffd5b610c5384610b6f565b9250610c6160208501610b6f565b929592945050506040919091013590565b5f60208284031215610c82575f5ffd5b5051919050565b634e487b7160e01b5f52603260045260245ffd5b818103818111156102b957634e487b7160e01b5f52601160045260245ffd5b634e487b7160e01b5f52603160045260245ffdfea2646970667358221220220ba0d45b8cb9c1c606b1ac3b2f6c84a508ba9562474b7b7a4013197d97fb5364736f6c634300081d0033",
			"opcodes": "PUSH1 0x80 PUSH1 0x40 MSTORE CALLVALUE DUP1 ISZERO PUSH2 0xF JUMPI PUSH0 PUSH0 REVERT JUMPDEST POP PUSH1 0x40 MLOAD PUSH2 0xED4 CODESIZE SUB DUP1 PUSH2 0xED4 DUP4 CODECOPY DUP2 ADD PUSH1 0x40 DUP2 SWAP1 MSTORE PUSH2 0x2E SWAP2 PUSH2 0x19B JUMP JUMPDEST PUSH2 0x38 PUSH0 DUP3 PUSH2 0x6A JUMP JUMPDEST POP PUSH2 0x63 PUSH32 0xA49807205CE4D355092EF5A8A18F56E8913CF4A201FBE287825B095693C21775 DUP3 PUSH2 0x6A JUMP JUMPDEST POP POP PUSH2 0x1C1 JUMP JUMPDEST PUSH0 DUP1 PUSH2 0x76 DUP5 DUP5 PUSH2 0xA0 JUMP JUMPDEST SWAP1 POP DUP1 ISZERO PUSH2 0x97 JUMPI PUSH0 DUP5 DUP2 MSTORE PUSH1 0x1 PUSH1 0x20 MSTORE PUSH1 0x40 SWAP1 KECCAK256 PUSH2 0x95 SWAP1 DUP5 PUSH2 0x147 JUMP JUMPDEST POP JUMPDEST SWAP1 POP JUMPDEST SWAP3 SWAP2 POP POP JUMP JUMPDEST PUSH0 DUP3 DUP2 MSTORE PUSH1 0x20 DUP2 DUP2 MSTORE PUSH1 0x40 DUP1 DUP4 KECCAK256 PUSH1 0x1 PUSH1 0x1 PUSH1 0xA0 SHL SUB DUP6 AND DUP5 MSTORE SWAP1 SWAP2 MSTORE DUP2 KECCAK256 SLOAD PUSH1 0xFF AND PUSH2 0x140 JUMPI PUSH0 DUP4 DUP2 MSTORE PUSH1 0x20 DUP2 DUP2 MSTORE PUSH1 0x40 DUP1 DUP4 KECCAK256 PUSH1 0x1 PUSH1 0x1 PUSH1 0xA0 SHL SUB DUP7 AND DUP5 MSTORE SWAP1 SWAP2 MSTORE SWAP1 KECCAK256 DUP1 SLOAD PUSH1 0xFF NOT AND PUSH1 0x1 OR SWAP1 SSTORE PUSH2 0xF8 CALLER SWAP1 JUMP JUMPDEST PUSH1 0x1 PUSH1 0x1 PUSH1 0xA0 SHL SUB AND DUP3 PUSH1 0x1 PUSH1 0x1 PUSH1 0xA0 SHL SUB AND DUP5 PUSH32 0x2F8788117E7EFF1D82E926EC794901D17C78024A50270940304540A733656F0D PUSH1 0x40 MLOAD PUSH1 0x40 MLOAD DUP1 SWAP2 SUB SWAP1 LOG4 POP PUSH1 0x1 PUSH2 0x9A JUMP JUMPDEST POP PUSH0 PUSH2 0x9A JUMP JUMPDEST PUSH0 PUSH2 0x97 DUP4 PUSH1 0x1 PUSH1 0x1 PUSH1 0xA0 SHL SUB DUP5 AND PUSH0 DUP2 DUP2 MSTORE PUSH1 0x1 DUP4 ADD PUSH1 0x20 MSTORE PUSH1 0x40 DUP2 KECCAK256 SLOAD PUSH2 0x140 JUMPI POP DUP2 SLOAD PUSH1 0x1 DUP2 DUP2 ADD DUP5 SSTORE PUSH0 DUP5 DUP2 MSTORE PUSH1 0x20 DUP1 DUP3 KECCAK256 SWAP1 SWAP4 ADD DUP5 SWAP1 SSTORE DUP5 SLOAD DUP5 DUP3 MSTORE DUP3 DUP7 ADD SWAP1 SWAP4 MSTORE PUSH1 0x40 SWAP1 KECCAK256 SWAP2 SWAP1 SWAP2 SSTORE PUSH2 0x9A JUMP JUMPDEST PUSH0 PUSH1 0x20 DUP3 DUP5 SUB SLT ISZERO PUSH2 0x1AB JUMPI PUSH0 PUSH0 REVERT JUMPDEST DUP2 MLOAD PUSH1 0x1 PUSH1 0x1 PUSH1 0xA0 SHL SUB DUP2 AND DUP2 EQ PUSH2 0x97 JUMPI PUSH0 PUSH0 REVERT JUMPDEST PUSH2 0xD06 DUP1 PUSH2 0x1CE PUSH0 CODECOPY PUSH0 RETURN INVALID PUSH1 0x80 PUSH1 0x40 MSTORE CALLVALUE DUP1 ISZERO PUSH2 0xF JUMPI PUSH0 PUSH0 REVERT JUMPDEST POP PUSH1 0x4 CALLDATASIZE LT PUSH2 0x106 JUMPI PUSH0 CALLDATALOAD PUSH1 0xE0 SHR DUP1 PUSH4 0x9DD373B9 GT PUSH2 0x9E JUMPI DUP1 PUSH4 0xCD8515CF GT PUSH2 0x6E JUMPI DUP1 PUSH4 0xCD8515CF EQ PUSH2 0x250 JUMPI DUP1 PUSH4 0xD547741F EQ PUSH2 0x263 JUMPI DUP1 PUSH4 0xE63EA408 EQ PUSH2 0x276 JUMPI DUP1 PUSH4 0xEE99205C EQ PUSH2 0x289 JUMPI DUP1 PUSH4 0xF8B2CB4F EQ PUSH2 0x29C JUMPI PUSH0 PUSH0 REVERT JUMPDEST DUP1 PUSH4 0x9DD373B9 EQ PUSH2 0x203 JUMPI DUP1 PUSH4 0xA217FDDF EQ PUSH2 0x216 JUMPI DUP1 PUSH4 0xA3246AD3 EQ PUSH2 0x21D JUMPI DUP1 PUSH4 0xCA15C873 EQ PUSH2 0x23D JUMPI PUSH0 PUSH0 REVERT JUMPDEST DUP1 PUSH4 0x75B238FC GT PUSH2 0xD9 JUMPI DUP1 PUSH4 0x75B238FC EQ PUSH2 0x18A JUMPI DUP1 PUSH4 0x88671EB0 EQ PUSH2 0x1B1 JUMPI DUP1 PUSH4 0x9010D07C EQ PUSH2 0x1C5 JUMPI DUP1 PUSH4 0x91D14854 EQ PUSH2 0x1F0 JUMPI PUSH0 PUSH0 REVERT JUMPDEST DUP1 PUSH4 0x1FFC9A7 EQ PUSH2 0x10A JUMPI DUP1 PUSH4 0x248A9CA3 EQ PUSH2 0x132 JUMPI DUP1 PUSH4 0x2F2FF15D EQ PUSH2 0x162 JUMPI DUP1 PUSH4 0x36568ABE EQ PUSH2 0x177 JUMPI JUMPDEST PUSH0 PUSH0 REVERT JUMPDEST PUSH2 0x11D PUSH2 0x118 CALLDATASIZE PUSH1 0x4 PUSH2 0xB31 JUMP JUMPDEST PUSH2 0x2AF JUMP JUMPDEST PUSH1 0x40 MLOAD SWAP1 ISZERO ISZERO DUP2 MSTORE PUSH1 0x20 ADD JUMPDEST PUSH1 0x40 MLOAD DUP1 SWAP2 SUB SWAP1 RETURN JUMPDEST PUSH2 0x154 PUSH2 0x140 CALLDATASIZE PUSH1 0x4 PUSH2 0xB58 JUMP JUMPDEST PUSH0 SWAP1 DUP2 MSTORE PUSH1 0x20 DUP2 SWAP1 MSTORE PUSH1 0x40 SWAP1 KECCAK256 PUSH1 0x1 ADD SLOAD SWAP1 JUMP JUMPDEST PUSH1 0x40 MLOAD SWAP1 DUP2 MSTORE PUSH1 0x20 ADD PUSH2 0x129 JUMP JUMPDEST PUSH2 0x175 PUSH2 0x170 CALLDATASIZE PUSH1 0x4 PUSH2 0xB8A JUMP JUMPDEST PUSH2 0x2BF JUMP JUMPDEST STOP JUMPDEST PUSH2 0x175 PUSH2 0x185 CALLDATASIZE PUSH1 0x4 PUSH2 0xB8A JUMP JUMPDEST PUSH2 0x2E9 JUMP JUMPDEST PUSH2 0x154 PUSH32 0xA49807205CE4D355092EF5A8A18F56E8913CF4A201FBE287825B095693C21775 DUP2 JUMP JUMPDEST PUSH1 0x2 SLOAD PUSH2 0x11D SWAP1 PUSH1 0x1 PUSH1 0xA0 SHL SWAP1 DIV PUSH1 0xFF AND DUP2 JUMP JUMPDEST PUSH2 0x1D8 PUSH2 0x1D3 CALLDATASIZE PUSH1 0x4 PUSH2 0xBB4 JUMP JUMPDEST PUSH2 0x321 JUMP JUMPDEST PUSH1 0x40 MLOAD PUSH1 0x1 PUSH1 0x1 PUSH1 0xA0 SHL SUB SWAP1 SWAP2 AND DUP2 MSTORE PUSH1 0x20 ADD PUSH2 0x129 JUMP JUMPDEST PUSH2 0x11D PUSH2 0x1FE CALLDATASIZE PUSH1 0x4 PUSH2 0xB8A JUMP JUMPDEST PUSH2 0x33F JUMP JUMPDEST PUSH2 0x175 PUSH2 0x211 CALLDATASIZE PUSH1 0x4 PUSH2 0xBD4 JUMP JUMPDEST PUSH2 0x367 JUMP JUMPDEST PUSH2 0x154 PUSH0 DUP2 JUMP JUMPDEST PUSH2 0x230 PUSH2 0x22B CALLDATASIZE PUSH1 0x4 PUSH2 0xB58 JUMP JUMPDEST PUSH2 0x488 JUMP JUMPDEST PUSH1 0x40 MLOAD PUSH2 0x129 SWAP2 SWAP1 PUSH2 0xBED JUMP JUMPDEST PUSH2 0x154 PUSH2 0x24B CALLDATASIZE PUSH1 0x4 PUSH2 0xB58 JUMP JUMPDEST PUSH2 0x4A1 JUMP JUMPDEST PUSH2 0x175 PUSH2 0x25E CALLDATASIZE PUSH1 0x4 PUSH2 0xC38 JUMP JUMPDEST PUSH2 0x4B7 JUMP JUMPDEST PUSH2 0x175 PUSH2 0x271 CALLDATASIZE PUSH1 0x4 PUSH2 0xB8A JUMP JUMPDEST PUSH2 0x56F JUMP JUMPDEST PUSH2 0x175 PUSH2 0x284 CALLDATASIZE PUSH1 0x4 PUSH2 0xC38 JUMP JUMPDEST PUSH2 0x593 JUMP JUMPDEST PUSH1 0x2 SLOAD PUSH2 0x1D8 SWAP1 PUSH1 0x1 PUSH1 0x1 PUSH1 0xA0 SHL SUB AND DUP2 JUMP JUMPDEST PUSH2 0x154 PUSH2 0x2AA CALLDATASIZE PUSH1 0x4 PUSH2 0xBD4 JUMP JUMPDEST PUSH2 0x624 JUMP JUMPDEST PUSH0 PUSH2 0x2B9 DUP3 PUSH2 0x68C JUMP JUMPDEST SWAP3 SWAP2 POP POP JUMP JUMPDEST PUSH0 DUP3 DUP2 MSTORE PUSH1 0x20 DUP2 SWAP1 MSTORE PUSH1 0x40 SWAP1 KECCAK256 PUSH1 0x1 ADD SLOAD PUSH2 0x2D9 DUP2 PUSH2 0x6B0 JUMP JUMPDEST PUSH2 0x2E3 DUP4 DUP4 PUSH2 0x6BD JUMP JUMPDEST POP POP POP POP JUMP JUMPDEST PUSH1 0x1 PUSH1 0x1 PUSH1 0xA0 SHL SUB DUP2 AND CALLER EQ PUSH2 0x312 JUMPI PUSH1 0x40 MLOAD PUSH4 0x334BD919 PUSH1 0xE1 SHL DUP2 MSTORE PUSH1 0x4 ADD PUSH1 0x40 MLOAD DUP1 SWAP2 SUB SWAP1 REVERT JUMPDEST PUSH2 0x31C DUP3 DUP3 PUSH2 0x6F0 JUMP JUMPDEST POP POP POP JUMP JUMPDEST PUSH0 DUP3 DUP2 MSTORE PUSH1 0x1 PUSH1 0x20 MSTORE PUSH1 0x40 DUP2 KECCAK256 PUSH2 0x338 SWAP1 DUP4 PUSH2 0x71B JUMP JUMPDEST SWAP4 SWAP3 POP POP POP JUMP JUMPDEST PUSH0 SWAP2 DUP3 MSTORE PUSH1 0x20 DUP3 DUP2 MSTORE PUSH1 0x40 DUP1 DUP5 KECCAK256 PUSH1 0x1 PUSH1 0x1 PUSH1 0xA0 SHL SUB SWAP4 SWAP1 SWAP4 AND DUP5 MSTORE SWAP2 SWAP1 MSTORE SWAP1 KECCAK256 SLOAD PUSH1 0xFF AND SWAP1 JUMP JUMPDEST PUSH32 0xA49807205CE4D355092EF5A8A18F56E8913CF4A201FBE287825B095693C21775 PUSH2 0x391 DUP2 PUSH2 0x6B0 JUMP JUMPDEST PUSH1 0x2 SLOAD PUSH1 0x1 PUSH1 0xA0 SHL SWAP1 DIV PUSH1 0xFF AND ISZERO PUSH2 0x3F0 JUMPI PUSH1 0x40 MLOAD PUSH3 0x461BCD PUSH1 0xE5 SHL DUP2 MSTORE PUSH1 0x20 PUSH1 0x4 DUP3 ADD MSTORE PUSH1 0x1C PUSH1 0x24 DUP3 ADD MSTORE PUSH32 0x5374616B696E6720636F6E747261637420616C72656164792073657400000000 PUSH1 0x44 DUP3 ADD MSTORE PUSH1 0x64 ADD JUMPDEST PUSH1 0x40 MLOAD DUP1 SWAP2 SUB SWAP1 REVERT JUMPDEST PUSH1 0x1 PUSH1 0x1 PUSH1 0xA0 SHL SUB DUP3 AND PUSH2 0x438 JUMPI PUSH1 0x40 MLOAD PUSH3 0x461BCD PUSH1 0xE5 SHL DUP2 MSTORE PUSH1 0x20 PUSH1 0x4 DUP3 ADD MSTORE PUSH1 0xF PUSH1 0x24 DUP3 ADD MSTORE PUSH15 0x496E76616C69642061646472657373 PUSH1 0x88 SHL PUSH1 0x44 DUP3 ADD MSTORE PUSH1 0x64 ADD PUSH2 0x3E7 JUMP JUMPDEST PUSH1 0x2 DUP1 SLOAD PUSH1 0x1 PUSH1 0x1 PUSH1 0xA8 SHL SUB NOT AND PUSH1 0x1 PUSH1 0x1 PUSH1 0xA0 SHL SUB DUP5 AND SWAP1 DUP2 OR PUSH1 0x1 PUSH1 0xA0 SHL OR SWAP1 SWAP2 SSTORE PUSH1 0x40 MLOAD PUSH32 0x1253844B0FFF3DA7DD2829DE816C9B4F94C238CF2BF6EB72C02C7D6F2B53BEAC SWAP1 PUSH0 SWAP1 LOG2 POP POP JUMP JUMPDEST PUSH0 DUP2 DUP2 MSTORE PUSH1 0x1 PUSH1 0x20 MSTORE PUSH1 0x40 SWAP1 KECCAK256 PUSH1 0x60 SWAP1 PUSH2 0x2B9 SWAP1 PUSH2 0x726 JUMP JUMPDEST PUSH0 DUP2 DUP2 MSTORE PUSH1 0x1 PUSH1 0x20 MSTORE PUSH1 0x40 DUP2 KECCAK256 PUSH2 0x2B9 SWAP1 PUSH2 0x732 JUMP JUMPDEST PUSH1 0x2 SLOAD PUSH1 0x1 PUSH1 0x1 PUSH1 0xA0 SHL SUB AND CALLER EQ PUSH2 0x509 JUMPI PUSH1 0x40 MLOAD PUSH3 0x461BCD PUSH1 0xE5 SHL DUP2 MSTORE PUSH1 0x20 PUSH1 0x4 DUP3 ADD MSTORE PUSH1 0x15 PUSH1 0x24 DUP3 ADD MSTORE PUSH21 0x13DB9B1E481CDD185ADA5B99C818DBDB9D1C9858DD PUSH1 0x5A SHL PUSH1 0x44 DUP3 ADD MSTORE PUSH1 0x64 ADD PUSH2 0x3E7 JUMP JUMPDEST PUSH2 0x51D PUSH1 0x1 PUSH1 0x1 PUSH1 0xA0 SHL SUB DUP4 AND DUP5 DUP4 PUSH2 0x73B JUMP JUMPDEST DUP2 PUSH1 0x1 PUSH1 0x1 PUSH1 0xA0 SHL SUB AND DUP4 PUSH1 0x1 PUSH1 0x1 PUSH1 0xA0 SHL SUB AND PUSH32 0x540798DF468D7B23D11F156FDB954CB19AD414D150722A7B6D55BA369DEA792E DUP4 PUSH1 0x40 MLOAD PUSH2 0x562 SWAP2 DUP2 MSTORE PUSH1 0x20 ADD SWAP1 JUMP JUMPDEST PUSH1 0x40 MLOAD DUP1 SWAP2 SUB SWAP1 LOG3 POP POP POP JUMP JUMPDEST PUSH0 DUP3 DUP2 MSTORE PUSH1 0x20 DUP2 SWAP1 MSTORE PUSH1 0x40 SWAP1 KECCAK256 PUSH1 0x1 ADD SLOAD PUSH2 0x589 DUP2 PUSH2 0x6B0 JUMP JUMPDEST PUSH2 0x2E3 DUP4 DUP4 PUSH2 0x6F0 JUMP JUMPDEST PUSH32 0xA49807205CE4D355092EF5A8A18F56E8913CF4A201FBE287825B095693C21775 PUSH2 0x5BD DUP2 PUSH2 0x6B0 JUMP JUMPDEST PUSH2 0x5D1 PUSH1 0x1 PUSH1 0x1 PUSH1 0xA0 SHL SUB DUP6 AND DUP5 DUP5 PUSH2 0x73B JUMP JUMPDEST DUP3 PUSH1 0x1 PUSH1 0x1 PUSH1 0xA0 SHL SUB AND DUP5 PUSH1 0x1 PUSH1 0x1 PUSH1 0xA0 SHL SUB AND PUSH32 0xF24EF89F38EADC1BDE50701AD6E4D6D11A2DC24F7CF834A486991F3883328504 DUP5 PUSH1 0x40 MLOAD PUSH2 0x616 SWAP2 DUP2 MSTORE PUSH1 0x20 ADD SWAP1 JUMP JUMPDEST PUSH1 0x40 MLOAD DUP1 SWAP2 SUB SWAP1 LOG3 POP POP POP POP JUMP JUMPDEST PUSH1 0x40 MLOAD PUSH4 0x70A08231 PUSH1 0xE0 SHL DUP2 MSTORE ADDRESS PUSH1 0x4 DUP3 ADD MSTORE PUSH0 SWAP1 PUSH1 0x1 PUSH1 0x1 PUSH1 0xA0 SHL SUB DUP4 AND SWAP1 PUSH4 0x70A08231 SWAP1 PUSH1 0x24 ADD PUSH1 0x20 PUSH1 0x40 MLOAD DUP1 DUP4 SUB DUP2 DUP7 GAS STATICCALL ISZERO DUP1 ISZERO PUSH2 0x668 JUMPI RETURNDATASIZE PUSH0 PUSH0 RETURNDATACOPY RETURNDATASIZE PUSH0 REVERT JUMPDEST POP POP POP POP PUSH1 0x40 MLOAD RETURNDATASIZE PUSH1 0x1F NOT PUSH1 0x1F DUP3 ADD AND DUP3 ADD DUP1 PUSH1 0x40 MSTORE POP DUP2 ADD SWAP1 PUSH2 0x2B9 SWAP2 SWAP1 PUSH2 0xC72 JUMP JUMPDEST PUSH0 PUSH1 0x1 PUSH1 0x1 PUSH1 0xE0 SHL SUB NOT DUP3 AND PUSH4 0x5A05180F PUSH1 0xE0 SHL EQ DUP1 PUSH2 0x2B9 JUMPI POP PUSH2 0x2B9 DUP3 PUSH2 0x78D JUMP JUMPDEST PUSH2 0x6BA DUP2 CALLER PUSH2 0x7C1 JUMP JUMPDEST POP JUMP JUMPDEST PUSH0 PUSH0 PUSH2 0x6C9 DUP5 DUP5 PUSH2 0x7FE JUMP JUMPDEST SWAP1 POP DUP1 ISZERO PUSH2 0x338 JUMPI PUSH0 DUP5 DUP2 MSTORE PUSH1 0x1 PUSH1 0x20 MSTORE PUSH1 0x40 SWAP1 KECCAK256 PUSH2 0x6E8 SWAP1 DUP5 PUSH2 0x88D JUMP JUMPDEST POP SWAP4 SWAP3 POP POP POP JUMP JUMPDEST PUSH0 PUSH0 PUSH2 0x6FC DUP5 DUP5 PUSH2 0x8A1 JUMP JUMPDEST SWAP1 POP DUP1 ISZERO PUSH2 0x338 JUMPI PUSH0 DUP5 DUP2 MSTORE PUSH1 0x1 PUSH1 0x20 MSTORE PUSH1 0x40 SWAP1 KECCAK256 PUSH2 0x6E8 SWAP1 DUP5 PUSH2 0x90A JUMP JUMPDEST PUSH0 PUSH2 0x338 DUP4 DUP4 PUSH2 0x91E JUMP JUMPDEST PUSH1 0x60 PUSH0 PUSH2 0x338 DUP4 PUSH2 0x944 JUMP JUMPDEST PUSH0 PUSH2 0x2B9 DUP3 SLOAD SWAP1 JUMP JUMPDEST PUSH1 0x40 DUP1 MLOAD PUSH1 0x1 PUSH1 0x1 PUSH1 0xA0 SHL SUB DUP5 AND PUSH1 0x24 DUP3 ADD MSTORE PUSH1 0x44 DUP1 DUP3 ADD DUP5 SWAP1 MSTORE DUP3 MLOAD DUP1 DUP4 SUB SWAP1 SWAP2 ADD DUP2 MSTORE PUSH1 0x64 SWAP1 SWAP2 ADD SWAP1 SWAP2 MSTORE PUSH1 0x20 DUP2 ADD DUP1 MLOAD PUSH1 0x1 PUSH1 0x1 PUSH1 0xE0 SHL SUB AND PUSH4 0xA9059CBB PUSH1 0xE0 SHL OR SWAP1 MSTORE PUSH2 0x31C SWAP1 DUP5 SWAP1 PUSH2 0x99D JUMP JUMPDEST PUSH0 PUSH1 0x1 PUSH1 0x1 PUSH1 0xE0 SHL SUB NOT DUP3 AND PUSH4 0x7965DB0B PUSH1 0xE0 SHL EQ DUP1 PUSH2 0x2B9 JUMPI POP PUSH4 0x1FFC9A7 PUSH1 0xE0 SHL PUSH1 0x1 PUSH1 0x1 PUSH1 0xE0 SHL SUB NOT DUP4 AND EQ PUSH2 0x2B9 JUMP JUMPDEST PUSH2 0x7CB DUP3 DUP3 PUSH2 0x33F JUMP JUMPDEST PUSH2 0x7FA JUMPI PUSH1 0x40 MLOAD PUSH4 0xE2517D3F PUSH1 0xE0 SHL DUP2 MSTORE PUSH1 0x1 PUSH1 0x1 PUSH1 0xA0 SHL SUB DUP3 AND PUSH1 0x4 DUP3 ADD MSTORE PUSH1 0x24 DUP2 ADD DUP4 SWAP1 MSTORE PUSH1 0x44 ADD PUSH2 0x3E7 JUMP JUMPDEST POP POP JUMP JUMPDEST PUSH0 PUSH2 0x809 DUP4 DUP4 PUSH2 0x33F JUMP JUMPDEST PUSH2 0x886 JUMPI PUSH0 DUP4 DUP2 MSTORE PUSH1 0x20 DUP2 DUP2 MSTORE PUSH1 0x40 DUP1 DUP4 KECCAK256 PUSH1 0x1 PUSH1 0x1 PUSH1 0xA0 SHL SUB DUP7 AND DUP5 MSTORE SWAP1 SWAP2 MSTORE SWAP1 KECCAK256 DUP1 SLOAD PUSH1 0xFF NOT AND PUSH1 0x1 OR SWAP1 SSTORE PUSH2 0x83E CALLER SWAP1 JUMP JUMPDEST PUSH1 0x1 PUSH1 0x1 PUSH1 0xA0 SHL SUB AND DUP3 PUSH1 0x1 PUSH1 0x1 PUSH1 0xA0 SHL SUB AND DUP5 PUSH32 0x2F8788117E7EFF1D82E926EC794901D17C78024A50270940304540A733656F0D PUSH1 0x40 MLOAD PUSH1 0x40 MLOAD DUP1 SWAP2 SUB SWAP1 LOG4 POP PUSH1 0x1 PUSH2 0x2B9 JUMP JUMPDEST POP PUSH0 PUSH2 0x2B9 JUMP JUMPDEST PUSH0 PUSH2 0x338 DUP4 PUSH1 0x1 PUSH1 0x1 PUSH1 0xA0 SHL SUB DUP5 AND PUSH2 0xA09 JUMP JUMPDEST PUSH0 PUSH2 0x8AC DUP4 DUP4 PUSH2 0x33F JUMP JUMPDEST ISZERO PUSH2 0x886 JUMPI PUSH0 DUP4 DUP2 MSTORE PUSH1 0x20 DUP2 DUP2 MSTORE PUSH1 0x40 DUP1 DUP4 KECCAK256 PUSH1 0x1 PUSH1 0x1 PUSH1 0xA0 SHL SUB DUP7 AND DUP1 DUP6 MSTORE SWAP3 MSTORE DUP1 DUP4 KECCAK256 DUP1 SLOAD PUSH1 0xFF NOT AND SWAP1 SSTORE MLOAD CALLER SWAP3 DUP7 SWAP2 PUSH32 0xF6391F5C32D9C69D2A47EA670B442974B53935D1EDC7FD64EB21E047A839171B SWAP2 SWAP1 LOG4 POP PUSH1 0x1 PUSH2 0x2B9 JUMP JUMPDEST PUSH0 PUSH2 0x338 DUP4 PUSH1 0x1 PUSH1 0x1 PUSH1 0xA0 SHL SUB DUP5 AND PUSH2 0xA4E JUMP JUMPDEST PUSH0 DUP3 PUSH0 ADD DUP3 DUP2 SLOAD DUP2 LT PUSH2 0x933 JUMPI PUSH2 0x933 PUSH2 0xC89 JUMP JUMPDEST SWAP1 PUSH0 MSTORE PUSH1 0x20 PUSH0 KECCAK256 ADD SLOAD SWAP1 POP SWAP3 SWAP2 POP POP JUMP JUMPDEST PUSH1 0x60 DUP2 PUSH0 ADD DUP1 SLOAD DUP1 PUSH1 0x20 MUL PUSH1 0x20 ADD PUSH1 0x40 MLOAD SWAP1 DUP2 ADD PUSH1 0x40 MSTORE DUP1 SWAP3 SWAP2 SWAP1 DUP2 DUP2 MSTORE PUSH1 0x20 ADD DUP3 DUP1 SLOAD DUP1 ISZERO PUSH2 0x991 JUMPI PUSH1 0x20 MUL DUP3 ADD SWAP2 SWAP1 PUSH0 MSTORE PUSH1 0x20 PUSH0 KECCAK256 SWAP1 JUMPDEST DUP2 SLOAD DUP2 MSTORE PUSH1 0x20 ADD SWAP1 PUSH1 0x1 ADD SWAP1 DUP1 DUP4 GT PUSH2 0x97D JUMPI JUMPDEST POP POP POP POP POP SWAP1 POP SWAP2 SWAP1 POP JUMP JUMPDEST PUSH0 PUSH0 PUSH1 0x20 PUSH0 DUP5 MLOAD PUSH1 0x20 DUP7 ADD PUSH0 DUP9 GAS CALL DUP1 PUSH2 0x9BC JUMPI PUSH1 0x40 MLOAD RETURNDATASIZE PUSH0 DUP3 RETURNDATACOPY RETURNDATASIZE DUP2 REVERT JUMPDEST POP POP PUSH0 MLOAD RETURNDATASIZE SWAP2 POP DUP2 ISZERO PUSH2 0x9D3 JUMPI DUP1 PUSH1 0x1 EQ ISZERO PUSH2 0x9E0 JUMP JUMPDEST PUSH1 0x1 PUSH1 0x1 PUSH1 0xA0 SHL SUB DUP5 AND EXTCODESIZE ISZERO JUMPDEST ISZERO PUSH2 0x2E3 JUMPI PUSH1 0x40 MLOAD PUSH4 0x5274AFE7 PUSH1 0xE0 SHL DUP2 MSTORE PUSH1 0x1 PUSH1 0x1 PUSH1 0xA0 SHL SUB DUP6 AND PUSH1 0x4 DUP3 ADD MSTORE PUSH1 0x24 ADD PUSH2 0x3E7 JUMP JUMPDEST PUSH0 DUP2 DUP2 MSTORE PUSH1 0x1 DUP4 ADD PUSH1 0x20 MSTORE PUSH1 0x40 DUP2 KECCAK256 SLOAD PUSH2 0x886 JUMPI POP DUP2 SLOAD PUSH1 0x1 DUP2 DUP2 ADD DUP5 SSTORE PUSH0 DUP5 DUP2 MSTORE PUSH1 0x20 DUP1 DUP3 KECCAK256 SWAP1 SWAP4 ADD DUP5 SWAP1 SSTORE DUP5 SLOAD DUP5 DUP3 MSTORE DUP3 DUP7 ADD SWAP1 SWAP4 MSTORE PUSH1 0x40 SWAP1 KECCAK256 SWAP2 SWAP1 SWAP2 SSTORE PUSH2 0x2B9 JUMP JUMPDEST PUSH0 DUP2 DUP2 MSTORE PUSH1 0x1 DUP4 ADD PUSH1 0x20 MSTORE PUSH1 0x40 DUP2 KECCAK256 SLOAD DUP1 ISZERO PUSH2 0xB28 JUMPI PUSH0 PUSH2 0xA70 PUSH1 0x1 DUP4 PUSH2 0xC9D JUMP JUMPDEST DUP6 SLOAD SWAP1 SWAP2 POP PUSH0 SWAP1 PUSH2 0xA83 SWAP1 PUSH1 0x1 SWAP1 PUSH2 0xC9D JUMP JUMPDEST SWAP1 POP DUP1 DUP3 EQ PUSH2 0xAE2 JUMPI PUSH0 DUP7 PUSH0 ADD DUP3 DUP2 SLOAD DUP2 LT PUSH2 0xAA1 JUMPI PUSH2 0xAA1 PUSH2 0xC89 JUMP JUMPDEST SWAP1 PUSH0 MSTORE PUSH1 0x20 PUSH0 KECCAK256 ADD SLOAD SWAP1 POP DUP1 DUP8 PUSH0 ADD DUP5 DUP2 SLOAD DUP2 LT PUSH2 0xAC1 JUMPI PUSH2 0xAC1 PUSH2 0xC89 JUMP JUMPDEST PUSH0 SWAP2 DUP3 MSTORE PUSH1 0x20 DUP1 DUP4 KECCAK256 SWAP1 SWAP2 ADD SWAP3 SWAP1 SWAP3 SSTORE SWAP2 DUP3 MSTORE PUSH1 0x1 DUP9 ADD SWAP1 MSTORE PUSH1 0x40 SWAP1 KECCAK256 DUP4 SWAP1 SSTORE JUMPDEST DUP6 SLOAD DUP7 SWAP1 DUP1 PUSH2 0xAF3 JUMPI PUSH2 0xAF3 PUSH2 0xCBC JUMP JUMPDEST PUSH1 0x1 SWAP1 SUB DUP2 DUP2 SWAP1 PUSH0 MSTORE PUSH1 0x20 PUSH0 KECCAK256 ADD PUSH0 SWAP1 SSTORE SWAP1 SSTORE DUP6 PUSH1 0x1 ADD PUSH0 DUP7 DUP2 MSTORE PUSH1 0x20 ADD SWAP1 DUP2 MSTORE PUSH1 0x20 ADD PUSH0 KECCAK256 PUSH0 SWAP1 SSTORE PUSH1 0x1 SWAP4 POP POP POP POP PUSH2 0x2B9 JUMP JUMPDEST PUSH0 SWAP2 POP POP PUSH2 0x2B9 JUMP JUMPDEST PUSH0 PUSH1 0x20 DUP3 DUP5 SUB SLT ISZERO PUSH2 0xB41 JUMPI PUSH0 PUSH0 REVERT JUMPDEST DUP2 CALLDATALOAD PUSH1 0x1 PUSH1 0x1 PUSH1 0xE0 SHL SUB NOT DUP2 AND DUP2 EQ PUSH2 0x338 JUMPI PUSH0 PUSH0 REVERT JUMPDEST PUSH0 PUSH1 0x20 DUP3 DUP5 SUB SLT ISZERO PUSH2 0xB68 JUMPI PUSH0 PUSH0 REVERT JUMPDEST POP CALLDATALOAD SWAP2 SWAP1 POP JUMP JUMPDEST DUP1 CALLDATALOAD PUSH1 0x1 PUSH1 0x1 PUSH1 0xA0 SHL SUB DUP2 AND DUP2 EQ PUSH2 0xB85 JUMPI PUSH0 PUSH0 REVERT JUMPDEST SWAP2 SWAP1 POP JUMP JUMPDEST PUSH0 PUSH0 PUSH1 0x40 DUP4 DUP6 SUB SLT ISZERO PUSH2 0xB9B JUMPI PUSH0 PUSH0 REVERT JUMPDEST DUP3 CALLDATALOAD SWAP2 POP PUSH2 0xBAB PUSH1 0x20 DUP5 ADD PUSH2 0xB6F JUMP JUMPDEST SWAP1 POP SWAP3 POP SWAP3 SWAP1 POP JUMP JUMPDEST PUSH0 PUSH0 PUSH1 0x40 DUP4 DUP6 SUB SLT ISZERO PUSH2 0xBC5 JUMPI PUSH0 PUSH0 REVERT JUMPDEST POP POP DUP1 CALLDATALOAD SWAP3 PUSH1 0x20 SWAP1 SWAP2 ADD CALLDATALOAD SWAP2 POP JUMP JUMPDEST PUSH0 PUSH1 0x20 DUP3 DUP5 SUB SLT ISZERO PUSH2 0xBE4 JUMPI PUSH0 PUSH0 REVERT JUMPDEST PUSH2 0x338 DUP3 PUSH2 0xB6F JUMP JUMPDEST PUSH1 0x20 DUP1 DUP3 MSTORE DUP3 MLOAD DUP3 DUP3 ADD DUP2 SWAP1 MSTORE PUSH0 SWAP2 DUP5 ADD SWAP1 PUSH1 0x40 DUP5 ADD SWAP1 DUP4 JUMPDEST DUP2 DUP2 LT ISZERO PUSH2 0xC2D JUMPI DUP4 MLOAD PUSH1 0x1 PUSH1 0x1 PUSH1 0xA0 SHL SUB AND DUP4 MSTORE PUSH1 0x20 SWAP4 DUP5 ADD SWAP4 SWAP1 SWAP3 ADD SWAP2 PUSH1 0x1 ADD PUSH2 0xC06 JUMP JUMPDEST POP SWAP1 SWAP6 SWAP5 POP POP POP POP POP JUMP JUMPDEST PUSH0 PUSH0 PUSH0 PUSH1 0x60 DUP5 DUP7 SUB SLT ISZERO PUSH2 0xC4A JUMPI PUSH0 PUSH0 REVERT JUMPDEST PUSH2 0xC53 DUP5 PUSH2 0xB6F JUMP JUMPDEST SWAP3 POP PUSH2 0xC61 PUSH1 0x20 DUP6 ADD PUSH2 0xB6F JUMP JUMPDEST SWAP3 SWAP6 SWAP3 SWAP5 POP POP POP PUSH1 0x40 SWAP2 SWAP1 SWAP2 ADD CALLDATALOAD SWAP1 JUMP JUMPDEST PUSH0 PUSH1 0x20 DUP3 DUP5 SUB SLT ISZERO PUSH2 0xC82 JUMPI PUSH0 PUSH0 REVERT JUMPDEST POP MLOAD SWAP2 SWAP1 POP JUMP JUMPDEST PUSH4 0x4E487B71 PUSH1 0xE0 SHL PUSH0 MSTORE PUSH1 0x32 PUSH1 0x4 MSTORE PUSH1 0x24 PUSH0 REVERT JUMPDEST DUP2 DUP2 SUB DUP2 DUP2 GT ISZERO PUSH2 0x2B9 JUMPI PUSH4 0x4E487B71 PUSH1 0xE0 SHL PUSH0 MSTORE PUSH1 0x11 PUSH1 0x4 MSTORE PUSH1 0x24 PUSH0 REVERT JUMPDEST PUSH4 0x4E487B71 PUSH1 0xE0 SHL PUSH0 MSTORE PUSH1 0x31 PUSH1 0x4 MSTORE PUSH1 0x24 PUSH0 REVERT INVALID LOG2 PUSH5 0x6970667358 0x22 SLT KECCAK256 0x22 SIGNEXTEND LOG0 0xD4 JUMPDEST DUP13 0xB9 0xC1 0xC6 MOD 0xB1 0xAC EXTCODESIZE 0x2F PUSH13 0x84A508BA9562474B7B7A401319 PUSH30 0x97FB5364736F6C634300081D003300000000000000000000000000000000 "
		},
		"gasEstimates": {
			"creation": {
				"codeDepositCost": "666800",
				"executionCost": "infinite",
				"totalCost": "infinite"
			},
			"external": {
				"ADMIN_ROLE()": "217",
				"DEFAULT_ADMIN_ROLE()": "238",
				"emergencyWithdraw(address,address,uint256)": "infinite",
				"getBalance(address)": "infinite",
				"getRoleAdmin(bytes32)": "2490",
				"getRoleMember(bytes32,uint256)": "infinite",
				"getRoleMemberCount(bytes32)": "infinite",
				"getRoleMembers(bytes32)": "infinite",
				"grantRole(bytes32,address)": "infinite",
				"hasRole(bytes32,address)": "2736",
				"payReward(address,address,uint256)": "infinite",
				"renounceRole(bytes32,address)": "infinite",
				"revokeRole(bytes32,address)": "infinite",
				"setStakingContract(address)": "30301",
				"stakingContract()": "2424",
				"stakingContractSet()": "2360",
				"supportsInterface(bytes4)": "infinite"
			}
		},
		"methodIdentifiers": {
			"ADMIN_ROLE()": "75b238fc",
			"DEFAULT_ADMIN_ROLE()": "a217fddf",
			"emergencyWithdraw(address,address,uint256)": "e63ea408",
			"getBalance(address)": "f8b2cb4f",
			"getRoleAdmin(bytes32)": "248a9ca3",
			"getRoleMember(bytes32,uint256)": "9010d07c",
			"getRoleMemberCount(bytes32)": "ca15c873",
			"getRoleMembers(bytes32)": "a3246ad3",
			"grantRole(bytes32,address)": "2f2ff15d",
			"hasRole(bytes32,address)": "91d14854",
			"payReward(address,address,uint256)": "cd8515cf",
			"renounceRole(bytes32,address)": "36568abe",
			"revokeRole(bytes32,address)": "d547741f",
			"setStakingContract(address)": "9dd373b9",
			"stakingContract()": "ee99205c",
			"stakingContractSet()": "88671eb0",
			"supportsInterface(bytes4)": "01ffc9a7"
		}
	},
	"abi": [
		{
			"inputs": [
				{
					"internalType": "address",
					"name": "_admin",
					"type": "address"
				}
			],
			"stateMutability": "nonpayable",
			"type": "constructor"
		},
		{
			"inputs": [],
			"name": "AccessControlBadConfirmation",
			"type": "error"
		},
		{
			"inputs": [
				{
					"internalType": "address",
					"name": "account",
					"type": "address"
				},
				{
					"internalType": "bytes32",
					"name": "neededRole",
					"type": "bytes32"
				}
			],
			"name": "AccessControlUnauthorizedAccount",
			"type": "error"
		},
		{
			"inputs": [
				{
					"internalType": "address",
					"name": "token",
					"type": "address"
				}
			],
			"name": "SafeERC20FailedOperation",
			"type": "error"
		},
		{
			"anonymous": false,
			"inputs": [
				{
					"indexed": true,
					"internalType": "address",
					"name": "token",
					"type": "address"
				},
				{
					"indexed": true,
					"internalType": "address",
					"name": "recipient",
					"type": "address"
				},
				{
					"indexed": false,
					"internalType": "uint256",
					"name": "amount",
					"type": "uint256"
				}
			],
			"name": "EmergencyWithdraw",
			"type": "event"
		},
		{
			"anonymous": false,
			"inputs": [
				{
					"indexed": true,
					"internalType": "address",
					"name": "user",
					"type": "address"
				},
				{
					"indexed": true,
					"internalType": "address",
					"name": "token",
					"type": "address"
				},
				{
					"indexed": false,
					"internalType": "uint256",
					"name": "amount",
					"type": "uint256"
				}
			],
			"name": "RewardPaid",
			"type": "event"
		},
		{
			"anonymous": false,
			"inputs": [
				{
					"indexed": true,
					"internalType": "bytes32",
					"name": "role",
					"type": "bytes32"
				},
				{
					"indexed": true,
					"internalType": "bytes32",
					"name": "previousAdminRole",
					"type": "bytes32"
				},
				{
					"indexed": true,
					"internalType": "bytes32",
					"name": "newAdminRole",
					"type": "bytes32"
				}
			],
			"name": "RoleAdminChanged",
			"type": "event"
		},
		{
			"anonymous": false,
			"inputs": [
				{
					"indexed": true,
					"internalType": "bytes32",
					"name": "role",
					"type": "bytes32"
				},
				{
					"indexed": true,
					"internalType": "address",
					"name": "account",
					"type": "address"
				},
				{
					"indexed": true,
					"internalType": "address",
					"name": "sender",
					"type": "address"
				}
			],
			"name": "RoleGranted",
			"type": "event"
		},
		{
			"anonymous": false,
			"inputs": [
				{
					"indexed": true,
					"internalType": "bytes32",
					"name": "role",
					"type": "bytes32"
				},
				{
					"indexed": true,
					"internalType": "address",
					"name": "account",
					"type": "address"
				},
				{
					"indexed": true,
					"internalType": "address",
					"name": "sender",
					"type": "address"
				}
			],
			"name": "RoleRevoked",
			"type": "event"
		},
		{
			"anonymous": false,
			"inputs": [
				{
					"indexed": true,
					"internalType": "address",
					"name": "stakingContract",
					"type": "address"
				}
			],
			"name": "StakingContractSet",
			"type": "event"
		},
		{
			"inputs": [],
			"name": "ADMIN_ROLE",
			"outputs": [
				{
					"internalType": "bytes32",
					"name": "",
					"type": "bytes32"
				}
			],
			"stateMutability": "view",
			"type": "function"
		},
		{
			"inputs": [],
			"name": "DEFAULT_ADMIN_ROLE",
			"outputs": [
				{
					"internalType": "bytes32",
					"name": "",
					"type": "bytes32"
				}
			],
			"stateMutability": "view",
			"type": "function"
		},
		{
			"inputs": [
				{
					"internalType": "address",
					"name": "token",
					"type": "address"
				},
				{
					"internalType": "address",
					"name": "recipient",
					"type": "address"
				},
				{
					"internalType": "uint256",
					"name": "amount",
					"type": "uint256"
				}
			],
			"name": "emergencyWithdraw",
			"outputs": [],
			"stateMutability": "nonpayable",
			"type": "function"
		},
		{
			"inputs": [
				{
					"internalType": "address",
					"name": "token",
					"type": "address"
				}
			],
			"name": "getBalance",
			"outputs": [
				{
					"internalType": "uint256",
					"name": "",
					"type": "uint256"
				}
			],
			"stateMutability": "view",
			"type": "function"
		},
		{
			"inputs": [
				{
					"internalType": "bytes32",
					"name": "role",
					"type": "bytes32"
				}
			],
			"name": "getRoleAdmin",
			"outputs": [
				{
					"internalType": "bytes32",
					"name": "",
					"type": "bytes32"
				}
			],
			"stateMutability": "view",
			"type": "function"
		},
		{
			"inputs": [
				{
					"internalType": "bytes32",
					"name": "role",
					"type": "bytes32"
				},
				{
					"internalType": "uint256",
					"name": "index",
					"type": "uint256"
				}
			],
			"name": "getRoleMember",
			"outputs": [
				{
					"internalType": "address",
					"name": "",
					"type": "address"
				}
			],
			"stateMutability": "view",
			"type": "function"
		},
		{
			"inputs": [
				{
					"internalType": "bytes32",
					"name": "role",
					"type": "bytes32"
				}
			],
			"name": "getRoleMemberCount",
			"outputs": [
				{
					"internalType": "uint256",
					"name": "",
					"type": "uint256"
				}
			],
			"stateMutability": "view",
			"type": "function"
		},
		{
			"inputs": [
				{
					"internalType": "bytes32",
					"name": "role",
					"type": "bytes32"
				}
			],
			"name": "getRoleMembers",
			"outputs": [
				{
					"internalType": "address[]",
					"name": "",
					"type": "address[]"
				}
			],
			"stateMutability": "view",
			"type": "function"
		},
		{
			"inputs": [
				{
					"internalType": "bytes32",
					"name": "role",
					"type": "bytes32"
				},
				{
					"internalType": "address",
					"name": "account",
					"type": "address"
				}
			],
			"name": "grantRole",
			"outputs": [],
			"stateMutability": "nonpayable",
			"type": "function"
		},
		{
			"inputs": [
				{
					"internalType": "bytes32",
					"name": "role",
					"type": "bytes32"
				},
				{
					"internalType": "address",
					"name": "account",
					"type": "address"
				}
			],
			"name": "hasRole",
			"outputs": [
				{
					"internalType": "bool",
					"name": "",
					"type": "bool"
				}
			],
			"stateMutability": "view",
			"type": "function"
		},
		{
			"inputs": [
				{
					"internalType": "address",
					"name": "user",
					"type": "address"
				},
				{
					"internalType": "address",
					"name": "token",
					"type": "address"
				},
				{
					"internalType": "uint256",
					"name": "amount",
					"type": "uint256"
				}
			],
			"name": "payReward",
			"outputs": [],
			"stateMutability": "nonpayable",
			"type": "function"
		},
		{
			"inputs": [
				{
					"internalType": "bytes32",
					"name": "role",
					"type": "bytes32"
				},
				{
					"internalType": "address",
					"name": "callerConfirmation",
					"type": "address"
				}
			],
			"name": "renounceRole",
			"outputs": [],
			"stateMutability": "nonpayable",
			"type": "function"
		},
		{
			"inputs": [
				{
					"internalType": "bytes32",
					"name": "role",
					"type": "bytes32"
				},
				{
					"internalType": "address",
					"name": "account",
					"type": "address"
				}
			],
			"name": "revokeRole",
			"outputs": [],
			"stateMutability": "nonpayable",
			"type": "function"
		},
		{
			"inputs": [
				{
					"internalType": "address",
					"name": "_stakingContract",
					"type": "address"
				}
			],
			"name": "setStakingContract",
			"outputs": [],
			"stateMutability": "nonpayable",
			"type": "function"
		},
		{
			"inputs": [],
			"name": "stakingContract",
			"outputs": [
				{
					"internalType": "address",
					"name": "",
					"type": "address"
				}
			],
			"stateMutability": "view",
			"type": "function"
		},
		{
			"inputs": [],
			"name": "stakingContractSet",
			"outputs": [
				{
					"internalType": "bool",
					"name": "",
					"type": "bool"
				}
			],
			"stateMutability": "view",
			"type": "function"
		},
		{
			"inputs": [
				{
					"internalType": "bytes4",
					"name": "interfaceId",
					"type": "bytes4"
				}
			],
			"name": "supportsInterface",
			"outputs": [
				{
					"internalType": "bool",
					"name": "",
					"type": "bool"
				}
			],
			"stateMutability": "view",
			"type": "function"
		}
	]
}